:100000000C9481000C94B9190C9492190C94A900C9
:100010000C94A9000C94A9000C94A9000C946E18DF
:100020000C94A9000C94A9000C94A9000C94051A36
:100030000C94A9000C94E0190C94A9000C94A9004C
:100040000C9448190C94A9000C9416190C94F018EF
:100050000C94A9000C94A9000C94A9000C94A9007C
:100060000C94A9000C94A900252500452000262603
:10007000002525004420002626002525004E2000CE
:100080002626002525004220002626002525004999
:1000900020002626002525004100262600252500D3
:1000A000460026260000000000240027002A000049
:1000B00000000023002600290000000008000201C3
:1000C000000003040700000000000000000102041B
:1000D00008102040800102040810200102040810CA
:1000E0002000000000250028002B00040404040464
:1000F00004040402020202020203030303030302D4
:10010000061B11241FBECFEFD8E0DEBFCDBF12E02B
:10011000A0E0B1E0E4E2FDE402C005900D92A0375A
:10012000B107D9F726E0A0E7B2E001C01D92A333E2
:10013000B207E1F710E0C1E8D0E004C02197FE016A
:100140000E946426C038D107C9F70E94CF1B0C94C7
:1001500090260C940000AF92BF92CF92DF92EF9264
:10016000FF920F931F93CF93DF936C017B018B0161
:10017000040F151FEB015E01AE18BF08C017D107B1
:1001800059F06991D601ED91FC910190F081E02D3B
:10019000C6010995892B79F7C501DF91CF911F9190
:1001A0000F91FF90EF90DF90CF90BF90AF900895A8
:1001B000FC01538D448D252F30E0842F90E0821B6D
:1001C000930B541710F0CF96089501970895FC01F2
:1001D000918D828D981761F0A28DAE0FBF2FB11D4A
:1001E0005D968C91928D9F5F9F73928F90E00895A2
:1001F0008FEF9FEF0895FC01918D828D981731F05C
:10020000828DE80FF11D858D90E008958FEF9FEFAF
:100210000895FC01918D228D892F90E0805C9F4F85
:10022000821B91098F73992708958AE992E00E94B1
:10023000090121E0892B09F420E0822F089580E054
:1002400090E0892B29F00E94150181110C94000087
:100250000895FC01A48DA80FB92FB11DA35ABF4F5B
:100260002C91848D90E001968F739927848FA689B5
:10027000B7892C93A089B1898C91837080648C9309
:10028000938D848D981306C00288F389E02D8081B8
:100290008F7D80830895EF92FF920F931F93CF93EA
:1002A000DF93EC0181E0888F9B8D8C8D98131AC0B1
:1002B000E889F989808185FF15C09FB7F894EE8998
:1002C000FF896083E889F9898081837080648083F5
:1002D0009FBF81E090E0DF91CF911F910F91FF9040
:1002E000EF900895F62E0B8D10E00F5F1F4F0F73E8
:1002F0001127E02E8C8D8E110CC00FB607FCFACFA3
:10030000E889F989808185FFF5CFCE010E94290116
:10031000F1CFEB8DEC0FFD2FF11DE35AFF4FF08273
:100320009FB7F8940B8FEA89FB8980818062CFCFD9
:100330000F931F93CF93DF938C01D0E0C0E0F801BF
:10034000EC0FFD1F6491662341F08AE992E00E9460
:100350004B01892B11F02196F2CFCE01DF91CF9185
:100360001F910F910895CF93DF93EC01888D88231F
:10037000B9F0AA89BB89E889F9898C9185FD03C008
:10038000808186FD0DC00FB607FCF7CF8C9185FFED
:10039000F2CF808185FFEDCFCE010E942901E9CF08
:1003A000DF91CF910895833081F028F4813099F066
:1003B0008230A9F008958730A9F08830C9F08430E0
:1003C000B1F4809180008F7D03C0809180008F7791
:1003D00080938000089584B58F7784BD089584B597
:1003E0008F7DFBCF8091B0008F778093B000089510
:1003F0008091B0008F7DF9CFCF93DF93282F30E02D
:10040000F901E754FF4F8491F901E353FF4FD49171
:10041000F901E551FF4FC491CC23A1F081110E9455
:10042000D301EC2FF0E0EE0FFF1FE155FF4FA59138
:10043000B491EC91ED2381E090E009F480E0DF914C
:10044000CF91089580E090E0FACF1F93CF93DF9390
:10045000282F30E0F901E754FF4F8491F901E3536D
:10046000FF4FD491F901E551FF4FC491CC23A9F07E
:10047000162F81110E94D301EC2FF0E0EE0FFF1F29
:10048000EF51FF4FA591B4918FB7F894EC911111F2
:1004900008C0D095DE23DC938FBFDF91CF911F91F1
:1004A0000895DE2BF8CFCF93DF93D0E0C0E08091AA
:1004B0005C0390915D03A0915E03B0915F030C2EED
:1004C00004C0B695A795979587950A94D2F7682F9B
:1004D0006170809160030E9425020000000000000E
:1004E00061E0809161030E9425020000000000008D
:1004F00060E0809161030E9425022196CE31D105F2
:10050000B1F661E0809162030E94250200000000C4
:10051000000060E080916203DF91CF910C9425028E
:10052000CF93DF93CDB7DEB7CC57D1090FB6F89490
:10053000DEBF0FBECDBF2CE7EDE0F1E0DE0111968E
:1005400001900D922A95E1F7660F771F660F771FCE
:1005500081E090E08C0F9D1F680F791FFB01808167
:100560009181A281B38180935C0390935D03A093FA
:100570005E03B0935F03C458DF4F0FB6F894DEBF3D
:100580000FBECDBFDF91CF910C94530210925C034C
:1005900010925D0310925E0310925F030C9453025D
:1005A000CF93DF93CDB7DEB7C057D1090FB6F8941C
:1005B000DEBF0FBECDBF20E2E9E8F1E0DE01999693
:1005C00001900D922A95E1F720E1E9EAF1E0DE01E0
:1005D000AF59BF4F01900D922A95E1F728E1E9EB61
:1005E000F1E0DE01A75BBF4F01900D922A95E1F784
:1005F00028E2E1EDF1E0DE01119601900D922A95DD
:10060000E1F7440F551F440F551F6230710581F10A
:100610006330710581F161307105F1F081E090E0A6
:100620008C0F9D1F480F591FFA0180A591A5A2A507
:10063000B3A580935C0390935D03A0935E03B09396
:100640005F03C059DF4F0FB6F894DEBF0FBECDBFBA
:10065000DF91CF910C94530281E690E08C0F9D1FA7
:10066000480F591FFA0180819181A281B381E1CFA6
:1006700089E490E0F3CF81E090E0F0CFCF93DF9377
:1006800090E0FC01E353FF4F249185519F4FFC0103
:1006900084918823D1F090E0880F991FFC01EB55DD
:1006A000FF4FA591B491FC01EF51FF4FC591D4913B
:1006B00061110EC09FB7F8948C91E22FE0958E23C4
:1006C0008C932881E223E8839FBFDF91CF91089527
:1006D0008FB7F894EC91E22BEC938FBFF6CF61E0EB
:1006E00080E10E943E0361E08FE00E943E0361E0F2
:1006F0008EE00E943E0360E082E00E943E0361E0E3
:1007000080E10C9425028E3008F08E508770806452
:1007100080937C0080917A00806480937A0080913D
:100720007A0086FDFCCF8091780090917900089541
:100730003FB7F8948091760290917702A091780269
:10074000B091790226B5A89B05C02F3F19F00196FC
:10075000A11DB11D3FBFBA2FA92F982F8827BC011B
:10076000CD01620F711D811D911D42E0660F771F43
:10077000881F991F4A95D1F708958F929F92AF9243
:10078000BF92CF92DF92EF92FF926B017C010E94A9
:1007900098034B015C01C114D104E104F104B9F0E8
:1007A0000E949803681979098A099B09683E734079
:1007B0008105910580F321E0C21AD108E108F10812
:1007C00088EE880E83E0981EA11CB11CE4CFFF9038
:1007D000EF90DF90CF90BF90AF909F908F90089553
:1007E0004F925F926F927F928F929F92AF92BF9241
:1007F000CF92DF92EF92FF920F931F93CF93DF93ED
:10080000CDB7DEB729970FB6F894DEBF0FBECDBFC8
:1008100029013A010115110511F401E010E00E94CF
:10082000002569837A838B839C838091DB0390917D
:10083000DC0320910801281719F12F3F09F49DC00E
:10084000C301B2010E94BD03B801110F880B990BBF
:1008500029960FB6F894DEBF0FBECDBFDF91CF91C2
:100860001F910F91FF90EF90DF90CF90BF90AF90CE
:100870009F908F907F906F905F904F900C94BD03EE
:10088000EFEFF0E02491298727FDDACF61E00E94A5
:100890003E038985882321F09985923009F05FC154
:1008A00089819A814C01B12CA12C60E072E18AE728
:1008B00090E0A50194010E949D232D833E834F83E8
:1008C000588769017A0191E0C91AD108E108F10855
:1008D0002FEFC216D104E104F10409F00CF414C1A5
:1008E00060E472E48FE090E0A50194010E949D23F2
:1008F00069017A0181E0C81AD108E108F1089985F7
:10090000923009F0B5C082E02FEFC216D104E104A5
:10091000F10409F00CF4E0C160E970ED83E090E0CF
:10092000A50194010E949D2369017A0181E0C81A02
:10093000D108E108F10883E09FEFC916D104E10472
:10094000F10409F00CF4C8C168E478EE81E090E0AD
:10095000A50194010E949D2369017A0191E0C91AC1
:10096000D108E108F1082FEFC216D104E104F10427
:1009700011F00CF0A1C084E0AFC180930801EFEF4B
:10098000F0E0249129872F3F09F45ACF213041F11B
:1009900050F0223009F446C0298527FD51CF61E08F
:1009A0000E943E0379CF14BC15BC24B5226024BD3F
:1009B00025B5216025BD9C013327F901E551FF4F85
:1009C000E491F0E0EE0FFF1FEF51FF4F459154917E
:1009D000F901E353FF4FE491E0938D02198656CF5E
:1009E0001092800010928100209181002860209355
:1009F0008100209181002160209381009C01332798
:100A0000F901E551FF4FE491F0E0EE0FFF1FEF51C8
:100A1000FF4F45915491F901E353FF4FE491E09367
:100A20008C0234CF1092B0001092B1002091B0002F
:100A300022602093B0002091B10021602093B1008A
:100A40009C013327F901E551FF4FE491F0E0EE0FEF
:100A5000FF1FEF51FF4F4591549150938B024093EC
:100A60008A02F901E353FF4FE491E09389020ECF2C
:100A70002FEFC216D104E104F10409F00CF46DC0AB
:100A800068E478EE81E090E0A50194010E949D2346
:100A900069017A0181E0C81AD108E108F108998555
:100AA000992309F4E5C02FEFC216D104E104F10443
:100AB00011F00CF0E6C05FCF64E274EF80E090E0EC
:100AC000A50194010E949D2369017A0181E0C81A61
:100AD000D108E108F10885E09FEFC916D104E104CF
:100AE000F10409F008F4F8C062E17AE780E090E0F0
:100AF000A50194010E949D2369017A0181E0C81A31
:100B0000D108E108F108CFC081E029852111E4C0B6
:100B100095B5987F892B85BD2FEF3FEFA901411433
:100B200051046104710409F057C08985813009F4CA
:100B300062C0823009F471C0811182CEC7BC20939B
:100B400096023093970240939802509399028091B5
:100B50006E00826080936E0073CE82E0D6CF898172
:100B60009A814C01B12CA12C60E072E18AE790E0FF
:100B7000A50194010E949D2369017A0191E0C91A9F
:100B8000D108E108F10891E0C114D10421E0E206A6
:100B9000F10484F068E478EE81E090E0A50194012E
:100BA0000E949D2369017A0181E0C81AD108E108F9
:100BB000F10893E02985213009F0AECF80918100C2
:100BC000887F892B809381002FEF3FEFA90141148B
:100BD00051046104710479F0A981BA81AA0FBB1F85
:100BE000A30192010E94BC2328EE33E040E050E0D4
:100BF0000E947B239ACFD0928900C09288002093D4
:100C00009202309393024093940250939502809104
:100C10006F00826080936F0013CEC092B300209368
:100C20008E0230938F0240939002509391028091F4
:100C3000700082608093700003CECD80DE80EF80F4
:100C4000F8848AE0F594E794D794C7948A95D1F70D
:100C500021E0C21AD108E108F10885E059CF8FEFF1
:100C6000C816D104E104F10409F038F784E050CF4C
:100C700083E09FEFC916D104E104F10409F00CF4FC
:100C800047CF62E17AE780E090E0A50194010E94FD
:100C90009D2369017A0181E0C81AD108E108F108B1
:100CA00099859923E1F286E09FEFC916D104E1040A
:100CB000F10491F088F0CD80DE80EF80F8849AE036
:100CC000F594E794D794C7949A95D1F781E0C81A20
:100CD000D108E108F10887E09091B100987F892B55
:100CE0008093B10019CF4F925F926F927F928F9253
:100CF0009F92AF92BF92CF92DF92EF92FF920F93AB
:100D00001F93CF93DF93CDB7DEB728970FB6F89434
:100D1000DEBF0FBECDBF2B013C0129833A834B833D
:100D20005C83ED82FE820F8318870E94F9248B0179
:100D300029813A814B815C81C301B2010E948224E6
:100D400087FF25C0B801110F880B990B0E94312530
:100D50002B013C01AC019B0169817A818B819C81D3
:100D60000E94E1251816C4F58401A6019501C3016E
:100D7000B2010E94F0032D813E814F815885C3014D
:100D8000B2010E94E6250E94F9248B01DBCFB80155
:100D9000110F880B990B0E9431252B013C01AC01EE
:100DA0009B0169817A818B819C810E94822487FFCB
:100DB00013C08401A6019501C301B2010E94F00392
:100DC0002D813E814F815885C301B2010E94872445
:100DD0000E94F9248B01DBCF28960FB6F894DEBF72
:100DE0000FBECDBFDF91CF911F910F91FF90EF907C
:100DF000DF90CF90BF90AF909F908F907F906F903B
:100E00005F904F9008958F929F92AF92BF92CF9232
:100E1000DF92EF92FF921F93CF93DF9385E10E94C1
:100E20008303CAE0D0E0C12CD12C760115E085E126
:100E30000E948303189FB001199F700D1124072E83
:100E4000000C880B990B0E94312520E030E040E82F
:100E50005AE30E94E6254B015C0126E636E646E8A9
:100E600050E40E94E12518163CF486E6882E982C62
:100E700086E8A82E80E4B82E2FEB36E842ED52E447
:100E8000C501B4010E94E6252CE73DE04BEA53E49E
:100E90000E9415244B015C0120E030E0A9010E9472
:100EA000822487FF03C0812C912C5401A501940159
:100EB000C701B6010E9416246B017C0161E070E05D
:100EC00080E090E00E94BD03219709F0B0CF20E0C0
:100ED00030E040E251E4C701B6010E948724DF916F
:100EE000CF911F91FF90EF90DF90CF90BF90AF9088
:100EF0009F908F9008958F929F92AF92BF92CF92C2
:100F0000DF92EF92FF920F931F93CF93DF9301979E
:100F100082319105B8F4FC01E057F84F0C94642637
:100F2000D307F6072A083D0854087708A308D20813
:100F3000010930095A097F09AD09D809EF09300ABA
:100F4000470A5E0A0EE110E022E330E040E050E0A4
:100F500064EA70ED84E294E40E94F00309E110E099
:100F600027E330E040E050E062E570ED84EA94E48D
:100F70000E94F0030AE010E02CE330E040E050E093
:100F800060E070E08CED94E40E94F003DF91CF917B
:100F90001F910F91FF90EF90DF90CF90BF90AF9097
:100FA0009F908F9008950EE110E022E330E040E042
:100FB00050E064EA70ED84E294E40E94F00309E1F9
:100FC00010E027E330E040E050E060E070E08CEDBE
:100FD00094E40E94F0030AE010E022E330E040E0F5
:100FE00050E062E570ED84EA94E4CECF92E0892E81
:100FF000912C24E1A22EB12CC12CD12C1AE0E12E8F
:1010000017EDF12E03E81FE32CE53FEF43EC54E42A
:1010100062E570ED84EA94E40E9473066EE170E08C
:1010200080E090E00E94BD034AE0A42EB12CC12CC8
:10103000D12C18EBE12E1EE1F12E05E81FE32FE184
:1010400035ED42E155E462E570ED84EA94E40E94F6
:1010500073069CCFCAE08C2E912CDEE1AD2EB12C14
:10106000C12CD12C1CE5E12E1FE8F12E02E81FE374
:1010700020E030E04CED54E4E6CFFAE08F2E912CE6
:10108000AEE1AA2EB12CC12CD12C1AE0E12E17ED25
:10109000F12E03E81FE32FE135ED42E155E46CE565
:1010A0007FEF83EC94E4D3CF04E610E022E330E05A
:1010B00040E050E062E570ED84EA94E40E94F003C1
:1010C00000E510E022E330E040E050E06CE57FEF27
:1010D00083EC94E40E94F00310E000E02CE231E0A5
:1010E00040E050E06FE175ED82E195E44DCF88245A
:1010F0008394912C5AE0A52EB12CC12CD12C1CE547
:10110000E12E1FE8F12E02E81FE320E030E646E082
:1011100055E460E070E088E494E40E94730677E0B0
:10112000A72EB12CC12CD12C1AE0E12E17EDF12EF7
:1011300003E81FE320E030E048E454E460E070E5B9
:1011400086E095E484CF93E0892E912C28E0A22EAE
:10115000B12CC12CD12C18EBE12E1EE1F12E05E8AB
:101160001FE320E030E04AEF54E460E070E08CE5FB
:1011700094E40E94730668EC70E080E090E00E94C6
:10118000BD03C6E1D0E00AE010E025E030E040E039
:1011900050E068E471EF86E794E40E94F003219741
:1011A00091F7F4CEC3E08C2E912CD8E0AD2EB12C6B
:1011B000C12CD12C1AE0E12E17EDF12E03E81FE32C
:1011C00020E030E84BE355E460E070E08BEE94E41F
:1011D0000E94730668EC70E080E090E00E94BD031E
:1011E000C0E1D0E00AE010E02AE030E040E050E06A
:1011F00060E070ED82E894E40E94F003219791F79B
:10120000C5CE64E0862E912C70E1A72EB12CC12CA6
:10121000D12C1AE0E12E17EDF12E03E81FE320E0B8
:1012200030E041E654E460E070E08FE294E40E9434
:101230007306F7E08F2E912CA2E1AA2EB12CC12CBF
:10124000D12C1EEAE12E17E4F12E01E81FE320E085
:1012500030E842E254E460E070EC80E694E4F7CEDB
:101260002AE0822E912C3AE0A32EB12CC12CD12C55
:1012700018EBE12E1EE1F12E05E81FE320E030E03F
:101280004AEF53E460E070E088EC92E40E94730659
:1012900064EF71E080E090E00E94BD0388248394B5
:1012A000912C20E030E048EC52E460E070E088EC03
:1012B00093E4CDCED8E08D2E912C14E1A12EB12C4B
:1012C000C12CD12C16E6E12EFE2C06E81FE320E00F
:1012D00030E44CE155E460E070E88BEB94E40E946C
:1012E000730699E1A92EB12CC12CD12C20E030E855
:1012F0004BEB54E460E070E38CE195E4A8CEE3E0CE
:101300008E2E912CF8E0AF2EB12CC12CD12C16E6EC
:10131000E12EFE2C06E81FE320E030E84BEB55E41D
:1013200060E070E08AEF94E40E94730662E370E08C
:1013300080E090E00E94BD03B2E08B2E912CCDE0C6
:10134000AC2EB12CC12CD12C20E030E04AEF54E47B
:1013500060E078E78BEB95E47ACE48E0842E912C20
:101360005FE0A52EB12CC12CD12C16E6E12EFE2C6F
:1013700006E81FE320E030E04AEF54E460E070E864
:101380008BEB94E40E94730664E670E080E090E0EA
:101390000E94BD037AE0A72EB12CC12CD12C20E0F5
:1013A00030E44CE155E460E070E88DEE94E44FCE1B
:1013B00098EC892E912C24E1A22EB12CC12CD12C99
:1013C0001CE5E12E1FE8F12E02E81FE320E030E4E7
:1013D00047E254E460E070E08CE594E438CEF2E05B
:1013E0008F2E912CA8E0AA2EB12CC12CD12C1AE062
:1013F000E12E17EDF12E03E81FE320E030E844ED85
:1014000054E460E070E08AE794E40E947306C3E06D
:101410008C2E912C18EBE12E1EE1F12E05E81FE336
:1014200020E030E04AEF53E460E070E684ED94E4BD
:101430000E9473061AE0812E912C09E0A02EB12C97
:10144000C12CD12C16E6E12EFE2C06E81FE320E08D
:1014500030E844ED54E460E070E08AE794E4F7CDCE
:101460006FE0862E912C72E0A72EB12CC12CD12CCE
:101470001CE5E12E1FE8F12E02E81FE320E030E832
:101480004BE355E460E070E088EC94E4E0CD34E1B7
:10149000832E912C42E0A42EB12CC12CD12C1CE522
:1014A000E12E1FE8F12E02E81FE320E030E84BEBCD
:1014B00055E460E070E08AEF94E4C9CD84E1882EC1
:1014C000912C92E0A92EB12CC12CD12C1CE5E12E3F
:1014D0001FE8F12E02E81FE320E030E04AE755E480
:1014E00060E070E088EC94E40E94730620E030E84D
:1014F0004BE355E460E070E08AE795E4A8CD2FB7B0
:10150000F8946091720270917302809174029091CC
:1015100075022FBF08950895DC01EC918E2F90E0A5
:10152000FC01EE0FFF1FE80FF91FE95CFC4F808103
:1015300086FF02C08F7B80830895CF92DF92EF9267
:10154000FF92CF93DF93EC01603282E07807CCF515
:10155000653B710514F064EB70E0898128E830E0A8
:10156000281B310987FD3395220F331F220F331FAC
:101570006901330FEE08FF088A8128E532E0281B55
:10158000310987FD3395220F331F220F331F032E9E
:10159000000C440B550B2C193D094E095F09DB016A
:1015A00077FF02C0B0E0A0E00E94C72324EB30E048
:1015B00040E050E00E949D23C20ED31EE41EF51EA3
:1015C000B601E881EC3070F5298188E890E0821B53
:1015D000910927FD9395880F991F880F991F681708
:1015E00079077CF02A8188E592E0821B910927FD2A
:1015F0009395880F991F880F991F681779070CF426
:10160000CB010297880F991F4FB7F8942E2F30E027
:10161000F901EE0FFF1FE20FF31FE95CFC4F92830D
:1016200081834FBFDF91CF91FF90EF90DF90CF90FC
:1016300008951F93CF93DF93EC01162F88818C3090
:1016400008F04EC061E0812F0E943E038881282F60
:1016500030E0F901EE0FFF1FE20FF31FE95CFC4FD2
:101660001F736081607C612B608319821A822CE079
:10167000622F0E945826829FB001112430E020E0A2
:10168000AB01420F531FFA01EE0FFF1FE40FF51FCE
:10169000E95CFC4F908196FD16C02F5F3F4F2C30C8
:1016A000310571F781110FC01092800082E08093A4
:1016B00081001092850010928400B19A80916F0091
:1016C000826080936F00E8818E2F90E0FC01EE0F26
:1016D000FF1FE80FF91FE95CFC4F80818064808365
:1016E0008881DF91CF911F910895E09164038E2F3F
:1016F00090E0FC01EE0FFF1FE80FF91FE95CFC4FC3
:10170000808186FD58C06091CF037091D00384E63C
:1017100093E00E94190B6AE570E084E693E00E9472
:101720009D0A8EE190E0909382038093810380ED87
:1017300097E090936C0380936B0380E090E0A4E8C3
:10174000B2E480937D0390937E03A0937F03B093D4
:1017500080038AE198EFA2ECBDE380937903909334
:101760007A03A0937B03B0937C03109283031092BF
:10177000840310928503109286038DE290E090938B
:10178000680380936703109275031092760310929A
:1017900077031092780310926D0310926E031092EB
:1017A0006F031092700310926A03109269031092F3
:1017B0008B0310928C03E0918D038E2F90E0FC013F
:1017C000EE0FFF1FE80FF91FE95CFC4F808186FDDB
:1017D00058C06091D1037091D2038DE893E00E94CC
:1017E000190B6AE570E08DE893E00E949D0A8EE196
:1017F00090E09093AB038093AA0380ED97E09093E1
:1018000095038093940380E090E0A4E8B2E4809391
:10181000A6039093A703A093A803B093A9038AE11A
:1018200098EFA2ECBDE38093A2039093A303A0934F
:10183000A403B093A5031092AC031092AD031092D1
:10184000AE031092AF038DE290E0909391038093EA
:10185000900310929E0310929F031092A003109287
:10186000A10310929603109297031092980310927E
:10187000990310929303109292031092B403109262
:10188000B50308958F929F92AF92BF92CF92DF924D
:10189000EF92FF920F931F93CF93DF936C018B0115
:1018A0000E94750B8091F70381111092F703F801E4
:1018B000C081D181FBE0CF16D1048CF56091730318
:1018C000709174036C0F7D1F84E693E00E949D0A63
:1018D000F8016281738180919C0390919D03680F50
:1018E000791F8DE893E00E949D0AF8018081918123
:1018F0009093D8038093D703828193819093DA03E6
:101900008093D903DF91CF911F910F91FF90EF90BA
:10191000DF90CF90BF90AF909F908F9008950D2C47
:10192000000CEE08FF08C701B6010E94312520E037
:1019300030E040E251E40E9487244B015C01809139
:10194000D7039091D803BE01681B790B072E000CBA
:10195000880B990B0E943125A50194010E948724D0
:101960006093E7037093E8038093E9039093EA039D
:10197000F801628173818091D9039091DA03681B29
:10198000790B072E000C880B990B0E943125A501BD
:1019900094010E9487246093EB037093EC0380937F
:1019A000ED039093EE030E947F0AC60ED71EE81E39
:1019B000F91EC092DF03D092E003E092E103F092BF
:1019C000E203C1E0D0E00E947F0AC090DF03D09024
:1019D000E003E090E103F090E2036C157D058E05D5
:1019E0009F0508F082CF0E947F0A665F7F4F8F4F6E
:1019F0009F4F6093E3037093E4038093E503909318
:101A0000E603BE010D2E000C880B990B0E943125B8
:101A10006B017C012091E7033091E8034091E903D9
:101A20005091EA030E94E6254B015C016091D703C7
:101A30007091D803072E000C880B990B0E9431255A
:101A40009B01AC01C501B4010E9416240E94F92437
:101A50002091730330917403620F731F84E693E047
:101A60000E949D0A2091EB033091EC034091ED031D
:101A70005091EE03C701B6010E94E6256B017C017F
:101A80006091D9037091DA03072E000C880B990B33
:101A90000E9431259B01AC01C701B6010E941624AA
:101AA0000E94F92420919C0330919D03620F731FC3
:101AB0008DE893E00E949D0A0E947F0AC090E30394
:101AC000D090E403E090E503F090E6036C157D050B
:101AD0008E059F0588F3219676CFCF93DF9300D0B4
:101AE00000D0CDB7DEB78091F70381111EC0809181
:101AF000F9019091FA01A091FB01B091FC01898359
:101B00009A83AB83BC83BE016F5F7F4F84EF91E00C
:101B10000E94420C84E693E00E948C0A8DE893E0D8
:101B20000E948C0A81E08093F7030F900F900F9032
:101B30000F90DF91CF910895CF93DF9300D000D025
:101B4000CDB7DEB74091FD015091FE016091FF01DC
:101B50007091000249835A836B837C83BE016F5F5F
:101B60007F4F0E94420C0F900F900F900F90DF91CB
:101B7000CF910895CF93DF9300D000D0CDB7DEB7DB
:101B8000409101025091020260910302709104029F
:101B900049835A836B837C83BE016F5F7F4F0E94B2
:101BA000420C0F900F900F900F90DF91CF910895FE
:101BB000CF93DF9300D000D0CDB7DEB740910502C0
:101BC00050910602609107027091080249835A837E
:101BD0006B837C83BE016F5F7F4F0E94420C0F902E
:101BE0000F900F900F90DF91CF910895FC0101901D
:101BF0000020E9F73197AF01481B590BBC018AE976
:101C000092E00C94AB00CF93DF930E949801EC011B
:101C10008DE292E00E94F60D8C0F9D1FDF91CF9117
:101C200008956EE170E080E090E00E94BD0382EADA
:101C300090E00E94980180EA90E00E9498018DE96E
:101C400090E00E94030E8AE992E00C94B3016EE1E9
:101C500070E080E090E00E94BD038AE990E00E947D
:101C6000980188E990E00E94980185E990E00E943F
:101C7000030E8AE992E00C94B3010E94270E0E94A1
:101C80006D0D0C94110E8F929F92AF92BF920F9395
:101C90001F93CF93DF93CDB7DEB7A1970FB6F8941C
:101CA000DEBF0FBECDBF19A2423008F44AE08E015C
:101CB0000F5D1F4F842E912CB12CA12CA5019401F6
:101CC0000E947B23E62FB901CA01EA30F4F4E05DFB
:101CD000D801EE938D01232B242B252B79F790E04F
:101CE00080E0109719F0CD010E94F60DA1960FB675
:101CF000F894DEBF0FBECDBFDF91CF911F910F9142
:101D0000BF90AF909F908F900895E95CE1CFCF9204
:101D1000DF92EF92FF92CF93DF936B017C016DE234
:101D20008AE992E00E944B01EC0166277727CB01FC
:101D30006C197D098E099F094AE00E94430E8C0FA1
:101D40009D1FDF91CF91FF90EF90DF90CF9008958E
:101D50000E946D0D82E990E00E9498018FE890E06A
:101D60000E9498018DE092E00E94F60D8CE890E0D0
:101D70000E94030E8AE992E00C94B301BC01990F12
:101D8000880B990B97FD0C94870E4AE00C94430E38
:101D9000CF93DF930E946D0D8091DD030E9483033A
:101DA0008091DD030E948303EC0164E070E080E039
:101DB00090E00E94BD038091DD030E948303C80F61
:101DC000D91F64E070E080E090E00E94BD0380E8ED
:101DD00090E00E9498018DE790E00E949801CE016A
:101DE000D7FD0196959587950E94BE0E8AE790E0F3
:101DF0000E94030E8AE992E0DF91CF910C94B30127
:101E00008F929F92AF92BF92CF92DF92EF92FF920A
:101E10000E946D0D0E9403076B017C0189E890E030
:101E20000E94980186E890E00E949801A70196011F
:101E3000C701B6010E9453268823A1F080E392E0F7
:101E40000E94F60D83E890E00E94030E8AE992E07A
:101E5000FF90EF90DF90CF90BF90AF909F908F90CA
:101E60000C94B30146015701E894B7F82FEF3FEF08
:101E70004FE75FE7C501B4010E94532681110DC0F1
:101E80002FEF3FEF4FE75FE7C501B4010E948224C7
:101E900018161CF484E392E0D3CF2FEF3FEF4FE707
:101EA0005FE4C701B6010E94E12518161CF488E31F
:101EB00092E0C6CF2FEF3FEF4FE75FECC701B601CF
:101EC0000E94822487FDF3CF20E030E0A901C70102
:101ED000B6010E94822487FF09C06DE28AE992E080
:101EE0000E944B01F7FAF094F7F8F0942AE037EDEE
:101EF00043EA5BE3C701B6010E9416244B015C0173
:101F00000E9400256B017C010E942F259B01AC01E2
:101F1000C501B4010E9415244B015C014AE0C701D0
:101F2000B6010E94430E6EE28AE992E00E944B01E4
:101F300020E030E040E251E4C501B4010E94E62512
:101F40004B015C010E9400256B01F12CE12C4AE061
:101F5000C701B6010E94430EC701B6010E942F259A
:101F60009B01AC01C501B4010E94152420E030E0C2
:101F700040E251E40E94E6250E94002590E080E0C6
:101F80004AE00E94430E5ECF81E0809386029091EA
:101F90008802911108C0809388026FE070E080E0B1
:101FA00090E00C949002089581E0809387029091D4
:101FB0008802911108C0809388026FE070E080E091
:101FC00090E00C94900208951F93CF93DF9320919B
:101FD0002504309126042E30310504F5EB01BC01B7
:101FE00015E2129FC001139F900D112443E250E0AF
:101FF000895D9B4F0E948126809125049091260443
:10200000189FF001199FF00D1124E65BFB4FD1835F
:10201000C08301969093260480932504DF91CF918D
:102020001F91089543E254E06EE174E090E080E097
:102030000C942323CF93DF9300D0CDB7DEB70E945B
:10204000270E0E946D0D0E9412100097C1F042E011
:1020500050E0BE016F5F7F4F0E94112260935C03CE
:1020600070935D0380935E0390935F030E9453021D
:102070000E94110E0F900F90DF91CF9108956AE1A9
:1020800070E080E090E00E94900260ED77E080E0F8
:1020900090E00E94BD030E94C602EACFCF92DF9279
:1020A000EF92FF920F931F93CF93DF930E94270E1F
:1020B0000E946D0D0E94121011E0009721F00E9405
:1020C000FC22EC0110E00E941210009721F00E9407
:1020D000FC221123C1F06AE170E080E090E00E94F0
:1020E000900260ED77E080E090E00E94BD030E94E6
:1020F000C602DF91CF911F910F91FF90EF90DF907B
:10210000CF900C94110E6C01990FEE08FF08BE01E0
:10211000DD0F880B990B0E94312501E010E0A7012B
:1021200096010E94F003E5CF0E94270E8091F703ED
:1021300081111092F7030E941210009791F00E94F3
:10214000FC2290937B0280937A020E9412100097E7
:10215000D9F00E94FC2290930501809304010C9415
:1021600012106AE170E080E090E00E94900260ED61
:1021700077E080E090E00E94BD030E94C6021092CA
:102180007B0210927A02E1CF88EE93E0E4CF2F92A7
:102190003F924F925F926F927F928F929F92AF92F7
:1021A000BF92CF92DF92EF92FF920F931F93CF9344
:1021B000DF9300D000D0CDB7DEB70E94270E0E947B
:1021C0006D0D0E9412100097C1F00E94FC22019731
:1021D0008D30910500F5FC01E051FF4E0C94642612
:1021E00023113E116711D8116412C112D212E312E9
:1021F0005C139F1339144A159F156AE170E080E063
:1022000090E00E94900260ED77E080E090E00E9414
:10221000BD030E94C6020F900F900F900F90DF91A8
:10222000CF911F910F91FF90EF90DF90CF90BF90D3
:10223000AF909F908F907F906F905F904F903F9066
:102240002F900C94110E0EE110E022E330E040E0FC
:1022500050E064EA70ED84E294E40E94F0036AE0E6
:1022600070E080E090E00E9490028DE090E00E949B
:102270007B078DE090E00E947B0720C06BE070E060
:1022800080E090E00E9490028BE090E00E947B074B
:102290006CE070E080E090E00E9490026BE070E003
:1022A00080E090E00E9490028CE090E00E947B072A
:1022B0006CE070E080E090E00E9490020E946D0D62
:1022C0006BE070E080E090E00E949002A4CF66E1B5
:1022D00070E080E090E00E94900228EC822E912C29
:1022E00034E1A32EB12CC12CD12C1CE5E12E1FE82A
:1022F000F12E02E81FE320E030E84FE454E460E010
:1023000070E08CE594E40E94730668E170E080E080
:1023100090E00E94900220E030E845E454E460E060
:1023200070E88FE494E40E94730667E170E080E057
:1023300090E00E94900220E030E049E354E460E045
:1023400070E885E494E40E94730668E170E080E040
:1023500090E00E94900220E030E04FE254E460E020
:1023600070E089E394E40E94730667E170E080E026
:1023700090E00E94900220E030E447E254E460E004
:1023800070E08FE294E40E94730666E170E080E002
:1023900090E00E94900264EF71E080E090E00E9483
:1023A000BD030E946D0D6CE271E080E090E0E6C03C
:1023B00024E030E03A83298350E040E061E070E0BF
:1023C00080E090E00E94D002BAE08B2E912C1AE0BF
:1023D000A12EB12CC12CD12C18EBE12E1EE1F12E37
:1023E00005E81FE320E030E048E453E460E070E0FB
:1023F00088EC92E40E94730641E050E061E070E0F6
:1024000080E090E00E94D00220E030E046E953E412
:1024100060E070E088E493E40E94730642E050E0DC
:1024200061E070E080E090E00E94D00220E030E0C7
:102430004AEF53E460E070E086E993E40E9473069B
:1024400064EF71E080E090E00E94BD0341E050E065
:1024500061E070E080E090E00E94D00288248394E4
:10246000912C20E030E04AE753E460E070E088EC33
:1024700093E40E94730650E040E061E070E080E089
:1024800090E00E94D00220E030E048EC52E460E0AE
:1024900070E08AE793E40E94730664EF71E080E0E5
:1024A00090E00E94BD0389819A8101979A83898374
:1024B000892B09F081CF63E170E080E090E00E9419
:1024C000900289E090E0D7CE6CE271E080E090E08D
:1024D0000E94BD0363E170E080E090E00E94900202
:1024E00080E190E00E947B0760E170E080E090E096
:1024F0000E9490026AEF70E080E090E00E94BD03CD
:102500006CE271E080E090E00E94BD0363E170E066
:1025100080E090E00E94900281E190E00E947B07C1
:1025200060E170E080E090E00E9490026AEF70E06D
:1025300080E090E00E94BD036CE271E080E090E0FA
:102540000E94BD0363E170E080E090E00E94900291
:1025500082E190E00E947B0760E170E080E090E023
:102560000E9490026CE271E080E090E00E94BD0366
:102570000E946D0D64EF71E080E090E00E94BD0369
:102580009FCE64E170E080E090E00E9490028FE0D6
:1025900090E00E947B0764EF71E080E090E00E9491
:1025A000BD038CCE6DE070E080E090E00E94900270
:1025B00089E090E00E947B070E946D0D8DE090E025
:1025C0000E947B077DCE6EE170E080E090E00E948B
:1025D00090020EE110E024E630E040E050E060E0E0
:1025E00070E08CE594E40E94F00344E0842E912C8A
:1025F00057E0A52EB12CC12CD12C1CE5E12E1FE8F3
:10260000F12E02E81FE32FE135ED42E954E460E0EA
:1026100070E08CE594E40E94730688248394912CE6
:10262000EAE0AE2EB12CC12CD12C2CE53FEF43ECCF
:1026300054E46FE175ED82E994E40E94730620E0B2
:1026400030E04CE554E46CE57FEF83EC94E40E94C9
:1026500073066FE070E080E090E00E94BD03F4E05C
:102660008F2E912CA4E1AA2EB12CC12CD12C24EABE
:1026700030ED44E254E460E070E08CE594E40E94C4
:10268000730660E971E080E090E00E94BD032FE1F5
:1026900035ED42E954E460E070E08CE594E40E949A
:1026A000730624EA30ED44E254E460E070E08CE527
:1026B00094E40E94730602CE6EE170E080E090E048
:1026C0000E94900294E0892E912C24E1A22EB12C3C
:1026D000C12CD12C1CE5E12E1FE8F12E02E81FE3EE
:1026E0002FE135ED42E954E460E070E08CE594E4DC
:1026F0000E94730624EA30ED44E254E460E070E0A6
:102700008CE594E40E9473066CE271E080E090E056
:102710000E94BD0363E170E080E090E00E949002BF
:102720000E946D0D0E946D0D0E946D0D0E946D0D39
:102730006EE170E080E090E00E9490022CCF24E0F7
:1027400030E03A83298300E911E01C821B824B812F
:102750005C8162E070E080E090E00E94D0021801AD
:1027600034E6230E311CB801110F880B990B0E941F
:1027700031252B013C01B101032C000C880B990B76
:102780000E9431259B01AC011AE0812E912C0AE0B8
:10279000A02EB12CC12CD12C18EBE12E1EE1F12E74
:1027A00005E81FE3C301B2010E9473068B819C817F
:1027B00001969C838B838101069749F60E94C6028D
:1027C00018EBE12E1EE1F12E05E81FE320E030E8D2
:1027D00049E854E4C301B2010E94730628EE33E0D5
:1027E0003C832B83312C212CA10162E070E080E03E
:1027F00090E00E94D0026B817C816C597F4F072E44
:10280000000C880B990B0E9431252B013C012B8178
:102810003C81B901330F880B990B0E943125EAE006
:102820008E2E912CFAE0AF2EB12CC12CD12C18EBAE
:10283000E12E1EE1F12E05E81FE3A30192010E94A3
:1028400073068B819C81845691099C838B839FEFB7
:10285000291A390A2B813C812039314029F62981F6
:102860003A81215031093A832983232B09F06BCF18
:102870009ACD82E090E09A83898384EF91E09C83F3
:102880008B83312C212CA10163E070E080E090E08B
:102890000E94D0026B817C816C597F4F072E000C07
:1028A000880B990B0E9431252B013C012B813C8127
:1028B000B901330F880B990B0E9431253AE0832E22
:1028C000912C4AE0A42EB12CC12CD12C1CE5E12E78
:1028D0001FE8F12E02E81FE3A30192010E94730694
:1028E0008B819C818B599F4F9C838B839FEF291AEF
:1028F000390A2AE02216310431F686EE95E09C83EF
:102900008B83312C212CA10163E070E080E090E00A
:102910000E94D0026B817C816C597F4F072E000C86
:10292000880B990B0E9431252B013C012B813C81A6
:10293000B901330F880B990B0E943125AAE08A2E2A
:10294000912CBAE0AB2EB12CC12CD12C1CE5E12E80
:102950001FE8F12E02E81FE3A30192010E94730613
:102960008B819C818B599F4F9C838B839FEF291A6E
:10297000390A2AE02216310431F688ED99E09C8369
:102980008B83312C212CA10163E070E080E090E08A
:102990000E94D0026B817C8164567109072E000C65
:1029A000880B990B0E9431252B013C012B813C8126
:1029B000B901330F880B990B0E9431255AE0852EFF
:1029C000912CEAE0AE2EB12CC12CD12C1CE5E12ECD
:1029D0001FE8F12E02E81FE3A30192010E94730693
:1029E0008B819C81855691099C838B839FEF291A4B
:1029F000390A2B813C81263E354029F6312C212C89
:102A0000A10163E070E080E090E00E94D0026B8161
:102A10007C8164567109072E000C880B990B0E946B
:102A200031252B013C012B813C81B901330F880BEF
:102A3000990B0E9431252AE0822E912C3AE0A32E98
:102A4000B12CC12CD12C1CE5E12E1FE8F12E02E89F
:102A50001FE3A30192010E9473068B819C8185561E
:102A600091099C838B839FEF291A390A2AE0221649
:102A7000310431F689819A81019739F40E94C602A6
:102A800064E670E080E090E079CD21E030E03A83C8
:102A90002983F3CE6FE070E080E090E00E94900226
:102AA00020E436E03A83298329813A81B901330F42
:102AB000880B990B0E94312501E010E02FE030E0F7
:102AC00040E050E00E94F00389819A8144969A8305
:102AD0008983803F9A4041F76EE070E080E090E0AB
:102AE0000E94900229813A81B901330F880B990B1A
:102AF0000E94312501E010E02FE030E040E050E09E
:102B00000E94F00389819A8144969A838983803A4E
:102B10009F4041F76BE070E080E090E00E949002FF
:102B20008CE090E00E947B076CE070E080E090E039
:102B30000E9490020E946D0D0E94C602C1CB67E107
:102B400070E080E090E00E94900201E010E028EC4C
:102B500030E040E050E060E070E081E694E40E9404
:102B6000F00368E170E080E090E00E94900228ECC1
:102B700030E040E050E060E070E086E194E40E94E4
:102B8000F00364E170E080E090E00E94900228ECA5
:102B900030E040E050E060E070E086E993E40E94BD
:102BA000F0036AE170E080E090E00E94900284E629
:102BB00093E00E948C0A8DE893E00E948C0A28E939
:102BC00038E040E050E060E070E086E193E40E948D
:102BD000F00368E572E080E090E00E94BD030E948F
:102BE000C6026BE070E080E090E00E9490020E94DC
:102BF0006D0D11CB0E94270E0E946D0D0E941210C8
:102C00000097F1F00E94FC2201978331910530F585
:102C1000FC01E35FF94E0C94642630163516381625
:102C20003B163E164116441647164A164D165016C8
:102C30005316561659165C165F16621665166816F8
:102C40006AE170E080E090E00E94900260ED77E041
:102C500080E090E00E94BD030E94C6020C94110E19
:102C600090E080E00E947B07F9CF81E090E0FACF0E
:102C700086E090E0F7CF87E090E0F4CF88E090E046
:102C8000F1CF89E090E0EECF8AE090E0EBCF8BE0EF
:102C900090E0E8CF8CE090E0E5CF8DE090E0E2CFEF
:102CA0008EE090E0DFCF8FE090E0DCCF80E190E03D
:102CB000D9CF81E190E0D6CF82E190E0D3CF83E01D
:102CC00090E0D0CF84E090E0CDCF85E090E0CACF17
:102CD00082E090E0C7CFAF92BF92CF92DF92EF92A7
:102CE000FF921F93CF93DF93CDB7DEB728970FB630
:102CF000F894DEBF0FBECDBF0E94270E8EE190E09C
:102D000090937B0280937A020E94121011E0009748
:102D100021F00E94FC225C0110E00E94121000973A
:102D200091F10E94FC226C010E941210009769F13F
:102D30000E94FC227C010E941210009721F00E9448
:102D4000FC22112321F16AE170E080E090E00E9412
:102D5000900260ED77E080E090E00E94BD030E9469
:102D6000C6020E94110E28960FB6F894DEBF0FBE61
:102D7000CDBFDF91CF911F91FF90EF90DF90CF906B
:102D8000BF90AF90089511E0CFCF11E0D4CFBA82B9
:102D9000A982DC82CB82FE82ED8298878F83BE017E
:102DA0006F5F7F4F88EC90E00E94420CDACFCF92A9
:102DB000DF92EF92FF920F931F93CF93DF93CDB7E4
:102DC000DEB72B970FB6F894DEBF0FBECDBF0E94C3
:102DD0006D0D1A821982FE01339689E0DF011D9282
:102DE0008A95E9F732977F0105E010E06F01C8018D
:102DF0000E945523D7018D937D010F5F1F4F003136
:102E00001105A9F78EE690E00E9498018BE690E00C
:102E10000E949801C6010E94F60D88E690E00E948B
:102E2000030E8AE992E00E94B3012B960FB6F89444
:102E3000DEBF0FBECDBFDF91CF911F910F91FF90ED
:102E4000EF90DF90CF900895FF920F931F93CF9351
:102E5000DF938C01EB01F8800E945523F81621F0D6
:102E60006F2DC8010E945D23CE01DF91CF911F918C
:102E70000F91FF900895DF92EF92FF920F931F93AF
:102E8000CF93DF93CDB7DEB72B970FB6F894DEBFA5
:102E90000FBECDBF0E94270E0E946D0D1A821982AF
:102EA000FE01339689E0DF011D928A95E9F70E94C1
:102EB0001210009791F1FC01CE0101967C019F0157
:102EC000245F3F4FDC018191882329F0E217F3074B
:102ED00011F08D93F8CF05E010E0D701DD907D0172
:102EE000C8010E945523D81621F06D2DC8010E94FB
:102EF0005D230F5F1F4F0031110579F72B960FB639
:102F0000F894DEBF0FBECDBFDF91CF911F910F911F
:102F1000FF90EF90DF900C94110E6AE170E080E07A
:102F200090E00E94900260ED77E080E090E00E94E7
:102F3000BD030E94C602E2CFFF920F931F93CF936F
:102F4000DF930E94270E0E946D0D0E941210C1E0B7
:102F5000009729F00E94FC22D82FF92EC0E00E9491
:102F60001210009719F10E94FC228C010E9412108D
:102F7000892B09F4C1E00E941210892B11F0CC2397
:102F8000B9F06AE170E080E090E00E94900260EDAC
:102F900077E080E090E00E94BD030E94C602DF91CE
:102FA000CF911F910F91FF900C94110EC1E0DECFD5
:102FB000D0937303F092740310939D0300939C03CA
:102FC0006D2F90E080E00E945D2360919C0381E082
:102FD00090E00E945D236091C50382E090E00E9432
:102FE0005D236091EE0383E090E00E945D23D7CFE4
:102FF000CF92DF92EF92FF920F931F930E946D0D7D
:1030000060E08091B6030E94250283E090E0019782
:10301000F1F761E08091B6030E94250283E290E01F
:103020000197F1F760E08091B6030E94250280913C
:10303000B8039091B9039927FC01E353FF4F6491C2
:10304000FC01E551FF4FE491F0E0EE0FFF1FE15569
:10305000FF4F8591949100E41CE920E030E0462F79
:103060000E94C11A611571058105910529F06F5FF4
:103070007F4F8F4F9F4F9F702AE330E040E050E03A
:103080000E949D2369017A01C114D104E104F10475
:1030900031F487EEC82E83E0D82EE12CF12C87E79F
:1030A00090E00E94980184E790E00E949801C70197
:1030B000B6010E9431250E94F924CB010E94BE0E68
:1030C00081E790E00E94030E8AE992E01F910F9140
:1030D000FF90EF90DF90CF900C94B3011F920F926E
:1030E0000FB60F9211242F933F934F935F936F93DB
:1030F0007F938F939F93AF93BF93EF93FF938091B1
:103100008E0290918F02A0919002B0919102892B32
:103110008A2B8B2BD1F190918902E0918A02F09158
:103120008B0280818927808380918E0290918F020B
:10313000A0919002B0919102181619061A061B066A
:103140009CF480918E0290918F02A0919002B09198
:1031500091020197A109B10980938E0290938F0289
:10316000A0939002B0939102FF91EF91BF91AF9124
:103170009F918F917F916F915F914F913F912F918F
:103180000F900FBE0F901F90189580910801EFEFE0
:10319000F0E0E4919FEF90930801E13051F030F0BE
:1031A000E23069F060E00E942502DECF10926E00EE
:1031B000F9CF90916F009D7F90936F00F3CF909126
:1031C00070009D7F9093700091E09093B00090917B
:1031D000B100987F94609093B1001092B300E2CF59
:1031E0001F920F920FB60F9211242F933F934F937C
:1031F0005F936F937F938F939F93AF93BF93EF935F
:10320000FF938AE992E00E942901FF91EF91BF911B
:10321000AF919F918F917F916F915F914F913F916E
:103220002F910F900FBE0F901F9018951F920F9225
:103230000FB60F9211242F938F939F93EF93FF93C9
:10324000E091AA02F091AB028081E091B002F0918E
:10325000B10282FD1BC090818091B3028F5F8F739A
:103260002091B402821741F0E091B302F0E0E656FB
:10327000FD4F958F8093B302FF91EF919F918F91B6
:103280002F910F900FBE0F901F9018958081F4CF53
:103290001F920F920FB60F9211242F933F938F938B
:1032A0009F93AF93BF938091720290917302A0910C
:1032B0007402B09175023091710223E0230F2D3713
:1032C00058F50196A11DB11D2093710280937202E1
:1032D00090937302A0937402B0937502809176026A
:1032E00090917702A0917802B09179020196A11D88
:1032F000B11D8093760290937702A0937802B093E9
:103300007902BF91AF919F918F913F912F910F9033
:103310000FBE0F901F90189526E8230F0296A11D4F
:10332000B11DD2CF1F920F920FB60F9211242F937F
:103330003F934F935F936F937F938F939F93AF933D
:10334000BF93EF93FF93E0910201F0910301099580
:10335000FF91EF91BF91AF919F918F917F916F916D
:103360005F914F913F912F910F900FBE0F901F9043
:1033700018951F920F920FB60F9211242F933F931F
:103380004F935F936F937F938F939F93AF93BF936D
:10339000EF93FF93E0910001F09101010995FF91F6
:1033A000EF91BF91AF919F918F917F916F915F91BD
:1033B0004F913F912F910F900FBE0F901F90189536
:1033C0001F920F920FB60F9211242F933F934F939A
:1033D0005F936F937F938F939F93AF93BF93EF937D
:1033E000FF93F0E0E0E00995FF91EF91BF91AF917D
:1033F0009F918F917F916F915F914F913F912F910D
:103400000F900FBE0F901F9018951F920F920FB63E
:103410000F9211242F933F934F935F936F937F935A
:103420008F939F93AF93BF93CF93DF93EF93FF93CC
:1034300080917002C0915B03D0E087FF24C010929E
:10344000850010928400809170028F5F80937002DB
:1034500080917002082E000C990B8C179D0724F4A4
:10346000809170028C30C4F180918400909185002D
:10347000049680349C4908F47AC08091840090912D
:103480008500049676C080917002082E000C990B7E
:103490008C179D07C4F6E09170028E2FEE0F990BEA
:1034A000FC01EE0FFF1FE80FF91FE95CFC4F808164
:1034B00086FFC9CFE09170028E2FEE0F990BFC01B1
:1034C000EE0FFF1FE80FF91FE95CFC4F808160E001
:1034D0008F730E942502B7CF209184003091850020
:1034E000E09170028E2FEE0F990BFC01EE0FFF1F83
:1034F000E80FF91FE95CFC4F81819281820F931FD5
:103500009093890080938800E09170028E2FEE0FD7
:10351000990BFC01EE0FFF1FE80FF91FE95CFC4F50
:10352000808186FF11C0E09170028E2FEE0F990B03
:10353000FC01EE0FFF1FE80FF91FE95CFC4F8081D3
:1035400061E08F730E942502FF91EF91DF91CF918F
:10355000BF91AF919F918F917F916F915F914F91AB
:103560003F912F910F900FBE0F901F90189580E400
:103570009CE990938900809388008FEF809370027C
:10358000E3CFCF92DF92EF92FF920F931F93E82F3A
:10359000F92F05C0015011092109310961F190810C
:1035A00096239417B9F305C0015011092109310977
:1035B00011F1908196239413F7CFC12CD12CE12CDB
:1035C000F12C0AC08FEFC81AD80AE80AF80A0C15BD
:1035D0001D052E053F0579F080818623841791F320
:1035E0006C2D7D2D8E2D9F2D1F910F91FF90EF90B3
:1035F000DF90CF90089560E070E080E090E01F9150
:103600000F91FF90EF90DF90CF90089510929D0260
:1036100010929C0288EE93E0A0E0B0E080939E02BE
:1036200090939F02A093A002B093A1028FE192E039
:1036300090939B0280939A0285EC90E09093A7026E
:103640008093A60284EC90E09093A9028093A80254
:1036500080EC90E09093AB028093AA0281EC90E022
:103660009093AD028093AC0282EC90E09093AF0215
:103670008093AE0286EC90E09093B1028093B0020A
:103680001092B3021092B4021092B5021092B602D8
:1036900080E290E090931F0480931E048DE080935D
:1036A00020041092260410922504E9EFF3E08CE147
:1036B00094E011928E179F07E1F710921D0410926B
:1036C0001C0410925C0310925D0310925E03109232
:1036D0005F038BE0809360038DE0809361038CE057
:1036E0008093620361E08BE00E943E0361E0809181
:1036F00061030E943E0361E0809162030E943E03E9
:1037000060E0809160030E94250260E08091610387
:103710000E94250260E0809162030E9425020E94BF
:10372000530280915B038C30A0F08FEF8093640391
:10373000109274031092730380915B038C30E0F05D
:103740008FEF80938D0310929D0310929C030C9435
:103750006F0391E0980F90935B038093640390E074
:10376000FC01EE0FFF1FE80FF91FE95CFC4F88EB2F
:103770009BE092838183DCCF91E0980F90935B0371
:1037800080938D0390E0FC01EE0FFF1FE80FF91FFF
:10379000E95CFC4F88EB9BE092838183D4CFCF938D
:1037A000DF93CDB7DEB762970FB6F894DEBF0FBEDA
:1037B000CDBF789484B5826084BD84B5816084BDBA
:1037C00085B5826085BD85B5816085BD80916E00BF
:1037D000816080936E0010928100809181008260F0
:1037E000809381008091810081608093810080912D
:1037F00080008160809380008091B100846080931C
:10380000B1008091B00081608093B00080917A0017
:10381000846080937A0080917A00826080937A003D
:1038200080917A00816080937A0080917A0080682C
:1038300080937A001092C100E091AA02F091AB024D
:1038400082E08083E091A602F091A7021082E091CD
:10385000A802F091A90280E180831092B202E09167
:10386000AE02F091AF0286E08083E091AC02F0916D
:10387000AD02808180618083E091AC02F091AD0265
:10388000808188608083E091AC02F091AD028081FC
:1038900080688083E091AC02F091AD0280818F7DE1
:1038A000808360E086E00E943E0360E087E00E9443
:1038B0003E0384E090E09093D0038093CF0385E0B3
:1038C00090E09093D2038093D1030E94750B1092E5
:1038D000F7038AE590E09093D8038093D703909301
:1038E000DA038093D90383E090E09093BB03809345
:1038F000BA0360E00E943E0381E190E09093BD0333
:103900008093BC0360E00E943E030E946F0382E14B
:1039100090E09093C0038093BF0360E00E943E0359
:1039200001E010E01093C2030093C1031093C4039D
:103930000093C3031093C6030093C50383E190E093
:103940009093C8038093C70360E00E943E031093E6
:10395000CA030093C9031093CC030093CB038FEFEA
:103960009FEF9093CE038093CD0388E090E09093F7
:10397000B7038093B60389E090E09093B9038093F6
:10398000B80361E088E00E943E0360E08091B803E4
:103990000E943E038AE090E09093DC038093DB0377
:1039A00084E190E09093DE038093DD0361E08AE0A0
:1039B0000E943E0360E084E10E943E0384E10E9495
:1039C0008303BC01990F880B990B61157105810563
:1039D000910511F00E9408226DE37EE08CE392E0F5
:1039E0000E94E40F6AE170E18EE392E00E94E40F2E
:1039F0006EE470E180E492E00E94E40F64E970E11B
:103A000082E492E00E94E40F67EC70E184E492E0CB
:103A10000E94E40F6AEF75E186E492E00E94E40FF1
:103A20006CE977E188E492E00E94E40F6BE676E1CE
:103A30008AE492E00E94E40F6BE377E18CE492E089
:103A40000E94E40F67ED76E18EE492E00E94E40FBD
:103A500068EF77E180E592E00E94E40F68EC7EE099
:103A600082E592E00E94E40F60E07FE084E592E06E
:103A70000E94E40F68EA7EE086E592E00E94E40F8F
:103A80008DE39EE090932E0680932D060E946D0D8F
:103A900085E090E00E9455238432D9F46AE172E017
:103AA00085E090E00E9424171982BE016F5F7F4F6E
:103AB00086E090E00E9424176DE170E080E090E0E5
:103AC0000E94900268EE73E080E090E00E94BD03E7
:103AD000F9CF0E94D71662E370E080E090E00E9488
:103AE000BD030E94A80E62E370E080E090E00E94B7
:103AF000BD030E94000F0E94030720E030E044E372
:103B000052E40E94822487FF41C080918802811183
:103B10003DC06CE170E080E090E00E94900273E0B4
:103B2000872E912CE8E0AE2EB12CC12CD12C18EBB5
:103B3000E12E1EE1F12E05E81FE320E030E04AEF20
:103B400054E460E070E08CE594E40E9473066EE15A
:103B500070E080E090E00E94BD031CE5E12E1FE8CC
:103B6000F12E02E81FE320E030E04CE554E460E091
:103B700070E08AEF94E40E9473060E94C60264EF2C
:103B800071E080E090E00E94BD03BFCF10E000E054
:103B900080918802811111C0A80160E070E0CB0122
:103BA0000E94D00266E970E080E090E00E94BD03D0
:103BB0000F5F1F4F0830110559F710E000E08091AA
:103BC0008802811111C0A80160E070E0CB010E9461
:103BD000D00266E970E080E090E00E94BD030F5FD4
:103BE0001F4F0830110559F78091880281110CC0D0
:103BF0006AE070E080E090E00E94900268EC70E083
:103C000080E090E00E94BD0385E090E00E94552393
:103C1000833269F58091880281111DC0809109026B
:103C200090910A02A0910B02B0910C0289839A83B1
:103C3000AB83BC83BE016F5F7F4F90E080E00E944A
:103C4000420C90E080E00E949C0D68EC70E080E007
:103C500090E00E94BD0380918802811108C06FE04E
:103C600070E080E090E00E9490020E946D0D8091D3
:103C70008802811106C06BE070E080E090E00E9455
:103C800090020E947F0A6093820270938302809365
:103C90008402909385022090F9013090FA012091DE
:103CA000FB0129873091FC013A872F86388A298BBE
:103CB0003A8B8091090290910A02A0910B02B09177
:103CC0000C028B879C87AD87BE8766246394712C1A
:103CD0008AE992E00E9409011816190664F480919D
:103CE000060190910701029731F0709207016092EE
:103CF00006011092880280918802882309F451C03D
:103D00000E946D0D64E670E080E090E00E94BD03CB
:103D100068EC70E080E090E00E94BD038091870233
:103D2000882321F080918602882379F08091870290
:103D300081110FC080918602882359F082E090E0C3
:103D4000909307018093060104C07092070160926E
:103D500006016091060170910701072E000C880B87
:103D6000990B0E94900208EC10E06AE070E080E09D
:103D700090E00E94BD0301501109B9F7109288022A
:103D8000109287021092860240E050E0452B09F421
:103D90009FCF0E941501882309F49ACF0E9400004A
:103DA00097CF80910601909107018130910509F428
:103DB000E7C08230910509F4B1C1892B09F088C2AE
:103DC0000E947F0A00918202109183022091840256
:103DD00030918502601B710B820B930B6038784326
:103DE0008140910588F21D821E821F821886EAE5B5
:103DF000F0E0FA83E983FC83EB83809188028111F0
:103E000007C0BE016F5F7F4F8CEB92E00E94420CB7
:103E100054E0452E512C8091880281118CC050E0D5
:103E200040E061E070E080E090E00E94D0022AE093
:103E3000822E912C3AE0A32EB12CC12CD12C18EB60
:103E4000E12E1EE1F12E05E81FE320E030E048E41A
:103E500053E460E070E088EC92E40E947306809185
:103E60008802811168C041E050E061E070E080E0CC
:103E700090E00E94D00220E030E046E953E460E0A8
:103E800070E088E493E40E947306809188028111B7
:103E900052C042E050E061E070E080E090E00E94BB
:103EA000D00220E030E04AEF53E460E070E086E9C1
:103EB00093E40E94730664EF71E080E090E00E945A
:103EC000BD0380918802811136C041E050E061E07D
:103ED00070E080E090E00E94D00288248394912CCE
:103EE00020E030E04AE753E460E070E088EC93E4DF
:103EF0000E9473068091880281111DC050E040E04D
:103F000061E070E080E090E00E94D00220E030E0CC
:103F100048EC52E460E070E08AE793E40E947306A4
:103F200064EF71E080E090E00E94BD03F1E04F1A81
:103F3000510809F070CF8091880281110AC063E1B5
:103F400070E080E090E00E94900289E090E00E94A2
:103F50007B070E946D0D80918802811106C06BE085
:103F600070E080E090E00E9490020E947F0A6093DF
:103F7000820270938302809384029093850204CF1F
:103F80008091BA030E94FC01809381028091BC035E
:103F90000E94FC018093800288E592E00E94F60D69
:103FA0006091810270E090E080E04AE00E94430E60
:103FB0008DE292E00E94F60D8FE592E00E94F60DF0
:103FC0006091800270E090E080E04AE00E94430E41
:103FD0008DE292E00E94F60D87E692E00E94F60DD7
:103FE00060917E0270917F02072E000C880B990B66
:103FF00097FF21C00E94870E8DE292E00E94F60D8D
:104000008091810281112DC080918002811117C0A1
:104010008AE090E00E949C0D10927D0210927C023A
:1040200070927F0260927E026BE070E080E090E030
:104030000E949002A9CE4AE00E94430EDDCF81305B
:1040400009F0A2CE8AE090E00E94D80D10927D0285
:1040500010927C0223E030E030937F0220937E02B6
:10406000E3CF813009F090CE8091800281110FC0A2
:104070008AE090E00E94BA0D10927D0210927C02BC
:1040800044E050E050937F0240937E02CDCF8130D8
:1040900009F07ACE00917C0210917D02093E53E036
:1040A0001507ACF580917E0290917F0284309105D6
:1040B00059F48AE090E00E94BA0D0F5F1F4F1093F1
:1040C0007D0200937C02B0CF039729F48AE090E050
:1040D0000E94D80DF2CF8F85898398899A83A98908
:1040E000AB83BA89BC83BE016F5F7F4F8AE090E0EB
:1040F0000E94420C10927D0210927C0210927F026C
:1041000010927E0266E170E080E090E091CF29821B
:104110003A82E985EB83FA85FC83E5CF11E08AE9F1
:1041200092E00E940901181619060CF08EC01123A6
:1041300009F48BC08AE992E00E94E7008093F803BB
:1041400090912004891349C010921D0410921C0400
:1041500043E254E06EE174E089EF93E00E94232390
:104160006C019093220480932104892B09F46DC083
:10417000409025045090260488EFE82E83E0F82E26
:1041800010E000E0041515050CF052C0B701615DA8
:104190007F4F43E250E0C6010E94732625E2E20E03
:1041A000F11C892B09F041C035E2309FF001319FAD
:1041B000F00D1124E65BFB4F0190F081E02D099595
:1041C000E9EFF3E011924CE154E04E175F07D1F7AD
:1041D00010921D0410921C0410E00091F803802F2F
:1041E000002E000C990B0E946C26892B09F497CFA6
:1041F00080911C0490911D049C012F5F3F4F3093D0
:104200001D0420931C0488509C4FDC0111960C93D4
:10421000F901E850FC4F1182233231050CF47FCFB5
:1042200010921D0410921C047ACF0F5F1F4FAACF6B
:10423000E0912D06F0912E060995E9EFF3E0119239
:1042400054E0EC31F507D9F7C3CF8091F703811122
:104250009BCD80917A0290917B028230910551F141
:1042600064F4009711F1019709F08ECD809104015B
:10427000909105010E94D80D1AC08330910509F173
:10428000049709F081CD80910401909105012B855F
:104290003C854D855E8529833A834B835C83BE01D3
:1042A0006F5F7F4F0E94420C02C00E946D0D0E9402
:1042B000110E6ACD80910401909105010E94BA0D02
:1042C000F6CF80910401909105010E949C0DEFCFE3
:1042D000709207016092060157CD8F929F92AF9224
:1042E000BF92CF92DF92EF92FF92CF93DF93EC01D8
:1042F000688179818A819B816115710581059105AC
:1043000021F464E279ED8BE597E02DE133EF41E0B4
:1043100050E00E949D2349015A019B01AC01A7EA8C
:10432000B1E40E94BC236B017C01ACEEB4EFA501AB
:1043300094010E94CA23C60ED71EE81EF91EF7FE7E
:1043400006C081E0C81AD108E10880E8F80AC882EE
:10435000D982EA82FB82C701B6019F77DF91CF91B4
:10436000FF90EF90DF90CF90BF90AF909F908F9095
:1043700008958F929F92AF92BF92CF92DF92EF9269
:10438000FF926091090170910A0180910B01909157
:104390000C01611571058105910521F464E279ED47
:1043A0008BE597E02DE133EF41E050E00E949D2343
:1043B00049015A019B01AC01A7EAB1E40E94BC2368
:1043C0006B017C01ACEEB4EFA50194010E94CA23FD
:1043D000C60ED71EE81EF91EF7FE06C081E0C81AF9
:1043E000D108E10880E8F80AC0920901D0920A01D8
:1043F000E0920B01F0920C01C701B6019F77FF908C
:10440000EF90DF90CF90BF90AF909F908F900895E6
:104410006093090170930A0180930B0190930C0142
:104420000895B0E0A0E0E7E1F2E20C94D0235C0153
:104430006B017A016115710519F0FB01918380838D
:10444000E114F10449F0C7010297839728F060E076
:1044500070E0CB019CC05E01E5012196F501108161
:10446000812F90E00E941A23892BA9F71D3209F0B1
:1044700056C02196F501118101E0E114F10409F41F
:10448000AEC0F0E1EF16F10409F08EC0103341F434
:1044900088818F7D883509F083C01981229602605A
:1044A000E0E1EE2EF12C88248A94982CA82CFFE0D1
:1044B000BF2E20E060E070E0CB0127010F2C000C44
:1044C00066087708FE0150ED352E310E39E03315C0
:1044D00038F43FEB310F3A31A0F549EC342E310E70
:1044E0003E141F04BCF52F3FB9F086169706A806A8
:1044F000B90670F1A30192010E946B23232D30E0D5
:1045000050E040E0620F731F841F951F621773070E
:1045100084079507E8F021E021961081D3CF1B3264
:1045200021F4E5012296F501118100E0A6CF78E0A3
:10453000E72EF12C88248A94982CA82C6FE1B62EB3
:10454000B8CF3FE9310F3A3128F439EA332EC7CFDB
:104550002FEFE2CFC114D10431F02223E9F02197EB
:10456000F601D183C08300FF07C0909580957095B8
:1045700061957F4F8F4F9F4F2F3F49F482E290E02C
:1045800090933206809331066FEF7FEFCB01CDB76A
:10459000DEB7E1E10C94EC2301FFE5CF2297E0CFF9
:1045A00010E3E114F10419F23AE0E316F104E9F042
:1045B00080E1E816F10409F473CFE8E0EE16F104A7
:1045C00009F4B8CF6FEF7FEFCB0197010F2C000CF0
:1045D000440B550B0E947B2349015A016ACF1033CB
:1045E00009F456CF9AE0E92EF12C89E9882E982C0F
:1045F000A82C89E1B82E5DCFFC0188279927E89483
:1046000021912032E9F3293010F02E30C8F32B32FB
:1046100041F02D3239F4689404C00E944A23820F7D
:10462000911D219120532A30C0F31EF4909581955D
:104630009F4F089591110C945223803219F08950A4
:104640008550C8F70895FA01A191B081009719F437
:104650001097E1F0CD01DC01CD010D90002011F4A7
:10466000C00113C0FB012191222319F02015D9F7B5
:10467000F3CFFB012191201519F41E92119606C06B
:104680002223C1F70D900020A1F7D001FA01A193D8
:10469000B08308957AE0979F902D879F802D910D8C
:1046A00011240895992788270895F999FECF92BD7E
:1046B00081BDF89A992780B50895262FF999FECFE4
:1046C0001FBA92BD81BD20BD0FB6F894FA9AF99A2F
:1046D0000FBE01960895DB018F939F930E94BC2328
:1046E000BF91AF91A29F800D911DA39F900DB29F8E
:1046F000900D11240895A1E21A2EAA1BBB1BFD01E7
:104700000DC0AA1FBB1FEE1FFF1FA217B307E407B0
:10471000F50720F0A21BB30BE40BF50B661F771F08
:10472000881F991F1A9469F76095709580959095E8
:104730009B01AC01BD01CF010895052E97FB1EF42E
:1047400000940E94B42357FD07D00E947B2307FCEE
:1047500003D04EF40C94B423509540953095219598
:104760003F4F4F4F5F4F089590958095709561959D
:104770007F4F8F4F9F4F08950E940624A59F900D55
:10478000B49F900DA49F800D911D11240895B7FF33
:104790000C94BC230E94BC23821B930B08952F9280
:1047A0003F924F925F926F927F928F929F92AF92C1
:1047B000BF92CF92DF92EF92FF920F931F93CF930E
:1047C000DF93CDB7DEB7CA1BDB0B0FB6F894DEBFA5
:1047D0000FBECDBF09942A88398848885F846E84CB
:1047E0007D848C849B84AA84B984C884DF80EE8015
:1047F000FD800C811B81AA81B981CE0FD11D0FB61E
:10480000F894DEBF0FBECDBFED010895A29FB001A9
:10481000B39FC001A39F700D811D1124911DB29FF4
:10482000700D811D1124911D08955058BB27AA2792
:104830000E942D240C94A7250E94992538F00E94EF
:10484000A02520F039F49F3F19F426F40C94962506
:104850000EF4E095E7FB0C949025E92F0E94B82513
:1048600058F3BA17620773078407950720F079F4A5
:10487000A6F50C94DA250EF4E0950B2EBA2FA02D98
:104880000B01B90190010C01CA01A0011124FF27FD
:10489000591B99F0593F50F4503E68F11A16F040F8
:1048A000A22F232F342F4427585FF3CF46953795F7
:1048B0002795A795F0405395C9F77EF41F16BA0BBC
:1048C000620B730B840BBAF09150A1F0FF0FBB1F6A
:1048D000661F771F881FC2F70EC0BA0F621F731FB3
:1048E000841F48F4879577956795B795F7959E3F10
:1048F00008F0B0CF9395880F08F09927EE0F9795A1
:10490000879508950E946C2508F481E008950E941F
:104910009B240C94A7250E94A02558F00E9499255D
:1049200040F029F45F3F29F00C94902551110C942C
:10493000DB250C9496250E94B82568F39923B1F3E2
:10494000552391F3951B550BBB27AA2762177307B5
:10495000840738F09F5F5F4F220F331F441FAA1F49
:10496000A9F335D00E2E3AF0E0E832D09150504005
:10497000E695001CCAF72BD0FE2F29D0660F771FB3
:10498000881FBB1F261737074807AB07B0E809F099
:10499000BB0B802DBF01FF2793585F4F3AF09E3F1E
:1049A000510578F00C9490250C94DB255F3FE4F3DF
:1049B000983ED4F3869577956795B795F7959F5F61
:1049C000C9F7880F911D9695879597F90895E1E0AD
:1049D000660F771F881FBB1F621773078407BA070C
:1049E00020F0621B730B840BBA0BEE1F88F7E09567
:1049F00008950E9400256894B1110C94DB25089558
:104A00000E94C02588F09F5798F0B92F9927B75179
:104A1000B0F0E1F0660F771F881F991F1AF0BA9562
:104A2000C9F714C0B13091F00E94DA25B1E00895C1
:104A30000C94DA25672F782F8827B85F39F0B93FB3
:104A4000CCF3869577956795B395D9F73EF4909515
:104A50008095709561957F4F8F4F9F4F0895E89493
:104A600009C097FB3EF490958095709561957F4FB6
:104A70008F4F9F4F9923A9F0F92F96E9BB27939564
:104A8000F695879577956795B795F111F8CFFAF474
:104A9000BB0F11F460FF1BC06F5F7F4F8F4F9F4FA5
:104AA00016C0882311F096E911C0772321F09EE803
:104AB000872F762F05C0662371F096E8862F70E069
:104AC00060E02AF09A95660F771F881FDAF7880F43
:104AD0009695879597F90895990F0008550FAA0B99
:104AE000E0E8FEEF16161706E807F907C0F0121601
:104AF0001306E407F50798F0621B730B840B950B04
:104B000039F40A2661F0232B242B252B21F4089558
:104B10000A2609F4A140A6958FEF811D811D0895F5
:104B200097F99F6780E870E060E008959FEF80EC60
:104B3000089500240A941616170618060906089503
:104B400000240A9412161306140605060895092E69
:104B50000394000C11F4882352F0BB0F40F4BF2BD8
:104B600011F460FF04C06F5F7F4F8F4F9F4F089518
:104B700057FD9058440F551F59F05F3F71F047950E
:104B8000880F97FB991F61F09F3F79F087950895F3
:104B9000121613061406551FF2CF4695F1DF08C012
:104BA000161617061806991FF1CF8695710561052F
:104BB00008940895E894BB2766277727CB0197F9D7
:104BC00008950E946C2508F48FEF08950E94F9253E
:104BD0000C94A7250E94992538F00E94A02520F06A
:104BE000952311F00C9490250C94962511240C9487
:104BF000DB250E94B82570F3959FC1F3950F50E017
:104C0000551F629FF001729FBB27F00DB11D639F7E
:104C1000AA27F00DB11DAA1F649F6627B00DA11D24
:104C2000661F829F2227B00DA11D621F739FB00DCA
:104C3000A11D621F839FA00D611D221F749F33273A
:104C4000A00D611D231F849F600D211D822F762FD3
:104C50006A2F11249F5750409AF0F1F088234AF0B0
:104C6000EE0FFF1FBB1F661F771F881F915050401C
:104C7000A9F79E3F510580F00C9490250C94DB25FC
:104C80005F3FE4F3983ED4F3869577956795B795A3
:104C9000F795E7959F5FC1F7FE2B880F911D9695BD
:104CA000879597F908950E946C25880B990B0895B4
:104CB000991B79E004C0991F961708F0961B881F6E
:104CC0007A95C9F780950895EE0FFF1F0590F4912E
:104CD000E02D0994803209F091110C9452238052F6
:104CE0008F55D8F70895FB01DC014150504030F05A
:104CF0008D910190801919F40020B9F7881B990B48
:104D00000895FB01DC014150504048F001900D92A4
:104D10000020C9F701C01D9241505040E0F70895AE
:044D2000F894FFCF35
:104D24008B0A8B0AE8030100FF010000008C244970
:104D34000C0E4130041E42480C8C44480C82E0495D
:104D4400129CC0411E8CC421041042081E8CC4480D
:104D54000C8EE0480C002385000023FD0000E0FDDC
:104D6400008C14B6128C144A0C00C30000809124E9
:104D74003F80D4B63F0020B53F00F00300805821A7
:104D8400000281402040283100C02F3100C0EC31A6
:104D94000000420901A1C448210441480C10C22169
:104DA4000480D4860040187A0000C30000806100AB
:104DB40000C03000008061000000C30000008601D4
:104DC40000000C030000860100300C0000100A01F2
:104DD4000018496200100A010021000021520884D1
:104DE400128C144A0C0023310000C00000000000A3
:104DF4000000104A0C0008250620841003304208E5
:104E040001182904008C1402004602810003814029
:104E14002081402030402090185A005A00640055E8
:104E2400006600550064005300550064005A4F5753
:104E3400495F424153455F76320023000000004B36
:104E440001AB00D800B3010901E700FB000D0A0023
:104E54006E616E00696E66006F76660053004C00EA
:104E640054004D0048004B004300470052004500E9
:104E740044004E00420049004C656674203A0052DA
:104E840069676874203A005374617465203A0000BD
:00000001FF
