:100000000C948B000C94861C0C945F1C0C94FC1BB1
:100010000C94991B0C94281B0C94B3000C94481955
:100020000C94B3000C94B3000C94B3000C946C1AB1
:100030000C94B3000C94B3000C94B3000C94B30074
:100040000C94221A0C94B3000C94F0190C94CA1955
:100050000C94B3000C94B3000C94B3000C94B30054
:100060000C94B3000C94B3002525004520002626EF
:10007000002525004420002626002525004E2000CE
:100080002626002525004220002626002525004999
:1000900020002626002525004100262600252500D3
:1000A000460026260000000000240027002A000049
:1000B0000000080002010000030407000000000027
:1000C00000000000000000230026002900000102BB
:1000D00003040506070001020304050001020304EE
:1000E00005010204081020408001020408102001CC
:1000F000020408102000000000250028002B000446
:1001000004040404040404020202020202030303BE
:1001100003030302F21C11241FBECFEFD8E0DEBFA1
:10012000CDBF12E0A0E0B1E0E8E4F0E502C0059048
:100130000D92AA37B107D9F726E0AAE7B2E001C0CD
:100140001D92AC3BB207E1F710E0CBE8D0E004C071
:100150002197FE010E94F627CA38D107C9F70E94ED
:10016000A01D0C9422280C94000090E0FC01EF519B
:10017000FF4F2491FC01E150FF4F3491323079F56B
:100180004091C402422B4093C40283539F4FFC0111
:10019000A4913230A1F5B0E0AA0FBB1FAD54BD4F02
:1001A0006D937C93E7ECF0E0A591B4918C918093F2
:1001B000B2028BE690E09093B1028093B0028091FE
:1001C0006800816080936800A091B002B091B10294
:1001D000EC912E2B2C938FB780688FBF089533300E
:1001E00031F44091C302422B4093C302CECF34304E
:1001F00061F64091C202422B4093C202C6CF333017
:10020000C1F4B0E0AA0FBB1FAC55BD4F6D937C93FA
:10021000E9ECF0E0A591B4918C918093A3028CE677
:1002200090E09093B1028093B00280916800826068
:10023000C9CF343049F6B0E0AA0FBB1FAD56BD4F51
:100240006D937C93EBECF0E0A591B4918C9180934D
:1002500092028DE690E09093B1028093B00280917B
:1002600068008460AFCFAF92BF92CF92DF92EF92DF
:10027000FF920F931F93CF93DF936C017B018B0150
:10028000040F151FEB015E01AE18BF08C017D107A0
:1002900059F06991D601ED91FC910190F081E02D2A
:1002A000C6010995892B79F7C501DF91CF911F917F
:1002B0000F91FF90EF90DF90CF90BF90AF90089597
:1002C000FC01538D448D252F30E0842F90E0821B5C
:1002D000930B541710F0CF96089501970895FC01E1
:1002E000918D828D981761F0A28DAE0FBF2FB11D39
:1002F0005D968C91928D9F5F9F73928F90E0089591
:100300008FEF9FEF0895FC01918D828D981731F04A
:10031000828DE80FF11D858D90E008958FEF9FEF9E
:100320000895FC01918D228D892F90E0805C9F4F74
:10033000821B91098F739927089586ED92E00E94A0
:10034000910121E0892B09F420E0822F089580E0BB
:1003500090E0892B29F00E949D0181110C940000EE
:100360000895FC01A48DA80FB92FB11DA35ABF4F4A
:100370002C91848D90E001968F739927848FA689A4
:10038000B7892C93A089B1898C91837080648C93F8
:10039000938D848D981306C00288F389E02D8081A7
:1003A0008F7D80830895EF92FF920F931F93CF93D9
:1003B000DF93EC0181E0888F9B8D8C8D98131AC0A0
:1003C000E889F989808185FF15C09FB7F894EE8987
:1003D000FF896083E889F9898081837080648083E4
:1003E0009FBF81E090E0DF91CF911F910F91FF902F
:1003F000EF900895F62E0B8D10E00F5F1F4F0F73D7
:100400001127E02E8C8D8E110CC00FB607FCFACF91
:10041000E889F989808185FFF5CFCE010E94B1017D
:10042000F1CFEB8DEC0FFD2FF11DE35AFF4FF08262
:100430009FB7F8940B8FEA89FB8980818062CFCFC8
:100440000F931F93CF93DF938C01D0E0C0E0F801AE
:10045000EC0FFD1F6491662341F086ED92E00E944F
:10046000D301892B11F02196F2CFCE01DF91CF91EC
:100470001F910F910895CF93DF93EC01888D88230E
:10048000B9F0AA89BB89E889F9898C9185FD03C0F7
:10049000808186FD0DC00FB607FCF7CF8C9185FFDC
:1004A000F2CF808185FFEDCFCE010E94B101E9CF6F
:1004B000DF91CF910895833081F028F4813099F055
:1004C0008230A9F008958730A9F08830C9F08430CF
:1004D000B1F4809180008F7D03C0809180008F7780
:1004E00080938000089584B58F7784BD089584B586
:1004F0008F7DFBCF8091B0008F778093B0000895FF
:100500008091B0008F7DF9CFCF93DF93282F30E01B
:10051000F901E155FF4F8491F901EF51FF4FD4915B
:10052000F901E150FF4FC491CC23A1F081110E9449
:100530005B02EC2FF0E0EE0FFF1FED53FF4FA59194
:10054000B491EC91ED2381E090E009F480E0DF913B
:10055000CF91089580E090E0FACF1F93CF93DF937F
:10056000282F30E0F901E155FF4F8491F901EF5157
:10057000FF4FD491F901E150FF4FC491CC23A9F072
:10058000162F81110E945B02EC2FF0E0EE0FFF1F8F
:10059000EB50FF4FA591B4918FB7F894EC911111E6
:1005A00008C0D095DE23DC938FBFDF91CF911F91E0
:1005B0000895DE2BF8CFCF93DF93D0E0C0E0809199
:1005C000980390919903A0919A03B0919B030C2EEC
:1005D00004C0B695A795979587950A94D2F7682F8A
:1005E000617080919C030E94AD0200000000000039
:1005F00061E080919D030E94AD02000000000000B8
:1006000060E080919D030E94AD022196CE31D1051C
:10061000B1F661E080919E030E94AD0200000000EF
:10062000000060E080919E03DF91CF910C94AD02B9
:10063000CF93DF93CDB7DEB7C057D1090FB6F8948B
:10064000DEBF0FBECDBF20E2E9E0F1E0DE0199960A
:1006500001900D922A95E1F720E1E9E2F1E0DE0157
:10066000AF59BF4F01900D922A95E1F728E1E9E3D8
:10067000F1E0DE01A75BBF4F01900D922A95E1F7F3
:1006800028E2E1E5F1E0DE01119601900D922A9554
:10069000E1F7440F551F440F551F6230710581F17A
:1006A0006330710581F161307105F1F081E090E016
:1006B0008C0F9D1F480F591FFA0180A591A5A2A577
:1006C000B3A58093980390939903A0939A03B09352
:1006D0009B03C059DF4F0FB6F894DEBF0FBECDBFEE
:1006E000DF91CF910C94DB0281E690E08C0F9D1F8F
:1006F000480F591FFA0180819181A281B381E1CF16
:1007000089E490E0F3CF81E090E0F0CFCF93DF93E6
:10071000CDB7DEB7CC57D1090FB6F894DEBF0FBE08
:10072000CDBF2CE7E9E7F1E0DE01119601900D92D3
:100730002A95E1F7660F771F660F771F81E090E03B
:100740008C0F9D1F680F791FFB0180819181A28111
:10075000B3818093980390939903A0939A03B093E5
:100760009B03C458DF4F0FB6F894DEBF0FBECDBF5A
:10077000DF91CF910C94DB021092980310929903B1
:1007800010929A0310929B030C94DB02CF93DF9399
:1007900090E0FC01EF51FF4F249181509F4FFC01ED
:1007A00084918823D1F090E0880F991FFC01EB55CC
:1007B000FF4FA591B491FC01EB50FF4FC591D4912F
:1007C00061110EC09FB7F8948C91E22FE0958E23B3
:1007D0008C932881E223E8839FBFDF91CF91089516
:1007E0008FB7F894EC91E22BEC938FBFF6CF8E305D
:1007F00008F08E508770806480937C0080917A002E
:10080000806480937A0080917A0086FDFCCF80918D
:1008100078009091790008953FB7F8948091800214
:1008200090918102A0918202B091830226B5A89B8B
:1008300005C02F3F19F00196A11DB11D3FBFBA2F72
:10084000A92F982F8827BC01CD01620F711D811D32
:10085000911D42E0660F771F881F991F4A95D1F7B7
:1008600008958F929F92AF92BF92CF92DF92EF92B4
:10087000FF926B017C010E940C044B015C01C114CE
:10088000D104E104F104B9F00E940C04681979095B
:100890008A099B09683E73408105910580F321E038
:1008A000C21AD108E108F10888EE880E83E0981E8C
:1008B000A11CB11CE4CFFF90EF90DF90CF90BF90D0
:1008C000AF909F908F9008954F925F926F927F921A
:1008D0008F929F92AF92BF92CF92DF92EF92FF9250
:1008E0000F931F93CF93DF93CDB7DEB729970FB642
:1008F000F894DEBF0FBECDBF29013A0101151105E5
:1009000011F401E010E00E94922669837A838B83C0
:100910009C838091640490916504209104012817C0
:1009200019F12F3F09F49DC0C301B2010E943104A7
:10093000B801110F880B990B29960FB6F894DEBFFA
:100940000FBECDBFDF91CF911F910F91FF90EF9020
:10095000DF90CF90BF90AF909F908F907F906F90DF
:100960005F904F900C943104E3E1F1E024912987EA
:1009700027FDDACF61E00E94C6038985882321F034
:100980009985923009F05FC189819A814C01B12C1F
:10099000A12C60E072E18AE790E0A50194010E9439
:1009A0002F252D833E834F83588769017A0191E07B
:1009B000C91AD108E108F1082FEFC216D104E104E9
:1009C000F10409F00CF414C160E472E48FE090E0EB
:1009D000A50194010E942F2569017A0181E0C81ABE
:1009E000D108E108F1089985923009F0B5C082E09C
:1009F0002FEFC216D104E104F10409F00CF4E0C1B8
:100A000060E970ED83E090E0A50194010E942F253C
:100A100069017A0181E0C81AD108E108F10883E090
:100A20009FEFC916D104E104F10409F00CF4C8C128
:100A300068E478EE81E090E0A50194010E942F2502
:100A400069017A0191E0C91AD108E108F1082FEF94
:100A5000C216D104E104F10411F00CF0A1C084E04D
:100A6000AFC180930401E3E1F1E0249129872F3F96
:100A700009F45ACF213041F150F0223009F446C038
:100A8000298527FD51CF61E00E94C60379CF14BCB0
:100A900015BC24B5226024BD25B5216025BD9C016F
:100AA0003327F901E150FF4FE491F0E0EE0FFF1F13
:100AB000EB50FF4F45915491F901EF51FF4FE491F5
:100AC000E093C902198656CF1092800010928100DF
:100AD0002091810028602093810020918100216075
:100AE000209381009C013327F901E150FF4FE491ED
:100AF000F0E0EE0FFF1FEB50FF4F45915491F901CD
:100B0000EF51FF4FE491E093C80234CF1092B00050
:100B10001092B1002091B00022602093B00020918B
:100B2000B10021602093B1009C013327F901E1500D
:100B3000FF4FE491F0E0EE0FFF1FEB50FF4F4591A8
:100B400054915093C7024093C602F901EF51FF4FF1
:100B5000E491E093C5020ECF2FEFC216D104E10459
:100B6000F10409F00CF46DC068E478EE81E090E0E7
:100B7000A50194010E942F2569017A0181E0C81A1C
:100B8000D108E108F1089985992309F4E5C02FEF10
:100B9000C216D104E104F10411F00CF0E6C05FCFFD
:100BA00064E274EF80E090E0A50194010E942F259B
:100BB00069017A0181E0C81AD108E108F10885E0ED
:100BC0009FEFC916D104E104F10409F008F4F8C05C
:100BD00062E17AE780E090E0A50194010E942F2570
:100BE00069017A0181E0C81AD108E108F108CFC093
:100BF00081E029852111E4C095B5987F892B85BDB9
:100C00002FEF3FEFA901411451046104710409F071
:100C100057C08985813009F462C0823009F471C0FF
:100C2000811182CEC7BC2093D2023093D30240936D
:100C3000D4025093D50280916E00826080936E0042
:100C400073CE82E0D6CF89819A814C01B12CA12C40
:100C500060E072E18AE790E0A50194010E942F25EF
:100C600069017A0191E0C91AD108E108F10891E01F
:100C7000C114D10421E0E206F10484F068E478EEC6
:100C800081E090E0A50194010E942F2569017A017D
:100C900081E0C81AD108E108F10893E029852130E4
:100CA00009F0AECF80918100887F892B80938100ED
:100CB0002FEF3FEFA901411451046104710479F051
:100CC000A981BA81AA0FBB1FA30192010E944E25E0
:100CD00028EE33E040E050E00E940D259ACFD092FC
:100CE0008900C09288002093CE023093CF024093B7
:100CF000D0025093D10280916F00826080936F0088
:100D000013CEC092B3002093CA023093CB0240931B
:100D1000CC025093CD02809170008260809370006D
:100D200003CECD80DE80EF80F8848AE0F594E794EE
:100D3000D794C7948A95D1F721E0C21AD108E10867
:100D4000F10885E059CF8FEFC816D104E104F10412
:100D500009F038F784E050CF83E09FEFC916D10443
:100D6000E104F10409F00CF447CF62E17AE780E096
:100D700090E0A50194010E942F2569017A0181E08C
:100D8000C81AD108E108F10899859923E1F286E0B3
:100D90009FEFC916D104E104F10491F088F0CD80F1
:100DA000DE80EF80F8849AE0F594E794D794C794B6
:100DB0009A95D1F781E0C81AD108E108F10887E0D7
:100DC0009091B100987F892B8093B10019CF4F92F9
:100DD0005F926F927F928F929F92AF92BF92CF92CB
:100DE000DF92EF92FF920F931F93CF93DF93CDB7D4
:100DF000DEB728970FB6F894DEBF0FBECDBF2B012C
:100E00003C0129833A834B835C83ED82FE820F830E
:100E100018870E948B268B0129813A814B815C8146
:100E2000C301B2010E94142687FF25C0B801110F2B
:100E3000880B990B0E94C3262B013C01AC019B013E
:100E400069817A818B819C810E9473271816C4F571
:100E50008401A6019501C301B2010E9464042D81A1
:100E60003E814F815885C301B2010E9478270E94BC
:100E70008B268B01DBCFB801110F880B990B0E94D9
:100E8000C3262B013C01AC019B0169817A818B81D6
:100E90009C810E94142687FF13C08401A60195013E
:100EA000C301B2010E9464042D813E814F815885A7
:100EB000C301B2010E9419260E948B268B01DBCF51
:100EC00028960FB6F894DEBF0FBECDBFDF91CF914D
:100ED0001F910F91FF90EF90DF90CF90BF90AF9058
:100EE0009F908F907F906F905F904F9008958F921A
:100EF0009F92AF92BF92CF92DF92EF92FF921F9399
:100F0000CF93DF9385E10E94F703CAE0D0E0C12CC4
:100F1000D12C760115E085E10E94F703189FB001FE
:100F2000199F700D1124072E000C880B990B0E943D
:100F3000C32620E030E040E85AE30E9478274B01C6
:100F40005C0126E636E646E850E40E947327181650
:100F50003CF486E6882E982C86E8A82E80E4B82EED
:100F60002FEB36E842ED52E4C501B4010E94782728
:100F70002CE73DE04BEA53E40E94A7254B015C01BE
:100F800020E030E0A9010E94142687FF03C0812CD5
:100F9000912C5401A5019401C701B6010E94A82516
:100FA0006B017C0161E070E080E090E00E94310420
:100FB000219709F0B0CF20E030E040E251E4C701D2
:100FC000B6010E941926DF91CF911F91FF90EF90FB
:100FD000DF90CF90BF90AF909F908F9008958F92A9
:100FE0009F92AF92BF92CF92DF92EF92FF920F93B8
:100FF0001F93CF93DF93019782319105B8F4FC01E1
:10100000EC5FF74F0C94F62747086A089E08B10872
:10101000C808EB08170946097509A409CE09F309A0
:10102000210A4C0A630AA40ABB0AD20A0EE110E0A4
:1010300022E330E040E050E064EA70ED84E294E4C2
:101040000E94640409E110E027E330E040E050E052
:1010500062E570ED84EA94E40E9464040AE010E022
:101060002CE330E040E050E060E070E08CED94E490
:101070000E946404DF91CF911F910F91FF90EF9038
:10108000DF90CF90BF90AF909F908F9008950EE12A
:1010900010E022E330E040E050E064EA70ED84E2EA
:1010A00094E40E94640409E110E027E330E040E0AA
:1010B00050E060E070E08CED94E40E9464040AE08B
:1010C00010E022E330E040E050E062E570ED84EAB9
:1010D00094E4CECF92E0892E912C24E1A22EB12C63
:1010E000C12CD12C1AE0E12E17EDF12E03E81FE3FD
:1010F0002CE53FEF43EC54E462E570ED84EA94E4C0
:101100000E94E7066EE170E080E090E00E9431040A
:101110004AE0A42EB12CC12CD12C18EBE12E1EE1FB
:10112000F12E05E81FE32FE135ED42E155E462E5DC
:1011300070ED84EA94E40E94E7069CCFCAE08C2E0E
:10114000912CDEE1AD2EB12CC12CD12C1CE5E12E71
:101150001FE8F12E02E81FE320E030E04CED54E4FC
:10116000E6CFFAE08F2E912CAEE1AA2EB12CC12C45
:10117000D12C1AE0E12E17EDF12E03E81FE32FE149
:1011800035ED42E155E46CE57FEF83EC94E4D3CF99
:1011900004E610E022E330E040E050E062E570ED6C
:1011A00084EA94E40E94640400E510E022E330E065
:1011B00040E050E06CE57FEF83EC94E40E9464042F
:1011C00010E000E02CE231E040E050E06FE175ED2E
:1011D00082E195E44DCF88248394912C5AE0A52E8A
:1011E000B12CC12CD12C1CE5E12E1FE8F12E02E818
:1011F0001FE320E030E646E055E460E070E088E47C
:1012000094E40E94E70677E0A72EB12CC12CD12CE4
:101210001AE0E12E17EDF12E03E81FE320E030E0A5
:1012200048E454E460E070E586E095E484CF93E020
:10123000892E912C28E0A22EB12CC12CD12C18EB98
:10124000E12E1EE1F12E05E81FE320E030E04AEF39
:1012500054E460E070E08CE594E40E94E70668ECFA
:1012600070E080E090E00E943104C6E1D0E00AE046
:1012700010E025E030E040E050E068E471EF86E700
:1012800094E40E946404219791F7F4CEC3E08C2E7D
:10129000912CD8E0AD2EB12CC12CD12C1AE0E12E2E
:1012A00017EDF12E03E81FE320E030E84BE355E4AF
:1012B00060E070E08BEE94E40E94E70668EC70E07A
:1012C00080E090E00E943104C0E1D0E00AE010E04C
:1012D0002AE030E040E050E060E070ED82E894E425
:1012E0000E946404219791F7C5CE64E0862E912C6C
:1012F00070E1A72EB12CC12CD12C1AE0E12E17EDF4
:10130000F12E03E81FE320E030E041E654E460E022
:1013100070E08FE294E40E94E706F7E08F2E912CB4
:10132000A2E1AA2EB12CC12CD12C1EEAE12E17E489
:10133000F12E01E81FE320E030E842E254E460E0EF
:1013400070EC80E694E4F7CE2AE0822E912C3AE00D
:10135000A32EB12CC12CD12C18EBE12E1EE1F12EC5
:1013600005E81FE320E030E04AEF53E460E070E07E
:1013700088EC92E40E94E70664EF71E080E090E080
:101380000E94310488248394912C20E030E048ECC2
:1013900052E460E070E088EC93E4CDCED8E08D2E8E
:1013A000912C14E1A12EB12CC12CD12C16E6E12EEA
:1013B000FE2C06E81FE320E030E44CE155E460E059
:1013C00070E88BEB94E40E94E70699E1A92EB12C1A
:1013D000C12CD12C20E030E84BEB54E460E070E30A
:1013E0008CE195E4A8CEE3E08E2E912CF8E0AF2EB0
:1013F000B12CC12CD12C16E6E12EFE2C06E81FE301
:1014000020E030E84BEB55E460E070E08AEF94E4D4
:101410000E94E70662E370E080E090E00E94310401
:10142000B2E08B2E912CCDE0AC2EB12CC12CD12C66
:1014300020E030E04AEF54E460E078E78BEB95E49D
:101440007ACE48E0842E912C5FE0A52EB12CC12CE1
:10145000D12C16E6E12EFE2C06E81FE320E030E05A
:101460004AEF54E460E070E88BEB94E40E94E706F6
:1014700064E670E080E090E00E9431047AE0A72EFC
:10148000B12CC12CD12C20E030E44CE155E460E0DB
:1014900070E88DEE94E44FCE98EC892E912C24E1E7
:1014A000A22EB12CC12CD12C1CE5E12E1FE8F12E6F
:1014B00002E81FE320E030E447E254E460E070E03B
:1014C0008CE594E438CEF2E08F2E912CA8E0AA2E81
:1014D000B12CC12CD12C1AE0E12E17EDF12E03E82E
:1014E0001FE320E030E844ED54E460E070E08AE778
:1014F00094E40E94E706C3E08C2E912C18EBE12EB9
:101500001EE1F12E05E81FE320E030E04AEF53E44E
:1015100060E070E684ED94E40E94E7061AE0812E14
:10152000912C09E0A02EB12CC12CD12C16E6E12E75
:10153000FE2C06E81FE320E030E844ED54E460E0D0
:1015400070E08AE794E4F7CD6FE0862E912C72E08C
:10155000A72EB12CC12CD12C1CE5E12E1FE8F12EB9
:1015600002E81FE320E030E84BE355E460E070E080
:1015700088EC94E4E0CD34E1832E912C42E0A42E5B
:10158000B12CC12CD12C1CE5E12E1FE8F12E02E874
:101590001FE320E030E84BEB55E460E070E08AEFB9
:1015A00094E4C9CD84E1882E912C92E0A92EB12C2F
:1015B000C12CD12C1CE5E12E1FE8F12E02E81FE31F
:1015C00020E030E04AE755E460E070E088EC94E425
:1015D0000E94E70620E030E84BE355E460E070E06D
:1015E0008AE795E4A8CDCF93DF93809166040E94AB
:1015F000F703809166040E94F703EC0164E070E059
:1016000080E090E00E943104809166040E94F7031C
:10161000C80FD91F64E070E080E090E00E943104C0
:10162000CE01D7FD019695958795DF91CF910895CD
:101630002FB7F89460917C0270917D0280917E02B8
:1016400090917F022FBF0895DC01EC918E2F90E0E6
:10165000FC01EE0FFF1FE80FF91FED58FC4F8081D2
:1016600086FF02C08F7B80830895CF92DF92EF9236
:10167000FF92CF93DF93EC01603282E07807CCF5E4
:10168000653B710514F064EB70E0898128E830E077
:10169000281B310987FD3395220F331F220F331F7B
:1016A0006901330FEE08FF088A8128E532E0281B24
:1016B000310987FD3395220F331F220F331F032E6D
:1016C000000C440B550B2C193D094E095F09DB0139
:1016D00077FF02C0B0E0A0E00E94592524EB30E083
:1016E00040E050E00E942F25C20ED31EE41EF51EDE
:1016F000B601E881EC3070F5298188E890E0821B22
:10170000910927FD9395880F991F880F991F6817D6
:1017100079077CF02A8188E592E0821B910927FDF8
:101720009395880F991F880F991F681779070CF4F4
:10173000CB010297880F991F4FB7F8942E2F30E0F6
:10174000F901EE0FFF1FE20FF31FED58FC4F9283DC
:1017500081834FBFDF91CF91FF90EF90DF90CF90CB
:1017600008951F93CF93DF93EC01162F88818C305F
:1017700008F04EC061E0812F0E94C6038881282FA7
:1017800030E0F901EE0FFF1FE20FF31FED58FC4FA1
:101790001F736081607C612B608319821A822CE048
:1017A000622F0E94EA27829FB001112430E020E0DE
:1017B000AB01420F531FFA01EE0FFF1FE40FF51F9D
:1017C000ED58FC4F908196FD16C02F5F3F4F2C3097
:1017D000310571F781110FC01092800082E0809373
:1017E00081001092850010928400B19A80916F0060
:1017F000826080936F00E8818E2F90E0FC01EE0FF5
:10180000FF1FE80FF91FED58FC4F80818064808333
:101810008881DF91CF911F910895E091A0038E2FD1
:1018200090E0FC01EE0FFF1FE80FF91FED58FC4F91
:10183000808186FD58C060914C0470914D0480EA0F
:1018400093E00E94B10B6AE570E080EA93E00E94A9
:10185000350B8EE190E09093BE038093BD0380ED45
:1018600097E09093A8038093A70380E090E0A4E81A
:10187000B2E48093B9039093BA03A093BB03B093EF
:10188000BC038AE198EFA2ECBDE38093B50390938B
:10189000B603A093B703B093B8031092BF0310929E
:1018A000C0031092C1031092C2038DE290E09093A6
:1018B000A4038093A3031092B1031092B203109279
:1018C000B3031092B4031092A9031092AA031092CA
:1018D000AB031092AC031092A6031092A5031092D2
:1018E000C7031092C803E091C9038E2F90E0FC015A
:1018F000EE0FFF1FE80FF91FED58FC4F808186FDAA
:1019000058C060914E0470914F0489EC93E00E949E
:10191000B10B6AE570E089EC93E00E94350B8EE133
:1019200090E09093E7038093E60380ED97E0909337
:10193000D1038093D00380E090E0A4E8B2E48093E8
:10194000E2039093E303A093E403B093E5038AE1F9
:1019500098EFA2ECBDE38093DE039093DF03A093A6
:10196000E003B093E1031092E8031092E9031092B0
:10197000EA031092EB038DE290E09093CD03809305
:10198000CC031092DA031092DB031092DC03109266
:10199000DD031092D2031092D3031092D40310925D
:1019A000D5031092CF031092CE031092F003109241
:1019B000F10308958F929F92AF92BF92CF92DF92E0
:1019C000EF92FF920F931F93CF93DF936C018B01E4
:1019D0000E940D0C80918004811110928004F80106
:1019E000C081D181FBE0CF16D1048CF56091AF03AB
:1019F0007091B0036C0F7D1F80EA93E00E94350B5D
:101A0000F801628173818091D8039091D903680FA6
:101A1000791F89EC93E00E94350BF8018081918158
:101A200090935D0480935C048281938190935F0422
:101A300080935E04DF91CF911F910F91FF90EF9003
:101A4000DF90CF90BF90AF909F908F9008950D2C16
:101A5000000CEE08FF08C701B6010E94C32620E073
:101A600030E040E251E40E9419264B015C01809174
:101A70005C0490915D04BE01681B790B072E000C7D
:101A8000880B990B0E94C326A50194010E94192678
:101A90006093700470937104809372049093730444
:101AA000F8016281738180915E0490915F04681BEC
:101AB000790B072E000C880B990B0E94C326A501F9
:101AC00094010E94192660937404709375048093A6
:101AD0007604909377040E94180BC60ED71EE81E5A
:101AE000F91EC0926804D0926904E0926A04F092F0
:101AF0006B04C1E0D0E00E94180BC0906804D09045
:101B00006904E0906A04F0906B046C157D058E0505
:101B10009F0508F082CF0E94180B665F7F4F8F4FA2
:101B20009F4F60936C0470936D0480936E04909348
:101B30006F04BE010D2E000C880B990B0E94C3266A
:101B40006B017C012091700430917104409172040A
:101B5000509173040E9478274B015C0160915C04F2
:101B600070915D04072E000C880B990B0E94C32610
:101B70009B01AC01C501B4010E94A8250E948B26DF
:101B80002091AF033091B003620F731F80EA93E09E
:101B90000E94350B209174043091750440917604B5
:101BA00050917704C701B6010E9478276B017C0130
:101BB00060915E0470915F04072E000C880B990BF6
:101BC0000E94C3269B01AC01C701B6010E94A82553
:101BD0000E948B262091D8033091D903620F731F86
:101BE00089EC93E00E94350B0E94180BC0906C04A6
:101BF000D0906D04E0906E04F0906F046C157D053C
:101C00008E059F0588F3219676CFCF93DF9300D082
:101C100000D0CDB7DEB78091800481111EC08091C5
:101C2000F5019091F601A091F701B091F801898337
:101C30009A83AB83BC83BE016F5F7F4F84EF91E0DB
:101C40000E94DA0C80EA93E00E94240B89EC93E076
:101C50000E94240B81E0809380040F900F900F90DE
:101C60000F90DF91CF910895CF93DF9300D000D0F4
:101C7000CDB7DEB74091F9015091FA016091FB01B7
:101C80007091FC0149835A836B837C83BE016F5F33
:101C90007F4F0E94DA0C0F900F900F900F90DF9102
:101CA000CF910895CF93DF9300D000D0CDB7DEB7AA
:101CB0004091FD015091FE016091FF017091000281
:101CC00049835A836B837C83BE016F5F7F4F0E9481
:101CD000DA0C0F900F900F900F90DF91CF91089535
:101CE0004FB7F894282F30E0F901EF51FF4F94914E
:101CF000F901E150FF4FE491E230E1F480916B0093
:101D0000E92FE0958E2380936B0080916B00811109
:101D100005C0809168008E7F809368008091C40226
:101D20008E238093C4029091C102E923E093C10203
:101D30004FBF0895E330D9F480916C00E92FE0950E
:101D40008E2380936C0080916C00811105C080917E
:101D500068008D7F809368008091C3028E238093FA
:101D6000C3029091C002E923E093C002E1CFE430C6
:101D7000F9F680916D00E92FE0958E2380936D0038
:101D800080916D00811105C0809168008B7F8093E8
:101D900068008091C2028E238093C2029091BF029C
:101DA000E923E093BF02C4CFFC0101900020E9F7D2
:101DB0003197AF01481B590BBC0186ED92E00C94A2
:101DC0003301CF93DF930E942002EC0189E292E07D
:101DD0000E94D40E8C0F9D1FDF91CF9108956EE16C
:101DE00070E080E090E00E94310482EA90E00E947E
:101DF000200280EA90E00E9420028DE990E00E949B
:101E0000E10E86ED92E00C943B026EE170E080E022
:101E100090E00E9431048AE990E00E94200288E963
:101E200090E00E94200285E990E00E94E10E86ED9C
:101E300092E00C943B020E94050F0E94050E0C9448
:101E4000EF0E8F929F92AF92BF920F931F93CF93FB
:101E5000DF93CDB7DEB7A1970FB6F894DEBF0FBE04
:101E6000CDBF19A2423008F44AE08E010F5D1F4F2A
:101E7000842E912CB12CA12CA50194010E940D253A
:101E8000E62FB901CA01EA30F4F4E05DD801EE931F
:101E90008D01232B242B252B79F790E080E01097E0
:101EA00019F0CD010E94D40EA1960FB6F894DEBFB2
:101EB0000FBECDBFDF91CF911F910F91BF90AF901B
:101EC0009F908F900895E95CE1CFCF92DF92EF92DF
:101ED000FF92CF93DF936B017C016DE286ED92E080
:101EE0000E94D301EC0166277727CB016C197D098D
:101EF0008E099F094AE00E94210F8C0F9D1FDF91E0
:101F0000CF91FF90EF90DF90CF9008950E94050E43
:101F100082E990E00E9420028FE890E00E94200277
:101F200089E092E00E94D40E8CE890E00E94E10EDD
:101F300086ED92E00C943B02CF93DF93BC01990FA6
:101F4000880B990B97FF0CC00E94650FEC0189E28A
:101F500092E00E94D40E8C0F9D1FDF91CF910895C7
:101F60004AE00E94210FF2CFBC01990F880B990B18
:101F700097FD0C94650F4AE00C94210FCF93DF93EB
:101F80000E94050E0E94F30AEC0180E890E00E9496
:101F900020028DE790E00E942002CE010E94B40F43
:101FA0008AE790E00E94E10E86ED92E0DF91CF910A
:101FB0000C943B028F929F92AF92BF92CF92DF928E
:101FC000EF92FF920E94050E0E9477076B017C0141
:101FD00089E890E00E94200286E890E00E942002BA
:101FE000A7019601C701B6010E94E5278823A1F049
:101FF0008CE292E00E94D40E83E890E00E94E10E11
:1020000086ED92E0FF90EF90DF90CF90BF90AF9081
:102010009F908F900C943B0246015701E894B7F8CB
:102020002FEF3FEF4FE75FE7C501B4010E94E527BF
:1020300081110DC02FEF3FEF4FE75FE7C501B401FE
:102040000E94142618161CF480E392E0D3CF2FEFE1
:102050003FEF4FE75FE4C701B6010E9473271816F0
:102060001CF484E392E0C6CF2FEF3FEF4FE75FEC25
:10207000C701B6010E94142687FDF3CF20E030E0AF
:10208000A901C701B6010E94142687FF09C06DE2AD
:1020900086ED92E00E94D301F7FAF094F7F8F094FD
:1020A0002AE037ED43EA5BE3C701B6010E94A825A9
:1020B0004B015C010E9492266B017C010E94C126AB
:1020C0009B01AC01C501B4010E94A7254B015C0135
:1020D0004AE0C701B6010E94210F6EE286ED92E050
:1020E0000E94D30120E030E040E251E4C501B40198
:1020F0000E9478274B015C010E9492266B01F12C13
:10210000E12C4AE0C701B6010E94210FC701B601C8
:102110000E94C1269B01AC01C501B4010E94A72504
:1021200020E030E040E251E40E9478270E949226AD
:1021300090E080E04AE00E94210F5ECF81E0809332
:102140008B0290918D02911108C080938D026FE0F7
:1021500070E080E090E00C948603089581E0809325
:102160008C0290918D02911108C080938D026FE0D6
:1021700070E080E090E00C94860308951F93CF9365
:10218000DF932091AE043091AF042E30310504F579
:10219000EB01BC0115E2129FC001139F900D1124A9
:1021A00043E250E080559B4F0E9413288091AE047B
:1021B0009091AF04189FF001199FF00D1124ED527A
:1021C000FB4FD183C08301969093AF048093AE04FC
:1021D000DF91CF911F9108954CEA54E067EA74E0D3
:1021E00090E080E00C94B524CF93DF9300D0CDB77E
:1021F000DEB70E94050F0E94050E0E94EC100097AA
:10220000C1F042E050E0BE016F5F7F4F0E94A32308
:10221000609398037093990380939A0390939B0320
:102220000E94DB020E94EF0E0F900F90DF91CF9182
:1022300008956AE170E080E090E00E94860360ED1E
:1022400077E080E090E00E9431040E94BC03EACF76
:10225000CF92DF92EF92FF920F931F93CF93DF9372
:102260000E94050F0E94050E0E94EC1011E00097DD
:1022700021F00E948E24EC0110E00E94EC100097E7
:1022800021F00E948E241123C1F06AE170E080E009
:1022900090E00E94860360ED77E080E090E00E948D
:1022A00031040E94BC03DF91CF911F910F91FF90E9
:1022B000EF90DF90CF900C94EF0E6C01990FEE0829
:1022C000FF08BE01DD0F880B990B0E94C32601E0B9
:1022D00010E0A70196010E946404E5CF0E94050F5B
:1022E000809180048111109280040E94EC1000976C
:1022F00091F00E948E2490938502809384020E9424
:10230000EC100097D9F00E948E24909301018093E5
:1023100000010C94EC106AE170E080E090E00E9413
:10232000860360ED77E080E090E00E9431040E9437
:10233000BC031092850210928402E1CF88EE93E0F4
:10234000E4CF2F923F924F925F926F927F928F9243
:102350009F92AF92BF92CF92DF92EF92FF920F9334
:102360001F93CF93DF9300D000D0CDB7DEB70E948C
:10237000050F0E94050E0E94EC100097C1F00E940C
:102380008E2401978D30910500F5FC01E653FE4E39
:102390000C94F627FD1118124112B2123E139B1332
:1023A000AC13BD13361479141315241679166AE18B
:1023B00070E080E090E00E94860360ED77E080E0CE
:1023C00090E00E9431040E94BC030F900F900F9088
:1023D0000F90DF91CF911F910F91FF90EF90DF90C1
:1023E000CF90BF90AF909F908F907F906F905F90B5
:1023F0004F903F902F900C94EF0E0EE110E022E3EF
:1024000030E040E050E064EA70ED84E294E40E9441
:1024100064046AE070E080E090E00E9486038DE052
:1024200090E00E94EF078DE090E00E94EF0720C04F
:102430006BE070E080E090E00E9486038BE090E02B
:102440000E94EF076CE070E080E090E00E9486035D
:102450006BE070E080E090E00E9486038CE090E00A
:102460000E94EF076CE070E080E090E00E9486033D
:102470000E94050E6BE070E080E090E00E94860311
:10248000A4CF66E170E080E090E00E94860328EC33
:10249000822E912C34E1A32EB12CC12CD12C1CE521
:1024A000E12E1FE8F12E02E81FE320E030E84FE4C0
:1024B00054E460E070E08CE594E40E94E70668E193
:1024C00070E080E090E00E94860320E030E845E480
:1024D00054E460E070E88FE494E40E94E70667E16A
:1024E00070E080E090E00E94860320E030E049E365
:1024F00054E460E070E885E494E40E94E70668E153
:1025000070E080E090E00E94860320E030E04FE23F
:1025100054E460E070E089E394E40E94E70667E138
:1025200070E080E090E00E94860320E030E447E223
:1025300054E460E070E08FE294E40E94E70666E114
:1025400070E080E090E00E94860364EF71E080E03C
:1025500090E00E9431040E94050E6CE271E080E080
:1025600090E0E6C024E030E03A83298350E040E088
:1025700061E070E080E090E00E941803BAE08B2EEA
:10258000912C1AE0A12EB12CC12CD12C18EBE12EEC
:102590001EE1F12E05E81FE320E030E048E453E4BB
:1025A00060E070E088EC92E40E94E70641E050E0D1
:1025B00061E070E080E090E00E94180320E030E0ED
:1025C00046E953E460E070E088E493E40E94E706A3
:1025D00042E050E061E070E080E090E00E9418038B
:1025E00020E030E04AEF53E460E070E086E993E4F5
:1025F0000E94E70664EF71E080E090E00E94310401
:1026000041E050E061E070E080E090E00E9418035B
:1026100088248394912C20E030E04AE753E460E082
:1026200070E088EC93E40E94E70650E040E061E04F
:1026300070E080E090E00E94180320E030E048EC79
:1026400052E460E070E08AE793E40E94E70664EFFA
:1026500071E080E090E00E94310489819A810197C5
:102660009A838983892B09F081CF63E170E080E050
:1026700090E00E94860389E090E0D7CE6CE271E0A2
:1026800080E090E00E94310463E170E080E090E03F
:102690000E94860380E190E00E94EF0760E170E015
:1026A00080E090E00E9486036AEF70E080E090E0B6
:1026B0000E9431046CE271E080E090E00E943104FD
:1026C00063E170E080E090E00E94860381E190E0A9
:1026D0000E94EF0760E170E080E090E00E948603D6
:1026E0006AEF70E080E090E00E9431046CE271E0FB
:1026F00080E090E00E94310463E170E080E090E0CF
:102700000E94860382E190E00E94EF0760E170E0A2
:1027100080E090E00E9486036CE271E080E090E04F
:102720000E9431040E94050E64EF71E080E090E0A9
:102730000E9431049FCE64E170E080E090E00E944E
:1027400086038FE090E00E94EF0764EF71E080E085
:1027500090E00E9431048CCE6DE070E080E090E06B
:102760000E94860389E090E00E94EF070E94050E18
:102770008DE090E00E94EF077DCE6EE170E080E09A
:1027800090E00E9486030EE110E024E630E040E095
:1027900050E060E070E08CE594E40E94640444E062
:1027A000842E912C57E0A52EB12CC12CD12C1CE5E8
:1027B000E12E1FE8F12E02E81FE32FE135ED42E99B
:1027C00054E460E070E08CE594E40E94E70688241D
:1027D0008394912CEAE0AE2EB12CC12CD12C2CE5A7
:1027E0003FEF43EC54E46FE175ED82E994E40E941D
:1027F000E70620E030E04CE554E46CE57FEF83EC45
:1028000094E40E94E7066FE070E080E090E00E94B0
:102810003104F4E08F2E912CA4E1AA2EB12CC12C0E
:10282000D12C24EA30ED44E254E460E070E08CE521
:1028300094E40E94E70660E971E080E090E00E9485
:1028400031042FE135ED42E954E460E070E08CE5BD
:1028500094E40E94E70624EA30ED44E254E460E0A8
:1028600070E08CE594E40E94E70602CE6EE170E031
:1028700080E090E00E94860394E0892E912C24E170
:10288000A22EB12CC12CD12C1CE5E12E1FE8F12E7B
:1028900002E81FE32FE135ED42E954E460E070E027
:1028A0008CE594E40E94E70624EA30ED44E254E427
:1028B00060E070E08CE594E40E94E7066CE271E071
:1028C00080E090E00E94310463E170E080E090E0FD
:1028D0000E9486030E94050E0E94050E0E94050EAE
:1028E0000E94050E6EE170E080E090E00E94860399
:1028F0002CCF24E030E03A83298300E911E01C82E8
:102900001B824B815C8162E070E080E090E00E947D
:102910001803180134E6230E311CB801110F880B7F
:10292000990B0E94C3262B013C01B101032C000C22
:10293000880B990B0E94C3269B01AC011AE0812EE3
:10294000912C0AE0A02EB12CC12CD12C18EBE12E39
:102950001EE1F12E05E81FE3C301B2010E94E70664
:102960008B819C8101969C838B838101069749F61C
:102970000E94BC0318EBE12E1EE1F12E05E81FE3D7
:1029800020E030E849E854E4C301B2010E94E706C0
:1029900028EE33E03C832B83312C212CA10162E013
:1029A00070E080E090E00E9418036B817C816C599C
:1029B0007F4F072E000C880B990B0E94C3262B011A
:1029C0003C012B813C81B901330F880B990B0E948C
:1029D000C326EAE08E2E912CFAE0AF2EB12CC12C4A
:1029E000D12C18EBE12E1EE1F12E05E81FE3A30127
:1029F00092010E94E7068B819C81845691099C83F9
:102A00008B839FEF291A390A2B813C812039314071
:102A100029F629813A81215031093A832983232BD0
:102A200009F06BCF9ACD82E090E09A83898384EF9E
:102A300091E09C838B83312C212CA10163E070E019
:102A400080E090E00E9418036B817C816C597F4F7D
:102A5000072E000C880B990B0E94C3262B013C010A
:102A60002B813C81B901330F880B990B0E94C3263F
:102A70003AE0832E912C4AE0A42EB12CC12CD12C0B
:102A80001CE5E12E1FE8F12E02E81FE3A3019201ED
:102A90000E94E7068B819C818B599F4F9C838B837F
:102AA0009FEF291A390A2AE02216310431F686EE00
:102AB00095E09C838B83312C212CA10163E070E095
:102AC00080E090E00E9418036B817C816C597F4FFD
:102AD000072E000C880B990B0E94C3262B013C018A
:102AE0002B813C81B901330F880B990B0E94C326BF
:102AF000AAE08A2E912CBAE0AB2EB12CC12CD12C9D
:102B00001CE5E12E1FE8F12E02E81FE3A30192016C
:102B10000E94E7068B819C818B599F4F9C838B83FE
:102B20009FEF291A390A2AE02216310431F688ED7E
:102B300099E09C838B83312C212CA10163E070E010
:102B400080E090E00E9418036B817C8164567109DB
:102B5000072E000C880B990B0E94C3262B013C0109
:102B60002B813C81B901330F880B990B0E94C3263E
:102B70005AE0852E912CEAE0AE2EB12CC12CD12C3E
:102B80001CE5E12E1FE8F12E02E81FE3A3019201EC
:102B90000E94E7068B819C81855691099C838B83DB
:102BA0009FEF291A390A2B813C81263E354029F6B0
:102BB000312C212CA10163E070E080E090E00E94C4
:102BC00018036B817C8164567109072E000C880BF9
:102BD000990B0E94C3262B013C012B813C81B9013A
:102BE000330F880B990B0E94C3262AE0822E912C6A
:102BF0003AE0A32EB12CC12CD12C1CE5E12E1FE80C
:102C0000F12E02E81FE3A30192010E94E7068B81E7
:102C10009C81855691099C838B839FEF291A390AE1
:102C20002AE02216310431F689819A81019739F41C
:102C30000E94BC0364E670E080E090E079CD21E082
:102C400030E03A832983F3CE6FE070E080E090E0DB
:102C50000E94860320E436E03A83298329813A8161
:102C6000B901330F880B990B0E94C32601E010E0D5
:102C70002FE030E040E050E00E94640489819A81B6
:102C800044969A838983803F9A4041F76EE070E0D2
:102C900080E090E00E94860329813A81B901330FD8
:102CA000880B990B0E94C32601E010E02FE030E072
:102CB00040E050E00E94640489819A8144969A839E
:102CC0008983803A9F4041F76BE070E080E090E0BC
:102CD0000E9486038CE090E00E94EF076CE070E0B9
:102CE00080E090E00E9486030E94050E0E94BC03D3
:102CF000C1CB67E170E080E090E00E94860301E0D4
:102D000010E028EC30E040E050E060E070E081E668
:102D100094E40E94640468E170E080E090E00E9426
:102D2000860328EC30E040E050E060E070E086E1AF
:102D300094E40E94640464E170E080E090E00E940A
:102D4000860328EC30E040E050E060E070E086E987
:102D500093E40E9464046AE170E080E090E00E94E5
:102D6000860380EA93E00E94240B89EC93E00E94A2
:102D7000240B28E938E040E050E060E070E086E1B4
:102D800093E40E94640468E572E080E090E00E94B1
:102D900031040E94BC036BE070E080E090E00E9490
:102DA00086030E94050E11CB0E94050F0E94050E9E
:102DB0000E94EC100097F1F00E948E24019783315D
:102DC000910530F5FC01E951F94E0C94F6270A17EC
:102DD0000F171217151718171B171E17211724176F
:102DE00027172A172D1730173317361739173C179F
:102DF0003F1742176AE170E080E090E00E9486038E
:102E000060ED77E080E090E00E9431040E94BC0316
:102E10000C94EF0E90E080E00E94EF07F9CF81E084
:102E200090E0FACF86E090E0F7CF87E090E0F4CF33
:102E300088E090E0F1CF89E090E0EECF8AE090E08A
:102E4000EBCF8BE090E0E8CF8CE090E0E5CF8DE039
:102E500090E0E2CF8EE090E0DFCF8FE090E0DCCF3B
:102E600080E190E0D9CF81E190E0D6CF82E190E09F
:102E7000D3CF83E090E0D0CF84E090E0CDCF85E069
:102E800090E0CACF82E090E0C7CFAF92BF92CF92DE
:102E9000DF92EF92FF921F93CF93DF93CDB7DEB710
:102EA00028970FB6F894DEBF0FBECDBF0E94050F66
:102EB0008EE190E090938502809384020E94EC1052
:102EC00011E0009721F00E948E245C0110E00E9426
:102ED000EC10009791F10E948E246C010E94EC107E
:102EE000009769F10E948E247C010E94EC100097EB
:102EF00021F00E948E24112321F16AE170E080E02C
:102F000090E00E94860360ED77E080E090E00E9410
:102F100031040E94BC030E94EF0E28960FB6F8946D
:102F2000DEBF0FBECDBFDF91CF911F91FF90EF901D
:102F3000DF90CF90BF90AF90089511E0CFCF11E018
:102F4000D4CFBA82A982DC82CB82FE82ED829887BE
:102F50008F83BE016F5F7F4F88EC90E00E94DA0C98
:102F6000DACFCF92DF92EF92FF920F931F93CF931E
:102F7000DF93CDB7DEB72B970FB6F894DEBF0FBE49
:102F8000CDBF0E94050E1A821982FE01339689E098
:102F9000DF011D928A95E9F732977F0105E010E085
:102FA0006F01C8010E94E724D7018D937D010F5F57
:102FB0001F4F00311105A9F78EE690E00E94200214
:102FC0008BE690E00E942002C6010E94D40E88E6A3
:102FD00090E00E94E10E86ED92E00E943B022B966B
:102FE0000FB6F894DEBF0FBECDBFDF91CF911F911A
:102FF0000F91FF90EF90DF90CF900895FF920F9385
:103000001F93CF93DF938C01EB01F8800E94E7249C
:10301000F81621F06F2DC8010E94EF24CE01DF9138
:10302000CF911F910F91FF900895DF92EF92FF9241
:103030000F931F93CF93DF93CDB7DEB72B970FB6C8
:10304000F894DEBF0FBECDBF0E94050F0E94050E93
:103050001A821982FE01339689E0DF011D928A955A
:10306000E9F70E94EC10009791F1FC01CE01019666
:103070007C019F01245F3F4FDC018191882329F06F
:10308000E217F30711F08D93F8CF05E010E0D701B8
:10309000DD907D01C8010E94E724D81621F06D2D36
:1030A000C8010E94EF240F5F1F4F0031110579F70F
:1030B0002B960FB6F894DEBF0FBECDBFDF91CF9138
:1030C0001F910F91FF90EF90DF900C94EF0E6AE14B
:1030D00070E080E090E00E94860360ED77E080E0A1
:1030E00090E00E9431040E94BC03E2CFFF920F9354
:1030F0001F93CF93DF930E94050F0E94050E0E943D
:10310000EC10C1E0009729F00E948E24D82FF92EF0
:10311000C0E00E94EC10009719F10E948E248C01EF
:103120000E94EC10892B09F4C1E00E94EC10892B5D
:1031300011F0CC23B9F06AE170E080E090E00E94E9
:10314000860360ED77E080E090E00E9431040E9409
:10315000BC03DF91CF911F910F91FF900C94EF0E64
:10316000C1E0DECFD093AF03F092B0031093D90348
:103170000093D8036D2F90E080E00E94EF246091CF
:10318000D80381E090E00E94EF246091010482E086
:1031900090E00E94EF2460912A0483E090E00E9476
:1031A000EF24D7CFCF92DF92EF92FF920F931F932E
:1031B0000E94050E60E0809144040E94AD0283E00D
:1031C00090E00197F1F761E0809144040E94AD0224
:1031D00083E290E00197F1F760E0809144040E945F
:1031E000AD0280914604909147049927FC01EF516C
:1031F000FF4F6491FC01E150FF4FE491F0E0EE0FCE
:10320000FF1FED53FF4F8591949100E41CE920E0EE
:1032100030E0462F0E94AD1C6115710581059105B6
:1032200029F06F5F7F4F8F4F9F4F9F702AE330E0F1
:1032300040E050E00E942F2569017A01C114D104B9
:10324000E104F10431F487EEC82E83E0D82EE12C9E
:10325000F12C87E790E00E94200284E790E00E9432
:103260002002C701B6010E94C3260E948B26CB0113
:103270000E94B40F81E790E00E94E10E86ED92E09B
:103280001F910F91FF90EF90DF90CF900C943B0235
:103290001F920F920FB60F9211242F933F934F93CB
:1032A0005F936F937F938F939F93AF93BF93EF93AE
:1032B000FF938091CA029091CB02A091CC02B09171
:1032C000CD02892B8A2B8B2BD1F19091C502E091F5
:1032D000C602F091C7028081892780838091CA024B
:1032E0009091CB02A091CC02B091CD021816190694
:1032F0001A061B069CF48091CA029091CB02A09101
:10330000CC02B091CD020197A109B1098093CA0204
:103310009093CB02A093CC02B093CD02FF91EF919A
:10332000BF91AF919F918F917F916F915F914F91DD
:103330003F912F910F900FBE0F901F901895809185
:103340000401E3E1F1E0E4919FEF90930401E130A7
:1033500051F030F0E23069F060E00E94AD02DECF63
:1033600010926E00F9CF90916F009D7F90936F0047
:10337000F3CF909170009D7F9093700091E09093B7
:10338000B0009091B100987F94609093B10010923A
:10339000B300E2CF1F920F920FB60F9211242F931A
:1033A0003F934F935F936F937F938F939F93AF93CD
:1033B000BF93EF93FF9386ED92E00E94B101FF91DE
:1033C000EF91BF91AF919F918F917F916F915F919D
:1033D0004F913F912F910F900FBE0F901F90189516
:1033E0001F920F920FB60F9211242F938F939F93DA
:1033F000EF93FF93E091E602F091E7028081E09184
:10340000EC02F091ED0282FD1BC090818091EF02F1
:103410008F5F8F732091F002821741F0E091EF02ED
:10342000F0E0EA52FD4F958F8093EF02FF91EF910C
:103430009F918F912F910F900FBE0F901F90189515
:103440008081F4CF1F920F920FB60F9211242F9309
:103450003F938F939F93AF93BF9380917C02909102
:103460007D02A0917E02B0917F0230917B0223E029
:10347000230F2D3758F50196A11DB11D20937B0216
:1034800080937C0290937D02A0937E02B0937F0292
:103490008091800290918102A0918202B09183027A
:1034A0000196A11DB11D8093800290938102A0938B
:1034B0008202B0938302BF91AF919F918F913F9110
:1034C0002F910F900FBE0F901F90189526E8230F95
:1034D0000296A11DB11DD2CF1F920F920FB60F926F
:1034E00011242F933F934F935F936F937F938F9309
:1034F0009F93AF93BF93CF93DF93EF93FF9380910D
:103500007A02C0919703D0E087FF24C01092850013
:103510001092840080917A028F5F80937A0280916A
:103520007A02082E000C990B8C179D0724F48091C9
:103530007A028C30C4F180918400909185000496C9
:1035400080349C4908F47AC0809184009091850071
:10355000049676C080917A02082E000C990B8C1785
:103560009D07C4F6E0917A028E2FEE0F990BFC01B5
:10357000EE0FFF1FE80FF91FED58FC4F808186FF0B
:10358000C9CFE0917A028E2FEE0F990BFC01EE0F5E
:10359000FF1FE80FF91FED58FC4F808160E08F732B
:1035A0000E94AD02B7CF2091840030918500E09158
:1035B0007A028E2FEE0F990BFC01EE0FFF1FE80F22
:1035C000F91FED58FC4F81819281820F931F9093D8
:1035D000890080938800E0917A028E2FEE0F990B7C
:1035E000FC01EE0FFF1FE80FF91FED58FC4F808123
:1035F00086FF11C0E0917A028E2FEE0F990BFC012D
:10360000EE0FFF1FE80FF91FED58FC4F808161E0BE
:103610008F730E94AD02FF91EF91DF91CF91BF9127
:10362000AF919F918F917F916F915F914F913F915A
:103630002F910F900FBE0F901F90189580E49CE97A
:1036400090938900809388008FEF80937A02E3CF74
:103650001F920F920FB60F9211242F933F934F9307
:103660005F936F937F938F939F93AF93BF93CF930A
:10367000EF93FF9399B1C09192028091C202309171
:10368000BF02292F209523238923822B20916D00AF
:10369000C927C223C82390939202CC23C1F1C0FF53
:1036A00005C0E0919302F09194020995C1FF05C015
:1036B000E0919502F09196020995C2FF05C0E09154
:1036C0009702F09198020995C3FF05C0E091990215
:1036D000F0919A020995C4FF05C0E0919B02F09118
:1036E0009C020995C5FF05C0E0919D02F0919E02E4
:1036F0000995C6FF05C0E0919F02F091A0020995CF
:10370000C7FF05C0E091A102F091A2020995FF91C7
:10371000EF91CF91BF91AF919F918F917F916F91D9
:103720005F914F913F912F910F900FBE0F901F907F
:1037300018951F920F920FB60F9211242F933F935B
:103740004F935F936F937F938F939F93AF93BF93A9
:10375000CF93EF93FF9396B1C091A3028091C302E0
:103760003091C002292F209523238923822B209179
:103770006C00C927C223C8239093A302CC2351F124
:10378000C0FF05C0E091A402F091A5020995C1FF18
:1037900005C0E091A602F091A7020995C2FF05C0FD
:1037A000E091A802F091A9020995C3FF05C0E0913C
:1037B000AA02F091AB020995C4FF05C0E091AC02EA
:1037C000F091AD020995C5FF05C0E091AE02F09100
:1037D000AF020995FF91EF91CF91BF91AF919F916A
:1037E0008F917F916F915F914F913F912F910F90AA
:1037F0000FBE0F901F9018951F920F920FB60F9249
:1038000011242F933F934F935F936F937F938F93E5
:103810009F93AF93BF93CF93EF93FF9393B1C091D7
:10382000B2028091C4023091C102292F2095232336
:103830008923822B20916B00C927C223C823909330
:10384000B202CC2351F1C0FF05C0E091B302F09168
:10385000B4020995C1FF05C0E091B502F091B6022E
:103860000995C2FF05C0E091B702F091B802099531
:10387000C3FF05C0E091B902F091BA020995C4FFF7
:1038800005C0E091BB02F091BC020995C5FF05C0DF
:10389000E091BD02F091BE020995FF91EF91CF91A9
:1038A000BF91AF919F918F917F916F915F914F9158
:1038B0003F912F910F900FBE0F901F9018951F9260
:1038C0000F920FB60F9211242F933F934F935F9354
:1038D0006F937F938F939F93AF93BF93EF93FF93D8
:1038E000E0919002F09191020995FF91EF91BF91C3
:1038F000AF919F918F917F916F915F914F913F9188
:103900002F910F900FBE0F901F9018951F920F923E
:103910000FB60F9211242F933F934F935F936F93A2
:103920007F938F939F93AF93BF93EF93FF93E09118
:103930008E02F0918F020995FF91EF91BF91AF91A7
:103940009F918F917F916F915F914F913F912F91B7
:103950000F900FBE0F901F901895CF92DF92EF92AD
:10396000FF920F931F93E82FF92F05C00150110903
:103970002109310961F1908196239417B9F305C0AB
:10398000015011092109310911F1908196239413F5
:10399000F7CFC12CD12CE12CF12C0AC08FEFC81A23
:1039A000D80AE80AF80A0C151D052E053F0579F01E
:1039B00080818623841791F36C2D7D2D8E2D9F2D74
:1039C0001F910F91FF90EF90DF90CF90089560E0EE
:1039D00070E080E090E01F910F91FF90EF90DF90FA
:1039E000CF9008951092D9021092D80288EE93E0F9
:1039F000A0E0B0E08093DA029093DB02A093DC02B7
:103A0000B093DD028BE192E09093D7028093D602CF
:103A100085EC90E09093E3028093E20284EC90E0E6
:103A20009093E5028093E40280EC90E09093E702AB
:103A30008093E60281EC90E09093E9028093E802A3
:103A400082EC90E09093EB028093EA0286EC90E0A7
:103A50009093ED028093EC021092EF021092F0022C
:103A60001092F1021092F20280E290E09093A8048A
:103A70008093A7048DE08093A9041092AF04109264
:103A8000AE04E2E8F4E0119284E0E53AF807D9F7F1
:103A90001092A6041092A504109298031092990314
:103AA00010929A0310929B038BE080939C038DE00D
:103AB00080939D038CE080939E0361E08BE00E94E5
:103AC000C60361E080919D030E94C60361E080917E
:103AD0009E030E94C60360E080919C030E94AD0299
:103AE00060E080919D030E94AD0260E080919E03A2
:103AF0000E94AD020E94DB02E0EAF3E02FEF48EB08
:103B00005BE0809197038C30C8F491E0980F90931C
:103B10009703808390E0DC01AA0FBB1FA80FB91F99
:103B2000AD58BC4F12965C934E931197108A17862E
:103B3000B99684E0E434F80721F708952083F6CF9E
:103B4000CF93DF93CDB7DEB760970FB6F894DEBFA3
:103B50000FBECDBF789484B5826084BD84B581608A
:103B600084BD85B5826085BD85B5816085BD809148
:103B70006E00816080936E001092810080918100C0
:103B800082608093810080918100816080938100B8
:103B9000809180008160809380008091B10084607A
:103BA0008093B1008091B00081608093B0008091DB
:103BB0007A00846080937A0080917A00826080939A
:103BC0007A0080917A00816080937A0080917A00F7
:103BD000806880937A001092C100E091E602F09133
:103BE000E70282E08083E091E202F091E30210823A
:103BF000E091E402F091E50280E180831092EE0210
:103C0000E091EA02F091EB0286E08083E091E80225
:103C1000F091E902808180618083E091E802F09177
:103C2000E902808188608083E091E802F091E902F6
:103C3000808180688083E091E802F091E9028081D0
:103C40008F7D808360E086E00E94C60360E087E0AD
:103C50000E94C60384E090E090934D0480934C044E
:103C600085E090E090934F0480934E040E940D0CE9
:103C7000109280048AE590E090935D0480935C0448
:103C800090935F0480935E0483E090E090934904F6
:103C90008093480460E00E94C60381E190E0909325
:103CA0004B0480934A0460E00E94C60388E090E0E1
:103CB000909345048093440489E090E090934704F6
:103CC0008093460461E088E00E94C60360E0809132
:103CD00046040E94C6038AE090E0909365048093B6
:103CE000640484E190E0909367048093660461E04B
:103CF0008AE00E94C60360E084E10E94C60384E17A
:103D00000E94F703BC01990F880B990B611571058F
:103D10008105910511F00E949A236EEA70E186E018
:103D20000E94B5006EE970E187E00E94B5006BE18A
:103D30007FE088E392E00E94BE1064EF70E18AE3C6
:103D400092E00E94BE1068E271E18CE392E00E9472
:103D5000BE106EE671E18EE392E00E94BE1061EA51
:103D600071E180E492E00E94BE1064ED76E182E4AD
:103D700092E00E94BE1066E778E184E492E00E943F
:103D8000BE1065E477E186E492E00E94BE1065E132
:103D900078E188E492E00E94BE1061EB77E18AE46A
:103DA00092E00E94BE1062ED78E18CE492E00E9405
:103DB000BE106EEB7FE08EE492E00E94BE106AEDD2
:103DC0007FE080E592E00E94BE1066E87FE082E539
:103DD00092E00E94BE108BE19FE09093B706809323
:103DE000B60690E080E00E94EF070E94050E85E095
:103DF00090E00E94E7248432D9F466E172E085E025
:103E000090E00E94FE171982BE016F5F7F4F86E02F
:103E100090E00E94FE176DE170E080E090E00E946B
:103E2000860368EE73E080E090E00E943104F9CFF1
:103E30000E94B11762E370E080E090E00E943104DC
:103E40000E94860F62E370E080E090E00E943104FF
:103E50000E94DA0F0E94770720E030E044E352E44A
:103E60000E94142687FF41C080918D0281113DC0C0
:103E70006CE170E080E090E00E94860363E0862EB3
:103E8000912C78E0A72EB12CC12CD12C18EBE12E6F
:103E90001EE1F12E05E81FE320E030E04AEF54E494
:103EA00060E070E08CE594E40E94E7066EE170E06B
:103EB00080E090E00E9431041CE5E12E1FE8F12E25
:103EC00002E81FE320E030E04CE554E460E070E0FD
:103ED0008AEF94E40E94E7060E94BC0364EF71E05D
:103EE00080E090E00E943104BFCF10E000E08091BC
:103EF0008D02811111C0A80160E070E0CB010E9429
:103F0000180366E970E080E090E00E9431040F5FE2
:103F10001F4F0830110559F710E000E080918D0225
:103F2000811111C0A80160E070E0CB010E9418036C
:103F300066E970E080E090E00E9431040F5F1F4F5F
:103F40000830110559F780918D02811110C06AE087
:103F500070E080E090E00E9486038BE090E00E9499
:103F6000EF0768EC70E080E090E00E94310485E0AB
:103F700090E00E94E7248332F1F480918D02811158
:103F80000EC090E080E00E94520E90E080E00E941F
:103F9000340E68EC70E080E090E00E943104809183
:103FA0008D02811108C06FE070E080E090E00E9417
:103FB00086030E94050E80918D02811106C06BE080
:103FC00070E080E090E00E9486030E94180B6093EE
:103FD0008702709388028093890290938A022091CD
:103FE000F5013091F6014091F7015091F8012987D0
:103FF0003A874B875C878091010290910202A091E1
:104000000302B09104028D879E87AF87B88B209002
:10401000050230900602409007025090080286ED9B
:1040200092E00E94910118161906D4F480910201C1
:10403000909103010297A1F0A1E0B0E0B0930301D9
:10404000A09302016BE070E080E090E00E948603A4
:1040500086E00E94700E87E00E94700E10928D0222
:1040600080918D02882309F463C00E94050E64E6E6
:1040700070E080E090E00E94310482E090E00E94D5
:10408000EF0768EC70E080E090E00E9431048091DE
:104090008C02882321F080918B02882389F0809103
:1040A0008C02811117C080918B02882399F082E0E5
:1040B00090E0909303018093020184E090E008C0B7
:1040C000E1E0F0E0F0930301E093020183E090E08F
:1040D0000E94EF076091020170910301072E000C0E
:1040E000880B990B0E94860308EC10E06AE070E0F0
:1040F00080E090E00E94310401501109B9F76BE0B3
:1041000070E080E090E00E94860310928D02109291
:104110008C0210928B0280E090E0892B09F47FCF13
:104120000E949D01882309F47ACF0E94000077CF76
:1041300080910201909103018130910509F4E7C05B
:104140008230910509F479C1892B09F051C20E948E
:10415000180B0091870210918802209189023091FA
:104160008A02601B710B820B930B6038784381408D
:10417000910588F21D821E821F8218862AE530E092
:104180003A8329833C832B8380918D02811107C060
:10419000BE016F5F7F4F8CEB92E00E94DA0C54E01F
:1041A000652E712C80918D0281118CC050E040E011
:1041B00061E070E080E090E00E9418032AE0822E27
:1041C000912C3AE0A32EB12CC12CD12C18EBE12E6E
:1041D0001EE1F12E05E81FE320E030E048E453E45F
:1041E00060E070E088EC92E40E94E70680918D0226
:1041F000811168C041E050E061E070E080E090E053
:104200000E94180320E030E046E953E460E070E0EB
:1042100088E493E40E94E70680918D02811152C0E8
:1042200042E050E061E070E080E090E00E9418031E
:1042300020E030E04AEF53E460E070E086E993E488
:104240000E94E70664EF71E080E090E00E94310494
:1042500080918D02811136C041E050E061E070E054
:1042600080E090E00E94180388248394912C20E041
:1042700030E04AE753E460E070E088EC93E40E94A9
:10428000E70680918D0281111DC050E040E061E0A1
:1042900070E080E090E00E94180320E030E048ECFD
:1042A00052E460E070E08AE793E40E94E70664EF7E
:1042B00071E080E090E00E94310431E0631A7108FF
:1042C00009F070CF80918D0281110AC063E170E026
:1042D00080E090E00E94860389E090E00E94EF0772
:1042E0000E94050E80918D02811106C06BE070E086
:1042F00080E090E00E9486030E94180B6093870282
:10430000709388028093890290938A0204CF0E945E
:10431000F30A8A3892403CF080918602882309F49F
:1043200088C01092860284E592E00E94D40E8091AB
:10433000860290E00E949C0F84E692E00E94D40ED8
:1043400080914A040E9484020E949C0F8FE692E0B2
:104350000E94D40E809148040E9484020E949C0F07
:1043600080918602882309F4D6CE62E370E080E073
:1043700090E00E94310480918D0281114FC06EE067
:1043800070E080E090E00E94860387E090E00E9469
:10439000EF0780918D028111BECE0E944B232BE04E
:1043A00030E040E050E00E942F25665F7F4F8F4F46
:1043B0009F4F0E9486030E944B2388EB9BE00E9444
:1043C000340E64EF71E080E090E00E943104898552
:1043D0009A85AB85BC8589839A83AB83BC83BE01F8
:1043E0006F5F7F4F8CE291E00E94DA0C64EF71E026
:1043F00080E090E00E94310488EB9BE00E94520E26
:1044000064EF71E080E090E00E9431040E94050EAC
:1044100064EF71E080E090E00E94310480918D02B1
:10442000811179CE6BE070E080E090E00E9486031D
:1044300072CE51E05093860276CF11E086ED92E085
:104440000E949101181619060CF08DC0112309F471
:104450008AC086ED92E00E946F0180938104909162
:10446000A904891348C01092A6041092A5044CEA2E
:1044700054E067EA74E082E894E00E94B5247C018D
:104480009093AB048093AA04892B09F46CC06090CC
:10449000AE047090AF0481E8C82E84E0D82E10E0FE
:1044A00000E0061517050CF051C0B601615D7F4FA5
:1044B00043E250E0C7010E940528A5E2CA0ED11CC4
:1044C000892B09F040C0B5E2B09FF001B19FF00D1B
:1044D0001124ED52FB4F0190F081E02D0995E2E8A7
:1044E000F4E0119224E0E53AF207D9F71092A6041D
:1044F0001092A50410E000918104802F002E000C82
:10450000990B0E94FE27892B09F498CF8091A5046E
:104510009091A6049C012F5F3F4F3093A6042093F7
:10452000A5048F579B4FDC0111960C93F901EF57AF
:10453000FB4F1182233231050CF480CF1092A60478
:104540001092A5047BCF0F5F1F4FABCFE091B60653
:10455000F091B7060995E2E8F4E0119234E0E53A0B
:10456000F307D9F7C3CF809180048111D4CD809116
:104570008402909185028230910531F19CF400977C
:10458000F1F0019709F0C7CD8091000190910101F0
:1045900029823A824B825C82BE016F5F7F4F0E940C
:1045A000DA0C0FC083309105E1F0049709F0B3CD28
:1045B00080910001909101010E94520E02C00E9460
:1045C000050E0E94EF0EA7CD809100019091010190
:1045D0002D853E854F85588929833A834B835C839B
:1045E000DBCF80910001909101010E94340EE9CF50
:1045F00041E050E050930301409302018CCD8F9233
:104600009F92AF92BF92CF92DF92EF92FF92CF93A1
:10461000DF93EC01688179818A819B816115710545
:104620008105910521F464E279ED8BE597E02DE1B8
:1046300033EF41E050E00E942F2549015A019B01D0
:10464000AC01A7EAB1E40E944E256B017C01ACEEFF
:10465000B4EFA50194010E945C25C60ED71EE81E8A
:10466000F91EF7FE06C081E0C81AD108E10880E80B
:10467000F80AC882D982EA82FB82C701B6019F7715
:10468000DF91CF91FF90EF90DF90CF90BF90AF90F0
:104690009F908F9008958F929F92AF92BF92CF92EA
:1046A000DF92EF92FF926091050170910601809177
:1046B000070190910801611571058105910521F4AB
:1046C00064E279ED8BE597E02DE133EF41E050E0D6
:1046D0000E942F2549015A019B01AC01A7EAB1E4D0
:1046E0000E944E256B017C01ACEEB4EFA501940154
:1046F0000E945C25C60ED71EE81EF91EF7FE06C0F6
:1047000081E0C81AD108E10880E8F80AC0920501E2
:10471000D0920601E0920701F0920801C701B601AC
:104720009F77FF90EF90DF90CF90BF90AF909F90DA
:104730008F9008956093050170930601809307019F
:10474000909308010895B0E0A0E0E9EAF3E20C9448
:1047500062255C016B017A016115710519F0FB019D
:1047600091838083E114F10449F0C7010297839794
:1047700028F060E070E0CB019CC05E01E50121966D
:10478000F5011081812F90E00E94AC24892BA9F7BC
:104790001D3209F056C02196F501118101E0E114A6
:1047A000F10409F4AEC0F0E1EF16F10409F08EC097
:1047B000103341F488818F7D883509F083C01981D9
:1047C00022960260E0E1EE2EF12C88248A94982C47
:1047D000A82CFFE0BF2E20E060E070E0CB012701B5
:1047E0000F2C000C66087708FE0150ED352E310EB7
:1047F00039E0331538F43FEB310F3A31A0F549EC8D
:10480000342E310E3E141F04BCF52F3FB9F086162E
:104810009706A806B90670F1A30192010E94FD2433
:10482000232D30E050E040E0620F731F841F951F7E
:104830006217730784079507E8F021E0219610813D
:10484000D3CF1B3221F4E5012296F501118100E05E
:10485000A6CF78E0E72EF12C88248A94982CA82CF7
:104860006FE1B62EB8CF3FE9310F3A3128F439EA7B
:10487000332EC7CF2FEFE2CFC114D10431F0222362
:10488000E9F02197F601D183C08300FF07C090951E
:104890008095709561957F4F8F4F9F4F2F3F49F4C3
:1048A00082E290E09093BB068093BA066FEF7FEFB1
:1048B000CB01CDB7DEB7E1E10C947E2501FFE5CF5A
:1048C0002297E0CF10E3E114F10419F23AE0E31685
:1048D000F104E9F080E1E816F10409F473CFE8E0AF
:1048E000EE16F10409F4B8CF6FEF7FEFCB0197011B
:1048F0000F2C000C440B550B0E940D2549015A0149
:104900006ACF103309F456CF9AE0E92EF12C89E9E9
:10491000882E982CA82C89E1B82E5DCFFC01882721
:104920009927E89421912032E9F3293010F02E30B4
:10493000C8F32B3241F02D3239F4689404C00E9440
:10494000DC24820F911D219120532A30C0F31EF4E4
:10495000909581959F4F089591110C94E424803295
:1049600019F089508550C8F70895FA01A191B081D6
:10497000009719F41097E1F0CD01DC01CD010D9005
:10498000002011F4C00113C0FB012191222319F072
:104990002015D9F7F3CFFB012191201519F41E92B0
:1049A000119606C02223C1F70D900020A1F7D00177
:1049B000FA01A193B08308957AE0979F902D879F85
:1049C000802D910D11240895992788270895F9992C
:1049D000FECF92BD81BDF89A992780B50895262F04
:1049E000F999FECF1FBA92BD81BD20BD0FB6F894D4
:1049F000FA9AF99A0FBE01960895DB018F939F935F
:104A00000E944E25BF91AF91A29F800D911DA39F43
:104A1000900DB29F900D11240895A1E21A2EAA1BA9
:104A2000BB1BFD010DC0AA1FBB1FEE1FFF1FA2175E
:104A3000B307E407F50720F0A21BB30BE40BF50B5B
:104A4000661F771F881F991F1A9469F760957095E4
:104A5000809590959B01AC01BD01CF010895052E75
:104A600097FB1EF400940E94462557FD07D00E9434
:104A70000D2507FC03D04EF40C9446255095409527
:104A8000309521953F4F4F4F5F4F089590958095FA
:104A9000709561957F4F8F4F9F4F08950E94982585
:104AA000A59F900DB49F900DA49F800D911D112482
:104AB0000895B7FF0C944E250E944E25821B930B40
:104AC00008952F923F924F925F926F927F928F92B2
:104AD0009F92AF92BF92CF92DF92EF92FF920F938D
:104AE0001F93CF93DF93CDB7DEB7CA1BDB0B0FB697
:104AF000F894DEBF0FBECDBF09942A883988488854
:104B00005F846E847D848C849B84AA84B984C884E9
:104B1000DF80EE80FD800C811B81AA81B981CE0FE0
:104B2000D11D0FB6F894DEBF0FBECDBFED010895C5
:104B3000A29FB001B39FC001A39F700D811D1124DE
:104B4000911DB29F700D811D1124911D0895505823
:104B5000BB27AA270E94BF250C9439270E942B2728
:104B600038F00E94322720F039F49F3F19F426F4E0
:104B70000C9428270EF4E095E7FB0C942227E92FEC
:104B80000E944A2758F3BA176207730784079507EC
:104B900020F079F4A6F50C946C270EF4E0950B2E1A
:104BA000BA2FA02D0B01B90190010C01CA01A0017F
:104BB0001124FF27591B99F0593F50F4503E68F1DA
:104BC0001A16F040A22F232F342F4427585FF3CF1B
:104BD000469537952795A795F0405395C9F77EF4EC
:104BE0001F16BA0B620B730B840BBAF09150A1F035
:104BF000FF0FBB1F661F771F881FC2F70EC0BA0FBB
:104C0000621F731F841F48F4879577956795B79542
:104C1000F7959E3F08F0B0CF9395880F08F099273D
:104C2000EE0F9795879508950E94FE2608F481E07F
:104C300008950E942D260C9439270E94322758F09F
:104C40000E942B2740F029F45F3F29F00C94222783
:104C500051110C946D270C9428270E944A2768F361
:104C60009923B1F3552391F3951B550BBB27AA2725
:104C700062177307840738F09F5F5F4F220F331F5F
:104C8000441FAA1FA9F335D00E2E3AF0E0E832D027
:104C900091505040E695001CCAF72BD0FE2F29D02A
:104CA000660F771F881FBB1F261737074807AB07FC
:104CB000B0E809F0BB0B802DBF01FF2793585F4F71
:104CC0003AF09E3F510578F00C9422270C946D2702
:104CD0005F3FE4F3983ED4F3869577956795B79553
:104CE000F7959F5FC9F7880F911D9695879597F95E
:104CF0000895E1E0660F771F881FBB1F62177307D7
:104D00008407BA0720F0621B730B840BBA0BEE1FEB
:104D100088F7E09508950E9492266894B1110C944A
:104D20006D2708950E94522788F09F5798F0B92F59
:104D30009927B751B0F0E1F0660F771F881F991FD0
:104D40001AF0BA95C9F714C0B13091F00E946C27DF
:104D5000B1E008950C946C27672F782F8827B85FEF
:104D600039F0B93FCCF3869577956795B395D9F728
:104D70003EF490958095709561957F4F8F4F9F4F32
:104D80000895E89409C097FB3EF49095809570953E
:104D900061957F4F8F4F9F4F9923A9F0F92F96E987
:104DA000BB279395F695879577956795B795F111FC
:104DB000F8CFFAF4BB0F11F460FF1BC06F5F7F4F99
:104DC0008F4F9F4F16C0882311F096E911C07723AB
:104DD00021F09EE8872F762F05C0662371F096E8B4
:104DE000862F70E060E02AF09A95660F771F881F83
:104DF000DAF7880F9695879597F90895990F000827
:104E0000550FAA0BE0E8FEEF16161706E807F9079C
:104E1000C0F012161306E407F50798F0621B730B37
:104E2000840B950B39F40A2661F0232B242B252BB8
:104E300021F408950A2609F4A140A6958FEF811D5B
:104E4000811D089597F99F6780E870E060E00895FC
:104E50009FEF80EC089500240A9416161706180692
:104E60000906089500240A9412161306140605066E
:104E70000895092E0394000C11F4882352F0BB0FFF
:104E800040F4BF2B11F460FF04C06F5F7F4F8F4F62
:104E90009F4F089557FD9058440F551F59F05F3F9D
:104EA00071F04795880F97FB991F61F09F3F79F04C
:104EB00087950895121613061406551FF2CF4695CE
:104EC000F1DF08C0161617061806991FF1CF869550
:104ED0007105610508940895E894BB276627772734
:104EE000CB0197F908950E94FE2608F48FEF0895EC
:104EF0000E948B270C9439270E942B2738F00E94A0
:104F0000322720F0952311F00C9422270C942827A7
:104F100011240C946D270E944A2770F3959FC1F3CA
:104F2000950F50E0551F629FF001729FBB27F00D57
:104F3000B11D639FAA27F00DB11DAA1F649F6627AC
:104F4000B00DA11D661F829F2227B00DA11D621FFB
:104F5000739FB00DA11D621F839FA00D611D221FB5
:104F6000749F3327A00D611D231F849F600D211D99
:104F7000822F762F6A2F11249F5750409AF0F1F01C
:104F800088234AF0EE0FFF1FBB1F661F771F881F85
:104F900091505040A9F79E3F510580F00C94222774
:104FA0000C946D275F3FE4F3983ED4F38695779594
:104FB0006795B795F795E7959F5FC1F7FE2B880F2B
:104FC000911D9695879597F908950E94FE26880B66
:104FD000990B0895991B79E004C0991F961708F062
:104FE000961B881F7A95C9F780950895EE0FFF1FCD
:104FF0000590F491E02D0994803209F091110C9400
:10500000E42480528F55D8F70895FB01DC0141500C
:10501000504030F08D910190801919F40020B9F7BB
:10502000881B990B0895FB01DC014150504048F06A
:1050300001900D920020C9F701C01D9241505040CF
:08504000E0F70895F894FFCF9A
:10504800E8030100FF0100000000C30000806100C8
:1050580000C03000008061000000C300000086012D
:1050680000000C030000860100300C0000100A014B
:105078000018496200100A0100210000215208842A
:10508800128C144A0C0023310000C00000000000FC
:105098000000104A0C00082506208410033042083E
:1050A80001182904008C1402004602810003814083
:1050B8002081402030402090188C24490C0E41302B
:1050C800041E42480C8C44480C82E049129CC041A2
:1050D8001E8CC421041042081E8CC4480C8EE04863
:1050E8000C002385000023FD0000E0FD008C14B6B1
:1050F800128C144A0C00C300008091243F80D4B65F
:105108003F0020B53F00F003008058210002814095
:105118002040283100C02F3100C0EC310000420986
:1051280001A1C448210441480C10C2210480D4863E
:105138000040187A005A005A00640055005500646F
:105148000064006400550055005A4F57495F4241BA
:1051580053455F7632002300000000D3013301601D
:10516800013B0291016F0183010D0A006E616E001F
:10517800696E66006F76660053004C0054004D005F
:1051880048004B00430047005200450044004E00D1
:10519800420049004E6F69736544657465637465C0
:1051A800643A200049522072696768743A200049BD
:0A51B80052206C6566743A20000076
:00000001FF
