:100000000C9481000C94FB1A0C94D41A0C94A90043
:100010000C94A9000C94A9000C94A9000C94B0199C
:100020000C94A9000C94A9000C94A9000C94221B18
:100030000C94A9000C94A9000C94A9000C94A9009C
:100040000C948A1A0C94A9000C94581A0C94321A25
:100050000C94A9000C94A9000C94A9000C94A9007C
:100060000C94A9000C94A900252500452000262603
:10007000002525004420002626002525004E2000CE
:100080002626002525004220002626002525004999
:1000900020002626002525004100262600252500D3
:1000A000460026260000000000230026002900004C
:1000B000000000240027002A0000000008000201C0
:1000C000000003040700000000000000000102041B
:1000D00008102040800102040810200102040810CA
:1000E0002000000000250028002B00040404040464
:1000F00004040402020202020203030303030302D4
:10010000231C11241FBECFEFD8E0DEBFCDBF12E00D
:10011000A0E0B1E0E8E7F6E502C005900D92A83D49
:10012000B107D9F726E0A8EDB2E001C01D92AC3CC2
:10013000B207E1F710E0C1E8D0E004C02197FE016A
:100140000E946D28C038D107C9F70E94EC1C0C949E
:100150003A2B0C940000809120039091210301968A
:10016000909321038093200308950895AF92BF9246
:10017000CF92DF92EF92FF920F931F93CF93DF9373
:100180006C017B018B01040F151FEB015E01AE18A2
:10019000BF08C017D10759F06991D601ED91FC91C4
:1001A0000190F081E02DC6010995892B79F7C501F1
:1001B000DF91CF911F910F91FF90EF90DF90CF9043
:1001C000BF90AF900895FC01538D448D252F30E0F2
:1001D000842F90E0821B930B541710F0CF96089554
:1001E00001970895FC01918D828D981761F0A28D81
:1001F000AE0FBF2FB11D5D968C91928D9F5F9F7347
:10020000928F90E008958FEF9FEF0895FC01918DFC
:10021000828D981731F0828DE80FF11D858D90E069
:1002200008958FEF9FEF0895FC01918D228D892F06
:1002300090E0805C9F4F821B91098F7399270895EE
:1002400083E393E00E94140121E0892B09F420E06C
:10025000822F089580E090E0892B29F00E942001F0
:1002600081110C9400000895FC01A48DA80FB92FF2
:10027000B11DA35ABF4F2C91848D90E001968F73CE
:100280009927848FA689B7892C93A089B1898C91ED
:10029000837080648C93938D848D981306C002883C
:1002A000F389E02D80818F7D80830895EF92FF9206
:1002B0000F931F93CF93DF93EC0181E0888F9B8D89
:1002C0008C8D98131AC0E889F989808185FF15C043
:1002D0009FB7F894EE89FF896083E889F989808166
:1002E0008370806480839FBF81E090E0DF91CF9135
:1002F0001F910F91FF90EF900895F62E0B8D10E057
:100300000F5F1F4F0F731127E02E8C8D8E110CC0C5
:100310000FB607FCFACFE889F989808185FFF5CF10
:10032000CE010E943401F1CFEB8DEC0FFD2FF11DBA
:10033000E35AFF4FF0829FB7F8940B8FEA89FB894D
:1003400080818062CFCF0F931F93CF93DF938C0177
:10035000D0E0C0E0F801EC0FFD1F6491662341F08E
:1003600083E393E00E945601892B11F02196F2CF8E
:10037000CE01DF91CF911F910F910895CF93DF931D
:10038000EC01888D8823B9F0AA89BB89E889F989AD
:100390008C9185FD03C0808186FD0DC00FB607FCE2
:1003A000F7CF8C9185FFF2CF808185FFEDCFCE0115
:1003B0000E943401E9CFDF91CF910895833081F01D
:1003C00028F4813099F08230A9F008958730A9F09F
:1003D0008830C9F08430B1F4809180008F7D03C0F3
:1003E000809180008F7780938000089584B58F7707
:1003F00084BD089584B58F7DFBCF8091B0008F7749
:100400008093B00008958091B0008F7DF9CF1F9345
:10041000CF93DF93282F30E0F901E754FF4F849109
:10042000F901E353FF4FD491F901E551FF4FC49116
:10043000CC23A9F0162F81110E94DE01EC2FF0E0F1
:10044000EE0FFF1FEF51FF4FA591B4918FB7F894B6
:10045000EC91111108C0D095DE23DC938FBFDF91A2
:10046000CF911F910895DE2BF8CFCF93DF93D0E08B
:10047000C0E08091F5039091F603A091F703B0914D
:10048000F8030C2E04C0B695A795979587950A9406
:10049000D2F7682F61708091F9030E940702000073
:1004A0000000000061E08091FA030E940702000052
:1004B0000000000060E08091FA030E94070221968C
:1004C000CE31D105B1F661E08091FB030E940702B5
:1004D00000000000000060E08091FB03DF91CF91FD
:1004E0000C940702CF93DF93CDB7DEB7CC57D10979
:1004F0000FB6F894DEBF0FBECDBF2CE7E1E6F1E00A
:10050000DE01119601900D922A95E1F7660F771F93
:10051000660F771F81E090E08C0F9D1F680F791F99
:10052000FB0180819181A281B3818093F503909337
:10053000F603A093F703B093F803C458DF4F0FB648
:10054000F894DEBF0FBECDBFDF91CF910C94350282
:100550001092F5031092F6031092F7031092F8032D
:100560000C943502CF93DF93CDB7DEB7C057D109D6
:100570000FB6F894DEBF0FBECDBF20E2EDEDF1E087
:10058000DE01999601900D922A95E1F720E1EDEFB9
:10059000F1E0DE01AF59BF4F01900D922A95E1F7CE
:1005A00028E1EDE0F2E0DE01A75BBF4F01900D9284
:1005B0002A95E1F728E2E5E2F2E0DE0111960190EA
:1005C0000D922A95E1F7440F551F440F551F6230D5
:1005D000710581F16330710581F161307105F1F0D0
:1005E00081E090E08C0F9D1F480F591FFA0180A5F4
:1005F00091A5A2A5B3A58093F5039093F603A093CC
:10060000F703B093F803C059DF4F0FB6F894DEBF7D
:100610000FBECDBFDF91CF910C94350281E690E003
:100620008C0F9D1F480F591FFA0180819181A28173
:10063000B381E1CF89E490E0F3CF81E090E0F0CFA7
:10064000CF93DF9390E0FC01E353FF4F249185515A
:100650009F4FFC0184918823D1F090E0880F991F6F
:10066000FC01E155FF4FA591B491FC01EF51FF4F03
:10067000C591D49161110EC09FB7F8948C91E22F6F
:10068000E0958E238C932881E223E8839FBFDF913E
:10069000CF9108958FB7F894EC91E22BEC938FBF34
:1006A000F6CF109221031092200310921F03109294
:1006B0001E0361E080E10E94200361E08FE00E9460
:1006C000200361E08EE00E94200360E082E00E944F
:1006D000200361E080E10C9407028E3008F08E5018
:1006E0008770806480937C0080917A00806480931E
:1006F0007A0080917A0086FDFCCF809178009091FD
:10070000790008953FB7F8948091DE029091DF025E
:10071000A091E002B091E10226B5A89B05C02F3F51
:1007200019F00196A11DB11D3FBFBA2FA92F982F17
:100730008827BC01CD01620F711D811D911D42E012
:10074000660F771F881F991F4A95D1F708958F92DA
:100750009F92AF92BF92CF92DF92EF92FF926B0186
:100760007C010E9482034B015C01C114D104E104AD
:10077000F104B9F00E948203681979098A099B097A
:10078000683E73408105910580F321E0C21AD108CB
:10079000E108F10888EE880E83E0981EA11CB11CC8
:1007A000E4CFFF90EF90DF90CF90BF90AF909F90FD
:1007B0008F9008954F925F926F927F928F929F9247
:1007C000AF92BF92CF92DF92EF92FF920F931F935F
:1007D000CF93DF93CDB7DEB729970FB6F894DEBF7E
:1007E0000FBECDBF29013A010115110511F401E039
:1007F00010E00E94092769837A838B839C83809110
:1008000074049091750420915C01281719F12F3F11
:1008100009F49DC0C301B2010E94A703B801110FE2
:10082000880B990B29960FB6F894DEBF0FBECDBF8B
:10083000DF91CF911F910F91FF90EF90DF90CF90BC
:10084000BF90AF909F908F907F906F905F904F90F0
:100850000C94A703EFEFF0E02491298727FDDACF6E
:1008600061E00E9420038985882321F099859230D8
:1008700009F05FC189819A814C01B12CA12C60E003
:1008800072E18AE790E0A50194010E94A6252D83DC
:100890003E834F83588769017A0191E0C91AD108D4
:1008A000E108F1082FEFC216D104E104F10409F0C8
:1008B0000CF414C160E472E48FE090E0A5019401AF
:1008C0000E94A62569017A0181E0C81AD108E108D1
:1008D000F1089985923009F0B5C082E02FEFC21679
:1008E000D104E104F10409F00CF4E0C160E970ED19
:1008F00083E090E0A50194010E94A62569017A0198
:1009000081E0C81AD108E108F10883E09FEFC91619
:10091000D104E104F10409F00CF4C8C168E478EEF4
:1009200081E090E0A50194010E94A62569017A0169
:1009300091E0C91AD108E108F1082FEFC216D104DD
:10094000E104F10411F00CF0A1C084E0AFC1809388
:100950005C01EFEFF0E0249129872F3F09F45ACF93
:10096000213041F150F0223009F446C0298527FD9D
:1009700051CF61E00E94200379CF14BC15BC24B58F
:10098000226024BD25B5216025BD9C013327F901D6
:10099000E551FF4FE491F0E0EE0FFF1FEF51FF4FE5
:1009A00045915491F901E353FF4FE491E0932603FD
:1009B000198656CF109280001092810020918100FC
:1009C0002860209381002091810021602093810084
:1009D0009C013327F901E551FF4FE491F0E0EE0F60
:1009E000FF1FEF51FF4F45915491F901E353FF4F22
:1009F000E491E093250334CF1092B0001092B1003F
:100A00002091B00022602093B0002091B1002160BD
:100A10002093B1009C013327F901E551FF4FE49188
:100A2000F0E0EE0FFF1FEF51FF4F459154915093AF
:100A3000240340932303F901E353FF4FE491E09330
:100A400022030ECF2FEFC216D104E104F10409F006
:100A50000CF46DC068E478EE81E090E0A5019401AB
:100A60000E94A62569017A0181E0C81AD108E1082F
:100A7000F1089985992309F4E5C02FEFC216D10436
:100A8000E104F10411F00CF0E6C05FCF64E274EF12
:100A900080E090E0A50194010E94A62569017A01F9
:100AA00081E0C81AD108E108F10885E09FEFC91676
:100AB000D104E104F10409F008F4F8C062E17AE736
:100AC00080E090E0A50194010E94A62569017A01C9
:100AD00081E0C81AD108E108F108CFC081E029857A
:100AE0002111E4C095B5987F892B85BD2FEF3FEF8D
:100AF000A901411451046104710409F057C08985AA
:100B0000813009F462C0823009F471C0811182CE53
:100B1000C7BC20932F03309330034093310350938D
:100B2000320380916E00826080936E0073CE82E00B
:100B3000D6CF89819A814C01B12CA12C60E072E161
:100B40008AE790E0A50194010E94A62569017A0137
:100B500091E0C91AD108E108F10891E0C114D1046B
:100B600021E0E206F10484F068E478EE81E090E0B0
:100B7000A50194010E94A62569017A0181E0C81AA5
:100B8000D108E108F10893E02985213009F0AECFC2
:100B900080918100887F892B809381002FEF3FEF28
:100BA000A901411451046104710479F0A981BA8149
:100BB000AA0FBB1FA30192010E94C52528EE33E0B6
:100BC00040E050E00E9484259ACFD0928900C092E4
:100BD000880020932B0330932C0340932D035093D4
:100BE0002E0380916F00826080936F0013CEC092BD
:100BF000B300209327033093280340932903509395
:100C00002A038091700082608093700003CECD80B3
:100C1000DE80EF80F8848AE0F594E794D794C79457
:100C20008A95D1F721E0C21AD108E108F10885E0E0
:100C300059CF8FEFC816D104E104F10409F038F759
:100C400084E050CF83E09FEFC916D104E104F104A2
:100C500009F00CF447CF62E17AE780E090E0A5016B
:100C600094010E94A62569017A0181E0C81AD10881
:100C7000E108F10899859923E1F286E09FEFC91612
:100C8000D104E104F10491F088F0CD80DE80EF80A2
:100C9000F8849AE0F594E794D794C7949A95D1F79D
:100CA00081E0C81AD108E108F10887E09091B1000D
:100CB000987F892B8093B10019CF4F925F926F92EA
:100CC0007F928F929F92AF92BF92CF92DF92EF92DC
:100CD000FF920F931F93CF93DF93CDB7DEB7289783
:100CE0000FB6F894DEBF0FBECDBF2B013C012983A8
:100CF0003A834B835C83ED82FE820F8318870E94C8
:100D000002278B0129813A814B815C81C301B201A9
:100D10000E948B2687FF25C0B801110F880B990B05
:100D20000E943A272B013C01AC019B0169817A8129
:100D30008B819C810E94EA271816C4F58401A601C4
:100D40009501C301B2010E94DA032D813E814F81DA
:100D50005885C301B2010E94EF270E9402278B0130
:100D6000DBCFB801110F880B990B0E943A272B019A
:100D70003C01AC019B0169817A818B819C810E943D
:100D80008B2687FF13C08401A6019501C301B20120
:100D90000E94DA032D813E814F815885C301B20143
:100DA0000E9490260E9402278B01DBCF28960FB667
:100DB000F894DEBF0FBECDBFDF91CF911F910F9191
:100DC000FF90EF90DF90CF90BF90AF909F908F906B
:100DD0007F906F905F904F9008958F929F92AF9207
:100DE000BF92CF92DF92EF92FF921F93CF93DF9348
:100DF00085E10E946D03CAE0D0E0C12CD12C7601C0
:100E000015E085E10E946D03189FB001199F700DD8
:100E10001124072E000C880B990B0E943A2720E022
:100E200030E040E85AE30E94EF274B015C0126E6E0
:100E300036E646E850E40E94EA2718163CF486E6B7
:100E4000882E982C86E8A82E80E4B82E2FEB36E862
:100E500042ED52E4C501B4010E94EF272CE73DE0CA
:100E60004BEA53E40E941E264B015C0120E030E077
:100E7000A9010E948B2687FF03C0812C912C54016D
:100E8000A5019401C701B6010E941F266B017C01D8
:100E900061E070E080E090E00E94A703219709F0F4
:100EA000B0CF20E030E040E251E4C701B6010E943B
:100EB0009026DF91CF911F91FF90EF90DF90CF9020
:100EC000BF90AF909F908F9008958F929F92AF9216
:100ED000BF92CF92DF92EF92FF920F931F93CF9327
:100EE000DF93019782319105B8F4FC01E658F84F81
:100EF0000C946D28BD07E007140827083E08610818
:100F00008D08BC08EB081A09440969099709C20948
:100F1000D9091A0A310A480A0EE110E022E330E04A
:100F200040E050E064EA70ED84E294E40E94DA0369
:100F300009E110E027E330E040E050E062E570EDC9
:100F400084EA94E40E94DA030AE010E02CE330E043
:100F500040E050E060E070E08CED94E40E94DA0341
:100F6000DF91CF911F910F91FF90EF90DF90CF9085
:100F7000BF90AF909F908F9008950EE110E022E314
:100F800030E040E050E064EA70ED84E294E40E94D6
:100F9000DA0309E110E027E330E040E050E060E0F0
:100FA00070E08CED94E40E94DA030AE010E022E3A2
:100FB00030E040E050E062E570ED84EA94E4CECFAA
:100FC00092E0892E912C24E1A22EB12CC12CD12C9F
:100FD0001AE0E12E17EDF12E03E81FE32CE53FEFB9
:100FE00043EC54E462E570ED84EA94E40E945D060B
:100FF0006EE170E080E090E00E94A7034AE0A42E3A
:10100000B12CC12CD12C18EBE12E1EE1F12E05E8FC
:101010001FE32FE135ED42E155E462E570ED84EA2E
:1010200094E40E945D069CCFCAE08C2E912CDEE1F8
:10103000AD2EB12CC12CD12C1CE5E12E1FE8F12ED8
:1010400002E81FE320E030E04CED54E4E6CFFAE0A4
:101050008F2E912CAEE1AA2EB12CC12CD12C1AE0EE
:10106000E12E17EDF12E03E81FE32FE135ED42E10C
:1010700055E46CE57FEF83EC94E4D3CF04E610E015
:1010800022E330E040E050E062E570ED84EA94E471
:101090000E94DA0300E510E022E330E040E050E097
:1010A0006CE57FEF83EC94E40E94DA0310E000E04B
:1010B0002CE231E040E050E06FE175ED82E195E433
:1010C0004DCF88248394912C5AE0A52EB12CC12CAD
:1010D000D12C1CE5E12E1FE8F12E02E81FE320E0F1
:1010E00030E646E055E460E070E088E494E40E9475
:1010F0005D0677E0A72EB12CC12CD12C1AE0E12E91
:1011000017EDF12E03E81FE320E030E048E454E45B
:1011100060E070E586E095E484CF93E0892E912C21
:1011200028E0A22EB12CC12CD12C18EBE12E1EE10F
:10113000F12E05E81FE320E030E04AEF54E460E0E0
:1011400070E08CE594E40E945D0668EC70E080E05D
:1011500090E00E94A703C6E1D0E00AE010E025E09D
:1011600030E040E050E068E471EF86E794E40E94EC
:10117000DA03219791F7F4CEC3E08C2E912CD8E0BE
:10118000AD2EB12CC12CD12C1AE0E12E17EDF12E91
:1011900003E81FE320E030E84BE355E460E070E053
:1011A0008BEE94E40E945D0668EC70E080E090E0D5
:1011B0000E94A703C0E1D0E00AE010E02AE030E09E
:1011C00040E050E060E070ED82E894E40E94DA03D1
:1011D000219791F7C5CE64E0862E912C70E1A72E61
:1011E000B12CC12CD12C1AE0E12E17EDF12E03E821
:1011F0001FE320E030E041E654E460E070E08FE27D
:1012000094E40E945D06F7E08F2E912CA2E1AA2EB5
:10121000B12CC12CD12C1EEAE12E17E4F12E01E8ED
:101220001FE320E030E842E254E460E070EC80E646
:1012300094E4F7CE2AE0822E912C3AE0A32EB12C32
:10124000C12CD12C18EBE12E1EE1F12E05E81FE395
:1012500020E030E04AEF53E460E070E088EC92E494
:101260000E945D0664EF71E080E090E00E94A703B9
:1012700088248394912C20E030E048EC52E460E034
:1012800070E088EC93E4CDCED8E08D2E912C14E163
:10129000A12EB12CC12CD12C16E6E12EFE2C06E895
:1012A0001FE320E030E44CE155E460E070E88BEBB4
:1012B00094E40E945D0699E1A92EB12CC12CD12C99
:1012C00020E030E84BEB54E460E070E38CE195E41F
:1012D000A8CEE3E08E2E912CF8E0AF2EB12CC12CDD
:1012E000D12C16E6E12EFE2C06E81FE320E030E8C4
:1012F0004BEB55E460E070E08AEF94E40E945D06F9
:1013000062E370E080E090E00E94A703B2E08B2EE1
:10131000912CCDE0AC2EB12CC12CD12C20E030E0B2
:101320004AEF54E460E078E78BEB95E47ACE48E04E
:10133000842E912C5FE0A52EB12CC12CD12C16E669
:10134000E12EFE2C06E81FE320E030E04AEF54E4F3
:1013500060E070E88BEB94E40E945D0664E670E068
:1013600080E090E00E94A7037AE0A72EB12CC12C68
:10137000D12C20E030E44CE155E460E070E88DEEE3
:1013800094E44FCE98EC892E912C24E1A22EB12C1E
:10139000C12CD12C1CE5E12E1FE8F12E02E81FE341
:1013A00020E030E447E254E460E070E08CE594E44F
:1013B00038CEF2E08F2E912CA8E0AA2EB12CC12CB1
:1013C000D12C1AE0E12E17EDF12E03E81FE320E007
:1013D00030E844ED54E460E070E08AE794E40E9471
:1013E0005D06C3E08C2E912C18EBE12E1EE1F12E50
:1013F00005E81FE320E030E04AEF53E460E070E6E8
:1014000084ED94E40E945D061AE0812E912C09E09F
:10141000A02EB12CC12CD12C16E6E12EFE2C06E814
:101420001FE320E030E844ED54E460E070E08AE738
:1014300094E4F7CD6FE0862E912C72E0A72EB12CAC
:10144000C12CD12C1CE5E12E1FE8F12E02E81FE390
:1014500020E030E84BE355E460E070E088EC94E491
:10146000E0CD34E1832E912C42E0A42EB12CC12C8E
:10147000D12C1CE5E12E1FE8F12E02E81FE320E04D
:1014800030E84BEB55E460E070E08AEF94E4C9CDBE
:1014900084E1882E912C92E0A92EB12CC12CD12C64
:1014A0001CE5E12E1FE8F12E02E81FE320E030E00A
:1014B0004AE755E460E070E088EC94E40E945D0641
:1014C00020E030E84BE355E460E070E08AE795E423
:1014D000A8CDCF93DF93809176040E946D03809115
:1014E00076040E946D03EC0164E070E080E090E01F
:1014F0000E94A703809176040E946D03C80FD91F34
:1015000064E070E080E090E00E94A703CE01D7FD88
:10151000019695958795DF91CF9108952FB7F8940F
:101520006091DA027091DB028091DC029091DD0221
:101530002FBF0895CF93C62F10922103109220033E
:1015400020911603309117032F5F3F4F30931703FD
:10155000209316036111862F682F61708FE00E941F
:1015600007026C2F8EE00E9407020E948E0A609391
:101570001203709313038093140390931503CF9178
:101580000895CF93DF93FC01208131813327F90146
:10159000E754FF4F8491F901E353FF4FD491F901D0
:1015A000E551FF4FC491CC2379F081110E94DE01F7
:1015B000EC2FF0E0EE0FFF1FEB55FF4FA591B4911C
:1015C000EC91ED2381E009F480E0DF91CF91089563
:1015D000DC01EC918E2F90E0FC01EE0FFF1FE80F75
:1015E000F91FE053FC4F808186FF02C08F7B808310
:1015F0000895CF92DF92EF92FF92CF93DF93EC01A9
:10160000603282E07807CCF5653B710514F064EB3D
:1016100070E0898128E830E0281B310987FD339587
:10162000220F331F220F331F6901330FEE08FF080B
:101630008A8128E532E0281B310987FD3395220F86
:10164000331F220F331F032E000C440B550B2C1994
:101650003D094E095F09DB0177FF02C0B0E0A0E061
:101660000E94D02524EB30E040E050E00E94A62507
:10167000C20ED31EE41EF51EB601E881EC3070F5F3
:10168000298188E890E0821B910927FD9395880FB6
:10169000991F880F991F681779077CF02A8188E5C0
:1016A00092E0821B910927FD9395880F991F880F5F
:1016B000991F681779070CF4CB010297880F991FBF
:1016C0004FB7F8942E2F30E0F901EE0FFF1FE20F15
:1016D000F31FE053FC4F928381834FBFDF91CF9183
:1016E000FF90EF90DF90CF9008951F93CF93DF93FB
:1016F000EC01162F88818C3008F04EC061E0812FFC
:101700000E9420038881282F30E0F901EE0FFF1F8F
:10171000E20FF31FE053FC4F1F736081607C612B6D
:10172000608319821A822CE0622F0E946128829FB6
:10173000B001112430E020E0AB01420F531FFA0149
:10174000EE0FFF1FE40FF51FE053FC4F908196FD55
:1017500016C02F5F3F4F2C30310571F781110FC03C
:101760001092800082E08093810010928500109298
:101770008400B19A80916F00826080936F00E8814D
:101780008E2F90E0FC01EE0FFF1FE80FF91FE053D2
:10179000FC4F8081806480838881DF91CF911F918D
:1017A0000895E091FD038E2F90E0FC01EE0FFF1FE6
:1017B000E80FF91FE053FC4F808186FD58C060910F
:1017C0006804709169048DEF93E00E94750B6AE5DF
:1017D00070E08DEF93E00E94F90A8EE190E0909323
:1017E0001B0480931A0480ED97E090930504809386
:1017F000040480E090E0A4E8B2E48093160490939F
:101800001704A0931804B09319048AE198EFA2EC8E
:10181000BDE38093120490931304A0931404B09337
:10182000150410921C0410921D0410921E041092B4
:101830001F048DE290E090930104809300041092C5
:101840000E0410920F0410921004109211041092C2
:1018500006041092070410920804109209041092D2
:101860000304109202041092240410922504E091C3
:1018700026048E2F90E0FC01EE0FFF1FE80FF91FEA
:10188000E053FC4F808186FD58C060916A047091DE
:101890006B0486E294E00E94750B6AE570E086E2D4
:1018A00094E00E94F90A8EE190E0909344048093C2
:1018B000430480ED97E090932E0480932D0480E004
:1018C00090E0A4E8B2E480933F0490934004A09396
:1018D0004104B09342048AE198EFA2ECBDE3809307
:1018E0003B0490933C04A0933D04B0933E041092BB
:1018F00045041092460410924704109248048DE269
:1019000090E090932A048093290410923704109257
:1019100038041092390410923A0410922F04109255
:101920003004109231041092320410922C04109260
:101930002B0410924D0410924E040895CF92DF9222
:10194000EF92FF92CF93DF936C01EB010E94D10BDA
:10195000809190048111109290048BE0C816D104FC
:101960005CF56881798180910C0490910D04680F79
:10197000791F8DEF93E00E94F90A6A817B81809143
:10198000350490913604680F791F86E294E00E9436
:10199000F90A8881998190937104809370048A81F7
:1019A0009B819093730480937204DF91CF91FF9099
:1019B000EF90DF90CF9008950E948E0A0D2C000CBE
:1019C000EE08FF086C0D7D1D8E1D9F1D6093780431
:1019D0007093790480937A0490937B046881798171
:1019E00080910C0490910D04680F791F8DEF93E0A6
:1019F0000E94F90A6A817B818091350490913604B6
:101A0000680F791F86E294E00E94F90A0E948E0A0C
:101A1000C60ED71EE81EF91EC0927804D092790433
:101A2000E0927A04F0927B040E948E0AC0907804BF
:101A3000D0907904E0907A04F0907B04C616D70623
:101A4000E806F90608F4A5CFEFCFCF93DF9300D0D7
:101A500000D0CDB7DEB740914D0250914E0260915B
:101A60004F027091500249835A836B837C83BE017D
:101A70006F5F7F4F0E949E0C0F900F900F900F9002
:101A8000DF91CF910895CF93DF9300D000D0CDB7F1
:101A9000DEB7409151025091520260915302709111
:101AA000540249835A836B837C83BE016F5F7F4FEF
:101AB0000E949E0C0F900F900F900F90DF91CF918E
:101AC0000895CF93DF9300D000D0CDB7DEB740911B
:101AD0005502509156026091570270915802498305
:101AE0005A836B837C83BE016F5F7F4F0E949E0C85
:101AF0000F900F900F900F90DF91CF910895CF939B
:101B0000DF9300D000D0CDB7DEB780919004811173
:101B10001EC080914D0290914E02A0914F02B09153
:101B2000500289839A83AB83BC83BE016F5F7F4F72
:101B300084EF91E00E949E0C8DEF93E00E94E80AF2
:101B400086E294E00E94E80A81E0809390040F907E
:101B50000F900F900F90DF91CF910895CF93DF9367
:101B600000D000D0CDB7DEB74091590250915A0253
:101B700060915B0270915C0249835A836B837C8322
:101B8000BE016F5F7F4F0E949E0C0F900F900F90D1
:101B90000F90DF91CF910895CF93DF9300D000D0C5
:101BA000CDB7DEB740915D0250915E0260915F0259
:101BB0007091600249835A836B837C83BE016F5F9F
:101BC0007F4F0E949E0C0F900F900F900F90DF910F
:101BD000CF910895FC0101900020E9F73197AF0102
:101BE000481B590BBC0183E393E00C94B600CF93E0
:101BF000DF930E94A301EC018FE992E00E94EA0DBD
:101C00008C0F9D1FDF91CF9108956EE170E080E011
:101C100090E00E94A70382EA90E00E94A30180EA7C
:101C200090E00E94A3018DE990E00E94F70D83E30C
:101C300093E00C94BE016EE170E080E090E00E94C1
:101C4000A7038AE990E00E94A30188E990E00E943E
:101C5000A30185E990E00E94F70D83E393E00C94E3
:101C6000BE010E941B0E0E947F0D0C94050E8F92E8
:101C70009F92AF92BF920F931F93CF93DF93CDB7F5
:101C8000DEB7A1970FB6F894DEBF0FBECDBF19A285
:101C9000423008F44AE08E010F5D1F4F842E912CD4
:101CA000B12CA12CA50194010E948425E62FB90135
:101CB000CA01EA30F4F4E05DD801EE938D01232BE4
:101CC000242B252B79F790E080E0109719F0CD01B7
:101CD0000E94EA0DA1960FB6F894DEBF0FBECDBFED
:101CE000DF91CF911F910F91BF90AF909F908F90F8
:101CF0000895E95CE1CF0E947F0D82E990E00E94A7
:101D0000A3018FE890E00E94A30189E692E00E947F
:101D1000EA0D8CE890E00E94F70D83E393E00C94C9
:101D2000BE01CF92DF92EF92FF92CF93DF936C01CF
:101D3000990FEE08FF08F7FE19C06DE283E393E008
:101D40000E945601EC0166277727CB016C197D09AB
:101D50008E099F094AE00E94370E8C0F9D1FDF916C
:101D6000CF91FF90EF90DF90CF9008954AE0C701A8
:101D7000B601DF91CF91FF90EF90DF90CF900C9460
:101D8000370ECF93DF930E947F0D0E94690AEC010A
:101D900080E890E00E94A3018DE790E00E94A301FB
:101DA000CE010E94910E8AE790E00E94F70D83E336
:101DB00093E0DF91CF910C94BE016F927F928F924E
:101DC0009F92AF92BF92CF92DF92EF92FF920F93CA
:101DD0001F93CF93DF936C0180911E0390911F039B
:101DE000892BA1F560E080E10E94070210921F0399
:101DF00010921E0310925C0110925D0110925E0120
:101E000010925F0110921703109216031092210393
:101E1000109220030E948E0A6093120370931303A2
:101E200080931403909315038BEA90E090934D01F7
:101E300080934C0180916900836080936900E89AE7
:101E400081E090E090931F0380931E030E948E0A0E
:101E50000091120310911303209114033091150384
:101E6000601B710B820B930B633371058105910528
:101E700030F083E090E090931F0380931E038091E5
:101E80001E0390911F03039709F08BC080911603E6
:101E9000909117038130910519F14CF460E0892B82
:101EA00009F4E1C0109221031092200325C0823072
:101EB000910509F4CFC00397A9F780912003909171
:101EC000210390931D0380931C0360E081E00E9436
:101ED0009A0A82E090E090931F0380931E030CC047
:101EE000809120039091210390931903809318030C
:101EF00061E081E00E949A0A809116039091170395
:101F000004970CF4B2C020E030E040E85FEB609151
:101F100050017091510180915201909153010E94A2
:101F20008B26882301F120E030E040E85FEB6091F0
:101F300054017091550180915601909157010E9472
:101F40008B26882381F020E030E040E85FEB609151
:101F500058017091590180915A0190915B010E9442
:101F60008B2681111EC0C8E1D3E000E511E0699124
:101F70007991072E000C880B990B0E943A279B0140
:101F8000AC0160E070E08FE793E40E949026F801D6
:101F900061937193819391938F01F3E0CE31DF07C9
:101FA00031F780911E0390911F03029709F067C0DB
:101FB00088E1E82E83E0F82E00E511E0E601360125
:101FC00086E0680E711CCC24CA94D12CF701619173
:101FD00071917F01F80181909190A190B1908F0152
:101FE000072E000C880B990B0E943A27A50194013B
:101FF0000E94EF270E9402276F3F710509F0E4F568
:10200000798368832296C615D70501F7E89885EB92
:1020100090E090934D0180934C0110921703109221
:102020001603109221031092200310921F031092A6
:102030001E0381E090E0DF91CF911F910F91FF90FF
:10204000EF90DF90CF90BF90AF909F908F907F9058
:102050006F900895809120039091210390931B032A
:1020600080931A0361E080E045CF84E090E0909394
:102070001F0380931E0395CFD982C882C3CF90E0FF
:1020800080E0D9CF8F929F92AF92BF92CF92DF9292
:10209000EF92FF920E947F0D0E94ED066B017C0182
:1020A00089E890E00E94A30186E890E00E94A301E5
:1020B000A7019601C701B6010E945C288823A1F000
:1020C00082EA92E00E94EA0D83E890E00E94F70D18
:1020D00083E393E0FF90EF90DF90CF90BF90AF90BD
:1020E0009F908F900C94BE0146015701E894B7F879
:1020F0002FEF3FEF4FE75FE7C501B4010E945C2877
:1021000081110DC02FEF3FEF4FE75FE7C501B4012D
:102110000E948B2618161CF486EA92E0D3CF2FEF8C
:102120003FEF4FE75FE4C701B6010E94EA271816A8
:102130001CF48AEA92E0C6CF2FEF3FEF4FE75FEC47
:10214000C701B6010E948B2687FDF3CF20E030E067
:10215000A901C701B6010E948B2687FF09C06DE265
:1021600083E393E00E945601F7FAF094F7F8F094B5
:102170002AE037ED43EA5BE3C701B6010E941F2660
:102180004B015C010E9409276B017C010E943827EA
:102190009B01AC01C501B4010E941E264B015C01EC
:1021A0004AE0C701B6010E94370E6EE283E393E076
:1021B0000E94560120E030E040E251E4C501B40144
:1021C0000E94EF274B015C010E9409276B01F12C53
:1021D000E12C4AE0C701B6010E94370EC701B601E3
:1021E0000E9438279B01AC01C501B4010E941E2644
:1021F00020E030E040E251E40E94EF270E940927EE
:1022000090E080E04AE00E94370E5ECF81E080934C
:102210000F0390911103911108C0809311036FE097
:1022200070E080E090E00C947202089581E0809369
:10223000100390911103911108C0809311036FE076
:1022400070E080E090E00C94720208951F93CF93A9
:10225000DF932091BE043091BF042E30310504F588
:10226000EB01BC0115E2129FC001139F900D1124D8
:1022700043E250E080549B4F0E948A288091BE0424
:102280009091BF04189FF001199FF00D1124ED519A
:10229000FB4FD183C08301969093BF048093BE040B
:1022A000DF91CF911F9108954CEB54E067EB74E000
:1022B00090E080E00C942C25CF93DF9300D0CDB735
:1022C000DEB70E941B0E0E947F0D0E9454110097E2
:1022D000C1F042E050E0BE016F5F7F4F0E941A24C0
:1022E0006093F5037093F6038093F7039093F803DC
:1022F0000E9435020E94050E0F900F90DF91CF9142
:1023000008956AE170E080E090E00E94720260ED62
:1023100077E080E090E00E94A7030E94A802EACF45
:10232000CF92DF92EF92FF920F931F93CF93DF93A1
:102330000E941B0E0E947F0D0E94541111E0009715
:1023400021F00E940525EC0110E00E945411009735
:1023500021F00E9405251123C1F06AE170E080E0C0
:1023600090E00E94720260ED77E080E090E00E94D1
:10237000A7030E94A802DF91CF911F910F91FF90B8
:10238000EF90DF90CF900C94050E6C01990FEE0842
:10239000FF08BE01DD0F880B990B0E943A2701E070
:1023A00010E0A70196010E94DA03E5CF0E941B0E00
:1023B000809190048111109290040E945411009712
:1023C00091F00E9405259093E3028093E2020E941F
:1023D00054110097D9F00E940525909345018093F0
:1023E00044010C9454116AE170E080E090E00E9496
:1023F000720260ED77E080E090E00E94A7030E9407
:10240000A8021092E3021092E202E1CF88EE93E07C
:10241000E4CF2F923F924F925F926F927F928F9272
:102420009F92AF92BF92CF92DF92EF92FF920F9363
:102430001F93CF93DF9300D000D0CDB7DEB70E94BB
:102440001B0E0E947F0D0E9454110097C1F00E9444
:10245000052501978D30910500F5FC01EE5CFD4EE0
:102460000C946D2865128012A9121A13A613031476
:10247000141425149E14E1147B158C16E1166AE1E0
:1024800070E080E090E00E94720260ED77E080E012
:1024900090E00E94A7030E94A8020F900F900F9057
:1024A0000F90DF91CF911F910F91FF90EF90DF90F0
:1024B000CF90BF90AF909F908F907F906F905F90E4
:1024C0004F903F902F900C94050E0EE110E022E308
:1024D00030E040E050E064EA70ED84E294E40E9471
:1024E000DA036AE070E080E090E00E9472028DE022
:1024F00090E00E9465078DE090E00E94650720C093
:102500006BE070E080E090E00E9472028BE090E06F
:102510000E9465076CE070E080E090E00E9472022B
:102520006BE070E080E090E00E9472028CE090E04E
:102530000E9465076CE070E080E090E00E9472020B
:102540000E947F0D6BE070E080E090E00E947202DC
:10255000A4CF66E170E080E090E00E94720228EC77
:10256000822E912C34E1A32EB12CC12CD12C1CE550
:10257000E12E1FE8F12E02E81FE320E030E84FE4EF
:1025800054E460E070E08CE594E40E945D0668E14C
:1025900070E080E090E00E94720220E030E845E4C4
:1025A00054E460E070E88FE494E40E945D0667E123
:1025B00070E080E090E00E94720220E030E049E3A9
:1025C00054E460E070E885E494E40E945D0668E10C
:1025D00070E080E090E00E94720220E030E04FE284
:1025E00054E460E070E089E394E40E945D0667E1F2
:1025F00070E080E090E00E94720220E030E447E268
:1026000054E460E070E08FE294E40E945D0666E1CD
:1026100070E080E090E00E94720264EF71E080E080
:1026200090E00E94A7030E947F0D6CE271E080E0C1
:1026300090E0E6C024E030E03A83298350E040E0B7
:1026400061E070E080E090E00E94B202BAE08B2E80
:10265000912C1AE0A12EB12CC12CD12C18EBE12E1B
:102660001EE1F12E05E81FE320E030E048E453E4EA
:1026700060E070E088EC92E40E945D0641E050E08A
:1026800061E070E080E090E00E94B20220E030E083
:1026900046E953E460E070E088E493E40E945D065C
:1026A00042E050E061E070E080E090E00E94B20221
:1026B00020E030E04AEF53E460E070E086E993E424
:1026C0000E945D0664EF71E080E090E00E94A70345
:1026D00041E050E061E070E080E090E00E94B202F2
:1026E00088248394912C20E030E04AE753E460E0B2
:1026F00070E088EC93E40E945D0650E040E061E009
:1027000070E080E090E00E94B20220E030E048EC0F
:1027100052E460E070E08AE793E40E945D0664EFB3
:1027200071E080E090E00E94A70389819A8101977F
:102730009A838983892B09F081CF63E170E080E07F
:1027400090E00E94720289E090E0D7CE6CE271E0E6
:1027500080E090E00E94A70363E170E080E090E0F9
:102760000E94720280E190E00E94650760E170E0E3
:1027700080E090E00E9472026AEF70E080E090E0FA
:102780000E94A7036CE271E080E090E00E94A70342
:1027900063E170E080E090E00E94720281E190E0ED
:1027A0000E94650760E170E080E090E00E947202A4
:1027B0006AEF70E080E090E00E94A7036CE271E0B5
:1027C00080E090E00E94A70363E170E080E090E089
:1027D0000E94720282E190E00E94650760E170E071
:1027E00080E090E00E9472026CE271E080E090E094
:1027F0000E94A7030E947F0D64EF71E080E090E0EB
:102800000E94A7039FCE64E170E080E090E00E9408
:1028100072028FE090E00E94650764EF71E080E053
:1028200090E00E94A7038CCE6DE070E080E090E025
:102830000E94720289E090E00E9465070E947F0D6D
:102840008DE090E00E9465077DCE6EE170E080E053
:1028500090E00E9472020EE110E024E630E040E0D9
:1028600050E060E070E08CE594E40E94DA0344E01C
:10287000842E912C57E0A52EB12CC12CD12C1CE517
:10288000E12E1FE8F12E02E81FE32FE135ED42E9CA
:1028900054E460E070E08CE594E40E945D068824D6
:1028A0008394912CEAE0AE2EB12CC12CD12C2CE5D6
:1028B0003FEF43EC54E46FE175ED82E994E40E944C
:1028C0005D0620E030E04CE554E46CE57FEF83ECFE
:1028D00094E40E945D066FE070E080E090E00E946A
:1028E000A703F4E08F2E912CA4E1AA2EB12CC12CC9
:1028F000D12C24EA30ED44E254E460E070E08CE551
:1029000094E40E945D0660E971E080E090E00E943E
:10291000A7032FE135ED42E954E460E070E08CE577
:1029200094E40E945D0624EA30ED44E254E460E061
:1029300070E08CE594E40E945D0602CE6EE170E0EA
:1029400080E090E00E94720294E0892E912C24E1B4
:10295000A22EB12CC12CD12C1CE5E12E1FE8F12EAA
:1029600002E81FE32FE135ED42E954E460E070E056
:102970008CE594E40E945D0624EA30ED44E254E4E0
:1029800060E070E08CE594E40E945D066CE271E02A
:1029900080E090E00E94A70363E170E080E090E0B7
:1029A0000E9472020E947F0D0E947F0D0E947F0D87
:1029B0000E947F0D6EE170E080E090E00E94720264
:1029C0002CCF24E030E03A83298300E911E01C8217
:1029D0001B824B815C8162E070E080E090E00E94AD
:1029E000B202180134E6230E311CB801110F880B16
:1029F000990B0E943A272B013C01B101032C000CDA
:102A0000880B990B0E943A279B01AC011AE0812E9A
:102A1000912C0AE0A02EB12CC12CD12C18EBE12E68
:102A20001EE1F12E05E81FE3C301B2010E945D061D
:102A30008B819C8101969C838B838101069749F64B
:102A40000E94A80218EBE12E1EE1F12E05E81FE31B
:102A500020E030E849E854E4C301B2010E945D0679
:102A600028EE33E03C832B83312C212CA10162E042
:102A700070E080E090E00E94B2026B817C816C5932
:102A80007F4F072E000C880B990B0E943A272B01D1
:102A90003C012B813C81B901330F880B990B0E94BB
:102AA0003A27EAE08E2E912CFAE0AF2EB12CC12C01
:102AB000D12C18EBE12E1EE1F12E05E81FE3A30156
:102AC00092010E945D068B819C81845691099C83B2
:102AD0008B839FEF291A390A2B813C8120393140A1
:102AE00029F629813A81215031093A832983232B00
:102AF00009F06BCF9ACD82E090E09A83898384EFCE
:102B000091E09C838B83312C212CA10163E070E048
:102B100080E090E00E94B2026B817C816C597F4F13
:102B2000072E000C880B990B0E943A272B013C01C1
:102B30002B813C81B901330F880B990B0E943A27F6
:102B40003AE0832E912C4AE0A42EB12CC12CD12C3A
:102B50001CE5E12E1FE8F12E02E81FE3A30192011C
:102B60000E945D068B819C818B599F4F9C838B8338
:102B70009FEF291A390A2AE02216310431F686EE2F
:102B800095E09C838B83312C212CA10163E070E0C4
:102B900080E090E00E94B2026B817C816C597F4F93
:102BA000072E000C880B990B0E943A272B013C0141
:102BB0002B813C81B901330F880B990B0E943A2776
:102BC000AAE08A2E912CBAE0AB2EB12CC12CD12CCC
:102BD0001CE5E12E1FE8F12E02E81FE3A30192019C
:102BE0000E945D068B819C818B599F4F9C838B83B8
:102BF0009FEF291A390A2AE02216310431F688EDAE
:102C000099E09C838B83312C212CA10163E070E03F
:102C100080E090E00E94B2026B817C816456710971
:102C2000072E000C880B990B0E943A272B013C01C0
:102C30002B813C81B901330F880B990B0E943A27F5
:102C40005AE0852E912CEAE0AE2EB12CC12CD12C6D
:102C50001CE5E12E1FE8F12E02E81FE3A30192011B
:102C60000E945D068B819C81855691099C838B8394
:102C70009FEF291A390A2B813C81263E354029F6DF
:102C8000312C212CA10163E070E080E090E00E94F3
:102C9000B2026B817C8164567109072E000C880B8F
:102CA000990B0E943A272B013C012B813C81B901F1
:102CB000330F880B990B0E943A272AE0822E912C21
:102CC0003AE0A32EB12CC12CD12C1CE5E12E1FE83B
:102CD000F12E02E81FE3A30192010E945D068B81A1
:102CE0009C81855691099C838B839FEF291A390A11
:102CF0002AE02216310431F689819A81019739F44C
:102D00000E94A80264E670E080E090E079CD21E0C6
:102D100030E03A832983F3CE6FE070E080E090E00A
:102D20000E94720220E436E03A83298329813A81A5
:102D3000B901330F880B990B0E943A2701E010E08C
:102D40002FE030E040E050E00E94DA0389819A8170
:102D500044969A838983803F9A4041F76EE070E001
:102D600080E090E00E94720229813A81B901330F1C
:102D7000880B990B0E943A2701E010E02FE030E029
:102D800040E050E00E94DA0389819A8144969A8358
:102D90008983803A9F4041F76BE070E080E090E0EB
:102DA0000E9472028CE090E00E9465076CE070E087
:102DB00080E090E00E9472020E947F0D0E94A802B3
:102DC000C1CB67E170E080E090E00E94720201E018
:102DD00010E028EC30E040E050E060E070E081E698
:102DE00094E40E94DA0368E170E080E090E00E94E1
:102DF000720228EC30E040E050E060E070E086E1F4
:102E000094E40E94DA0364E170E080E090E00E94C4
:102E1000720228EC30E040E050E060E070E086E9CB
:102E200093E40E94DA036AE170E080E090E00E949F
:102E300072028DEF93E00E94E80A86E294E00E941D
:102E4000E80A28E938E040E050E060E070E086E120
:102E500093E40E94DA0368E572E080E090E00E946B
:102E6000A7030E94A8026BE070E080E090E00E945F
:102E700072020E947F0D11CB0E941B0E0E947F0DDB
:102E80000E9454110097F1F00E94052501978331AB
:102E9000910530F5FC01E15BF84E0C946D2872173A
:102EA00077177A177D1780178317861789178C175E
:102EB0008F179217951798179B179E17A117A4178E
:102EC000A717AA176AE170E080E090E00E94720202
:102ED00060ED77E080E090E00E94A7030E94A802E6
:102EE0000C94050E90E080E00E946507F9CF81E028
:102EF00090E0FACF86E090E0F7CF87E090E0F4CF63
:102F000088E090E0F1CF89E090E0EECF8AE090E0B9
:102F1000EBCF8BE090E0E8CF8CE090E0E5CF8DE068
:102F200090E0E2CF8EE090E0DFCF8FE090E0DCCF6A
:102F300080E190E0D9CF81E190E0D6CF82E190E0CE
:102F4000D3CF83E090E0D0CF84E090E0CDCF85E098
:102F500090E0CACF82E090E0C7CFAF92BF92CF920D
:102F6000DF92EF92FF921F93CF93DF93CDB7DEB73F
:102F700028970FB6F894DEBF0FBECDBF0E941B0E80
:102F80008EE190E09093E3028093E2020E9454115C
:102F900011E0009721F00E9405255C0110E00E94DD
:102FA0005411009791F10E9405256C010E94541163
:102FB000009769F10E9405257C010E945411009739
:102FC00021F00E940525112321F16AE170E080E0E3
:102FD00090E00E94720260ED77E080E090E00E9455
:102FE000A7030E94A8020E94050E28960FB6F89427
:102FF000DEBF0FBECDBFDF91CF911F91FF90EF904D
:10300000DF90CF90BF90AF90089511E0CFCF11E047
:10301000D4CFBA82A982DC82CB82FE82ED829887ED
:103020008F83BE016F5F7F4F88EC90E00E949E0C03
:10303000DACFCF92DF92EF92FF920F931F93CF934D
:10304000DF93CDB7DEB72B970FB6F894DEBF0FBE78
:10305000CDBF0E947F0D1A821982FE01339689E04E
:10306000DF011D928A95E9F732977F0105E010E0B4
:103070006F01C8010E945E25D7018D937D010F5F0E
:103080001F4F00311105A9F78EE690E00E94A301C1
:103090008BE690E00E94A301C6010E94EA0D88E63B
:1030A00090E00E94F70D83E393E00E94BE012B960F
:1030B0000FB6F894DEBF0FBECDBFDF91CF911F9149
:1030C0000F91FF90EF90DF90CF900895FF920F93B4
:1030D0001F93CF93DF938C01EB01F8800E945E2554
:1030E000F81621F06F2DC8010E946625CE01DF91F0
:1030F000CF911F910F91FF900895DF92EF92FF9271
:103100000F931F93CF93DF93CDB7DEB72B970FB6F7
:10311000F894DEBF0FBECDBF0E941B0E0E947F0D34
:103120001A821982FE01339689E0DF011D928A9589
:10313000E9F70E945411009791F1FC01CE0101962C
:103140007C019F01245F3F4FDC018191882329F09E
:10315000E217F30711F08D93F8CF05E010E0D701E7
:10316000DD907D01C8010E945E25D81621F06D2DED
:10317000C8010E9466250F5F1F4F0031110579F7C6
:103180002B960FB6F894DEBF0FBECDBFDF91CF9167
:103190001F910F91FF90EF90DF900C94050E6AE164
:1031A00070E080E090E00E94720260ED77E080E0E5
:1031B00090E00E94A7030E94A802E2CFFF920F9323
:1031C0001F93CF93DF930E941B0E0E947F0D0E94DE
:1031D0005411C1E0009729F00E940525D82FF92E3F
:1031E000C0E00E945411009719F10E9405258C013E
:1031F0000E945411892B09F4C1E00E945411892BBB
:1032000011F0CC23B9F06AE170E080E090E00E9418
:10321000720260ED77E080E090E00E94A7030E94D8
:10322000A802DF91CF911F910F91FF900C94050E92
:10323000C1E0DECFD0930C04F0920D04109336045D
:10324000009335046D2F90E080E00E946625609128
:10325000350481E090E00E94662560915E0482E082
:1032600090E00E9466256091870483E090E00E94D0
:103270006625D7CFCF92DF92EF92FF920F931F93E5
:103280000E947F0D60E080914F040E94070283E05E
:1032900090E00197F1F761E080914F040E940702EE
:1032A00083E290E00197F1F760E080914F040E9483
:1032B000070280915104909152049927FC01E35335
:1032C000FF4F6491FC01E551FF4FE491F0E0EE0FF8
:1032D000FF1FEB55FF4F8591949100E41CE920E01E
:1032E00030E0462F0E94DE1B6115710581059105B6
:1032F00029F06F5F7F4F8F4F9F4F9F702AE330E021
:1033000040E050E00E94A62569017A01C114D10471
:10331000E104F10431F487EEC82E83E0D82EE12CCD
:10332000F12C87E790E00E94A30184E790E00E94DF
:10333000A301C701B6010E943A270E940227CB01D0
:103340000E94910E81E790E00E94F70D83E393E0E5
:103350001F910F91FF90EF90DF90CF900C94BE01E2
:103360001F920F920FB60F9211242F933F934F93FA
:103370005F936F937F938F939F93AF93BF93EF93DD
:10338000FF938091270390912803A0912903B09186
:103390002A03892B8A2B8B2BD1F190912203E09168
:1033A0002303F09124038081892780838091270360
:1033B00090912803A0912903B0912A0318161906A9
:1033C0001A061B069CF48091270390912803A09174
:1033D0002903B0912A030197A109B109809327031A
:1033E00090932803A0932903B0932A03FF91EF91B0
:1033F000BF91AF919F918F917F916F915F914F910D
:103400003F912F910F900FBE0F901F9018958091B4
:103410005C01EFEFF0E0E4919FEF90935C01E1300D
:1034200051F030F0E23069F060E00E940702DECF38
:1034300010926E00F9CF90916F009D7F90936F0076
:10344000F3CF909170009D7F9093700091E09093E6
:10345000B0009091B100987F94609093B100109269
:10346000B300E2CF1F920F920FB60F9211242F9349
:103470003F934F935F936F937F938F939F93AF93FC
:10348000BF93EF93FF9383E393E00E943401FF9196
:10349000EF91BF91AF919F918F917F916F915F91CC
:1034A0004F913F912F910F900FBE0F901F90189545
:1034B0001F920F920FB60F9211242F938F939F9309
:1034C000EF93FF93E0914303F09144038081E091F7
:1034D0004903F0914A0382FD1BC0908180914C0307
:1034E0008F5F8F7320914D03821741F0E0914C0361
:1034F000F0E0ED5CFC4F958F80934C03FF91EF91D2
:103500009F918F912F910F900FBE0F901F90189544
:103510008081F4CF1F920F920FB60F9211242F9338
:103520003F938F939F93AF93BF938091DA029091D3
:10353000DB02A091DC02B091DD023091D90223E0E0
:10354000230F2D3758F50196A11DB11D2093D902E7
:103550008093DA029093DB02A093DC02B093DD0249
:103560008091DE029091DF02A091E002B091E10231
:103570000196A11DB11D8093DE029093DF02A093FE
:10358000E002B093E102BF91AF919F918F913F9183
:103590002F910F900FBE0F901F90189526E8230FC4
:1035A0000296A11DB11DD2CF1F920F920FB60F929E
:1035B00011242F933F934F935F936F937F938F9338
:1035C0009F93AF93BF93EF93FF93E0914E01F091E0
:1035D0004F010995FF91EF91BF91AF919F918F910D
:1035E0007F916F915F914F913F912F910F900FBEFF
:1035F0000F901F9018951F920F920FB60F921124E3
:103600002F933F934F935F936F937F938F939F93EA
:10361000AF93BF93EF93FF93E0914C01F0914D0175
:103620000995FF91EF91BF91AF919F918F917F91FC
:103630006F915F914F913F912F910F900FBE0F901F
:103640001F9018951F920F920FB60F9211242F936F
:103650003F934F935F936F937F938F939F93AF931A
:10366000BF93CF93DF93EF93FF938091D802C091E4
:10367000F403D0E087FF24C01092850010928400EC
:103680008091D8028F5F8093D8028091D802082E53
:10369000000C990B8C179D0724F48091D8028C3074
:1036A000C4F18091840090918500049680349C49F7
:1036B00008F47AC08091840090918500049676C0C9
:1036C0008091D802082E000C990B8C179D07C4F628
:1036D000E091D8028E2FEE0F990BFC01EE0FFF1F29
:1036E000E80FF91FE053FC4F808186FFC9CFE091BE
:1036F000D8028E2FEE0F990BFC01EE0FFF1FE80F83
:10370000F91FE053FC4F808160E08F730E94070235
:10371000B7CF2091840030918500E091D8028E2FA0
:10372000EE0F990BFC01EE0FFF1FE80FF91FE0539E
:10373000FC4F81819281820F931F90938900809327
:103740008800E091D8028E2FEE0F990BFC01EE0F4E
:10375000FF1FE80FF91FE053FC4F808186FF11C067
:10376000E091D8028E2FEE0F990BFC01EE0FFF1F98
:10377000E80FF91FE053FC4F808161E08F730E94D6
:103780000702FF91EF91DF91CF91BF91AF919F9190
:103790008F917F916F915F914F913F912F910F90FA
:1037A0000FBE0F901F90189580E49CE990938900BC
:1037B000809388008FEF8093D802E3CFCF92DF927F
:1037C000EF92FF920F931F93E82FF92F05C001503E
:1037D00011092109310961F1908196239417B9F3F8
:1037E00005C0015011092109310911F19081962379
:1037F0009413F7CFC12CD12CE12CF12C0AC08FEF00
:10380000C81AD80AE80AF80A0C151D052E053F0546
:1038100079F080818623841791F36C2D7D2D8E2D78
:103820009F2D1F910F91FF90EF90DF90CF90089503
:1038300060E070E080E090E01F910F91FF90EF90CA
:10384000DF90CF900895109236031092350388EEE2
:1038500093E0A0E0B0E08093370390933803A09307
:103860003903B0933A0381E992E090933403809353
:10387000330385EC90E09093400380933F0384EC06
:1038800090E0909342038093410380EC90E090930A
:1038900044038093430381EC90E09093460380932C
:1038A000450382EC90E0909348038093470386ECB5
:1038B00090E090934A038093490310924C03109236
:1038C0004D0310924E0310924F0380E290E09093CC
:1038D000B8048093B7048DE08093B9041092BF04BC
:1038E0001092BE04E2E9F4E085EB94E011928E17A9
:1038F0009F07E1F71092B6041092B5041092F503F9
:103900001092F6031092F7031092F8038BE0809365
:10391000F9038DE08093FA038CE08093FB0361E070
:103920008BE00E94200361E08091FA030E94200353
:1039300061E08091FB030E94200360E08091F90325
:103940000E94070260E08091FA030E94070260E093
:103950008091FB030E9407020E9435028091F403CC
:103960008C30A0F08FEF8093FD0310920D04109225
:103970000C048091F4038C30E0F08FEF80932604E8
:1039800010923604109235040C94510391E0980F74
:103990009093F4038093FD0390E0FC01EE0FFF1F72
:1039A000E80FF91FE053FC4F88EB9BE09283818383
:1039B000DCCF91E0980F9093F4038093260490E07D
:1039C000FC01EE0FFF1FE80FF91FE053FC4F88EBDF
:1039D0009BE092838183D4CFCF93DF93CDB7DEB7C3
:1039E000C65DD1090FB6F894DEBF0FBECDBF789487
:1039F00084B5826084BD84B5816084BD85B58260F4
:103A000085BD85B5816085BD80916E0081608093A4
:103A10006E0010928100809181008260809381000D
:103A2000809181008160809381008091800081601D
:103A3000809380008091B10084608093B100809178
:103A4000B00081608093B00080917A0084608093A0
:103A50007A0080917A00826080937A0080917A0067
:103A6000816080937A0080917A00806880937A00E8
:103A70001092C100E0914303F091440382E08083FF
:103A8000E0913F03F09140031082E0914103F091F7
:103A9000420380E1808310924B03E0914703F09151
:103AA000480386E08083E0914503F09146038081DE
:103AB00080618083E0914503F091460380818860B6
:103AC0008083E0914503F091460380818068808384
:103AD000E0914503F091460380818F7D808360E013
:103AE00086E00E94200360E087E00E94200384E0DB
:103AF00090E0909369048093680485E090E090934F
:103B00006B0480936A040E94D10B109290048AE5A2
:103B100090E0909371048093700490937304809369
:103B2000720483E090E0909354048093530460E027
:103B30000E94200381E190E0909356048093550405
:103B400060E00E9420030E94510382E190E0909384
:103B500059048093580460E00E94200301E010E0C3
:103B600010935B0400935A0410935D0400935C046B
:103B700010935F0400935E0483E190E090936104EE
:103B80008093600460E00E9420031093630400931C
:103B9000620410936504009364048FEF9FEF909389
:103BA00067048093660488E090E0909350048093CB
:103BB0004F0489E090E0909352048093510461E0B7
:103BC00088E00E94200360E0809151040E9420035D
:103BD0008AE090E0909375048093740484E190E00F
:103BE000909377048093760461E08AE00E9420033A
:103BF00060E084E10E94200384E10E946D03BC0127
:103C0000990F880B990B611571058105910511F0CC
:103C10000E94112461E37EE08EEA92E00E94261168
:103C20006CE571E180EB92E00E94261160E971E1A0
:103C300082EB92E00E94261166ED71E184EB92E046
:103C40000E94261169E072E186EB92E00E94261143
:103C50006CE377E188EB92E00E9426116EED78E14B
:103C60008AEB92E00E9426116DEA77E18CEB92E0FC
:103C70000E9426116DE778E18EEB92E00E942611FA
:103C800069E178E180EC92E00E9426116AE379E133
:103C900082EC92E00E94261161EC7EE084EC92E0DE
:103CA0000E94261162E470E186EC92E00E942611E7
:103CB0006BE77EE088EC92E00E94261181E39EE0B3
:103CC0009093C7068093C6060E947F0D85E090E022
:103CD0000E945E258432D9F466E772E085E090E0C8
:103CE0000E9466181982BE016F5F7F4F86E090E0E8
:103CF0000E9466186DE170E080E090E00E94720220
:103D000068EE73E080E090E00E94A703F9CF0E9484
:103D1000191862E370E080E090E00E94A7030E941F
:103D20007B0E62E370E080E090E00E94A7030E94B7
:103D300042100E94ED0620E030E044E352E40E948D
:103D40008B2687FF41C08091110381113DC06CE13A
:103D500070E080E090E00E94720223E0822E912CBD
:103D600038E0A32EB12CC12CD12C18EBE12E1EE192
:103D7000F12E05E81FE320E030E04AEF54E460E074
:103D800070E08CE594E40E945D066EE170E080E0F6
:103D900090E00E94A7031CE5E12E1FE8F12E02E847
:103DA0001FE320E030E04CE554E460E070E08AEF8F
:103DB00094E40E945D060E94A80264EF71E080E036
:103DC00090E00E94A703BFCF10E000E080911103B4
:103DD000811111C0A80160E070E0CB010E94B20225
:103DE00066E970E080E090E00E94A7030F5F1F4F3C
:103DF0000830110559F710E000E08091110381119E
:103E000011C0A80160E070E0CB010E94B20266E937
:103E100070E080E090E00E94A7030F5F1F4F083022
:103E2000110559F78091110381110CC06AE070E00F
:103E300080E090E00E94720268EC70E080E090E028
:103E40000E94A70385E090E00E945E258332F1F492
:103E50008091110381110EC090E080E00E94430D1B
:103E600090E080E00E94610D68EC70E080E090E0FE
:103E70000E94A70380911103811108C06FE070E0D8
:103E800080E090E00E9472020E947F0D80911103F9
:103E9000811106C06BE070E080E090E00E94720249
:103EA0000E948E0A60930B0370930C0380930D03A2
:103EB00090930E038091610290916202A09163023F
:103EC000B0916402C153DF4F88839983AA83BB8377
:103ED000CF5CD040DE0111963D018091650290914A
:103EE0006602A0916702B0916802CD52DF4F8883CD
:103EF0009983AA83BB83C35DD0401E0199EC290E30
:103F0000311C86E0D1011D928A95E9F783E393E0A5
:103F10000E9414011816190674F480914A019091B8
:103F20004B01039741F081E090E090934B01809327
:103F30004A011092110380911103882309F44FC0A4
:103F40000E947F0D64E670E080E090E00E94A7038D
:103F500068EC70E080E090E00E94A703809110037D
:103F6000882321F080910F03882359F0809110035A
:103F700081110DC080910F03882349F082E090E009
:103F800002C081E090E090934B0180934A016091E0
:103F90004A0170914B01072E000C880B990B0E946F
:103FA000720208EC10E06AE070E080E090E00E94AD
:103FB000A70301501109B9F71092110310921003D1
:103FC00010920F0380E090E0892B09F49ACF0E94B1
:103FD0002001882309F495CF0E9400008ECF8091A4
:103FE0004A0190914B018130910509F477C154F455
:103FF000892B09F494C081E090E090934B01809369
:104000004A01E0CF8230910509F4F3C2039799F792
:1040100011E095E2992E83E393E00E9414011816B3
:1040200019060CF026C3112309F423C383E393E09C
:104030000E94F200809391049091B904891347C0C3
:104040001092B6041092B5044CEB54E067EB74E0A8
:1040500082E994E00E942C256C019093BB0480932C
:10406000BA04892B09F405C3A090BE04B090BF0424
:1040700081E9E82E84E0F82E10E000E00A151B0527
:104080000CF0EAC2B701615D7F4F43E250E0C60128
:104090000E947C28F5E2EF0EF11C892B09F0D9C2B1
:1040A000909EF001919EF00D1124ED51FB4F019077
:1040B000F081E02D0995E2E9F4E0119224E0E53B7E
:1040C000F207D9F71092B6041092B50410E00091EF
:1040D0009104802F002E000C990B0E947528892BCB
:1040E00009F499CF8091B5049091B6049C012F5F9B
:1040F0003F4F3093B6042093B5048F569B4FDC019D
:1041000011960C93F901EF56FB4F118223323105C2
:104110000CF481CF1092B6041092B5047CCF0E94AB
:104120008E0A00910B0310910C0320910D03309126
:104130000E03601B710B820B930B60387843814038
:10414000910508F43FCF1D821E821F8218868AE5E2
:1041500090E09A8389839C838B83809111038111E2
:1041600005C0B3018CEB92E00E949E0C94E0492EB6
:10417000512C8091110381118CC050E040E061E02E
:1041800070E080E090E00E94B2021AE0812E912C53
:104190000AE0A02EB12CC12CD12C18EBE12E1EE18F
:1041A000F12E05E81FE320E030E048E453E460E04E
:1041B00070E088EC92E40E945D0680911103811109
:1041C00068C041E050E061E070E080E090E00E9473
:1041D000B20220E030E046E953E460E070E088E4B9
:1041E00093E40E945D0680911103811152C042E068
:1041F00050E061E070E080E090E00E94B20220E0D8
:1042000030E04AEF53E460E070E086E993E40E9416
:104210005D0664EF71E080E090E00E94A70380916A
:104220001103811136C041E050E061E070E080E0B0
:1042300090E00E94B20288248394912C20E030E028
:104240004AE753E460E070E088EC93E40E945D0686
:104250008091110381111DC050E040E061E070E0E9
:1042600080E090E00E94B20220E030E048EC52E4AE
:1042700060E070E08AE793E40E945D0664EF71E01D
:1042800080E090E00E94A703E1E04E1A510809F097
:1042900070CF8091110381110AC063E170E080E06A
:1042A00090E00E94720289E090E00E9465070E94FF
:1042B0007F0D80911103811106C06BE070E080E0FA
:1042C00090E00E9472020E948E0A60930B0370932A
:1042D0000C0380930D0390930E0374CE0E94690A21
:1042E0008A38924024F110910A030E948E0AC090ED
:1042F0004601D0904701E0904801F09049016C19C7
:104300007D098E099F09693E73408105910578F00A
:10431000112309F457C010920A030E948E0A609379
:104320004601709347018093480190934901809121
:104330000A03882309F458C1009108031091090366
:104340000115110509F485C0F801EE0FFF1FE851B2
:10435000FD4F80819181049709F07BC088EB9BE041
:104360000E94610D7AEEA72E72E0B72EF12CE12C9F
:10437000E016F1060CF05FC0D5018D909D905D01B7
:1043800067E7C62E62E0D62ED601ED91FD916D0154
:10439000808191818816990661F4828193818230AF
:1043A000910509F43FC094F4009709F43FC00197C8
:1043B00011F1A1E8B2E0AC15BD0531F7BFEFEB1A82
:1043C000FB0AD6CF81E080930A03A7CF8330910503
:1043D000B9F0049771F7CD52DF4F88819981AA8196
:1043E000BB81C35DD04089839A83AB83BC83B30117
:1043F00082E593E014C084EC99E00E94610DD9CF6E
:10440000C153DF4F88819981AA81BB81CF5CD040A5
:1044100089839A83AB83BC83B30182EF93E00E94CC
:104420009E0CC7CF84EC99E00E94430D84E690E097
:104430000E94250DBECF1092090310920803EAEEE8
:10444000F2E08EE1DF011D928A95E9F710920A03EE
:10445000B9CDC1010E94DD0E892B09F44EC041E89F
:10446000842E42E0942E5DE8A52E52E0B52EF40194
:10447000A191B1914F019D012E5F3F4FA1016D01AF
:10448000F8E0CF0ED11CF901819191919F01FA01C1
:1044900061917191AF017C01FFE0EF1AF1086E1597
:1044A0007F050CF41EC10F96861797070CF419C1EF
:1044B000C216D30641F78D919C9197FD1EC08330A3
:1044C000910521F41092E90283E090E02091E90245
:1044D000211113C08330910581F021E02093E9027E
:1044E000F801EE0FFF1FE651FD4F918380830F5FB0
:1044F0001F4F109309030093080383E594E00E9483
:10450000C10A182F8093E80285E594E00E94C10A51
:10451000111125C0811115C08AE090E00E94610D43
:104520001092E7021092E60281E090E09093E5029B
:104530008093E4026AE070E080E090E00E94720202
:1045400041CD813009F03ECD8AE090E00E94CC0D53
:104550001092E7021092E60283E090E0E7CF11307C
:1045600009F030CD81110BC08AE090E00E94AE0DC1
:104570001092E7021092E60284E090E0D7CF8130FB
:1045800009F020CD0091E6021091E702093E23E0F8
:104590001207CCF48091E4029091E50284309105F9
:1045A00059F48AE090E00E94AE0D0F5F1F4F109308
:1045B000E7020093E602BECF039729F48AE090E079
:1045C0000E94CC0DF2CF8AE090E00E94250D10925F
:1045D000E7021092E6021092E5021092E40266E110
:1045E00070E080E090E0AACF8AE090E00E94250D84
:1045F000F6CFC1010E94DD0E892B09F4E3CC7101D5
:1046000010E000E02AECC22E22E0D22ED7018C91DD
:1046100011969C91B2E0EB0EF11C9F938F931F9328
:104620000F93DF92CF927F926F920E949928C301DD
:104630000E94EA0D8FE992E00E94EA0D0F5F1F4F82
:104640000FB6F894DEBF0FBECDBF03301105F1F6F3
:10465000B9CC0F5F1F4F12CDE091C606F091C7068F
:104660000995E2E9F4E0119284E0E53BF807D9F717
:1046700029CD809190048111A5CC8091E202909186
:10468000E30282309105F9F064F40097B9F00197E4
:1046900009F098CC80914401909145010E94CC0D85
:1046A0000FC083309105B1F0049709F08BCC809155
:1046B0004401909145010E94430D02C00E947F0D6C
:1046C0000E94050E7FCC80914401909145010E948B
:1046D000AE0DF6CF80914401909145010E94610D8D
:1046E000EFCFA814B90409F0C2CEECCE8F929F92FE
:1046F000AF92BF92CF92DF92EF92FF92CF93DF9370
:10470000EC01688179818A819B8161157105810540
:10471000910521F464E279ED8BE597E02DE133EF2B
:1047200041E050E00E94A62549015A019B01AC01DD
:10473000A7EAB1E40E94C5256B017C01ACEEB4EFA1
:10474000A50194010E94D325C60ED71EE81EF91EAE
:10475000F7FE06C081E0C81AD108E10880E8F80A2F
:10476000C882D982EA82FB82C701B6019F77DF91B6
:10477000CF91FF90EF90DF90CF90BF90AF909F9040
:104780008F9008958F929F92AF92BF92CF92DF92B7
:10479000EF92FF9260915D0170915E0180915F01E7
:1047A00090916001611571058105910521F464E224
:1047B00079ED8BE597E02DE133EF41E050E00E9489
:1047C000A62549015A019B01AC01A7EAB1E40E9468
:1047D000C5256B017C01ACEEB4EFA50194010E94EC
:1047E000D325C60ED71EE81EF91EF7FE06C081E0CF
:1047F000C81AD108E10880E8F80AC0925D01D09299
:104800005E01E0925F01F0926001C701B6019F77FF
:10481000FF90EF90DF90CF90BF90AF909F908F90E0
:10482000089560935D0170935E0180935F019093A2
:1048300060010895B0E0A0E0E0E2F4E20C94D92534
:104840005C016B017A016115710519F0FB0191831F
:104850008083E114F10449F0C7010297839728F09F
:1048600060E070E0CB019CC05E01E5012196F5019E
:104870001081812F90E00E942325892BA9F71D32FA
:1048800009F056C02196F501118101E0E114F1040F
:1048900009F4AEC0F0E1EF16F10409F08EC0103358
:1048A00041F488818F7D883509F083C01981229673
:1048B0000260E0E1EE2EF12C88248A94982CA82C3A
:1048C000FFE0BF2E20E060E070E0CB0127010F2C5D
:1048D000000C66087708FE0150ED352E310E39E0E8
:1048E000331538F43FEB310F3A31A0F549EC342E53
:1048F000310E3E141F04BCF52F3FB9F08616970603
:10490000A806B90670F1A30192010E947425232D17
:1049100030E050E040E0620F731F841F951F621764
:10492000730784079507E8F021E021961081D3CF23
:104930001B3221F4E5012296F501118100E0A6CF9A
:1049400078E0E72EF12C88248A94982CA82C6FE12B
:10495000B62EB8CF3FE9310F3A3128F439EA332E79
:10496000C7CF2FEFE2CFC114D10431F02223E9F0F9
:104970002197F601D183C08300FF07C090958095F1
:10498000709561957F4F8F4F9F4F2F3F49F482E283
:1049900090E09093CB068093CA066FEF7FEFCB0138
:1049A000CDB7DEB7E1E10C94F52501FFE5CF229705
:1049B000E0CF10E3E114F10419F23AE0E316F10458
:1049C000E9F080E1E816F10409F473CFE8E0EE16AF
:1049D000F10409F4B8CF6FEF7FEFCB0197010F2CF3
:1049E000000C440B550B0E94842549015A016ACFE3
:1049F000103309F456CF9AE0E92EF12C89E9882E7C
:104A0000982CA82C89E1B82E5DCFFC018827992726
:104A1000E89421912032E9F3293010F02E30C8F3C8
:104A20002B3241F02D3239F4689404C00E94532592
:104A3000820F911D219120532A30C0F31EF49095CE
:104A400081959F4F089591110C945B25803219F048
:104A500089508550C8F70895FA01A191B081009757
:104A600019F41097E1F0CD01DC01CD010D9000208B
:104A700011F4C00113C0FB012191222319F020156C
:104A8000D9F7F3CFFB012191201519F41E9211964D
:104A900006C02223C1F70D900020A1F7D001FA0132
:104AA000A193B08308957AE0979F902D879F802DE2
:104AB000910D11240895992788270895F999FECF1B
:104AC00092BD81BDF89A992780B50895262FF9994E
:104AD000FECF1FBA92BD81BD20BD0FB6F894FA9AE1
:104AE000F99A0FBE01960895DB018F939F930E9460
:104AF000C525BF91AF91A29F800D911DA39F900DE1
:104B0000B29F900D11240895A1E21A2EAA1BBB1B7F
:104B1000FD010DC0AA1FBB1FEE1FFF1FA217B30789
:104B2000E407F50720F0A21BB30BE40BF50B661F9F
:104B3000771F881F991F1A9469F760957095809563
:104B400090959B01AC01BD01CF010895052E97FB07
:104B50001EF400940E94BD2557FD07D00E948425B5
:104B600007FC03D04EF40C94BD255095409530952C
:104B700021953F4F4F4F5F4F0895909580957095C9
:104B800061957F4F8F4F9F4F08950E940F26A59FDD
:104B9000900DB49F900DA49F800D911D1124089538
:104BA000B7FF0C94C5250E94C525821B930B089561
:104BB0002F923F924F925F926F927F928F929F922D
:104BC000AF92BF92CF92DF92EF92FF920F931F931B
:104BD000CF93DF93CDB7DEB7CA1BDB0B0FB6F894CC
:104BE000DEBF0FBECDBF09942A88398848885F840C
:104BF0006E847D848C849B84AA84B984C884DF807D
:104C0000EE80FD800C811B81AA81B981CE0FD11D60
:104C10000FB6F894DEBF0FBECDBFED010895A29F81
:104C2000B001B39FC001A39F700D811D1124911D80
:104C3000B29F700D811D1124911D08955058BB27FE
:104C4000AA270E9436260C94B0270E94A22738F08B
:104C50000E94A92720F039F49F3F19F426F40C9400
:104C60009F270EF4E095E7FB0C949927E92F0E940B
:104C7000C12758F3BA17620773078407950720F016
:104C800079F4A6F50C94E3270EF4E0950B2EBA2FD9
:104C9000A02D0B01B90190010C01CA01A001112442
:104CA000FF27591B99F0593F50F4503E68F11A16EE
:104CB000F040A22F232F342F4427585FF3CF46957F
:104CC00037952795A795F0405395C9F77EF41F16A1
:104CD000BA0B620B730B840BBAF09150A1F0FF0F6B
:104CE000BB1F661F771F881FC2F70EC0BA0F621F57
:104CF000731F841F48F4879577956795B795F79547
:104D00009E3F08F0B0CF9395880F08F09927EE0FDB
:104D10009795879508950E94752708F481E0089576
:104D20000E94A4260C94B0270E94A92758F00E9444
:104D3000A22740F029F45F3F29F00C9499275111E4
:104D40000C94E4270C949F270E94C12768F39923B1
:104D5000B1F3552391F3951B550BBB27AA27621777
:104D60007307840738F09F5F5F4F220F331F441F84
:104D7000AA1FA9F335D00E2E3AF0E0E832D09150B8
:104D80005040E695001CCAF72BD0FE2F29D0660FA5
:104D9000771F881FBB1F261737074807AB07B0E8E8
:104DA00009F0BB0B802DBF01FF2793585F4F3AF0EE
:104DB0009E3F510578F00C9499270C94E4275F3FAF
:104DC000E4F3983ED4F3869577956795B795F79574
:104DD0009F5FC9F7880F911D9695879597F908955C
:104DE000E1E0660F771F881FBB1F621773078407F8
:104DF000BA0720F0621B730B840BBA0BEE1F88F707
:104E0000E09508950E9409276894B1110C94E42755
:104E100008950E94C92788F09F5798F0B92F9927C5
:104E2000B751B0F0E1F0660F771F881F991F1AF095
:104E3000BA95C9F714C0B13091F00E94E327B1E0F0
:104E400008950C94E327672F782F8827B85F39F0EF
:104E5000B93FCCF3869577956795B395D9F73EF42E
:104E600090958095709561957F4F8F4F9F4F0895D6
:104E7000E89409C097FB3EF49095809570956195F4
:104E80007F4F8F4F9F4F9923A9F0F92F96E9BB27AA
:104E90009395F695879577956795B795F111F8CF26
:104EA000FAF4BB0F11F460FF1BC06F5F7F4F8F4F91
:104EB0009F4F16C0882311F096E911C0772321F087
:104EC0009EE8872F762F05C0662371F096E8862F1F
:104ED00070E060E02AF09A95660F771F881FDAF776
:104EE000880F9695879597F90895990F0008550FA3
:104EF000AA0BE0E8FEEF16161706E807F907C0F060
:104F000012161306E407F50798F0621B730B840B67
:104F1000950B39F40A2661F0232B242B252B21F441
:104F200008950A2609F4A140A6958FEF811D811DE1
:104F3000089597F99F6780E870E060E008959FEF1B
:104F400080EC089500240A94161617061806090620
:104F5000089500240A9412161306140605060895EF
:104F6000092E0394000C11F4882352F0BB0F40F477
:104F7000BF2B11F460FF04C06F5F7F4F8F4F9F4FB7
:104F8000089557FD9058440F551F59F05F3F71F039
:104F90004795880F97FB991F61F09F3F79F08795A0
:104FA0000895121613061406551FF2CF4695F1DF29
:104FB00008C0161617061806991FF1CF86957105B9
:104FC000610508940895E894BB2766277727CB01ED
:104FD00097F908950E94752708F48FEF08950E94AD
:104FE00002280C94B0270E94A22738F00E94A9271B
:104FF00020F0952311F00C9499270C949F271124ED
:105000000C94E4270E94C12770F3959FC1F3950F7C
:1050100050E0551F629FF001729FBB27F00DB11D3C
:10502000639FAA27F00DB11DAA1F649F6627B00DCC
:10503000A11D661F829F2227B00DA11D621F739FB5
:10504000B00DA11D621F839FA00D611D221F749FC3
:105050003327A00D611D231F849F600D211D822F0A
:10506000762F6A2F11249F5750409AF0F1F0882331
:105070004AF0EE0FFF1FBB1F661F771F881F91505E
:105080005040A9F79E3F510580F00C9499270C944D
:10509000E4275F3FE4F3983ED4F3869577956795D0
:1050A000B795F795E7959F5FC1F7FE2B880F911D88
:1050B0009695879597F908950E947527880B990B07
:1050C0000895991B79E004C0991F961708F0961B64
:1050D000881F7A95C9F780950895EE0FFF1F0590F8
:1050E000F491E02D0994803209F091110C945B2524
:1050F00080528F55D8F70895FB01DC014150504094
:1051000030F08D910190801919F40020B9F7881BB7
:10511000990B0895FB01DC014150504048F001908B
:105120000D920020C9F701C01D9241505040E0F798
:105130000895AEE0B0E0EFE9F8E20C94E6250D89C1
:105140001E8986E08C831A8309838FEF9FE79E83F5
:105150008D83AE01475E5F4F6F89788DCE010196DA
:105160000E94BC282F813885020F131FF80110827E
:105170002E96E4E00C940226ABE0B0E0E2ECF8E21C
:105180000C94D8257C013B018A01FC011782168210
:10519000838181FFC8C1CE0101965C01F701938133
:1051A000F30193FD859193FF81913F01882309F4D9
:1051B00053C1853239F493FD859193FF81913F016D
:1051C000853229F4B70190E00E94AC2AE7CF912CF8
:1051D000212C312CFFE1F31538F08B3211F190F4D2
:1051E000803209F1833229F137FC3CC020ED280FD1
:1051F0002A3050F536FE20C08AE0989E200D1124FA
:10520000922E06C08D3291F0803371F7689430F899
:10521000F30193FD859193FF81913F018111DACFD5
:1052200021C0689431F8689432F8F2CF689433F86A
:10523000EFCF689434F8ECCFEAE02E9E200D1124D5
:10524000222E689435F8E4CF8E3229F436FC04C15E
:10525000689436F8DDCF8C3619F4689437F8D8CFD7
:105260008836B1F2982F9F7D95549330E0F08336C5
:10527000A1F18337C1F1833509F063C02801F2E061
:105280004F0E511CF801C080D180692D70E036FCB2
:1052900002C06FEF7FEFC6010E94962A4C0168940E
:1052A00037F882010AC00C5F1F4FFFE3F98388249F
:1052B0008394912C6501E89437F833FE2DC0522C6D
:1052C0008114910471F5552009F468CFB70180E28B
:1052D00090E00E94AC2A5A94F6CFF801808189832D
:1052E0000E5F1F4FE4CF2801F2E04F0E511CF80172
:1052F000C080D180692D70E036FC02C06FEF7FEF77
:10530000C6010E94A12A4C018201D5CFB70180E2DB
:1053100090E00E94AC2A2A942814190409F0B0F7EE
:10532000CECFF60137FC859137FE81916F01B70131
:1053300090E00E94AC2A51105A94F1E08F1A910823
:10534000BFCF843619F0893609F077C0F80137FEEF
:105350006BC060817181828193810C5F1F4FF32D3F
:10536000FF763F2E97FF09C09095809570956195C7
:105370007F4F8F4F9F4F689437F82AE030E0A501A8
:105380000E94DC2AC82ECA188C2C432C36FE0CC076
:10539000E89440F8C91440F434FE05C032FC03C060
:1053A000F32DFE7E4F2E892C44FE95C0FE01EC0DA0
:1053B000F11D8081803309F087C0242D297E422E83
:1053C000842D8870582E43FC95C040FE8FC09C2CC5
:1053D000821418F42C0C922C981844FE91C0B7013A
:1053E00080E390E00E94AC2A42FE09C088E790E08A
:1053F00041FE02C088E590E0B7010E94AC2AC914C2
:1054000008F48AC0CA94D12C9FEFC91AD90ACA0CD1
:10541000DB1CF60182916F01B70190E00E94AC2A7B
:10542000AC14BD04B1F74FCF60817181072E000C21
:10543000880B990B0E5F1F4F92CFD32CE894D4F8B2
:105440002AE030E0853739F1232D297FD22E8F369F
:1054500001F148F48835A9F0F701868197812B96F0
:10546000E2E10C94F425803749F08837A9F7D4FE9F
:1054700002C06894D2F820E130E00DC06894D4F8FE
:10548000F6CF34FE03C0822F8660D82E20E132E0B2
:1054900002C028E030E0F801D7FE0FC060817181C2
:1054A000828193810C5F1F4FA5010E94DC2AC82EC8
:1054B000CA183D2CE89437F867CF6081718190E07D
:1054C00080E00E5F1F4FF0CF42FC02C0839478CF84
:1054D0008394839475CF842D867809F471CFF6CFA9
:1054E000B70180E290E00E94AC2A83948214C0F35A
:1054F000512C73CF522C5818821408F46ECFF8CF69
:10550000842D867809F47BCF8BE241FE80E247FC54
:105510008DE2B70190E071CFB70180E390E00E9487
:10552000AC2A9A946CCF8FEF9FEF99CFFC01059036
:10553000615070400110D8F7809590958E0F9F1F95
:105540000895FC016150704001900110D8F78095DA
:1055500090958E0F9F1F08950F931F93CF93DF9306
:10556000182F092FEB018B8181FD09C01FEF0FEF71
:10557000812F902FDF91CF911F910F91089582FF7E
:1055800014C02E813F818C819D81281739073CF4FE
:10559000E881F981CF0101969983888310838E81F8
:1055A0009F8101969F838E83E3CFE885F985812FC4
:1055B0000995892BA1F3DACFFA01AA27283051F1F6
:1055C000203181F1E8946F936E7F6E5F7F4F8F4F34
:1055D0009F4FAF4FB1E03ED0B4E03CD0670F781F93
:1055E000891F9A1FA11D680F791F8A1F911DA11D78
:1055F0006A0F711D811D911DA11D20D009F46894B1
:105600003F912AE0269F11243019305D3193DEF658
:10561000CF010895462F4770405D4193B3E00FD00E
:10562000C9F7F6CF462F4F70405D4A3318F0495DF9
:1056300031FD4052419302D0A9F7EACFB4E0A695DC
:105640009795879577956795BA95C9F700976105FE
:10565000710508959B01AC010A2E06945795479554
:1056600037952795BA95C9F7620F731F841F951F49
:08567000A01D0895F894FFCF7E
:10567800040000000500020002000400000003000E
:10568800010001000500ED00B400B10004002B008A
:105698002200230004000F000F000F000100AD00DE
:1056A8004900490002004E0070006E0000004900E9
:1056B8005F005E00E803FFFFFFFF0100B500B500D3
:1056C800000080BF000080BF000080BFFF01000015
:1056D800008C24490C0E4130041E42480C8C44486E
:1056E8000C82E049129CC0411E8CC421041042085F
:1056F8001E8CC4480C8EE0480C002385000023FD56
:105708000000E0FD008C14B6128C144A0C00C30093
:10571800008091243F80D4B63F0020B53F00F003BD
:1057280000805821000281402040283100C02F31DC
:1057380000C0EC310000420901A1C44821044148DD
:105748000C10C2210480D4860040187A0000C300DF
:105758000080610000C03000008061000000C300CC
:105768000000860100000C030000860100300C00D8
:1057780000100A010018496200100A010021000007
:1057880021520884128C144A0C0023310000C000F6
:10579800000000000000104A0C00082506208410B4
:1057A8000330420801182904008C140200460281C3
:1057B800000381402081402030402090185A005A30
:1057C80000530064006400550066005500640053EF
:1057D8000055005500640064005A4F57495F424124
:1057E80053455F7632002310010C010801040100C3
:1057F800013C0134012C0124011C011401000000AA
:10580800005601B600E300BE011401F20006010DC6
:105818000A006E616E00696E66006F76660053005E
:105828004C0054004D0048004B0043004700520014
:10583800450044004E00420049005247425B25643F
:085848005D203D2025640000F5
:00000001FF
