:100000000C9481000C94E1190C94BA190C94A90079
:100010000C94A9000C94A9000C94A9000C949618B7
:100020000C94A9000C94A9000C94A9000C942F1A0C
:100030000C94A9000C94081A0C94A9000C94A90023
:100040000C9470190C94A9000C943E190C94181976
:100050000C94A9000C94A9000C94A9000C94A9007C
:100060000C94A9000C94A900252500452000262603
:100070000000000000230026002900252500442060
:10008000002626002525004E2000262600252500D6
:10009000422000262600252500492000262600258E
:1000A00025004100262600252500460026260000C2
:1000B000000000240027002A0000000008000201C0
:1000C000000003040700000000000000000102041B
:1000D00008102040800102040810200102040810CA
:1000E0002000000000250028002B00040404040464
:1000F00004040402020202020203030303030302D4
:10010000301B11241FBECFEFD8E0DEBFCDBF12E001
:10011000A0E0B1E0E8E4FFE402C005900D92A83B46
:10012000B107D9F726E0A8EBB2E001C01D92A43ECA
:10013000B207E1F710E0C1E8D0E004C02197FE016A
:100140000E947627C038D107C9F70E94DF1B0C94A4
:10015000A2270C94000083E090E09093E902809342
:10016000E80208958091EA029091EB020196909343
:10017000EB028093EA0208950895AF92BF92CF9266
:10018000DF92EF92FF920F931F93CF93DF936C0157
:100190007B018B01040F151FEB015E01AE18BF0838
:1001A000C017D10759F06991D601ED91FC910190EA
:1001B000F081E02DC6010995892B79F7C501DF9102
:1001C000CF911F910F91FF90EF90DF90CF90BF9054
:1001D000AF900895FC01538D448D252F30E0842F7E
:1001E00090E0821B930B541710F0CF96089501975F
:1001F0000895FC01918D828D981761F0A28DAE0F4C
:10020000BF2FB11D5D968C91928D9F5F9F73928FD2
:1002100090E008958FEF9FEF0895FC01918D828DFE
:10022000981731F0828DE80FF11D858D90E00895CB
:100230008FEF9FEF0895FC01918D228D892F90E023
:10024000805C9F4F821B91098F73992708958DEFD2
:1002500092E00E941B0121E0892B09F420E0822F0B
:10026000089580E090E0892B29F00E9427018111F8
:100270000C9400000895FC01A48DA80FB92FB11DA6
:10028000A35ABF4F2C91848D90E001968F739927CC
:10029000848FA689B7892C93A089B1898C918370AA
:1002A00080648C93938D848D981306C00288F389A3
:1002B000E02D80818F7D80830895EF92FF920F93D0
:1002C0001F93CF93DF93EC0181E0888F9B8D8C8D02
:1002D00098131AC0E889F989808185FF15C09FB7F6
:1002E000F894EE89FF896083E889F98980818370B9
:1002F000806480839FBF81E090E0DF91CF911F9168
:100300000F91FF90EF900895F62E0B8D10E00F5F88
:100310001F4F0F731127E02E8C8D8E110CC00FB65E
:1003200007FCFACFE889F989808185FFF5CFCE01F6
:100330000E943B01F1CFEB8DEC0FFD2FF11DE35A35
:10034000FF4FF0829FB7F8940B8FEA89FB89808179
:100350008062CFCF0F931F93CF93DF938C01D0E0B8
:10036000C0E0F801EC0FFD1F6491662341F08DEFB2
:1003700092E00E945D01892B11F02196F2CFCE010F
:10038000DF91CF911F910F910895CF93DF93EC01EF
:10039000888D8823B9F0AA89BB89E889F9898C916D
:1003A00085FD03C0808186FD0DC00FB607FCF7CF29
:1003B0008C9185FFF2CF808185FFEDCFCE010E9429
:1003C0003B01E9CFDF91CF91089590E0FC01E75424
:1003D000FF4F2491FC01E353FF4F3491FC01E551A1
:1003E000FF4FE491EE23C9F0222339F0233001F1CD
:1003F000A8F4213019F1223029F1F0E0EE0FFF1FAF
:10040000EF51FF4FA591B4918FB7F894EC91611122
:1004100026C030953E233C938FBF08952730A9F026
:100420002830C9F0243049F7809180008F7D03C0C7
:10043000809180008F7780938000DFCF84B58F77A5
:1004400084BDDBCF84B58F7DFBCF8091B0008F77EB
:100450008093B000D2CF8091B0008F7DF9CF3E2B3A
:10046000DACFCF93DF93D0E0C0E08091BF039091CB
:10047000C003A091C103B091C2030C2E04C0B69575
:10048000A795979587950A94D2F7682F6170809108
:10049000C3030E94E50100000000000061E08091BC
:1004A000C4030E94E50100000000000060E08091AC
:1004B000C4030E94E5012196CE31D105B1F661E079
:1004C0008091C5030E94E50100000000000060E08B
:1004D0008091C503DF91CF910C94E501CF93DF9319
:1004E000CDB7DEB7CC57D1090FB6F894DEBF0FBE3B
:1004F000CDBF2CE7EDE0F1E0DE01119601900D9209
:100500002A95E1F7660F771F660F771F81E090E06D
:100510008C0F9D1F680F791FFB0180819181A28143
:10052000B3818093BF039093C003A093C103B093A2
:10053000C203C458DF4F0FB6F894DEBF0FBECDBF65
:10054000DF91CF910C9431021092BF031092C0033F
:100550001092C1031092C2030C943102CF93DF9327
:10056000CDB7DEB7C057D1090FB6F894DEBF0FBEC6
:10057000CDBF20E2E9E8F1E0DE01999601900D920D
:100580002A95E1F720E1E9EAF1E0DE01AF59BF4F3A
:1005900001900D922A95E1F728E1E9EBF1E0DE0107
:1005A000A75BBF4F01900D922A95E1F728E2E1ED9C
:1005B000F1E0DE01119601900D922A95E1F7440FCA
:1005C000551F440F551F6230710581F1633071056D
:1005D00081F161307105F1F081E090E08C0F9D1F99
:1005E000480F591FFA0180A591A5A2A5B3A5809334
:1005F000BF039093C003A093C103B093C203C0593B
:10060000DF4F0FB6F894DEBF0FBECDBFDF91CF91A5
:100610000C94310281E690E08C0F9D1F480F591F0A
:10062000FA0180819181A281B381E1CF89E490E0D8
:10063000F3CF81E090E0F0CFCF93DF9390E0FC0127
:10064000E353FF4F249185519F4FFC0184918823F0
:10065000D1F090E0880F991FFC01E155FF4FA59163
:10066000B491FC01EF51FF4FC591D49161110EC0BF
:100670009FB7F8948C91E22FE0958E238C9328817C
:10068000E223E8839FBFDF91CF9108958FB7F8945D
:10069000EC91E22BEC938FBFF6CF1092EB0210920D
:1006A000EA021092E9021092E80261E080E10E9401
:1006B0001C0361E08FE00E941C0361E08EE00E9459
:1006C0001C0360E082E00E941C031092E70210927B
:1006D000E60261E080E10C94E5018E3008F08E5076
:1006E0008770806480937C0080917A00806480931E
:1006F0007A0080917A0086FDFCCF809178009091FD
:10070000790008953FB7F8948091BE029091BF029E
:10071000A091C002B091C10226B5A89B05C02F3F91
:1007200019F00196A11DB11D3FBFBA2FA92F982F17
:100730008827BC01CD01620F711D811D911D42E012
:10074000660F771F881F991F4A95D1F708958F92DA
:100750009F92AF92BF92CF92DF92EF92FF926B0186
:100760007C010E9482034B015C01C114D104E104AD
:10077000F104B9F00E948203681979098A099B097A
:10078000683E73408105910580F321E0C21AD108CB
:10079000E108F10888EE880E83E0981EA11CB11CC8
:1007A000E4CFFF90EF90DF90CF90BF90AF909F90FD
:1007B0008F9008954F925F926F927F928F929F9247
:1007C000AF92BF92CF92DF92EF92FF920F931F935F
:1007D000CF93DF93CDB7DEB729970FB6F894DEBF7E
:1007E0000FBECDBF29013A010115110511F401E039
:1007F00010E00E94122669837A838B839C83809108
:100800008C0490918D0420910801281719F12F3F35
:1008100009F49DC0C301B2010E94A703B801110FE2
:10082000880B990B29960FB6F894DEBF0FBECDBF8B
:10083000DF91CF911F910F91FF90EF90DF90CF90BC
:10084000BF90AF909F908F907F906F905F904F90F0
:100850000C94A703EFEFF0E02491298727FDDACF6E
:1008600061E00E941C038985882321F099859230DC
:1008700009F05FC189819A814C01B12CA12C60E003
:1008800072E18AE790E0A50194010E94AF242D83D4
:100890003E834F83588769017A0191E0C91AD108D4
:1008A000E108F1082FEFC216D104E104F10409F0C8
:1008B0000CF414C160E472E48FE090E0A5019401AF
:1008C0000E94AF2469017A0181E0C81AD108E108C9
:1008D000F1089985923009F0B5C082E02FEFC21679
:1008E000D104E104F10409F00CF4E0C160E970ED19
:1008F00083E090E0A50194010E94AF2469017A0190
:1009000081E0C81AD108E108F10883E09FEFC91619
:10091000D104E104F10409F00CF4C8C168E478EEF4
:1009200081E090E0A50194010E94AF2469017A0161
:1009300091E0C91AD108E108F1082FEFC216D104DD
:10094000E104F10411F00CF0A1C084E0AFC1809388
:100950000801EFEFF0E0249129872F3F09F45ACFE7
:10096000213041F150F0223009F446C0298527FD9D
:1009700051CF61E00E941C0379CF14BC15BC24B593
:10098000226024BD25B5216025BD9C013327F901D6
:10099000E551FF4FE491F0E0EE0FFF1FEF51FF4FE5
:1009A00045915491F901E353FF4FE491E093F00234
:1009B000198656CF109280001092810020918100FC
:1009C0002860209381002091810021602093810084
:1009D0009C013327F901E551FF4FE491F0E0EE0F60
:1009E000FF1FEF51FF4F45915491F901E353FF4F22
:1009F000E491E093EF0234CF1092B0001092B10076
:100A00002091B00022602093B0002091B1002160BD
:100A10002093B1009C013327F901E551FF4FE49188
:100A2000F0E0EE0FFF1FEF51FF4F459154915093AF
:100A3000EE024093ED02F901E353FF4FE491E0939E
:100A4000EC020ECF2FEFC216D104E104F10409F03D
:100A50000CF46DC068E478EE81E090E0A5019401AB
:100A60000E94AF2469017A0181E0C81AD108E10827
:100A7000F1089985992309F4E5C02FEFC216D10436
:100A8000E104F10411F00CF0E6C05FCF64E274EF12
:100A900080E090E0A50194010E94AF2469017A01F1
:100AA00081E0C81AD108E108F10885E09FEFC91676
:100AB000D104E104F10409F008F4F8C062E17AE736
:100AC00080E090E0A50194010E94AF2469017A01C1
:100AD00081E0C81AD108E108F108CFC081E029857A
:100AE0002111E4C095B5987F892B85BD2FEF3FEF8D
:100AF000A901411451046104710409F057C08985AA
:100B0000813009F462C0823009F471C0811182CE53
:100B1000C7BC2093F9023093FA024093FB02509332
:100B2000FC0280916E00826080936E0073CE82E042
:100B3000D6CF89819A814C01B12CA12C60E072E161
:100B40008AE790E0A50194010E94AF2469017A012F
:100B500091E0C91AD108E108F10891E0C114D1046B
:100B600021E0E206F10484F068E478EE81E090E0B0
:100B7000A50194010E94AF2469017A0181E0C81A9D
:100B8000D108E108F10893E02985213009F0AECFC2
:100B900080918100887F892B809381002FEF3FEF28
:100BA000A901411451046104710479F0A981BA8149
:100BB000AA0FBB1FA30192010E94CE2428EE33E0AE
:100BC00040E050E00E948D249ACFD0928900C092DC
:100BD00088002093F5023093F6024093F702509379
:100BE000F80280916F00826080936F0013CEC092F4
:100BF000B3002093F1023093F2024093F30250933A
:100C0000F4028091700082608093700003CECD80EA
:100C1000DE80EF80F8848AE0F594E794D794C79457
:100C20008A95D1F721E0C21AD108E108F10885E0E0
:100C300059CF8FEFC816D104E104F10409F038F759
:100C400084E050CF83E09FEFC916D104E104F104A2
:100C500009F00CF447CF62E17AE780E090E0A5016B
:100C600094010E94AF2469017A0181E0C81AD10879
:100C7000E108F10899859923E1F286E09FEFC91612
:100C8000D104E104F10491F088F0CD80DE80EF80A2
:100C9000F8849AE0F594E794D794C7949A95D1F79D
:100CA00081E0C81AD108E108F10887E09091B1000D
:100CB000987F892B8093B10019CF4F925F926F92EA
:100CC0007F928F929F92AF92BF92CF92DF92EF92DC
:100CD000FF920F931F93CF93DF93CDB7DEB7289783
:100CE0000FB6F894DEBF0FBECDBF2B013C012983A8
:100CF0003A834B835C83ED82FE820F8318870E94C8
:100D00000B268B0129813A814B815C81C301B201A1
:100D10000E94942587FF25C0B801110F880B990BFD
:100D20000E9443262B013C01AC019B0169817A8121
:100D30008B819C810E94F3261816C4F58401A601BC
:100D40009501C301B2010E94DA032D813E814F81DA
:100D50005885C301B2010E94F8260E940B268B0120
:100D6000DBCFB801110F880B990B0E9443262B0192
:100D70003C01AC019B0169817A818B819C810E943D
:100D8000942587FF13C08401A6019501C301B20118
:100D90000E94DA032D813E814F815885C301B20143
:100DA0000E9499250E940B268B01DBCF28960FB657
:100DB000F894DEBF0FBECDBFDF91CF911F910F9191
:100DC000FF90EF90DF90CF90BF90AF909F908F906B
:100DD0007F906F905F904F9008958F929F92AF9207
:100DE000BF92CF92DF92EF92FF921F93CF93DF9348
:100DF00085E10E946D03CAE0D0E0C12CD12C7601C0
:100E000015E085E10E946D03189FB001199F700DD8
:100E10001124072E000C880B990B0E94432620E01A
:100E200030E040E85AE30E94F8264B015C0126E6D8
:100E300036E646E850E40E94F32618163CF486E6AF
:100E4000882E982C86E8A82E80E4B82E2FEB36E862
:100E500042ED52E4C501B4010E94F8262CE73DE0C2
:100E60004BEA53E40E9427254B015C0120E030E06F
:100E7000A9010E94942587FF03C0812C912C540165
:100E8000A5019401C701B6010E9428256B017C01D0
:100E900061E070E080E090E00E94A703219709F0F4
:100EA000B0CF20E030E040E251E4C701B6010E943B
:100EB0009925DF91CF911F91FF90EF90DF90CF9018
:100EC000BF90AF909F908F9008958F929F92AF9216
:100ED000BF92CF92DF92EF92FF920F931F93CF9327
:100EE000DF93019782319105B8F4FC01E658F84F81
:100EF0000C947627BD07E007140827083E08610810
:100F00008D08BC08EB081A09440969099709C20948
:100F1000D9091A0A310A480A0EE110E022E330E04A
:100F200040E050E064EA70ED84E294E40E94DA0369
:100F300009E110E027E330E040E050E062E570EDC9
:100F400084EA94E40E94DA030AE010E02CE330E043
:100F500040E050E060E070E08CED94E40E94DA0341
:100F6000DF91CF911F910F91FF90EF90DF90CF9085
:100F7000BF90AF909F908F9008950EE110E022E314
:100F800030E040E050E064EA70ED84E294E40E94D6
:100F9000DA0309E110E027E330E040E050E060E0F0
:100FA00070E08CED94E40E94DA030AE010E022E3A2
:100FB00030E040E050E062E570ED84EA94E4CECFAA
:100FC00092E0892E912C24E1A22EB12CC12CD12C9F
:100FD0001AE0E12E17EDF12E03E81FE32CE53FEFB9
:100FE00043EC54E462E570ED84EA94E40E945D060B
:100FF0006EE170E080E090E00E94A7034AE0A42E3A
:10100000B12CC12CD12C18EBE12E1EE1F12E05E8FC
:101010001FE32FE135ED42E155E462E570ED84EA2E
:1010200094E40E945D069CCFCAE08C2E912CDEE1F8
:10103000AD2EB12CC12CD12C1CE5E12E1FE8F12ED8
:1010400002E81FE320E030E04CED54E4E6CFFAE0A4
:101050008F2E912CAEE1AA2EB12CC12CD12C1AE0EE
:10106000E12E17EDF12E03E81FE32FE135ED42E10C
:1010700055E46CE57FEF83EC94E4D3CF04E610E015
:1010800022E330E040E050E062E570ED84EA94E471
:101090000E94DA0300E510E022E330E040E050E097
:1010A0006CE57FEF83EC94E40E94DA0310E000E04B
:1010B0002CE231E040E050E06FE175ED82E195E433
:1010C0004DCF88248394912C5AE0A52EB12CC12CAD
:1010D000D12C1CE5E12E1FE8F12E02E81FE320E0F1
:1010E00030E646E055E460E070E088E494E40E9475
:1010F0005D0677E0A72EB12CC12CD12C1AE0E12E91
:1011000017EDF12E03E81FE320E030E048E454E45B
:1011100060E070E586E095E484CF93E0892E912C21
:1011200028E0A22EB12CC12CD12C18EBE12E1EE10F
:10113000F12E05E81FE320E030E04AEF54E460E0E0
:1011400070E08CE594E40E945D0668EC70E080E05D
:1011500090E00E94A703C6E1D0E00AE010E025E09D
:1011600030E040E050E068E471EF86E794E40E94EC
:10117000DA03219791F7F4CEC3E08C2E912CD8E0BE
:10118000AD2EB12CC12CD12C1AE0E12E17EDF12E91
:1011900003E81FE320E030E84BE355E460E070E053
:1011A0008BEE94E40E945D0668EC70E080E090E0D5
:1011B0000E94A703C0E1D0E00AE010E02AE030E09E
:1011C00040E050E060E070ED82E894E40E94DA03D1
:1011D000219791F7C5CE64E0862E912C70E1A72E61
:1011E000B12CC12CD12C1AE0E12E17EDF12E03E821
:1011F0001FE320E030E041E654E460E070E08FE27D
:1012000094E40E945D06F7E08F2E912CA2E1AA2EB5
:10121000B12CC12CD12C1EEAE12E17E4F12E01E8ED
:101220001FE320E030E842E254E460E070EC80E646
:1012300094E4F7CE2AE0822E912C3AE0A32EB12C32
:10124000C12CD12C18EBE12E1EE1F12E05E81FE395
:1012500020E030E04AEF53E460E070E088EC92E494
:101260000E945D0664EF71E080E090E00E94A703B9
:1012700088248394912C20E030E048EC52E460E034
:1012800070E088EC93E4CDCED8E08D2E912C14E163
:10129000A12EB12CC12CD12C16E6E12EFE2C06E895
:1012A0001FE320E030E44CE155E460E070E88BEBB4
:1012B00094E40E945D0699E1A92EB12CC12CD12C99
:1012C00020E030E84BEB54E460E070E38CE195E41F
:1012D000A8CEE3E08E2E912CF8E0AF2EB12CC12CDD
:1012E000D12C16E6E12EFE2C06E81FE320E030E8C4
:1012F0004BEB55E460E070E08AEF94E40E945D06F9
:1013000062E370E080E090E00E94A703B2E08B2EE1
:10131000912CCDE0AC2EB12CC12CD12C20E030E0B2
:101320004AEF54E460E078E78BEB95E47ACE48E04E
:10133000842E912C5FE0A52EB12CC12CD12C16E669
:10134000E12EFE2C06E81FE320E030E04AEF54E4F3
:1013500060E070E88BEB94E40E945D0664E670E068
:1013600080E090E00E94A7037AE0A72EB12CC12C68
:10137000D12C20E030E44CE155E460E070E88DEEE3
:1013800094E44FCE98EC892E912C24E1A22EB12C1E
:10139000C12CD12C1CE5E12E1FE8F12E02E81FE341
:1013A00020E030E447E254E460E070E08CE594E44F
:1013B00038CEF2E08F2E912CA8E0AA2EB12CC12CB1
:1013C000D12C1AE0E12E17EDF12E03E81FE320E007
:1013D00030E844ED54E460E070E08AE794E40E9471
:1013E0005D06C3E08C2E912C18EBE12E1EE1F12E50
:1013F00005E81FE320E030E04AEF53E460E070E6E8
:1014000084ED94E40E945D061AE0812E912C09E09F
:10141000A02EB12CC12CD12C16E6E12EFE2C06E814
:101420001FE320E030E844ED54E460E070E08AE738
:1014300094E4F7CD6FE0862E912C72E0A72EB12CAC
:10144000C12CD12C1CE5E12E1FE8F12E02E81FE390
:1014500020E030E84BE355E460E070E088EC94E491
:10146000E0CD34E1832E912C42E0A42EB12CC12C8E
:10147000D12C1CE5E12E1FE8F12E02E81FE320E04D
:1014800030E84BEB55E460E070E08AEF94E4C9CDBE
:1014900084E1882E912C92E0A92EB12CC12CD12C64
:1014A0001CE5E12E1FE8F12E02E81FE320E030E00A
:1014B0004AE755E460E070E088EC94E40E945D0641
:1014C00020E030E84BE355E460E070E08AE795E423
:1014D000A8CDCF93DF9380918E040E946D038091FD
:1014E0008E040E946D03EC0164E070E080E090E007
:1014F0000E94A70380918E040E946D03C80FD91F1C
:1015000064E070E080E090E00E94A703CE01D7FD88
:10151000019695958795DF91CF9108952FB7F8940F
:101520006091BA027091BB028091BC029091BD02A1
:101530002FBF0895CF93C62F1092EB021092EA02AC
:101540002091C8023091C9022F5F3F4F3093C902EA
:101550002093C8026111862F682F61708FE00E946E
:10156000E5016C2F8EE00E94E50184E08093C402C7
:101570008FB78093C502F89482E19AE79093C302F3
:101580008093C20290938700809386008091C50269
:101590008FBF80918100887F80938100809181003E
:1015A0009091C402892B80938100CF910895DC0132
:1015B000EC918E2F90E0FC01EE0FFF1FE80FF91F5A
:1015C000E656FC4F808186FF02C08F7B80830895A2
:1015D000CF92DF92EF92FF92CF93DF93EC016032D4
:1015E00082E07807CCF5653B710514F064EB70E0A0
:1015F000898128E830E0281B310987FD3395220FC7
:10160000331F220F331F6901330FEE08FF088A8151
:1016100028E532E0281B310987FD3395220F331F5F
:10162000220F331F032E000C440B550B2C193D09C0
:101630004E095F09DB0177FF02C0B0E0A0E00E9425
:10164000D92424EB30E040E050E00E94AF24C20EE9
:10165000D31EE41EF51EB601E881EC3070F5298139
:1016600088E890E0821B910927FD9395880F991FC8
:10167000880F991F681779077CF02A8188E592E026
:10168000821B910927FD9395880F991F880F991F39
:10169000681779070CF4CB010297880F991F4FB791
:1016A000F8942E2F30E0F901EE0FFF1FE20FF31F29
:1016B000E656FC4F928381834FBFDF91CF91FF901D
:1016C000EF90DF90CF9008951F93CF93DF93EC01BD
:1016D000162F88818C3008F04EC061E0812F0E9467
:1016E0001C038881282F30E0F901EE0FFF1FE20F65
:1016F000F31FE656FC4F1F736081607C612B608393
:1017000019821A822CE0622F0E946A27829FB00100
:10171000112430E020E0AB01420F531FFA01EE0F1D
:10172000FF1FE40FF51FE656FC4F908196FD16C093
:101730002F5F3F4F2C30310571F781110FC0109290
:10174000800082E0809381001092850010928400D6
:10175000B19A80916F00826080936F00E8818E2F34
:1017600090E0FC01EE0FFF1FE80FF91FE656FC4F5B
:101770008081806480838881DF91CF911F9108955B
:10178000E091C7038E2F90E0FC01EE0FFF1FE80FE2
:10179000F91FE656FC4F808186FD58C060917404A5
:1017A0007091750487EC93E00E94640B6AE570E029
:1017B00087EC93E00E94E80A8EE190E09093E503C5
:1017C0008093E40380ED97E09093CF038093CE0362
:1017D00080E090E0A4E8B2E48093E0039093E1031A
:1017E000A093E203B093E3038AE198EFA2ECBDE398
:1017F0008093DC039093DD03A093DE03B093DF03BB
:101800001092E6031092E7031092E8031092E903A6
:101810008DE290E09093CB038093CA031092D8039B
:101820001092D9031092DA031092DB031092D003C6
:101830001092D1031092D2031092D3031092CD03D1
:101840001092CC031092EE031092EF03E091F0039C
:101850008E2F90E0FC01EE0FFF1FE80FF91FE656F8
:10186000FC4F808186FD58C06091760470917704AA
:1018700080EF93E00E94640B6AE570E080EF93E0F4
:101880000E94E80A8EE190E090930E0480930D048C
:1018900080ED97E09093F8038093F70380E090E069
:1018A000A4E8B2E48093090490930A04A0930B0483
:1018B000B0930C048AE198EFA2ECBDE38093050499
:1018C00090930604A0930704B093080410920F04A9
:1018D0001092100410921104109212048DE290E004
:1018E0009093F4038093F303109201041092020486
:1018F00010920304109204041092F9031092FA0358
:101900001092FB031092FC031092F6031092F50361
:10191000109217041092180408958F929F92AF921C
:10192000BF92CF92DF92EF92FF920F931F93CF93CC
:10193000DF936C018B010E94C00B8091A804811180
:101940001092A804F801C081D181FBE0CF16D10428
:101950008CF56091D6037091D7036C0F7D1F87ECD7
:1019600093E00E94E80AF801628173818091FF038D
:1019700090910004680F791F80EF93E00E94E80ABD
:10198000F801808191819093850480938404828101
:1019900093819093870480938604DF91CF911F9168
:1019A0000F91FF90EF90DF90CF90BF90AF909F90FE
:1019B0008F9008950D2C000CEE08FF08C701B601AA
:1019C0000E94432620E030E040E251E40E94992545
:1019D0004B015C018091840490918504BE01681BD9
:1019E000790B072E000C880B990B0E944326A5014A
:1019F00094010E94992560939804709399048093B0
:101A00009A0490939B04F80162817381809186040B
:101A100090918704681B790B072E000C880B990B9B
:101A20000E944326A50194010E94992560939C047D
:101A300070939D0480939E0490939F040E948E0A4D
:101A4000C60ED71EE81EF91EC0929004D0929104D3
:101A5000E0929204F0929304C1E0D0E00E948E0ADA
:101A6000C0909004D0909104E0909204F090930480
:101A70006C157D058E059F0508F082CF0E948E0AA9
:101A8000665F7F4F8F4F9F4F6093940470939504D0
:101A90008093960490939704BE010D2E000C880B42
:101AA000990B0E9443266B017C0120919804309190
:101AB000990440919A0450919B040E94F8264B018E
:101AC0005C016091840470918504072E000C880BE2
:101AD000990B0E9443269B01AC01C501B4010E94F1
:101AE00028250E940B262091D6033091D703620F40
:101AF000731F87EC93E00E94E80A20919C043091C8
:101B00009D0440919E0450919F04C701B6010E941C
:101B1000F8266B017C016091860470918704072E82
:101B2000000C880B990B0E9443269B01AC01C70156
:101B3000B6010E9428250E940B262091FF033091B8
:101B40000004620F731F80EF93E00E94E80A0E9476
:101B50008E0AC0909404D0909504E0909604F09082
:101B600097046C157D058E059F0588F3219676CF29
:101B7000CF93DF9300D000D0CDB7DEB78091A8041B
:101B800081111EC08091F9019091FA01A091FB0191
:101B9000B091FC0189839A83AB83BC83BE016F5FE4
:101BA0007F4F84EF91E00E948D0C87EC93E00E94C0
:101BB000D70A80EF93E00E94D70A81E08093A804BF
:101BC0000F900F900F900F90DF91CF91089581E0CB
:101BD0008093E3029091E502911108C08093E502A1
:101BE0006FE070E080E090E00C946E02089581E078
:101BF0008093E4029091E502911108C08093E50280
:101C00006FE070E080E090E00C946E020895FC01BB
:101C100001900020E9F73197AF01481B590BBC0137
:101C20008DEF92E00C94BD00CF93DF930E94AA0148
:101C3000EC018DE292E00E94070E8C0F9D1FDF9158
:101C4000CF9108956EE170E080E090E00E94A703DC
:101C50008CEA90E00E94AA018AEA90E00E94AA0120
:101C600087EA90E00E94140E8DEF92E00C94C5017B
:101C70006EE170E080E090E00E94A70384EA90E0CB
:101C80000E94AA0182EA90E00E94AA018FE990E0F6
:101C90000E94140E8DEF92E00C94C5010E94380E44
:101CA0000E94B80D0C94220E8F929F92AF92BF9219
:101CB0000F931F93CF93DF93CDB7DEB7A1970FB6E6
:101CC000F894DEBF0FBECDBF19A2423008F44AE03F
:101CD0008E010F5D1F4F842E912CB12CA12CA501DC
:101CE00094010E948D24E62FB901CA01EA30F4F470
:101CF000E05DD801EE938D01232B242B252B79F762
:101D000090E080E0109719F0CD010E94070EA19697
:101D10000FB6F894DEBF0FBECDBFDF91CF911F91FC
:101D20000F91BF90AF909F908F900895E95CE1CFA5
:101D3000CF92DF92EF92FF92CF93DF936B017C0102
:101D40006DE28DEF92E00E945D01EC01662777273E
:101D5000CB016C197D098E099F094AE00E94540E3F
:101D60008C0F9D1FDF91CF91FF90EF90DF90CF9070
:101D70000895BC01990F880B990B97FD0C94980E50
:101D80004AE00C94540ECF93DF930E94B80D0E944A
:101D9000690AEC018AE890E00E94AA0187E890E0D5
:101DA0000E94AA01CE010E94B90E84E890E00E9430
:101DB000140E8DEF92E0DF91CF910C94C5014F92FC
:101DC0005F926F927F928F929F92AF92BF92CF92CB
:101DD000DF92EF92FF920F931F93CF936B017C01E1
:101DE000742EAC019B010E946527882399F080E343
:101DF00092E0CF911F910F91FF90EF90DF90CF90E5
:101E0000BF90AF909F908F907F906F905F904F901A
:101E10000C94070E46015701E894B7F82FEF3FEFF7
:101E20004FE75FE7C501B4010E94652781110DC02E
:101E30002FEF3FEF4FE75FE7C501B4010E94942504
:101E400018161CF484E392E0D4CF2FEF3FEF4FE756
:101E50005FE4C701B6010E94F32618161CF488E35C
:101E600092E0C7CF2FEF3FEF4FE75FECC701B6011E
:101E70000E94942587FDF3CF20E030E0A901C7013F
:101E8000B6010E94942510E000E087FF0AC06DE2D1
:101E90008DEF92E00E945D018C01F7FAF094F7F863
:101EA000F094C0E060E070E080E09FE37C1641F0D9
:101EB00020E030E040E251E40E949925CF5FF6CF68
:101EC000A70196010E9428252B013C010E941226A1
:101ED0004B015C014AE00E94540E7C01E00EF11EB1
:101EE000CC23C1F1C501B4010E9441269B01AC0184
:101EF000C301B2010E9427254B015C016EE28DEF08
:101F000092E00E945D01E80EF91EC15018F120E038
:101F100030E040E251E4C501B4010E94F8262B01F3
:101F20003C010E9412264B01B12CA12C4AE0C501B4
:101F3000B4010E94540EE80EF91EC501B4010E94BE
:101F400041269B01AC01C301B2010E9427254B0130
:101F50005C01DBCFC701CF911F910F91FF90EF90F4
:101F6000DF90CF90BF90AF909F908F907F906F90B9
:101F70005F904F900895CF92DF92EF92FF920E9470
:101F8000B80D0E94ED066B017C0183E990E00E9490
:101F9000AA0180E990E00E94AA0142E0C701B601CF
:101FA0000E94DF0E8DE890E00E94140E8DEF92E00B
:101FB000FF90EF90DF90CF900C94C501CF93DF930B
:101FC000BC01990F880B990B97FF0CC00E94980ECB
:101FD000EC018DE292E00E94070E8C0F9D1FDF91B5
:101FE000CF9108954AE00E94540EF2CF0E94B80D9E
:101FF0008CE990E00E94AA0189E990E00E94AA0180
:102000008DE092E00E94070E86E990E00E94140E97
:102010008DEF92E00C94C5011F93CF93DF93209135
:10202000D6043091D7042E30310504F5EB01BC0104
:1020300015E2129FC001139F900D112443E250E05E
:1020400088529B4F0E9493278091D6049091D70489
:10205000189FF001199FF00D1124E550FB4FD1831B
:10206000C08301969093D7048093D604DF91CF91DB
:102070001F91089544ED54E06FEC74E090E080E02F
:102080000C943524CF93DF9300D0CDB7DEB70E94F8
:10209000380E0E94B80D0E943A100097C1F042E03D
:1020A00050E0BE016F5F7F4F0E9423236093BF0308
:1020B0007093C0038093C1039093C2030E943102C6
:1020C0000E94220E0F900F90DF91CF9108956AE148
:1020D00070E080E090E00E946E0260ED77E080E0CA
:1020E00090E00E94A7030E94A402EACFCF92DF9261
:1020F000EF92FF920F931F93CF93DF930E94380EBE
:102100000E94B80D0E943A1011E0009721F00E9441
:102110000E24EC0110E00E943A10009721F00E947A
:102120000E241123C1F06AE170E080E090E00E948B
:102130006E0260ED77E080E090E00E94A7030E94CD
:10214000A402DF91CF911F910F91FF90EF90DF904C
:10215000CF900C94220E6C01990FEE08FF08BE017F
:10216000DD0F880B990B0E94432601E010E0A701C8
:1021700096010E94DA03E5CF0E94380E8091A804F0
:1021800081111092A8040E943A10009791F00E94C9
:102190000E249093DD028093DC020E943A10009797
:1021A000D9F00E940E2490930501809304010C94B1
:1021B0003A106AE170E080E090E00E946E0260ED0B
:1021C00077E080E090E00E94A7030E94A4021092B2
:1021D000DD021092DC02E1CF88EE93E0E4CF2F9293
:1021E0003F924F925F926F927F928F929F92AF92A7
:1021F000BF92CF92DF92EF92FF920F931F93CF93F4
:10220000DF9300D000D0CDB7DEB70E94380E0E9419
:10221000B80D0E943A100097C1F00E940E24019759
:102220008D30910500F5FC01E85EFE4E0C9476279A
:102230004B1166118F1100128C12E912FA120B1356
:102240008413C71361147215C7156AE170E080E04A
:1022500090E00E946E0260ED77E080E090E00E94E6
:10226000A7030E94A4020F900F900F900F90DF9190
:10227000CF911F910F91FF90EF90DF90CF90BF9083
:10228000AF909F908F907F906F905F904F903F9016
:102290002F900C94220E0EE110E022E330E040E09B
:1022A00050E064EA70ED84E294E40E94DA036AE0AC
:1022B00070E080E090E00E946E028DE090E00E946D
:1022C00065078DE090E00E94650720C06BE070E03C
:1022D00080E090E00E946E028BE090E00E94650733
:1022E0006CE070E080E090E00E946E026BE070E0D5
:1022F00080E090E00E946E028CE090E00E94650712
:102300006CE070E080E090E00E946E020E94B80DE8
:102310006BE070E080E090E00E946E02A4CF66E186
:1023200070E080E090E00E946E0228EC822E912CFA
:1023300034E1A32EB12CC12CD12C1CE5E12E1FE8D9
:10234000F12E02E81FE320E030E84FE454E460E0BF
:1023500070E08CE594E40E945D0668E170E080E046
:1023600090E00E946E0220E030E845E454E460E032
:1023700070E88FE494E40E945D0667E170E080E01D
:1023800090E00E946E0220E030E049E354E460E017
:1023900070E885E494E40E945D0668E170E080E006
:1023A00090E00E946E0220E030E04FE254E460E0F2
:1023B00070E089E394E40E945D0667E170E080E0EC
:1023C00090E00E946E0220E030E447E254E460E0D6
:1023D00070E08FE294E40E945D0666E170E080E0C8
:1023E00090E00E946E0264EF71E080E090E00E9455
:1023F000A7030E94B80D6CE271E080E090E0E6C0B7
:1024000024E030E03A83298350E040E061E070E06E
:1024100080E090E00E94AE02BAE08B2E912C1AE090
:10242000A12EB12CC12CD12C18EBE12E1EE1F12EE6
:1024300005E81FE320E030E048E453E460E070E0AA
:1024400088EC92E40E945D0641E050E061E070E0BB
:1024500080E090E00E94AE0220E030E046E953E4E4
:1024600060E070E088E493E40E945D0642E050E0A2
:1024700061E070E080E090E00E94AE0220E030E099
:102480004AEF53E460E070E086E993E40E945D0661
:1024900064EF71E080E090E00E94A70341E050E02B
:1024A00061E070E080E090E00E94AE0288248394B6
:1024B000912C20E030E04AE753E460E070E088ECE3
:1024C00093E40E945D0650E040E061E070E080E04F
:1024D00090E00E94AE0220E030E048EC52E460E080
:1024E00070E08AE793E40E945D0664EF71E080E0AB
:1024F00090E00E94A70389819A8101979A8389833A
:10250000892B09F081CF63E170E080E090E00E94C8
:102510006E0289E090E0D7CE6CE271E080E090E05E
:102520000E94A70363E170E080E090E00E946E02E9
:1025300080E190E00E94650760E170E080E090E05B
:102540000E946E026AEF70E080E090E00E94A703B4
:102550006CE271E080E090E00E94A70363E170E02C
:1025600080E090E00E946E0281E190E00E946507A9
:1025700060E170E080E090E00E946E026AEF70E03F
:1025800080E090E00E94A7036CE271E080E090E0C0
:102590000E94A70363E170E080E090E00E946E0279
:1025A00082E190E00E94650760E170E080E090E0E9
:1025B0000E946E026CE271E080E090E00E94A7034E
:1025C0000E94B80D64EF71E080E090E00E94A703E4
:1025D0009FCE64E170E080E090E00E946E028FE0A8
:1025E00090E00E94650764EF71E080E090E00E9457
:1025F000A7038CCE6DE070E080E090E00E946E0258
:1026000089E090E00E9465070E94B80D8DE090E09F
:102610000E9465077DCE6EE170E080E090E00E9450
:102620006E020EE110E024E630E040E050E060E0B1
:1026300070E08CE594E40E94DA0344E0842E912C4F
:1026400057E0A52EB12CC12CD12C1CE5E12E1FE8A2
:10265000F12E02E81FE32FE135ED42E954E460E09A
:1026600070E08CE594E40E945D0688248394912CAC
:10267000EAE0AE2EB12CC12CD12C2CE53FEF43EC7F
:1026800054E46FE175ED82E994E40E945D0620E078
:1026900030E04CE554E46CE57FEF83EC94E40E9479
:1026A0005D066FE070E080E090E00E94A703F4E038
:1026B0008F2E912CA4E1AA2EB12CC12CD12C24EA6E
:1026C00030ED44E254E460E070E08CE594E40E9474
:1026D0005D0660E971E080E090E00E94A7032FE1D1
:1026E00035ED42E954E460E070E08CE594E40E944A
:1026F0005D0624EA30ED44E254E460E070E08CE5ED
:1027000094E40E945D0602CE6EE170E080E090E00D
:102710000E946E0294E0892E912C24E1A22EB12C0D
:10272000C12CD12C1CE5E12E1FE8F12E02E81FE39D
:102730002FE135ED42E954E460E070E08CE594E48B
:102740000E945D0624EA30ED44E254E460E070E06B
:102750008CE594E40E945D066CE271E080E090E01C
:102760000E94A70363E170E080E090E00E946E02A7
:102770000E94B80D0E94B80D0E94B80D0E94B80DBD
:102780006EE170E080E090E00E946E022CCF24E0C9
:1027900030E03A83298300E911E01C821B824B81DF
:1027A0005C8162E070E080E090E00E94AE0218017F
:1027B00034E6230E311CB801110F880B990B0E94CF
:1027C00043262B013C01B101032C000C880B990B13
:1027D0000E9443269B01AC011AE0812E912C0AE055
:1027E000A02EB12CC12CD12C18EBE12E1EE1F12E24
:1027F00005E81FE3C301B2010E945D068B819C8145
:1028000001969C838B838101069749F60E94A4025E
:1028100018EBE12E1EE1F12E05E81FE320E030E881
:1028200049E854E4C301B2010E945D0628EE33E09A
:102830003C832B83312C212CA10162E070E080E0ED
:1028400090E00E94AE026B817C816C597F4F072E15
:10285000000C880B990B0E9443262B013C012B8115
:102860003C81B901330F880B990B0E944326EAE0A3
:102870008E2E912CFAE0AF2EB12CC12CD12C18EB5E
:10288000E12E1EE1F12E05E81FE3A30192010E9453
:102890005D068B819C81845691099C838B839FEF7D
:1028A000291A390A2B813C812039314029F62981A6
:1028B0003A81215031093A832983232B09F06BCFC8
:1028C0009ACD82E090E09A83898384EF91E09C83A3
:1028D0008B83312C212CA10163E070E080E090E03B
:1028E0000E94AE026B817C816C597F4F072E000CD9
:1028F000880B990B0E9443262B013C012B813C81C4
:10290000B901330F880B990B0E9443263AE0832EBE
:10291000912C4AE0A42EB12CC12CD12C1CE5E12E27
:102920001FE8F12E02E81FE3A30192010E945D0659
:102930008B819C818B599F4F9C838B839FEF291A9E
:10294000390A2AE02216310431F686EE95E09C839E
:102950008B83312C212CA10163E070E080E090E0BA
:102960000E94AE026B817C816C597F4F072E000C58
:10297000880B990B0E9443262B013C012B813C8143
:10298000B901330F880B990B0E944326AAE08A2EC7
:10299000912CBAE0AB2EB12CC12CD12C1CE5E12E30
:1029A0001FE8F12E02E81FE3A30192010E945D06D9
:1029B0008B819C818B599F4F9C838B839FEF291A1E
:1029C000390A2AE02216310431F688ED99E09C8319
:1029D0008B83312C212CA10163E070E080E090E03A
:1029E0000E94AE026B817C8164567109072E000C37
:1029F000880B990B0E9443262B013C012B813C81C3
:102A0000B901330F880B990B0E9443265AE0852E9B
:102A1000912CEAE0AE2EB12CC12CD12C1CE5E12E7C
:102A20001FE8F12E02E81FE3A30192010E945D0658
:102A30008B819C81855691099C838B839FEF291AFA
:102A4000390A2B813C81263E354029F6312C212C38
:102A5000A10163E070E080E090E00E94AE026B8133
:102A60007C8164567109072E000C880B990B0E941B
:102A700043262B013C012B813C81B901330F880B8C
:102A8000990B0E9443262AE0822E912C3AE0A32E35
:102A9000B12CC12CD12C1CE5E12E1FE8F12E02E84F
:102AA0001FE3A30192010E945D068B819C818556E4
:102AB00091099C838B839FEF291A390A2AE02216F9
:102AC000310431F689819A81019739F40E94A40278
:102AD00064E670E080E090E079CD21E030E03A8378
:102AE0002983F3CE6FE070E080E090E00E946E02F8
:102AF00020E436E03A83298329813A81B901330FF2
:102B0000880B990B0E94432601E010E02FE030E093
:102B100040E050E00E94DA0389819A8144969A83CA
:102B20008983803F9A4041F76EE070E080E090E05A
:102B30000E946E0229813A81B901330F880B990BEB
:102B40000E94432601E010E02FE030E040E050E03A
:102B50000E94DA0389819A8144969A838983803A14
:102B60009F4041F76BE070E080E090E00E946E02D1
:102B70008CE090E00E9465076CE070E080E090E0FF
:102B80000E946E020E94B80D0E94A402C1CB67E1B0
:102B900070E080E090E00E946E0201E010E028EC1E
:102BA00030E040E050E060E070E081E694E40E94B4
:102BB000DA0368E170E080E090E00E946E0228ECA9
:102BC00030E040E050E060E070E086E194E40E9494
:102BD000DA0364E170E080E090E00E946E0228EC8D
:102BE00030E040E050E060E070E086E993E40E946D
:102BF000DA036AE170E080E090E00E946E0287EC08
:102C000093E00E94D70A80EF93E00E94D70A28E958
:102C100038E040E050E060E070E086E193E40E943C
:102C2000DA0368E572E080E090E00E94A7030E946A
:102C3000A4026BE070E080E090E00E946E020E94CF
:102C4000B80D11CB0E94380E0E94B80D0E943A10A8
:102C50000097F1F00E940E2401978331910530F521
:102C6000FC01EB5CF94E0C94762758165D16601645
:102C70006316661669166C166F1672167516781638
:102C80007B167E168116841687168A168D16901668
:102C90006AE170E080E090E00E946E0260ED77E013
:102CA00080E090E00E94A7030E94A4020C94220EF0
:102CB00090E080E00E946507F9CF81E090E0FACFD4
:102CC00086E090E0F7CF87E090E0F4CF88E090E0F6
:102CD000F1CF89E090E0EECF8AE090E0EBCF8BE09F
:102CE00090E0E8CF8CE090E0E5CF8DE090E0E2CF9F
:102CF0008EE090E0DFCF8FE090E0DCCF80E190E0ED
:102D0000D9CF81E190E0D6CF82E190E0D3CF83E0CC
:102D100090E0D0CF84E090E0CDCF85E090E0CACFC6
:102D200082E090E0C7CFAF92BF92CF92DF92EF9256
:102D3000FF921F93CF93DF93CDB7DEB728970FB6DF
:102D4000F894DEBF0FBECDBF0E94380E8EE190E03A
:102D50009093DD028093DC020E943A1011E000970C
:102D600021F00E940E245C0110E00E943A100097AE
:102D700091F10E940E246C010E943A10009769F1B3
:102D80000E940E247C010E943A10009721F00E94BC
:102D90000E24112321F16AE170E080E090E00E94AE
:102DA0006E0260ED77E080E090E00E94A7030E9451
:102DB000A4020E94220E28960FB6F894DEBF0FBE22
:102DC000CDBFDF91CF911F91FF90EF90DF90CF901B
:102DD000BF90AF90089511E0CFCF11E0D4CFBA8269
:102DE000A982DC82CB82FE82ED8298878F83BE012E
:102DF0006F5F7F4F88EC90E00E948D0CDACFCF920E
:102E0000DF92EF92FF920F931F93CF93DF93CDB793
:102E1000DEB72B970FB6F894DEBF0FBECDBF0E9472
:102E2000B80D1A821982FE01339689E0DF011D92E6
:102E30008A95E9F732977F0105E010E06F01C8013C
:102E40000E946724D7018D937D010F5F1F4F0031D2
:102E50001105A9F78EE690E00E94AA018BE690E0AA
:102E60000E94AA01C6010E94070E88E690E00E9417
:102E7000140E8DEF92E00E94C5012B960FB6F894C8
:102E8000DEBF0FBECDBFDF91CF911F910F91FF909D
:102E9000EF90DF90CF900895FF920F931F93CF9301
:102EA000DF938C01EB01F8800E946724F81621F073
:102EB0006F2DC8010E946F24CE01DF91CF911F9129
:102EC0000F91FF900895DF92EF92FF920F931F935F
:102ED000CF93DF93CDB7DEB72B970FB6F894DEBF55
:102EE0000FBECDBF0E94380E0E94B80D1A82198203
:102EF000FE01339689E0DF011D928A95E9F70E9471
:102F00003A10009791F1FC01CE0101967C019F01DE
:102F1000245F3F4FDC018191882329F0E217F307FA
:102F200011F08D93F8CF05E010E0D701DD907D0121
:102F3000C8010E946724D81621F06D2DC8010E9497
:102F40006F240F5F1F4F0031110579F72B960FB6D5
:102F5000F894DEBF0FBECDBFDF91CF911F910F91CF
:102F6000FF90EF90DF900C94220E6AE170E080E019
:102F700090E00E946E0260ED77E080E090E00E94B9
:102F8000A7030E94A402E2CFFF920F931F93CF9357
:102F9000DF930E94380E0E94B80D0E943A10C1E0E3
:102FA000009729F00E940E24D82FF92EC0E00E942D
:102FB0003A10009719F10E940E248C010E943A10D9
:102FC000892B09F4C1E00E943A10892B11F0CC231F
:102FD000B9F06AE170E080E090E00E946E0260ED7E
:102FE00077E080E090E00E94A7030E94A402DF91B6
:102FF000CF911F910F91FF900C94220EC1E0DECF74
:10300000D093D603F092D703109300040093FF03EC
:103010006D2F90E080E00E946F246091FF0381E0BB
:1030200090E00E946F246091280482E090E00E946A
:103030006F246091510483E090E00E946F24D7CF09
:10304000CF92DF92EF92FF920F931F930E94B80DE1
:1030500060E080916B040E94E50183E090E00197BD
:10306000F1F761E080916B040E94E50183E290E05A
:103070000197F1F760E080916B040E94E501809177
:103080006D0490916E049927FC01E353FF4F649106
:10309000FC01E551FF4FE491F0E0EE0FFF1FEF5808
:1030A000FF4F8591949100E41CE920E030E0462F29
:1030B0000E94EB1A611571058105910529F06F5F7A
:1030C0007F4F8F4F9F4F9F702AE330E040E050E0EA
:1030D0000E94AF2469017A01C114D104E104F10412
:1030E00031F487EEC82E83E0D82EE12CF12C81E854
:1030F00090E00E94AA018EE790E00E94AA01C70119
:10310000B6010E9443260E940B26CB010E94B90EF5
:103110008BE790E00E94140E8DEF92E01F910F91CB
:10312000FF90EF90DF90CF900C94C5011F920F920B
:103130000FB60F9211242F933F934F935F936F938A
:103140007F938F939F93AF93BF93EF93FF93809160
:10315000F1029091F202A091F302B091F402892B56
:103160008A2B8B2BD1F19091EC02E091ED02F09142
:10317000EE028081892780838091F1029091F20292
:10318000A091F302B091F402181619061A061B0654
:103190009CF48091F1029091F202A091F302B0911F
:1031A000F4020197A109B1098093F1029093F20210
:1031B000A093F302B093F402FF91EF91BF91AF910E
:1031C0009F918F917F916F915F914F913F912F913F
:1031D0000F900FBE0F901F90189580910801EFEF90
:1031E000F0E0E4919FEF90930801E13051F030F06E
:1031F000E23069F060E00E94E501DECF10926E00DF
:10320000F9CF90916F009D7F90936F00F3CF9091D5
:1032100070009D7F9093700091E09093B00090912A
:10322000B100987F94609093B1001092B300E2CF08
:103230001F920F920FB60F9211242F933F934F932B
:103240005F936F937F938F939F93AF93BF93EF930E
:10325000FF938DEF92E00E943B01FF91EF91BF91B0
:10326000AF919F918F917F916F915F914F913F911E
:103270002F910F900FBE0F901F9018951F920F92D5
:103280000FB60F9211242F938F939F93EF93FF9379
:10329000E0910D03F0910E038081E0911303F09112
:1032A000140382FD1BC09081809116038F5F8F7382
:1032B00020911703821741F0E0911603F0E0E350EC
:1032C000FD4F958F80931603FF91EF919F918F9102
:1032D0002F910F900FBE0F901F9018958081F4CF03
:1032E0001F920F920FB60F9211242F933F938F933B
:1032F0009F93AF93BF938091BA029091BB02A0912C
:10330000BC02B091BD023091B90223E0230F2D37EA
:1033100058F50196A11DB11D2093B9028093BA0200
:103320009093BB02A093BC02B093BD028091BE02F9
:103330009091BF02A091C002B091C1020196A11D5F
:10334000B11D8093BE029093BF02A093C002B093C0
:10335000C102BF91AF919F918F913F912F910F909B
:103360000FBE0F901F90189526E8230F0296A11DFF
:10337000B11DD2CF1F920F920FB60F9211242F932F
:103380003F934F935F936F937F938F939F93AF93ED
:10339000BF93EF93FF93E0910201F0910301099530
:1033A000FF91EF91BF91AF919F918F917F916F911D
:1033B0005F914F913F912F910F900FBE0F901F90F3
:1033C00018951F920F920FB60F9211242F933F93CF
:1033D0004F935F936F937F938F939F93AF93BF931D
:1033E000EF93FF93E0910001F09101010995FF91A6
:1033F000EF91BF91AF919F918F917F916F915F916D
:103400004F913F912F910F900FBE0F901F901895E5
:103410001F920F920FB60F9211242F933F934F9349
:103420005F936F937F938F939F93AF93BF93EF932C
:10343000FF93E091C602F091C7020995FF91EF91C9
:10344000BF91AF919F918F917F916F915F914F91BC
:103450003F912F910F900FBE0F901F9018951F92C4
:103460000F920FB60F9211242F933F934F935F93B8
:103470006F937F938F939F93AF93BF93CF93DF937C
:10348000EF93FF938091B802C091BE03D0E087FF15
:1034900024C010928500109284008091B8028F5F42
:1034A0008093B8028091B802082E000C990B8C17FB
:1034B0009D0724F48091B8028C30C4F1809184007F
:1034C00090918500049680349C4908F47AC08091DC
:1034D000840090918500049676C08091B802082EF1
:1034E000000C990B8C179D07C4F6E091B8028E2F43
:1034F000EE0F990BFC01EE0FFF1FE80FF91FE656C8
:10350000FC4F808186FFC9CFE091B8028E2FEE0F6D
:10351000990BFC01EE0FFF1FE80FF91FE656FC4F59
:10352000808160E08F730E94E501B7CF2091840015
:1035300030918500E091B8028E2FEE0F990BFC01BF
:10354000EE0FFF1FE80FF91FE656FC4F81819281B5
:10355000820F931F9093890080938800E091B802B6
:103560008E2FEE0F990BFC01EE0FFF1FE80FF91FD6
:10357000E656FC4F808186FF11C0E091B8028E2F85
:10358000EE0F990BFC01EE0FFF1FE80FF91FE65637
:10359000FC4F808161E08F730E94E501FF91EF9104
:1035A000DF91CF91BF91AF919F918F917F916F915B
:1035B0005F914F913F912F910F900FBE0F901F90F1
:1035C000189580E49CE990938900809388008FEFA0
:1035D0008093B802E3CFCF92DF92EF92FF920F93E6
:1035E0001F93E82FF92F05C0015011092109310956
:1035F00061F1908196239417B9F305C00150110928
:103600002109310911F1908196239413F7CFC12C30
:10361000D12CE12CF12C0AC08FEFC81AD80AE80A85
:10362000F80A0C151D052E053F0579F080818623CB
:10363000841791F36C2D7D2D8E2D9F2D1F910F9151
:10364000FF90EF90DF90CF90089560E070E080E011
:1036500090E01F910F91FF90EF90DF90CF90089531
:10366000109200031092FF0288EE93E0A0E0B0E019
:103670008093010390930203A0930303B093040388
:103680008FE192E09093FE028093FD0285EC90E042
:1036900090930A038093090384EC90E090930C03C9
:1036A00080930B0380EC90E090930E0380930D03C6
:1036B00081EC90E09093100380930F0382EC90E0F4
:1036C000909312038093110386EC90E0909314037F
:1036D000809313031092160310921703109218038D
:1036E0001092190380E290E09093D0048093CF046D
:1036F0008DE08093D1041092D7041092D604EAEAA8
:10370000F4E0119284E0ED3CF807D9F71092CE0472
:103710001092CD041092BF031092C0031092C10307
:103720001092C2038BE08093C3038DE08093C403A7
:103730008CE08093C50361E08BE00E941C0361E094
:103740008091C4030E941C0361E08091C5030E9424
:103750001C0360E08091C3030E94E50160E080915A
:10376000C4030E94E50160E08091C5030E94E50169
:103770000E943102E7ECF3E02FEF48EB5BE0809131
:10378000BE038C30D0F491E0980F9093BE038083F9
:1037900090E0DC01AA0FBB1FA80FB91FA656BC4FB3
:1037A00012965C934E931197108A1786B99684E00F
:1037B000EB36F80721F70C944D032083F5CFCF9318
:1037C000DF93CDB7DEB76E970FB6F894DEBF0FBEAE
:1037D000CDBF789484B5826084BD84B5816084BD9A
:1037E00085B5826085BD85B5816085BD80916E009F
:1037F000816080936E0010928100809181008260D0
:10380000809381008091810081608093810080910C
:1038100080008160809380008091B10084608093FB
:10382000B1008091B00081608093B00080917A00F7
:10383000846080937A0080917A00826080937A001D
:1038400080917A00816080937A0080917A0080680C
:1038500080937A001092C100E0910D03F0910E0365
:1038600082E08083E0910903F0910A031082E091E5
:103870000B03F0910C0380E1808310921503E0911B
:103880001103F091120386E08083E0910F03F09121
:103890001003808180618083E0910F03F091100319
:1038A000808188608083E0910F03F0911003808114
:1038B00080688083E0910F03F091100380818F7DF9
:1038C000808360E086E00E941C0360E087E00E9445
:1038D0001C0384E090E0909375048093740485E069
:1038E00090E090937704809376040E94C00B10922E
:1038F000A8048AE590E090938504809384049093D3
:1039000087048093860483E090E090937004809312
:103910006F0460E00E941C0381E190E090937204C8
:103920008093710460E00E941C030E944D0388E0B4
:1039300090E090936C0480936B0489E090E0909306
:103940006E0480936D0461E088E00E941C0360E0D7
:1039500080916D040E941C038AE090E090938D0496
:1039600080938C0484E190E090938F0480938E0484
:1039700061E08AE00E941C0360E084E10E941C0375
:1039800084E10E946D03BC01990F880B990B6115AE
:1039900071058105910511F00E941A236EE47EE005
:1039A0008CE392E00E940C1062E470E18EE392E0FE
:1039B0000E940C1066E770E180E492E00E940C1017
:1039C0006CEB70E182E492E00E940C106FEE70E10B
:1039D00084E492E00E940C1062E276E186E492E0D8
:1039E0000E940C1064EC77E188E492E00E940C10D5
:1039F00063E976E18AE492E00E940C1063E677E1E5
:103A00008CE492E00E940C106FEF76E18EE492E07D
:103A10000E940C1060E278E180E592E00E940C10B8
:103A200063EC7EE082E592E00E940C106BEB7FE09D
:103A300084E592E00E940C1066EF7FE086E592E05C
:103A40000E940C108EE49EE09093DF068093DE06C9
:103A50000E94B80D85E090E00E9467248432D9F47A
:103A60006AE172E085E090E00E944C171982BE0185
:103A70006F5F7F4F86E090E00E944C176DE170E031
:103A800080E090E00E946E0268EE73E080E090E0DB
:103A90000E94A703F9CF0E94FF1662E370E080E066
:103AA00090E00E94A7030E94F60F62E370E080E0BE
:103AB00090E00E94A7030E94BB0F0E94ED0620E049
:103AC00030E044E352E40E94942587FF41C0809196
:103AD000E50281113DC06CE170E080E090E00E9461
:103AE0006E0213E0812E912C08E0A02EB12CC12C87
:103AF000D12C18EBE12E1EE1F12E05E81FE320E0AA
:103B000030E04AEF54E460E070E08CE594E40E9419
:103B10005D066EE170E080E090E00E94A7031CE586
:103B2000E12E1FE8F12E02E81FE320E030E04CE533
:103B300054E460E070E08AEF94E40E945D060E9425
:103B4000A40264EF71E080E090E00E94A703BFCF81
:103B500010E000E08091E502811111C0A80160E051
:103B600070E0CB010E94AE0266E970E080E090E078
:103B70000E94A7030F5F1F4F0830110559F710E08F
:103B800000E08091E502811111C0A80160E070E0C1
:103B9000CB010E94AE0266E970E080E090E00E94F6
:103BA000A7030F5F1F4F0830110559F78091E502F9
:103BB00081110CC06AE070E080E090E00E946E022B
:103BC00068EC70E080E090E00E94A70385E090E060
:103BD0000E9467248332E1F58091E50281112CC0B7
:103BE0008091FD019091FE01A091FF01B091000232
:103BF00089839A83AB83BC83BE016F5F7F4F90E064
:103C000080E00E948D0C8091010290910202A091AF
:103C10000302B091040289839A83AB83BC83BE0103
:103C20006F5F7F4F90E080E00E948D0C68EC70E049
:103C300080E090E00E94A7038091E502811108C016
:103C40006FE070E080E090E00E946E020E94B80D8C
:103C50008091E502811106C06BE070E080E090E0A9
:103C60000E946E020E948E0A6093DF027093E0024F
:103C70008093E1029093E2021E0129E0220E311CA2
:103C80008091050290910602A0910702B09108026E
:103C90008F87988BA98BBA8B2091010230910202F9
:103CA00040910302509104022B8B3C8B4D8B5E8B19
:103CB0008091FD019091FE01A091FF01B091000261
:103CC0008F8B988FA98FBA8F2091090230910A02A9
:103CD00040910B0250910C022B8F3C8F4D8F5E8FC9
:103CE00066246394712C86E0D1011D928A95E9F7D0
:103CF0008DEF92E00E941B011816190694F4809132
:103D0000060190910701029761F07092070160929D
:103D100006016BE070E080E090E00E946E0210927D
:103D2000E5028091E502882309F457C00E94B80D8E
:103D300064E670E080E090E00E94A70368EC70E029
:103D400080E090E00E94A7038091E402882321F0A4
:103D50008091E302882379F08091E40281110FC001
:103D60008091E302882359F082E090E0909307016C
:103D70008093060104C07092070160920601609171
:103D8000060170910701072E000C880B990B0E9409
:103D90006E0208EC10E06AE070E080E090E00E94C3
:103DA000A70301501109B9F76BE070E080E090E0E3
:103DB0000E946E021092E5021092E4021092E30259
:103DC00080E090E0892B09F48ECF0E9427018823A0
:103DD00009F486CF0E94000083CF80910601909164
:103DE00007018130910509F4E7C08230910509F49B
:103DF000A0C2892B09F07EC30E948E0A0091DF02C7
:103E00001091E0022091E1023091E202601B710BFF
:103E1000820B930B603878438140910588F21D82B4
:103E20001E821F8218868AE590E09A8389839C838C
:103E30008B838091E502811107C0BE016F5F7F4FC8
:103E40008CEB92E00E948D0CA4E04A2E512C8091C4
:103E5000E50281118CC050E040E061E070E080E05C
:103E600090E00E94AE027AE0872E912CEAE0AE2E1E
:103E7000B12CC12CD12C18EBE12E1EE1F12E05E85E
:103E80001FE320E030E048E453E460E070E088ECB9
:103E900092E40E945D068091E502811168C041E0D4
:103EA00050E061E070E080E090E00E94AE0220E02F
:103EB00030E046E953E460E070E088E493E40E9477
:103EC0005D068091E502811152C042E050E061E060
:103ED00070E080E090E00E94AE0220E030E04AEF27
:103EE00053E460E070E086E993E40E945D0664EFCD
:103EF00071E080E090E00E94A7038091E5028111CB
:103F000036C041E050E061E070E080E090E00E9467
:103F1000AE0288248394912C20E030E04AE753E4F9
:103F200060E070E088EC93E40E945D068091E50219
:103F300081111DC050E040E061E070E080E090E061
:103F40000E94AE0220E030E048EC52E460E070E015
:103F50008AE793E40E945D0664EF71E080E090E000
:103F60000E94A703E1E04E1A510809F070CF80913A
:103F7000E50281110AC063E170E080E090E00E94F8
:103F80006E0289E090E00E9465070E94B80D809162
:103F9000E502811106C06BE070E080E090E00E94D5
:103FA0006E020E948E0A6093DF027093E00280939B
:103FB000E1029093E20204CF0E94690A8A3892409B
:103FC0003CF08091DE02882309F47AC01092DE0270
:103FD0008091E8029091E902892B09F05BC060E0D2
:103FE00080E10E94E5011092DD021092DC02109245
:103FF000D6021092D7021092D8021092D9021092D3
:10400000C9021092C8021092EB021092EA021092BA
:10401000800080E18093810084E08093C4028FB7A8
:104020008093C502F89482E19AE79093C30280934B
:10403000C20290938700809386008091C5028FBF53
:1040400080918100887F80938100909181002091F0
:10405000C402922B909381008BEA90E09093C70268
:104060008093C60281E080936F0080918100822B53
:104070008093810082EB90E0909301018093000196
:1040800080916900836080936900E89A7092E902E8
:104090006092E8028091E8029091E902039709F0AA
:1040A0009AC08091C8029091C90281309105D1F1E6
:1040B0005CF4892B61F11092EB021092EA0248C085
:1040C00081E08093DE0284CF8230910509F410C133
:1040D000039789F78091EA029091EB029093DB02BB
:1040E0008093DA028EE792E00E94070E8091DA0256
:1040F0009091DB020E94DE0F60E081E00E949A0A4C
:1041000082E090E09093E9028093E80221C088E584
:1041100092E00E94070E8DE292E00E94070E60E09E
:1041200080E014C08091EA029091EB029093D70254
:104130008093D60284E692E00E94070E8091D60218
:104140009091D7020E94DE0F61E081E00E949A0AFE
:104150008091C8029091C90204970CF4DDC080914F
:10416000E6029091E702892BB1F506ED12E04AECE8
:10417000E42E42E0F42E5CEDC52E52E0D52ED8019F
:104180006D917D918D01072E000C880B990B0E947B
:1041900043269B01AC0160E070E08FE793E40E944E
:1041A0009925F70161937193819391937F018BE836
:1041B00092E00E94070EF70134976081718182813D
:1041C000938142E00E94DF0E8DE292E00E94070E92
:1041D000C016D106A1F68091E8029091E9020297FB
:1041E00009F07BC07092E7026092E60226EDE22EB3
:1041F00022E0F22E3AEC432E32E0532E610181018F
:10420000D7016D917D917D01F20181909190A190F6
:10421000B1902F01072E000C880B990B0E944326AA
:10422000A50194010E94F8260E940B266F3F71059C
:1042300011F00CF078C0D8016D937C938AE992E07C
:104240000E94070ED8018D919D918D010E94DE0F75
:10425000BCEDEB16B2E0FB0699F661E080E10E944E
:10426000E50180916F008E7F80936F00E898ECEB02
:10427000F0E0F0930101E09300011092C902109266
:10428000C8021092EB021092EA021092E902109218
:10429000E80287EA92E00E94070E10E000E0D601F3
:1042A0008D919D916D010E94B90E85EB92E00230D7
:1042B000110531F483EB92E00E94070E8DE292E04B
:1042C0000E94070E0F5F1F4F0330110541F768E88A
:1042D00073E180E090E00E94A7038091E5028111E4
:1042E0006FCD6BE070E080E090E00E946E0268CDE0
:1042F0008091EA029091EB029093D9028093D802C8
:1043000081E792E00E94070E8091D8029091D90235
:104310000E94DE0F61E004CF84E090E09093E90218
:104320008093E80258CF2FEF30E0F80131832083EB
:1043300085CF11E095E2992E8DEF92E00E941B014E
:10434000181619060CF08DC0112309F48AC08DEFE0
:1043500092E00E94F9008093A9049091D1048913FE
:1043600048C01092CE041092CD0444ED54E06FEC9E
:1043700074E08AEA94E00E9435247C019093D3048F
:104380008093D204892B09F46CC0A090D604B0901D
:10439000D70489EAC82E84E0D82E10E000E00A1580
:1043A0001B050CF051C0B601615D7F4F43E250E048
:1043B000C7010E948527B5E2CB0ED11C892B09F0DD
:1043C00040C0909EF001919EF00D1124E550FB4FEE
:1043D0000190F081E02D0995EAEAF4E011922DECCC
:1043E00034E02E173F07D1F71092CE041092CD047F
:1043F00010E00091A904802F002E000C990B0E9460
:104400007E27892B09F498CF8091CD049091CE041A
:104410009C012F5F3F4F3093CE042093CD048755EE
:104420009B4FDC0111960C93F901E755FB4F11826C
:10443000233231050CF480CF1092CE041092CD04BB
:104440007BCF0F5F1F4FABCFE091DE06F091DF0611
:104450000995EAEAF4E0119234E0ED3CF307D9F76C
:10446000C3CF8091A8048111ABCC8091DC029091E4
:10447000DD028230910561F1BCF4009721F10197D2
:1044800009F09ECC80910401909105012B8D3C8D0B
:104490004D8D5E8D29833A834B835C83BE016F5FB4
:1044A0007F4F0E948D0C11C083309105D1F004978D
:1044B00009F086CC80910401909105012F89388DF7
:1044C000498D5A8DE7CF0E94B80D0E94220E78CCFC
:1044D00080910401909105012F85388949895A8975
:1044E000D9CF80910401909105012B893C894D8998
:1044F0005E89D0CF709207016092060161CC8F92E5
:104500009F92AF92BF92CF92DF92EF92FF92CF93A2
:10451000DF93EC01688179818A819B816115710546
:104520008105910521F464E279ED8BE597E02DE1B9
:1045300033EF41E050E00E94AF2449015A019B0152
:10454000AC01A7EAB1E40E94CE246B017C01ACEE81
:10455000B4EFA50194010E94DC24C60ED71EE81E0C
:10456000F91EF7FE06C081E0C81AD108E10880E80C
:10457000F80AC882D982EA82FB82C701B6019F7716
:10458000DF91CF91FF90EF90DF90CF90BF90AF90F1
:104590009F908F9008958F929F92AF92BF92CF92EB
:1045A000DF92EF92FF926091090170910A01809170
:1045B0000B0190910C01611571058105910521F4A4
:1045C00064E279ED8BE597E02DE133EF41E050E0D7
:1045D0000E94AF2449015A019B01AC01A7EAB1E452
:1045E0000E94CE246B017C01ACEEB4EFA5019401D6
:1045F0000E94DC24C60ED71EE81EF91EF7FE06C078
:1046000081E0C81AD108E10880E8F80AC0920901DF
:10461000D0920A01E0920B01F0920C01C701B601A1
:104620009F77FF90EF90DF90CF90BF90AF909F90DB
:104630008F9008956093090170930A0180930B0194
:1046400090930C010895B0E0A0E0E9E2F3E20C944D
:10465000E2245C016B017A016115710519F0FB011F
:1046600091838083E114F10449F0C7010297839795
:1046700028F060E070E0CB019CC05E01E50121966E
:10468000F5011081812F90E00E942C24892BA9F73D
:104690001D3209F056C02196F501118101E0E114A7
:1046A000F10409F4AEC0F0E1EF16F10409F08EC098
:1046B000103341F488818F7D883509F083C01981DA
:1046C00022960260E0E1EE2EF12C88248A94982C48
:1046D000A82CFFE0BF2E20E060E070E0CB012701B6
:1046E0000F2C000C66087708FE0150ED352E310EB8
:1046F00039E0331538F43FEB310F3A31A0F549EC8E
:10470000342E310E3E141F04BCF52F3FB9F086162F
:104710009706A806B90670F1A30192010E947D24B4
:10472000232D30E050E040E0620F731F841F951F7F
:104730006217730784079507E8F021E0219610813E
:10474000D3CF1B3221F4E5012296F501118100E05F
:10475000A6CF78E0E72EF12C88248A94982CA82CF8
:104760006FE1B62EB8CF3FE9310F3A3128F439EA7C
:10477000332EC7CF2FEFE2CFC114D10431F0222363
:10478000E9F02197F601D183C08300FF07C090951F
:104790008095709561957F4F8F4F9F4F2F3F49F4C4
:1047A00082E290E09093E3068093E2066FEF7FEF62
:1047B000CB01CDB7DEB7E1E10C94FE2401FFE5CFDC
:1047C0002297E0CF10E3E114F10419F23AE0E31686
:1047D000F104E9F080E1E816F10409F473CFE8E0B0
:1047E000EE16F10409F4B8CF6FEF7FEFCB0197011C
:1047F0000F2C000C440B550B0E948D2449015A01CB
:104800006ACF103309F456CF9AE0E92EF12C89E9EA
:10481000882E982CA82C89E1B82E5DCFFC01882722
:104820009927E89421912032E9F3293010F02E30B5
:10483000C8F32B3241F02D3239F4689404C00E9441
:104840005C24820F911D219120532A30C0F31EF465
:10485000909581959F4F089591110C946424803216
:1048600019F089508550C8F70895FA01A191B081D7
:10487000009719F41097E1F0CD01DC01CD010D9006
:10488000002011F4C00113C0FB012191222319F073
:104890002015D9F7F3CFFB012191201519F41E92B1
:1048A000119606C02223C1F70D900020A1F7D00178
:1048B000FA01A193B08308957AE0979F902D879F86
:1048C000802D910D11240895992788270895F9992D
:1048D000FECF92BD81BDF89A992780B50895262F05
:1048E000F999FECF1FBA92BD81BD20BD0FB6F894D5
:1048F000FA9AF99A0FBE01960895DB018F939F9360
:104900000E94CE24BF91AF91A29F800D911DA39FC5
:10491000900DB29F900D11240895A1E21A2EAA1BAA
:10492000BB1BFD010DC0AA1FBB1FEE1FFF1FA2175F
:10493000B307E407F50720F0A21BB30BE40BF50B5C
:10494000661F771F881F991F1A9469F760957095E5
:10495000809590959B01AC01BD01CF010895052E76
:1049600097FB1EF400940E94C62457FD07D00E94B6
:104970008D2407FC03D04EF40C94C624509540952A
:10498000309521953F4F4F4F5F4F089590958095FB
:10499000709561957F4F8F4F9F4F08950E94182506
:1049A000A59F900DB49F900DA49F800D911D112483
:1049B0000895B7FF0C94CE240E94CE24821B930B43
:1049C00008952F923F924F925F926F927F928F92B3
:1049D0009F92AF92BF92CF92DF92EF92FF920F938E
:1049E0001F93CF93DF93CDB7DEB7CA1BDB0B0FB698
:1049F000F894DEBF0FBECDBF09942A883988488855
:104A00005F846E847D848C849B84AA84B984C884EA
:104A1000DF80EE80FD800C811B81AA81B981CE0FE1
:104A2000D11D0FB6F894DEBF0FBECDBFED010895C6
:104A3000A29FB001B39FC001A39F700D811D1124DF
:104A4000911DB29F700D811D1124911D0895505824
:104A5000BB27AA270E943F250C94B9260E94AB26AB
:104A600038F00E94B22620F039F49F3F19F426F462
:104A70000C94A8260EF4E095E7FB0C94A226E92FEF
:104A80000E94CA2658F3BA1762077307840795076E
:104A900020F079F4A6F50C94EC260EF4E0950B2E9C
:104AA000BA2FA02D0B01B90190010C01CA01A00180
:104AB0001124FF27591B99F0593F50F4503E68F1DB
:104AC0001A16F040A22F232F342F4427585FF3CF1C
:104AD000469537952795A795F0405395C9F77EF4ED
:104AE0001F16BA0B620B730B840BBAF09150A1F036
:104AF000FF0FBB1F661F771F881FC2F70EC0BA0FBC
:104B0000621F731F841F48F4879577956795B79543
:104B1000F7959E3F08F0B0CF9395880F08F099273E
:104B2000EE0F9795879508950E947E2608F481E000
:104B300008950E94AD250C94B9260E94B22658F023
:104B40000E94AB2640F029F45F3F29F00C94A22686
:104B500051110C94ED260C94A8260E94CA2668F3E5
:104B60009923B1F3552391F3951B550BBB27AA2726
:104B700062177307840738F09F5F5F4F220F331F60
:104B8000441FAA1FA9F335D00E2E3AF0E0E832D028
:104B900091505040E695001CCAF72BD0FE2F29D02B
:104BA000660F771F881FBB1F261737074807AB07FD
:104BB000B0E809F0BB0B802DBF01FF2793585F4F72
:104BC0003AF09E3F510578F00C94A2260C94ED2605
:104BD0005F3FE4F3983ED4F3869577956795B79554
:104BE000F7959F5FC9F7880F911D9695879597F95F
:104BF0000895E1E0660F771F881FBB1F62177307D8
:104C00008407BA0720F0621B730B840BBA0BEE1FEC
:104C100088F7E09508950E9412266894B1110C94CB
:104C2000ED2608950E94D22688F09F5798F0B92F5C
:104C30009927B751B0F0E1F0660F771F881F991FD1
:104C40001AF0BA95C9F714C0B13091F00E94EC2661
:104C5000B1E008950C94EC26672F782F8827B85F71
:104C600039F0B93FCCF3869577956795B395D9F729
:104C70003EF490958095709561957F4F8F4F9F4F33
:104C80000895E89409C097FB3EF49095809570953F
:104C900061957F4F8F4F9F4F9923A9F0F92F96E988
:104CA000BB279395F695879577956795B795F111FD
:104CB000F8CFFAF4BB0F11F460FF1BC06F5F7F4F9A
:104CC0008F4F9F4F16C0882311F096E911C07723AC
:104CD00021F09EE8872F762F05C0662371F096E8B5
:104CE000862F70E060E02AF09A95660F771F881F84
:104CF000DAF7880F9695879597F90895990F000828
:104D0000550FAA0BE0E8FEEF16161706E807F9079D
:104D1000C0F012161306E407F50798F0621B730B38
:104D2000840B950B39F40A2661F0232B242B252BB9
:104D300021F408950A2609F4A140A6958FEF811D5C
:104D4000811D089597F99F6780E870E060E00895FD
:104D50009FEF80EC089500240A9416161706180693
:104D60000906089500240A9412161306140605066F
:104D70000895092E0394000C11F4882352F0BB0F00
:104D800040F4BF2B11F460FF04C06F5F7F4F8F4F63
:104D90009F4F089557FD9058440F551F59F05F3F9E
:104DA00071F04795880F97FB991F61F09F3F79F04D
:104DB00087950895121613061406551FF2CF4695CF
:104DC000F1DF08C0161617061806991FF1CF869551
:104DD0007105610508940895E894BB276627772735
:104DE000CB0197F908950E947E2608F48FEF08956D
:104DF0000E940B270C94B9260E94AB2638F00E9423
:104E0000B22620F0952311F00C94A2260C94A8262B
:104E100011240C94ED260E94CA2670F3959FC1F3CD
:104E2000950F50E0551F629FF001729FBB27F00D58
:104E3000B11D639FAA27F00DB11DAA1F649F6627AD
:104E4000B00DA11D661F829F2227B00DA11D621FFC
:104E5000739FB00DA11D621F839FA00D611D221FB6
:104E6000749F3327A00D611D231F849F600D211D9A
:104E7000822F762F6A2F11249F5750409AF0F1F01D
:104E800088234AF0EE0FFF1FBB1F661F771F881F86
:104E900091505040A9F79E3F510580F00C94A226F6
:104EA0000C94ED265F3FE4F3983ED4F38695779516
:104EB0006795B795F795E7959F5FC1F7FE2B880F2C
:104EC000911D9695879597F908950E947E26880BE7
:104ED000990B0895991B79E004C0991F961708F063
:104EE000961B881F7A95C9F780950895EE0FFF1FCE
:104EF0000590F491E02D0994803209F091110C9401
:104F0000642480528F55D8F70895FB01DC0141508D
:104F1000504030F08D910190801919F40020B9F7BC
:104F2000881B990B0895FB01DC014150504048F06B
:104F300001900D920020C9F701C01D9241505040D0
:084F4000E0F70895F894FFCF9B
:104F4800BC00BC00E8030100FF010000008C2449FC
:104F58000C0E4130041E42480C8C44480C82E04937
:104F6800129CC0411E8CC421041042081E8CC448E7
:104F78000C8EE0480C002385000023FD0000E0FDB6
:104F8800008C14B6128C144A0C00C30000809124C3
:104F98003F80D4B63F0020B53F00F0030080582181
:104FA800000281402040283100C02F3100C0EC3180
:104FB8000000420901A1C448210441480C10C22143
:104FC8000480D4860040187A0000C3000080610085
:104FD80000C03000008061000000C30000008601AE
:104FE80000000C030000860100300C0000100A01CC
:104FF8000018496200100A010021000021520884AB
:10500800128C144A0C0023310000C000000000007C
:105018000000104A0C0008250620841003304208BE
:1050280001182904008C1402004602810003814003
:105038002081402030402090185A005A00550064C2
:10504800006400550064006400550055005A4F572D
:10505800495F424153455F76320023000000005DFE
:1050680001BD00EA00C5011B01F9000D010D0A0090
:105078006E616E00696E66006F76660053004C00C4
:1050880054004D0048004B004300470052004500C3
:1050980044004E00420049005265616420636F6C11
:1050A8006F723A004672657175656E637920523D7C
:1050B800004672657175656E637920473D004672DA
:1050C800657175656E637920423D005363616C6557
:1050D80020666163746F723A20005247422056611D
:1050E8006C7565733A2000524742206C6566743AC5
:0850F800207B007D002C00006C
:00000001FF
