:100000000C9481000C94091A0C94E2190C94A90028
:100010000C94A9000C94A9000C94A9000C94BE188F
:100020000C94A9000C94A9000C94A9000C94301A0B
:100030000C94A9000C94A9000C94A9000C94A9009C
:100040000C9498190C94A9000C9466190C944019FE
:100050000C94A9000C94A9000C94A9000C94A9007C
:100060000C94A9000C94A900252500452000262603
:10007000002525004420002626002525004E2000CE
:100080002626002525004220002626002525004999
:1000900020002626002525004100262600252500D3
:1000A000460026260000000000240027002A000049
:1000B00000000023002600290000000008000201C3
:1000C000000003040700000000000000000102041B
:1000D00008102040800102040810200102040810CA
:1000E0002000000000250028002B00040404040464
:1000F00004040402020202020203030303030302D4
:10010000311B11241FBECFEFD8E0DEBFCDBF12E000
:10011000A0E0B1E0E8EBF0E502C005900D92A83A4E
:10012000B107D9F726E0A8EAB2E001C01D92A93ACA
:10013000B207E1F710E0C1E8D0E004C02197FE016A
:100140000E942E28C038D107C9F70E94FA1B0C94D0
:100150005A280C9400008091FD029091FE020196B5
:100160009093FE028093FD0208950895AF92BF928E
:10017000CF92DF92EF92FF920F931F93CF93DF9373
:100180006C017B018B01040F151FEB015E01AE18A2
:10019000BF08C017D10759F06991D601ED91FC91C4
:1001A0000190F081E02DC6010995892B79F7C501F1
:1001B000DF91CF911F910F91FF90EF90DF90CF9043
:1001C000BF90AF900895FC01538D448D252F30E0F2
:1001D000842F90E0821B930B541710F0CF96089554
:1001E00001970895FC01918D828D981761F0A28D81
:1001F000AE0FBF2FB11D5D968C91928D9F5F9F7347
:10020000928F90E008958FEF9FEF0895FC01918DFC
:10021000828D981731F0828DE80FF11D858D90E069
:1002200008958FEF9FEF0895FC01918D228D892F06
:1002300090E0805C9F4F821B91098F7399270895EE
:1002400080E193E00E94140121E0892B09F420E071
:10025000822F089580E090E0892B29F00E942001F0
:1002600081110C9400000895FC01A48DA80FB92FF2
:10027000B11DA35ABF4F2C91848D90E001968F73CE
:100280009927848FA689B7892C93A089B1898C91ED
:10029000837080648C93938D848D981306C002883C
:1002A000F389E02D80818F7D80830895EF92FF9206
:1002B0000F931F93CF93DF93EC0181E0888F9B8D89
:1002C0008C8D98131AC0E889F989808185FF15C043
:1002D0009FB7F894EE89FF896083E889F989808166
:1002E0008370806480839FBF81E090E0DF91CF9135
:1002F0001F910F91FF90EF900895F62E0B8D10E057
:100300000F5F1F4F0F731127E02E8C8D8E110CC0C5
:100310000FB607FCFACFE889F989808185FFF5CF10
:10032000CE010E943401F1CFEB8DEC0FFD2FF11DBA
:10033000E35AFF4FF0829FB7F8940B8FEA89FB894D
:1003400080818062CFCF0F931F93CF93DF938C0177
:10035000D0E0C0E0F801EC0FFD1F6491662341F08E
:1003600080E193E00E945601892B11F02196F2CF93
:10037000CE01DF91CF911F910F910895CF93DF931D
:10038000EC01888D8823B9F0AA89BB89E889F989AD
:100390008C9185FD03C0808186FD0DC00FB607FCE2
:1003A000F7CF8C9185FFF2CF808185FFEDCFCE0115
:1003B0000E943401E9CFDF91CF910895833081F01D
:1003C00028F4813099F08230A9F008958730A9F09F
:1003D0008830C9F08430B1F4809180008F7D03C0F3
:1003E000809180008F7780938000089584B58F7707
:1003F00084BD089584B58F7DFBCF8091B0008F7749
:100400008093B00008958091B0008F7DF9CFCF9395
:10041000DF93282F30E0F901E754FF4F8491F90171
:10042000E353FF4FD491F901E551FF4FC491CC2321
:10043000A1F081110E94DE01EC2FF0E0EE0FFF1F12
:10044000E155FF4FA591B491EC91ED2381E090E04F
:1004500009F480E0DF91CF91089580E090E0FACF39
:100460001F93CF93DF93282F30E0F901E754FF4F1C
:100470008491F901E353FF4FD491F901E551FF4F06
:10048000C491CC23A9F0162F81110E94DE01EC2F1C
:10049000F0E0EE0FFF1FEF51FF4FA591B4918FB722
:1004A000F894EC91111108C0D095DE23DC938FBF36
:1004B000DF91CF911F910895DE2BF8CFCF93DF937B
:1004C000D0E0C0E08091D2039091D303A091D403F7
:1004D000B091D5030C2E04C0B695A7959795879536
:1004E0000A94D2F7682F61708091D6030E9430027F
:1004F00000000000000061E08091D7030E943002FC
:1005000000000000000060E08091D7030E943002EC
:100510002196CE31D105B1F661E08091D8030E94D9
:10052000300200000000000060E08091D803DF91FD
:10053000CF910C943002CF93DF93CDB7DEB7CC5779
:10054000D1090FB6F894DEBF0FBECDBF2CE7E1E3B3
:10055000F1E0DE01119601900D922A95E1F7660F08
:10056000771F660F771F81E090E08C0F9D1F680F4B
:10057000791FFB0180819181A281B3818093D20395
:100580009093D303A093D403B093D503C458DF4F03
:100590000FB6F894DEBF0FBECDBFDF91CF910C94A4
:1005A0005E021092D2031092D3031092D4031092E1
:1005B000D5030C945E02CF93DF93CDB7DEB7C0575F
:1005C000D1090FB6F894DEBF0FBECDBF20E2EDEA31
:1005D000F1E0DE01999601900D922A95E1F720E174
:1005E000EDECF1E0DE01AF59BF4F01900D922A957D
:1005F000E1F728E1EDEDF1E0DE01A75BBF4F0190EF
:100600000D922A95E1F728E2E5EFF1E0DE0111967F
:1006100001900D922A95E1F7440F551F440F551F85
:100620006230710581F16330710581F161307105CE
:10063000F1F081E090E08C0F9D1F480F591FFA01E7
:1006400080A591A5A2A5B3A58093D2039093D303CF
:10065000A093D403B093D503C059DF4F0FB6F894DD
:10066000DEBF0FBECDBFDF91CF910C945E0281E65D
:1006700090E08C0F9D1F480F591FFA0180819181D6
:10068000A281B381E1CF89E490E0F3CF81E090E0F3
:10069000F0CFCF93DF9390E0FC01E353FF4F249121
:1006A00085519F4FFC0184918823D1F090E0880F01
:1006B000991FFC01EB55FF4FA591B491FC01EF513F
:1006C000FF4FC591D49161110EC09FB7F8948C91E2
:1006D000E22FE0958E238C932881E223E8839FBF4D
:1006E000DF91CF9108958FB7F894EC91E22BEC93C2
:1006F0008FBFF6CF1092FE021092FD021092FC0204
:100700001092FB0261E080E10E94490361E08FE00A
:100710000E94490361E08EE00E94490360E082E0AC
:100720000E9449031092FA021092F90261E080E1FE
:100730000C9430028E3008F08E5087708064809365
:100740007C0080917A00806480937A0080917A00A6
:1007500086FDFCCF809178009091790008953FB795
:10076000F8948091AE029091AF02A091B002B09146
:10077000B10226B5A89B05C02F3F19F00196A11D17
:10078000B11D3FBFBA2FA92F982F8827BC01CD01DB
:10079000620F711D811D911D42E0660F771F881F3A
:1007A000991F4A95D1F708958F929F92AF92BF9269
:1007B000CF92DF92EF92FF926B017C010E94AF0318
:1007C0004B015C01C114D104E104F104B9F00E94B1
:1007D000AF03681979098A099B09683E734081054E
:1007E000910580F321E0C21AD108E108F10888EEF2
:1007F000880E83E0981EA11CB11CE4CFFF90EF90FF
:10080000DF90CF90BF90AF909F908F9008954F92C0
:100810005F926F927F928F929F92AF92BF92CF9290
:10082000DF92EF92FF920F931F93CF93DF93CDB799
:10083000DEB729970FB6F894DEBF0FBECDBF2901F2
:100840003A010115110511F401E010E00E94CA26D9
:1008500069837A838B839C838091510490915204A5
:1008600020912C01281719F12F3F09F49DC0C301D5
:10087000B2010E94D403B801110F880B990B29967D
:100880000FB6F894DEBF0FBECDBFDF91CF911F91A1
:100890000F91FF90EF90DF90CF90BF90AF909F901F
:1008A0008F907F906F905F904F900C94D403EFEFF8
:1008B000F0E02491298727FDDACF61E00E94490307
:1008C0008985882321F09985923009F05FC189815B
:1008D0009A814C01B12CA12C60E072E18AE790E092
:1008E000A50194010E9467252D833E834F8358877D
:1008F00069017A0191E0C91AD108E108F1082FEFE6
:10090000C216D104E104F10409F00CF414C160E44E
:1009100072E48FE090E0A50194010E9467256901CF
:100920007A0181E0C81AD108E108F108998592306E
:1009300009F0B5C082E02FEFC216D104E104F10442
:1009400009F00CF4E0C160E970ED83E090E0A501EE
:1009500094010E94672569017A0181E0C81AD108D3
:10096000E108F10883E09FEFC916D104E104F10426
:1009700009F00CF4C8C168E478EE81E090E0A501CC
:1009800094010E94672569017A0191E0C91AD10892
:10099000E108F1082FEFC216D104E104F10411F0CF
:1009A0000CF0A1C084E0AFC180932C01EFEFF0E028
:1009B000249129872F3F09F45ACF213041F150F07B
:1009C000223009F446C0298527FD51CF61E00E94FD
:1009D000490379CF14BC15BC24B5226024BD25B5CC
:1009E000216025BD9C013327F901E551FF4FE491BA
:1009F000F0E0EE0FFF1FEF51FF4F45915491F901C9
:100A0000E353FF4FE491E0930303198656CF10920E
:100A10008000109281002091810028602093810045
:100A2000209181002160209381009C013327F901EE
:100A3000E551FF4FE491F0E0EE0FFF1FEF51FF4F44
:100A400045915491F901E353FF4FE491E093020380
:100A500034CF1092B0001092B1002091B00022600B
:100A60002093B0002091B10021602093B1009C013F
:100A70003327F901E551FF4FE491F0E0EE0FFF1F3E
:100A8000EF51FF4F45915491509301034093000360
:100A9000F901E353FF4FE491E093FF020ECF2FEFF4
:100AA000C216D104E104F10409F00CF46DC068E44D
:100AB00078EE81E090E0A50194010E94672569012C
:100AC0007A0181E0C81AD108E108F10899859923D3
:100AD00009F4E5C02FEFC216D104E104F10411F0CE
:100AE0000CF0E6C05FCF64E274EF80E090E0A50117
:100AF00094010E94672569017A0181E0C81AD10832
:100B0000E108F10885E09FEFC916D104E104F10482
:100B100009F008F4F8C062E17AE780E090E0A5010E
:100B200094010E94672569017A0181E0C81AD10801
:100B3000E108F108CFC081E029852111E4C095B515
:100B4000987F892B85BD2FEF3FEFA90141145104F8
:100B50006104710409F057C08985813009F462C0CD
:100B6000823009F471C0811182CEC7BC20930C037E
:100B700030930D0340930E0350930F0380916E004A
:100B8000826080936E0073CE82E0D6CF89819A8195
:100B90004C01B12CA12C60E072E18AE790E0A50144
:100BA00094010E94672569017A0191E0C91AD10870
:100BB000E108F10891E0C114D10421E0E206F1045A
:100BC00084F068E478EE81E090E0A50194010E9451
:100BD000672569017A0181E0C81AD108E108F108A6
:100BE00093E02985213009F0AECF80918100887F84
:100BF000892B809381002FEF3FEFA901411451040D
:100C00006104710479F0A981BA81AA0FBB1FA30105
:100C100092010E94862528EE33E040E050E00E94D9
:100C200045259ACFD0928900C0928800209308036E
:100C30003093090340930A0350930B0380916F0094
:100C4000826080936F0013CEC092B30020930403A0
:100C5000309305034093060350930703809170007F
:100C600082608093700003CECD80DE80EF80F884B8
:100C70008AE0F594E794D794C7948A95D1F721E058
:100C8000C21AD108E108F10885E059CF8FEFC816E4
:100C9000D104E104F10409F038F784E050CF83E097
:100CA0009FEFC916D104E104F10409F00CF447CF19
:100CB00062E17AE780E090E0A50194010E94672557
:100CC00069017A0181E0C81AD108E108F108998523
:100CD0009923E1F286E09FEFC916D104E104F10403
:100CE00091F088F0CD80DE80EF80F8849AE0F59472
:100CF000E794D794C7949A95D1F781E0C81AD108A0
:100D0000E108F10887E09091B100987F892B8093EA
:100D1000B10019CF4F925F926F927F928F929F9204
:100D2000AF92BF92CF92DF92EF92FF920F931F93F9
:100D3000CF93DF93CDB7DEB728970FB6F894DEBF19
:100D40000FBECDBF2B013C0129833A834B835C83CB
:100D5000ED82FE820F8318870E94C3268B012981B2
:100D60003A814B815C81C301B2010E944C2687FF0E
:100D700025C0B801110F880B990B0E94FB262B018F
:100D80003C01AC019B0169817A818B819C810E942D
:100D9000AB271816C4F58401A6019501C301B20161
:100DA0000E9407042D813E814F815885C301B20105
:100DB0000E94B0270E94C3268B01DBCFB801110F20
:100DC000880B990B0E94FB262B013C01AC019B0177
:100DD00069817A818B819C810E944C2687FF13C098
:100DE0008401A6019501C301B2010E9407042D816F
:100DF0003E814F815885C301B2010E9451260E9455
:100E0000C3268B01DBCF28960FB6F894DEBF0FBE4A
:100E1000CDBFDF91CF911F910F91FF90EF90DF90A9
:100E2000CF90BF90AF909F908F907F906F905F908A
:100E30004F9008958F929F92AF92BF92CF92DF9280
:100E4000EF92FF921F93CF93DF9385E10E949A0365
:100E5000CAE0D0E0C12CD12C760115E085E10E94DA
:100E60009A03189FB001199F700D1124072E000CD2
:100E7000880B990B0E94FB2620E030E040E85AE303
:100E80000E94B0274B015C0126E636E646E850E4B6
:100E90000E94AB2718163CF486E6882E982C86E82C
:100EA000A82E80E4B82E2FEB36E842ED52E4C501BF
:100EB000B4010E94B0272CE73DE04BEA53E40E94C6
:100EC000DF254B015C0120E030E0A9010E944C26A7
:100ED00087FF03C0812C912C5401A5019401C70107
:100EE000B6010E94E0256B017C0161E070E080E0CA
:100EF00090E00E94D403219709F0B0CF20E030E0C9
:100F000040E251E4C701B6010E945126DF91CF9122
:100F10001F91FF90EF90DF90CF90BF90AF909F9088
:100F20008F9008958F929F92AF92BF92CF92DF924F
:100F3000EF92FF920F931F93CF93DF93019782312C
:100F40009105B8F4FC01E955F84F0C942E28EA07F6
:100F50000D08410854086B088E08BA08E9081809FA
:100F6000470971099609C409EF09060A470A5E0A8A
:100F7000750A0EE110E022E330E040E050E064EA60
:100F800070ED84E294E40E94070409E110E027E395
:100F900030E040E050E062E570ED84EA94E40E94C5
:100FA00007040AE010E02CE330E040E050E060E0AD
:100FB00070E08CED94E40E940704DF91CF911F91C3
:100FC0000F91FF90EF90DF90CF90BF90AF909F90E8
:100FD0008F9008950EE110E022E330E040E050E011
:100FE00064EA70ED84E294E40E94070409E110E0F1
:100FF00027E330E040E050E060E070E08CED94E406
:101000000E9407040AE010E022E330E040E050E0F4
:1010100062E570ED84EA94E4CECF92E0892E912CC3
:1010200024E1A22EB12CC12CD12C1AE0E12E17ED17
:10103000F12E03E81FE32CE53FEF43EC54E462E5B7
:1010400070ED84EA94E40E948A066EE170E080E02C
:1010500090E00E94D4034AE0A42EB12CC12CD12CE4
:1010600018EBE12E1EE1F12E05E81FE32FE135ED2F
:1010700042E155E462E570ED84EA94E40E948A0658
:101080009CCFCAE08C2E912CDEE1AD2EB12CC12C70
:10109000D12C1CE5E12E1FE8F12E02E81FE320E031
:1010A00030E04CED54E4E6CFFAE08F2E912CAEE127
:1010B000AA2EB12CC12CD12C1AE0E12E17EDF12E65
:1010C00003E81FE32FE135ED42E155E46CE57FEFE6
:1010D00083EC94E4D3CF04E610E022E330E040E078
:1010E00050E062E570ED84EA94E40E94070400E5B4
:1010F00010E022E330E040E050E06CE57FEF83EC6D
:1011000094E40E94070410E000E02CE231E040E0AB
:1011100050E06FE175ED82E195E44DCF8824839432
:10112000912C5AE0A52EB12CC12CD12C1CE5E12E1E
:101130001FE8F12E02E81FE320E030E646E055E428
:1011400060E070E088E494E40E948A0677E0A72ECD
:10115000B12CC12CD12C1AE0E12E17EDF12E03E8B1
:101160001FE320E030E048E454E460E070E586E00E
:1011700095E484CF93E0892E912C28E0A22EB12C07
:10118000C12CD12C18EBE12E1EE1F12E05E81FE356
:1011900020E030E04AEF54E460E070E08CE594E455
:1011A0000E948A0668EC70E080E090E00E94D40320
:1011B000C6E1D0E00AE010E025E030E040E050E099
:1011C00068E471EF86E794E40E940704219791F7A1
:1011D000F4CEC3E08C2E912CD8E0AD2EB12CC12CD6
:1011E000D12C1AE0E12E17EDF12E03E81FE320E0E9
:1011F00030E84BE355E460E070E08BEE94E40E944D
:101200008A0668EC70E080E090E00E94D403C0E1C0
:10121000D0E00AE010E02AE030E040E050E060E09A
:1012200070ED82E894E40E940704219791F7C5CEFF
:1012300064E0862E912C70E1A72EB12CC12CD12C0C
:101240001AE0E12E17EDF12E03E81FE320E030E075
:1012500041E654E460E070E08FE294E40E948A0684
:10126000F7E08F2E912CA2E1AA2EB12CC12CD12C0B
:101270001EEAE12E17E4F12E01E81FE320E030E83A
:1012800042E254E460E070EC80E694E4F7CE2AE0B9
:10129000822E912C3AE0A32EB12CC12CD12C18EB2C
:1012A000E12E1EE1F12E05E81FE320E030E04AEFD9
:1012B00053E460E070E088EC92E40E948A0664EFF8
:1012C00071E080E090E00E94D40388248394912C04
:1012D00020E030E048EC52E460E070E088EC93E419
:1012E000CDCED8E08D2E912C14E1A12EB12CC12CA5
:1012F000D12C16E6E12EFE2C06E81FE320E030E4B8
:101300004CE155E460E070E88BEB94E40E948A06BF
:1013100099E1A92EB12CC12CD12C20E030E84BEB67
:1013200054E460E070E38CE195E4A8CEE3E08E2E17
:10133000912CF8E0AF2EB12CC12CD12C16E6E12E69
:10134000FE2C06E81FE320E030E84BEB55E460E0BC
:1013500070E08AEF94E40E948A0662E370E080E025
:1013600090E00E94D403B2E08B2E912CCDE0AC2E05
:10137000B12CC12CD12C20E030E04AEF54E460E0E5
:1013800078E78BEB95E47ACE48E0842E912C5FE0F1
:10139000A52EB12CC12CD12C16E6E12EFE2C06E890
:1013A0001FE320E030E04AEF54E460E070E88BEBAC
:1013B00094E40E948A0664E670E080E090E00E9477
:1013C000D4037AE0A72EB12CC12CD12C20E030E43C
:1013D0004CE155E460E070E88DEE94E44FCE98EC7B
:1013E000892E912C24E1A22EB12CC12CD12C1CE5EC
:1013F000E12E1FE8F12E02E81FE320E030E447E28F
:1014000054E460E070E08CE594E438CEF2E08F2E96
:10141000912CA8E0AA2EB12CC12CD12C1AE0E12EDF
:1014200017EDF12E03E81FE320E030E844ED54E42B
:1014300060E070E08AE794E40E948A06C3E08C2EA4
:10144000912C18EBE12E1EE1F12E05E81FE320E0C0
:1014500030E04AEF53E460E070E684ED94E40E94EB
:101460008A061AE0812E912C09E0A02EB12CC12C05
:10147000D12C16E6E12EFE2C06E81FE320E030E832
:1014800044ED54E460E070E08AE794E4F7CD6FE067
:10149000862E912C72E0A72EB12CC12CD12C1CE5EC
:1014A000E12E1FE8F12E02E81FE320E030E84BE3D5
:1014B00055E460E070E088EC94E4E0CD34E1832E04
:1014C000912C42E0A42EB12CC12CD12C1CE5E12E94
:1014D0001FE8F12E02E81FE320E030E84BEB55E473
:1014E00060E070E08AEF94E4C9CD84E1882E912C0D
:1014F00092E0A92EB12CC12CD12C1CE5E12E1FE8C5
:10150000F12E02E81FE320E030E04AE755E460E016
:1015100070E088EC94E40E948A0620E030E84BE317
:1015200055E460E070E08AE795E4A8CD2FB7F89421
:101530006091AA027091AB028091AC029091AD02D1
:101540002FBF0895CF93C62F1092FE021092FD0276
:101550002091B6023091B7022F5F3F4F3093B70210
:101560002093B6026111862F682F61708FE00E9470
:1015700030026C2F8EE00E9430020E94960A609327
:10158000B2027093B3028093B4029093B502CF91EC
:101590000895DC01EC918E2F90E0FC01EE0FFF1F0F
:1015A000E80FF91FE355FC4F808186FF02C08F7B57
:1015B00080830895CF92DF92EF92FF92CF93DF93D3
:1015C000EC01603282E07807CCF5653B710514F0E0
:1015D00064EB70E0898128E830E0281B310987FD41
:1015E0003395220F331F220F331F6901330FEE088B
:1015F000FF088A8128E532E0281B310987FD3395F1
:10160000220F331F220F331F032E000C440B550BE8
:101610002C193D094E095F09DB0177FF02C0B0E0DC
:10162000A0E00E94912524EB30E040E050E00E94D1
:101630006725C20ED31EE41EF51EB601E881EC300C
:1016400070F5298188E890E0821B910927FD939528
:10165000880F991F880F991F681779077CF02A81D6
:1016600088E592E0821B910927FD9395880F991FC9
:10167000880F991F681779070CF4CB010297880F20
:10168000991F4FB7F8942E2F30E0F901EE0FFF1F8E
:10169000E20FF31FE355FC4F928381834FBFDF912D
:1016A000CF91FF90EF90DF90CF9008951F93CF934D
:1016B000DF93EC01162F88818C3008F04EC061E07A
:1016C000812F0E9449038881282F30E0F901EE0F15
:1016D000FF1FE20FF31FE355FC4F1F736081607C17
:1016E000612B608319821A822CE0622F0E942228CB
:1016F000829FB001112430E020E0AB01420F531F64
:10170000FA01EE0FFF1FE40FF51FE355FC4F908128
:1017100096FD16C02F5F3F4F2C30310571F78111B8
:101720000FC01092800082E08093810010928500AB
:1017300010928400B19A80916F00826080936F0054
:10174000E8818E2F90E0FC01EE0FFF1FE80FF91FDC
:10175000E355FC4F8081806480838881DF91CF9145
:101760001F910895E091DA038E2F90E0FC01EE0FB7
:10177000FF1FE80FF91FE355FC4F808186FD58C01D
:1017800060914504709146048AED93E00E94560BE7
:101790006AE570E08AED93E00E94DA0A8EE190E05B
:1017A0009093F8038093F70380ED97E09093E20322
:1017B0008093E10380E090E0A4E8B2E48093F30337
:1017C0009093F403A093F503B093F6038AE198EFA6
:1017D000A2ECBDE38093EF039093F003A093F10399
:1017E000B093F2031092F9031092FA031092FB03E4
:1017F0001092FC038DE290E09093DE038093DD0372
:101800001092EB031092EC031092ED031092EE0392
:101810001092E3031092E4031092E5031092E603A2
:101820001092E0031092DF03109201041092020460
:10183000E09103048E2F90E0FC01EE0FFF1FE80FF4
:10184000F91FE355FC4F808186FD58C06091470425
:101850007091480483E094E00E94560B6AE570E0C2
:1018600083E094E00E94DA0A8EE190E090932104F4
:101870008093200480ED97E090930B0480930A04FA
:1018800080E090E0A4E8B2E480931C0490931D04EF
:10189000A0931E04B0931F048AE198EFA2ECBDE36D
:1018A0008093180490931904A0931A04B0931B0416
:1018B0001092220410922304109224041092250402
:1018C0008DE290E090930704809306041092140434
:1018D00010921504109216041092170410920C0422
:1018E00010920D0410920E0410920F04109209042D
:1018F0001092080410922A0410922B0408958F92DB
:101900009F92AF92BF92CF92DF92EF92FF920F938E
:101910001F93CF93DF936C018B010E94B20B8091D8
:101920006D04811110926D04F801C081D181FBE03A
:10193000CF16D1048CF56091E9037091EA036C0F26
:101940007D1F8AED93E00E94DA0AF80162817381BB
:101950008091120490911304680F791F83E094E042
:101960000E94DA0AF8018081918190934E0480935D
:101970004D04828193819093500480934F04DF91B2
:10198000CF911F910F91FF90EF90DF90CF90BF907C
:10199000AF909F908F9008950D2C000CEE08FF08DB
:1019A000C701B6010E94FB2620E030E040E251E48E
:1019B0000E9451264B015C0180914D0490914E0490
:1019C000BE01681B790B072E000C880B990B0E9437
:1019D000FB26A50194010E94512660935D0470933B
:1019E0005E0480935F0490936004F80162817381C8
:1019F00080914F0490915004681B790B072E000CC6
:101A0000880B990B0E94FB26A50194010E94512688
:101A10006093610470936204809363049093640400
:101A20000E94960AC60ED71EE81EF91EC0925504E3
:101A3000D0925604E0925704F0925804C1E0D0E0EE
:101A40000E94960AC0905504D0905604E090570426
:101A5000F09058046C157D058E059F0508F082CF27
:101A60000E94960A665F7F4F8F4F9F4F6093590485
:101A700070935A0480935B0490935C04BE010D2E16
:101A8000000C880B990B0E94FB266B017C012091B6
:101A90005D0430915E0440915F04509160040E94A7
:101AA000B0274B015C0160914D0470914E04072EEC
:101AB000000C880B990B0E94FB269B01AC01C50111
:101AC000B4010E94E0250E94C3262091E9033091D1
:101AD000EA03620F731F8AED93E00E94DA0A2091F5
:101AE0006104309162044091630450916404C70121
:101AF000B6010E94B0276B017C0160914F04709188
:101B00005004072E000C880B990B0E94FB269B01AA
:101B1000AC01C701B6010E94E0250E94C3262091B6
:101B2000120430911304620F731F83E094E00E944B
:101B3000DA0A0E94960AC0905904D0905A04E090A4
:101B40005B04F0905C046C157D058E059F0588F3A1
:101B5000219676CFCF93DF9300D000D0CDB7DEB7FC
:101B600080916D0481111EC080911D0290911E0212
:101B7000A0911F02B091200289839A83AB83BC831A
:101B8000BE016F5F7F4F84EF91E00E947F0C8AED72
:101B900093E00E94C90A83E094E00E94C90A81E0B0
:101BA00080936D040F900F900F900F90DF91CF9165
:101BB0000895CF93DF9300D000D0CDB7DEB740912A
:101BC00021025091220260912302709124024983E4
:101BD0005A836B837C83BE016F5F7F4F0E947F0CB3
:101BE0000F900F900F900F90DF91CF910895CF93AA
:101BF000DF9300D000D0CDB7DEB7409125025091E1
:101C00002602609127027091280249835A836B83D0
:101C10007C83BE016F5F7F4F0E947F0C0F900F90FF
:101C20000F900F90DF91CF910895CF93DF9300D065
:101C300000D0CDB7DEB74091290250912A026091C1
:101C40002B0270912C0249835A836B837C83BE01E3
:101C50006F5F7F4F0E947F0C0F900F900F900F903F
:101C6000DF91CF910895FC0101900020E9F73197B1
:101C7000AF01481B590BBC0180E193E00C94B60006
:101C80008F929F92AF92BF920F931F93CF93DF9348
:101C9000CDB7DEB7A1970FB6F894DEBF0FBECDBFAC
:101CA00019A2423008F44AE08E010F5D1F4F842EC6
:101CB000912CB12CA12CA50194010E944525E62F61
:101CC000B901CA01EA30F4F4E05DD801EE938D0168
:101CD000232B242B252B79F790E080E0109719F027
:101CE000CD010E94330EA1960FB6F894DEBF0FBE51
:101CF000CDBFDF91CF911F910F91BF90AF909F907B
:101D00008F900895E95CE1CFCF93DF930E94330E6B
:101D1000EC018FE592E00E94330E8C0F9D1FDF9146
:101D2000CF910895CF93DF930E94A301EC018FE53B
:101D300092E00E94330E8C0F9D1FDF91CF9108958A
:101D40006EE170E080E090E00E94D40382EA90E0CF
:101D50000E94A30180EA90E00E94A3018DE990E037
:101D60000E94920E80E193E00C94BE016EE170E05F
:101D700080E090E00E94D4038AE990E00E94A301F1
:101D800088E990E00E94A30185E990E00E94920E0C
:101D900080E193E00C94BE010E94B60E0E94AA0D51
:101DA0000C94A00E0E94AA0D82E990E00E94A3016B
:101DB0008FE890E00E94A30181E392E00E94330E3D
:101DC0008CE890E00E94920E80E193E00C94BE01BA
:101DD000CF92DF92EF92FF92CF93DF936C01990F36
:101DE000EE08FF08F7FE19C06DE280E193E00E9463
:101DF0005601EC0166277727CB016C197D098E0906
:101E00009F094AE00E94400E8C0F9D1FDF91CF91E9
:101E1000FF90EF90DF90CF9008954AE0C701B601A0
:101E2000DF91CF91FF90EF90DF90CF900C94400E18
:101E3000CF93DF930E94AA0D809153040E949A03CE
:101E4000809153040E949A03EC0164E070E080E00A
:101E500090E00E94D403809153040E949A03C80F1B
:101E6000D91F64E070E080E090E00E94D40380E835
:101E700090E00E94A3018DE790E00E94A301CE01B3
:101E8000D7FD0196959587950E94E80E8AE790E028
:101E90000E94920E80E193E0DF91CF910C94BE01FD
:101EA0008F929F92AF92BF92CF92DF92EF92FF926A
:101EB0000E94AA0D0E941A076B017C0189E890E03C
:101EC0000E94A30186E890E00E94A301A701960169
:101ED000C701B6010E941D288823A1F082E692E086
:101EE0000E94330E83E890E00E94920E80E193E01E
:101EF000FF90EF90DF90CF90BF90AF909F908F902A
:101F00000C94BE0146015701E894B7F82FEF3FEF5C
:101F10004FE75FE7C501B4010E941D2881110DC084
:101F20002FEF3FEF4FE75FE7C501B4010E944C265A
:101F300018161CF486E692E0D3CF2FEF3FEF4FE761
:101F40005FE4C701B6010E94AB2718161CF48AE6AD
:101F500092E0C6CF2FEF3FEF4FE75FECC701B6012E
:101F60000E944C2687FDF3CF20E030E0A901C70195
:101F7000B6010E944C2687FF09C06DE280E193E024
:101F80000E945601F7FAF094F7F8F0942AE037ED42
:101F900043EA5BE3C701B6010E94E0254B015C0107
:101FA0000E94CA266B017C010E94F9269B01AC01AC
:101FB000C501B4010E94DF254B015C014AE0C70165
:101FC000B6010E94400E6EE280E193E00E9456014D
:101FD00020E030E040E251E4C501B4010E94B027A6
:101FE0004B015C010E94CA266B01F12CE12C4AE0F6
:101FF000C701B6010E94400EC701B6010E94F92632
:102000009B01AC01C501B4010E94DF2520E030E056
:1020100040E251E40E94B0270E94CA2690E080E08E
:102020004AE00E94400E5ECF81E08093F6029091DC
:10203000F802911108C08093F8026FE070E080E030
:1020400090E00C949B02089581E08093F7029091B8
:10205000F802911108C08093F8026FE070E080E010
:1020600090E00C949B0208951F93CF93DF932091EF
:102070009B0430919C042E30310504F5EB01BC012A
:1020800015E2129FC001139F900D112443E250E00E
:1020900083569B4F0E944B2880919B0490919C04F7
:1020A000189FF001199FF00D1124E054FB4FD183CC
:1020B000C083019690939C0480939B04DF91CF9101
:1020C0001F91089549E954E064E974E090E080E0EC
:1020D0000C94ED24CF93DF9300D0CDB7DEB70E94F0
:1020E000B60E0E94AA0D0E9462100097C1F042E055
:1020F00050E0BE016F5F7F4F0E94DB236093D203ED
:102100007093D3038093D4039093D5030E945E020F
:102110000E94A00E0F900F90DF91CF9108956AE179
:1021200070E080E090E00E949B0260ED77E080E04C
:1021300090E00E94D4030E94D102EACFCF92DF92B6
:10214000EF92FF920F931F93CF93DF930E94B60EEF
:102150000E94AA0D0E94621011E0009721F00E94D7
:10216000C624EC0110E00E946210009721F00E944A
:10217000C6241123C1F06AE170E080E090E00E9483
:102180009B0260ED77E080E090E00E94D4030E9423
:10219000D102DF91CF911F910F91FF90EF90DF90CF
:1021A000CF900C94A00E6C01990FEE08FF08BE01B1
:1021B000DD0F880B990B0E94FB2601E010E0A701C0
:1021C00096010E940704E5CF0E94B60E80916D042F
:1021D000811110926D040E946210009791F00E948C
:1021E000C6249093CB028093CA020E94621000978B
:1021F000D9F00E94C62490932901809328010C9461
:1022000062106AE170E080E090E00E949B0260ED65
:1022100077E080E090E00E94D4030E94D102109207
:10222000CB021092CA02E1CF88EE93E0E4CF2F9266
:102230003F924F925F926F927F928F929F92AF9256
:10224000BF92CF92DF92EF92FF920F931F93CF93A3
:10225000DF9300D000D0CDB7DEB70E94B60E0E944B
:10226000AA0D0E9462100097C1F00E94C624019737
:102270008D30910500F5FC01E05CFE4E0C942E289B
:1022800073118E11B7112812B412111322133313C4
:10229000AC13EF1389149A15EF156AE170E080E032
:1022A00090E00E949B0260ED77E080E090E00E9469
:1022B000D4030E94D1020F900F900F900F90DF91E6
:1022C000CF911F910F91FF90EF90DF90CF90BF9033
:1022D000AF909F908F907F906F905F904F903F90C6
:1022E0002F900C94A00E0EE110E022E330E040E0CD
:1022F00050E064EA70ED84E294E40E9407046AE02E
:1023000070E080E090E00E949B028DE090E00E94EF
:1023100092078DE090E00E94920720C06BE070E091
:1023200080E090E00E949B028BE090E00E94920788
:102330006CE070E080E090E00E949B026BE070E057
:1023400080E090E00E949B028CE090E00E94920767
:102350006CE070E080E090E00E949B020E94AA0D79
:102360006BE070E080E090E00E949B02A4CF66E109
:1023700070E080E090E00E949B0228EC822E912C7D
:1023800034E1A32EB12CC12CD12C1CE5E12E1FE889
:10239000F12E02E81FE320E030E84FE454E460E06F
:1023A00070E08CE594E40E948A0668E170E080E0C9
:1023B00090E00E949B0220E030E845E454E460E0B5
:1023C00070E88FE494E40E948A0667E170E080E0A0
:1023D00090E00E949B0220E030E049E354E460E09A
:1023E00070E885E494E40E948A0668E170E080E089
:1023F00090E00E949B0220E030E04FE254E460E075
:1024000070E089E394E40E948A0667E170E080E06E
:1024100090E00E949B0220E030E447E254E460E058
:1024200070E08FE294E40E948A0666E170E080E04A
:1024300090E00E949B0264EF71E080E090E00E94D7
:10244000D4030E94AA0D6CE271E080E090E0E6C047
:1024500024E030E03A83298350E040E061E070E01E
:1024600080E090E00E94DB02BAE08B2E912C1AE013
:10247000A12EB12CC12CD12C18EBE12E1EE1F12E96
:1024800005E81FE320E030E048E453E460E070E05A
:1024900088EC92E40E948A0641E050E061E070E03E
:1024A00080E090E00E94DB0220E030E046E953E467
:1024B00060E070E088E493E40E948A0642E050E025
:1024C00061E070E080E090E00E94DB0220E030E01C
:1024D0004AEF53E460E070E086E993E40E948A06E4
:1024E00064EF71E080E090E00E94D40341E050E0AE
:1024F00061E070E080E090E00E94DB028824839439
:10250000912C20E030E04AE753E460E070E088EC92
:1025100093E40E948A0650E040E061E070E080E0D1
:1025200090E00E94DB0220E030E048EC52E460E002
:1025300070E08AE793E40E948A0664EF71E080E02D
:1025400090E00E94D40389819A8101979A838983BC
:10255000892B09F081CF63E170E080E090E00E9478
:102560009B0289E090E0D7CE6CE271E080E090E0E1
:102570000E94D40363E170E080E090E00E949B023F
:1025800080E190E00E94920760E170E080E090E0DE
:102590000E949B026AEF70E080E090E00E94D4030A
:1025A0006CE271E080E090E00E94D40363E170E0AF
:1025B00080E090E00E949B0281E190E00E949207FF
:1025C00060E170E080E090E00E949B026AEF70E0C2
:1025D00080E090E00E94D4036CE271E080E090E043
:1025E0000E94D40363E170E080E090E00E949B02CF
:1025F00082E190E00E94920760E170E080E090E06C
:102600000E949B026CE271E080E090E00E94D403A3
:102610000E94AA0D64EF71E080E090E00E94D40374
:102620009FCE64E170E080E090E00E949B028FE02A
:1026300090E00E94920764EF71E080E090E00E94D9
:10264000D4038CCE6DE070E080E090E00E949B02AD
:1026500089E090E00E9492070E94AA0D8DE090E030
:102660000E9492077DCE6EE170E080E090E00E94D3
:102670009B020EE110E024E630E040E050E060E034
:1026800070E08CE594E40E94070444E0842E912CD1
:1026900057E0A52EB12CC12CD12C1CE5E12E1FE852
:1026A000F12E02E81FE32FE135ED42E954E460E04A
:1026B00070E08CE594E40E948A0688248394912C2F
:1026C000EAE0AE2EB12CC12CD12C2CE53FEF43EC2F
:1026D00054E46FE175ED82E994E40E948A0620E0FB
:1026E00030E04CE554E46CE57FEF83EC94E40E9429
:1026F0008A066FE070E080E090E00E94D403F4E08E
:102700008F2E912CA4E1AA2EB12CC12CD12C24EA1D
:1027100030ED44E254E460E070E08CE594E40E9423
:102720008A0660E971E080E090E00E94D4032FE126
:1027300035ED42E954E460E070E08CE594E40E94F9
:102740008A0624EA30ED44E254E460E070E08CE56F
:1027500094E40E948A0602CE6EE170E080E090E090
:102760000E949B0294E0892E912C24E1A22EB12C90
:10277000C12CD12C1CE5E12E1FE8F12E02E81FE34D
:102780002FE135ED42E954E460E070E08CE594E43B
:102790000E948A0624EA30ED44E254E460E070E0EE
:1027A0008CE594E40E948A066CE271E080E090E09F
:1027B0000E94D40363E170E080E090E00E949B02FD
:1027C0000E94AA0D0E94AA0D0E94AA0D0E94AA0DA5
:1027D0006EE170E080E090E00E949B022CCF24E04C
:1027E00030E03A83298300E911E01C821B824B818F
:1027F0005C8162E070E080E090E00E94DB02180102
:1028000034E6230E311CB801110F880B990B0E947E
:10281000FB262B013C01B101032C000C880B990B0A
:102820000E94FB269B01AC011AE0812E912C0AE04C
:10283000A02EB12CC12CD12C18EBE12E1EE1F12ED3
:1028400005E81FE3C301B2010E948A068B819C81C7
:1028500001969C838B838101069749F60E94D102E1
:1028600018EBE12E1EE1F12E05E81FE320E030E831
:1028700049E854E4C301B2010E948A0628EE33E01D
:102880003C832B83312C212CA10162E070E080E09D
:1028900090E00E94DB026B817C816C597F4F072E98
:1028A000000C880B990B0E94FB262B013C012B810D
:1028B0003C81B901330F880B990B0E94FB26EAE09B
:1028C0008E2E912CFAE0AF2EB12CC12CD12C18EB0E
:1028D000E12E1EE1F12E05E81FE3A30192010E9403
:1028E0008A068B819C81845691099C838B839FEF00
:1028F000291A390A2B813C812039314029F6298156
:102900003A81215031093A832983232B09F06BCF77
:102910009ACD82E090E09A83898384EF91E09C8352
:102920008B83312C212CA10163E070E080E090E0EA
:102930000E94DB026B817C816C597F4F072E000C5B
:10294000880B990B0E94FB262B013C012B813C81BB
:10295000B901330F880B990B0E94FB263AE0832EB6
:10296000912C4AE0A42EB12CC12CD12C1CE5E12ED7
:102970001FE8F12E02E81FE3A30192010E948A06DC
:102980008B819C818B599F4F9C838B839FEF291A4E
:10299000390A2AE02216310431F686EE95E09C834E
:1029A0008B83312C212CA10163E070E080E090E06A
:1029B0000E94DB026B817C816C597F4F072E000CDB
:1029C000880B990B0E94FB262B013C012B813C813B
:1029D000B901330F880B990B0E94FB26AAE08A2EBF
:1029E000912CBAE0AB2EB12CC12CD12C1CE5E12EE0
:1029F0001FE8F12E02E81FE3A30192010E948A065C
:102A00008B819C818B599F4F9C838B839FEF291ACD
:102A1000390A2AE02216310431F688ED99E09C83C8
:102A20008B83312C212CA10163E070E080E090E0E9
:102A30000E94DB026B817C8164567109072E000CB9
:102A4000880B990B0E94FB262B013C012B813C81BA
:102A5000B901330F880B990B0E94FB265AE0852E93
:102A6000912CEAE0AE2EB12CC12CD12C1CE5E12E2C
:102A70001FE8F12E02E81FE3A30192010E948A06DB
:102A80008B819C81855691099C838B839FEF291AAA
:102A9000390A2B813C81263E354029F6312C212CE8
:102AA000A10163E070E080E090E00E94DB026B81B6
:102AB0007C8164567109072E000C880B990B0E94CB
:102AC000FB262B013C012B813C81B901330F880B84
:102AD000990B0E94FB262AE0822E912C3AE0A32E2D
:102AE000B12CC12CD12C1CE5E12E1FE8F12E02E8FF
:102AF0001FE3A30192010E948A068B819C81855667
:102B000091099C838B839FEF291A390A2AE02216A8
:102B1000310431F689819A81019739F40E94D102FA
:102B200064E670E080E090E079CD21E030E03A8327
:102B30002983F3CE6FE070E080E090E00E949B027A
:102B400020E436E03A83298329813A81B901330FA1
:102B5000880B990B0E94FB2601E010E02FE030E08B
:102B600040E050E00E94070489819A8144969A834C
:102B70008983803F9A4041F76EE070E080E090E00A
:102B80000E949B0229813A81B901330F880B990B6E
:102B90000E94FB2601E010E02FE030E040E050E032
:102BA0000E94070489819A8144969A838983803A96
:102BB0009F4041F76BE070E080E090E00E949B0254
:102BC0008CE090E00E9492076CE070E080E090E082
:102BD0000E949B020E94AA0D0E94D102C1CB67E114
:102BE00070E080E090E00E949B0201E010E028ECA1
:102BF00030E040E050E060E070E081E694E40E9464
:102C0000070468E170E080E090E00E949B0228ECFD
:102C100030E040E050E060E070E086E194E40E9443
:102C2000070464E170E080E090E00E949B0228ECE1
:102C300030E040E050E060E070E086E993E40E941C
:102C400007046AE170E080E090E00E949B028AED58
:102C500093E00E94C90A83E094E00E94C90A28E92F
:102C600038E040E050E060E070E086E193E40E94EC
:102C7000070468E572E080E090E00E94D4030E94BF
:102C8000D1026BE070E080E090E00E949B020E9425
:102C9000AA0D11CB0E94B60E0E94AA0D0E946210CE
:102CA0000097F1F00E94C62401978331910530F519
:102CB000FC01E35AF94E0C942E28801685168816CE
:102CC0008B168E169116941697169A169D16A016A8
:102CD000A316A616A916AC16AF16B216B516B816D8
:102CE0006AE170E080E090E00E949B0260ED77E096
:102CF00080E090E00E94D4030E94D1020C94A00EC8
:102D000090E080E00E949207F9CF81E090E0FACF56
:102D100086E090E0F7CF87E090E0F4CF88E090E0A5
:102D2000F1CF89E090E0EECF8AE090E0EBCF8BE04E
:102D300090E0E8CF8CE090E0E5CF8DE090E0E2CF4E
:102D40008EE090E0DFCF8FE090E0DCCF80E190E09C
:102D5000D9CF81E190E0D6CF82E190E0D3CF83E07C
:102D600090E0D0CF84E090E0CDCF85E090E0CACF76
:102D700082E090E0C7CFAF92BF92CF92DF92EF9206
:102D8000FF921F93CF93DF93CDB7DEB728970FB68F
:102D9000F894DEBF0FBECDBF0E94B60E8EE190E06C
:102DA0009093CB028093CA020E94621011E00097B8
:102DB00021F00E94C6245C0110E00E94621000977E
:102DC00091F10E94C6246C010E946210009769F183
:102DD0000E94C6247C010E946210009721F00E948C
:102DE000C624112321F16AE170E080E090E00E94A6
:102DF0009B0260ED77E080E090E00E94D4030E94A7
:102E0000D1020E94A00E28960FB6F894DEBF0FBE26
:102E1000CDBFDF91CF911F91FF90EF90DF90CF90CA
:102E2000BF90AF90089511E0CFCF11E0D4CFBA8218
:102E3000A982DC82CB82FE82ED8298878F83BE01DD
:102E40006F5F7F4F88EC90E00E947F0CDACFCF92CB
:102E5000DF92EF92FF920F931F93CF93DF93CDB743
:102E6000DEB72B970FB6F894DEBF0FBECDBF0E9422
:102E7000AA0D1A821982FE01339689E0DF011D92A4
:102E80008A95E9F732977F0105E010E06F01C801EC
:102E90000E941F25D7018D937D010F5F1F4F0031C9
:102EA0001105A9F78EE690E00E94A3018BE690E061
:102EB0000E94A301C6010E94330E88E690E00E94A2
:102EC000920E80E193E00E94BE012B960FB6F8941B
:102ED000DEBF0FBECDBFDF91CF911F910F91FF904D
:102EE000EF90DF90CF900895FF920F931F93CF93B1
:102EF000DF938C01EB01F8800E941F25F81621F06A
:102F00006F2DC8010E942725CE01DF91CF911F911F
:102F10000F91FF900895DF92EF92FF920F931F930E
:102F2000CF93DF93CDB7DEB72B970FB6F894DEBF04
:102F30000FBECDBF0E94B60E0E94AA0D1A82198242
:102F4000FE01339689E0DF011D928A95E9F70E9420
:102F50006210009791F1FC01CE0101967C019F0166
:102F6000245F3F4FDC018191882329F0E217F307AA
:102F700011F08D93F8CF05E010E0D701DD907D01D1
:102F8000C8010E941F25D81621F06D2DC8010E948E
:102F900027250F5F1F4F0031110579F72B960FB6CC
:102FA000F894DEBF0FBECDBFDF91CF911F910F917F
:102FB000FF90EF90DF900C94A00E6AE170E080E04B
:102FC00090E00E949B0260ED77E080E090E00E943C
:102FD000D4030E94D102E2CFFF920F931F93CF93AD
:102FE000DF930E94B60E0E94AA0D0E946210C1E0FB
:102FF000009729F00E94C624D82FF92EC0E00E9425
:103000006210009719F10E94C6248C010E94621080
:10301000892B09F4C1E00E946210892B11F0CC23A6
:10302000B9F06AE170E080E090E00E949B0260ED00
:1030300077E080E090E00E94D4030E94D102DF910B
:10304000CF911F910F91FF900C94A00EC1E0DECFA5
:10305000D093E903F092EA0310931304009312044F
:103060006D2F90E080E00E9427256091120481E09E
:1030700090E00E94272560913B0482E090E00E944E
:1030800027256091640483E090E00E942725D7CF34
:10309000CF92DF92EF92FF920F931F930E94AA0D9F
:1030A00060E080912C040E94300283E090E0019760
:1030B000F1F761E080912C040E94300283E290E0FD
:1030C0000197F1F760E080912C040E94300280911A
:1030D0002E0490912F049927FC01E353FF4F649134
:1030E000FC01E551FF4FE491F0E0EE0FFF1FE155C9
:1030F000FF4F8591949100E41CE920E030E0462FD9
:103100000E94EC1A611571058105910529F06F5F28
:103110007F4F8F4F9F4F9F702AE330E040E050E099
:103120000E94672569017A01C114D104E104F10408
:1031300031F487EEC82E83E0D82EE12CF12C87E7FE
:1031400090E00E94A30184E790E00E94A301C701E0
:10315000B6010E94FB260E94C326CB010E94E80E06
:1031600081E790E00E94920E80E193E01F910F9121
:10317000FF90EF90DF90CF900C94BE011F920F92C2
:103180000FB60F9211242F933F934F935F936F933A
:103190007F938F939F93AF93BF93EF93FF93809110
:1031A000040390910503A0910603B0910703892BB6
:1031B0008A2B8B2BD1F19091FF02E0910003F091CB
:1031C0000103808189278083809104039091050306
:1031D000A0910603B0910703181619061A061B06DC
:1031E0009CF48091040390910503A0910603B09193
:1031F00007030197A109B109809304039093050384
:10320000A0930603B0930703FF91EF91BF91AF9195
:103210009F918F917F916F915F914F913F912F91EE
:103220000F900FBE0F901F90189580912C01EFEF1B
:10323000F0E0E4919FEF90932C01E13051F030F0F9
:10324000E23069F060E00E943002DECF10926E0042
:10325000F9CF90916F009D7F90936F00F3CF909185
:1032600070009D7F9093700091E09093B0009091DA
:10327000B100987F94609093B1001092B300E2CFB8
:103280001F920F920FB60F9211242F933F934F93DB
:103290005F936F937F938F939F93AF93BF93EF93BE
:1032A000FF9380E193E00E943401FF91EF91BF9181
:1032B000AF919F918F917F916F915F914F913F91CE
:1032C0002F910F900FBE0F901F9018951F920F9285
:1032D0000FB60F9211242F938F939F93EF93FF9329
:1032E000E0912003F09121038081E0912603F09189
:1032F000270382FD1BC09081809129038F5F8F730C
:1033000020912A03821741F0E0912903F0E0E05F69
:10331000FC4F958F80932903FF91EF919F918F919F
:103320002F910F900FBE0F901F9018958081F4CFB2
:103330001F920F920FB60F9211242F933F938F93EA
:103340009F93AF93BF938091AA029091AB02A091FB
:10335000AC02B091AD023091A90223E0230F2D37CA
:1033600058F50196A11DB11D2093A9028093AA02D0
:103370009093AB02A093AC02B093AD028091AE02E9
:103380009091AF02A091B002B091B1020196A11D3F
:10339000B11D8093AE029093AF02A093B002B093A0
:1033A000B102BF91AF919F918F913F912F910F905B
:1033B0000FBE0F901F90189526E8230F0296A11DAF
:1033C000B11DD2CF1F920F920FB60F9211242F93DF
:1033D0003F934F935F936F937F938F939F93AF939D
:1033E000BF93EF93FF93E0912601F0912701099598
:1033F000FF91EF91BF91AF919F918F917F916F91CD
:103400005F914F913F912F910F900FBE0F901F90A2
:1034100018951F920F920FB60F9211242F933F937E
:103420004F935F936F937F938F939F93AF93BF93CC
:10343000EF93FF93E0912401F09125010995FF910D
:10344000EF91BF91AF919F918F917F916F915F911C
:103450004F913F912F910F900FBE0F901F90189595
:103460001F920F920FB60F9211242F933F934F93F9
:103470005F936F937F938F939F93AF93BF93CF93FC
:10348000DF93EF93FF938091A802C091D103D0E026
:1034900087FF24C010928500109284008091A802BA
:1034A0008F5F8093A8028091A802082E000C990BD0
:1034B0008C179D0724F48091A8028C30C4F1809170
:1034C000840090918500049680349C4908F47AC069
:1034D0008091840090918500049676C08091A80226
:1034E000082E000C990B8C179D07C4F6E091A802DA
:1034F0008E2FEE0F990BFC01EE0FFF1FE80FF91F47
:10350000E355FC4F808186FFC9CFE091A8028E2F42
:10351000EE0F990BFC01EE0FFF1FE80FF91FE355AB
:10352000FC4F808160E08F730E943002B7CF209102
:10353000840030918500E091A8028E2FEE0F990B48
:10354000FC01EE0FFF1FE80FF91FE355FC4F8181CF
:103550009281820F931F9093890080938800E0915D
:10356000A8028E2FEE0F990BFC01EE0FFF1FE80F44
:10357000F91FE355FC4F808186FF11C0E091A8023E
:103580008E2FEE0F990BFC01EE0FFF1FE80FF91FB6
:10359000E355FC4F808161E08F730E943002FF9100
:1035A000EF91DF91CF91BF91AF919F918F917F91DB
:1035B0006F915F914F913F912F910F900FBE0F90A0
:1035C0001F90189580E49CE990938900809388006F
:1035D0008FEF8093A802E3CFCF92DF92EF92FF921A
:1035E0000F931F93E82FF92F05C0015011092109EE
:1035F000310961F1908196239417B9F305C0015008
:1036000011092109310911F1908196239413F7CF03
:10361000C12CD12CE12CF12C0AC08FEFC81AD80A8A
:10362000E80AF80A0C151D052E053F0579F0808182
:103630008623841791F36C2D7D2D8E2D9F2D1F9148
:103640000F91FF90EF90DF90CF90089560E070E0D1
:1036500080E090E01F910F91FF90EF90DF90CF906E
:103660000895109213031092120388EE93E0A0E0E5
:10367000B0E08093140390931503A0931603B093C6
:10368000170381E592E0909311038093100385EC7A
:1036900090E090931D0380931C0384EC90E0909342
:1036A0001F0380931E0380EC90E09093210380938E
:1036B000200381EC90E0909323038093220382EC1B
:1036C00090E0909325038093240386EC90E0909300
:1036D0002703809326031092290310922A03109245
:1036E0002B0310922C0380E290E09093950480933A
:1036F00094048DE08093960410929C0410929B0495
:10370000EFE6F4E082E994E011928E179F07E1F76B
:1037100010929304109292041092D2031092D30349
:103720001092D4031092D5038BE08093D6038DE0E2
:103730008093D7038CE08093D80361E08BE00E94F4
:10374000490361E08091D7030E94490361E08091C1
:10375000D8030E94490360E08091D6030E943002A2
:1037600060E08091D7030E94300260E08091D8032E
:103770000E9430020E945E028091D1038C30A0F042
:103780008FEF8093DA031092EA031092E90380919D
:10379000D1038C30E0F08FEF809303041092130478
:1037A000109212040C947A0391E0980F9093D10335
:1037B0008093DA0390E0FC01EE0FFF1FE80FF91F82
:1037C000E355FC4F88EB9BE092838183DCCF91E053
:1037D000980F9093D1038093030490E0FC01EE0FC7
:1037E000FF1FE80FF91FE355FC4F88EB9BE0928326
:1037F0008183D4CFCF93DF93CDB7DEB76A970FB66F
:10380000F894DEBF0FBECDBF789484B5826084BDCE
:1038100084B5816084BD85B5826085BD85B58160D4
:1038200085BD80916E00816080936E001092810052
:10383000809181008260809381008091810081600D
:1038400080938100809180008160809380008091CE
:10385000B10084608093B1008091B000816080935A
:10386000B00080917A00846080937A0080917A0021
:10387000826080937A0080917A00816080937A00E0
:1038800080917A00806880937A001092C100E09164
:103890002003F091210382E08083E0911C03F091EA
:1038A0001D031082E0911E03F0911F0380E18083CD
:1038B00010922803E0912403F091250386E0808391
:1038C000E0912203F0912303808180618083E09165
:1038D0002203F0912303808188608083E09122039A
:1038E000F0912303808180688083E0912203F0912E
:1038F000230380818F7D808360E086E00E944903FE
:1039000060E087E00E94490384E090E090934604E1
:103910008093450485E090E09093480480934704A9
:103920000E94B20B10926D048AE590E090934E04D1
:1039300080934D049093500480934F0483E090E073
:10394000909331048093300460E00E94490381E148
:1039500090E0909333048093320460E00E94490326
:103960000E947A0382E190E09093360480933504BC
:1039700060E00E94490301E010E0109338040093D6
:10398000370410933A040093390410933C040093D5
:103990003B0483E190E090933E0480933D0460E01B
:1039A0000E9449031093400400933F041093420483
:1039B000009341048FEF9FEF90934404809343045E
:1039C00088E090E090932D0480932C0489E090E0AF
:1039D00090932F0480932E0461E088E00E944903B5
:1039E00060E080912E040E9449038AE090E0909369
:1039F00052048093510484E190E0909354048093A6
:103A0000530461E08AE00E94490360E084E10E947F
:103A1000490384E10E949A03BC01990F880B990B1A
:103A2000611571058105910511F00E94D2236CEC9E
:103A30007EE08EE692E00E9434106AE670E180E754
:103A400092E00E9434106EE970E18CE992E00E94ED
:103A5000341064EE70E182E792E00E94341067E176
:103A600071E184E792E00E9434106AE476E186E72F
:103A700092E00E9434106CEE77E188E792E00E94B9
:103A800034106BEB76E18AE792E00E9434106BE829
:103A900077E18CE792E00E94341067E277E18EE7ED
:103AA00092E00E94341068E478E180E892E00E949D
:103AB000341068E17FE082E892E00E94341060E513
:103AC0007FE084E892E00E94341062ED7EE086E8B8
:103AD00092E00E9434108CEC9EE09093A4068093B8
:103AE000A3060E94AA0D85E090E00E941F25843263
:103AF000D9F46EE372E085E090E00E9474171982B9
:103B0000BE016F5F7F4F86E090E00E9474176DE109
:103B100070E080E090E00E949B0268EE73E080E03D
:103B200090E00E94D403F9CF0E94271762E370E06F
:103B300080E090E00E94D4030E94D20E62E370E025
:103B400080E090E00E94D4030E94500F0E941A0768
:103B500020E030E044E352E40E944C2687FF41C05D
:103B60008091F80281113DC06CE170E080E090E04E
:103B70000E949B0263E0862E912C78E0A72EB12C48
:103B8000C12CD12C18EBE12E1EE1F12E05E81FE32C
:103B900020E030E04AEF54E460E070E08CE594E42B
:103BA0000E948A066EE170E080E090E00E94D403FB
:103BB0001CE5E12E1FE8F12E02E81FE320E030E0D3
:103BC0004CE554E460E070E08AEF94E40E948A06D9
:103BD0000E94D10264EF71E080E090E00E94D40383
:103BE000BFCF10E000E08091F802811111C0A80160
:103BF00060E070E0CB010E94DB0266E970E080E0EB
:103C000090E00E94D4030F5F1F4F0830110559F751
:103C100010E000E08091F802811111C0A80160E07D
:103C200070E0CB010E94DB0266E970E080E090E08A
:103C30000E94D4030F5F1F4F0830110559F7809180
:103C4000F80281110CC06AE070E080E090E00E9410
:103C50009B0268EC70E080E090E00E94D40385E075
:103C600090E00E941F25833269F58091F80281114E
:103C70001DC080912D0290912E02A0912F02B09133
:103C8000300289839A83AB83BC83BE016F5F7F4F11
:103C900090E080E00E947F0C90E080E00E94D90DCF
:103CA00068EC70E080E090E00E94D4038091F8021C
:103CB000811108C06FE070E080E090E00E949B02FC
:103CC0000E94AA0D8091F802811106C06BE070E09D
:103CD00080E090E00E949B020E94960A6093F202AC
:103CE0007093F3028093F4029093F5021E0129E091
:103CF000220E311C30911D023F8740911E02488BDD
:103D000050911F02598B809120028A8B3F8B488FE4
:103D1000598F8A8F20912D0230912E0240912F02CF
:103D2000509130022B8B3C8B4D8B5E8B66246394C1
:103D3000712C86E0D1011D928A95E9F780E193E02C
:103D40000E9414011816190664F480912A019091BA
:103D50002B01029731F070922B0160922A01109290
:103D6000F8028091F802882309F451C00E94AA0D3C
:103D700064E670E080E090E00E94D40368EC70E0BC
:103D800080E090E00E94D4038091F702882321F024
:103D90008091F602882379F08091F70281110FC09B
:103DA0008091F602882359F082E090E090932B01F5
:103DB00080932A0104C070922B0160922A016091C5
:103DC0002A0170912B01072E000C880B990B0E9481
:103DD0009B0208EC10E06AE070E080E090E00E9456
:103DE000D40301501109B9F71092F8021092F702AA
:103DF0001092F60280E090E0892B09F49ACF0E949D
:103E00002001882309F492CF0E9400008FCF809177
:103E10002A0190912B018130910509F4E7C082308D
:103E2000910509F43BC3892B09F012C40E94960A3C
:103E30000091F2021091F3022091F4023091F50208
:103E4000601B710B820B930B6038784381409105A6
:103E500088F21D821E821F8218868AE590E09A836E
:103E600089839C838B838091F802811107C0BE01F6
:103E70006F5F7F4F8CEB92E00E947F0C44E0442EFA
:103E8000512C8091F80281118CC050E040E061E03B
:103E900070E080E090E00E94DB029AE0892E912C95
:103EA0002AE0A22EB12CC12CD12C18EBE12E1EE160
:103EB000F12E05E81FE320E030E048E453E460E041
:103EC00070E088EC92E40E948A068091F8028111E9
:103ED00068C041E050E061E070E080E090E00E9466
:103EE000DB0220E030E046E953E460E070E088E483
:103EF00093E40E948A068091F802811152C042E048
:103F000050E061E070E080E090E00E94DB0220E0A1
:103F100030E04AEF53E460E070E086E993E40E9409
:103F20008A0664EF71E080E090E00E94D403809103
:103F3000F802811136C041E050E061E070E080E0BD
:103F400090E00E94DB0288248394912C20E030E0F2
:103F50004AE753E460E070E088EC93E40E948A064C
:103F60008091F80281111DC050E040E061E070E0F6
:103F700080E090E00E94DB0220E030E048EC52E478
:103F800060E070E08AE793E40E948A0664EF71E0E3
:103F900080E090E00E94D403E1E04E1A510809F05D
:103FA00070CF8091F80281110AC063E170E080E077
:103FB00090E00E949B0289E090E00E9492070E949C
:103FC000AA0D8091F802811106C06BE070E080E0DC
:103FD00090E00E949B020E94960A6093F202709306
:103FE000F3028093F4029093F50204CF8091F002E3
:103FF0009091F102009709F450C0880F991FFC01BD
:10400000E053FD4F80819181049709F046C0B2EDE5
:10401000CB2EB2E0DB2E10E000E08091F002909118
:10402000F102081719076CF5D601AD90BD906D012E
:10403000AFE3EA2EA2E0FA2ED701ED91FD917D01CA
:1040400080819181A816B90671F4828193818330B1
:10405000910589F08430910589F0019721F488E871
:1040600092E00E94840EE5E4F2E0EE15FF0521F7F0
:104070000F5F1F4FD2CF85E992E0F3CF8EE992E038
:10408000F0CF1092F1021092F002E2EDF2E08EE138
:10409000DF011D928A95E9F7ADCE8091FB029091E8
:1040A000FC02892B91F560E080E10E9430021092C1
:1040B000CB021092CA021092C4021092C502109252
:1040C000C6021092C7021092B7021092B602109266
:1040D000FE021092FD020E94960A6093B202709353
:1040E000B3028093B4029093B5028BEA90E0909370
:1040F0002501809324018091690083608093690089
:10410000E89A7092FC026092FB020E94960A00916B
:10411000B2021091B3022091B4023091B502601B3B
:10412000710B820B930B633371058105910530F0A0
:10413000E3E0F0E0F093FC02E093FB028091FB02ED
:104140009091FC02039709F065C08091B6029091AE
:10415000B7028130910519F14CF460E0892B09F424
:1041600017C11092FE021092FD0225C08230910507
:1041700009F405C10397A9F78091FD029091FE0211
:104180009093C9028093C80260E081E00E94A20A75
:1041900082E090E09093FC028093FB020CC080913F
:1041A000FD029091FE029093C5028093C40261E0EB
:1041B00081E00E94A20A8091B6029091B702049712
:1041C0000CF4E8C08091F9029091FA02892B11F564
:1041D00004EC12E0F8EBEF2EF2E0FF2ED8016D9127
:1041E0007D918D01072E000C880B990B0E94FB26F8
:1041F0009B01AC0160E070E08FE793E40E945126E0
:10420000F70161937193819391937F01F2E00A3CEE
:104210001F0721F78091FB029091FC02029709F0A1
:1042200092C07092FA026092F90264ECE62E62E0AB
:10423000F62E78EB472E72E0572EEAECCE2EE2E017
:10424000DE2E8101D7016D917D917D01F20181907A
:104250009190A190B1902F01072E000C880B990B23
:104260000E94FB26A50194010E94B0270E94C3264C
:104270006F3F710511F00CF094C0D8016D937C93E1
:104280000E5F1F4FCE14DF04E9F6E89885EB90E04F
:1042900090932501809324011092B7021092B602E8
:1042A0001092FE021092FD021092FC021092FB028C
:1042B00055E4C52E52E0D52E90E080E0D601ED9178
:1042C000FD916D018F010A5F1F4FA1012191319175
:1042D000DA016D917D91AD017901BFE0EB1AF10832
:1042E0006E157F050CF4B9C1215F3F4F26173707C4
:1042F0000CF4B3C10E171F0749F7009749F081303E
:10430000910509F454C0029709F054C081E090E08F
:104310002091D102211117C083309105A1F021E035
:104320002093D1022091F0023091F102F901EE0FB9
:10433000FF1FEE52FD4F918380832F5F3F4F3093DD
:10434000F1022093F002809130040E940702182F9E
:104350008093D002809132040E94070211113FC065
:1043600081112BC08AE090E00E94D90D1092CF02FB
:104370001092CE027092CD026092CC023BCD809121
:10438000FD029091FE029093C7028093C60261E005
:1043900080E00FCF24E030E03093FC022093FB025A
:1043A00039CF2FEF30E0F8013183208369CF82E0ED
:1043B00090E0AECF84E090E0ABCF813009F01ACD31
:1043C0008AE090E00E94150E1092CF021092CE0269
:1043D000E3E0F0E0F093CD02E093CC020BCD11309E
:1043E00009F008CD81110FC08AE090E00E94F70D1E
:1043F0001092CF021092CE0224E030E03093CD0232
:104400002093CC02F7CC813009F0F4CC0091CE029D
:104410001091CF02093E33E01307BCF58091CC0226
:104420009091CD028430910559F48AE090E00E9489
:10443000F70D0F5F1F4F1093CF020093CE02DACC1F
:10444000039729F48AE090E00E94150EF2CF4F897D
:104450004983588D5A83898D8B839A8D9C83BE01A5
:104460006F5F7F4F8AE090E00E947F0C1092CF0236
:104470001092CE021092CD021092CC0266E170E052
:1044800080E090E00E949B02B5CCAF85A983B889FB
:10449000BA83E989EB83FA89FC83E1CF11E095E2E5
:1044A000992E80E193E00E941401181619060CF071
:1044B0008CC0112309F489C080E193E00E94F200CE
:1044C00080936E0490919604891347C010929304D0
:1044D0001092920449E954E064E974E08FE694E0B4
:1044E0000E94ED247C019093980480939704892B7B
:1044F00009F46BC0C0909B04D0909C048EE6A82E5B
:1045000084E0B82E10E000E00C151D050CF050C042
:10451000B501615D7F4F43E250E0C7010E943D2835
:1045200025E2A20EB11C892B09F03FC0909EF0013C
:10453000919EF00D1124E054FB4F0190F081E02D8D
:104540000995EFE6F4E0119234E0E239F307D9F788
:10455000109293041092920410E000916E04802F48
:10456000002E000C990B0E943628892B09F499CF54
:1045700080919204909193049C012F5F3F4F309360
:1045800093042093920482599B4FDC0111960C9363
:10459000F901E259FB4F1182233231050CF481CF2E
:1045A00010929304109292047CCF0F5F1F4FACCFF8
:1045B000E091A306F091A4060995EFE6F4E01192CC
:1045C00044E0E239F407D9F7C3CF80916D0481113B
:1045D00011CC8091CA029091CB028230910551F1A9
:1045E00064F4009711F1019709F004CC809128013F
:1045F000909129010E94150E1AC08330910509F18E
:10460000049709F0F7CB80912801909129012B891B
:104610003C894D895E8929833A834B835C83BE0143
:104620006F5F7F4F0E947F0C02C00E94AA0D0E9404
:10463000A00EE0CB80912801909129010E94F70DF6
:10464000F6CF80912801909129010E94D90DEFCFDA
:1046500070922B0160922A01CDCB01968430910596
:1046600009F02CCE1092D10283E090E051CE8F92CF
:104670009F92AF92BF92CF92DF92EF92FF92CF9331
:10468000DF93EC01688179818A819B8161157105D5
:104690008105910521F464E279ED8BE597E02DE148
:1046A00033EF41E050E00E94672549015A019B0128
:1046B000AC01A7EAB1E40E9486256B017C01ACEE57
:1046C000B4EFA50194010E949425C60ED71EE81EE2
:1046D000F91EF7FE06C081E0C81AD108E10880E89B
:1046E000F80AC882D982EA82FB82C701B6019F77A5
:1046F000DF91CF91FF90EF90DF90CF90BF90AF9080
:104700009F908F9008958F929F92AF92BF92CF9279
:10471000DF92EF92FF9260912D0170912E018091B6
:104720002F0190913001611571058105910521F4EA
:1047300064E279ED8BE597E02DE133EF41E050E065
:104740000E94672549015A019B01AC01A7EAB1E427
:104750000E9486256B017C01ACEEB4EFA5019401AB
:104760000E949425C60ED71EE81EF91EF7FE06C04D
:1047700081E0C81AD108E10880E8F80AC0922D014A
:10478000D0922E01E0922F01F0923001C701B601C4
:104790009F77FF90EF90DF90CF90BF90AF909F906A
:1047A0008F90089560932D0170932E0180932F01B7
:1047B000909330010895B0E0A0E0E1EEF3E20C94B4
:1047C0009A255C016B017A016115710519F0FB01F5
:1047D00091838083E114F10449F0C7010297839724
:1047E00028F060E070E0CB019CC05E01E5012196FD
:1047F000F5011081812F90E00E94E424892BA9F714
:104800001D3209F056C02196F501118101E0E11435
:10481000F10409F4AEC0F0E1EF16F10409F08EC026
:10482000103341F488818F7D883509F083C0198168
:1048300022960260E0E1EE2EF12C88248A94982CD6
:10484000A82CFFE0BF2E20E060E070E0CB01270144
:104850000F2C000C66087708FE0150ED352E310E46
:1048600039E0331538F43FEB310F3A31A0F549EC1C
:10487000342E310E3E141F04BCF52F3FB9F08616BE
:104880009706A806B90670F1A30192010E9435258A
:10489000232D30E050E040E0620F731F841F951F0E
:1048A0006217730784079507E8F021E021961081CD
:1048B000D3CF1B3221F4E5012296F501118100E0EE
:1048C000A6CF78E0E72EF12C88248A94982CA82C87
:1048D0006FE1B62EB8CF3FE9310F3A3128F439EA0B
:1048E000332EC7CF2FEFE2CFC114D10431F02223F2
:1048F000E9F02197F601D183C08300FF07C09095AE
:104900008095709561957F4F8F4F9F4F2F3F49F452
:1049100082E290E09093A8068093A7066FEF7FEF66
:10492000CB01CDB7DEB7E1E10C94B62501FFE5CFB1
:104930002297E0CF10E3E114F10419F23AE0E31614
:10494000F104E9F080E1E816F10409F473CFE8E03E
:10495000EE16F10409F4B8CF6FEF7FEFCB019701AA
:104960000F2C000C440B550B0E94452549015A01A0
:104970006ACF103309F456CF9AE0E92EF12C89E979
:10498000882E982CA82C89E1B82E5DCFFC018827B1
:104990009927E89421912032E9F3293010F02E3044
:1049A000C8F32B3241F02D3239F4689404C00E94D0
:1049B0001425820F911D219120532A30C0F31EF43B
:1049C000909581959F4F089591110C941C258032EC
:1049D00019F089508550C8F70895FA01A191B08166
:1049E000009719F41097E1F0CD01DC01CD010D9095
:1049F000002011F4C00113C0FB012191222319F002
:104A00002015D9F7F3CFFB012191201519F41E923F
:104A1000119606C02223C1F70D900020A1F7D00106
:104A2000FA01A193B08308957AE0979F902D879F14
:104A3000802D910D11240895992788270895F999BB
:104A4000FECF92BD81BDF89A992780B50895262F93
:104A5000F999FECF1FBA92BD81BD20BD0FB6F89463
:104A6000FA9AF99A0FBE01960895DB018F939F93EE
:104A70000E948625BF91AF91A29F800D911DA39F9B
:104A8000900DB29F900D11240895A1E21A2EAA1B39
:104A9000BB1BFD010DC0AA1FBB1FEE1FFF1FA217EE
:104AA000B307E407F50720F0A21BB30BE40BF50BEB
:104AB000661F771F881F991F1A9469F76095709574
:104AC000809590959B01AC01BD01CF010895052E05
:104AD00097FB1EF400940E947E2557FD07D00E948C
:104AE000452507FC03D04EF40C947E255095409547
:104AF000309521953F4F4F4F5F4F0895909580958A
:104B0000709561957F4F8F4F9F4F08950E94D025DC
:104B1000A59F900DB49F900DA49F800D911D112411
:104B20000895B7FF0C9486250E948625821B930B5F
:104B300008952F923F924F925F926F927F928F9241
:104B40009F92AF92BF92CF92DF92EF92FF920F931C
:104B50001F93CF93DF93CDB7DEB7CA1BDB0B0FB626
:104B6000F894DEBF0FBECDBF09942A8839884888E3
:104B70005F846E847D848C849B84AA84B984C88479
:104B8000DF80EE80FD800C811B81AA81B981CE0F70
:104B9000D11D0FB6F894DEBF0FBECDBFED01089555
:104BA000A29FB001B39FC001A39F700D811D11246E
:104BB000911DB29F700D811D1124911D08955058B3
:104BC000BB27AA270E94F7250C9471270E94632710
:104BD00038F00E946A2720F039F49F3F19F426F438
:104BE0000C9460270EF4E095E7FB0C945A27E92F0C
:104BF0000E94822758F3BA17620773078407950744
:104C000020F079F4A6F50C94A4270EF4E0950B2E71
:104C1000BA2FA02D0B01B90190010C01CA01A0010E
:104C20001124FF27591B99F0593F50F4503E68F169
:104C30001A16F040A22F232F342F4427585FF3CFAA
:104C4000469537952795A795F0405395C9F77EF47B
:104C50001F16BA0B620B730B840BBAF09150A1F0C4
:104C6000FF0FBB1F661F771F881FC2F70EC0BA0F4A
:104C7000621F731F841F48F4879577956795B795D2
:104C8000F7959E3F08F0B0CF9395880F08F09927CD
:104C9000EE0F9795879508950E94362708F481E0D6
:104CA00008950E9465260C9471270E946A2758F087
:104CB0000E94632740F029F45F3F29F00C945A27A3
:104CC00051110C94A5270C9460270E94822768F349
:104CD0009923B1F3552391F3951B550BBB27AA27B5
:104CE00062177307840738F09F5F5F4F220F331FEF
:104CF000441FAA1FA9F335D00E2E3AF0E0E832D0B7
:104D000091505040E695001CCAF72BD0FE2F29D0B9
:104D1000660F771F881FBB1F261737074807AB078B
:104D2000B0E809F0BB0B802DBF01FF2793585F4F00
:104D30003AF09E3F510578F00C945A270C94A52721
:104D40005F3FE4F3983ED4F3869577956795B795E2
:104D5000F7959F5FC9F7880F911D9695879597F9ED
:104D60000895E1E0660F771F881FBB1F6217730766
:104D70008407BA0720F0621B730B840BBA0BEE1F7B
:104D800088F7E09508950E94CA266894B1110C94A2
:104D9000A52708950E948A2788F09F5798F0B92F79
:104DA0009927B751B0F0E1F0660F771F881F991F60
:104DB0001AF0BA95C9F714C0B13091F00E94A42737
:104DC000B1E008950C94A427672F782F8827B85F47
:104DD00039F0B93FCCF3869577956795B395D9F7B8
:104DE0003EF490958095709561957F4F8F4F9F4FC2
:104DF0000895E89409C097FB3EF4909580957095CE
:104E000061957F4F8F4F9F4F9923A9F0F92F96E916
:104E1000BB279395F695879577956795B795F1118B
:104E2000F8CFFAF4BB0F11F460FF1BC06F5F7F4F28
:104E30008F4F9F4F16C0882311F096E911C077233A
:104E400021F09EE8872F762F05C0662371F096E843
:104E5000862F70E060E02AF09A95660F771F881F12
:104E6000DAF7880F9695879597F90895990F0008B6
:104E7000550FAA0BE0E8FEEF16161706E807F9072C
:104E8000C0F012161306E407F50798F0621B730BC7
:104E9000840B950B39F40A2661F0232B242B252B48
:104EA00021F408950A2609F4A140A6958FEF811DEB
:104EB000811D089597F99F6780E870E060E008958C
:104EC0009FEF80EC089500240A9416161706180622
:104ED0000906089500240A941216130614060506FE
:104EE0000895092E0394000C11F4882352F0BB0F8F
:104EF00040F4BF2B11F460FF04C06F5F7F4F8F4FF2
:104F00009F4F089557FD9058440F551F59F05F3F2C
:104F100071F04795880F97FB991F61F09F3F79F0DB
:104F200087950895121613061406551FF2CF46955D
:104F3000F1DF08C0161617061806991FF1CF8695DF
:104F40007105610508940895E894BB2766277727C3
:104F5000CB0197F908950E94362708F48FEF089542
:104F60000E94C3270C9471270E94632738F00E9487
:104F70006A2720F0952311F00C945A270C9460278F
:104F800011240C94A5270E94822770F3959FC1F3EA
:104F9000950F50E0551F629FF001729FBB27F00DE7
:104FA000B11D639FAA27F00DB11DAA1F649F66273C
:104FB000B00DA11D661F829F2227B00DA11D621F8B
:104FC000739FB00DA11D621F839FA00D611D221F45
:104FD000749F3327A00D611D231F849F600D211D29
:104FE000822F762F6A2F11249F5750409AF0F1F0AC
:104FF00088234AF0EE0FFF1FBB1F661F771F881F15
:1050000091505040A9F79E3F510580F00C945A27CB
:105010000C94A5275F3FE4F3983ED4F386957795EB
:105020006795B795F795E7959F5FC1F7FE2B880FBA
:10503000911D9695879597F908950E943627880BBC
:10504000990B0895991B79E004C0991F961708F0F1
:10505000961B881F7A95C9F780950895EE0FFF1F5C
:105060000590F491E02D0994803209F091110C948F
:105070001C2580528F55D8F70895FB01DC01415063
:10508000504030F08D910190801919F40020B9F74B
:10509000881B990B0895FB01DC014150504048F0FA
:1050A00001900D920020C9F701C01D92415050405F
:0850B000E0F70895F894FFCF2A
:1050B8000200040000000300010001000F000F00BF
:1050C8000F00FF0078007800380070007000990029
:1050D800D900DA00B500B500E8030100FF010000BF
:1050E800008C24490C0E4130041E42480C8C444864
:1050F8000C82E049129CC0411E8CC4210410420855
:105108001E8CC4480C8EE0480C002385000023FD4B
:105118000000E0FD008C14B6128C144A0C00C30089
:10512800008091243F80D4B63F0020B53F00F003B3
:1051380000805821000281402040283100C02F31D2
:1051480000C0EC310000420901A1C44821044148D3
:105158000C10C2210480D4860040187A0000C300D5
:105168000080610000C03000008061000000C300C2
:105178000000860100000C030000860100300C00CE
:1051880000100A010018496200100A0100210000FD
:1051980021520884128C144A0C0023310000C000EC
:1051A800000000000000104A0C00082506208410AA
:1051B8000330420801182904008C140200460281B9
:1051C800000381402081402030402090185A005A26
:1051D80000640055006600550064005300550064E3
:1051E800005A4F57495F424153455F7632002308C2
:1051F80001040100011E01180112010C0100000048
:10520800005601B600E300BE011401F20006010DCC
:105218000A006E616E00696E66006F766600530064
:105228004C004D0048004B00430047005200450029
:1052380044004E00420049004D4F564553545241D8
:1052480049474854004D4F56454C454654004D4F2C
:08525800564552494748540035
:00000001FF
