:100000000C9481000C94721B0C944B1B0C94A90053
:100010000C94A9000C94A9000C94A9000C94271A24
:100020000C94A9000C94A9000C94A9000C94991BA1
:100030000C94A9000C94A9000C94A9000C94A9009C
:100040000C94011B0C94A9000C94CF1A0C94A91ABF
:100050000C94A9000C94A9000C94A9000C94A9007C
:100060000C94A9000C94A900252500452000262603
:10007000002525004420002626002525004E2000CE
:100080002626002525004220002626002525004999
:1000900020002626002525004100262600252500D3
:1000A000460026260000000000230026002900004C
:1000B000000000240027002A0000000008000201C0
:1000C000000003040700000000000000000102041B
:1000D00008102040800102040810200102040810CA
:1000E0002000000000250028002B00040404040464
:1000F00004040402020202020203030303030302D4
:100100009A1C11241FBECFEFD8E0DEBFCDBF13E095
:10011000A0E0B1E0EEEFF6E502C005900D92AE3042
:10012000B107D9F727E0AEE0B3E001C01D92AF30D0
:10013000B207E1F710E0C1E8D0E004C02197FE016A
:100140000E94B028C038D107C9F70E94631D0C94E3
:100150007D2B0C94000080916303909164030196C1
:10016000909364038093630308950895AF92BF92C0
:10017000CF92DF92EF92FF920F931F93CF93DF9373
:100180006C017B018B01040F151FEB015E01AE18A2
:10019000BF08C017D10759F06991D601ED91FC91C4
:1001A0000190F081E02DC6010995892B79F7C501F1
:1001B000DF91CF911F910F91FF90EF90DF90CF9043
:1001C000BF90AF900895FC01538D448D252F30E0F2
:1001D000842F90E0821B930B541710F0CF96089554
:1001E00001970895FC01918D828D981761F0A28D81
:1001F000AE0FBF2FB11D5D968C91928D9F5F9F7347
:10020000928F90E008958FEF9FEF0895FC01918DFC
:10021000828D981731F0828DE80FF11D858D90E069
:1002200008958FEF9FEF0895FC01918D228D892F06
:1002300090E0805C9F4F821B91098F7399270895EE
:1002400086E793E00E94140121E0892B09F420E065
:10025000822F089580E090E0892B29F00E942001F0
:1002600081110C9400000895FC01A48DA80FB92FF2
:10027000B11DA35ABF4F2C91848D90E001968F73CE
:100280009927848FA689B7892C93A089B1898C91ED
:10029000837080648C93938D848D981306C002883C
:1002A000F389E02D80818F7D80830895EF92FF9206
:1002B0000F931F93CF93DF93EC0181E0888F9B8D89
:1002C0008C8D98131AC0E889F989808185FF15C043
:1002D0009FB7F894EE89FF896083E889F989808166
:1002E0008370806480839FBF81E090E0DF91CF9135
:1002F0001F910F91FF90EF900895F62E0B8D10E057
:100300000F5F1F4F0F731127E02E8C8D8E110CC0C5
:100310000FB607FCFACFE889F989808185FFF5CF10
:10032000CE010E943401F1CFEB8DEC0FFD2FF11DBA
:10033000E35AFF4FF0829FB7F8940B8FEA89FB894D
:1003400080818062CFCF0F931F93CF93DF938C0177
:10035000D0E0C0E0F801EC0FFD1F6491662341F08E
:1003600086E793E00E945601892B11F02196F2CF87
:10037000CE01DF91CF911F910F910895CF93DF931D
:10038000EC01888D8823B9F0AA89BB89E889F989AD
:100390008C9185FD03C0808186FD0DC00FB607FCE2
:1003A000F7CF8C9185FFF2CF808185FFEDCFCE0115
:1003B0000E943401E9CFDF91CF910895833081F01D
:1003C00028F4813099F08230A9F008958730A9F09F
:1003D0008830C9F08430B1F4809180008F7D03C0F3
:1003E000809180008F7780938000089584B58F7707
:1003F00084BD089584B58F7DFBCF8091B0008F7749
:100400008093B00008958091B0008F7DF9CF1F9345
:10041000CF93DF93282F30E0F901E754FF4F849109
:10042000F901E353FF4FD491F901E551FF4FC49116
:10043000CC23A9F0162F81110E94DE01EC2FF0E0F1
:10044000EE0FFF1FEF51FF4FA591B4918FB7F894B6
:10045000EC91111108C0D095DE23DC938FBFDF91A2
:10046000CF911F910895DE2BF8CFCF93DF93D0E08B
:10047000C0E08091380490913904A0913A04B09181
:100480003B040C2E04C0B695A795979587950A94C2
:10049000D2F7682F617080913C040E94070200002F
:1004A0000000000061E080913D040E94070200000E
:1004B0000000000060E080913D040E940702219648
:1004C000CE31D105B1F661E080913E040E94070271
:1004D00000000000000060E080913E04DF91CF91B9
:1004E0000C940702CF93DF93CDB7DEB7CC57D10979
:1004F0000FB6F894DEBF0FBECDBF2CE7EBE3F1E003
:10050000DE01119601900D922A95E1F7660F771F93
:10051000660F771F81E090E08C0F9D1F680F791F99
:10052000FB0180819181A281B381809338049093F3
:100530003904A0933A04B0933B04C458DF4F0FB67C
:10054000F894DEBF0FBECDBFDF91CF910C94350282
:10055000109238041092390410923A0410923B041D
:100560000C943502CF93DF93CDB7DEB7C057D109D6
:100570000FB6F894DEBF0FBECDBF20E2E7EBF1E08F
:10058000DE01999601900D922A95E1F720E1E7EDC1
:10059000F1E0DE01AF59BF4F01900D922A95E1F7CE
:1005A00028E1E7EEF1E0DE01A75BBF4F01900D927D
:1005B0002A95E1F728E2EFEFF1E0DE0111960190D4
:1005C0000D922A95E1F7440F551F440F551F6230D5
:1005D000710581F16330710581F161307105F1F0D0
:1005E00081E090E08C0F9D1F480F591FFA0180A5F4
:1005F00091A5A2A5B3A58093380490933904A09344
:100600003A04B0933B04C059DF4F0FB6F894DEBFF5
:100610000FBECDBFDF91CF910C94350281E690E003
:100620008C0F9D1F480F591FFA0180819181A28173
:10063000B381E1CF89E490E0F3CF81E090E0F0CFA7
:10064000CF93DF9390E0FC01E353FF4F249185515A
:100650009F4FFC0184918823D1F090E0880F991F6F
:10066000FC01E155FF4FA591B491FC01EF51FF4F03
:10067000C591D49161110EC09FB7F8948C91E22F6F
:10068000E0958E238C932881E223E8839FBFDF913E
:10069000CF9108958FB7F894EC91E22BEC938FBF34
:1006A000F6CF1092640310926303109262031092CB
:1006B000610361E080E10E94200361E08FE00E941D
:1006C000200361E08EE00E94200360E082E00E944F
:1006D00020031092600310925F0361E080E10C94AC
:1006E00007028E3008F08E508770806480937C0003
:1006F00080917A00806480937A0080917A0086FDF0
:10070000FCCF809178009091790008953FB7F894DC
:100710008091140390911503A0911603B0911703D3
:1007200026B5A89B05C02F3F19F00196A11DB11D4C
:100730003FBFBA2FA92F982F8827BC01CD01620F88
:10074000711D811D911D42E0660F771F881F991F43
:100750004A95D1F708958F929F92AF92BF92CF9210
:10076000DF92EF92FF926B017C010E9486034B01A6
:100770005C01C114D104E104F104B9F00E948603C4
:10078000681979098A099B09683E734081059105BA
:1007900080F321E0C21AD108E108F10888EE880E42
:1007A00083E0981EA11CB11CE4CFFF90EF90DF9076
:1007B000CF90BF90AF909F908F9008954F925F928F
:1007C0006F927F928F929F92AF92BF92CF92DF9261
:1007D000EF92FF920F931F93CF93DF93CDB7DEB7C6
:1007E00029970FB6F894DEBF0FBECDBF29013A019D
:1007F0000115110511F401E010E00E944C276983F6
:100800007A838B839C838091B7049091B804209164
:100810003601281719F12F3F09F49DC0C301B20119
:100820000E94AB03B801110F880B990B29960FB6E4
:10083000F894DEBF0FBECDBFDF91CF911F910F9116
:10084000FF90EF90DF90CF90BF90AF909F908F90F0
:100850007F906F905F904F900C94AB03EFEFF0E0C0
:100860002491298727FDDACF61E00E942003898542
:10087000882321F09985923009F05FC189819A819E
:100880004C01B12CA12C60E072E18AE790E0A50157
:1008900094010E94E9252D833E834F835887690187
:1008A0007A0191E0C91AD108E108F1082FEFC216C8
:1008B000D104E104F10409F00CF414C160E472E421
:1008C0008FE090E0A50194010E94E92569017A0179
:1008D00081E0C81AD108E108F1089985923009F041
:1008E000B5C082E02FEFC216D104E104F10409F093
:1008F0000CF4E0C160E970ED83E090E0A5019401A3
:100900000E94E92569017A0181E0C81AD108E1084D
:10091000F10883E09FEFC916D104E104F10409F066
:100920000CF4C8C168E478EE81E090E0A501940180
:100930000E94E92569017A0191E0C91AD108E1080C
:10094000F1082FEFC216D104E104F10411F00CF00C
:10095000A1C084E0AFC180933601EFEFF0E02491B5
:1009600029872F3F09F45ACF213041F150F022302E
:1009700009F446C0298527FD51CF61E00E9420037C
:1009800079CF14BC15BC24B5226024BD25B52160E7
:1009900025BD9C013327F901E551FF4FE491F0E0BB
:1009A000EE0FFF1FEF51FF4F45915491F901E353B3
:1009B000FF4FE491E0936903198656CF10928000AF
:1009C0001092810020918100286020938100209165
:1009D00081002160209381009C013327F901E551BA
:1009E000FF4FE491F0E0EE0FFF1FEF51FF4F4591F5
:1009F0005491F901E353FF4FE491E093680334CF3E
:100A00001092B0001092B1002091B00022602093AB
:100A1000B0002091B10021602093B1009C013327E8
:100A2000F901E551FF4FE491F0E0EE0FFF1FEF51A8
:100A3000FF4F459154915093670340936603F9012A
:100A4000E353FF4FE491E09365030ECF2FEFC216FF
:100A5000D104E104F10409F00CF46DC068E478EE0F
:100A600081E090E0A50194010E94E92569017A01E5
:100A700081E0C81AD108E108F1089985992309F4A1
:100A8000E5C02FEFC216D104E104F10411F00CF01F
:100A9000E6C05FCF64E274EF80E090E0A5019401CE
:100AA0000E94E92569017A0181E0C81AD108E108AC
:100AB000F10885E09FEFC916D104E104F10409F0C3
:100AC00008F4F8C062E17AE780E090E0A5019401C3
:100AD0000E94E92569017A0181E0C81AD108E1087C
:100AE000F108CFC081E029852111E4C095B5987F38
:100AF000892B85BD2FEF3FEFA901411451046104FB
:100B0000710409F057C08985813009F462C08230D0
:100B100009F471C0811182CEC7BC20937203309357
:100B20007303409374035093750380916E00826049
:100B300080936E0073CE82E0D6CF89819A814C017A
:100B4000B12CA12C60E072E18AE790E0A50194014C
:100B50000E94E92569017A0191E0C91AD108E108EA
:100B6000F10891E0C114D10421E0E206F10484F01F
:100B700068E478EE81E090E0A50194010E94E92507
:100B800069017A0181E0C81AD108E108F10893E00F
:100B90002985213009F0AECF80918100887F892B93
:100BA000809381002FEF3FEFA901411451046104AC
:100BB000710479F0A981BA81AA0FBB1FA301920128
:100BC0000E94082628EE33E040E050E00E94C7254E
:100BD0009ACFD0928900C092880020936E03309300
:100BE0006F03409370035093710380916F00826094
:100BF00080936F0013CEC092B30020936A033093AA
:100C00006B0340936C0350936D038091700082607E
:100C10008093700003CECD80DE80EF80F8848AE080
:100C2000F594E794D794C7948A95D1F721E0C21A36
:100C3000D108E108F10885E059CF8FEFC816D1043B
:100C4000E104F10409F038F784E050CF83E09FEF2E
:100C5000C916D104E104F10409F00CF447CF62E1B4
:100C60007AE780E090E0A50194010E94E9256901FE
:100C70007A0181E0C81AD108E108F1089985992321
:100C8000E1F286E09FEFC916D104E104F10491F08E
:100C900088F0CD80DE80EF80F8849AE0F594E794C8
:100CA000D794C7949A95D1F781E0C81AD108E10882
:100CB000F10887E09091B100987F892B8093B10073
:100CC00019CF4F925F926F927F928F929F92AF92C5
:100CD000BF92CF92DF92EF92FF920F931F93CF9329
:100CE000DF93CDB7DEB728970FB6F894DEBF0FBEFF
:100CF000CDBF2B013C0129833A834B835C83ED827A
:100D0000FE820F8318870E9445278B0129813A8133
:100D10004B815C81C301B2010E94CE2687FF25C0B2
:100D2000B801110F880B990B0E947D272B013C0104
:100D3000AC019B0169817A818B819C810E942D2865
:100D40001816C4F58401A6019501C301B2010E94E1
:100D5000DE032D813E814F815885C301B2010E947F
:100D600032280E9445278B01DBCFB801110F880B79
:100D7000990B0E947D272B013C01AC019B016981ED
:100D80007A818B819C810E94CE2687FF13C08401CB
:100D9000A6019501C301B2010E94DE032D813E81AF
:100DA0004F815885C301B2010E94D3260E94452776
:100DB0008B01DBCF28960FB6F894DEBF0FBECDBFF8
:100DC000DF91CF911F910F91FF90EF90DF90CF9027
:100DD000BF90AF909F908F907F906F905F904F905B
:100DE00008958F929F92AF92BF92CF92DF92EF922F
:100DF000FF921F93CF93DF9385E10E947103CAE0B6
:100E0000D0E0C12CD12C760115E085E10E94710360
:100E1000189FB001199F700D1124072E000C880B2C
:100E2000990B0E947D2720E030E040E85AE30E94C1
:100E300032284B015C0126E636E646E850E40E9483
:100E40002D2818163CF486E6882E982C86E8A82EC5
:100E500080E4B82E2FEB36E842ED52E4C501B40130
:100E60000E9432282CE73DE04BEA53E40E946126C1
:100E70004B015C0120E030E0A9010E94CE2687FFF3
:100E800003C0812C912C5401A5019401C701B60126
:100E90000E9462266B017C0161E070E080E090E0DE
:100EA0000E94AB03219709F0B0CF20E030E040E290
:100EB00051E4C701B6010E94D326DF91CF911F9163
:100EC000FF90EF90DF90CF90BF90AF909F908F906A
:100ED00008958F929F92AF92BF92CF92DF92EF923E
:100EE000FF920F931F93CF93DF9301978231910568
:100EF000B8F4FC01E258F84F0C94B028C107E4079D
:100F000018082B08420865089108C008EF081E0958
:100F100048096D099B09C609DD091E0A350A4C0AF4
:100F20000EE110E022E330E040E050E064EA70EDD2
:100F300084E294E40E94DE0309E110E027E330E05C
:100F400040E050E062E570ED84EA94E40E94DE0344
:100F50000AE010E02CE330E040E050E060E070E0B8
:100F60008CED94E40E94DE03DF91CF911F910F91ED
:100F7000FF90EF90DF90CF90BF90AF909F908F90B9
:100F800008950EE110E022E330E040E050E064EA32
:100F900070ED84E294E40E94DE0309E110E027E3AF
:100FA00030E040E050E060E070E08CED94E40E94BE
:100FB000DE030AE010E022E330E040E050E062E5CA
:100FC00070ED84EA94E4CECF92E0892E912C24E156
:100FD000A22EB12CC12CD12C1AE0E12E17EDF12E4E
:100FE00003E81FE32CE53FEF43EC54E462E570EDCA
:100FF00084EA94E40E9461066EE170E080E090E093
:101000000E94AB034AE0A42EB12CC12CD12C18EBCA
:10101000E12E1EE1F12E05E81FE32FE135ED42E15F
:1010200055E462E570ED84EA94E40E9461069CCF89
:10103000CAE08C2E912CDEE1AD2EB12CC12CD12C2E
:101040001CE5E12E1FE8F12E02E81FE320E030E06E
:101050004CED54E4E6CFFAE08F2E912CAEE1AA2EAF
:10106000B12CC12CD12C1AE0E12E17EDF12E03E8A2
:101070001FE32FE135ED42E155E46CE57FEF83ECB2
:1010800094E4D3CF04E610E022E330E040E050E007
:1010900062E570ED84EA94E40E94DE0300E510E06E
:1010A00022E330E040E050E06CE57FEF83EC94E435
:1010B0000E94DE0310E000E02CE231E040E050E06E
:1010C0006FE175ED82E195E44DCF88248394912CF6
:1010D0005AE0A52EB12CC12CD12C1CE5E12E1FE825
:1010E000F12E02E81FE320E030E646E055E460E040
:1010F00070E088E494E40E94610677E0A72EB12CAA
:10110000C12CD12C1AE0E12E17EDF12E03E81FE3DC
:1011100020E030E048E454E460E070E586E095E4E7
:1011200084CF93E0892E912C28E0A22EB12CC12CE3
:10113000D12C18EBE12E1EE1F12E05E81FE320E093
:1011400030E04AEF54E460E070E08CE594E40E9403
:10115000610668EC70E080E090E00E94AB03C6E1BD
:10116000D0E00AE010E025E030E040E050E068E444
:1011700071EF86E794E40E94DE03219791F7F4CEA5
:10118000C3E08C2E912CD8E0AD2EB12CC12CD12CEB
:101190001AE0E12E17EDF12E03E81FE320E030E81E
:1011A0004BE355E460E070E08BEE94E40E9461064E
:1011B00068EC70E080E090E00E94AB03C0E1D0E01A
:1011C0000AE010E02AE030E040E050E060E070ED3E
:1011D00082E894E40E94DE03219791F7C5CE64E093
:1011E000862E912C70E1A72EB12CC12CD12C1AE0A7
:1011F000E12E17EDF12E03E81FE320E030E041E699
:1012000054E460E070E08FE294E40E946106F7E04D
:101210008F2E912CA2E1AA2EB12CC12CD12C1EEA2A
:10122000E12E17E4F12E01E81FE320E030E842E26E
:1012300054E460E070EC80E694E4F7CE2AE0822E7D
:10124000912C3AE0A32EB12CC12CD12C18EBE12E1D
:101250001EE1F12E05E81FE320E030E04AEF53E401
:1012600060E070E088EC92E40E94610664EF71E057
:1012700080E090E00E94AB0388248394912C20E0CE
:1012800030E048EC52E460E070E088EC93E4CDCECE
:10129000D8E08D2E912C14E1A12EB12CC12CD12C93
:1012A00016E6E12EFE2C06E81FE320E030E44CE1D8
:1012B00055E460E070E88BEB94E40E94610699E1EC
:1012C000A92EB12CC12CD12C20E030E84BEB54E4FA
:1012D00060E070E38CE195E4A8CEE3E08E2E912CE3
:1012E000F8E0AF2EB12CC12CD12C16E6E12EFE2C4D
:1012F00006E81FE320E030E84BEB55E460E070E0E7
:101300008AEF94E40E94610662E370E080E090E07E
:101310000E94AB03B2E08B2E912CCDE0AC2EB12C11
:10132000C12CD12C20E030E04AEF54E460E078E7B3
:101330008BEB95E47ACE48E0842E912C5FE0A52ECD
:10134000B12CC12CD12C16E6E12EFE2C06E81FE3B1
:1013500020E030E04AEF54E460E070E88BEB94E486
:101360000E94610664E670E080E090E00E94AB03BA
:101370007AE0A72EB12CC12CD12C20E030E44CE136
:1013800055E460E070E88DEE94E44FCE98EC892E41
:10139000912C24E1A22EB12CC12CD12C1CE5E12EE4
:1013A0001FE8F12E02E81FE320E030E447E254E4B6
:1013B00060E070E08CE594E438CEF2E08F2E912C62
:1013C000A8E0AA2EB12CC12CD12C1AE0E12E17EDE9
:1013D000F12E03E81FE320E030E844ED54E460E040
:1013E00070E08AE794E40E946106C3E08C2E912CA1
:1013F00018EBE12E1EE1F12E05E81FE320E030E0BE
:101400004AEF53E460E070E684ED94E40E946106E4
:101410001AE0812E912C09E0A02EB12CC12CD12CE8
:1014200016E6E12EFE2C06E81FE320E030E844ED4E
:1014300054E460E070E08AE794E4F7CD6FE0862E34
:10144000912C72E0A72EB12CC12CD12C1CE5E12EE1
:101450001FE8F12E02E81FE320E030E84BE355E4FB
:1014600060E070E088EC94E4E0CD34E1832E912CD0
:1014700042E0A42EB12CC12CD12C1CE5E12E1FE89A
:10148000F12E02E81FE320E030E84BEB55E460E08A
:1014900070E08AEF94E4C9CD84E1882E912C92E02B
:1014A000A92EB12CC12CD12C1CE5E12E1FE8F12E68
:1014B00002E81FE320E030E04AE755E460E070E036
:1014C00088EC94E40E94610620E030E84BE355E4A8
:1014D00060E070E08AE795E4A8CD2FB7F8946091BA
:1014E00010037091110380911203909113032FBF89
:1014F0000895CF93C62F1092640310926303209136
:101500004B0330914C032F5F3F4F30934C0320939C
:101510004B036111862F682F61708FE00E940702D4
:101520006C2F8EE00E9407020E946D0A60934703B1
:10153000709348038093490390934A03CF91089591
:10154000CF93DF93FC01208131813327F901E754E8
:10155000FF4F8491F901E353FF4FD491F901E55115
:10156000FF4FC491CC2379F081110E94DE01EC2F52
:10157000F0E0EE0FFF1FEB55FF4FA591B491EC91FA
:10158000ED2381E009F480E0DF91CF910895DC0143
:10159000EC918E2F90E0FC01EE0FFF1FE80FF91F7A
:1015A000ED5EFB4F808186FF02C08F7B80830895B4
:1015B000CF92DF92EF92FF92CF93DF93EC016032F4
:1015C00082E07807CCF5653B710514F064EB70E0C0
:1015D000898128E830E0281B310987FD3395220FE7
:1015E000331F220F331F6901330FEE08FF088A8172
:1015F00028E532E0281B310987FD3395220F331F80
:10160000220F331F032E000C440B550B2C193D09E0
:101610004E095F09DB0177FF02C0B0E0A0E00E9445
:10162000132624EB30E040E050E00E94E925C20E92
:10163000D31EE41EF51EB601E881EC3070F5298159
:1016400088E890E0821B910927FD9395880F991FE8
:10165000880F991F681779077CF02A8188E592E046
:10166000821B910927FD9395880F991F880F991F59
:10167000681779070CF4CB010297880F991F4FB7B1
:10168000F8942E2F30E0F901EE0FFF1FE20FF31F49
:10169000ED5EFB4F928381834FBFDF91CF91FF902F
:1016A000EF90DF90CF9008951F93CF93DF93EC01DD
:1016B000162F88818C3008F04EC061E0812F0E9487
:1016C00020038881282F30E0F901EE0FFF1FE20F81
:1016D000F31FED5EFB4F1F736081607C612B6083A5
:1016E00019821A822CE0622F0E94A428829FB001E6
:1016F000112430E020E0AB01420F531FFA01EE0F3E
:10170000FF1FE40FF51FED5EFB4F908196FD16C0A5
:101710002F5F3F4F2C30310571F781110FC01092B0
:10172000800082E0809381001092850010928400F6
:10173000B19A80916F00826080936F00E8818E2F54
:1017400090E0FC01EE0FFF1FE80FF91FED5EFB4F6D
:101750008081806480838881DF91CF911F9108957B
:10176000E09140048E2F90E0FC01EE0FFF1FE80F88
:10177000F91FED5EFB4F808186FD58C06091AB0480
:101780007091AC0480E494E00E94540B6AE570E030
:1017900080E494E00E94D80A8EE190E090935E0489
:1017A00080935D0480ED97E0909348048093470414
:1017B00080E090E0A4E8B2E48093590490935A0446
:1017C000A0935B04B0935C048AE198EFA2ECBDE3C4
:1017D0008093550490935604A0935704B0935804F3
:1017E00010925F04109260041092610410926204DF
:1017F0008DE290E09093440480934304109251044E
:1018000010925204109253041092540410924904FE
:1018100010924A0410924B0410924C041092460409
:10182000109245041092670410926804E0916904D4
:101830008E2F90E0FC01EE0FFF1FE80FF91FED5E09
:10184000FB4F808186FD58C06091AD047091AE045D
:1018500089E694E00E94540B6AE570E089E694E022
:101860000E94D80A8EE190E09093870480938604CA
:1018700080ED97E0909371048093700480E090E095
:10188000A4E8B2E48093820490938304A093840438
:10189000B09385048AE198EFA2ECBDE380937E04C7
:1018A00090937F04A0938004B093810410928804E5
:1018B0001092890410928A0410928B048DE290E0B9
:1018C00090936D0480936C0410927A0410927B04C0
:1018D00010927C0410927D04109272041092730492
:1018E000109274041092750410926F0410926E049A
:1018F00010929004109291040895CF92DF92EF928B
:10190000FF92CF93DF936C01EB010E94B00B8091AB
:10191000D30481111092D3048BE0C816D1045CF576
:101920006881798180914F0490915004680F791FEC
:1019300080E494E00E94D80A6A817B8180917804D7
:1019400090917904680F791F89E694E00E94D80A83
:10195000888199819093B4048093B3048A819B8198
:101960009093B6048093B504DF91CF91FF90EF90F0
:10197000DF90CF9008950E946D0A0D2C000CEE08A8
:10198000FF086C0D7D1D8E1D9F1D6093BB04709321
:10199000BC048093BD049093BE04688179818091DA
:1019A0004F0490915004680F791F80E494E00E94E6
:1019B000D80A6A817B818091780490917904680FBC
:1019C000791F89E694E00E94D80A0E946D0AC60E2B
:1019D000D71EE81EF91EC092BB04D092BC04E09250
:1019E000BD04F092BE040E946D0AC090BB04D0906A
:1019F000BC04E090BD04F090BE04C616D706E8060D
:101A0000F90608F4A5CFEFCFCF93DF9300D000D035
:101A1000CDB7DEB74091270250912802609129028C
:101A200070912A0249835A836B837C83BE016F5F66
:101A30007F4F0E947D0C0F900F900F900F90DF91C1
:101A4000CF910895CF93DF9300D000D0CDB7DEB70C
:101A500040912B0250912C0260912D0270912E0228
:101A600049835A836B837C83BE016F5F7F4F0E94E3
:101A70007D0C0F900F900F900F90DF91CF910895F4
:101A8000CF93DF9300D000D0CDB7DEB740912F02C7
:101A900050913002609131027091320249835A8331
:101AA0006B837C83BE016F5F7F4F0E947D0C0F9024
:101AB0000F900F900F90DF91CF910895CF93DF9308
:101AC00000D000D0CDB7DEB78091D30481111EC005
:101AD0008091270290912802A0912902B0912A02B8
:101AE00089839A83AB83BC83BE016F5F7F4F84EF92
:101AF00091E00E947D0C80E494E00E94C70A89E690
:101B000094E00E94C70A81E08093D3040F900F9065
:101B10000F900F90DF91CF910895CF93DF9300D076
:101B200000D0CDB7DEB740913302509134026091BE
:101B300035027091360249835A836B837C83BE01E0
:101B40006F5F7F4F0E947D0C0F900F900F900F9052
:101B5000DF91CF910895CF93DF9300D000D0CDB720
:101B6000DEB740913702509138026091390270918E
:101B70003A0249835A836B837C83BE016F5F7F4F38
:101B80000E947D0C0F900F900F900F90DF91CF91DE
:101B90000895FC0101900020E9F73197AF01481B3F
:101BA000590BBC0186E793E00C94B600CF93DF930A
:101BB0000E94A301EC0185E792E00E94C90D8C0F01
:101BC0009D1FDF91CF9108956EE170E080E090E07D
:101BD0000E94AB0382EA90E00E94A30180EA90E0B9
:101BE0000E94A3018DE990E00E94D60D86E793E064
:101BF0000C94BE016EE170E080E090E00E94AB03C7
:101C00008AE990E00E94A30188E990E00E94A30184
:101C100085E990E00E94D60D86E793E00C94BE0122
:101C20000E94FA0D0E945E0D0C94E40D8F929F921B
:101C3000AF92BF920F931F93CF93DF93CDB7DEB7D1
:101C4000A1970FB6F894DEBF0FBECDBF19A24230E8
:101C500008F44AE08E010F5D1F4F842E912CB12CA9
:101C6000A12CA50194010E94C725E62FB901CA0144
:101C7000EA30F4F4E05DD801EE938D01232B242BA0
:101C8000252B79F790E080E0109719F0CD010E94A4
:101C9000C90DA1960FB6F894DEBF0FBECDBFDF9180
:101CA000CF911F910F91BF90AF909F908F9008950B
:101CB000E95CE1CFCF92DF92EF92FF92CF93DF9377
:101CC0006B017C016DE286E793E00E945601EC0116
:101CD00066277727CB016C197D098E099F094AE099
:101CE0000E94160E8C0F9D1FDF91CF91FF90EF90F9
:101CF000DF90CF9008950E945E0D82E990E00E94EF
:101D0000A3018FE890E00E94A30183E492E00E9487
:101D1000C90D8CE890E00E94D60D86E793E00C9404
:101D2000BE01CF93DF93BC01990F880B990B97FFEE
:101D30000CC00E945A0EEC0185E792E00E94C90D8A
:101D40008C0F9D1FDF91CF9108954AE00E94160EDF
:101D5000F2CFBC01990F880B990B97FD0C945A0E8A
:101D60004AE00C94160ECF93DF930E945E0D809193
:101D7000B9040E9471038091B9040E947103EC01BF
:101D800064E070E080E090E00E94AB038091B904D1
:101D90000E947103C80FD91F64E070E080E090E0FA
:101DA0000E94AB0380E890E00E94A3018DE790E0E1
:101DB0000E94A301CE01D7FD0196959587950E94BB
:101DC000A90E8AE790E00E94D60D86E793E0DF91A6
:101DD000CF910C94BE014F925F926F927F928F923F
:101DE0009F92AF92BF92CF92DF92EF92FF920F93AA
:101DF0001F93CF936B017C01742EAC019B010E9459
:101E00009F28882399F088E792E0CF911F910F9146
:101E1000FF90EF90DF90CF90BF90AF909F908F900A
:101E20007F906F905F904F900C94C90D46015701C1
:101E3000E894B7F82FEF3FEF4FE75FE7C501B40134
:101E40000E949F2881110DC02FEF3FEF4FE75FE702
:101E5000C501B4010E94CE2618161CF48CE792E04E
:101E6000D4CF2FEF3FEF4FE75FE4C701B6010E94E9
:101E70002D2818161CF480E892E0C7CF2FEF3FEF13
:101E80004FE75FECC701B6010E94CE2687FDF3CF76
:101E900020E030E0A901C701B6010E94CE2610E083
:101EA00000E087FF0AC06DE286E793E00E945601DA
:101EB0008C01F7FAF094F7F8F094C0E060E070E07D
:101EC00080E09FE37C1641F020E030E040E251E406
:101ED0000E94D326CF5FF6CFA70196010E9462260B
:101EE0002B013C010E944C274B015C014AE00E94FF
:101EF000160E7C01E00EF11ECC23C1F1C501B40128
:101F00000E947B279B01AC01C301B2010E946126A4
:101F10004B015C016EE286E793E00E945601E80EF9
:101F2000F91EC15018F120E030E040E251E4C50153
:101F3000B4010E9432282B013C010E944C274B0126
:101F4000B12CA12C4AE0C501B4010E94160EE80E86
:101F5000F91EC501B4010E947B279B01AC01C3019E
:101F6000B2010E9461264B015C01DBCFC701CF911A
:101F70001F910F91FF90EF90DF90CF90BF90AF90A7
:101F80009F908F907F906F905F904F900895CF9229
:101F9000DF92EF92FF920E945E0D0E94F1066B01AC
:101FA0007C0189E890E00E94A30186E890E00E940D
:101FB000A30142E0C701B6010E94EB0E83E890E066
:101FC0000E94D60D86E793E0FF90EF90DF90CF90D0
:101FD0000C94BE016F927F928F929F92AF92BF92AC
:101FE000CF92DF92EF92FF920F931F93CF93DF93E5
:101FF0006C018091610390916203892BA1F560E0EF
:1020000080E10E9407021092600310925F03109219
:10201000590310925A0310925B0310925C031092C2
:102020004C0310924B0310926403109263030E94BE
:102030006D0A60934703709348038093490390931C
:102040004A038BEA90E090933301809332018091B0
:102050006900836080936900E89A81E090E0909342
:102060006203809361030E946D0A009147031091FF
:1020700048032091490330914A03601B710B820B86
:10208000930B633371058105910530F083E090E097
:102090009093620380936103809161039091620346
:1020A000039709F09CC080914B0390914C038130C1
:1020B0009105B1F13CF4892B41F110926403109227
:1020C000630344C08230910509F4F6C00397A9F771
:1020D000809163039091640390935E0380935D030A
:1020E0008AEA92E00E94C90D80915D0390915E039F
:1020F0000E94910E60E081E00E94790A82E090E007
:10210000909362038093610321C084E892E00E946F
:10211000C90D85E792E00E94C90D60E080E014C01F
:10212000809163039091640390935A0380935903C1
:1021300080E992E00E94C90D8091590390915A0361
:102140000E94910E61E081E00E94790A80914B0328
:1021500090914C0304970CF4C3C08CEC92E00E9465
:10216000C90D80915F03909160030E94910E809150
:102170005F0390916003892B91F5C9E5D3E00DE4ED
:1021800013E02FE5E22E23E0F22E69917991072EDC
:10219000000C880B990B0E947D279B01AC0160E02D
:1021A00070E08FE793E40E94D326F8016193719366
:1021B000819391938F0187EB92E00E94C90DF80102
:1021C0003497608171818281938142E00E94EB0E9D
:1021D00085E792E00E94C90DEC16FD06B1F68091EC
:1021E000610390916203029709F084C086EC92E04B
:1021F0000E94C90D81E090E09093600380935F039B
:102200000E94910E89E5E82E83E0F82E0DE413E09C
:10221000E6013601F6E06F0E711CCC24CA94D12C75
:10222000F701619171917F01F80181909190A190E6
:10223000B1908F01072E000C880B990B0E947D270F
:10224000A50194010E9432280E9445276F3F710525
:1022500011F00CF04CC07983688388ED92E00E9405
:10226000C90D899199910E94910EC615D705C1F6A5
:10227000E89885EB90E090933301809332011092BF
:102280004C0310924B03109264031092630310925C
:1022900062031092610381E090E0DF91CF911F9182
:1022A0000F91FF90EF90DF90CF90BF90AF909F90F5
:1022B0008F907F906F900895809163039091640355
:1022C00090935C0380935B038DE992E00E94C90DBB
:1022D00080915B0390915C030E94910E61E01ECFA0
:1022E00084E090E0909362038093610378CFD98279
:1022F000C882B3CF90E080E0D0CF81E080934403E8
:1023000090914603911108C0809346036FE070E0FE
:1023100080E090E00C947202089581E08093450380
:1023200090914603911108C0809346036FE070E0DE
:1023300080E090E00C94720208951F93CF93DF9396
:1023400020910105309102052E30310504F5EB0195
:10235000BC0115E2129FC001139F900D112443E2AE
:1023600050E08D5F9A4F0E94CD2880910105909199
:102370000205189FF001199FF00D1124EA5DFA4F34
:10238000D183C08301969093020580930105DF916C
:10239000CF911F9108954FEF54E06AEF74E090E001
:1023A00080E00C946F25CF93DF9300D0CDB7DEB7DC
:1023B0000E94FA0D0E945E0D0E94CB110097C1F0A1
:1023C00042E050E0BE016F5F7F4F0E945D2460934A
:1023D00038047093390480933A0490933B040E942C
:1023E00035020E94E40D0F900F90DF91CF91089578
:1023F0006AE170E080E090E00E94720260ED77E0B8
:1024000080E090E00E94AB030E94A802EACFCF9246
:10241000DF92EF92FF920F931F93CF93DF930E946F
:10242000FA0D0E945E0D0E94CB1111E0009721F081
:102430000E944825EC0110E00E94CB11009721F08A
:102440000E9448251123C1F06AE170E080E090E02D
:102450000E94720260ED77E080E090E00E94AB03A2
:102460000E94A802DF91CF911F910F91FF90EF90F2
:10247000DF90CF900C94E40D6C01990FEE08FF08EB
:10248000BE01DD0F880B990B0E947D2701E010E053
:10249000A70196010E94DE03E5CF0E94FA0D80910C
:1024A000D30481111092D3040E94CB11009791F0B4
:1024B0000E94482590931903809318030E94CB1122
:1024C0000097D9F00E94482590932F0180932E0108
:1024D0000C94CB116AE170E080E090E00E947202FF
:1024E00060ED77E080E090E00E94AB030E94A802DC
:1024F0001092190310921803E1CF88EE93E0E4CF15
:102500002F923F924F925F926F927F928F929F9203
:10251000AF92BF92CF92DF92EF92FF920F931F93F1
:10252000CF93DF9300D000D0CDB7DEB70E94FA0D75
:102530000E945E0D0E94CB110097C1F00E944825B9
:1025400001978D30910500F5FC01E755FD4E0C9487
:10255000B028DC12F712201391131D147A148B1477
:102560009C1415155815F215031758176AE170E0F9
:1025700080E090E00E94720260ED77E080E090E001
:102580000E94AB030E94A8020F900F900F900F9033
:10259000DF91CF911F910F91FF90EF90DF90CF903F
:1025A000BF90AF909F908F907F906F905F904F9073
:1025B0003F902F900C94E40D0EE110E022E330E008
:1025C00040E050E064EA70ED84E294E40E94DE03AF
:1025D0006AE070E080E090E00E9472028DE090E09E
:1025E0000E9469078DE090E00E94690720C06BE0BF
:1025F00070E080E090E00E9472028BE090E00E9428
:1026000069076CE070E080E090E00E9472026BE08D
:1026100070E080E090E00E9472028CE090E00E9406
:1026200069076CE070E080E090E00E9472020E9416
:102630005E0D6BE070E080E090E00E947202A4CF3B
:1026400066E170E080E090E00E94720228EC822E49
:10265000912C34E1A32EB12CC12CD12C1CE5E12E00
:102660001FE8F12E02E81FE320E030E84FE454E4D5
:1026700060E070E08CE594E40E94610668E170E03F
:1026800080E090E00E94720220E030E845E454E4EB
:1026900060E070E88FE494E40E94610667E170E016
:1026A00080E090E00E94720220E030E049E354E4D0
:1026B00060E070E885E494E40E94610668E170E0FF
:1026C00080E090E00E94720220E030E04FE254E4AB
:1026D00060E070E089E394E40E94610667E170E0E5
:1026E00080E090E00E94720220E030E447E254E48F
:1026F00060E070E08FE294E40E94610666E170E0C1
:1027000080E090E00E94720264EF71E080E090E06F
:102710000E94AB030E945E0D6CE271E080E090E0ED
:10272000E6C024E030E03A83298350E040E061E0F5
:1027300070E080E090E00E94B202BAE08B2E912C13
:102740001AE0A12EB12CC12CD12C18EBE12E1EE1E8
:10275000F12E05E81FE320E030E048E453E460E0B8
:1027600070E088EC92E40E94610641E050E061E094
:1027700070E080E090E00E94B20220E030E046E9A4
:1027800053E460E070E088E493E40E94610642E074
:1027900050E061E070E080E090E00E94B20220E052
:1027A00030E04AEF53E460E070E086E993E40E9491
:1027B000610664EF71E080E090E00E94AB0341E0CD
:1027C00050E061E070E080E090E00E94B202882476
:1027D0008394912C20E030E04AE753E460E070E01D
:1027E00088EC93E40E94610650E040E061E070E014
:1027F00080E090E00E94B20220E030E048EC52E439
:1028000060E070E08AE793E40E94610664EF71E0A3
:1028100080E090E00E94AB0389819A8101979A83BE
:102820008983892B09F081CF63E170E080E090E03B
:102830000E94720289E090E0D7CE6CE271E080E005
:1028400090E00E94AB0363E170E080E090E00E94C2
:10285000720280E190E00E94690760E170E080E030
:1028600090E00E9472026AEF70E080E090E00E94C7
:10287000AB036CE271E080E090E00E94AB0363E1A7
:1028800070E080E090E00E94720281E190E00E949E
:10289000690760E170E080E090E00E9472026AEFF8
:1028A00070E080E090E00E94AB036CE271E080E0B9
:1028B00090E00E94AB0363E170E080E090E00E9452
:1028C000720282E190E00E94690760E170E080E0BE
:1028D00090E00E9472026CE271E080E090E00E9461
:1028E000AB030E945E0D64EF71E080E090E00E9417
:1028F000AB039FCE64E170E080E090E00E94720242
:102900008FE090E00E94690764EF71E080E090E062
:102910000E94AB038CCE6DE070E080E090E00E94FE
:10292000720289E090E00E9469070E945E0D8DE0CE
:1029300090E00E9469077DCE6EE170E080E090E05B
:102940000E9472020EE110E024E630E040E050E028
:1029500060E070E08CE594E40E94DE0344E0842EA5
:10296000912C57E0A52EB12CC12CD12C1CE5E12EC9
:102970001FE8F12E02E81FE32FE135ED42E954E4B0
:1029800060E070E08CE594E40E9461068824839402
:10299000912CEAE0AE2EB12CC12CD12C2CE53FEFCE
:1029A00043EC54E46FE175ED82E994E40E94610622
:1029B00020E030E04CE554E46CE57FEF83EC94E4F8
:1029C0000E9461066FE070E080E090E00E94AB033F
:1029D000F4E08F2E912CA4E1AA2EB12CC12CD12C85
:1029E00024EA30ED44E254E460E070E08CE594E4E5
:1029F0000E94610660E971E080E090E00E94AB0314
:102A00002FE135ED42E954E460E070E08CE594E4B8
:102A10000E94610624EA30ED44E254E460E070E094
:102A20008CE594E40E94610602CE6EE170E080E0E5
:102A300090E00E94720294E0892E912C24E1A22E53
:102A4000B12CC12CD12C1CE5E12E1FE8F12E02E89F
:102A50001FE32FE135ED42E954E460E070E08CE5DE
:102A600094E40E94610624EA30ED44E254E460E01C
:102A700070E08CE594E40E9461066CE271E080E015
:102A800090E00E94AB0363E170E080E090E00E9480
:102A900072020E945E0D0E945E0D0E945E0D0E94F9
:102AA0005E0D6EE170E080E090E00E9472022CCF3B
:102AB00024E030E03A83298300E911E01C821B8284
:102AC0004B815C8162E070E080E090E00E94B202A5
:102AD000180134E6230E311CB801110F880B990B35
:102AE0000E947D272B013C01B101032C000C880BB7
:102AF000990B0E947D279B01AC011AE0812E912C3D
:102B00000AE0A02EB12CC12CD12C18EBE12E1EE135
:102B1000F12E05E81FE3C301B2010E9461068B811B
:102B20009C8101969C838B838101069749F60E94C4
:102B3000A80218EBE12E1EE1F12E05E81FE320E0CC
:102B400030E849E854E4C301B2010E94610628EE6E
:102B500033E03C832B83312C212CA10162E070E017
:102B600080E090E00E94B2026B817C816C597F4FC3
:102B7000072E000C880B990B0E947D272B013C012E
:102B80002B813C81B901330F880B990B0E947D2763
:102B9000EAE08E2E912CFAE0AF2EB12CC12CD12C74
:102BA00018EBE12E1EE1F12E05E81FE3A3019201CF
:102BB0000E9461068B819C81845691099C838B8342
:102BC0009FEF291A390A2B813C812039314029F69F
:102BD00029813A81215031093A832983232B09F035
:102BE0006BCF9ACD82E090E09A83898384EF91E065
:102BF0009C838B83312C212CA10163E070E080E069
:102C000090E00E94B2026B817C816C597F4F072E4D
:102C1000000C880B990B0E947D272B013C012B8116
:102C20003C81B901330F880B990B0E947D273AE054
:102C3000832E912C4AE0A42EB12CC12CD12C1CE562
:102C4000E12E1FE8F12E02E81FE3A30192010E948A
:102C500061068B819C818B599F4F9C838B839FEF57
:102C6000291A390A2AE02216310431F686EE95E057
:102C70009C838B83312C212CA10163E070E080E0E8
:102C800090E00E94B2026B817C816C597F4F072ECD
:102C9000000C880B990B0E947D272B013C012B8196
:102CA0003C81B901330F880B990B0E947D27AAE064
:102CB0008A2E912CBAE0AB2EB12CC12CD12C1CE564
:102CC000E12E1FE8F12E02E81FE3A30192010E940A
:102CD00061068B819C818B599F4F9C838B839FEFD7
:102CE000291A390A2AE02216310431F688ED99E0D2
:102CF0009C838B83312C212CA10163E070E080E068
:102D000090E00E94B2026B817C8164567109072EAB
:102D1000000C880B990B0E947D272B013C012B8115
:102D20003C81B901330F880B990B0E947D275AE033
:102D3000852E912CEAE0AE2EB12CC12CD12C1CE5B5
:102D4000E12E1FE8F12E02E81FE3A30192010E9489
:102D500061068B819C81855691099C838B839FEFB3
:102D6000291A390A2B813C81263E354029F6312C1F
:102D7000212CA10163E070E080E090E00E94B202AB
:102D80006B817C8164567109072E000C880B990BAE
:102D90000E947D272B013C012B813C81B901330F1F
:102DA000880B990B0E947D272AE0822E912C3AE015
:102DB000A32EB12CC12CD12C1CE5E12E1FE8F12E45
:102DC00002E81FE3A30192010E9461068B819C81AE
:102DD000855691099C838B839FEF291A390A2AE033
:102DE0002216310431F689819A81019739F40E94C3
:102DF000A80264E670E080E090E079CD21E030E068
:102E00003A832983F3CE6FE070E080E090E00E9487
:102E1000720220E436E03A83298329813A81B9019C
:102E2000330F880B990B0E947D2701E010E02FE003
:102E300030E040E050E00E94DE0389819A814496B0
:102E40009A838983803F9A4041F76EE070E080E08A
:102E500090E00E94720229813A81B901330F880BF8
:102E6000990B0E947D2701E010E02FE030E040E068
:102E700050E00E94DE0389819A8144969A83898377
:102E8000803A9F4041F76BE070E080E090E00E9464
:102E900072028CE090E00E9469076CE070E080E0D4
:102EA00090E00E9472020E945E0D0E94A802C1CBB7
:102EB00067E170E080E090E00E94720201E010E0C3
:102EC00028EC30E040E050E060E070E081E694E41F
:102ED0000E94DE0368E170E080E090E00E947202F0
:102EE00028EC30E040E050E060E070E086E194E4FF
:102EF0000E94DE0364E170E080E090E00E947202D4
:102F000028EC30E040E050E060E070E086E993E4D7
:102F10000E94DE036AE170E080E090E00E947202AD
:102F200080E494E00E94C70A89E694E00E94C70A00
:102F300028E938E040E050E060E070E086E193E4AA
:102F40000E94DE0368E572E080E090E00E94AB033F
:102F50000E94A8026BE070E080E090E00E947202A4
:102F60000E945E0D11CB0E94FA0D0E945E0D0E9420
:102F7000CB110097F1F00E9448250197833191050C
:102F800030F5FC01EA53F84E0C94B028E917EE171F
:102F9000F117F417F717FA17FD170018031806189A
:102FA00009180C180F181218151818181B181E18C5
:102FB00021186AE170E080E090E00E94720260ED0A
:102FC00077E080E090E00E94AB030E94A8020C949E
:102FD000E40D90E080E00E946907F9CF81E090E085
:102FE000FACF86E090E0F7CF87E090E0F4CF88E07A
:102FF00090E0F1CF89E090E0EECF8AE090E0EBCF77
:103000008BE090E0E8CF8CE090E0E5CF8DE090E0C1
:10301000E2CF8EE090E0DFCF8FE090E0DCCF80E188
:1030200090E0D9CF81E190E0D6CF82E190E0D3CF9C
:1030300083E090E0D0CF84E090E0CDCF85E090E0D9
:10304000CACF82E090E0C7CFAF92BF92CF92DF921B
:10305000EF92FF921F93CF93DF93CDB7DEB7289700
:103060000FB6F894DEBF0FBECDBF0E94FA0D8EE101
:1030700090E090931903809318030E94CB1111E004
:10308000009721F00E9448255C0110E00E94CB11BE
:10309000009791F10E9448256C010E94CB11009786
:1030A00069F10E9448257C010E94CB11009721F014
:1030B0000E944825112321F16AE170E080E090E050
:1030C0000E94720260ED77E080E090E00E94AB0326
:1030D0000E94A8020E94E40D28960FB6F894DEBF65
:1030E0000FBECDBFDF91CF911F91FF90EF90DF908A
:1030F000CF90BF90AF90089511E0CFCF11E0D4CF23
:10310000BA82A982DC82CB82FE82ED8298878F838D
:10311000BE016F5F7F4F88EC90E00E947D0CDACF9C
:10312000CF92DF92EF92FF920F931F93CF93DF9393
:10313000CDB7DEB72B970FB6F894DEBF0FBECDBF6D
:103140000E945E0D1A821982FE01339689E0DF012A
:103150001D928A95E9F732977F0105E010E06F0133
:10316000C8010E94A125D7018D937D010F5F1F4FDC
:1031700000311105A9F78EE690E00E94A3018BE6CD
:1031800090E00E94A301C6010E94C90D88E690E06C
:103190000E94D60D86E793E00E94BE012B960FB6E3
:1031A000F894DEBF0FBECDBFDF91CF911F910F917D
:1031B000FF90EF90DF90CF900895FF920F931F93B1
:1031C000CF93DF938C01EB01F8800E94A125F816C4
:1031D00021F06F2DC8010E94A925CE01DF91CF916A
:1031E0001F910F91FF900895DF92EF92FF920F933E
:1031F0001F93CF93DF93CDB7DEB72B970FB6F8941D
:10320000DEBF0FBECDBF0E94FA0D0E945E0D1A8276
:103210001982FE01339689E0DF011D928A95E9F754
:103220000E94CB11009791F1FC01CE0101967C0127
:103230009F01245F3F4FDC018191882329F0E21731
:10324000F30711F08D93F8CF05E010E0D701DD9082
:103250007D01C8010E94A125D81621F06D2DC8015D
:103260000E94A9250F5F1F4F0031110579F72B969A
:103270000FB6F894DEBF0FBECDBFDF91CF911F9187
:103280000F91FF90EF90DF900C94E40D6AE170E0F5
:1032900080E090E00E94720260ED77E080E090E0D4
:1032A0000E94AB030E94A802E2CFFF920F931F93EC
:1032B000CF93DF930E94FA0D0E945E0D0E94CB1106
:1032C000C1E0009729F00E944825D82FF92EC0E0D0
:1032D0000E94CB11009719F10E9448258C010E9491
:1032E000CB11892B09F4C1E00E94CB11892B11F07D
:1032F000CC23B9F06AE170E080E090E00E947202B5
:1033000060ED77E080E090E00E94AB030E94A802AD
:10331000DF91CF911F910F91FF900C94E40DC1E0CC
:10332000DECFD0934F04F0925004109379040093B1
:1033300078046D2F90E080E00E94A92560917804C8
:1033400081E090E00E94A9256091A10482E090E0D4
:103350000E94A9256091CA0483E090E00E94A925FB
:10336000D7CFCF92DF92EF92FF920F931F930E94DD
:103370005E0D60E0809192040E94070283E090E07D
:103380000197F1F761E0809192040E94070283E2C5
:1033900090E00197F1F760E0809192040E940702AB
:1033A00080919404909195049927FC01E353FF4F79
:1033B0006491FC01E551FF4FE491F0E0EE0FFF1F37
:1033C000EB55FF4F8591949100E41CE920E030E03B
:1033D000462F0E94551C611571058105910529F044
:1033E0006F5F7F4F8F4F9F4F9F702AE330E040E029
:1033F00050E00E94E92569017A01C114D104E10479
:10340000F10431F487EEC82E83E0D82EE12CF12CA4
:1034100087E790E00E94A30184E790E00E94A30167
:10342000C701B6010E947D270E944527CB010E945B
:10343000A90E81E790E00E94D60D86E793E01F91E8
:103440000F91FF90EF90DF90CF900C94BE011F92F0
:103450000F920FB60F9211242F933F934F935F93C8
:103460006F937F938F939F93AF93BF93EF93FF934C
:1034700080916A0390916B03A0916C03B0916D03EE
:10348000892B8A2B8B2BD1F190916503E0916603F8
:10349000F091670380818927808380916A039091EE
:1034A0006B03A0916C03B0916D03181619061A06F0
:1034B0001B069CF480916A0390916B03A0916C03AE
:1034C000B0916D030197A109B10980936A039093AC
:1034D0006B03A0936C03B0936D03FF91EF91BF91C9
:1034E000AF919F918F917F916F915F914F913F919C
:1034F0002F910F900FBE0F901F901895809136015D
:10350000EFEFF0E0E4919FEF90933601E13051F05E
:1035100030F0E23069F060E00E940702DECF1092E6
:103520006E00F9CF90916F009D7F90936F00F3CF65
:10353000909170009D7F9093700091E09093B00007
:103540009091B100987F94609093B1001092B30075
:10355000E2CF1F920F920FB60F9211242F933F9339
:103560004F935F936F937F938F939F93AF93BF938B
:10357000EF93FF9386E793E00E943401FF91EF9170
:10358000BF91AF919F918F917F916F915F914F917B
:103590003F912F910F900FBE0F901F9018951F9283
:1035A0000F920FB60F9211242F938F939F93EF9347
:1035B000FF93E0918603F09187038081E0918C0373
:1035C000F0918D0382FD1BC0908180918F038F5FEE
:1035D0008F7320919003821741F0E0918F03F0E008
:1035E000EA58FC4F958F80938F03FF91EF919F9145
:1035F0008F912F910F900FBE0F901F901895808183
:10360000F4CF1F920F920FB60F9211242F933F9376
:103610008F939F93AF93BF93809110039091110369
:10362000A0911203B091130330910F0323E0230FF5
:103630002D3758F50196A11DB11D20930F038093DE
:10364000100390931103A0931203B093130380917E
:10365000140390911503A0911603B09117030196DE
:10366000A11DB11D8093140390931503A09316031D
:10367000B0931703BF91AF919F918F913F912F917D
:103680000F900FBE0F901F90189526E8230F0296FB
:10369000A11DB11DD2CF1F920F920FB60F92112410
:1036A0002F933F934F935F936F937F938F939F934A
:1036B000AF93BF93EF93FF93E0913401F091350105
:1036C0000995FF91EF91BF91AF919F918F917F915C
:1036D0006F915F914F913F912F910F900FBE0F907F
:1036E0001F9018951F920F920FB60F9211242F93CF
:1036F0003F934F935F936F937F938F939F93AF937A
:10370000BF93EF93FF93E0913201F091330109955C
:10371000FF91EF91BF91AF919F918F917F916F91A9
:103720005F914F913F912F910F900FBE0F901F907F
:1037300018951F920F920FB60F9211242F933F935B
:103740004F935F936F937F938F939F93AF93BF93A9
:10375000CF93DF93EF93FF9380910E03C0913704D3
:10376000D0E087FF24C010928500109284008091E1
:103770000E038F5F80930E0380910E03082E000CC2
:10378000990B8C179D0724F480910E038C30C4F1A3
:103790008091840090918500049680349C4908F4BF
:1037A0007AC08091840090918500049676C08091C3
:1037B0000E03082E000C990B8C179D07C4F6E091A0
:1037C0000E038E2FEE0F990BFC01EE0FFF1FE80F7B
:1037D000F91FED5EFB4F808186FFC9CFE0910E039C
:1037E0008E2FEE0F990BFC01EE0FFF1FE80FF91F54
:1037F000ED5EFB4F808160E08F730E940702B7CFC0
:103800002091840030918500E0910E038E2FEE0F01
:10381000990BFC01EE0FFF1FE80FF91FED5EFB4F48
:1038200081819281820F931F9093890080938800F9
:10383000E0910E038E2FEE0F990BFC01EE0FFF1F90
:10384000E80FF91FED5EFB4F808186FF11C0E0910C
:103850000E038E2FEE0F990BFC01EE0FFF1FE80FEA
:10386000F91FED5EFB4F808161E08F730E940702BC
:10387000FF91EF91DF91CF91BF91AF919F918F9188
:103880007F916F915F914F913F912F910F900FBE5C
:103890000F901F90189580E49CE990938900809385
:1038A00088008FEF80930E03E3CFCF92DF92EF92E9
:1038B000FF920F931F93E82FF92F05C001501109B4
:1038C0002109310961F1908196239417B9F305C05C
:1038D000015011092109310911F1908196239413A6
:1038E000F7CFC12CD12CE12CF12C0AC08FEFC81AD4
:1038F000D80AE80AF80A0C151D052E053F0579F0CF
:1039000080818623841791F36C2D7D2D8E2D9F2D24
:103910001F910F91FF90EF90DF90CF90089560E09E
:1039200070E080E090E01F910F91FF90EF90DF90AA
:10393000CF900895109279031092780388EE93E067
:10394000A0E0B0E080937A0390937B03A0937C0384
:10395000B0937D0387E692E090937703809376039C
:1039600085EC90E0909383038093820384EC90E055
:10397000909385038093840380EC90E09093870379
:103980008093860381EC90E0909389038093880371
:1039900082EC90E090938B0380938A0386EC90E016
:1039A00090938D0380938C0310928F031092900359
:1039B000109291031092920380E290E09093FB04A6
:1039C0008093FA048DE08093FC041092020510921B
:1039D0000105E5EDF4E088EF94E011928E179F0762
:1039E000E1F71092F9041092F80410923804109242
:1039F000390410923A0410923B048BE080933C040B
:103A00008DE080933D048CE080933E0461E08BE088
:103A10000E94200361E080913D040E94200361E048
:103A200080913E040E94200360E080913C040E944B
:103A3000070260E080913D040E94070260E08091EF
:103A40003E040E9407020E943502809137048C30A8
:103A5000A0F08FEF809340041092500410924F0416
:103A6000809137048C30E0F08FEF809369041092DE
:103A70007904109278040C94510391E0980F90937C
:103A800037048093400490E0FC01EE0FFF1FE80F25
:103A9000F91FED5EFB4F88EB9BE092838183DCCFC7
:103AA00091E0980F909337048093690490E0FC01B3
:103AB000EE0FFF1FE80FF91FED5EFB4F88EB9BE059
:103AC00092838183D4CFCF93DF93CDB7DEB7C65D2A
:103AD000D1090FB6F894DEBF0FBECDBF789484B580
:103AE000826084BD84B5816084BD85B5826085BDFA
:103AF00085B5816085BD80916E00816080936E0088
:103B00001092810080918100826080938100809179
:103B1000810081608093810080918000816080932A
:103B200080008091B10084608093B1008091B000EA
:103B300081608093B00080917A00846080937A00E5
:103B400080917A00826080937A0080917A0081600F
:103B500080937A0080917A00806880937A00109236
:103B6000C100E0918603F091870382E08083E091B9
:103B70008203F09183031082E0918403F091850326
:103B800080E1808310928E03E0918A03F0918B0391
:103B900086E08083E0918803F091890380818061D1
:103BA0008083E0918803F09189038081886080831D
:103BB000E0918803F0918903808180688083E0919F
:103BC0008803F091890380818F7D808360E086E0A7
:103BD0000E94200360E087E00E94200384E090E0E0
:103BE0009093AC048093AB0485E090E09093AE0496
:103BF0008093AD040E94B00B1092D3048AE590E04C
:103C00009093B4048093B3049093B6048093B50466
:103C100083E090E0909397048093960460E00E9484
:103C2000200381E190E0909399048093980460E0F0
:103C30000E9420030E94510382E190E090939C0433
:103C400080939B0460E00E94200301E010E0109349
:103C50009E0400939D041093A00400939F0410936E
:103C6000A2040093A10483E190E09093A4048093C4
:103C7000A30460E00E9420031093A6040093A5040F
:103C80001093A8040093A7048FEF9FEF9093AA04CA
:103C90008093A90488E090E0909393048093920429
:103CA00089E090E0909395048093940461E088E02B
:103CB0000E94200360E0809194040E9420038AE027
:103CC00090E09093B8048093B70484E190E09093DF
:103CD000BA048093B90461E08AE00E94200360E0A6
:103CE00084E10E94200384E10E947103BC01990FCA
:103CF000880B990B611571058105910511F00E94E2
:103D0000542460E17EE085EE92E00E949D1163ED17
:103D100071E187EE92E00E949D1167E072E189EE09
:103D200092E00E949D116DE472E18BEE92E00E94A0
:103D30009D1160E872E18DEE92E00E949D1163EBAF
:103D400077E18FEE92E00E949D1165E579E181EFC8
:103D500092E00E949D1164E278E183EF92E00E947C
:103D60009D1164EF78E185EF92E00E949D1160E97A
:103D700078E187EF92E00E949D1161EB79E189EF94
:103D800092E00E949D1163EB7EE08BEF92E00E9437
:103D90009D1167EC7FE08DEF92E00E949D116BE733
:103DA0007EE08FEF92E00E949D1180E19EE0909373
:103DB0000A07809309070E945E0D85E090E00E944B
:103DC000A1258432D9F460E572E085E090E00E949C
:103DD000DD181982BE016F5F7F4F86E090E00E9480
:103DE000DD186DE170E080E090E00E94720268EE04
:103DF00073E080E090E00E94AB03F9CF0E9490183E
:103E000062E370E080E090E00E94AB030E947B0ED2
:103E100062E370E080E090E00E94AB030E94C70F75
:103E20000E94F10620E030E044E352E40E94CE26F6
:103E300087FF41C08091460381113DC06CE170E075
:103E400080E090E00E94720223E0822E912C38E004
:103E5000A32EB12CC12CD12C18EBE12E1EE1F12E9A
:103E600005E81FE320E030E04AEF54E460E070E052
:103E70008CE594E40E9461066EE170E080E090E0E1
:103E80000E94AB031CE5E12E1FE8F12E02E81FE3C0
:103E900020E030E04CE554E460E070E08AEF94E428
:103EA0000E9461060E94A80264EF71E080E090E049
:103EB0000E94AB03BFCF10E000E080914603811168
:103EC00011C0A80160E070E0CB010E94B20266E977
:103ED00070E080E090E00E94AB030F5F1F4F08305E
:103EE000110559F710E000E080914603811111C0DF
:103EF000A80160E070E0CB010E94B20266E970E0C8
:103F000080E090E00E94AB030F5F1F4F0830110567
:103F100059F78091460381110CC06AE070E080E09F
:103F200090E00E94720268EC70E080E090E00E94F5
:103F3000AB0385E090E00E94A1258332F1F48091EB
:103F4000460381110EC090E080E00E94220D90E0B7
:103F500080E00E94400D68EC70E080E090E00E94FC
:103F6000AB0380914603811108C06FE070E080E0F0
:103F700090E00E9472020E945E0D809146038111C2
:103F800006C06BE070E080E090E00E9472020E9448
:103F90006D0A6093400370934103809342039093B2
:103FA000430380913B0290913C02A0913D02B0916D
:103FB0003E02C153DF4F88839983AA83BB83CF5CC2
:103FC000D040DE0111963D0180913F029091400268
:103FD000A0914102B0914202CD52DF4F8883998374
:103FE000AA83BB83C35DD0402E0199EC490E511CBE
:103FF00086E0D2011D928A95E9F786E793E00E9458
:1040000014011816190674F4809130019091310151
:10401000039741F081E090E090933101809330016B
:104020001092460380914603882309F44FC00E94F2
:104030005E0D64E670E080E090E00E94AB0368EC07
:1040400070E080E090E00E94AB03809145038823FC
:1040500021F080914403882359F080914503811118
:104060000DC080914403882349F082E090E002C0B3
:1040700081E090E0909331018093300160913001B4
:1040800070913101072E000C880B990B0E9472026F
:1040900008EC10E06AE070E080E090E00E94AB0382
:1040A00001501109B9F7109246031092450310927E
:1040B000440380E090E0892B09F49ACF0E9420010C
:1040C000882309F495CF0E9400008ECF80913001A3
:1040D000909131018130910509F478C154F4892B14
:1040E00009F495C081E090E0909331018093300114
:1040F000E0CF8230910509F4BAC2039799F711E035
:1041000095E2392E86E793E00E94140118161906ED
:104110000CF0EDC2112309F4EAC286E793E00E9495
:10412000F2008093D4049091FC04891348C010924B
:10413000F9041092F8044FEF54E06AEF74E085ED53
:1041400094E00E946F256C019093FE048093FD041F
:10415000892B09F4CCC2A0900105B090020584ED32
:10416000E82E84E0F82E10E000E00A151B050CF0A4
:10417000B1C2B701615D7F4F43E250E0C6010E94CA
:10418000BF28F5E2EF0EF11C892B09F0A0C2309E8A
:10419000F001319EF00D1124EA5DFA4F0190F0819B
:1041A000E02D0995E5EDF4E0119288EF94E08E178B
:1041B0009F07D1F71092F9041092F80410E00091D3
:1041C000D404802F002E000C990B0E94B828892B54
:1041D00009F498CF8091F8049091F9049C012F5F25
:1041E0003F4F3093F9042093F8048C529B4FDC012D
:1041F00011960C93F901EC52FB4F118223323105D9
:104200000CF480CF1092F9041092F8047BCF0E9436
:104210006D0A0091400310914103209142033091B7
:104220004303601B710B820B930B60387843814012
:10423000910508F43ECF1D821E821F8218868AE5F2
:1042400090E09A8389839C838B83809146038111BC
:1042500005C0B3018CEB92E00E947D0C94E0292E06
:10426000312C8091460381118CC050E040E061E028
:1042700070E080E090E00E94B202AAE08A2E912CC9
:10428000BAE0AB2EB12CC12CD12C18EBE12E1EE1E3
:10429000F12E05E81FE320E030E048E453E460E05D
:1042A00070E088EC92E40E946106809146038111DF
:1042B00068C041E050E061E070E080E090E00E9482
:1042C000B20220E030E046E953E460E070E088E4C8
:1042D00093E40E94610680914603811152C042E03E
:1042E00050E061E070E080E090E00E94B20220E0E7
:1042F00030E04AEF53E460E070E086E993E40E9426
:10430000610664EF71E080E090E00E94AB03809171
:104310004603811136C041E050E061E070E080E08A
:1043200090E00E94B20288248394912C20E030E037
:104330004AE753E460E070E088EC93E40E94610691
:104340008091460381111DC050E040E061E070E0C3
:1043500080E090E00E94B20220E030E048EC52E4BD
:1043600060E070E08AE793E40E94610664EF71E028
:1043700080E090E00E94AB03E1E02E1A310809F0E2
:1043800070CF8091460381110AC063E170E080E044
:1043900090E00E94720289E090E00E9469070E940A
:1043A0005E0D80914603811106C06BE070E080E0F5
:1043B00090E00E9472020E946D0A60934003709325
:1043C0004103809342039093430373CE80913E0355
:1043D00090913F03009709F482C0880F991FFC0158
:1043E000E25EFC4F80819181049709F078C070E211
:1043F000E72E73E0F72E10E000E080913E039091ED
:104400003F03081719070CF05EC0D7018D919D91ED
:104410007D010E94910EF7013297A080B18061E585
:10442000C62E62E0D62ED601ED91FD916D01808100
:104430009181A816B90651F4828193818230910549
:10444000C9F164F40097D1F10197E9F099E5C91633
:1044500092E0D90641F70F5F1F4FCFCF8330910510
:10446000B9F0049799F7CD52DF4F88819981AA81DD
:10447000BB81C35DD04089839A83AB83BC83B30186
:1044800082E593E014C084EC99E00E94400DDECFF9
:10449000C153DF4F88819981AA81BB81CF5CD04015
:1044A00089839A83AB83BC83B30182EF93E00E943C
:1044B0007D0CCCCF84EC99E00E94220D84E690E044
:1044C0000E94040DC3CF10923F0310923E03E0E21E
:1044D000F3E08EE1DF011D928A95E9F7EACDC20192
:1044E0000E94EA0F892B09F449C059E5C52E52E014
:1044F000D52E90E080E0D601ED91FD916D01A201F5
:104500008F010A5F1F4F21913191DA016D917D91E9
:10451000AD017901BFE0EB1AF1086E157F050CF4CF
:104520001EC1215F3F4F261737070CF418C10E1725
:104530001F0749F7009739F081309105E9F102979B
:10454000F1F581E090E020911F03211117C0833025
:104550009105A1F021E020931F0320913E033091AB
:104560003F03F901EE0FFF1FE05EFC4F9183808354
:104570002F5F3F4F30933F0320933E0386E994E043
:104580000E94A00A182F80931E0388E994E00E94DD
:10459000A00A111125C0811115C08AE090E00E9487
:1045A000400D10921D0310921C0381E090E0909347
:1045B0001B0380931A037DCD82E090E0C4CF84E09A
:1045C00090E0C1CF813009F074CD8AE090E00E9484
:1045D000AB0D10921D0310921C0383E090E0E7CF17
:1045E000113009F066CD81110BC08AE090E00E9485
:1045F0008D0D10921D0310921C0384E090E0D7CF24
:10460000813009F056CD00911C0310911D03093E25
:10461000E3E01E07CCF480911A0390911B038430D1
:10462000910559F48AE090E00E948D0D0F5F1F4FB5
:1046300010931D0300931C033CCD039729F48AE0DB
:1046400090E00E94AB0DF2CF8AE090E00E94040D52
:1046500010921D0310921C0310921B0310921A0358
:1046600066E170E080E090E00E94720222CDC2011B
:104670000E94EA0F892B09F41CCD720110E000E0C2
:1046800021E0C22E23E0D22ED7018C9111969C916D
:10469000B2E0EB0EF11C9F938F931F930F93DF9269
:1046A000CF927F926F920E94DC28C3010E94C90DB5
:1046B00085E792E00E94C90D0F5F1F4F0FB6F89477
:1046C000DEBF0FBECDBF03301105F1F6F2CC0F5F98
:1046D0001F4F4BCDE0910907F0910A070995E5EDD1
:1046E000F4E0119294E0E83FF907D9F763CD8091A7
:1046F000D3048111DECC809118039091190382308C
:104700009105F9F064F40097B9F0019709F0D1CC64
:1047100080912E0190912F010E94AB0D0FC083302C
:104720009105B1F0049709F0C4CC80912E019091CD
:104730002F010E94220D02C00E945E0D0E94E40D16
:10474000B8CC80912E0190912F010E948D0DF6CF53
:1047500080912E0190912F010E94400DEFCF019684
:104760008530910509F0C7CE10921F0383E090E0D9
:10477000EACE8F929F92AF92BF92CF92DF92EF924A
:10478000FF92CF93DF93EC01688179818A819B81CD
:10479000611571058105910521F464E279ED8BE5E0
:1047A00097E02DE133EF41E050E00E94E925490117
:1047B0005A019B01AC01A7EAB1E40E9408266B01F3
:1047C0007C01ACEEB4EFA50194010E941626C60E42
:1047D000D71EE81EF91EF7FE06C081E0C81AD108F0
:1047E000E10880E8F80AC882D982EA82FB82C70120
:1047F000B6019F77DF91CF91FF90EF90DF90CF9040
:10480000BF90AF909F908F9008958F929F92AF929C
:10481000BF92CF92DF92EF92FF9260913701709139
:1048200038018091390190913A0161157105810536
:10483000910521F464E279ED8BE597E02DE133EF0A
:1048400041E050E00E94E92549015A019B01AC0179
:10485000A7EAB1E40E9408266B017C01ACEEB4EF3C
:10486000A50194010E941626C60ED71EE81EF91E49
:10487000F7FE06C081E0C81AD108E10880E8F80A0E
:10488000C0923701D0923801E0923901F0923A019A
:10489000C701B6019F77FF90EF90DF90CF90BF9058
:1048A000AF909F908F900895609337017093380177
:1048B0008093390190933A010895B0E0A0E0E3E6D7
:1048C000F4E20C941C265C016B017A016115710500
:1048D00019F0FB0191838083E114F10449F0C701D1
:1048E0000297839728F060E070E0CB019CC05E01E6
:1048F000E5012196F5011081812F90E00E94662547
:10490000892BA9F71D3209F056C02196F5011181B6
:1049100001E0E114F10409F4AEC0F0E1EF16F10496
:1049200009F08EC0103341F488818F7D883509F0FD
:1049300083C0198122960260E0E1EE2EF12C8824DA
:104940008A94982CA82CFFE0BF2E20E060E070E055
:10495000CB0127010F2C000C66087708FE0150EDF3
:10496000352E310E39E0331538F43FEB310F3A3143
:10497000A0F549EC342E310E3E141F04BCF52F3F38
:10498000B9F086169706A806B90670F1A301920140
:104990000E94B725232D30E050E040E0620F731FE6
:1049A000841F951F6217730784079507E8F021E0BD
:1049B00021961081D3CF1B3221F4E5012296F50117
:1049C000118100E0A6CF78E0E72EF12C88248A94AC
:1049D000982CA82C6FE1B62EB8CF3FE9310F3A31B1
:1049E00028F439EA332EC7CF2FEFE2CFC114D10418
:1049F00031F02223E9F02197F601D183C08300FF33
:104A000007C090958095709561957F4F8F4F9F4F10
:104A10002F3F49F482E290E090930E0780930D07B8
:104A20006FEF7FEFCB01CDB7DEB7E1E10C94382615
:104A300001FFE5CF2297E0CF10E3E114F10419F272
:104A40003AE0E316F104E9F080E1E816F10409F434
:104A500073CFE8E0EE16F10409F4B8CF6FEF7FEF03
:104A6000CB0197010F2C000C440B550B0E94C7255E
:104A700049015A016ACF103309F456CF9AE0E92E62
:104A8000F12C89E9882E982CA82C89E1B82E5DCFCD
:104A9000FC0188279927E89421912032E9F32930F5
:104AA00010F02E30C8F32B3241F02D3239F46894D7
:104AB00004C00E949625820F911D219120532A3017
:104AC000C0F31EF4909581959F4F089591110C9419
:104AD0009E25803219F089508550C8F70895FA0153
:104AE000A191B081009719F41097E1F0CD01DC019C
:104AF000CD010D90002011F4C00113C0FB012191E4
:104B0000222319F02015D9F7F3CFFB0121912015AD
:104B100019F41E92119606C02223C1F70D900020B1
:104B2000A1F7D001FA01A193B08308957AE0979F8D
:104B3000902D879F802D910D112408959927882706
:104B40000895F999FECF92BD81BDF89A992780B555
:104B50000895262FF999FECF1FBA92BD81BD20BDC1
:104B60000FB6F894FA9AF99A0FBE01960895DB01F0
:104B70008F939F930E940826BF91AF91A29F800DB3
:104B8000911DA39F900DB29F900D11240895A1E255
:104B90001A2EAA1BBB1BFD010DC0AA1FBB1FEE1FB7
:104BA000FF1FA217B307E407F50720F0A21BB30B02
:104BB000E40BF50B661F771F881F991F1A9469F77E
:104BC00060957095809590959B01AC01BD01CF01DA
:104BD0000895052E97FB1EF400940E94002657FDB1
:104BE00007D00E94C72507FC03D04EF40C94002682
:104BF00050954095309521953F4F4F4F5F4F089509
:104C000090958095709561957F4F8F4F9F4F089538
:104C10000E945226A59F900DB49F900DA49F800DD9
:104C2000911D11240895B7FF0C9408260E940826B0
:104C3000821B930B08952F923F924F925F926F9237
:104C40007F928F929F92AF92BF92CF92DF92EF921C
:104C5000FF920F931F93CF93DF93CDB7DEB7CA1B9D
:104C6000DB0B0FB6F894DEBF0FBECDBF09942A88C8
:104C7000398848885F846E847D848C849B84AA8470
:104C8000B984C884DF80EE80FD800C811B81AA81FD
:104C9000B981CE0FD11D0FB6F894DEBF0FBECDBFC8
:104CA000ED010895A29FB001B39FC001A39F700DB5
:104CB000811D1124911DB29F700D811D1124911D24
:104CC00008955058BB27AA270E9479260C94F327F1
:104CD0000E94E52738F00E94EC2720F039F49F3F2E
:104CE00019F426F40C94E2270EF4E095E7FB0C94FB
:104CF000DC27E92F0E94042858F3BA1762077307CC
:104D00008407950720F079F4A6F50C9426280EF474
:104D1000E0950B2EBA2FA02D0B01B90190010C01CB
:104D2000CA01A0011124FF27591B99F0593F50F4E3
:104D3000503E68F11A16F040A22F232F342F44273B
:104D4000585FF3CF469537952795A795F040539533
:104D5000C9F77EF41F16BA0B620B730B840BBAF003
:104D60009150A1F0FF0FBB1F661F771F881FC2F76E
:104D70000EC0BA0F621F731F841F48F48795779582
:104D80006795B795F7959E3F08F0B0CF9395880F3C
:104D900008F09927EE0F9795879508950E94B827F8
:104DA00008F481E008950E94E7260C94F3270E94FE
:104DB000EC2758F00E94E52740F029F45F3F29F0E6
:104DC0000C94DC2751110C9427280C94E2270E94A4
:104DD000042868F39923B1F3552391F3951B550BE0
:104DE000BB27AA2762177307840738F09F5F5F4FBE
:104DF000220F331F441FAA1FA9F335D00E2E3AF0FD
:104E0000E0E832D091505040E695001CCAF72BD014
:104E1000FE2F29D0660F771F881FBB1F2617370765
:104E20004807AB07B0E809F0BB0B802DBF01FF2797
:104E300093585F4F3AF09E3F510578F00C94DC2771
:104E40000C9427285F3FE4F3983ED4F3869577953A
:104E50006795B795F7959F5FC9F7880F911D969550
:104E6000879597F90895E1E0660F771F881FBB1FAC
:104E7000621773078407BA0720F0621B730B840B59
:104E8000BA0BEE1F88F7E09508950E944C276894AE
:104E9000B1110C94272808950E940C2888F09F5780
:104EA00098F0B92F9927B751B0F0E1F0660F771F4E
:104EB000881F991F1AF0BA95C9F714C0B13091F044
:104EC0000E942628B1E008950C942628672F782F99
:104ED0008827B85F39F0B93FCCF386957795679509
:104EE000B395D9F73EF490958095709561957F4F75
:104EF0008F4F9F4F0895E89409C097FB3EF490951B
:104F00008095709561957F4F8F4F9F4F9923A9F0A2
:104F1000F92F96E9BB279395F69587957795679531
:104F2000B795F111F8CFFAF4BB0F11F460FF1BC075
:104F30006F5F7F4F8F4F9F4F16C0882311F096E908
:104F400011C0772321F09EE8872F762F05C06623B6
:104F500071F096E8862F70E060E02AF09A95660F6F
:104F6000771F881FDAF7880F9695879597F9089528
:104F7000990F0008550FAA0BE0E8FEEF161617066A
:104F8000E807F907C0F012161306E407F50798F0D2
:104F9000621B730B840B950B39F40A2661F0232BEB
:104FA000242B252B21F408950A2609F4A140A69567
:104FB0008FEF811D811D089597F99F6780E870E04C
:104FC00060E008959FEF80EC089500240A9416167F
:104FD000170618060906089500240A9412161306E7
:104FE000140605060895092E0394000C11F4882375
:104FF00052F0BB0F40F4BF2B11F460FF04C06F5F91
:105000007F4F8F4F9F4F089557FD9058440F551F66
:1050100059F05F3F71F04795880F97FB991F61F03A
:105020009F3F79F087950895121613061406551FB1
:10503000F2CF4695F1DF08C0161617061806991F1D
:10504000F1CF86957105610508940895E894BB2712
:1050500066277727CB0197F908950E94B82708F4AF
:105060008FEF08950E9445280C94F3270E94E527AE
:1050700038F00E94EC2720F0952311F00C94DC27E7
:105080000C94E22711240C9427280E94042870F322
:10509000959FC1F3950F50E0551F629FF001729FDD
:1050A000BB27F00DB11D639FAA27F00DB11DAA1FEC
:1050B000649F6627B00DA11D661F829F2227B00D39
:1050C000A11D621F739FB00DA11D621F839FA00DC4
:1050D000611D221F749F3327A00D611D231F849F14
:1050E000600D211D822F762F6A2F11249F5750406B
:1050F0009AF0F1F088234AF0EE0FFF1FBB1F661FE6
:10510000771F881F91505040A9F79E3F510580F0AE
:105110000C94DC270C9427285F3FE4F3983ED4F3EB
:10512000869577956795B795F795E7959F5FC1F752
:10513000FE2B880F911D9695879597F908950E94EB
:10514000B827880B990B0895991B79E004C0991F23
:10515000961708F0961B881F7A95C9F780950895D1
:10516000EE0FFF1F0590F491E02D0994803209F0B5
:1051700091110C949E2580528F55D8F70895FB010C
:10518000DC014150504030F08D910190801919F4AC
:105190000020B9F7881B990B0895FB01DC014150F1
:1051A000504048F001900D920020C9F701C01D92B7
:1051B00041505040E0F70895AEE0B0E0E2EEF8E292
:1051C0000C9429260D891E8986E08C831A83098315
:1051D0008FEF9FE79E838D83AE01475E5F4F6F89A0
:1051E000788DCE0101960E94FF282F813885020F0D
:1051F000131FF80110822E96E4E00C944526ABE0D4
:10520000B0E0E5E0F9E20C941B267C013B018A0149
:10521000FC0117821682838181FFC8C1CE010196ED
:105220005C01F7019381F30193FD859193FF8191D7
:105230003F01882309F453C1853239F493FD8591E8
:1052400093FF81913F01853229F4B70190E00E94DC
:10525000EF2AE7CF912C212C312CFFE1F31538F008
:105260008B3211F190F4803209F1833229F137FC4D
:105270003CC020ED280F2A3050F536FE20C08AE0D1
:10528000989E200D1124922E06C08D3291F080330D
:1052900071F7689430F8F30193FD859193FF819144
:1052A0003F018111DACF21C0689431F8689432F857
:1052B000F2CF689433F8EFCF689434F8ECCFEAE09B
:1052C0002E9E200D1124222E689435F8E4CF8E32C4
:1052D00029F436FC04C1689436F8DDCF8C3619F415
:1052E000689437F8D8CF8836B1F2982F9F7D9554BF
:1052F0009330E0F08336A1F18337C1F1833509F0B3
:1053000063C02801F2E04F0E511CF801C080D1802B
:10531000692D70E036FC02C06FEF7FEFC6010E947E
:10532000D92A4C01689437F882010AC00C5F1F4FDC
:10533000FFE3F98388248394912C6501E89437F87E
:1053400033FE2DC0522C8114910471F5552009F4BF
:1053500068CFB70180E290E00E94EF2A5A94F6CF1E
:10536000F801808189830E5F1F4FE4CF2801F2E0AE
:105370004F0E511CF801C080D180692D70E036FCC1
:1053800002C06FEF7FEFC6010E94E42A4C01820148
:10539000D5CFB70180E290E00E94EF2A2A9428142A
:1053A000190409F0B0F7CECFF60137FC859137FE2E
:1053B00081916F01B70190E00E94EF2A51105A9439
:1053C000F1E08F1A9108BFCF843619F0893609F0C1
:1053D00077C0F80137FE6BC0608171818281938153
:1053E0000C5F1F4FF32DFF763F2E97FF09C090955E
:1053F0008095709561957F4F8F4F9F4F689437F8D8
:105400002AE030E0A5010E941F2BC82ECA188C2C60
:10541000432C36FE0CC0E89440F8C91440F434FE26
:1054200005C032FC03C0F32DFE7E4F2E892C44FEB6
:1054300095C0FE01EC0DF11D8081803309F087C01D
:10544000242D297E422E842D8870582E43FC95C031
:1054500040FE8FC09C2C821418F42C0C922C9818AF
:1054600044FE91C0B70180E390E00E94EF2A42FE23
:1054700009C088E790E041FE02C088E590E0B701EE
:105480000E94EF2AC91408F48AC0CA94D12C9FEF55
:10549000C91AD90ACA0CDB1CF60182916F01B70147
:1054A00090E00E94EF2AAC14BD04B1F74FCF6081A9
:1054B0007181072E000C880B990B0E5F1F4F92CF46
:1054C000D32CE894D4F82AE030E0853739F1232D45
:1054D000297FD22E8F3601F148F48835A9F0F701E3
:1054E000868197812B96E2E10C943726803749F02C
:1054F0008837A9F7D4FE02C06894D2F820E130E0E2
:105500000DC06894D4F8F6CF34FE03C0822F8660B5
:10551000D82E20E132E002C028E030E0F801D7FECA
:105520000FC060817181828193810C5F1F4FA50143
:105530000E941F2BC82ECA183D2CE89437F867CF5D
:105540006081718190E080E00E5F1F4FF0CF42FCE0
:1055500002C0839478CF8394839475CF842D86780A
:1055600009F471CFF6CFB70180E290E00E94EF2AF4
:1055700083948214C0F3512C73CF522C5818821488
:1055800008F46ECFF8CF842D867809F47BCF8BE2B8
:1055900041FE80E247FC8DE2B70190E071CFB70198
:1055A00080E390E00E94EF2A9A946CCF8FEF9FEFF8
:1055B00099CFFC010590615070400110D8F780959B
:1055C00090958E0F9F1F0895FC01615070400190CF
:1055D0000110D8F7809590958E0F9F1F08950F9317
:1055E0001F93CF93DF93182F092FEB018B8181FD40
:1055F00009C01FEF0FEF812F902FDF91CF911F91E7
:105600000F91089582FF14C02E813F818C819D816E
:10561000281739073CF4E881F981CF010196998375
:10562000888310838E819F8101969F838E83E3CF31
:10563000E885F985812F0995892BA1F3DACFFA0145
:10564000AA27283051F1203181F1E8946F936E7FC1
:105650006E5F7F4F8F4F9F4FAF4FB1E03ED0B4E0B2
:105660003CD0670F781F891F9A1FA11D680F791FF3
:105670008A1F911DA11D6A0F711D811D911DA11D04
:1056800020D009F468943F912AE0269F1124301914
:10569000305D3193DEF6CF010895462F4770405DAF
:1056A0004193B3E00FD0C9F7F6CF462F4F70405D5E
:1056B0004A3318F0495D31FD4052419302D0A9F7B9
:1056C000EACFB4E0A6959795879577956795BA95B3
:1056D000C9F700976105710508959B01AC010A2E79
:1056E00006945795479537952795BA95C9F7620F50
:0E56F000731F841F951FA01D0895F894FFCF0F
:1056FE00040000000200040000000300010001008D
:10570E001E001E001E000F000F000F00FF0078008D
:10571E0078003800700070009900D900DA00E803B4
:10572E000200B500B500FF010000008C24490C0EEC
:10573E004130041E42480C8C44480C82E049129CB5
:10574E00C0411E8CC421041042081E8CC4480C8E0D
:10575E00E0480C002385000023FD0000E0FD008CD6
:10576E0014B6128C144A0C00C300008091243F80A2
:10577E00D4B63F0020B53F00F00300805821000250
:10578E0081402040283100C02F3100C0EC31000094
:10579E00420901A1C448210441480C10C2210480D1
:1057AE00D4860040187A0000C3000080610000C05B
:1057BE003000008061000000C30000008601000080
:1057CE000C030000860100300C0000100A010018C6
:1057DE00496200100A010021000021520884128C37
:1057EE00144A0C0023310000C0000000000000002D
:1057FE00104A0C00082506208410033042080118B8
:10580E002904008C1402004602810003814020818D
:10581E00402030402090185A005A00530064006413
:10582E000055006600550064005300550055006495
:10583E000064005A4F57495F424153455F7632002C
:10584E00230C01080104010001280122011C01168C
:10585E00011001000000005601B600E300BE011465
:10586E0001F20006010D0A006E616E00696E66009F
:10587E006F7666005265616420636F6C6F723A00DA
:10588E004672657175656E637920523D004672658C
:10589E007175656E637920473D0046726571756559
:1058AE006E637920423D005363616C6520666163CF
:1058BE00746F723A200072656164792063616C695D
:1058CE0062726174696F6E005247422056616C7548
:1058DE0065733A200053004C0054004D0048004BB5
:1058EE0000430047005200450044004E004200496C
:0E58FE00005247425B25645D203D202564007A
:00000001FF
