:100000000C9481000C94D41A0C94AD1A0C94A90091
:100010000C94A9000C94A9000C94A9000C948919C3
:100020000C94A9000C94A9000C94A9000C94FB1A40
:100030000C94A9000C94A9000C94A9000C94A9009C
:100040000C94631A0C94A9000C94311A0C940B1A9A
:100050000C94A9000C94A9000C94A9000C94A9007C
:100060000C94A9000C94A900252500452000262603
:10007000002525004420002626002525004E2000CE
:100080002626002525004220002626002525004999
:1000900020002626002525004100262600252500D3
:1000A000460026260000000000240027002A000049
:1000B00000000023002600290000000008000201C3
:1000C000000003040700000000000000000102041B
:1000D00008102040800102040810200102040810CA
:1000E0002000000000250028002B00040404040464
:1000F00004040402020202020203030303030302D4
:10010000FC1B11241FBECFEFD8E0DEBFCDBF12E035
:10011000A0E0B1E0E2E3F6E502C005900D92A43D57
:10012000B107D9F726E0A4EDB2E001C01D92A73CCB
:10013000B207E1F710E0C1E8D0E004C02197FE016A
:100140000E944A28C038D107C9F70E94C51C0C94E8
:10015000172B0C94000080911B0390911C030196B7
:1001600090931C0380931B0308950895AF92BF9250
:10017000CF92DF92EF92FF920F931F93CF93DF9373
:100180006C017B018B01040F151FEB015E01AE18A2
:10019000BF08C017D10759F06991D601ED91FC91C4
:1001A0000190F081E02DC6010995892B79F7C501F1
:1001B000DF91CF911F910F91FF90EF90DF90CF9043
:1001C000BF90AF900895FC01538D448D252F30E0F2
:1001D000842F90E0821B930B541710F0CF96089554
:1001E00001970895FC01918D828D981761F0A28D81
:1001F000AE0FBF2FB11D5D968C91928D9F5F9F7347
:10020000928F90E008958FEF9FEF0895FC01918DFC
:10021000828D981731F0828DE80FF11D858D90E069
:1002200008958FEF9FEF0895FC01918D228D892F06
:1002300090E0805C9F4F821B91098F7399270895EE
:100240008EE293E00E94140121E0892B09F420E062
:10025000822F089580E090E0892B29F00E942001F0
:1002600081110C9400000895FC01A48DA80FB92FF2
:10027000B11DA35ABF4F2C91848D90E001968F73CE
:100280009927848FA689B7892C93A089B1898C91ED
:10029000837080648C93938D848D981306C002883C
:1002A000F389E02D80818F7D80830895EF92FF9206
:1002B0000F931F93CF93DF93EC0181E0888F9B8D89
:1002C0008C8D98131AC0E889F989808185FF15C043
:1002D0009FB7F894EE89FF896083E889F989808166
:1002E0008370806480839FBF81E090E0DF91CF9135
:1002F0001F910F91FF90EF900895F62E0B8D10E057
:100300000F5F1F4F0F731127E02E8C8D8E110CC0C5
:100310000FB607FCFACFE889F989808185FFF5CF10
:10032000CE010E943401F1CFEB8DEC0FFD2FF11DBA
:10033000E35AFF4FF0829FB7F8940B8FEA89FB894D
:1003400080818062CFCF0F931F93CF93DF938C0177
:10035000D0E0C0E0F801EC0FFD1F6491662341F08E
:100360008EE293E00E945601892B11F02196F2CF84
:10037000CE01DF91CF911F910F910895CF93DF931D
:10038000EC01888D8823B9F0AA89BB89E889F989AD
:100390008C9185FD03C0808186FD0DC00FB607FCE2
:1003A000F7CF8C9185FFF2CF808185FFEDCFCE0115
:1003B0000E943401E9CFDF91CF910895833081F01D
:1003C00028F4813099F08230A9F008958730A9F09F
:1003D0008830C9F08430B1F4809180008F7D03C0F3
:1003E000809180008F7780938000089584B58F7707
:1003F00084BD089584B58F7DFBCF8091B0008F7749
:100400008093B00008958091B0008F7DF9CFCF9395
:10041000DF93282F30E0F901E754FF4F8491F90171
:10042000E353FF4FD491F901E551FF4FC491CC2321
:10043000A1F081110E94DE01EC2FF0E0EE0FFF1F12
:10044000E155FF4FA591B491EC91ED2381E090E04F
:1004500009F480E0DF91CF91089580E090E0FACF39
:100460001F93CF93DF93282F30E0F901E754FF4F1C
:100470008491F901E353FF4FD491F901E551FF4F06
:10048000C491CC23A9F0162F81110E94DE01EC2F1C
:10049000F0E0EE0FFF1FEF51FF4FA591B4918FB722
:1004A000F894EC91111108C0D095DE23DC938FBF36
:1004B000DF91CF911F910895DE2BF8CFCF93DF937B
:1004C000D0E0C0E08091F0039091F103A091F2039D
:1004D000B091F3030C2E04C0B695A7959795879518
:1004E0000A94D2F7682F61708091F4030E94300261
:1004F00000000000000061E08091F5030E943002DE
:1005000000000000000060E08091F5030E943002CE
:100510002196CE31D105B1F661E08091F6030E94BB
:10052000300200000000000060E08091F603DF91DF
:10053000CF910C943002CF93DF93CDB7DEB7CC5779
:10054000D1090FB6F894DEBF0FBECDBF2CE7EDE5A5
:10055000F1E0DE01119601900D922A95E1F7660F08
:10056000771F660F771F81E090E08C0F9D1F680F4B
:10057000791FFB0180819181A281B3818093F00377
:100580009093F103A093F203B093F303C458DF4FA9
:100590000FB6F894DEBF0FBECDBFDF91CF910C94A4
:1005A0005E021092F0031092F1031092F203109287
:1005B000F3030C945E02CF93DF93CDB7DEB7C05741
:1005C000D1090FB6F894DEBF0FBECDBF20E2E9ED32
:1005D000F1E0DE01999601900D922A95E1F720E174
:1005E000E9EFF1E0DE01AF59BF4F01900D922A957E
:1005F000E1F728E1E9E0F2E0DE01A75BBF4F0190FF
:100600000D922A95E1F728E2E1E2F2E0DE0111968F
:1006100001900D922A95E1F7440F551F440F551F85
:100620006230710581F16330710581F161307105CE
:10063000F1F081E090E08C0F9D1F480F591FFA01E7
:1006400080A591A5A2A5B3A58093F0039093F10393
:10065000A093F203B093F303C059DF4F0FB6F894A1
:10066000DEBF0FBECDBFDF91CF910C945E0281E65D
:1006700090E08C0F9D1F480F591FFA0180819181D6
:10068000A281B381E1CF89E490E0F3CF81E090E0F3
:10069000F0CFCF93DF9390E0FC01E353FF4F249121
:1006A00085519F4FFC0184918823D1F090E0880F01
:1006B000991FFC01EB55FF4FA591B491FC01EF513F
:1006C000FF4FC591D49161110EC09FB7F8948C91E2
:1006D000E22FE0958E238C932881E223E8839FBF4D
:1006E000DF91CF9108958FB7F894EC91E22BEC93C2
:1006F0008FBFF6CF10921C0310921B0310921A03A7
:100700001092190361E080E10E94490361E08FE0EB
:100710000E94490361E08EE00E94490360E082E0AC
:100720000E94490361E080E10C9430028E3008F0B1
:100730008E508770806480937C0080917A00806402
:1007400080937A0080917A0086FDFCCF80917800BA
:100750009091790008953FB7F8948091DA029091D2
:10076000DB02A091DC02B091DD0226B5A89B05C09A
:100770002F3F19F00196A11DB11D3FBFBA2FA92F20
:10078000982F8827BC01CD01620F711D811D911D1D
:1007900042E0660F771F881F991F4A95D1F7089589
:1007A0008F929F92AF92BF92CF92DF92EF92FF9281
:1007B0006B017C010E94AB034B015C01C114D104AD
:1007C000E104F104B9F00E94AB03681979098A09C0
:1007D0009B09683E73408105910580F321E0C21AB0
:1007E000D108E108F10888EE880E83E0981EA11C6C
:1007F000B11CE4CFFF90EF90DF90CF90BF90AF900F
:100800009F908F9008954F925F926F927F928F92F8
:100810009F92AF92BF92CF92DF92EF92FF920F938F
:100820001F93CF93DF93CDB7DEB729970FB6F89418
:10083000DEBF0FBECDBF29013A010115110511F42C
:1008400001E010E00E94E62669837A838B839C8313
:1008500080916F049091700420915801281719F12C
:100860002F3F09F49DC0C301B2010E94D003B8011B
:10087000110F880B990B29960FB6F894DEBF0FBEA7
:10088000CDBFDF91CF911F910F91FF90EF90DF903F
:10089000CF90BF90AF909F908F907F906F905F9020
:1008A0004F900C94D003EFEFF0E02491298727FDBF
:1008B000DACF61E00E9449038985882321F0998578
:1008C000923009F05FC189819A814C01B12CA12C31
:1008D00060E072E18AE790E0A50194010E9483251F
:1008E0002D833E834F83588769017A0191E0C91AAD
:1008F000D108E108F1082FEFC216D104E104F10498
:1009000009F00CF414C160E472E48FE090E0A501FA
:1009100094010E94832569017A0181E0C81AD108F7
:10092000E108F1089985923009F0B5C082E02FEF17
:10093000C216D104E104F10409F00CF4E0C160E94D
:1009400070ED83E090E0A50194010E948325690188
:100950007A0181E0C81AD108E108F10883E09FEF2D
:10096000C916D104E104F10409F00CF4C8C168E42B
:1009700078EE81E090E0A50194010E948325690151
:100980007A0191E0C91AD108E108F1082FEFC216E7
:10099000D104E104F10411F00CF0A1C084E0AFC176
:1009A00080935801EFEFF0E0249129872F3F09F45D
:1009B0005ACF213041F150F0223009F446C0298548
:1009C00027FD51CF61E00E94490379CF14BC15BCCB
:1009D00024B5226024BD25B5216025BD9C013327A7
:1009E000F901E551FF4FE491F0E0EE0FFF1FEF51E9
:1009F000FF4F45915491F901E353FF4FE491E09388
:100A00002103198656CF1092800010928100209108
:100A10008100286020938100209181002160209333
:100A200081009C013327F901E551FF4FE491F0E08B
:100A3000EE0FFF1FEF51FF4F45915491F901E35322
:100A4000FF4FE491E093200334CF1092B000109256
:100A5000B1002091B00022602093B0002091B1003D
:100A600021602093B1009C013327F901E551FF4F2C
:100A7000E491F0E0EE0FFF1FEF51FF4F45915491CD
:100A800050931F0340931E03F901E353FF4FE4917A
:100A9000E0931D030ECF2FEFC216D104E104F10441
:100AA00009F00CF46DC068E478EE81E090E0A501F7
:100AB00094010E94832569017A0181E0C81AD10856
:100AC000E108F1089985992309F4E5C02FEFC216D2
:100AD000D104E104F10411F00CF0E6C05FCF64E250
:100AE00074EF80E090E0A50194010E9483256901E4
:100AF0007A0181E0C81AD108E108F10885E09FEF8A
:100B0000C916D104E104F10409F008F4F8C062E167
:100B10007AE780E090E0A50194010E9483256901B5
:100B20007A0181E0C81AD108E108F108CFC081E05C
:100B300029852111E4C095B5987F892B85BD2FEFBC
:100B40003FEFA901411451046104710409F057C039
:100B50008985813009F462C0823009F471C0811145
:100B600082CEC7BC20932A0330932B0340932C03DF
:100B700050932D0380916E00826080936E0073CE3F
:100B800082E0D6CF89819A814C01B12CA12C60E002
:100B900072E18AE790E0A50194010E948325690132
:100BA0007A0191E0C91AD108E108F10891E0C11475
:100BB000D10421E0E206F10484F068E478EE81E0FB
:100BC00090E0A50194010E94832569017A0181E0EA
:100BD000C81AD108E108F10893E02985213009F00D
:100BE000AECF80918100887F892B809381002FEF89
:100BF0003FEFA901411451046104710479F0A98106
:100C0000BA81AA0FBB1FA30192010E94A22528EE60
:100C100033E040E050E00E9461259ACFD0928900F5
:100C2000C092880020932603309327034093280323
:100C30005093290380916F00826080936F0013CEE0
:100C4000C092B300209322033093230340932403E4
:100C5000509325038091700082608093700003CED2
:100C6000CD80DE80EF80F8848AE0F594E794D79415
:100C7000C7948A95D1F721E0C21AD108E108F1089A
:100C800085E059CF8FEFC816D104E104F10409F0D3
:100C900038F784E050CF83E09FEFC916D104E10418
:100CA000F10409F00CF447CF62E17AE780E090E0CC
:100CB000A50194010E94832569017A0181E0C81A87
:100CC000D108E108F10899859923E1F286E09FEFC8
:100CD000C916D104E104F10491F088F0CD80DE80E2
:100CE000EF80F8849AE0F594E794D794C7949A95A6
:100CF000D1F781E0C81AD108E108F10887E09091A6
:100D0000B100987F892B8093B10019CF4F925F92E9
:100D10006F927F928F929F92AF92BF92CF92DF920B
:100D2000EF92FF920F931F93CF93DF93CDB7DEB770
:100D300028970FB6F894DEBF0FBECDBF2B013C0144
:100D400029833A834B835C83ED82FE820F8318876D
:100D50000E94DF268B0129813A814B815C81C3018E
:100D6000B2010E94682687FF25C0B801110F880BC9
:100D7000990B0E9417272B013C01AC019B01698153
:100D80007A818B819C810E94C7271816C4F5840143
:100D9000A6019501C301B2010E9403042D813E8189
:100DA0004F815885C301B2010E94CC270E94DF26E3
:100DB0008B01DBCFB801110F880B990B0E9417270D
:100DC0002B013C01AC019B0169817A818B819C8163
:100DD0000E94682687FF13C08401A6019501C30104
:100DE000B2010E9403042D813E814F815885C301C9
:100DF000B2010E946D260E94DF268B01DBCF289670
:100E00000FB6F894DEBF0FBECDBFDF91CF911F911B
:100E10000F91FF90EF90DF90CF90BF90AF909F9099
:100E20008F907F906F905F904F9008958F929F92D8
:100E3000AF92BF92CF92DF92EF92FF921F93CF9328
:100E4000DF9385E10E949603CAE0D0E0C12CD12C4B
:100E5000760115E085E10E949603189FB001199F65
:100E6000700D1124072E000C880B990B0E94172778
:100E700020E030E040E85AE30E94CC274B015C01BF
:100E800026E636E646E850E40E94C72718163CF4EA
:100E900086E6882E982C86E8A82E80E4B82E2FEBC4
:100EA00036E842ED52E4C501B4010E94CC272CE79C
:100EB0003DE04BEA53E40E94FB254B015C0120E03E
:100EC00030E0A9010E94682687FF03C0812C912C85
:100ED0005401A5019401C701B6010E94FC256B01D4
:100EE0007C0161E070E080E090E00E94D0032197F7
:100EF00009F0B0CF20E030E040E251E4C701B60194
:100F00000E946D26DF91CF911F91FF90EF90DF90AF
:100F1000CF90BF90AF909F908F9008958F929F92A7
:100F2000AF92BF92CF92DF92EF92FF920F931F93F7
:100F3000CF93DF93019782319105B8F4FC01ED5511
:100F4000F84F0C944A28E60709083D08500867083E
:100F50008A08B608E508140943096D099209C00911
:100F6000EB09020A430A5A0A710A0EE110E022E371
:100F700030E040E050E064EA70ED84E294E40E94E6
:100F8000030409E110E027E330E040E050E062E5CF
:100F900070ED84EA94E40E9403040AE010E02CE37C
:100FA00030E040E050E060E070E08CED94E40E94BE
:100FB0000304DF91CF911F910F91FF90EF90DF908D
:100FC000CF90BF90AF909F908F9008950EE110E06A
:100FD00022E330E040E050E064EA70ED84E294E423
:100FE0000E94030409E110E027E330E040E050E014
:100FF00060E070E08CED94E40E9403040AE010E0ED
:1010000022E330E040E050E062E570ED84EA94E4F1
:10101000CECF92E0892E912C24E1A22EB12CC12CAE
:10102000D12C1AE0E12E17EDF12E03E81FE32CE599
:101030003FEF43EC54E462E570ED84EA94E40E94EF
:1010400086066EE170E080E090E00E94D0034AE006
:10105000A42EB12CC12CD12C18EBE12E1EE1F12EC7
:1010600005E81FE32FE135ED42E155E462E570ED5F
:1010700084EA94E40E9486069CCFCAE08C2E912CD0
:10108000DEE1AD2EB12CC12CD12C1CE5E12E1FE8E8
:10109000F12E02E81FE320E030E04CED54E4E6CF0F
:1010A000FAE08F2E912CAEE1AA2EB12CC12CD12CBE
:1010B0001AE0E12E17EDF12E03E81FE32FE135EDE5
:1010C00042E155E46CE57FEF83EC94E4D3CF04E692
:1010D00010E022E330E040E050E062E570ED84EAA9
:1010E00094E40E94030400E510E022E330E040E0D5
:1010F00050E06CE57FEF83EC94E40E94030410E081
:1011000000E02CE231E040E050E06FE175ED82E17B
:1011100095E44DCF88248394912C5AE0A52EB12CD0
:10112000C12CD12C1CE5E12E1FE8F12E02E81FE3B3
:1011300020E030E646E055E460E070E088E494E4C6
:101140000E94860677E0A72EB12CC12CD12C1AE084
:10115000E12E17EDF12E03E81FE320E030E048E434
:1011600054E460E070E586E095E484CF93E0892E56
:10117000912C28E0A22EB12CC12CD12C18EBE12E01
:101180001EE1F12E05E81FE320E030E04AEF54E4D1
:1011900060E070E08CE594E40E94860668EC70E004
:1011A00080E090E00E94D003C6E1D0E00AE010E0C9
:1011B00025E030E040E050E068E471EF86E794E439
:1011C0000E940304219791F7F4CEC3E08C2E912C5A
:1011D000D8E0AD2EB12CC12CD12C1AE0E12E17EDA8
:1011E000F12E03E81FE320E030E84BE355E460E034
:1011F00070E08BEE94E40E94860668EC70E080E07C
:1012000090E00E94D003C0E1D0E00AE010E02AE0C4
:1012100030E040E050E060E070ED82E894E40E944D
:101220000304219791F7C5CE64E0862E912C70E1DE
:10123000A72EB12CC12CD12C1AE0E12E17EDF12EE6
:1012400003E81FE320E030E041E654E460E070E0B2
:101250008FE294E40E948606F7E08F2E912CA2E1A3
:10126000AA2EB12CC12CD12C1EEAE12E17E4F12EAE
:1012700001E81FE320E030E842E254E460E070EC73
:1012800080E694E4F7CE2AE0822E912C3AE0A32E59
:10129000B12CC12CD12C18EBE12E1EE1F12E05E86A
:1012A0001FE320E030E04AEF53E460E070E088ECB8
:1012B00092E40E94860664EF71E080E090E00E9474
:1012C000D00388248394912C20E030E048EC52E451
:1012D00060E070E088EC93E4CDCED8E08D2E912CC8
:1012E00014E1A12EB12CC12CD12C16E6E12EFE2C3E
:1012F00006E81FE320E030E44CE155E460E070E8EC
:101300008BEB94E40E94860699E1A92EB12CC12CA6
:10131000D12C20E030E84BEB54E460E070E38CE14A
:1013200095E4A8CEE3E08E2E912CF8E0AF2EB12C00
:10133000C12CD12C16E6E12EFE2C06E81FE320E09E
:1013400030E84BEB55E460E070E08AEF94E40E94F3
:10135000860662E370E080E090E00E94D003B2E095
:101360008B2E912CCDE0AC2EB12CC12CD12C20E0B9
:1013700030E04AEF54E460E078E78BEB95E47ACE16
:1013800048E0842E912C5FE0A52EB12CC12CD12CED
:1013900016E6E12EFE2C06E81FE320E030E04AEFDF
:1013A00054E460E070E88BEB94E40E94860664E607
:1013B00070E080E090E00E94D0037AE0A72EB12C8C
:1013C000C12CD12C20E030E44CE155E460E070E821
:1013D0008DEE94E44FCE98EC892E912C24E1A22E30
:1013E000B12CC12CD12C1CE5E12E1FE8F12E02E816
:1013F0001FE320E030E447E254E460E070E08CE575
:1014000094E438CEF2E08F2E912CA8E0AA2EB12CD5
:10141000C12CD12C1AE0E12E17EDF12E03E81FE3C9
:1014200020E030E844ED54E460E070E08AE794E4C2
:101430000E948606C3E08C2E912C18EBE12E1EE153
:10144000F12E05E81FE320E030E04AEF53E460E0CE
:1014500070E684ED94E40E9486061AE0812E912CB9
:1014600009E0A02EB12CC12CD12C16E6E12EFE2CC9
:1014700006E81FE320E030E844ED54E460E070E06B
:101480008AE794E4F7CD6FE0862E912C72E0A72EC8
:10149000B12CC12CD12C1CE5E12E1FE8F12E02E865
:1014A0001FE320E030E84BE355E460E070E088ECB7
:1014B00094E4E0CD34E1832E912C42E0A42EB12CB3
:1014C000C12CD12C1CE5E12E1FE8F12E02E81FE310
:1014D00020E030E84BEB55E460E070E08AEF94E404
:1014E000C9CD84E1882E912C92E0A92EB12CC12C7B
:1014F000D12C1CE5E12E1FE8F12E02E81FE320E0CD
:1015000030E04AE755E460E070E088EC94E40E9443
:10151000860620E030E84BE355E460E070E08AE7BF
:1015200095E4A8CD2FB7F8946091D6027091D702B8
:101530008091D8029091D9022FBF0895CF93C62FE2
:1015400010921C0310921B0320911103309112037F
:101550002F5F3F4F30931203209311036111862FA9
:10156000682F61708FE00E9430026C2F8EE00E9425
:1015700030020E94920A60930D0370930E038093D1
:101580000F0390931003CF910895DC01EC918E2FFF
:1015900090E0FC01EE0FFF1FE80FF91FE553FC4F31
:1015A000808186FF02C08F7B80830895CF92DF9277
:1015B000EF92FF92CF93DF93EC01603282E07807E5
:1015C000CCF5653B710514F064EB70E0898128E887
:1015D00030E0281B310987FD3395220F331F220F7E
:1015E000331F6901330FEE08FF088A8128E532E0D6
:1015F000281B310987FD3395220F331F220F331F1C
:10160000032E000C440B550B2C193D094E095F09A4
:10161000DB0177FF02C0B0E0A0E00E94AD2524EB23
:1016200030E040E050E00E948325C20ED31EE41E4D
:10163000F51EB601E881EC3070F5298188E890E06C
:10164000821B910927FD9395880F991F880F991F79
:10165000681779077CF02A8188E592E0821B91095E
:1016600027FD9395880F991F880F991F6817790791
:101670000CF4CB010297880F991F4FB7F8942E2FC7
:1016800030E0F901EE0FFF1FE20FF31FE553FC4FAF
:10169000928381834FBFDF91CF91FF90EF90DF90D6
:1016A000CF9008951F93CF93DF93EC01162F88817D
:1016B0008C3008F04EC061E0812F0E944903888180
:1016C000282F30E0F901EE0FFF1FE20FF31FE55363
:1016D000FC4F1F736081607C612B608319821A82CA
:1016E0002CE0622F0E943E28829FB001112430E03E
:1016F00020E0AB01420F531FFA01EE0FFF1FE40F72
:10170000F51FE553FC4F908196FD16C02F5F3F4FAC
:101710002C30310571F781110FC01092800082E0EA
:10172000809381001092850010928400B19A80917C
:101730006F00826080936F00E8818E2F90E0FC0143
:10174000EE0FFF1FE80FF91FE553FC4F8081806407
:1017500080838881DF91CF911F910895E091F803F4
:101760008E2F90E0FC01EE0FFF1FE80FF91FE553ED
:10177000FC4F808186FD58C06091630470916404C1
:1017800088EF93E00E94520B6AE570E088EF93E0E7
:101790000E94D60A8EE190E090931604809315047F
:1017A00080ED97E0909300048093FF0380E090E049
:1017B000A4E8B2E48093110490931204A09313045C
:1017C000B09314048AE198EFA2ECBDE380930D047A
:1017D00090930E04A0930F04B0931004109217047A
:1017E000109218041092190410921A048DE290E0DD
:1017F0009093FC038093FB031092090410920A0457
:1018000010920B0410920C04109201041092020426
:1018100010920304109204041092FE031092FD0330
:1018200010921F0410922004E09121048E2F90E06A
:10183000FC01EE0FFF1FE80FF91FE553FC4F8081FD
:1018400086FD58C0609165047091660481E294E061
:101850000E94520B6AE570E081E294E00E94D60A91
:101860008EE190E090933F0480933E0480ED97E0FA
:10187000909329048093280480E090E0A4E8B2E4E7
:1018800080933A0490933B04A0933C04B0933D04AE
:101890008AE198EFA2ECBDE380933604909337047D
:1018A000A0933804B093390410924004109241047C
:1018B00010924204109243048DE290E0909325042C
:1018C0008093240410923204109233041092340452
:1018D0001092350410922A0410922B0410922C04BA
:1018E00010922D041092270410922604109248049E
:1018F000109249040895CF92DF92EF92FF92CF9316
:10190000DF936C01EB010E94AE0B80918B0481117F
:1019100010928B048BE0C816D1045CF56881798144
:101920008091070490910804680F791F88EF93E075
:101930000E94D60A6A817B818091300490913104A3
:10194000680F791F81E294E00E94D60A888199810C
:1019500090936C0480936B048A819B8190936E04B6
:1019600080936D04DF91CF91FF90EF90DF90CF9047
:1019700008950E94920A0D2C000CEE08FF086C0DD1
:101980007D1D8E1D9F1D609373047093740480935E
:101990007504909376046881798180910704909111
:1019A0000804680F791F88EF93E00E94D60A6A81C5
:1019B0007B818091300490913104680F791F81E21E
:1019C00094E00E94D60A0E94920AC60ED71EE81E14
:1019D000F91EC0927304D0927404E0927504F092E0
:1019E00076040E94920AC0907304D0907404E09030
:1019F0007504F0907604C616D706E806F90608F4D2
:101A0000A5CFEFCFCF93DF9300D000D0CDB7DEB717
:101A10004091490250914A0260914B0270914C02F0
:101A200049835A836B837C83BE016F5F7F4F0E9423
:101A30007B0C0F900F900F900F90DF91CF91089536
:101A4000CF93DF9300D000D0CDB7DEB740914D02E9
:101A500050914E0260914F027091500249835A8317
:101A60006B837C83BE016F5F7F4F0E947B0C0F9066
:101A70000F900F900F90DF91CF910895CF93DF9348
:101A800000D000D0CDB7DEB7409151025091520244
:101A9000609153027091540249835A836B837C8313
:101AA000BE016F5F7F4F0E947B0C0F900F900F90D5
:101AB0000F90DF91CF910895CF93DF9300D000D0A6
:101AC000CDB7DEB780918B0481111EC08091490291
:101AD00090914A02A0914B02B0914C0289839A8363
:101AE000AB83BC83BE016F5F7F4F84EF91E00E94A8
:101AF0007B0C88EF93E00E94C50A81E294E00E948B
:101B0000C50A81E080938B040F900F900F900F9087
:101B1000DF91CF910895CF93DF9300D000D0CDB760
:101B2000DEB7409155025091560260915702709174
:101B3000580249835A836B837C83BE016F5F7F4F5A
:101B40000E947B0C0F900F900F900F90DF91CF9120
:101B50000895CF93DF9300D000D0CDB7DEB740918A
:101B6000590250915A0260915B0270915C02498364
:101B70005A836B837C83BE016F5F7F4F0E947B0C17
:101B80000F900F900F900F90DF91CF910895FC016F
:101B900001900020E9F73197AF01481B590BBC01B8
:101BA0008EE293E00C94B600CF93DF930E94A301E2
:101BB000EC018BE992E00E94C70D8C0F9D1FDF9115
:101BC000CF9108956EE170E080E090E00E94D00334
:101BD00082EA90E00E94A30180EA90E00E94A301C3
:101BE0008DE990E00E94D40D8EE293E00C94BE014A
:101BF0006EE170E080E090E00E94D0038AE990E01E
:101C00000E94A30188E990E00E94A30185E990E089
:101C10000E94D40D8EE293E00C94BE010E94F80D58
:101C20000E945C0D0C94E20D8F929F92AF92BF9236
:101C30000F931F93CF93DF93CDB7DEB7A1970FB666
:101C4000F894DEBF0FBECDBF19A2423008F44AE0BF
:101C50008E010F5D1F4F842E912CB12CA12CA5015C
:101C600094010E946125E62FB901CA01EA30F4F41B
:101C7000E05DD801EE938D01232B242B252B79F7E2
:101C800090E080E0109719F0CD010E94C70DA19659
:101C90000FB6F894DEBF0FBECDBFDF91CF911F917D
:101CA0000F91BF90AF909F908F900895E95CE1CF26
:101CB0000E945C0D82E990E00E94A3018FE890E011
:101CC0000E94A30185E692E00E94C70D8CE890E097
:101CD0000E94D40D8EE293E00C94BE01CF92DF926D
:101CE000EF92FF92CF93DF936C01990FEE08FF08FC
:101CF000F7FE19C06DE28EE293E00E945601EC01FE
:101D000066277727CB016C197D098E099F094AE068
:101D10000E94140E8C0F9D1FDF91CF91FF90EF90CA
:101D2000DF90CF9008954AE0C701B601DF91CF91CF
:101D3000FF90EF90DF90CF900C94140ECF93DF9331
:101D40000E945C0D809171040E9496038091710441
:101D50000E949603EC0164E070E080E090E00E9455
:101D6000D003809171040E949603C80FD91F64E0CC
:101D700070E080E090E00E94D00380E890E00E9454
:101D8000A3018DE790E00E94A301CE01D7FD01964B
:101D9000959587950E946E0E8AE790E00E94D40D7B
:101DA0008EE293E0DF91CF910C94BE016F927F920F
:101DB0008F929F92AF92BF92CF92DF92EF92FF925B
:101DC0000F931F93CF93DF936C0180911903909130
:101DD0001A03892BA1F560E080E10E943002109285
:101DE0001A0310921903109258011092590110927F
:101DF0005A0110925B01109212031092110310927B
:101E00001C0310921B030E94920A60930D037093AF
:101E10000E0380930F03909310038BEA90E090934E
:101E20004901809348018091690083608093690033
:101E3000E89A81E090E090931A03809319030E943E
:101E4000920A00910D0310910E0320910F0330911F
:101E50001003601B710B820B930B633371058105BB
:101E6000910530F083E090E090931A03809319037A
:101E70008091190390911A03039709F08BC0809108
:101E80001103909112038130910519F14CF460E037
:101E9000892B09F4E1C010921C0310921B0325C08A
:101EA0008230910509F4CFC00397A9F780911B03F5
:101EB00090911C03909318038093170360E081E0D6
:101EC0000E949E0A82E090E090931A038093190387
:101ED0000CC080911B0390911C039093140380937A
:101EE000130361E081E00E949E0A809111039091AA
:101EF000120304970CF4B2C020E030E040E85FEB3E
:101F000060914C0170914D0180914E0190914F0173
:101F10000E946826882301F120E030E040E85FEB72
:101F20006091500170915101809152019091530143
:101F30000E946826882381F020E030E040E85FEBD3
:101F40006091540170915501809156019091570113
:101F50000E94682681111EC0C3E1D3E00CE411E0A9
:101F600069917991072E000C880B990B0E94172715
:101F70009B01AC0160E070E08FE793E40E946D2666
:101F8000F80161937193819391938F01F3E0C931CB
:101F9000DF0731F78091190390911A03029709F036
:101FA00067C083E1E82E83E0F82E0CE411E0E6013F
:101FB000360186E0680E711CCC24CA94D12CF7013E
:101FC000619171917F01F80181909190A190B19000
:101FD0008F01072E000C880B990B0E941727A50173
:101FE00094010E94CC270E94DF266F3F710509F003
:101FF000E4F5798368832296C615D70501F7E8983A
:1020000085EB90E090934901809348011092120370
:102010001092110310921C0310921B0310921A03CA
:102020001092190381E090E0DF91CF911F910F9101
:10203000FF90EF90DF90CF90BF90AF909F908F90E8
:102040007F906F90089580911B0390911C03909353
:1020500016038093150361E080E045CF84E090E0B3
:1020600090931A038093190395CFD982C882C3CF66
:1020700090E080E0D9CF8F929F92AF92BF92CF92A3
:10208000DF92EF92FF920E945C0D0E9416076B0197
:102090007C0189E890E00E94A30186E890E00E941C
:1020A000A301A7019601C701B6010E943928882320
:1020B000A1F08EE992E00E94C70D83E890E00E94B3
:1020C000D40D8EE293E0FF90EF90DF90CF90BF9021
:1020D000AF909F908F900C94BE0146015701E894F9
:1020E000B7F82FEF3FEF4FE75FE7C501B4010E945C
:1020F000392881110DC02FEF3FEF4FE75FE7C50192
:10210000B4010E94682618161CF482EA92E0D3CF2C
:102110002FEF3FEF4FE75FE4C701B6010E94C727EB
:1021200018161CF486EA92E0C6CF2FEF3FEF4FE778
:102130005FECC701B6010E94682687FDF3CF20E05F
:1021400030E0A901C701B6010E94682687FF09C0D7
:102150006DE28EE293E00E945601F7FAF094F7F8F0
:10216000F0942AE037ED43EA5BE3C701B6010E9431
:10217000FC254B015C010E94E6266B017C010E945C
:1021800015279B01AC01C501B4010E94FB254B0141
:102190005C014AE0C701B6010E94140E6EE28EE2B5
:1021A00093E00E94560120E030E040E251E4C50196
:1021B000B4010E94CC274B015C010E94E6266B0112
:1021C000F12CE12C4AE0C701B6010E94140EC701B0
:1021D000B6010E9415279B01AC01C501B4010E9404
:1021E000FB2520E030E040E251E40E94CC270E9431
:1021F000E62690E080E04AE00E94140E5ECF1F9336
:10220000CF93DF932091B9043091BA042E30310579
:1022100004F5EB01BC0115E2129FC001139F900D64
:10222000112443E250E085549B4F0E94672880911F
:10223000B9049091BA04189FF001199FF00D112470
:10224000E252FB4FD183C08301969093BA048093EE
:10225000B904DF91CF911F91089547EB54E062EBF1
:1022600074E090E080E00C940925CF93DF9300D0D8
:10227000CDB7DEB70E94F80D0E945C0D0E942D11B3
:102280000097C1F042E050E0BE016F5F7F4F0E94B7
:10229000F7236093F0037093F1038093F20390931C
:1022A000F3030E945E020E94E20D0F900F90DF91F7
:1022B000CF9108956AE170E080E090E00E949B0277
:1022C00060ED77E080E090E00E94D0030E94D102B0
:1022D000EACFCF92DF92EF92FF920F931F93CF93AB
:1022E000DF930E94F80D0E945C0D0E942D1111E0F9
:1022F000009721F00E94E224EC0110E00E942D11D1
:10230000009721F00E94E2241123C1F06AE170E0FD
:1023100080E090E00E949B0260ED77E080E090E03A
:102320000E94D0030E94D102DF91CF911F910F91A3
:10233000FF90EF90DF90CF900C94E20D6C01990F1D
:10234000EE08FF08BE01DD0F880B990B0E941727CE
:1023500001E010E0A70196010E940304E5CF0E946E
:10236000F80D80918B04811110928B040E942D1125
:10237000009791F00E94E2249093DF028093DE02A6
:102380000E942D110097D9F00E94E22490934501FC
:10239000809344010C942D116AE170E080E090E09C
:1023A0000E949B0260ED77E080E090E00E94D00305
:1023B0000E94D1021092DF021092DE02E1CF88EE7D
:1023C00093E0E4CF2F923F924F925F926F927F9271
:1023D0008F929F92AF92BF92CF92DF92EF92FF9235
:1023E0000F931F93CF93DF9300D000D0CDB7DEB70C
:1023F0000E94F80D0E945C0D0E942D110097C1F003
:102400000E94E22401978D30910500F5FC01E55F03
:10241000FD4E0C944A283E1259128212F3127F1379
:10242000DC13ED13FE137714BA1454156516BA169F
:102430006AE170E080E090E00E949B0260ED77E04E
:1024400080E090E00E94D0030E94D1020F900F9094
:102450000F900F90DF91CF911F910F91FF90EF9010
:10246000DF90CF90BF90AF909F908F907F906F90B4
:102470005F904F903F902F900C94E20D0EE110E092
:1024800022E330E040E050E064EA70ED84E294E45E
:102490000E9403046AE070E080E090E00E949B02EA
:1024A0008DE090E00E948E078DE090E00E948E0704
:1024B00020C06BE070E080E090E00E949B028BE027
:1024C00090E00E948E076CE070E080E090E00E9457
:1024D0009B026BE070E080E090E00E949B028CE049
:1024E00090E00E948E076CE070E080E090E00E9437
:1024F0009B020E945C0D6BE070E080E090E00E9427
:102500009B02A4CF66E170E080E090E00E949B0215
:1025100028EC822E912C34E1A32EB12CC12CD12C8D
:102520001CE5E12E1FE8F12E02E81FE320E030E871
:102530004FE454E460E070E08CE594E40E94860689
:1025400068E170E080E090E00E949B0220E030E8CB
:1025500045E454E460E070E88FE494E40E94860669
:1025600067E170E080E090E00E949B0220E030E0B4
:1025700049E354E460E070E885E494E40E94860650
:1025800068E170E080E090E00E949B0220E030E093
:102590004FE254E460E070E089E394E40E94860630
:1025A00067E170E080E090E00E949B0220E030E470
:1025B00047E254E460E070E08FE294E40E94860613
:1025C00066E170E080E090E00E949B0264EF71E0C1
:1025D00080E090E00E94D0030E945C0D6CE271E00C
:1025E00080E090E0E6C024E030E03A83298350E0C8
:1025F00040E061E070E080E090E00E94DB02BAE041
:102600008B2E912C1AE0A12EB12CC12CD12C18EBC1
:10261000E12E1EE1F12E05E81FE320E030E048E462
:1026200053E460E070E088EC92E40E94860641E0AA
:1026300050E061E070E080E090E00E94DB0220E08A
:1026400030E046E953E460E070E088E493E40E94FF
:10265000860642E050E061E070E080E090E00E9499
:10266000DB0220E030E04AEF53E460E070E086E90E
:1026700093E40E94860664EF71E080E090E00E949F
:10268000D00341E050E061E070E080E090E00E9423
:10269000DB0288248394912C20E030E04AE753E465
:1026A00060E070E088EC93E40E94860650E040E031
:1026B00061E070E080E090E00E94DB0220E030E02A
:1026C00048EC52E460E070E08AE793E40E948606FA
:1026D00064EF71E080E090E00E94D00389819A81EC
:1026E00001979A838983892B09F081CF63E170E098
:1026F00080E090E00E949B0289E090E0D7CE6CE2FF
:1027000071E080E090E00E94D00363E170E080E03F
:1027100090E00E949B0280E190E00E948E0760E1C1
:1027200070E080E090E00E949B026AEF70E080E041
:1027300090E00E94D0036CE271E080E090E00E94A3
:10274000D00363E170E080E090E00E949B0281E1B1
:1027500090E00E948E0760E170E080E090E00E94CF
:102760009B026AEF70E080E090E00E94D0036CE290
:1027700071E080E090E00E94D00363E170E080E0CF
:1027800090E00E949B0282E190E00E948E0760E14F
:1027900070E080E090E00E949B026CE271E080E0DB
:1027A00090E00E94D0030E945C0D64EF71E080E035
:1027B00090E00E94D0039FCE64E170E080E090E062
:1027C0000E949B028FE090E00E948E0764EF71E010
:1027D00080E090E00E94D0038CCE6DE070E080E05D
:1027E00090E00E949B0289E090E00E948E070E9488
:1027F0005C0D8DE090E00E948E077DCE6EE170E072
:1028000080E090E00E949B020EE110E024E630E0C0
:1028100040E050E060E070E08CE594E40E94030446
:1028200044E0842E912C57E0A52EB12CC12CD12C44
:102830001CE5E12E1FE8F12E02E81FE32FE135ED44
:1028400042E954E460E070E08CE594E40E9486067E
:1028500088248394912CEAE0AE2EB12CC12CD12C8B
:102860002CE53FEF43EC54E46FE175ED82E994E42D
:102870000E94860620E030E04CE554E46CE57FEFF2
:1028800083EC94E40E9486066FE070E080E090E0C4
:102890000E94D003F4E08F2E912CA4E1AA2EB12C3B
:1028A000C12CD12C24EA30ED44E254E460E070E025
:1028B0008CE594E40E94860660E971E080E090E097
:1028C0000E94D0032FE135ED42E954E460E070E06E
:1028D0008CE594E40E94860624EA30ED44E254E458
:1028E00060E070E08CE594E40E94860602CE6EE122
:1028F00070E080E090E00E949B0294E0892E912C91
:1029000024E1A22EB12CC12CD12C1CE5E12E1FE814
:10291000F12E02E81FE32FE135ED42E954E460E0D7
:1029200070E08CE594E40E94860624EA30ED44E2EF
:1029300054E460E070E08CE594E40E9486066CE26A
:1029400071E080E090E00E94D00363E170E080E0FD
:1029500090E00E949B020E945C0D0E945C0D0E9410
:102960005C0D0E945C0D6EE170E080E090E00E94E2
:102970009B022CCF24E030E03A83298300E911E068
:102980001C821B824B815C8162E070E080E090E001
:102990000E94DB02180134E6230E311CB801110F2E
:1029A000880B990B0E9417272B013C01B101032CC6
:1029B000000C880B990B0E9417279B01AC011AE0B1
:1029C000812E912C0AE0A02EB12CC12CD12C18EB19
:1029D000E12E1EE1F12E05E81FE3C301B2010E94C2
:1029E00086068B819C8101969C838B83810106974F
:1029F00049F60E94D10218EBE12E1EE1F12E05E806
:102A00001FE320E030E849E854E4C301B2010E942A
:102A1000860628EE33E03C832B83312C212CA10148
:102A200062E070E080E090E00E94DB026B817C81DC
:102A30006C597F4F072E000C880B990B0E941727AB
:102A40002B013C012B813C81B901330F880B990B81
:102A50000E941727EAE08E2E912CFAE0AF2EB12CBF
:102A6000C12CD12C18EBE12E1EE1F12E05E81FE35D
:102A7000A30192010E9486068B819C818456910954
:102A80009C838B839FEF291A390A2B813C81203943
:102A9000314029F629813A81215031093A8329832D
:102AA000232B09F06BCF9ACD82E090E09A83898343
:102AB00084EF91E09C838B83312C212CA10163E076
:102AC00070E080E090E00E94DB026B817C816C59B9
:102AD0007F4F072E000C880B990B0E9417272B01A4
:102AE0003C012B813C81B901330F880B990B0E946B
:102AF00017273AE0832E912C4AE0A42EB12CC12C4A
:102B0000D12C1CE5E12E1FE8F12E02E81FE3A30102
:102B100092010E9486068B819C818B599F4F9C83DA
:102B20008B839FEF291A390A2AE02216310431F6E5
:102B300086EE95E09C838B83312C212CA10163E0F0
:102B400070E080E090E00E94DB026B817C816C5938
:102B50007F4F072E000C880B990B0E9417272B0123
:102B60003C012B813C81B901330F880B990B0E94EA
:102B70001727AAE08A2E912CBAE0AB2EB12CC12CDB
:102B8000D12C1CE5E12E1FE8F12E02E81FE3A30182
:102B900092010E9486068B819C818B599F4F9C835A
:102BA0008B839FEF291A390A2AE02216310431F665
:102BB00088ED99E09C838B83312C212CA10163E06B
:102BC00070E080E090E00E94DB026B817C816456C3
:102BD0007109072E000C880B990B0E9417272B01F7
:102BE0003C012B813C81B901330F880B990B0E946A
:102BF00017275AE0852E912CEAE0AE2EB12CC12C7D
:102C0000D12C1CE5E12E1FE8F12E02E81FE3A30101
:102C100092010E9486068B819C81855691099C8336
:102C20008B839FEF291A390A2B813C81263E354040
:102C300029F6312C212CA10163E070E080E090E0C6
:102C40000E94DB026B817C8164567109072E000CA7
:102C5000880B990B0E9417272B013C012B813C818B
:102C6000B901330F880B990B0E9417272AE0822E97
:102C7000912C3AE0A32EB12CC12CD12C1CE5E12ED5
:102C80001FE8F12E02E81FE3A30192010E948606CD
:102C90008B819C81855691099C838B839FEF291A98
:102CA000390A2AE02216310431F689819A81019786
:102CB00039F40E94D10264E670E080E090E079CDC2
:102CC00021E030E03A832983F3CE6FE070E080E0CA
:102CD00090E00E949B0220E436E03A832983298118
:102CE0003A81B901330F880B990B0E94172701E035
:102CF00010E02FE030E040E050E00E9403048981C2
:102D00009A8144969A838983803F9A4041F76EE086
:102D100070E080E090E00E949B0229813A81B90135
:102D2000330F880B990B0E94172701E010E02FE06A
:102D300030E040E050E00E94030489819A8144968B
:102D40009A838983803A9F4041F76BE070E080E08E
:102D500090E00E949B028CE090E00E948E076CE065
:102D600070E080E090E00E949B020E945C0D0E9457
:102D7000D102C1CB67E170E080E090E00E949B024D
:102D800001E010E028EC30E040E050E060E070E06E
:102D900081E694E40E94030468E170E080E090E042
:102DA0000E949B0228EC30E040E050E060E070E0E0
:102DB00086E194E40E94030464E170E080E090E026
:102DC0000E949B0228EC30E040E050E060E070E0C0
:102DD00086E993E40E9403046AE170E080E090E0F9
:102DE0000E949B0288EF93E00E94C50A81E294E072
:102DF0000E94C50A28E938E040E050E060E070E059
:102E000086E193E40E94030468E572E080E090E0CC
:102E10000E94D0030E94D1026BE070E080E090E05D
:102E20000E949B020E945C0D11CB0E94F80D0E9433
:102E30005C0D0E942D110097F1F00E94E224019791
:102E40008331910530F5FC01E85DF84E0C944A2879
:102E50004B1750175317561759175C175F17621700
:102E6000651768176B176E177117741777177A172E
:102E70007D17801783176AE170E080E090E00E9480
:102E80009B0260ED77E080E090E00E94D0030E941A
:102E9000D1020C94E20D90E080E00E948E07F9CF01
:102EA00081E090E0FACF86E090E0F7CF87E090E015
:102EB000F4CF88E090E0F1CF89E090E0EECF8AE0B7
:102EC00090E0EBCF8BE090E0E8CF8CE090E0E5CFB6
:102ED0008DE090E0E2CF8EE090E0DFCF8FE090E0F9
:102EE000DCCF80E190E0D9CF81E190E0D6CF82E1E4
:102EF00090E0D3CF83E090E0D0CF84E090E0CDCFDE
:102F000085E090E0CACF82E090E0C7CFAF92BF9259
:102F1000CF92DF92EF92FF921F93CF93DF93CDB7C3
:102F2000DEB728970FB6F894DEBF0FBECDBF0E9464
:102F3000F80D8EE190E09093DF028093DE020E9414
:102F40002D1111E0009721F00E94E2245C0110E0B5
:102F50000E942D11009791F10E94E2246C010E94C1
:102F60002D11009769F10E94E2247C010E942D112D
:102F7000009721F00E94E224112321F16AE170E020
:102F800080E090E00E949B0260ED77E080E090E0BE
:102F90000E94D0030E94D1020E94E20D28960FB633
:102FA000F894DEBF0FBECDBFDF91CF911F91FF9090
:102FB000EF90DF90CF90BF90AF90089511E0CFCF0A
:102FC00011E0D4CFBA82A982DC82CB82FE82ED826C
:102FD00098878F83BE016F5F7F4F88EC90E00E94DF
:102FE0007B0CDACFCF92DF92EF92FF920F931F9379
:102FF000CF93DF93CDB7DEB72B970FB6F894DEBF34
:103000000FBECDBF0E945C0D1A821982FE0133965D
:1030100089E0DF011D928A95E9F732977F0105E08B
:1030200010E06F01C8010E943B25D7018D937D01FF
:103030000F5F1F4F00311105A9F78EE690E00E9447
:10304000A3018BE690E00E94A301C6010E94C70D78
:1030500088E690E00E94D40D8EE293E00E94BE01CB
:103060002B960FB6F894DEBF0FBECDBFDF91CF9188
:103070001F910F91FF90EF90DF90CF900895FF92F6
:103080000F931F93CF93DF938C01EB01F8800E9485
:103090003B25F81621F06F2DC8010E944325CE0173
:1030A000DF91CF911F910F91FF900895DF92EF92E2
:1030B000FF920F931F93CF93DF93CDB7DEB72B977C
:1030C0000FB6F894DEBF0FBECDBF0E94F80D0E9470
:1030D0005C0D1A821982FE01339689E0DF011D9290
:1030E0008A95E9F70E942D11009791F1FC01CE011C
:1030F00001967C019F01245F3F4FDC018191882371
:1031000029F0E217F30711F08D93F8CF05E010E0F6
:10311000D701DD907D01C8010E943B25D81621F022
:103120006D2DC8010E9443250F5F1F4F003111050F
:1031300079F72B960FB6F894DEBF0FBECDBFDF91A7
:10314000CF911F910F91FF90EF90DF900C94E20DC3
:103150006AE170E080E090E00E949B0260ED77E021
:1031600080E090E00E94D0030E94D102E2CFFF9263
:103170000F931F93CF93DF930E94F80D0E945C0D75
:103180000E942D11C1E0009729F00E94E224D82F5F
:10319000F92EC0E00E942D11009719F10E94E2243F
:1031A0008C010E942D11892B09F4C1E00E942D1180
:1031B000892B11F0CC23B9F06AE170E080E090E057
:1031C0000E949B0260ED77E080E090E00E94D003D7
:1031D0000E94D102DF91CF911F910F91FF900C942B
:1031E000E20DC1E0DECFD0930704F0920804109303
:1031F0003104009330046D2F90E080E00E9443255D
:103200006091300481E090E00E9443256091590470
:1032100082E090E00E9443256091820483E090E088
:103220000E944325D7CFCF92DF92EF92FF920F9368
:103230001F930E945C0D60E080914A040E9430025E
:1032400083E090E00197F1F761E080914A040E94E9
:10325000300283E290E00197F1F760E080914A0448
:103260000E94300280914C0490914D049927FC01FA
:10327000E353FF4F6491FC01E551FF4FE491F0E00F
:10328000EE0FFF1FE155FF4F8591949100E41CE97B
:1032900020E030E0462F0E94B71B611571058105C3
:1032A000910529F06F5F7F4F8F4F9F4F9F702AE3EB
:1032B00030E040E050E00E94832569017A01C114AA
:1032C000D104E104F10431F487EEC82E83E0D82E56
:1032D000E12CF12C87E790E00E94A30184E790E0C5
:1032E0000E94A301C701B6010E9417270E94DF2692
:1032F000CB010E946E0E81E790E00E94D40D8EE219
:1033000093E01F910F91FF90EF90DF90CF900C947E
:10331000BE011F920F920FB60F9211242F933F936D
:103320004F935F936F937F938F939F93AF93BF93CD
:10333000EF93FF938091220390912303A0912403A4
:10334000B0912503892B8A2B8B2BD1F190911D03F2
:10335000E0911E03F0911F03808189278083809173
:10336000220390912303A0912403B0912503181602
:1033700019061A061B069CF48091220390912303E0
:10338000A0912403B09125030197A109B10980936D
:10339000220390932303A0932403B0932503FF916A
:1033A000EF91BF91AF919F918F917F916F915F91BD
:1033B0004F913F912F910F900FBE0F901F90189536
:1033C00080915801EFEFF0E0E4919FEF9093580166
:1033D000E13051F030F0E23069F060E00E943002FC
:1033E000DECF10926E00F9CF90916F009D7F909389
:1033F0006F00F3CF909170009D7F9093700091E0EB
:103400009093B0009091B100987F94609093B10038
:103410001092B300E2CF1F920F920FB60F921124B9
:103420002F933F934F935F936F937F938F939F93CC
:10343000AF93BF93EF93FF938EE293E00E9434012A
:10344000FF91EF91BF91AF919F918F917F916F917C
:103450005F914F913F912F910F900FBE0F901F9052
:1034600018951F920F920FB60F9211242F938F93DE
:103470009F93EF93FF93E0913E03F0913F03808190
:10348000E0914403F091450382FD1BC0908180913F
:1034900047038F5F8F7320914803821741F0E091BB
:1034A0004703F0E0E25DFC4F958F80934703FF9167
:1034B000EF919F918F912F910F900FBE0F901F90C2
:1034C00018958081F4CF1F920F920FB60F9211249E
:1034D0002F933F938F939F93AF93BF938091D60287
:1034E0009091D702A091D802B091D9023091D50223
:1034F00023E0230F2D3758F50196A11DB11D209310
:10350000D5028093D6029093D702A093D802B093AD
:10351000D9028091DA029091DB02A091DC02B09195
:10352000DD020196A11DB11D8093DA029093DB02AA
:10353000A093DC02B093DD02BF91AF919F918F9178
:103540003F912F910F900FBE0F901F90189526E876
:10355000230F0296A11DB11DD2CF1F920F920FB65D
:103560000F9211242F933F934F935F936F937F9309
:103570008F939F93AF93BF93EF93FF93E0914A0193
:10358000F0914B010995FF91EF91BF91AF919F9100
:103590008F917F916F915F914F913F912F910F90FC
:1035A0000FBE0F901F9018951F920F920FB60F929B
:1035B00011242F933F934F935F936F937F938F9338
:1035C0009F93AF93BF93EF93FF93E0914801F091E6
:1035D00049010995FF91EF91BF91AF919F918F9113
:1035E0007F916F915F914F913F912F910F900FBEFF
:1035F0000F901F9018951F920F920FB60F921124E3
:103600002F933F934F935F936F937F938F939F93EA
:10361000AF93BF93CF93DF93EF93FF938091D40247
:10362000C091EF03D0E087FF24C010928500109274
:1036300084008091D4028F5F8093D4028091D40261
:10364000082E000C990B8C179D0724F48091D4024E
:103650008C30C4F180918400909185000496803470
:103660009C4908F47AC0809184009091850004966A
:1036700076C08091D402082E000C990B8C179D0700
:10368000C4F6E091D4028E2FEE0F990BFC01EE0FE1
:10369000FF1FE80FF91FE553FC4F808186FFC9CF5C
:1036A000E091D4028E2FEE0F990BFC01EE0FFF1F5D
:1036B000E80FF91FE553FC4F808160E08F730E9493
:1036C0003002B7CF2091840030918500E091D40280
:1036D0008E2FEE0F990BFC01EE0FFF1FE80FF91F65
:1036E000E553FC4F81819281820F931F9093890053
:1036F00080938800E091D4028E2FEE0F990BFC018D
:10370000EE0FFF1FE80FF91FE553FC4F808186FF86
:1037100011C0E091D4028E2FEE0F990BFC01EE0F39
:10372000FF1FE80FF91FE553FC4F808161E08F73A5
:103730000E943002FF91EF91DF91CF91BF91AF9145
:103740009F918F917F916F915F914F913F912F91B9
:103750000F900FBE0F901F90189580E49CE99093F6
:103760008900809388008FEF8093D402E3CFCF92BB
:10377000DF92EF92FF920F931F93E82FF92F05C06E
:10378000015011092109310961F1908196239417A3
:10379000B9F305C0015011092109310911F19081D6
:1037A00096239413F7CFC12CD12CE12CF12C0AC015
:1037B0008FEFC81AD80AE80AF80A0C151D052E055D
:1037C0003F0579F080818623841791F36C2D7D2D40
:1037D0008E2D9F2D1F910F91FF90EF90DF90CF9036
:1037E000089560E070E080E090E01F910F91FF90FD
:1037F000EF90DF90CF900895109231031092300334
:1038000088EE93E0A0E0B0E080933203909333031E
:10381000A0933403B09335038DE892E090932F0387
:1038200080932E0385EC90E090933B0380933A03C2
:1038300084EC90E090933D0380933C0380EC90E017
:1038400090933F0380933E0381EC90E0909341037B
:103850008093400382EC90E0909343038093420373
:1038600086EC90E0909345038093440310924703C5
:10387000109248031092490310924A0380E290E0AC
:103880009093B3048093B2048DE08093B4041092BB
:10389000BA041092B904EDE8F4E080EB94E01192E0
:1038A0008E179F07E1F71092B1041092B0041092A6
:1038B000F0031092F1031092F2031092F3038BE0E5
:1038C0008093F4038DE08093F5038CE08093F603FE
:1038D00061E08BE00E94490361E08091F5030E9462
:1038E000490361E08091F6030E94490360E0809102
:1038F000F4030E94300260E08091F5030E943002E0
:1039000060E08091F6030E9430020E945E02809186
:10391000EF038C30A0F08FEF8093F803109208042F
:10392000109207048091EF038C30E0F08FEF8093CA
:10393000210410923104109230040C947A0391E027
:10394000980F9093EF038093F80390E0FC01EE0F43
:10395000FF1FE80FF91FE553FC4F88EB9BE09283B4
:103960008183DCCF91E0980F9093EF038093210443
:1039700090E0FC01EE0FFF1FE80FF91FE553FC4F2D
:1039800088EB9BE092838183D4CFCF93DF93CDB735
:10399000DEB7C65DD1090FB6F894DEBF0FBECDBF4E
:1039A000789484B5826084BD84B5816084BD85B51A
:1039B000826085BD85B5816085BD80916E00816026
:1039C00080936E00109281008091810082608093CC
:1039D00081008091810081608093810080918000CE
:1039E0008160809380008091B10084608093B100F9
:1039F0008091B00081608093B00080917A008460F3
:103A000080937A0080917A00826080937A0080911E
:103A10007A00816080937A0080917A008068809338
:103A20007A001092C100E0913E03F0913F0382E0E2
:103A30008083E0913A03F0913B031082E0913C03D4
:103A4000F0913D0380E1808310924603E0914203B0
:103A5000F091430386E08083E0914003F0914103BD
:103A6000808180618083E0914003F09141038081F7
:103A700088608083E0914003F091410380818068F9
:103A80008083E0914003F091410380818F7D8083AA
:103A900060E086E00E94490360E087E00E944903FD
:103AA00084E090E0909364048093630485E090E068
:103AB00090936604809365040E94AE0B10928B0471
:103AC0008AE590E090936C0480936B0490936E046D
:103AD00080936D0483E090E090934F0480934E04B4
:103AE00060E00E94490381E190E09093510480934B
:103AF000500460E00E9449030E947A0382E190E052
:103B0000909354048093530460E00E94490301E0C1
:103B100010E010935604009355041093580400933A
:103B2000570410935A040093590483E190E0909352
:103B30005C0480935B0460E00E94490310935E0480
:103B400000935D041093600400935F048FEF9FEF78
:103B5000909362048093610488E090E090934B041A
:103B600080934A0489E090E090934D0480934C0444
:103B700061E088E00E94490360E080914C040E946B
:103B800049038AE090E09093700480936F0484E18D
:103B900090E0909372048093710461E08AE00E9447
:103BA000490360E084E10E94490384E10E94960396
:103BB000BC01990F880B990B611571058105910561
:103BC00011F00E94EE236EE07EE08AEA92E00E940D
:103BD000FF1065E371E18CEA92E00E94FF1069E654
:103BE00071E18EEA92E00E94FF106FEA71E180EBD2
:103BF00092E00E94FF1062EE71E182EB92E00E947F
:103C0000FF1065E177E184EB92E00E94FF1067EB23
:103C100078E186EB92E00E94FF1066E877E188EB9E
:103C200092E00E94FF1066E578E18AEB92E00E9444
:103C3000FF1062EF77E18CEB92E00E94FF1063E1EE
:103C400079E18EEB92E00E94FF106EE97EE080EC5D
:103C500092E00E94FF106BE370E182EC92E00E9420
:103C6000FF1068E57EE084EC92E00E94FF108EE099
:103C70009EE09093C2068093C1060E945C0D85E091
:103C800090E00E943B258432D9F462E772E085E03F
:103C900090E00E943F181982BE016F5F7F4F86E05F
:103CA00090E00E943F186DE170E080E090E00E949B
:103CB0009B0268EE73E080E090E00E94D003F9CFB1
:103CC0000E94F21762E370E080E090E00E94D0036F
:103CD0000E94580E62E370E080E090E00E94D00302
:103CE0000E943B100E94160720E030E044E352E4BB
:103CF0000E94682687FF41C080910C0381113DC05E
:103D00006CE170E080E090E00E949B0223E0822E54
:103D1000912C38E0A32EB12CC12CD12C18EBE12E24
:103D20001EE1F12E05E81FE320E030E04AEF54E405
:103D300060E070E08CE594E40E9486066EE170E03D
:103D400080E090E00E94D0031CE5E12E1FE8F12EF8
:103D500002E81FE320E030E04CE554E460E070E06E
:103D60008AEF94E40E9486060E94D10264EF71E01B
:103D700080E090E00E94D003BFCF10E000E080918F
:103D80000C03811111C0A80160E070E0CB010E941A
:103D9000DB0266E970E080E090E00E94D0030F5FF4
:103DA0001F4F0830110559F710E000E080910C0317
:103DB000811111C0A80160E070E0CB010E94DB021C
:103DC00066E970E080E090E00E94D0030F5F1F4F33
:103DD0000830110559F780910C0381110CC06AE07D
:103DE00070E080E090E00E949B0268EC70E080E070
:103DF00090E00E94D00385E090E00E943B25833252
:103E0000F1F480910C0381110EC090E080E00E94DB
:103E1000200D90E080E00E943E0D68EC70E080E0B4
:103E200090E00E94D00380910C03811108C06FE0E4
:103E300070E080E090E00E949B020E945C0D809107
:103E40000C03811106C06BE070E080E090E00E94FE
:103E50009B020E94920A6093080370930903809367
:103E60000A0390930B0380915D0290915E02A091F2
:103E70005F02B0916002C153DF4F88839983AA83A8
:103E8000BB83CF5CD040DE0111963D018091610281
:103E900090916202A0916302B0916402CD52DF4F13
:103EA00088839983AA83BB83C35DD0402E0199EC9C
:103EB000490E511C86E0D2011D928A95E9F78EE2E7
:103EC00093E00E9414011816190674F480914601BB
:103ED00090914701039741F081E090E09093470172
:103EE0008093460110920C0380910C03882391F17A
:103EF0000E945C0D64E670E080E090E00E94D003D8
:103F000068EC70E080E090E00E94D0036091460190
:103F100070914701072E000C880B990B0E949B02A1
:103F200008EC10E06AE070E080E090E00E94D003CE
:103F300001501109B9F710920C0380E090E0892B31
:103F400009F4B8CF0E942001882309F4B3CF0E945E
:103F50000000ACCF809146019091470181309105DE
:103F600009F47AC154F4892B09F497C081E090E0F8
:103F70009093470180934601E0CF8230910509F488
:103F800015C3039799F711E090EBA92E94E0B92E91
:103F900025E2322E8EE293E00E94140118161906D3
:103FA0000CF043C3112309F440C38EE293E00E9456
:103FB000F20080938C049091B404891346C010924F
:103FC000B1041092B00447EB54E062EB74E08DE86A
:103FD00094E00E9409256C019093B6048093B50487
:103FE000892B09F422C38090B9049090BA048CE81C
:103FF000E82E84E0F82E10E000E0081519050CF01A
:1040000008C3B701615D7F4F43E250E0C6010E94E3
:104010005928F5E2EF0EF11C892B09F0F7C2309E0A
:10402000F001319EF00D1124E252FB4F0190F0811E
:10403000E02D0995EDE8F4E01192AE16BF06E1F728
:104040001092B1041092B00410E000918C04802F03
:10405000002E000C990B0E945228892B09F49ACF4C
:104060008091B0049091B1049C012F5F3F4F309339
:10407000B1042093B00484579B4FDC0111960C933C
:10408000F901E457FB4F1182233231050CF482CF42
:104090001092B1041092B0047DCF0E94920A009158
:1040A00008031091090320910A0330910B03601B50
:1040B000710B820B930B603878438140910508F4B3
:1040C0003CCF1D821E821F8218868AE590E09A836B
:1040D00089839C838B8380910C03811105C0B3017C
:1040E0008CEB92E00E947B0C94E0292E312C809185
:1040F0000C0381118CC050E040E061E070E080E092
:1041000090E00E94DB021AE0812E912C0AE0A02EA2
:10411000B12CC12CD12C18EBE12E1EE1F12E05E8BB
:104120001FE320E030E048E453E460E070E088EC16
:1041300092E40E94860680910C03811168C041E0E0
:1041400050E061E070E080E090E00E94DB0220E05F
:1041500030E046E953E460E070E088E493E40E94D4
:10416000860680910C03811152C042E050E061E06C
:1041700070E080E090E00E94DB0220E030E04AEF57
:1041800053E460E070E086E993E40E94860664EF01
:1041900071E080E090E00E94D00380910C038111D7
:1041A00036C041E050E061E070E080E090E00E94C5
:1041B000DB0288248394912C20E030E04AE753E42A
:1041C00060E070E088EC93E40E94860680910C0326
:1041D00081111DC050E040E061E070E080E090E0BF
:1041E0000E94DB0220E030E048EC52E460E070E046
:1041F0008AE793E40E94860664EF71E080E090E035
:104200000E94D003E1E02E1A310809F070CF8091AE
:104210000C0381110AC063E170E080E090E00E942D
:104220009B0289E090E00E948E070E945C0D8091C5
:104230000C03811106C06BE070E080E090E00E940A
:104240009B020E94920A6093080370930903809373
:104250000A0390930B0371CE80910703811109C06B
:1042600087E00E94070221E0892B09F420E02093D7
:1042700007038091060381111EC086E00E94070299
:1042800021E0892B09F420E02093060380910603A6
:10429000882389F08091040390910503892B59F0BC
:1042A0001092050310920403E6EEF2E08EE1DF01C6
:1042B0001D928A95E9F780910703882309F48FC03E
:1042C000E0900403F0900503E114F10409F480C0C8
:1042D000F701EE0FFF1FEC51FD4F80819181049794
:1042E00009F076C06AE070E080E090E00E949B02F6
:1042F00076EEA72E72E0B72E10E000E00E151F0537
:104300000CF058C0F501819091905F0163E7C62ED3
:1043100062E0D62ED601ED91FD916D0180819181F3
:104320008816990651F48281938182309105C9F1F2
:1043300064F40097D1F10197E9F0ADE7B2E0AC1574
:10434000BD0541F70F5F1F4FD9CF83309105B9F0FD
:10435000049799F7CD52DF4F88819981AA81BB815B
:10436000C35DD04089839A83AB83BC83B30182E56C
:1043700093E014C080ED97E00E943E0DDECFC15364
:10438000DF4F88819981AA81BB81CF5CD04089832E
:104390009A83AB83BC83B30182EF93E00E947B0CD2
:1043A000CCCF84EC99E00E94200D84E690E00E943E
:1043B000020DC3CF1092050310920403E6EEF2E063
:1043C0008EE1DF011D928A95E9F710920703B5CDC2
:1043D0006BE170E080E090E00E949B02F6CF80915C
:1043E0000603882309F4D7C0C2010E94D60E892B88
:1043F00009F44AC0ADE7B2E0CD90DD9096012E5FA2
:104400003F4FA2018601085F1F4FF90181919191F1
:104410009F01FA0161917191AF017C01FFE0EF1AF8
:10442000F1086E157F050CF438C10F9686179707B3
:104430000CF433C10217130741F7D6018D919C91FB
:1044400097FD22C08330910521F41092E50283E0AC
:1044500090E02091E502211117C083309105A1F071
:10446000209104033091050341E04093E502F901F6
:10447000EE0FFF1FEA51FD4F918380832F5F3F4F67
:10448000309305032093040380914E040E94070299
:10449000182F8093E402809150040E9407021111AA
:1044A00037C0811128C08AE090E00E943E0D109232
:1044B000E3021092E20281E090E09093E1028093A7
:1044C000E0026AE070E080E090E00E949B02809150
:1044D000040390910503009709F42FCD880F991FCD
:1044E000FC01EC51FD4F80819181049709F025CDAD
:1044F0001092060322CD813051F78AE090E00E94AD
:10450000A90D1092E3021092E20283E090E0D5CF71
:104510001130E9F681110BC08AE090E00E948B0D0A
:104520001092E3021092E20284E090E0C6CF813064
:1045300071F60091E2021091E302093E23E01207B6
:10454000CCF48091E0029091E1028430910559F41D
:104550008AE090E00E948B0D0F5F1F4F1093E302E3
:104560000093E202AECF039729F48AE090E00E9424
:10457000A90DF2CF8AE090E00E94020D1092E302B2
:104580001092E2021092E1021092E00266E170E005
:1045900080E090E09ACF8AE090E00E94020D66E110
:1045A00070E080E090E00E949B02C7CCC2010E94B4
:1045B000D60E892B09F4C1CC720110E000E036EC74
:1045C000C32E32E0D32ED7018C9111969C91B2E08C
:1045D000EB0EF11C9F938F931F930F93DF92CF925B
:1045E0007F926F920E947628C3010E94C70D8BE9CB
:1045F00092E00E94C70D0F5F1F4F0FB6F894DEBF09
:104600000FBECDBF03301105F1F697CC0F5F1F4FE2
:10461000F4CCE091C106F091C2060995EDE8F4E012
:104620001192AE16BF06E1F70BCD80918B0481117C
:1046300084CC8091DE029091DF0282309105F9F006
:1046400064F40097B9F0019709F077CC80914401A8
:10465000909145010E94A90D0FC083309105B1F0E2
:10466000049709F06ACC80914401909145010E9421
:10467000200D02C00E945C0D0E94E20D5ECC809174
:104680004401909145010E948B0DF6CF8091440129
:10469000909145010E943E0DEFCFE2E0A938BE07A0
:1046A00009F0AACED2CE8F929F92AF92BF92CF92B4
:1046B000DF92EF92FF92CF93DF93EC0168817981D3
:1046C0008A819B81611571058105910521F464E260
:1046D00079ED8BE597E02DE133EF41E050E00E946A
:1046E000832549015A019B01AC01A7EAB1E40E946C
:1046F000A2256B017C01ACEEB4EFA50194010E94F0
:10470000B025C60ED71EE81EF91EF7FE06C081E0D2
:10471000C81AD108E10880E8F80AC882D982EA827A
:10472000FB82C701B6019F77DF91CF91FF90EF9099
:10473000DF90CF90BF90AF909F908F9008958F9211
:104740009F92AF92BF92CF92DF92EF92FF926091D1
:10475000590170915A0180915B0190915C01611542
:1047600071058105910521F464E279ED8BE597E00F
:104770002DE133EF41E050E00E94832549015A01C9
:104780009B01AC01A7EAB1E40E94A2256B017C0168
:10479000ACEEB4EFA50194010E94B025C60ED71E61
:1047A000E81EF91EF7FE06C081E0C81AD108E1082C
:1047B00080E8F80AC0925901D0925A01E0925B0158
:1047C000F0925C01C701B6019F77FF90EF90DF90F8
:1047D000CF90BF90AF909F908F90089560935901B4
:1047E00070935A0180935B0190935C010895B0E04F
:1047F000A0E0EDEFF3E20C94B6255C016B017A01C9
:104800006115710519F0FB0191838083E114F104B6
:1048100049F0C7010297839728F060E070E0CB0170
:104820009CC05E01E5012196F5011081812F90E089
:104830000E940025892BA9F71D3209F056C0219648
:10484000F501118101E0E114F10409F4AEC0F0E1D9
:10485000EF16F10409F08EC0103341F488818F7D8A
:10486000883509F083C0198122960260E0E1EE2EBE
:10487000F12C88248A94982CA82CFFE0BF2E20E0ED
:1048800060E070E0CB0127010F2C000C6608770870
:10489000FE0150ED352E310E39E0331538F43FEB83
:1048A000310F3A31A0F549EC342E310E3E141F047D
:1048B000BCF52F3FB9F086169706A806B90670F129
:1048C000A30192010E945125232D30E050E040E0E9
:1048D000620F731F841F951F621773078407950764
:1048E000E8F021E021961081D3CF1B3221F4E501BD
:1048F0002296F501118100E0A6CF78E0E72EF12C99
:1049000088248A94982CA82C6FE1B62EB8CF3FE962
:10491000310F3A3128F439EA332EC7CF2FEFE2CFE7
:10492000C114D10431F02223E9F02197F601D1839B
:10493000C08300FF07C090958095709561957F4F6B
:104940008F4F9F4F2F3F49F482E290E09093C6062D
:104950008093C5066FEF7FEFCB01CDB7DEB7E1E106
:104960000C94D22501FFE5CF2297E0CF10E3E114AC
:10497000F10419F23AE0E316F104E9F080E1E816F7
:10498000F10409F473CFE8E0EE16F10409F4B8CFAE
:104990006FEF7FEFCB0197010F2C000C440B550BF1
:1049A0000E94612549015A016ACF103309F456CF9C
:1049B0009AE0E92EF12C89E9882E982CA82C89E11F
:1049C000B82E5DCFFC0188279927E89421912032E9
:1049D000E9F3293010F02E30C8F32B3241F02D329C
:1049E00039F4689404C00E943025820F911D2191F2
:1049F00020532A30C0F31EF4909581959F4F08955F
:104A000091110C943825803219F089508550C8F7DF
:104A10000895FA01A191B081009719F41097E1F07F
:104A2000CD01DC01CD010D90002011F4C00113C0B7
:104A3000FB012191222319F02015D9F7F3CFFB01B7
:104A40002191201519F41E92119606C02223C1F758
:104A50000D900020A1F7D001FA01A193B083089531
:104A60007AE0979F902D879F802D910D11240895B6
:104A7000992788270895F999FECF92BD81BDF89AAC
:104A8000992780B50895262FF999FECF1FBA92BDB8
:104A900081BD20BD0FB6F894FA9AF99A0FBE01961F
:104AA0000895DB018F939F930E94A225BF91AF9140
:104AB000A29F800D911DA39F900DB29F900D112478
:104AC0000895A1E21A2EAA1BBB1BFD010DC0AA1F4F
:104AD000BB1FEE1FFF1FA217B307E407F50720F067
:104AE000A21BB30BE40BF50B661F771F881F991FE2
:104AF0001A9469F760957095809590959B01AC012B
:104B0000BD01CF010895052E97FB1EF400940E946D
:104B10009A2557FD07D00E94612507FC03D04EF46B
:104B20000C949A2550954095309521953F4F4F4FC5
:104B30005F4F089590958095709561957F4F8F4F49
:104B40009F4F08950E94EC25A59F900DB49F900D56
:104B5000A49F800D911D11240895B7FF0C94A225E8
:104B60000E94A225821B930B08952F923F924F9291
:104B70005F926F927F928F929F92AF92BF92CF92ED
:104B8000DF92EF92FF920F931F93CF93DF93CDB7F6
:104B9000DEB7CA1BDB0B0FB6F894DEBF0FBECDBF6E
:104BA00009942A88398848885F846E847D848C843F
:104BB0009B84AA84B984C884DF80EE80FD800C8148
:104BC0001B81AA81B981CE0FD11D0FB6F894DEBF2B
:104BD0000FBECDBFED010895A29FB001B39FC001EC
:104BE000A39F700D811D1124911DB29F700D811D19
:104BF0001124911D08955058BB27AA270E941326FF
:104C00000C948D270E947F2738F00E94862720F081
:104C100039F49F3F19F426F40C947C270EF4E095A8
:104C2000E7FB0C947627E92F0E949E2758F3BA17CA
:104C3000620773078407950720F079F4A6F50C94B2
:104C4000C0270EF4E0950B2EBA2FA02D0B01B90151
:104C500090010C01CA01A0011124FF27591B99F0F2
:104C6000593F50F4503E68F11A16F040A22F232FFE
:104C7000342F4427585FF3CF469537952795A7954E
:104C8000F0405395C9F77EF41F16BA0B620B730BF5
:104C9000840BBAF09150A1F0FF0FBB1F661F771F66
:104CA000881FC2F70EC0BA0F621F731F841F48F41B
:104CB000879577956795B795F7959E3F08F0B0CFA4
:104CC0009395880F08F09927EE0F9795879508958B
:104CD0000E94522708F481E008950E9481260C94D6
:104CE0008D270E94862758F00E947F2740F029F4E4
:104CF0005F3F29F00C94762751110C94C1270C9436
:104D00007C270E949E2768F39923B1F3552391F3E2
:104D1000951B550BBB27AA2762177307840738F02A
:104D20009F5F5F4F220F331F441FAA1FA9F335D087
:104D30000E2E3AF0E0E832D091505040E695001C3B
:104D4000CAF72BD0FE2F29D0660F771F881FBB1FF5
:104D5000261737074807AB07B0E809F0BB0B802DD3
:104D6000BF01FF2793585F4F3AF09E3F510578F0FF
:104D70000C9476270C94C1275F3FE4F3983ED4F35C
:104D8000869577956795B795F7959F5FC9F7880FD3
:104D9000911D9695879597F90895E1E0660F771F25
:104DA000881FBB1F621773078407BA0720F0621BB6
:104DB000730B840BBA0BEE1F88F7E09508950E94E1
:104DC000E6266894B1110C94C12708950E94A62785
:104DD00088F09F5798F0B92F9927B751B0F0E1F0BC
:104DE000660F771F881F991F1AF0BA95C9F714C06C
:104DF000B13091F00E94C027B1E008950C94C02713
:104E0000672F782F8827B85F39F0B93FCCF38695A4
:104E100077956795B395D9F73EF490958095709501
:104E200061957F4F8F4F9F4F0895E89409C097FB7E
:104E30003EF490958095709561957F4F8F4F9F4F71
:104E40009923A9F0F92F96E9BB279395F6958795B5
:104E500077956795B795F111F8CFFAF4BB0F11F478
:104E600060FF1BC06F5F7F4F8F4F9F4F16C088231F
:104E700011F096E911C0772321F09EE8872F762F55
:104E800005C0662371F096E8862F70E060E02AF096
:104E90009A95660F771F881FDAF7880F9695879582
:104EA00097F90895990F0008550FAA0BE0E8FEEF57
:104EB00016161706E807F907C0F012161306E407DE
:104EC000F50798F0621B730B840B950B39F40A26D7
:104ED00061F0232B242B252B21F408950A2609F4B5
:104EE000A140A6958FEF811D811D089597F99F67B9
:104EF00080E870E060E008959FEF80EC0895002462
:104F00000A941616170618060906089500240A942E
:104F100012161306140605060895092E0394000CB4
:104F200011F4882352F0BB0F40F4BF2B11F460FF43
:104F300004C06F5F7F4F8F4F9F4F089557FD90586C
:104F4000440F551F59F05F3F71F04795880F97FB4D
:104F5000991F61F09F3F79F0879508951216130607
:104F60001406551FF2CF4695F1DF08C01616170636
:104F70001806991FF1CF869571056105089408956B
:104F8000E894BB2766277727CB0197F908950E94FD
:104F9000522708F48FEF08950E94DF270C948D2785
:104FA0000E947F2738F00E94862720F0952311F079
:104FB0000C9476270C947C2711240C94C1270E9412
:104FC0009E2770F3959FC1F3950F50E0551F629F88
:104FD000F001729FBB27F00DB11D639FAA27F00D52
:104FE000B11DAA1F649F6627B00DA11D661F829F79
:104FF0002227B00DA11D621F739FB00DA11D621F5E
:10500000839FA00D611D221F749F3327A00D611D7A
:10501000231F849F600D211D822F762F6A2F11245C
:105020009F5750409AF0F1F088234AF0EE0FFF1F8F
:10503000BB1F661F771F881F91505040A9F79E3FE6
:10504000510580F00C9476270C94C1275F3FE4F360
:10505000983ED4F3869577956795B795F795E7953C
:105060009F5FC1F7FE2B880F911D9695879597F945
:1050700008950E945227880B990B0895991B79E097
:1050800004C0991F961708F0961B881F7A95C9F7D8
:1050900080950895EE0FFF1F0590F491E02D09947F
:1050A000803209F091110C94382580528F55D8F731
:1050B0000895FB01DC014150504030F08D9101908A
:1050C000801919F40020B9F7881B990B0895FB018A
:1050D000DC014150504048F001900D920020C9F78A
:1050E00001C01D9241505040E0F70895AEE0B0E09D
:1050F000ECE7F8E20C94C3250D891E8986E08C83C9
:105100001A8309838FEF9FE79E838D83AE01475EED
:105110005F4F6F89788DCE0101960E9499282F816B
:105120003885020F131FF80110822E96E4E00C94CC
:10513000DF25ABE0B0E0EFE9F8E20C94B5257C01A7
:105140003B018A01FC0117821682838181FFC8C15D
:10515000CE0101965C01F7019381F30193FD8591E6
:1051600093FF81913F01882309F453C1853239F4BB
:1051700093FD859193FF81913F01853229F4B70119
:1051800090E00E94892AE7CF912C212C312CFFE15D
:10519000F31538F08B3211F190F4803209F183323B
:1051A00029F137FC3CC020ED280F2A3050F536FE9F
:1051B00020C08AE0989E200D1124922E06C08D32C8
:1051C00091F0803371F7689430F8F30193FD859185
:1051D00093FF81913F018111DACF21C0689431F8AA
:1051E000689432F8F2CF689433F8EFCF689434F8CB
:1051F000ECCFEAE02E9E200D1124222E689435F883
:10520000E4CF8E3229F436FC04C1689436F8DDCF41
:105210008C3619F4689437F8D8CF8836B1F2982FC5
:105220009F7D95549330E0F08336A1F18337C1F12F
:10523000833509F063C02801F2E04F0E511CF801DC
:10524000C080D180692D70E036FC02C06FEF7FEF27
:10525000C6010E94732A4C01689437F882010AC083
:105260000C5F1F4FFFE3F98388248394912C650121
:10527000E89437F833FE2DC0522C8114910471F557
:10528000552009F468CFB70180E290E00E94892A96
:105290005A94F6CFF801808189830E5F1F4FE4CFC7
:1052A0002801F2E04F0E511CF801C080D180692D19
:1052B00070E036FC02C06FEF7FEFC6010E947E2ACD
:1052C0004C018201D5CFB70180E290E00E94892A8B
:1052D0002A942814190409F0B0F7CECFF60137FC50
:1052E000859137FE81916F01B70190E00E94892A74
:1052F00051105A94F1E08F1A9108BFCF843619F0FB
:10530000893609F077C0F80137FE6BC06081718182
:10531000828193810C5F1F4FF32DFF763F2E97FF05
:1053200009C090958095709561957F4F8F4F9F4FE5
:10533000689437F82AE030E0A5010E94B92AC82E07
:10534000CA188C2C432C36FE0CC0E89440F8C914C3
:1053500040F434FE05C032FC03C0F32DFE7E4F2E18
:10536000892C44FE95C0FE01EC0DF11D8081803337
:1053700009F087C0242D297E422E842D8870582E56
:1053800043FC95C040FE8FC09C2C821418F42C0C5A
:10539000922C981844FE91C0B70180E390E00E94DF
:1053A000892A42FE09C088E790E041FE02C088E5F4
:1053B00090E0B7010E94892AC91408F48AC0CA94EF
:1053C000D12C9FEFC91AD90ACA0CDB1CF6018291B5
:1053D0006F01B70190E00E94892AAC14BD04B1F7B7
:1053E0004FCF60817181072E000C880B990B0E5FE7
:1053F0001F4F92CFD32CE894D4F82AE030E08537C1
:1054000039F1232D297FD22E8F3601F148F48835CA
:10541000A9F0F701868197812B96E2E10C94D125C2
:10542000803749F08837A9F7D4FE02C06894D2F8D3
:1054300020E130E00DC06894D4F8F6CF34FE03C00C
:10544000822F8660D82E20E132E002C028E030E0D2
:10545000F801D7FE0FC060817181828193810C5F5A
:105460001F4FA5010E94B92AC82ECA183D2CE894E6
:1054700037F867CF6081718190E080E00E5F1F4F49
:10548000F0CF42FC02C0839478CF8394839475CF8D
:10549000842D867809F471CFF6CFB70180E290E0D1
:1054A0000E94892A83948214C0F3512C73CF522C0A
:1054B0005818821408F46ECFF8CF842D867809F43A
:1054C0007BCF8BE241FE80E247FC8DE2B70190E0AA
:1054D00071CFB70180E390E00E94892A9A946CCF43
:1054E0008FEF9FEF99CFFC01059061507040011044
:1054F000D8F7809590958E0F9F1F0895FC016150FD
:10550000704001900110D8F7809590958E0F9F1FE5
:1055100008950F931F93CF93DF93182F092FEB015B
:105520008B8181FD09C01FEF0FEF812F902FDF913D
:10553000CF911F910F91089582FF14C02E813F815A
:105540008C819D81281739073CF4E881F981CF01CE
:1055500001969983888310838E819F8101969F8312
:105560008E83E3CFE885F985812F0995892BA1F3F7
:10557000DACFFA01AA27283051F1203181F1E894DD
:105580006F936E7F6E5F7F4F8F4F9F4FAF4FB1E036
:105590003ED0B4E03CD0670F781F891F9A1FA11D31
:1055A000680F791F8A1F911DA11D6A0F711D811D32
:1055B000911DA11D20D009F468943F912AE0269FF7
:1055C00011243019305D3193DEF6CF010895462F56
:1055D0004770405D4193B3E00FD0C9F7F6CF462F37
:1055E0004F70405D4A3318F0495D31FD40524193A0
:1055F00002D0A9F7EACFB4E0A6959795879577955D
:105600006795BA95C9F700976105710508959B01E3
:10561000AC010A2E06945795479537952795BA956C
:10562000C9F7620F731F841F951FA01D0895F8947A
:02563000FFCFAA
:105632000400000005000200020004000000030054
:10564200010001000500ED00B400B10004002B00D0
:105652002200230004000F000F000F000100AD0024
:105662004900490002004E0070006E00000049002F
:105672005F005E00E8030100B500B500000080BFD6
:10568200000080BF000080BFFF010000008C2449A1
:105692000C0E4130041E42480C8C44480C82E049F6
:1056A200129CC0411E8CC421041042081E8CC448A6
:1056B2000C8EE0480C002385000023FD0000E0FD75
:1056C200008C14B6128C144A0C00C3000080912482
:1056D2003F80D4B63F0020B53F00F0030080582140
:1056E200000281402040283100C02F3100C0EC313F
:1056F2000000420901A1C448210441480C10C22102
:105702000480D4860040187A0000C3000080610043
:1057120000C03000008061000000C300000086016C
:1057220000000C030000860100300C0000100A018A
:105732000018496200100A01002100002152088469
:10574200128C144A0C0023310000C000000000003B
:105752000000104A0C00082506208410033042087D
:1057620001182904008C14020046028100038140C2
:105772002081402030402090185A005A0053006483
:105782000066005300660055006400530055005542
:1057920000640064005A4F57495F424153455F76A7
:1057A20032002310010C010801040100013C013404
:1057B200012C0124011C011401000000005601B655
:1057C20000E300BE011401F20006010D0A006E6141
:1057D2006E00696E66006F76660053004C005400DE
:1057E2004D0048004B004300470052004500440072
:1057F2004E00420049005247425B25645D203D2035
:045802002564000019
:00000001FF
