:100000000C9481000C948E190C9467190C94A9001F
:100010000C94A9000C94A9000C94A9000C9443180A
:100020000C94A9000C94A9000C94A9000C94B51987
:100030000C94A9000C94A9000C94A9000C94A9009C
:100040000C941D190C94A9000C94EB180C94C51871
:100050000C94A9000C94A9000C94A9000C94A9007C
:100060000C94A9000C94A900252500452000262603
:10007000002525004420002626002525004E2000CE
:100080002626002525004220002626002525004999
:1000900020002626002525004100262600252500D3
:1000A000460026260000000000240027002A000049
:1000B00000000023002600290000000008000201C3
:1000C000000003040700000000000000000102041B
:1000D00008102040800102040810200102040810CA
:1000E0002000000000250028002B00040404040464
:1000F00004040402020202020203030303030302D4
:10010000B61A11241FBECFEFD8E0DEBFCDBF12E07C
:10011000A0E0B1E0E4EDFFE402C005900D92A83943
:10012000B107D9F726E0A8E9B2E001C01D92A939CC
:10013000B207E1F710E0C1E8D0E004C02197FE016A
:100140000E94BC27C038D107C9F70E947F1B0C94BE
:10015000E8270C9400008091ED029091EE02019648
:100160009093EE028093ED0208950895AF92BF92AE
:10017000CF92DF92EF92FF920F931F93CF93DF9373
:100180006C017B018B01040F151FEB015E01AE18A2
:10019000BF08C017D10759F06991D601ED91FC91C4
:1001A0000190F081E02DC6010995892B79F7C501F1
:1001B000DF91CF911F910F91FF90EF90DF90CF9043
:1001C000BF90AF900895FC01538D448D252F30E0F2
:1001D000842F90E0821B930B541710F0CF96089554
:1001E00001970895FC01918D828D981761F0A28D81
:1001F000AE0FBF2FB11D5D968C91928D9F5F9F7347
:10020000928F90E008958FEF9FEF0895FC01918DFC
:10021000828D981731F0828DE80FF11D858D90E069
:1002200008958FEF9FEF0895FC01918D228D892F06
:1002300090E0805C9F4F821B91098F7399270895EE
:1002400080E093E00E94140121E0892B09F420E072
:10025000822F089580E090E0892B29F00E942001F0
:1002600081110C9400000895FC01A48DA80FB92FF2
:10027000B11DA35ABF4F2C91848D90E001968F73CE
:100280009927848FA689B7892C93A089B1898C91ED
:10029000837080648C93938D848D981306C002883C
:1002A000F389E02D80818F7D80830895EF92FF9206
:1002B0000F931F93CF93DF93EC0181E0888F9B8D89
:1002C0008C8D98131AC0E889F989808185FF15C043
:1002D0009FB7F894EE89FF896083E889F989808166
:1002E0008370806480839FBF81E090E0DF91CF9135
:1002F0001F910F91FF90EF900895F62E0B8D10E057
:100300000F5F1F4F0F731127E02E8C8D8E110CC0C5
:100310000FB607FCFACFE889F989808185FFF5CF10
:10032000CE010E943401F1CFEB8DEC0FFD2FF11DBA
:10033000E35AFF4FF0829FB7F8940B8FEA89FB894D
:1003400080818062CFCF0F931F93CF93DF938C0177
:10035000D0E0C0E0F801EC0FFD1F6491662341F08E
:1003600080E093E00E945601892B11F02196F2CF94
:10037000CE01DF91CF911F910F910895CF93DF931D
:10038000EC01888D8823B9F0AA89BB89E889F989AD
:100390008C9185FD03C0808186FD0DC00FB607FCE2
:1003A000F7CF8C9185FFF2CF808185FFEDCFCE0115
:1003B0000E943401E9CFDF91CF910895833081F01D
:1003C00028F4813099F08230A9F008958730A9F09F
:1003D0008830C9F08430B1F4809180008F7D03C0F3
:1003E000809180008F7780938000089584B58F7707
:1003F00084BD089584B58F7DFBCF8091B0008F7749
:100400008093B00008958091B0008F7DF9CFCF9395
:10041000DF93282F30E0F901E754FF4F8491F90171
:10042000E353FF4FD491F901E551FF4FC491CC2321
:10043000A1F081110E94DE01EC2FF0E0EE0FFF1F12
:10044000E155FF4FA591B491EC91ED2381E090E04F
:1004500009F480E0DF91CF91089580E090E0FACF39
:100460001F93CF93DF93282F30E0F901E754FF4F1C
:100470008491F901E353FF4FD491F901E551FF4F06
:10048000C491CC23A9F0162F81110E94DE01EC2F1C
:10049000F0E0EE0FFF1FEF51FF4FA591B4918FB722
:1004A000F894EC91111108C0D095DE23DC938FBF36
:1004B000DF91CF911F910895DE2BF8CFCF93DF937B
:1004C000D0E0C0E08091C2039091C303A091C40327
:1004D000B091C5030C2E04C0B695A7959795879546
:1004E0000A94D2F7682F61708091C6030E9430028F
:1004F00000000000000061E08091C7030E9430020C
:1005000000000000000060E08091C7030E943002FC
:100510002196CE31D105B1F661E08091C8030E94E9
:10052000300200000000000060E08091C803DF910D
:10053000CF910C943002CF93DF93CDB7DEB7CC5779
:10054000D1090FB6F894DEBF0FBECDBF2CE7E5E3AF
:10055000F1E0DE01119601900D922A95E1F7660F08
:10056000771F660F771F81E090E08C0F9D1F680F4B
:10057000791FFB0180819181A281B3818093C203A5
:100580009093C303A093C403B093C503C458DF4F33
:100590000FB6F894DEBF0FBECDBFDF91CF910C94A4
:1005A0005E021092C2031092C3031092C403109211
:1005B000C5030C945E02CF93DF93CDB7DEB7C0576F
:1005C000D1090FB6F894DEBF0FBECDBF20E2E1EB3C
:1005D000F1E0DE01999601900D922A95E1F720E174
:1005E000E1EDF1E0DE01AF59BF4F01900D922A9588
:1005F000E1F728E1E1EEF1E0DE01A75BBF4F0190FA
:100600000D922A95E1F728E2E9EFF1E0DE0111967B
:1006100001900D922A95E1F7440F551F440F551F85
:100620006230710581F16330710581F161307105CE
:10063000F1F081E090E08C0F9D1F480F591FFA01E7
:1006400080A591A5A2A5B3A58093C2039093C303EF
:10065000A093C403B093C503C059DF4F0FB6F894FD
:10066000DEBF0FBECDBFDF91CF910C945E0281E65D
:1006700090E08C0F9D1F480F591FFA0180819181D6
:10068000A281B381E1CF89E490E0F3CF81E090E0F3
:10069000F0CFCF93DF9390E0FC01E353FF4F249121
:1006A00085519F4FFC0184918823D1F090E0880F01
:1006B000991FFC01EB55FF4FA591B491FC01EF513F
:1006C000FF4FC591D49161110EC09FB7F8948C91E2
:1006D000E22FE0958E238C932881E223E8839FBF4D
:1006E000DF91CF9108958FB7F894EC91E22BEC93C2
:1006F0008FBFF6CF1092EE021092ED021092EC0234
:100700001092EB0261E080E10E94490361E08FE01A
:100710000E94490361E08EE00E94490360E082E0AC
:100720000E9449031092EA021092E90261E080E11E
:100730000C9430028E3008F08E5087708064809365
:100740007C0080917A00806480937A0080917A00A6
:1007500086FDFCCF809178009091790008953FB795
:10076000F89480919E0290919F02A091A002B09176
:10077000A10226B5A89B05C02F3F19F00196A11D27
:10078000B11D3FBFBA2FA92F982F8827BC01CD01DB
:10079000620F711D811D911D42E0660F771F881F3A
:1007A000991F4A95D1F708958F929F92AF92BF9269
:1007B000CF92DF92EF92FF926B017C010E94AF0318
:1007C0004B015C01C114D104E104F104B9F00E94B1
:1007D000AF03681979098A099B09683E734081054E
:1007E000910580F321E0C21AD108E108F10888EEF2
:1007F000880E83E0981EA11CB11CE4CFFF90EF90FF
:10080000DF90CF90BF90AF909F908F9008954F92C0
:100810005F926F927F928F929F92AF92BF92CF9290
:10082000DF92EF92FF920F931F93CF93DF93CDB799
:10083000DEB729970FB6F894DEBF0FBECDBF2901F2
:100840003A010115110511F401E010E00E9458264B
:1008500069837A838B839C838091410490914204C5
:1008600020913001281719F12F3F09F49DC0C301D1
:10087000B2010E94D403B801110F880B990B29967D
:100880000FB6F894DEBF0FBECDBFDF91CF911F91A1
:100890000F91FF90EF90DF90CF90BF90AF909F901F
:1008A0008F907F906F905F904F900C94D403EFEFF8
:1008B000F0E02491298727FDDACF61E00E94490307
:1008C0008985882321F09985923009F05FC189815B
:1008D0009A814C01B12CA12C60E072E18AE790E092
:1008E000A50194010E94F5242D833E834F835887F0
:1008F00069017A0191E0C91AD108E108F1082FEFE6
:10090000C216D104E104F10409F00CF414C160E44E
:1009100072E48FE090E0A50194010E94F524690142
:100920007A0181E0C81AD108E108F108998592306E
:1009300009F0B5C082E02FEFC216D104E104F10442
:1009400009F00CF4E0C160E970ED83E090E0A501EE
:1009500094010E94F52469017A0181E0C81AD10846
:10096000E108F10883E09FEFC916D104E104F10426
:1009700009F00CF4C8C168E478EE81E090E0A501CC
:1009800094010E94F52469017A0191E0C91AD10805
:10099000E108F1082FEFC216D104E104F10411F0CF
:1009A0000CF0A1C084E0AFC180933001EFEFF0E024
:1009B000249129872F3F09F45ACF213041F150F07B
:1009C000223009F446C0298527FD51CF61E00E94FD
:1009D000490379CF14BC15BC24B5226024BD25B5CC
:1009E000216025BD9C013327F901E551FF4FE491BA
:1009F000F0E0EE0FFF1FEF51FF4F45915491F901C9
:100A0000E353FF4FE491E093F302198656CF10921F
:100A10008000109281002091810028602093810045
:100A2000209181002160209381009C013327F901EE
:100A3000E551FF4FE491F0E0EE0FFF1FEF51FF4F44
:100A400045915491F901E353FF4FE491E093F20291
:100A500034CF1092B0001092B1002091B00022600B
:100A60002093B0002091B10021602093B1009C013F
:100A70003327F901E551FF4FE491F0E0EE0FFF1F3E
:100A8000EF51FF4F459154915093F1024093F00282
:100A9000F901E353FF4FE491E093EF020ECF2FEF04
:100AA000C216D104E104F10409F00CF46DC068E44D
:100AB00078EE81E090E0A50194010E94F52469019F
:100AC0007A0181E0C81AD108E108F10899859923D3
:100AD00009F4E5C02FEFC216D104E104F10411F0CE
:100AE0000CF0E6C05FCF64E274EF80E090E0A50117
:100AF00094010E94F52469017A0181E0C81AD108A5
:100B0000E108F10885E09FEFC916D104E104F10482
:100B100009F008F4F8C062E17AE780E090E0A5010E
:100B200094010E94F52469017A0181E0C81AD10874
:100B3000E108F108CFC081E029852111E4C095B515
:100B4000987F892B85BD2FEF3FEFA90141145104F8
:100B50006104710409F057C08985813009F462C0CD
:100B6000823009F471C0811182CEC7BC2093FC028F
:100B70003093FD024093FE025093FF0280916E007D
:100B8000826080936E0073CE82E0D6CF89819A8195
:100B90004C01B12CA12C60E072E18AE790E0A50144
:100BA00094010E94F52469017A0191E0C91AD108E3
:100BB000E108F10891E0C114D10421E0E206F1045A
:100BC00084F068E478EE81E090E0A50194010E9451
:100BD000F52469017A0181E0C81AD108E108F10819
:100BE00093E02985213009F0AECF80918100887F84
:100BF000892B809381002FEF3FEFA901411451040D
:100C00006104710479F0A981BA81AA0FBB1FA30105
:100C100092010E94142528EE33E040E050E00E944B
:100C2000D3249ACFD0928900C09288002093F802F2
:100C30003093F9024093FA025093FB0280916F00C7
:100C4000826080936F0013CEC092B3002093F402B1
:100C50003093F5024093F6025093F70280917000B2
:100C600082608093700003CECD80DE80EF80F884B8
:100C70008AE0F594E794D794C7948A95D1F721E058
:100C8000C21AD108E108F10885E059CF8FEFC816E4
:100C9000D104E104F10409F038F784E050CF83E097
:100CA0009FEFC916D104E104F10409F00CF447CF19
:100CB00062E17AE780E090E0A50194010E94F524CA
:100CC00069017A0181E0C81AD108E108F108998523
:100CD0009923E1F286E09FEFC916D104E104F10403
:100CE00091F088F0CD80DE80EF80F8849AE0F59472
:100CF000E794D794C7949A95D1F781E0C81AD108A0
:100D0000E108F10887E09091B100987F892B8093EA
:100D1000B10019CF4F925F926F927F928F929F9204
:100D2000AF92BF92CF92DF92EF92FF920F931F93F9
:100D3000CF93DF93CDB7DEB728970FB6F894DEBF19
:100D40000FBECDBF2B013C0129833A834B835C83CB
:100D5000ED82FE820F8318870E9451268B01298124
:100D60003A814B815C81C301B2010E94DA2587FF81
:100D700025C0B801110F880B990B0E9489262B0101
:100D80003C01AC019B0169817A818B819C810E942D
:100D900039271816C4F58401A6019501C301B201D3
:100DA0000E9407042D813E814F815885C301B20105
:100DB0000E943E270E9451268B01DBCFB801110F04
:100DC000880B990B0E9489262B013C01AC019B01E9
:100DD00069817A818B819C810E94DA2587FF13C00B
:100DE0008401A6019501C301B2010E9407042D816F
:100DF0003E814F815885C301B2010E94DF250E94C8
:100E000051268B01DBCF28960FB6F894DEBF0FBEBC
:100E1000CDBFDF91CF911F910F91FF90EF90DF90A9
:100E2000CF90BF90AF909F908F907F906F905F908A
:100E30004F9008958F929F92AF92BF92CF92DF9280
:100E4000EF92FF921F93CF93DF9385E10E949A0365
:100E5000CAE0D0E0C12CD12C760115E085E10E94DA
:100E60009A03189FB001199F700D1124072E000CD2
:100E7000880B990B0E94892620E030E040E85AE375
:100E80000E943E274B015C0126E636E646E850E428
:100E90000E94392718163CF486E6882E982C86E89E
:100EA000A82E80E4B82E2FEB36E842ED52E4C501BF
:100EB000B4010E943E272CE73DE04BEA53E40E9438
:100EC0006D254B015C0120E030E0A9010E94DA258C
:100ED00087FF03C0812C912C5401A5019401C70107
:100EE000B6010E946E256B017C0161E070E080E03C
:100EF00090E00E94D403219709F0B0CF20E030E0C9
:100F000040E251E4C701B6010E94DF25DF91CF9195
:100F10001F91FF90EF90DF90CF90BF90AF909F9088
:100F20008F9008958F929F92AF92BF92CF92DF924F
:100F3000EF92FF920F931F93CF93DF93019782312C
:100F40009105B8F4FC01E955F84F0C94BC27EA0769
:100F50000D08410854086B088E08BA08E9081809FA
:100F6000470971099609C409EF09060A470A5E0A8A
:100F7000750A0EE110E022E330E040E050E064EA60
:100F800070ED84E294E40E94070409E110E027E395
:100F900030E040E050E062E570ED84EA94E40E94C5
:100FA00007040AE010E02CE330E040E050E060E0AD
:100FB00070E08CED94E40E940704DF91CF911F91C3
:100FC0000F91FF90EF90DF90CF90BF90AF909F90E8
:100FD0008F9008950EE110E022E330E040E050E011
:100FE00064EA70ED84E294E40E94070409E110E0F1
:100FF00027E330E040E050E060E070E08CED94E406
:101000000E9407040AE010E022E330E040E050E0F4
:1010100062E570ED84EA94E4CECF92E0892E912CC3
:1010200024E1A22EB12CC12CD12C1AE0E12E17ED17
:10103000F12E03E81FE32CE53FEF43EC54E462E5B7
:1010400070ED84EA94E40E948A066EE170E080E02C
:1010500090E00E94D4034AE0A42EB12CC12CD12CE4
:1010600018EBE12E1EE1F12E05E81FE32FE135ED2F
:1010700042E155E462E570ED84EA94E40E948A0658
:101080009CCFCAE08C2E912CDEE1AD2EB12CC12C70
:10109000D12C1CE5E12E1FE8F12E02E81FE320E031
:1010A00030E04CED54E4E6CFFAE08F2E912CAEE127
:1010B000AA2EB12CC12CD12C1AE0E12E17EDF12E65
:1010C00003E81FE32FE135ED42E155E46CE57FEFE6
:1010D00083EC94E4D3CF04E610E022E330E040E078
:1010E00050E062E570ED84EA94E40E94070400E5B4
:1010F00010E022E330E040E050E06CE57FEF83EC6D
:1011000094E40E94070410E000E02CE231E040E0AB
:1011100050E06FE175ED82E195E44DCF8824839432
:10112000912C5AE0A52EB12CC12CD12C1CE5E12E1E
:101130001FE8F12E02E81FE320E030E646E055E428
:1011400060E070E088E494E40E948A0677E0A72ECD
:10115000B12CC12CD12C1AE0E12E17EDF12E03E8B1
:101160001FE320E030E048E454E460E070E586E00E
:1011700095E484CF93E0892E912C28E0A22EB12C07
:10118000C12CD12C18EBE12E1EE1F12E05E81FE356
:1011900020E030E04AEF54E460E070E08CE594E455
:1011A0000E948A0668EC70E080E090E00E94D40320
:1011B000C6E1D0E00AE010E025E030E040E050E099
:1011C00068E471EF86E794E40E940704219791F7A1
:1011D000F4CEC3E08C2E912CD8E0AD2EB12CC12CD6
:1011E000D12C1AE0E12E17EDF12E03E81FE320E0E9
:1011F00030E84BE355E460E070E08BEE94E40E944D
:101200008A0668EC70E080E090E00E94D403C0E1C0
:10121000D0E00AE010E02AE030E040E050E060E09A
:1012200070ED82E894E40E940704219791F7C5CEFF
:1012300064E0862E912C70E1A72EB12CC12CD12C0C
:101240001AE0E12E17EDF12E03E81FE320E030E075
:1012500041E654E460E070E08FE294E40E948A0684
:10126000F7E08F2E912CA2E1AA2EB12CC12CD12C0B
:101270001EEAE12E17E4F12E01E81FE320E030E83A
:1012800042E254E460E070EC80E694E4F7CE2AE0B9
:10129000822E912C3AE0A32EB12CC12CD12C18EB2C
:1012A000E12E1EE1F12E05E81FE320E030E04AEFD9
:1012B00053E460E070E088EC92E40E948A0664EFF8
:1012C00071E080E090E00E94D40388248394912C04
:1012D00020E030E048EC52E460E070E088EC93E419
:1012E000CDCED8E08D2E912C14E1A12EB12CC12CA5
:1012F000D12C16E6E12EFE2C06E81FE320E030E4B8
:101300004CE155E460E070E88BEB94E40E948A06BF
:1013100099E1A92EB12CC12CD12C20E030E84BEB67
:1013200054E460E070E38CE195E4A8CEE3E08E2E17
:10133000912CF8E0AF2EB12CC12CD12C16E6E12E69
:10134000FE2C06E81FE320E030E84BEB55E460E0BC
:1013500070E08AEF94E40E948A0662E370E080E025
:1013600090E00E94D403B2E08B2E912CCDE0AC2E05
:10137000B12CC12CD12C20E030E04AEF54E460E0E5
:1013800078E78BEB95E47ACE48E0842E912C5FE0F1
:10139000A52EB12CC12CD12C16E6E12EFE2C06E890
:1013A0001FE320E030E04AEF54E460E070E88BEBAC
:1013B00094E40E948A0664E670E080E090E00E9477
:1013C000D4037AE0A72EB12CC12CD12C20E030E43C
:1013D0004CE155E460E070E88DEE94E44FCE98EC7B
:1013E000892E912C24E1A22EB12CC12CD12C1CE5EC
:1013F000E12E1FE8F12E02E81FE320E030E447E28F
:1014000054E460E070E08CE594E438CEF2E08F2E96
:10141000912CA8E0AA2EB12CC12CD12C1AE0E12EDF
:1014200017EDF12E03E81FE320E030E844ED54E42B
:1014300060E070E08AE794E40E948A06C3E08C2EA4
:10144000912C18EBE12E1EE1F12E05E81FE320E0C0
:1014500030E04AEF53E460E070E684ED94E40E94EB
:101460008A061AE0812E912C09E0A02EB12CC12C05
:10147000D12C16E6E12EFE2C06E81FE320E030E832
:1014800044ED54E460E070E08AE794E4F7CD6FE067
:10149000862E912C72E0A72EB12CC12CD12C1CE5EC
:1014A000E12E1FE8F12E02E81FE320E030E84BE3D5
:1014B00055E460E070E088EC94E4E0CD34E1832E04
:1014C000912C42E0A42EB12CC12CD12C1CE5E12E94
:1014D0001FE8F12E02E81FE320E030E84BEB55E473
:1014E00060E070E08AEF94E4C9CD84E1882E912C0D
:1014F00092E0A92EB12CC12CD12C1CE5E12E1FE8C5
:10150000F12E02E81FE320E030E04AE755E460E016
:1015100070E088EC94E40E948A0620E030E84BE317
:1015200055E460E070E08AE795E4A8CD2FB7F89421
:1015300060919A0270919B0280919C0290919D0211
:101540002FBF0895CF93C62F1092EE021092ED0296
:101550002091A6023091A7022F5F3F4F3093A70240
:101560002093A6026111862F682F61708FE00E9480
:1015700030026C2F8EE00E9430020E94960A609327
:10158000A2027093A3028093A4029093A502CF912C
:101590000895DC01EC918E2F90E0FC01EE0FFF1F0F
:1015A000E80FF91FE356FC4F808186FF02C08F7B56
:1015B00080830895CF92DF92EF92FF92CF93DF93D3
:1015C000EC01603282E07807CCF5653B710514F0E0
:1015D00064EB70E0898128E830E0281B310987FD41
:1015E0003395220F331F220F331F6901330FEE088B
:1015F000FF088A8128E532E0281B310987FD3395F1
:10160000220F331F220F331F032E000C440B550BE8
:101610002C193D094E095F09DB0177FF02C0B0E0DC
:10162000A0E00E941F2524EB30E040E050E00E9443
:10163000F524C20ED31EE41EF51EB601E881EC307F
:1016400070F5298188E890E0821B910927FD939528
:10165000880F991F880F991F681779077CF02A81D6
:1016600088E592E0821B910927FD9395880F991FC9
:10167000880F991F681779070CF4CB010297880F20
:10168000991F4FB7F8942E2F30E0F901EE0FFF1F8E
:10169000E20FF31FE356FC4F928381834FBFDF912C
:1016A000CF91FF90EF90DF90CF9008951F93CF934D
:1016B000DF93EC01162F88818C3008F04EC061E07A
:1016C000812F0E9449038881282F30E0F901EE0F15
:1016D000FF1FE20FF31FE356FC4F1F736081607C16
:1016E000612B608319821A822CE0622F0E94B0273E
:1016F000829FB001112430E020E0AB01420F531F64
:10170000FA01EE0FFF1FE40FF51FE356FC4F908127
:1017100096FD16C02F5F3F4F2C30310571F78111B8
:101720000FC01092800082E08093810010928500AB
:1017300010928400B19A80916F00826080936F0054
:10174000E8818E2F90E0FC01EE0FFF1FE80FF91FDC
:10175000E356FC4F8081806480838881DF91CF9144
:101760001F910895E091CA038E2F90E0FC01EE0FC7
:10177000FF1FE80FF91FE356FC4F808186FD58C01C
:1017800060913504709136048AEC93E00E94560B08
:101790006AE570E08AEC93E00E94DA0A8EE190E05C
:1017A0009093E8038093E70380ED97E09093D20352
:1017B0008093D10380E090E0A4E8B2E48093E30357
:1017C0009093E403A093E503B093E6038AE198EFD6
:1017D000A2ECBDE38093DF039093E003A093E103C9
:1017E000B093E2031092E9031092EA031092EB0324
:1017F0001092EC038DE290E09093CE038093CD03A2
:101800001092DB031092DC031092DD031092DE03D2
:101810001092D3031092D4031092D5031092D603E2
:101820001092D0031092CF031092F1031092F203A2
:10183000E091F3038E2F90E0FC01EE0FFF1FE80F05
:10184000F91FE356FC4F808186FD58C06091370434
:101850007091380483EF93E00E94560B6AE570E0C4
:1018600083EF93E00E94DA0A8EE190E090931104F6
:101870008093100480ED97E09093FB038093FA032C
:1018800080E090E0A4E8B2E480930C0490930D040F
:10189000A0930E04B0930F048AE198EFA2ECBDE38D
:1018A0008093080490930904A0930A04B0930B0456
:1018B0001092120410921304109214041092150442
:1018C0008DE290E09093F7038093F6031092040466
:1018D0001092050410920604109207041092FC0363
:1018E0001092FD031092FE031092FF031092F90371
:1018F0001092F80310921A0410921B040895CF92CC
:10190000DF92EF92FF92CF93DF936C01EB010E9485
:10191000B20B80915D04811110925D048BE0C816BA
:10192000D1045CF5688179818091D9039091DA03C3
:10193000680F791F8AEC93E00E94DA0A6A817B8142
:101940008091020490910304680F791F83EF93E064
:101950000E94DA0A8881998190933E0480933D0425
:101960008A819B819093400480933F04DF91CF91C3
:10197000FF90EF90DF90CF9008950E94960A0D2C73
:10198000000CEE08FF086C0D7D1D8E1D9F1D6093E1
:1019900045047093460480934704909348046881FB
:1019A00079818091D9039091DA03680F791F8AECCD
:1019B00093E00E94DA0A6A817B818091020490910F
:1019C0000304680F791F83EF93E00E94DA0A0E94F4
:1019D000960AC60ED71EE81EF91EC0924504D09284
:1019E0004604E0924704F09248040E94960AC09090
:1019F0004504D0904604E0904704F0904804C61691
:101A0000D706E806F90608F4A5CFEFCFCF93DF930A
:101A100000D000D0CDB7DEB7409121025091220214
:101A2000609123027091240249835A836B837C83E3
:101A3000BE016F5F7F4F0E947F0C0F900F900F9041
:101A40000F90DF91CF910895CF93DF9300D000D016
:101A5000CDB7DEB740912502509126026091270252
:101A60007091280249835A836B837C83BE016F5F28
:101A70007F4F0E947F0C0F900F900F900F90DF917F
:101A8000CF910895CF93DF9300D000D0CDB7DEB7CC
:101A90004091290250912A0260912B0270912C02F0
:101AA00049835A836B837C83BE016F5F7F4F0E94A3
:101AB0007F0C0F900F900F900F90DF91CF910895B2
:101AC000CF93DF9300D000D0CDB7DEB780915D0417
:101AD00081111EC08091210290912202A0912302C7
:101AE000B091240289839A83AB83BC83BE016F5F6C
:101AF0007F4F84EF91E00E947F0C8AEC93E00E947C
:101B0000C90A83EF93E00E94C90A81E080935D04D3
:101B10000F900F900F900F90DF91CF910895CF937A
:101B2000DF9300D000D0CDB7DEB740912D025091A9
:101B30002E0260912F027091300249835A836B8389
:101B40007C83BE016F5F7F4F0E947F0C0F900F90D0
:101B50000F900F90DF91CF910895CF93DF9300D036
:101B600000D0CDB7DEB74091310250913202609182
:101B700033027091340249835A836B837C83BE01A4
:101B80006F5F7F4F0E947F0C0F900F900F900F9010
:101B9000DF91CF91089581E08093E6029091E80271
:101BA000911108C08093E8026FE070E080E090E05F
:101BB0000C949B02089581E08093E7029091E802E3
:101BC000911108C08093E8026FE070E080E090E03F
:101BD0000C949B020895FC0101900020E9F73197D5
:101BE000AF01481B590BBC0180E093E00C94B60098
:101BF000CF93DF930E94A301EC018DE692E00E9457
:101C0000EB0D8C0F9D1FDF91CF9108956EE170E079
:101C100080E090E00E94D40382EA90E00E94A30159
:101C200080EA90E00E94A3018DE990E00E94F80D07
:101C300080E093E00C94BE016EE170E080E090E003
:101C40000E94D4038AE990E00E94A30188E990E011
:101C50000E94A30185E990E00E94F80D80E093E0E6
:101C60000C94BE010E941C0E0E94600D0C94060E86
:101C70008F929F92AF92BF920F931F93CF93DF9358
:101C8000CDB7DEB7A1970FB6F894DEBF0FBECDBFBC
:101C900019A2423008F44AE08E010F5D1F4F842ED6
:101CA000912CB12CA12CA50194010E94D324E62FE4
:101CB000B901CA01EA30F4F4E05DD801EE938D0178
:101CC000232B242B252B79F790E080E0109719F037
:101CD000CD010E94EB0DA1960FB6F894DEBF0FBEAA
:101CE000CDBFDF91CF911F910F91BF90AF909F908B
:101CF0008F900895E95CE1CFCF92DF92EF92FF924F
:101D0000CF93DF936B017C016DE280E093E00E9452
:101D10005601EC0166277727CB016C197D098E09E6
:101D20009F094AE00E94380E8C0F9D1FDF91CF91D2
:101D3000FF90EF90DF90CF900895BC01990F880B32
:101D4000990B97FD0C947C0E4AE00C94380ECF93BF
:101D5000DF930E94600D809143040E949A0380915A
:101D600043040E949A03EC0164E070E080E090E09C
:101D70000E94D403809143040E949A03C80FD91F84
:101D800064E070E080E090E00E94D40380E890E09E
:101D90000E94A3018DE790E00E94A301CE01D7FD30
:101DA0000196959587950E949D0E8AE790E00E9486
:101DB000F80D80E093E0DF91CF910C94BE010E947A
:101DC000600D82E990E00E94A3018FE890E00E94FC
:101DD000A3018DE392E00E94EB0D8CE890E00E945D
:101DE000F80D80E093E00C94BE018F929F92AF9229
:101DF000BF92CF92DF92EF92FF920E94600D0E94FD
:101E00001A076B017C0189E890E00E94A30186E833
:101E100090E00E94A301A7019601C701B6010E94AC
:101E2000AB278823A1F080E792E00E94EB0D83E8C6
:101E300090E00E94F80D80E093E0FF90EF90DF903B
:101E4000CF90BF90AF909F908F900C94BE014601B1
:101E50005701E894B7F82FEF3FEF4FE75FE7C50171
:101E6000B4010E94AB2781110DC02FEF3FEF4FE768
:101E70005FE7C501B4010E94DA2518161CF484E757
:101E800092E0D3CF2FEF3FEF4FE75FE4C701B601FA
:101E90000E94392718161CF488E792E0C6CF2FEF6E
:101EA0003FEF4FE75FECC701B6010E94DA2587FDDF
:101EB000F3CF20E030E0A901C701B6010E94DA2586
:101EC00087FF09C06DE280E093E00E945601F7FAB7
:101ED000F094F7F8F0942AE037ED43EA5BE3C701AA
:101EE000B6010E946E254B015C010E9458266B01D1
:101EF0007C010E9487269B01AC01C501B4010E94B0
:101F00006D254B015C014AE0C701B6010E94380E05
:101F10006EE280E093E00E94560120E030E040E273
:101F200051E4C501B4010E943E274B015C010E94AF
:101F300058266B01F12CE12C4AE0C701B6010E9442
:101F4000380EC701B6010E9487269B01AC01C5016E
:101F5000B4010E946D2520E030E040E251E40E948F
:101F60003E270E94582690E080E04AE00E94380E0A
:101F70005ECF1F93CF93DF9320918B0430918C041D
:101F80002E30310504F5EB01BC0115E2129FC001B2
:101F9000139F900D112443E250E083579B4F0E9402
:101FA000D92780918B0490918C04189FF001199F80
:101FB000F00D1124E055FB4FD183C083019690931F
:101FC0008C0480938B04DF91CF911F91089549E891
:101FD00054E064E874E090E080E00C947B24CF93BC
:101FE000DF9300D0CDB7DEB70E941C0E0E94600DBB
:101FF0000E94E70F0097C1F042E050E0BE016F5F22
:102000007F4F0E9469236093C2037093C303809340
:10201000C4039093C5030E945E020E94060E0F90B7
:102020000F90DF91CF9108956AE170E080E090E039
:102030000E949B0260ED77E080E090E00E94D40374
:102040000E94D102EACFCF92DF92EF92FF920F93DC
:102050001F93CF93DF930E941C0E0E94600D0E947D
:10206000E70F11E0009721F00E945424EC0110E0EA
:102070000E94E70F009721F00E9454241123C1F021
:102080006AE170E080E090E00E949B0260ED77E002
:1020900080E090E00E94D4030E94D102DF91CF91B2
:1020A0001F910F91FF90EF90DF90CF900C94060E50
:1020B0006C01990FEE08FF08BE01DD0F880B990B2C
:1020C0000E94892601E010E0A70196010E94070402
:1020D000E5CF0E941C0E80915D04811110925D0479
:1020E0000E94E70F009791F00E9454249093BB0246
:1020F0008093BA020E94E70F0097D9F00E945424FF
:1021000090932D0180932C010C94E70F6AE170E00D
:1021100080E090E00E949B0260ED77E080E090E03C
:102120000E94D4030E94D1021092BB021092BA0204
:10213000E1CF88EE93E0E4CF2F923F924F925F92EF
:102140006F927F928F929F92AF92BF92CF92DF92C7
:10215000EF92FF920F931F93CF93DF9300D000D0A5
:10216000CDB7DEB70E941C0E0E94600D0E94E70FE3
:102170000097C1F00E94542401978D30910500F51D
:10218000FC01EB53FF4E0C94BC27F81013113C11CB
:10219000AD1139129612A712B812311374130E141E
:1021A0001F1574156AE170E080E090E00E949B02C8
:1021B00060ED77E080E090E00E94D4030E94D102BD
:1021C0000F900F900F900F90DF91CF911F910F9173
:1021D000FF90EF90DF90CF90BF90AF909F908F9047
:1021E0007F906F905F904F903F902F900C94060ED1
:1021F0000EE110E022E330E040E050E064EA70EDF0
:1022000084E294E40E9407046AE070E080E090E0D9
:102210000E949B028DE090E00E9492078DE090E08A
:102220000E94920720C06BE070E080E090E00E9486
:102230009B028BE090E00E9492076CE070E080E0EF
:1022400090E00E949B026BE070E080E090E00E94D2
:102250009B028CE090E00E9492076CE070E080E0CE
:1022600090E00E949B020E94600D6BE070E080E0B5
:1022700090E00E949B02A4CF66E170E080E090E0D5
:102280000E949B0228EC822E912C34E1A32EB12CCB
:10229000C12CD12C1CE5E12E1FE8F12E02E81FE332
:1022A00020E030E84FE454E460E070E08CE594E432
:1022B0000E948A0668E170E080E090E00E949B0244
:1022C00020E030E845E454E460E070E88FE494E412
:1022D0000E948A0667E170E080E090E00E949B0225
:1022E00020E030E049E354E460E070E885E494E401
:1022F0000E948A0668E170E080E090E00E949B0204
:1023000020E030E04FE254E460E070E089E394E4E0
:102310000E948A0667E170E080E090E00E949B02E4
:1023200020E030E447E254E460E070E08FE294E4BF
:102330000E948A0666E170E080E090E00E949B02C5
:1023400064EF71E080E090E00E94D4030E94600D91
:102350006CE271E080E090E0E6C024E030E03A8397
:10236000298350E040E061E070E080E090E00E946E
:10237000DB02BAE08B2E912C1AE0A12EB12CC12CDD
:10238000D12C18EBE12E1EE1F12E05E81FE320E031
:1023900030E048E453E460E070E088EC92E40E94AE
:1023A0008A0641E050E061E070E080E090E00E9449
:1023B000DB0220E030E046E953E460E070E088E4CE
:1023C00093E40E948A0642E050E061E070E080E021
:1023D00090E00E94DB0220E030E04AEF53E460E04E
:1023E00070E086E993E40E948A0664EF71E080E081
:1023F00090E00E94D40341E050E061E070E080E0B2
:1024000090E00E94DB0288248394912C20E030E04D
:102410004AE753E460E070E088EC93E40E948A06A7
:1024200050E040E061E070E080E090E00E94DB027C
:1024300020E030E048EC52E460E070E08AE793E4AA
:102440000E948A0664EF71E080E090E00E94D4036D
:1024500089819A8101979A838983892B09F081CF99
:1024600063E170E080E090E00E949B0289E090E0F0
:10247000D7CE6CE271E080E090E00E94D40363E18B
:1024800070E080E090E00E949B0280E190E00E947A
:10249000920760E170E080E090E00E949B026AEFAA
:1024A00070E080E090E00E94D4036CE271E080E094
:1024B00090E00E94D40363E170E080E090E00E942D
:1024C0009B0281E190E00E94920760E170E080E071
:1024D00090E00E949B026AEF70E080E090E00E9432
:1024E000D4036CE271E080E090E00E94D40363E1E9
:1024F00070E080E090E00E949B0282E190E00E9408
:10250000920760E170E080E090E00E949B026CE244
:1025100071E080E090E00E94D4030E94600D64EFBF
:1025200071E080E090E00E94D4039FCE64E170E00F
:1025300080E090E00E949B028FE090E00E94920772
:1025400064EF71E080E090E00E94D4038CCE6DE0F7
:1025500070E080E090E00E949B0289E090E00E94A1
:1025600092070E94600D8DE090E00E9492077DCE60
:102570006EE170E080E090E00E949B020EE110E0CE
:1025800024E630E040E050E060E070E08CE594E468
:102590000E94070444E0842E912C57E0A52EB12C14
:1025A000C12CD12C1CE5E12E1FE8F12E02E81FE31F
:1025B0002FE135ED42E954E460E070E08CE594E40D
:1025C0000E948A0688248394912CEAE0AE2EB12CD6
:1025D000C12CD12C2CE53FEF43EC54E46FE175EDB9
:1025E00082E994E40E948A0620E030E04CE554E45D
:1025F0006CE57FEF83EC94E40E948A066FE070E064
:1026000080E090E00E94D403F4E08F2E912CA4E1AE
:10261000AA2EB12CC12CD12C24EA30ED44E254E492
:1026200060E070E08CE594E40E948A0660E971E065
:1026300080E090E00E94D4032FE135ED42E954E4BC
:1026400060E070E08CE594E40E948A0624EA30EDB4
:1026500044E254E460E070E08CE594E40E948A0671
:1026600002CE6EE170E080E090E00E949B0294E078
:10267000892E912C24E1A22EB12CC12CD12C1CE549
:10268000E12E1FE8F12E02E81FE32FE135ED42E9CC
:1026900054E460E070E08CE594E40E948A0624EA49
:1026A00030ED44E254E460E070E08CE594E40E9494
:1026B0008A066CE271E080E090E00E94D40363E15E
:1026C00070E080E090E00E949B020E94600D0E94FA
:1026D000600D0E94600D0E94600D6EE170E080E070
:1026E00090E00E949B022CCF24E030E03A832983C3
:1026F00000E911E01C821B824B815C8162E070E08A
:1027000080E090E00E94DB02180134E6230E311CC9
:10271000B801110F880B990B0E9489262B013C01EF
:10272000B101032C000C880B990B0E9489269B0198
:10273000AC011AE0812E912C0AE0A02EB12CC12C04
:10274000D12C18EBE12E1EE1F12E05E81FE3C301A9
:10275000B2010E948A068B819C8101969C838B83A7
:102760008101069749F60E94D10218EBE12E1EE185
:10277000F12E05E81FE320E030E849E854E4C30106
:10278000B2010E948A0628EE33E03C832B83312C71
:10279000212CA10162E070E080E090E00E94DB0269
:1027A0006B817C816C597F4F072E000C880B990B35
:1027B0000E9489262B013C012B813C81B901330FFA
:1027C000880B990B0E948926EAE08E2E912CFAE064
:1027D000AF2EB12CC12CD12C18EBE12E1EE1F12E25
:1027E00005E81FE3A30192010E948A068B819C8168
:1027F000845691099C838B839FEF291A390A2B8178
:102800003C812039314029F629813A812150310912
:102810003A832983232B09F06BCF9ACD82E090E095
:102820009A83898384EF91E09C838B83312C212CC4
:10283000A10163E070E080E090E00E94DB026B8128
:102840007C816C597F4F072E000C880B990B0E94DE
:1028500089262B013C012B813C81B901330F880B68
:10286000990B0E9489263AE0832E912C4AE0A42EEF
:10287000B12CC12CD12C1CE5E12E1FE8F12E02E871
:102880001FE3A30192010E948A068B819C818B59D0
:102890009F4F9C838B839FEF291A390A2AE02216C7
:1028A000310431F686EE95E09C838B83312C212C0C
:1028B000A10163E070E080E090E00E94DB026B81A8
:1028C0007C816C597F4F072E000C880B990B0E945E
:1028D00089262B013C012B813C81B901330F880BE8
:1028E000990B0E948926AAE08A2E912CBAE0AB2E81
:1028F000B12CC12CD12C1CE5E12E1FE8F12E02E8F1
:102900001FE3A30192010E948A068B819C818B594F
:102910009F4F9C838B839FEF291A390A2AE0221646
:10292000310431F688ED99E09C838B83312C212C86
:10293000A10163E070E080E090E00E94DB026B8127
:102940007C8164567109072E000C880B990B0E943C
:1029500089262B013C012B813C81B901330F880B67
:10296000990B0E9489265AE0852E912CEAE0AE2E22
:10297000B12CC12CD12C1CE5E12E1FE8F12E02E870
:102980001FE3A30192010E948A068B819C818556D8
:1029900091099C838B839FEF291A390A2B813C81F3
:1029A000263E354029F6312C212CA10163E070E050
:1029B00080E090E00E94DB026B817C8164567109AB
:1029C000072E000C880B990B0E9489262B013C01D5
:1029D0002B813C81B901330F880B990B0E9489260A
:1029E0002AE0822E912C3AE0A32EB12CC12CD12CBE
:1029F0001CE5E12E1FE8F12E02E81FE3A30192017E
:102A00000E948A068B819C81855691099C838B83C9
:102A10009FEF291A390A2AE02216310431F68981FA
:102A20009A81019739F40E94D10264E670E080E057
:102A300090E079CD21E030E03A832983F3CE6FE056
:102A400070E080E090E00E949B0220E436E03A8350
:102A5000298329813A81B901330F880B990B0E9490
:102A6000892601E010E02FE030E040E050E00E94D5
:102A7000070489819A8144969A838983803F9A408A
:102A800041F76EE070E080E090E00E949B022981B7
:102A90003A81B901330F880B990B0E94892601E016
:102AA00010E02FE030E040E050E00E940704898110
:102AB0009A8144969A838983803A9F4041F76BE0DC
:102AC00070E080E090E00E949B028CE090E00E9429
:102AD00092076CE070E080E090E00E949B020E9410
:102AE000600D0E94D102C1CB67E170E080E090E010
:102AF0000E949B0201E010E028EC30E040E050E052
:102B000060E070E081E694E40E94070468E170E010
:102B100080E090E00E949B0228EC30E040E050E032
:102B200060E070E086E194E40E94070464E170E0F4
:102B300080E090E00E949B0228EC30E040E050E012
:102B400060E070E086E993E40E9407046AE170E0C7
:102B500080E090E00E949B028AEC93E00E94C90A08
:102B600083EF93E00E94C90A28E938E040E050E092
:102B700060E070E086E193E40E94070468E572E09B
:102B800080E090E00E94D4030E94D1026BE070E0EC
:102B900080E090E00E949B020E94600D11CB0E9499
:102BA0001C0E0E94600D0E94E70F0097F1F00E943A
:102BB000542401978331910530F5FC01EE51FA4E12
:102BC0000C94BC2705160A160D16101613161616A9
:102BD00019161C161F162216251628162B162E1629
:102BE0003116341637163A163D166AE170E080E069
:102BF00090E00E949B0260ED77E080E090E00E9410
:102C0000D4030E94D1020C94060E90E080E00E9452
:102C10009207F9CF81E090E0FACF86E090E0F7CF1D
:102C200087E090E0F4CF88E090E0F1CF89E090E099
:102C3000EECF8AE090E0EBCF8BE090E0E8CF8CE045
:102C400090E0E5CF8DE090E0E2CF8EE090E0DFCF46
:102C50008FE090E0DCCF80E190E0D9CF81E190E09F
:102C6000D6CF82E190E0D3CF83E090E0D0CF84E074
:102C700090E0CDCF85E090E0CACF82E090E0C7CF72
:102C8000AF92BF92CF92DF92EF92FF921F93CF93BA
:102C9000DF93CDB7DEB728970FB6F894DEBF0FBE2F
:102CA000CDBF0E941C0E8EE190E09093BB028093FA
:102CB000BA020E94E70F11E0009721F00E9454240D
:102CC0005C0110E00E94E70F009791F10E945424EC
:102CD0006C010E94E70F009769F10E9454247C0167
:102CE0000E94E70F009721F00E945424112321F144
:102CF0006AE170E080E090E00E949B0260ED77E086
:102D000080E090E00E94D4030E94D1020E94060E4F
:102D100028960FB6F894DEBF0FBECDBFDF91CF91DE
:102D20001F91FF90EF90DF90CF90BF90AF900895EC
:102D300011E0CFCF11E0D4CFBA82A982DC82CB825E
:102D4000FE82ED8298878F83BE016F5F7F4F88EC94
:102D500090E00E947F0CDACFCF92DF92EF92FF9249
:102D60000F931F93CF93DF93CDB7DEB72B970FB69B
:102D7000F894DEBF0FBECDBF0E94600D1A8219828B
:102D8000FE01339689E0DF011D928A95E9F73297BB
:102D90007F0105E010E06F01C8010E94AD24D7015A
:102DA0008D937D010F5F1F4F00311105A9F78EE64E
:102DB00090E00E94A3018BE690E00E94A301C6016F
:102DC0000E94EB0D88E690E00E94F80D80E093E011
:102DD0000E94BE012B960FB6F894DEBF0FBECDBF8A
:102DE000DF91CF911F910F91FF90EF90DF90CF90E7
:102DF0000895FF920F931F93CF93DF938C01EB0104
:102E0000F8800E94AD24F81621F06F2DC8010E94B1
:102E1000B524CE01DF91CF911F910F91FF900895BE
:102E2000DF92EF92FF920F931F93CF93DF93CDB773
:102E3000DEB72B970FB6F894DEBF0FBECDBF0E9452
:102E40001C0E0E94600D1A821982FE01339689E0E1
:102E5000DF011D928A95E9F70E94E70F009791F133
:102E6000FC01CE0101967C019F01245F3F4FDC01F4
:102E70008191882329F0E217F30711F08D93F8CFA1
:102E800005E010E0D701DD907D01C8010E94AD246E
:102E9000D81621F06D2DC8010E94B5240F5F1F4F79
:102EA0000031110579F72B960FB6F894DEBF0FBEEF
:102EB000CDBFDF91CF911F910F91FF90EF90DF90E9
:102EC0000C94060E6AE170E080E090E00E949B02A4
:102ED00060ED77E080E090E00E94D4030E94D10290
:102EE000E2CFFF920F931F93CF93DF930E941C0EAC
:102EF0000E94600D0E94E70FC1E0009729F00E9438
:102F00005424D82FF92EC0E00E94E70F009719F142
:102F10000E9454248C010E94E70F892B09F4C1E020
:102F20000E94E70F892B11F0CC23B9F06AE170E021
:102F300080E090E00E949B0260ED77E080E090E00E
:102F40000E94D4030E94D102DF91CF911F910F9173
:102F5000FF900C94060EC1E0DECFD093D903F0921F
:102F6000DA0310930304009302046D2F90E080E0D5
:102F70000E94B5246091020481E090E00E94B52493
:102F800060912B0482E090E00E94B524609154048B
:102F900083E090E00E94B524D7CFCF92DF92EF92EA
:102FA000FF920F931F930E94600D60E080911C04BC
:102FB0000E94300283E090E00197F1F761E0809198
:102FC0001C040E94300283E290E00197F1F760E078
:102FD00080911C040E94300280911E0490911F0475
:102FE0009927FC01E353FF4F6491FC01E551FF4F2A
:102FF000E491F0E0EE0FFF1FE155FF4F85919491B2
:1030000000E41CE920E030E0462F0E94711A6115AF
:1030100071058105910529F06F5F7F4F8F4F9F4F9D
:103020009F702AE330E040E050E00E94F5246901FF
:103030007A01C114D104E104F10431F487EEC82E01
:1030400083E0D82EE12CF12C87E790E00E94A301C9
:1030500084E790E00E94A301C701B6010E9489267F
:103060000E945126CB010E949D0E81E790E00E94B4
:10307000F80D80E093E01F910F91FF90EF90DF90AB
:10308000CF900C94BE011F920F920FB60F92112495
:103090002F933F934F935F936F937F938F939F9360
:1030A000AF93BF93EF93FF938091F4029091F50259
:1030B000A091F602B091F702892B8A2B8B2BD1F1CC
:1030C0009091EF02E091F002F091F1028081892766
:1030D00080838091F4029091F502A091F602B09164
:1030E000F702181619061A061B069CF48091F402C2
:1030F0009091F502A091F602B091F7020197A10913
:10310000B1098093F4029093F502A093F602B09374
:10311000F702FF91EF91BF91AF919F918F917F91B6
:103120006F915F914F913F912F910F900FBE0F9034
:103130001F90189580913001EFEFF0E0E4919FEF40
:1031400090933001E13051F030F0E23069F060E00E
:103150000E943002DECF10926E00F9CF90916F0086
:103160009D7F90936F00F3CF909170009D7F90931F
:10317000700091E09093B0009091B100987F9460BE
:103180009093B1001092B300E2CF1F920F920FB64E
:103190000F9211242F933F934F935F936F937F93DD
:1031A0008F939F93AF93BF93EF93FF9380E093E050
:1031B0000E943401FF91EF91BF91AF919F918F9148
:1031C0007F916F915F914F913F912F910F900FBE23
:1031D0000F901F9018951F920F920FB60F92112407
:1031E0002F938F939F93EF93FF93E0911003F091B0
:1031F00011038081E0911603F091170382FD1BC03B
:103200009081809119038F5F8F7320911A03821729
:1032100041F0E0911903F0E0E050FD4F958F80936D
:103220001903FF91EF919F918F912F910F900FBEF6
:103230000F901F9018958081F4CF1F920F920FB6B8
:103240000F9211242F933F938F939F93AF93BF932C
:1032500080919A0290919B02A0919C02B0919D0254
:103260003091990223E0230F2D3758F50196A11DC7
:10327000B11D2093990280939A0290939B02A09390
:103280009C02B0939D0280919E0290919F02A0911A
:10329000A002B091A1020196A11DB11D80939E02D2
:1032A00090939F02A093A002B093A102BF91AF910F
:1032B0009F918F913F912F910F900FBE0F901F9074
:1032C000189526E8230F0296A11DB11DD2CF1F929B
:1032D0000F920FB60F9211242F933F934F935F934A
:1032E0006F937F938F939F93AF93BF93EF93FF93CE
:1032F000E0912A01F0912B010995FF91EF91BF9187
:10330000AF919F918F917F916F915F914F913F917D
:103310002F910F900FBE0F901F9018951F920F9234
:103320000FB60F9211242F933F934F935F936F9398
:103330007F938F939F93AF93BF93EF93FF93E0910E
:103340002801F09129010995FF91EF91BF91AF916B
:103350009F918F917F916F915F914F913F912F91AD
:103360000F900FBE0F901F9018951F920F920FB6DF
:103370000F9211242F933F934F935F936F937F93FB
:103380008F939F93AF93BF93CF93DF93EF93FF936D
:1033900080919802C091C103D0E087FF24C01092B1
:1033A000850010928400809198028F5F809398022C
:1033B00080919802082E000C990B8C179D0724F41D
:1033C000809198028C30C4F18091840090918500A6
:1033D000049680349C4908F47AC0809184009091CE
:1033E0008500049676C080919802082E000C990BF7
:1033F0008C179D07C4F6E09198028E2FEE0F990B63
:10340000FC01EE0FFF1FE80FF91FE356FC4F808110
:1034100086FFC9CFE09198028E2FEE0F990BFC0129
:10342000EE0FFF1FE80FF91FE356FC4F808160E0AD
:103430008F730E943002B7CF2091840030918500B5
:10344000E09198028E2FEE0F990BFC01EE0FFF1FFB
:10345000E80FF91FE356FC4F81819281820F931F81
:103460009093890080938800E09198028E2FEE0F50
:10347000990BFC01EE0FFF1FE80FF91FE356FC4FFD
:10348000808186FF11C0E09198028E2FEE0F990B7C
:10349000FC01EE0FFF1FE80FF91FE356FC4F808180
:1034A00061E08F730E943002FF91EF91DF91CF9125
:1034B000BF91AF919F918F917F916F915F914F914C
:1034C0003F912F910F900FBE0F901F90189580E4A1
:1034D0009CE990938900809388008FEF80939802F5
:1034E000E3CFCF92DF92EF92FF920F931F93E82FDB
:1034F000F92F05C0015011092109310961F19081AD
:1035000096239417B9F305C0015011092109310917
:1035100011F1908196239413F7CFC12CD12CE12C7B
:10352000F12C0AC08FEFC81AD80AE80AF80A0C155D
:103530001D052E053F0579F080818623841791F3C0
:103540006C2D7D2D8E2D9F2D1F910F91FF90EF9053
:10355000DF90CF90089560E070E080E090E01F91F0
:103560000F91FF90EF90DF90CF900895109203039A
:103570001092020388EE93E0A0E0B0E08093040391
:1035800090930503A0930603B09307038FE592E0A1
:10359000909301038093000385EC90E090930D03DA
:1035A00080930C0384EC90E090930F0380930E03C0
:1035B00080EC90E0909311038093100381EC90E0F5
:1035C000909313038093120382EC90E09093150381
:1035D0008093140386EC90E0909317038093160376
:1035E0001092190310921A0310921B0310921C03DD
:1035F00080E290E090938504809384048DE0809332
:10360000860410928C0410928B04EFE5F4E082E8BB
:1036100094E011928E179F07E1F7109283041092A5
:1036200082041092C2031092C3031092C40310923A
:10363000C5038BE08093C6038DE08093C7038CE0C5
:103640008093C80361E08BE00E94490361E08091B0
:10365000C7030E94490361E08091C8030E944903A7
:1036600060E08091C6030E94300260E08091C70351
:103670000E94300260E08091C8030E9430020E94E4
:103680005E028091C1038C30A0F08FEF8093CA035B
:103690001092DA031092D9038091C1038C30E0F0CC
:1036A0008FEF8093F30310920304109202040C94A2
:1036B0007A0391E0980F9093C1038093CA0390E03E
:1036C000FC01EE0FFF1FE80FF91FE356FC4F88EBDC
:1036D0009BE092838183DCCF91E0980F9093C103AC
:1036E0008093F30390E0FC01EE0FFF1FE80FF91F3A
:1036F000E356FC4F88EB9BE092838183D4CFCF933A
:10370000DF93CDB7DEB766970FB6F894DEBF0FBE76
:10371000CDBF789484B5826084BD84B5816084BD5A
:1037200085B5826085BD85B5816085BD80916E005F
:10373000816080936E001092810080918100826090
:1037400080938100809181008160809381008091CD
:1037500080008160809380008091B10084608093BC
:10376000B1008091B00081608093B00080917A00B8
:10377000846080937A0080917A00826080937A00DE
:1037800080917A00816080937A0080917A008068CD
:1037900080937A001092C100E0911003F091110320
:1037A00082E08083E0910C03F0910D031082E091A0
:1037B0000E03F0910F0380E1808310921803E091D3
:1037C0001403F091150386E08083E0911203F091D9
:1037D0001303808180618083E0911203F0911303D1
:1037E000808188608083E0911203F09113038081CF
:1037F00080688083E0911203F091130380818F7DB4
:10380000808360E086E00E94490360E087E00E94D8
:10381000490384E090E0909336048093350485E07A
:1038200090E090933804809337040E94B20B10927A
:103830005D048AE590E090933E0480933D0490936C
:10384000400480933F0483E090E0909321048093B0
:10385000200460E00E94490381E190E090932304FA
:103860008093220460E00E9449030E947A0382E16F
:1038700090E0909326048093250460E00E94490321
:1038800001E010E0109328040093270410932A0409
:103890000093290410932C0400932B0483E190E0FF
:1038A00090932E0480932D0460E00E9449031093AE
:1038B000300400932F0410933204009331048FEFEF
:1038C0009FEF909334048093330488E090E09093CA
:1038D0001D0480931C0489E090E090931F04809362
:1038E0001E0461E088E00E94490360E080911E04AC
:1038F0000E9449038AE090E090934204809341043F
:1039000084E190E0909344048093430461E08AE072
:103910000E94490360E084E10E94490384E10E941F
:103920009A03BC01990F880B990B611571058105EC
:10393000910511F00E94602362E37EE08CE792E043
:103940000E94B90F6FEE7FE08EE792E00E94B90F00
:1039500063E270E180E892E00E94B90F69E670E1ED
:1039600082E892E00E94B90F6CE970E184E892E08D
:103970000E94B90F6FEC75E186E892E00E94B90FE2
:1039800061E777E188E892E00E94B90F60E476E1B0
:103990008AE892E00E94B90F60E177E18CE892E05A
:1039A0000E94B90F6CEA76E18EE892E00E94B90FAE
:1039B0006DEC77E180E992E00E94B90F67EA7EE062
:1039C00082E992E00E94B90F65EF7EE084E992E01F
:1039D0000E94B90F6FED7EE086E992E00E94B90F78
:1039E00082E39EE090939406809393060E94600D7C
:1039F00085E090E00E94AD248432D9F46AE472E05C
:103A000085E090E00E94F9161982BE016F5F7F4F3A
:103A100086E090E00E94F9166DE170E080E090E0B1
:103A20000E949B0268EE73E080E090E00E94D40365
:103A3000F9CF0E94AC1662E370E080E090E00E9453
:103A4000D4030E94DF0E62E370E080E090E00E9409
:103A5000D4030E94F50E0E941A0720E030E044E3F0
:103A600052E40E94DA2587FF41C08091E80281116B
:103A70003DC06CE170E080E090E00E949B0253E06A
:103A8000852E912C68E0A62EB12CC12CD12C18EBE0
:103A9000E12E1EE1F12E05E81FE320E030E04AEFC1
:103AA00054E460E070E08CE594E40E948A066EE1E4
:103AB00070E080E090E00E94D4031CE5E12E1FE856
:103AC000F12E02E81FE320E030E04CE554E460E032
:103AD00070E08AEF94E40E948A060E94D10264EFAB
:103AE00071E080E090E00E94D403BFCF10E000E0DE
:103AF0008091E802811111C0A80160E070E0CB0163
:103B00000E94DB0266E970E080E090E00E94D4034E
:103B10000F5F1F4F0830110559F710E000E080914A
:103B2000E802811111C0A80160E070E0CB010E94A1
:103B3000DB0266E970E080E090E00E94D4030F5F52
:103B40001F4F0830110559F78091E80281110CC010
:103B50006AE070E080E090E00E949B0268EC70E018
:103B600080E090E00E94D40385E090E00E94AD24C4
:103B70008332F1F48091E80281110EC090E080E080
:103B80000E94240D90E080E00E94420D68EC70E0FD
:103B900080E090E00E94D4038091E802811108C087
:103BA0006FE070E080E090E00E949B020E94600D58
:103BB0008091E802811106C06BE070E080E090E047
:103BC0000E949B020E94960A6093E2027093E302B5
:103BD0008093E4029093E5021E0129E0220E311C3D
:103BE0008091350290913602A0913702B09138024F
:103BF0008F87988BA98BBA8B8091390290913A026A
:103C0000A0913B02B0913C028B8B9C8BAD8BBE8B09
:103C100086E0D1011D928A95E9F780E093E00E9449
:103C200014011816190674F480912E0190912F0139
:103C3000029741F081E090E090932F0180932E0154
:103C40001092E8028091E802882309F44FC00E9494
:103C5000600D64E670E080E090E00E94D40368ECC0
:103C600070E080E090E00E94D4038091E702882316
:103C700021F08091E602882359F08091E7028111BA
:103C80000DC08091E602882349F082E090E002C0F6
:103C900081E090E090932F0180932E0160912E019E
:103CA00070912F01072E000C880B990B0E949B022C
:103CB00008EC10E06AE070E080E090E00E94D4033D
:103CC00001501109B9F71092E8021092E702109220
:103CD000E60280E090E0892B09F49ACF0E9420014F
:103CE000882309F495CF0E94000092CF80912E0185
:103CF00090912F018130910509F4E7C08230910540
:103D000009F460C3892B09F02FC40E94960A009120
:103D1000E2021091E3022091E4023091E502601B7F
:103D2000710B820B930B603878438140910588F2C8
:103D30001D821E821F8218868AE590E09A838983FD
:103D40009C838B838091E802811107C0BE016F5F65
:103D50007F4F8CEB92E00E947F0C44E0642E712C2C
:103D60008091E80281118CC050E040E061E070E099
:103D700080E090E00E94DB029AE0892E912C2AE0FC
:103D8000A22EB12CC12CD12C18EBE12E1EE1F12E6C
:103D900005E81FE320E030E048E453E460E070E031
:103DA00088EC92E40E948A068091E802811168C042
:103DB00041E050E061E070E080E090E00E94DB02D2
:103DC00020E030E046E953E460E070E088E493E40A
:103DD0000E948A068091E802811152C042E050E0C0
:103DE00061E070E080E090E00E94DB0220E030E0E3
:103DF0004AEF53E460E070E086E993E40E948A06AB
:103E000064EF71E080E090E00E94D4038091E802CA
:103E1000811136C041E050E061E070E080E090E068
:103E20000E94DB0288248394912C20E030E04AE752
:103E300053E460E070E088EC93E40E948A0680918D
:103E4000E80281111DC050E040E061E070E080E0D8
:103E500090E00E94DB0220E030E048EC52E460E0B9
:103E600070E08AE793E40E948A0664EF71E080E0E4
:103E700090E00E94D403E1E06E1A710809F070CF5F
:103E80008091E80281110AC063E170E080E090E077
:103E90000E949B0289E090E00E9492070E94600DC0
:103EA0008091E802811106C06BE070E080E090E054
:103EB0000E949B020E94960A6093E2027093E302C2
:103EC0008093E4029093E50204CF8091E002909108
:103ED000E102009709F48BC0880F991FFC01E054A0
:103EE000FD4F80819181049709F081C0B2ECEB2EE7
:103EF000B2E0FB2E10E000E08091E0029091E10240
:103F0000081719070CF067C0D7016D917C91072E37
:103F1000000C880B990B97FF29C00E947C0E8DE640
:103F200092E00E94EB0DF701A190B1907F01ABE40C
:103F3000CA2EA2E0DA2ED601ED91FD916D018081AD
:103F40009181A816B90651F482819381823091053E
:103F5000C9F184F40097D1F10197F9F093E5C916FE
:103F600092E0D90641F70F5F1F4FC6CF4AE00E948B
:103F7000380ED5CF83309105A9F0049779F78B8956
:103F80009C89AD89BE8989839A83AB83BC83BE013A
:103F90006F5F7F4F82E593E012C084EC99E00E944E
:103FA000420DDCCF8F859889A989BA8989839A8344
:103FB000AB83BC83BE016F5F7F4F82EF93E00E94B3
:103FC0007F0CCCCF84EC99E00E94240D84E690E035
:103FD0000E94060DC3CF1092E1021092E002E2ECC3
:103FE000F2E08EE1DF011D928A95E9F772CE8091B1
:103FF000EB029091EC02892BA1F560E080E10E9438
:1040000030021092BB021092BA021092B4021092C7
:10401000B5021092B6021092B7021092A702109247
:10402000A6021092EE021092ED020E94960A609390
:10403000A2027093A3028093A4029093A5028BEA3C
:1040400090E090932901809328018091690083601A
:1040500080936900E89A81E090E09093EC0280936D
:10406000EB020E94960A0091A2021091A3022091F5
:10407000A4023091A502601B710B820B930B63337A
:1040800071058105910530F083E090E09093EC029A
:104090008093EB028091EB029091EC02039709F080
:1040A00065C08091A6029091A7028130910519F117
:1040B0004CF460E0892B09F41BC11092EE021092BF
:1040C000ED0225C08230910509F409C10397A9F7D3
:1040D0008091ED029091EE029093B9028093B80224
:1040E00060E081E00E94A20A82E090E09093EC02FE
:1040F0008093EB020CC08091ED029091EE029093C0
:10410000B5028093B40261E081E00E94A20A80912E
:10411000A6029091A70204970CF4ECC08091E902EA
:104120009091EA02892B11F504EB12E0F8EAEF2EE8
:10413000F2E0FF2EF801619171918F01072E000CC2
:10414000880B990B0E9489269B01AC0160E070E00E
:104150008FE793E40E94DF25D7016D937D938D93C4
:104160009D937D01B2E00A3B1B0721F78091EB0292
:104170009091EC02029709F094C081E090E0909356
:10418000EA028093E90264EBE62E62E0F62E78EA1A
:10419000C72E72E0D72EEAEBAE2EE2E0BE2E8101F2
:1041A000F701619171917F01D6014D905D906D9005
:1041B0007D906D01072E000C880B990B0E948926BB
:1041C000A30192010E943E270E9451266F3F710574
:1041D00011F00CF096C0F801718360830E5F1F4FE1
:1041E000AE14BF04E9F6E89885EB90E090932901BE
:1041F000809328011092A7021092A6021092EE025C
:104200001092ED021092EC021092EB0253E5C52ED3
:1042100052E0D52E90E080E0D601ED91FD916D0148
:104220008F010A5F1F4FA10121913191DA016D9138
:104230007D91AD017901BFE0EB1AF1086E157F05A4
:104240000CF499C1215F3F4F261737070CF493C137
:104250000E171F0749F7009749F08130910509F4BF
:1042600056C0029709F056C081E090E02091C1024B
:10427000211117C083309105A1F021E02093C102E4
:104280002091E0023091E102F901EE0FFF1FEE53A1
:10429000FD4F918380832F5F3F4F3093E102209346
:1042A000E002809120040E940702182F8093C00230
:1042B000809122040E94070211113DC081112DC07E
:1042C0008AE090E00E94420D1092BF021092BE025E
:1042D00081E090E09093BD028093BC02FACC809183
:1042E000ED029091EE029093B7028093B60261E0E6
:1042F00080E00BCF84E090E09093EC028093EB029F
:1043000035CFEFEFF0E0D801ED93FC9367CF82E07B
:1043100090E0ACCF84E090E0A9CF813009F0D9CC17
:104320008AE090E00E94AD0D1092BF021092BE0292
:1043300083E090E0CFCF113009F0CBCC81110BC0DE
:104340008AE090E00E948F0D1092BF021092BE0290
:1043500084E090E0BFCF813009F0BBCC0091BE0279
:104360001091BF02093EE3E01E07CCF48091BC022D
:104370009091BD028430910559F48AE090E00E944A
:104380008F0D0F5F1F4F1093BF020093BE02A1CC91
:10439000039729F48AE090E00E94AD0DF2CF8AE005
:1043A00090E00E94060D1092BF021092BE02109281
:1043B000BD021092BC0266E170E080E090E00E94D5
:1043C0009B0287CC11E092E8A92E94E0B92E25E259
:1043D000722E80E093E00E941401181619060CF06A
:1043E0008BC0112309F488C080E093E00E94F200A2
:1043F00080935E0490918604891347C010928304D1
:104400001092820449E854E064E874E08FE594E097
:104410000E947B246C019093880480938704892BED
:1044200009F46AC080908B0490908C048EE5E82E8D
:1044300084E0F82E10E000E0081519050CF050C0DB
:10444000B701615D7F4F43E250E0C6010E94CB2778
:10445000F5E2EF0EF11C892B09F03FC0709EF001D0
:10446000719EF00D1124E055FB4F0190F081E02D7D
:104470000995EFE5F4E0119224E0E238F207D9F76C
:10448000109283041092820410E000915E04802F49
:10449000002E000C990B0E94C427892B09F499CF98
:1044A00080918204909183049C012F5F3F4F309351
:1044B000830420938204825A9B4FDC0111960C9353
:1044C000F901E25AFB4F1182233231050CF481CFFE
:1044D00010928304109282047CCF0F5F1F4FACCFE9
:1044E000E0919306F09194060995EFE5F4E01192BE
:1044F000AE16BF06E1F7C4CF80915D048111E9CB10
:104500008091BA029091BB0282309105F9F064F477
:104510000097B9F0019709F0DCCB80912C019091C4
:104520002D010E94AD0D0FC083309105B1F00497AD
:1045300009F0CFCB80912C0190912D010E94240D88
:1045400002C00E94600D0E94060EC3CB80912C0118
:1045500090912D010E948F0DF6CF80912C019091AA
:104560002D010E94420DEFCF81E090E090932F014A
:1045700080932E01AECB01968430910509F04CCE8C
:104580001092C10283E090E071CE8F929F92AF9221
:10459000BF92CF92DF92EF92FF92CF93DF93EC0125
:1045A000688179818A819B816115710581059105F9
:1045B00021F464E279ED8BE597E02DE133EF41E002
:1045C00050E00E94F52449015A019B01AC01A7EA81
:1045D000B1E40E9414256B017C01ACEEB4EFA5019F
:1045E00094010E942225C60ED71EE81EF91EF7FE72
:1045F00006C081E0C81AD108E10880E8F80AC8823C
:10460000D982EA82FB82C701B6019F77DF91CF9101
:10461000FF90EF90DF90CF90BF90AF909F908F90E2
:1046200008958F929F92AF92BF92CF92DF92EF92B6
:10463000FF9260913101709132018091330190912C
:104640003401611571058105910521F464E279ED6C
:104650008BE597E02DE133EF41E050E00E94F52437
:1046600049015A019B01AC01A7EAB1E40E9414255B
:104670006B017C01ACEEB4EFA50194010E942225F0
:10468000C60ED71EE81EF91EF7FE06C081E0C81A46
:10469000D108E10880E8F80AC0923101D0923201D5
:1046A000E0923301F0923401C701B6019F77FF9089
:1046B000EF90DF90CF90BF90AF909F908F90089534
:1046C00060933101709332018093330190933401F0
:1046D0000895B0E0A0E0EFE6F3E20C9428255C0139
:1046E0006B017A016115710519F0FB0191838083DB
:1046F000E114F10449F0C7010297839728F060E0C4
:1047000070E0CB019CC05E01E5012196F5011081AE
:10471000812F90E00E947224892BA9F71D3209F0A5
:1047200056C02196F501118101E0E114F10409F46C
:10473000AEC0F0E1EF16F10409F08EC0103341F481
:1047400088818F7D883509F083C0198122960260A7
:10475000E0E1EE2EF12C88248A94982CA82CFFE01E
:10476000BF2E20E060E070E0CB0127010F2C000C91
:1047700066087708FE0150ED352E310E39E033150D
:1047800038F43FEB310F3A31A0F549EC342E310EBD
:104790003E141F04BCF52F3FB9F086169706A806F5
:1047A000B90670F1A30192010E94C324232D30E0C9
:1047B00050E040E0620F731F841F951F621773075C
:1047C00084079507E8F021E021961081D3CF1B32B2
:1047D00021F4E5012296F501118100E0A6CF78E0F1
:1047E000E72EF12C88248A94982CA82C6FE1B62E01
:1047F000B8CF3FE9310F3A3128F439EA332EC7CF29
:104800002FEFE2CFC114D10431F02223E9F0219738
:10481000F601D183C08300FF07C090958095709505
:1048200061957F4F8F4F9F4F2F3F49F482E290E079
:1048300090939806809397066FEF7FEFCB01CDB7EB
:10484000DEB7E1E10C94442501FFE5CF2297E0CFEC
:1048500010E3E114F10419F23AE0E316F104E9F08F
:1048600080E1E816F10409F473CFE8E0EE16F104F4
:1048700009F4B8CF6FEF7FEFCB0197010F2C000C3D
:10488000440B550B0E94D32449015A016ACF1033BF
:1048900009F456CF9AE0E92EF12C89E9882E982C5C
:1048A000A82C89E1B82E5DCFFC0188279927E894D0
:1048B00021912032E9F3293010F02E30C8F32B3249
:1048C00041F02D3239F4689404C00E94A224820F72
:1048D000911D219120532A30C0F31EF490958195AB
:1048E0009F4F089591110C94AA24803219F0895099
:1048F0008550C8F70895FA01A191B081009719F485
:104900001097E1F0CD01DC01CD010D90002011F4F4
:10491000C00113C0FB012191222319F02015D9F702
:10492000F3CFFB012191201519F41E92119606C0B8
:104930002223C1F70D900020A1F7D001FA01A19325
:10494000B08308957AE0979F902D879F802D910DD9
:1049500011240895992788270895F999FECF92BDCB
:1049600081BDF89A992780B50895262FF999FECF31
:104970001FBA92BD81BD20BD0FB6F894FA9AF99A7C
:104980000FBE01960895DB018F939F930E9414251B
:10499000BF91AF91A29F800D911DA39F900DB29FDB
:1049A000900D11240895A1E21A2EAA1BBB1BFD0134
:1049B0000DC0AA1FBB1FEE1FFF1FA217B307E407FE
:1049C000F50720F0A21BB30BE40BF50B661F771F56
:1049D000881F991F1A9469F7609570958095909536
:1049E0009B01AC01BD01CF010895052E97FB1EF47C
:1049F00000940E940C2557FD07D00E94D32407FC89
:104A000003D04EF40C940C2550954095309521958B
:104A10003F4F4F4F5F4F08959095809570956195EA
:104A20007F4F8F4F9F4F08950E945E25A59F900D49
:104A3000B49F900DA49F800D911D11240895B7FF80
:104A40000C9414250E941425821B930B08952F9219
:104A50003F924F925F926F927F928F929F92AF920E
:104A6000BF92CF92DF92EF92FF920F931F93CF935B
:104A7000DF93CDB7DEB7CA1BDB0B0FB6F894DEBFF2
:104A80000FBECDBF09942A88398848885F846E8418
:104A90007D848C849B84AA84B984C884DF80EE8062
:104AA000FD800C811B81AA81B981CE0FD11D0FB66B
:104AB000F894DEBF0FBECDBFED010895A29FB001F7
:104AC000B39FC001A39F700D811D1124911DB29F42
:104AD000700D811D1124911D08955058BB27AA27E0
:104AE0000E9485250C94FF260E94F12638F00E9432
:104AF000F82620F039F49F3F19F426F40C94EE26A2
:104B00000EF4E095E7FB0C94E826E92F0E941027AD
:104B100058F3BA17620773078407950720F079F4F2
:104B2000A6F50C9432270EF4E0950B2EBA2FA02D8B
:104B30000B01B90190010C01CA01A0011124FF274A
:104B4000591B99F0593F50F4503E68F11A16F04045
:104B5000A22F232F342F4427585FF3CF4695379544
:104B60002795A795F0405395C9F77EF41F16BA0B09
:104B7000620B730B840BBAF09150A1F0FF0FBB1FB7
:104B8000661F771F881FC2F70EC0BA0F621F731F00
:104B9000841F48F4879577956795B795F7959E3F5D
:104BA00008F0B0CF9395880F08F09927EE0F9795EE
:104BB000879508950E94C42608F481E008950E9414
:104BC000F3250C94FF260E94F82658F00E94F12647
:104BD00040F029F45F3F29F00C94E82651110C9421
:104BE00033270C94EE260E94102768F39923B1F323
:104BF000552391F3951B550BBB27AA276217730703
:104C0000840738F09F5F5F4F220F331F441FAA1F96
:104C1000A9F335D00E2E3AF0E0E832D09150504052
:104C2000E695001CCAF72BD0FE2F29D0660F771F00
:104C3000881FBB1F261737074807AB07B0E809F0E6
:104C4000BB0B802DBF01FF2793585F4F3AF09E3F6B
:104C5000510578F00C94E8260C9433275F3FE4F379
:104C6000983ED4F3869577956795B795F7959F5FAE
:104C7000C9F7880F911D9695879597F90895E1E0FA
:104C8000660F771F881FBB1F621773078407BA0759
:104C900020F0621B730B840BBA0BEE1F88F7E095B4
:104CA00008950E9458266894B1110C9433270895F2
:104CB0000E94182788F09F5798F0B92F9927B7516D
:104CC000B0F0E1F0660F771F881F991F1AF0BA95B0
:104CD000C9F714C0B13091F00E943227B1E00895B5
:104CE0000C943227672F782F8827B85F39F0B93FA7
:104CF000CCF3869577956795B395D9F73EF4909563
:104D00008095709561957F4F8F4F9F4F0895E894E0
:104D100009C097FB3EF490958095709561957F4F03
:104D20008F4F9F4F9923A9F0F92F96E9BB279395B1
:104D3000F695879577956795B795F111F8CFFAF4C1
:104D4000BB0F11F460FF1BC06F5F7F4F8F4F9F4FF2
:104D500016C0882311F096E911C0772321F09EE850
:104D6000872F762F05C0662371F096E8862F70E0B6
:104D700060E02AF09A95660F771F881FDAF7880F90
:104D80009695879597F90895990F0008550FAA0BE6
:104D9000E0E8FEEF16161706E807F907C0F012164E
:104DA0001306E407F50798F0621B730B840B950B51
:104DB00039F40A2661F0232B242B252B21F40895A6
:104DC0000A2609F4A140A6958FEF811D811D089543
:104DD00097F99F6780E870E060E008959FEF80ECAE
:104DE000089500240A941616170618060906089551
:104DF00000240A9412161306140605060895092EB7
:104E00000394000C11F4882352F0BB0F40F4BF2B25
:104E100011F460FF04C06F5F7F4F8F4F9F4F089565
:104E200057FD9058440F551F59F05F3F71F047955B
:104E3000880F97FB991F61F09F3F79F08795089540
:104E4000121613061406551FF2CF4695F1DF08C05F
:104E5000161617061806991FF1CF8695710561057C
:104E600008940895E894BB2766277727CB0197F924
:104E700008950E94C42608F48FEF08950E945127D8
:104E80000C94FF260E94F12638F00E94F82620F0AC
:104E9000952311F00C94E8260C94EE2611240C9422
:104EA00033270E94102770F3959FC1F3950F50E0B0
:104EB000551F629FF001729FBB27F00DB11D639FCC
:104EC000AA27F00DB11DAA1F649F6627B00DA11D72
:104ED000661F829F2227B00DA11D621F739FB00D18
:104EE000A11D621F839FA00D611D221F749F332788
:104EF000A00D611D231F849F600D211D822F762F21
:104F00006A2F11249F5750409AF0F1F088234AF0FD
:104F1000EE0FFF1FBB1F661F771F881F9150504069
:104F2000A9F79E3F510580F00C94E8260C94332796
:104F30005F3FE4F3983ED4F3869577956795B795F0
:104F4000F795E7959F5FC1F7FE2B880F911D96950A
:104F5000879597F908950E94C426880B990B0895A8
:104F6000991B79E004C0991F961708F0961B881FBB
:104F70007A95C9F780950895EE0FFF1F0590F4917B
:104F8000E02D0994803209F091110C94AA248052EA
:104F90008F55D8F70895FB01DC014150504030F0A7
:104FA0008D910190801919F40020B9F7881B990B95
:104FB0000895FB01DC014150504048F001900D92F2
:104FC0000020C9F701C01D9241505040E0F70895FC
:044FD000F894FFCF83
:104FD40004000000020004000000030001000100BE
:104FE4000F000F000F00FF007800780038007000F9
:104FF40070009900D900DA00B500B500E80301009B
:10500400FF010000008C24490C0E4130041E42486C
:105014000C8C44480C82E049129CC0411E8CC42173
:10502400041042081E8CC4480C8EE0480C002385F2
:10503400000023FD0000E0FD008C14B6128C144A1D
:105044000C00C300008091243F80D4B63F0020B5FB
:105054003F00F003008058210002814020402831A5
:1050640000C02F3100C0EC310000420901A1C44846
:10507400210441480C10C2210480D4860040187ACF
:105084000000C3000080610000C0300000806100A7
:105094000000C3000000860100000C03000086012C
:1050A40000300C0000100A010018496200100A01C7
:1050B4000021000021520884128C144A0C00233170
:1050C4000000C000000000000000104A0C00082589
:1050D400062084100330420801182904008C1402AD
:1050E400004602810003814020814020304020900E
:1050F400185A005A005300640064005500660055B5
:10510400006400530055005500640064005A4F5772
:10511400495F424153455F763200230C0108010484
:1051240001000122011C01160110010000000056BB
:1051340001B600E300BE011401F20006010D0A00ED
:105144006E616E00696E66006F76660053004C00F7
:1051540054004D0048004B004300470052004500F6
:0851640044004E004200490026
:00000001FF
