:100000000C948B000C94561C0C942F1C0C94CC1B41
:100010000C94691B0C94F81A0C94B3000C941819E6
:100020000C94B3000C94B3000C94B3000C943C1AE1
:100030000C94B3000C94B3000C94B3000C94B30074
:100040000C94F2190C94B3000C94C0190C949A19E6
:100050000C94B3000C94B3000C94B3000C94B30054
:100060000C94B3000C94B3002525004520002626EF
:10007000002525004420002626002525004E2000CE
:100080002626002525004220002626002525004999
:1000900020002626002525004100262600252500D3
:1000A000460026260000000000240027002A000049
:1000B0000000080002010000030407000000000027
:1000C00000000000000000230026002900000102BB
:1000D00003040506070001020304050001020304EE
:1000E00005010204081020408001020408102001CC
:1000F000020408102000000000250028002B000446
:1001000004040404040404020202020202030303BE
:1001100003030302C21C11241FBECFEFD8E0DEBFD1
:10012000CDBF12E0A0E0B1E0EAEAFFE402C0059032
:100130000D92A435B107D9F726E0A4E5B2E001C0DD
:100140001D92A139B207E1F710E0CBE8D0E004C07E
:100150002197FE010E94A727CA38D107C9F70E943C
:10016000701D0C94D3270C94000090E0FC01EF511B
:10017000FF4F2491FC01E150FF4F3491323079F56B
:1001800040919D02422B40939D0283539F4FFC015F
:10019000A4913230A1F5B0E0AA0FBB1FA457BD4F08
:1001A0006D937C93E7ECF0E0A591B4918C918093F2
:1001B0008B028BE690E090938A0280938902809173
:1001C0006800816080936800A0918902B0918A02E2
:1001D000EC912E2B2C938FB780688FBF089533300E
:1001E00031F440919C02422B40939C02CECF34309C
:1001F00061F640919B02422B40939B02C6CF333065
:10020000C1F4B0E0AA0FBB1FA358BD4F6D937C9300
:10021000E9ECF0E0A591B4918C9180937C028CE69E
:1002200090E090938A0280938902809168008260B6
:10023000C9CF343049F6B0E0AA0FBB1FA459BD4F57
:100240006D937C93EBECF0E0A591B4918C9180934D
:100250006B028DE690E090938A02809389028091F0
:1002600068008460AFCFAF92BF92CF92DF92EF92DF
:10027000FF920F931F93CF93DF936C017B018B0150
:10028000040F151FEB015E01AE18BF08C017D107A0
:1002900059F06991D601ED91FC910190F081E02D2A
:1002A000C6010995892B79F7C501DF91CF911F917F
:1002B0000F91FF90EF90DF90CF90BF90AF90089597
:1002C000FC01538D448D252F30E0842F90E0821B5C
:1002D000930B541710F0CF96089501970895FC01E1
:1002E000918D828D981761F0A28DAE0FBF2FB11D39
:1002F0005D968C91928D9F5F9F73928F90E0089591
:100300008FEF9FEF0895FC01918D828D981731F04A
:10031000828DE80FF11D858D90E008958FEF9FEF9E
:100320000895FC01918D228D892F90E0805C9F4F74
:10033000821B91098F73992708958FEA92E00E949A
:10034000910121E0892B09F420E0822F089580E0BB
:1003500090E0892B29F00E949D0181110C940000EE
:100360000895FC01A48DA80FB92FB11DA35ABF4F4A
:100370002C91848D90E001968F739927848FA689A4
:10038000B7892C93A089B1898C91837080648C93F8
:10039000938D848D981306C00288F389E02D8081A7
:1003A0008F7D80830895EF92FF920F931F93CF93D9
:1003B000DF93EC0181E0888F9B8D8C8D98131AC0A0
:1003C000E889F989808185FF15C09FB7F894EE8987
:1003D000FF896083E889F9898081837080648083E4
:1003E0009FBF81E090E0DF91CF911F910F91FF902F
:1003F000EF900895F62E0B8D10E00F5F1F4F0F73D7
:100400001127E02E8C8D8E110CC00FB607FCFACF91
:10041000E889F989808185FFF5CFCE010E94B1017D
:10042000F1CFEB8DEC0FFD2FF11DE35AFF4FF08262
:100430009FB7F8940B8FEA89FB8980818062CFCFC8
:100440000F931F93CF93DF938C01D0E0C0E0F801AE
:10045000EC0FFD1F6491662341F08FEA92E00E9449
:10046000D301892B11F02196F2CFCE01DF91CF91EC
:100470001F910F910895CF93DF93EC01888D88230E
:10048000B9F0AA89BB89E889F9898C9185FD03C0F7
:10049000808186FD0DC00FB607FCF7CF8C9185FFDC
:1004A000F2CF808185FFEDCFCE010E94B101E9CF6F
:1004B000DF91CF91089590E0FC01E155FF4F249129
:1004C000FC01EF51FF4F3491FC01E150FF4FE491EB
:1004D000EE23C9F0222339F0233001F1A8F42130B2
:1004E00019F1223029F1F0E0EE0FFF1FEB50FF4F22
:1004F000A591B4918FB7F894EC91611126C0309515
:100500003E233C938FBF08952730A9F02830C9F0CF
:10051000243049F7809180008F7D03C08091800056
:100520008F7780938000DFCF84B58F7784BDDBCF5A
:1005300084B58F7DFBCF8091B0008F778093B00022
:10054000D2CF8091B0008F7DF9CF3E2BDACFCF9301
:10055000DF93D0E0C0E08091710390917203A0918D
:100560007303B09174030C2E04C0B695A7959795AC
:1005700087950A94D2F7682F6170809175030E9465
:100580005B0200000000000061E0809176030E94A1
:100590005B0200000000000060E0809176030E9492
:1005A0005B022196CE31D105B1F661E080917703EF
:1005B0000E945B0200000000000060E08091770371
:1005C000DF91CF910C945B02CF93DF93CDB7DEB771
:1005D000CC57D1090FB6F894DEBF0FBECDBF2CE7C4
:1005E000E9E0F1E0DE01119601900D922A95E1F724
:1005F000660F771F660F771F81E090E08C0F9D1FBD
:10060000680F791FFB0180819181A281B381809362
:10061000710390937203A0937303B0937403C4584F
:10062000DF4F0FB6F894DEBF0FBECDBFDF91CF9185
:100630000C94A7021092710310927203109273032C
:10064000109274030C94A702CF93DF93CDB7DEB75B
:10065000C057D1090FB6F894DEBF0FBECDBF20E260
:10066000E5E8F1E0DE01999601900D922A95E1F717
:1006700020E1E5EAF1E0DE01AF59BF4F01900D92B4
:100680002A95E1F728E1E5EBF1E0DE01A75BBF4F3A
:1006900001900D922A95E1F728E2EDECF1E0DE0100
:1006A000119601900D922A95E1F7440F551F440FC2
:1006B000551F6230710581F16330710581F1613040
:1006C0007105F1F081E090E08C0F9D1F480F591FDC
:1006D000FA0180A591A5A2A5B3A58093710390937B
:1006E0007203A0937303B0937403C059DF4F0FB626
:1006F000F894DEBF0FBECDBFDF91CF910C94A7025F
:1007000081E690E08C0F9D1F480F591FFA018081F0
:100710009181A281B381E1CF89E490E0F3CF81E0C0
:1007200090E0F0CFCF93DF9390E0FC01EF51FF4FCB
:10073000249181509F4FFC0184918823D1F090E057
:10074000880F991FFC01EB55FF4FA591B491FC0157
:10075000EB50FF4FC591D49161110EC09FB7F89433
:100760008C91E22FE0958E238C932881E223E883FD
:100770009FBFDF91CF9108958FB7F894EC91E22B52
:10078000EC938FBFF6CF8E3008F08E508770806468
:1007900080937C0080917A00806480937A008091BD
:1007A0007A0086FDFCCF80917800909179000895C1
:1007B0003FB7F89480915A0290915B02A0915C023D
:1007C000B0915D0226B5A89B05C02F3F19F0019698
:1007D000A11DB11D3FBFBA2FA92F982F8827BC019B
:1007E000CD01620F711D811D911D42E0660F771FC3
:1007F000881F991F4A95D1F708958F929F92AF92C3
:10080000BF92CF92DF92EF92FF926B017C010E9428
:10081000D8034B015C01C114D104E104F104B9F027
:100820000E94D803681979098A099B09683E7340B8
:100830008105910580F321E0C21AD108E108F10891
:1008400088EE880E83E0981EA11CB11CE4CFFF90B7
:10085000EF90DF90CF90BF90AF909F908F900895D2
:100860004F925F926F927F928F929F92AF92BF92C0
:10087000CF92DF92EF92FF920F931F93CF93DF936C
:10088000CDB7DEB729970FB6F894DEBF0FBECDBF48
:1008900029013A010115110511F401E010E00E944F
:1008A000432669837A838B839C838091390490915A
:1008B0003A0420910401281719F12F3F09F49DC033
:1008C000C301B2010E94FD03B801110F880B990BFF
:1008D00029960FB6F894DEBF0FBECDBFDF91CF9142
:1008E0001F910F91FF90EF90DF90CF90BF90AF904E
:1008F0009F908F907F906F905F904F900C94FD032E
:10090000E3E1F1E02491298727FDDACF61E00E943D
:1009100092038985882321F09985923009F05FC17F
:1009200089819A814C01B12CA12C60E072E18AE7A7
:1009300090E0A50194010E94E0242D833E834F8323
:10094000588769017A0191E0C91AD108E108F108D4
:100950002FEFC216D104E104F10409F00CF414C124
:1009600060E472E48FE090E0A50194010E94E0242D
:1009700069017A0181E0C81AD108E108F108998576
:10098000923009F0B5C082E02FEFC216D104E10425
:10099000F10409F00CF4E0C160E970ED83E090E04F
:1009A000A50194010E94E02469017A0181E0C81A3E
:1009B000D108E108F10883E09FEFC916D104E104F2
:1009C000F10409F00CF4C8C168E478EE81E090E02D
:1009D000A50194010E94E02469017A0191E0C91AFD
:1009E000D108E108F1082FEFC216D104E104F104A7
:1009F00011F00CF0A1C084E0AFC180930401E3E1E9
:100A0000F1E0249129872F3F09F45ACF213041F199
:100A100050F0223009F446C0298527FD51CF61E00E
:100A20000E94920379CF14BC15BC24B5226024BD6A
:100A300025B5216025BD9C013327F901E150FF4F09
:100A4000E491F0E0EE0FFF1FEB50FF4F4591549102
:100A5000F901EF51FF4FE491E093A202198656CFBE
:100A600010928000109281002091810028602093D4
:100A70008100209181002160209381009C01332717
:100A8000F901E150FF4FE491F0E0EE0FFF1FEB5052
:100A9000FF4F45915491F901EF51FF4FE491E093DD
:100AA000A10234CF1092B0001092B1002091B0009A
:100AB00022602093B0002091B10021602093B1000A
:100AC0009C013327F901E150FF4FE491F0E0EE0F74
:100AD000FF1FEB50FF4F459154915093A00240935C
:100AE0009F02F901EF51FF4FE491E0939E020ECF78
:100AF0002FEFC216D104E104F10409F00CF46DC02B
:100B000068E478EE81E090E0A50194010E94E02481
:100B100069017A0181E0C81AD108E108F1089985D4
:100B2000992309F4E5C02FEFC216D104E104F104C2
:100B300011F00CF0E6C05FCF64E274EF80E090E06B
:100B4000A50194010E94E02469017A0181E0C81A9C
:100B5000D108E108F10885E09FEFC916D104E1044E
:100B6000F10409F008F4F8C062E17AE780E090E06F
:100B7000A50194010E94E02469017A0181E0C81A6C
:100B8000D108E108F108CFC081E029852111E4C036
:100B900095B5987F892B85BD2FEF3FEFA9014114B3
:100BA00051046104710409F057C08985813009F44A
:100BB00062C0823009F471C0811182CEC7BC20931B
:100BC000AB023093AC024093AD025093AE028091E1
:100BD0006E00826080936E0073CE82E0D6CF8981F2
:100BE0009A814C01B12CA12C60E072E18AE790E07F
:100BF000A50194010E94E02469017A0191E0C91ADB
:100C0000D108E108F10891E0C114D10421E0E20625
:100C1000F10484F068E478EE81E090E0A5019401AD
:100C20000E94E02469017A0181E0C81AD108E10834
:100C3000F10893E02985213009F0AECF8091810041
:100C4000887F892B809381002FEF3FEFA90141140A
:100C500051046104710479F0A981BA81AA0FBB1F04
:100C6000A30192010E94FF2428EE33E040E050E00F
:100C70000E94BE249ACFD0928900C092880020930F
:100C8000A7023093A8024093A9025093AA02809130
:100C90006F00826080936F0013CEC092B3002093E8
:100CA000A3023093A4024093A5025093A602809120
:100CB000700082608093700003CECD80DE80EF8074
:100CC000F8848AE0F594E794D794C7948A95D1F78D
:100CD00021E0C21AD108E108F10885E059CF8FEF71
:100CE000C816D104E104F10409F038F784E050CFCC
:100CF00083E09FEFC916D104E104F10409F00CF47C
:100D000047CF62E17AE780E090E0A50194010E947C
:100D1000E02469017A0181E0C81AD108E108F108EC
:100D200099859923E1F286E09FEFC916D104E10489
:100D3000F10491F088F0CD80DE80EF80F8849AE0B5
:100D4000F594E794D794C7949A95D1F781E0C81A9F
:100D5000D108E108F10887E09091B100987F892BD4
:100D60008093B10019CF4F925F926F927F928F92D2
:100D70009F92AF92BF92CF92DF92EF92FF920F932A
:100D80001F93CF93DF93CDB7DEB728970FB6F894B4
:100D9000DEBF0FBECDBF2B013C0129833A834B83BD
:100DA0005C83ED82FE820F8318870E943C268B01B4
:100DB00029813A814B815C81C301B2010E94C52522
:100DC00087FF25C0B801110F880B990B0E9474266C
:100DD0002B013C01AC019B0169817A818B819C8153
:100DE0000E9424271816C4F58401A6019501C301A9
:100DF000B2010E9430042D813E814F815885C3018C
:100E0000B2010E9429270E943C268B01DBCFB8014A
:100E1000110F880B990B0E9474262B013C01AC0129
:100E20009B0169817A818B819C810E94C52587FF06
:100E300013C08401A6019501C301B2010E943004D0
:100E40002D813E814F815885C301B2010E94CA2580
:100E50000E943C268B01DBCF28960FB6F894DEBFAC
:100E60000FBECDBFDF91CF911F910F91FF90EF90FB
:100E7000DF90CF90BF90AF909F908F907F906F90BA
:100E80005F904F9008958F929F92AF92BF92CF92B2
:100E9000DF92EF92FF921F93CF93DF9385E10E9441
:100EA000C303CAE0D0E0C12CD12C760115E085E166
:100EB0000E94C303189FB001199F700D1124072EC3
:100EC000000C880B990B0E94742620E030E040E86B
:100ED0005AE30E9429274B015C0126E636E646E8E4
:100EE00050E40E94242718163CF486E6882E982C9D
:100EF00086E8A82E80E4B82E2FEB36E842ED52E4C7
:100F0000C501B4010E9429272CE73DE04BEA53E4D8
:100F10000E9458254B015C0120E030E0A9010E94AD
:100F2000C52587FF03C0812C912C5401A501940194
:100F3000C701B6010E9459256B017C0161E070E098
:100F400080E090E00E94FD03219709F0B0CF20E0FF
:100F500030E040E251E4C701B6010E94CA25DF91AA
:100F6000CF911F91FF90EF90DF90CF90BF90AF9007
:100F70009F908F9008958F929F92AF92BF92CF9241
:100F8000DF92EF92FF920F931F93CF93DF9301971E
:100F900082319105B8F4FC01E053F84F0C94A72777
:100FA000130836086A087D089408B708E308120990
:100FB000410970099A09BF09ED09180A2F0A700A38
:100FC000870A9E0A0EE110E022E330E040E050E0A4
:100FD00064EA70ED84E294E40E94300409E110E0D8
:100FE00027E330E040E050E062E570ED84EA94E40D
:100FF0000E9430040AE010E02CE330E040E050E0D2
:1010000060E070E08CED94E40E943004DF91CF91B9
:101010001F910F91FF90EF90DF90CF90BF90AF9016
:101020009F908F9008950EE110E022E330E040E0C1
:1010300050E064EA70ED84E294E40E94300409E137
:1010400010E027E330E040E050E060E070E08CED3D
:1010500094E40E9430040AE010E022E330E040E033
:1010600050E062E570ED84EA94E4CECF92E0892E00
:10107000912C24E1A22EB12CC12CD12C1AE0E12E0E
:1010800017EDF12E03E81FE32CE53FEF43EC54E4AA
:1010900062E570ED84EA94E40E94B3066EE170E0CC
:1010A00080E090E00E94FD034AE0A42EB12CC12C08
:1010B000D12C18EBE12E1EE1F12E05E81FE32FE104
:1010C00035ED42E155E462E570ED84EA94E40E9476
:1010D000B3069CCFCAE08C2E912CDEE1AD2EB12C54
:1010E000C12CD12C1CE5E12E1FE8F12E02E81FE3F4
:1010F00020E030E04CED54E4E6CFFAE08F2E912C66
:10110000AEE1AA2EB12CC12CD12C1AE0E12E17EDA4
:10111000F12E03E81FE32FE135ED42E155E46CE5E4
:101120007FEF83EC94E4D3CF04E610E022E330E0D9
:1011300040E050E062E570ED84EA94E40E943004FF
:1011400000E510E022E330E040E050E06CE57FEFA6
:1011500083EC94E40E94300410E000E02CE231E0E3
:1011600040E050E06FE175ED82E195E44DCF8824D9
:101170008394912C5AE0A52EB12CC12CD12C1CE5C6
:10118000E12E1FE8F12E02E81FE320E030E646E002
:1011900055E460E070E088E494E40E94B30677E0F0
:1011A000A72EB12CC12CD12C1AE0E12E17EDF12E77
:1011B00003E81FE320E030E048E454E460E070E539
:1011C00086E095E484CF93E0892E912C28E0A22E2E
:1011D000B12CC12CD12C18EBE12E1EE1F12E05E82B
:1011E0001FE320E030E04AEF54E460E070E08CE57B
:1011F00094E40E94B30668EC70E080E090E00E9406
:10120000FD03C6E1D0E00AE010E025E030E040E078
:1012100050E068E471EF86E794E40E94300421977F
:1012200091F7F4CEC3E08C2E912CD8E0AD2EB12CEA
:10123000C12CD12C1AE0E12E17EDF12E03E81FE3AB
:1012400020E030E84BE355E460E070E08BEE94E49E
:101250000E94B30668EC70E080E090E00E94FD031D
:10126000C0E1D0E00AE010E02AE030E040E050E0E9
:1012700060E070ED82E894E40E943004219791F7D9
:10128000C5CE64E0862E912C70E1A72EB12CC12C26
:10129000D12C1AE0E12E17EDF12E03E81FE320E038
:1012A00030E041E654E460E070E08FE294E40E94B4
:1012B000B306F7E08F2E912CA2E1AA2EB12CC12CFF
:1012C000D12C1EEAE12E17E4F12E01E81FE320E005
:1012D00030E842E254E460E070EC80E694E4F7CE5B
:1012E0002AE0822E912C3AE0A32EB12CC12CD12CD5
:1012F00018EBE12E1EE1F12E05E81FE320E030E0BF
:101300004AEF53E460E070E088EC92E40E94B30698
:1013100064EF71E080E090E00E94FD0388248394F4
:10132000912C20E030E048EC52E460E070E088EC82
:1013300093E4CDCED8E08D2E912C14E1A12EB12CCA
:10134000C12CD12C16E6E12EFE2C06E81FE320E08E
:1013500030E44CE155E460E070E88BEB94E40E94EB
:10136000B30699E1A92EB12CC12CD12C20E030E894
:101370004BEB54E460E070E38CE195E4A8CEE3E04D
:101380008E2E912CF8E0AF2EB12CC12CD12C16E66C
:10139000E12EFE2C06E81FE320E030E84BEB55E49D
:1013A00060E070E08AEF94E40E94B30662E370E0CC
:1013B00080E090E00E94FD03B2E08B2E912CCDE006
:1013C000AC2EB12CC12CD12C20E030E04AEF54E4FB
:1013D00060E078E78BEB95E47ACE48E0842E912CA0
:1013E0005FE0A52EB12CC12CD12C16E6E12EFE2CEF
:1013F00006E81FE320E030E04AEF54E460E070E8E4
:101400008BEB94E40E94B30664E670E080E090E029
:101410000E94FD037AE0A72EB12CC12CD12C20E034
:1014200030E44CE155E460E070E88DEE94E44FCE9A
:1014300098EC892E912C24E1A22EB12CC12CD12C18
:101440001CE5E12E1FE8F12E02E81FE320E030E466
:1014500047E254E460E070E08CE594E438CEF2E0DA
:101460008F2E912CA8E0AA2EB12CC12CD12C1AE0E1
:10147000E12E17EDF12E03E81FE320E030E844ED04
:1014800054E460E070E08AE794E40E94B306C3E0AD
:101490008C2E912C18EBE12E1EE1F12E05E81FE3B6
:1014A00020E030E04AEF53E460E070E684ED94E43D
:1014B0000E94B3061AE0812E912C09E0A02EB12CD7
:1014C000C12CD12C16E6E12EFE2C06E81FE320E00D
:1014D00030E844ED54E460E070E08AE794E4F7CD4E
:1014E0006FE0862E912C72E0A72EB12CC12CD12C4E
:1014F0001CE5E12E1FE8F12E02E81FE320E030E8B2
:101500004BE355E460E070E088EC94E4E0CD34E136
:10151000832E912C42E0A42EB12CC12CD12C1CE5A1
:10152000E12E1FE8F12E02E81FE320E030E84BEB4C
:1015300055E460E070E08AEF94E4C9CD84E1882E40
:10154000912C92E0A92EB12CC12CD12C1CE5E12EBE
:101550001FE8F12E02E81FE320E030E04AE755E4FF
:1015600060E070E088EC94E40E94B30620E030E88C
:101570004BE355E460E070E08AE795E4A8CD2FB72F
:10158000F8946091560270915702809158029091A0
:1015900059022FBF0895DC01EC918E2F90E0FC01E1
:1015A000EE0FFF1FE80FF91FE45BFC4F808186FF01
:1015B00002C08F7B80830895CF92DF92EF92FF92DB
:1015C000CF93DF93EC01603282E07807CCF5653B86
:1015D000710514F064EB70E0898128E830E0281B85
:1015E000310987FD3395220F331F220F331F690105
:1015F000330FEE08FF088A8128E532E0281B310905
:1016000087FD3395220F331F220F331F032E000C4B
:10161000440B550B2C193D094E095F09DB0177FF7F
:1016200002C0B0E0A0E00E940A2524EB30E040E0D8
:1016300050E00E94E024C20ED31EE41EF51EB60147
:10164000E881EC3070F5298188E890E0821B9109EF
:1016500027FD9395880F991F880F991F68177907A1
:101660007CF02A8188E592E0821B910927FD939501
:10167000880F991F880F991F681779070CF4CB0101
:101680000297880F991F4FB7F8942E2F30E0F90179
:10169000EE0FFF1FE20FF31FE45BFC4F9283818389
:1016A0004FBFDF91CF91FF90EF90DF90CF900895E3
:1016B0001F93CF93DF93EC01162F88818C3008F0B5
:1016C0004EC061E0812F0E9492038881282F30E074
:1016D000F901EE0FFF1FE20FF31FE45BFC4F1F73D6
:1016E0006081607C612B608319821A822CE0622FFA
:1016F0000E949B27829FB001112430E020E0AB01C3
:10170000420F531FFA01EE0FFF1FE40FF51FE45BBA
:10171000FC4F908196FD16C02F5F3F4F2C30310556
:1017200071F781110FC01092800082E080938100D8
:101730001092850010928400B19A80916F008260AF
:1017400080936F00E8818E2F90E0FC01EE0FFF1F69
:10175000E80FF91FE45BFC4F8081806480838881FF
:10176000DF91CF911F910895E09179038E2F90E042
:10177000FC01EE0FFF1FE80FF91FE45BFC4F8081B7
:1017800086FD58C0609121047091220489E793E09E
:101790000E94580B6AE570E089E793E00E94DC0A3A
:1017A0008EE190E0909397038093960380ED97E00D
:1017B000909381038093800380E090E0A4E8B2E4FA
:1017C0008093920390939303A0939403B093950313
:1017D0008AE198EFA2ECBDE380938E0390938F0390
:1017E000A0939003B09391031092980310929903E1
:1017F00010929A0310929B038DE290E090937D03E8
:1018000080937C0310928A0310928B0310928C03B6
:1018100010928D031092820310928303109284031E
:101820001092850310927F0310927E031092A00302
:101830001092A103E091A2038E2F90E0FC01EE0F25
:10184000FF1FE80FF91FE45BFC4F808186FD58C045
:10185000609123047091240482EA93E00E94580B63
:101860006AE570E082EA93E00E94DC0A8EE190E093
:101870009093C0038093BF0380ED97E09093AA03F9
:101880008093A90380E090E0A4E8B2E48093BB03D6
:101890009093BC03A093BD03B093BE038AE198EF7D
:1018A000A2ECBDE38093B7039093B803A093B90370
:1018B000B093BA031092C1031092C2031092C303F3
:1018C0001092C4038DE290E09093A6038093A50349
:1018D0001092B3031092B4031092B5031092B603A2
:1018E0001092AB031092AC031092AD031092AE03B2
:1018F0001092A8031092A7031092C9031092CA0372
:1019000008958F929F92AF92BF92CF92DF92EF9203
:10191000FF920F931F93CF93DF936C018B010E9473
:10192000B40B80915504811110925504F801C081C7
:10193000D181FBE0CF16D1048CF5609188037091C2
:1019400089036C0F7D1F89E793E00E94DC0AF80190
:10195000628173818091B1039091B203680F791F06
:1019600082EA93E00E94DC0AF801808191819093E1
:101970003204809331048281938190933404809364
:101980003304DF91CF911F910F91FF90EF90DF9083
:10199000CF90BF90AF909F908F9008950D2C000C2A
:1019A000EE08FF08C701B6010E94742620E030E06F
:1019B00040E251E40E94CA254B015C018091310450
:1019C00090913204BE01681B790B072E000C880B26
:1019D000990B0E947426A50194010E94CA25609368
:1019E0004504709346048093470490934804F8019B
:1019F000628173818091330490913404681B790B68
:101A0000072E000C880B990B0E947426A5019401E7
:101A10000E94CA256093490470934A0480934B0442
:101A200090934C040E94BF0AC60ED71EE81EF91EF2
:101A3000C0923D04D0923E04E0923F04F0924004F4
:101A4000C1E0D0E00E94BF0AC0903D04D0903E04A7
:101A5000E0903F04F09040046C157D058E059F05D5
:101A600008F082CF0E94BF0A665F7F4F8F4F9F4F63
:101A70006093410470934204809343049093440420
:101A8000BE010D2E000C880B990B0E9474266B0171
:101A90007C012091450430914604409147045091C7
:101AA00048040E9429274B015C0160913104709128
:101AB0003204072E000C880B990B0E9474269B01A0
:101AC000AC01C501B4010E9459250E943C26209119
:101AD000880330918903620F731F89E793E00E94A6
:101AE000DC0A2091490430914A0440914B04509102
:101AF0004C04C701B6010E9429276B017C0160914B
:101B0000330470913404072E000C880B990B0E944B
:101B100074269B01AC01C701B6010E9459250E94A1
:101B20003C262091B1033091B203620F731F82EA09
:101B300093E00E94DC0A0E94BF0AC0904104D0904A
:101B40004204E0904304F09044046C157D058E053A
:101B50009F0588F3219676CFCF93DF9300D000D0F6
:101B6000CDB7DEB78091550481111EC08091F5017B
:101B70009091F601A091F701B091F80189839A83C1
:101B8000AB83BC83BE016F5F7F4F84EF91E00E9407
:101B9000810C89E793E00E94CB0A82EA93E00E94DD
:101BA000CB0A81E0809355040F900F900F900F9017
:101BB000DF91CF910895CF93DF9300D000D0CDB7C0
:101BC000DEB74091F9015091FA016091FB017091EB
:101BD000FC0149835A836B837C83BE016F5F7F4F17
:101BE0000E94810C0F900F900F900F90DF91CF917A
:101BF0000895CF93DF9300D000D0CDB7DEB74091EA
:101C0000FD015091FE016091FF0170910002498336
:101C10005A836B837C83BE016F5F7F4F0E94810C70
:101C20000F900F900F900F90DF91CF910895CF9369
:101C3000DF9300D000D0CDB7DEB78091F501909151
:101C4000F601A091F701B091F80189839A83AB83E3
:101C5000BC83BE016F5F7F4F8CE291E00E94810CDC
:101C60000F900F900F900F90DF91CF9108954FB785
:101C7000F894282F30E0F901EF51FF4F9491F901CA
:101C8000E150FF4FE491E230E1F480916B00E92FE5
:101C9000E0958E2380936B0080916B00811105C0CD
:101CA000809168008E7F8093680080919D028E23D2
:101CB00080939D0290919A02E923E0939A024FBF8C
:101CC0000895E330D9F480916C00E92FE0958E23DC
:101CD00080936C0080916C00811105C08091680038
:101CE0008D7F8093680080919C028E2380939C025C
:101CF00090919902E923E0939902E1CFE430F9F65B
:101D000080916D00E92FE0958E2380936D00809186
:101D10006D00811105C0809168008B7F8093680001
:101D200080919B028E2380939B0290919802E923DD
:101D3000E0939802C4CFFC0101900020E9F73197AD
:101D4000AF01481B590BBC018FEA92E00C943301A0
:101D5000CF93DF930E942002EC0189E292E00E947F
:101D60009B0E8C0F9D1FDF91CF9108956EE170E067
:101D700080E090E00E94FD0382EA90E00E94200251
:101D800080EA90E00E9420028DE990E00E94A80E77
:101D90008FEA92E00C943B026EE170E080E090E00C
:101DA0000E94FD038AE990E00E94200288E990E009
:101DB0000E94200285E990E00E94A80E8FEA92E03E
:101DC0000C943B020E94CC0E0E94AC0D0C94B60EFB
:101DD0008F929F92AF92BF920F931F93CF93DF93F7
:101DE000CDB7DEB7A1970FB6F894DEBF0FBECDBF5B
:101DF00019A2423008F44AE08E010F5D1F4F842E75
:101E0000912CB12CA12CA50194010E94BE24E62F97
:101E1000B901CA01EA30F4F4E05DD801EE938D0116
:101E2000232B242B252B79F790E080E0109719F0D5
:101E3000CD010E949B0EA1960FB6F894DEBF0FBE97
:101E4000CDBFDF91CF911F910F91BF90AF909F9029
:101E50008F900895E95CE1CF0E94AC0D82E990E09B
:101E60000E9420028FE890E00E94200289E092E028
:101E70000E949B0E8CE890E00E94A80E8FEA92E0F0
:101E80000C943B02CF92DF92EF92FF92CF93DF93BD
:101E90006C01990FEE08FF08F7FE19C06DE28FEA9A
:101EA00092E00E94D301EC0166277727CB016C19E1
:101EB0007D098E099F094AE00E94E80E8C0F9D1F44
:101EC000DF91CF91FF90EF90DF90CF9008954AE09F
:101ED000C701B601DF91CF91FF90EF90DF90CF90D7
:101EE0000C94E80ECF93DF930E94AC0D80913B04DD
:101EF0000E94C30380913B040E94C303EC0164E091
:101F000070E080E090E00E94FD0380913B040E941D
:101F1000C303C80FD91F64E070E080E090E00E9426
:101F2000FD0380E890E00E9420028DE790E00E948F
:101F30002002CE01D7FD0196959587950E94420F0C
:101F40008AE790E00E94A80E8FEA92E0DF91CF919D
:101F50000C943B028F929F92AF92BF92CF92DF92EE
:101F6000EF92FF920E94AC0D0E9443076B017C012F
:101F700089E890E00E94200286E890E00E9420021A
:101F8000A7019601C701B6010E9496278823A1F0F8
:101F90008CE292E00E949B0E83E890E00E94A80EE3
:101FA0008FEA92E0FF90EF90DF90CF90BF90AF90DC
:101FB0009F908F900C943B0246015701E894B7F82C
:101FC0002FEF3FEF4FE75FE7C501B4010E9496276F
:101FD00081110DC02FEF3FEF4FE75FE7C501B4015F
:101FE0000E94C52518161CF480E392E0D3CF2FEF92
:101FF0003FEF4FE75FE4C701B6010E9424271816A0
:102000001CF484E392E0C6CF2FEF3FEF4FE75FEC85
:10201000C701B6010E94C52587FDF3CF20E030E05F
:10202000A901C701B6010E94C52587FF09C06DE25D
:102030008FEA92E00E94D301F7FAF094F7F8F09457
:102040002AE037ED43EA5BE3C701B6010E94592558
:102050004B015C010E9443266B017C010E947226A9
:102060009B01AC01C501B4010E9458254B015C01E4
:102070004AE0C701B6010E94E80E6EE28FEA92E0E4
:102080000E94D30120E030E040E251E4C501B401F8
:102090000E9429274B015C010E9443266B01F12C11
:1020A000E12C4AE0C701B6010E94E80EC701B60163
:1020B0000E9472269B01AC01C501B4010E94582503
:1020C00020E030E040E251E40E9429270E944326AC
:1020D00090E080E04AE00E94E80E5ECF81E08093CD
:1020E000640290916602911108C0809366026FE0CD
:1020F00070E080E090E00C94E402089581E0809329
:10210000650290916602911108C0809366026FE0AB
:1021100070E080E090E00C94E40208951F93CF9368
:10212000DF9320918304309184042E30310504F52F
:10213000EB01BC0115E2129FC001139F900D112409
:1021400043E250E08B579B4F0E94C4278091830449
:1021500090918404189FF001199FF00D1124E85507
:10216000FB4FD183C08301969093840480938304B2
:10217000DF91CF911F91089541E854E06CE774E03E
:1021800090E080E00C946624CF93DF9300D0CDB72D
:10219000DEB70E94CC0E0E94AC0D0E94BC100097CE
:1021A000C1F042E050E0BE016F5F7F4F0E945423B8
:1021B000609371037093720380937303909374031D
:1021C0000E94A7020E94B60E0F900F90DF91CF9150
:1021D00008956AE170E080E090E00E94E40260ED22
:1021E00077E080E090E00E94FD030E941A03EACFAE
:1021F000CF92DF92EF92FF920F931F93CF93DF93D3
:102200000E94CC0E0E94AC0D0E94BC1011E0009701
:1022100021F00E943F24EC0110E00E94BC100097C6
:1022200021F00E943F241123C1F06AE170E080E0B8
:1022300090E00E94E40260ED77E080E090E00E9490
:10224000FD030E941A03DF91CF911F910F91FF9020
:10225000EF90DF90CF900C94B60E6C01990FEE08C2
:10226000FF08BE01DD0F880B990B0E94742601E068
:1022700010E0A70196010E943004E5CF0E94CC0E29
:10228000809155048111109255040E94BC10009752
:1022900091F00E943F2490935F0280935E020E941F
:1022A000BC100097D9F00E943F24909301018093C5
:1022B00000010C94BC106AE170E080E090E00E94A4
:1022C000E40260ED77E080E090E00E94FD030E9470
:1022D0001A0310925F0210925E02E1CF88EE93E043
:1022E000E4CF2F923F924F925F926F927F928F92A4
:1022F0009F92AF92BF92CF92DF92EF92FF920F9395
:102300001F93CF93DF9300D000D0CDB7DEB70E94EC
:10231000CC0E0E94AC0D0E94BC100097C1F00E9430
:102320003F2401978D30910500F5FC01E656FE4EE5
:102330000C94A727CD11E811111282120E136B1302
:102340007C138D1306144914E314F41549166AE13D
:1023500070E080E090E00E94E40260ED77E080E0D1
:1023600090E00E94FD030E941A030F900F900F90BF
:102370000F90DF91CF911F910F91FF90EF90DF9021
:10238000CF90BF90AF909F908F907F906F905F9015
:102390004F903F902F900C94B60E0EE110E022E388
:1023A00030E040E050E064EA70ED84E294E40E94A2
:1023B00030046AE070E080E090E00E94E4028DE08A
:1023C00090E00E94BB078DE090E00E94BB0720C018
:1023D0006BE070E080E090E00E94E4028BE090E02F
:1023E0000E94BB076CE070E080E090E00E94E40295
:1023F0006BE070E080E090E00E94E4028CE090E00E
:102400000E94BB076CE070E080E090E00E94E40274
:102410000E94AC0D6BE070E080E090E00E94E4026E
:10242000A4CF66E170E080E090E00E94E40228EC36
:10243000822E912C34E1A32EB12CC12CD12C1CE581
:10244000E12E1FE8F12E02E81FE320E030E84FE420
:1024500054E460E070E08CE594E40E94B30668E127
:1024600070E080E090E00E94E40220E030E845E483
:1024700054E460E070E88FE494E40E94B30667E1FE
:1024800070E080E090E00E94E40220E030E049E368
:1024900054E460E070E885E494E40E94B30668E1E7
:1024A00070E080E090E00E94E40220E030E04FE243
:1024B00054E460E070E089E394E40E94B30667E1CD
:1024C00070E080E090E00E94E40220E030E447E227
:1024D00054E460E070E08FE294E40E94B30666E1A9
:1024E00070E080E090E00E94E40264EF71E080E040
:1024F00090E00E94FD030E94AC0D6CE271E080E070
:1025000090E0E6C024E030E03A83298350E040E0E8
:1025100061E070E080E090E00E942403BAE08B2E3E
:10252000912C1AE0A12EB12CC12CD12C18EBE12E4C
:102530001EE1F12E05E81FE320E030E048E453E41B
:1025400060E070E088EC92E40E94B30641E050E065
:1025500061E070E080E090E00E94240320E030E041
:1025600046E953E460E070E088E493E40E94B30637
:1025700042E050E061E070E080E090E00E942403DF
:1025800020E030E04AEF53E460E070E086E993E455
:102590000E94B30664EF71E080E090E00E94FD03CA
:1025A00041E050E061E070E080E090E00E942403B0
:1025B00088248394912C20E030E04AE753E460E0E3
:1025C00070E088EC93E40E94B30650E040E061E0E4
:1025D00070E080E090E00E94240320E030E048ECCE
:1025E00052E460E070E08AE793E40E94B30664EF8F
:1025F00071E080E090E00E94FD0389819A8101975B
:102600009A838983892B09F081CF63E170E080E0B0
:1026100090E00E94E40289E090E0D7CE6CE271E0A5
:1026200080E090E00E94FD0363E170E080E090E0D4
:102630000E94E40280E190E00E94BB0760E170E04C
:1026400080E090E00E94E4026AEF70E080E090E0B9
:102650000E94FD036CE271E080E090E00E94FD03C7
:1026600063E170E080E090E00E94E40281E190E0AC
:102670000E94BB0760E170E080E090E00E94E4020D
:102680006AEF70E080E090E00E94FD036CE271E090
:1026900080E090E00E94FD0363E170E080E090E064
:1026A0000E94E40282E190E00E94BB0760E170E0DA
:1026B00080E090E00E94E4026CE271E080E090E053
:1026C0000E94FD030E94AC0D64EF71E080E090E099
:1026D0000E94FD039FCE64E170E080E090E00E94E4
:1026E000E4028FE090E00E94BB0764EF71E080E0BD
:1026F00090E00E94FD038CCE6DE070E080E090E001
:102700000E94E40289E090E00E94BB070E94AC0DA9
:102710008DE090E00E94BB077DCE6EE170E080E02E
:1027200090E00E94E4020EE110E024E630E040E098
:1027300050E060E070E08CE594E40E94300444E0F6
:10274000842E912C57E0A52EB12CC12CD12C1CE548
:10275000E12E1FE8F12E02E81FE32FE135ED42E9FB
:1027600054E460E070E08CE594E40E94B3068824B1
:102770008394912CEAE0AE2EB12CC12CD12C2CE507
:102780003FEF43EC54E46FE175ED82E994E40E947D
:10279000B30620E030E04CE554E46CE57FEF83ECD9
:1027A00094E40E94B3066FE070E080E090E00E9445
:1027B000FD03F4E08F2E912CA4E1AA2EB12CC12CA4
:1027C000D12C24EA30ED44E254E460E070E08CE582
:1027D00094E40E94B30660E971E080E090E00E941A
:1027E000FD032FE135ED42E954E460E070E08CE553
:1027F00094E40E94B30624EA30ED44E254E460E03D
:1028000070E08CE594E40E94B30602CE6EE170E0C5
:1028100080E090E00E94E40294E0892E912C24E173
:10282000A22EB12CC12CD12C1CE5E12E1FE8F12EDB
:1028300002E81FE32FE135ED42E954E460E070E087
:102840008CE594E40E94B30624EA30ED44E254E4BB
:1028500060E070E08CE594E40E94B3066CE271E005
:1028600080E090E00E94FD0363E170E080E090E092
:102870000E94E4020E94AC0D0E94AC0D0E94AC0DBF
:102880000E94AC0D6EE170E080E090E00E94E402F6
:102890002CCF24E030E03A83298300E911E01C8248
:1028A0001B824B815C8162E070E080E090E00E94DE
:1028B0002403180134E6230E311CB801110F880BD4
:1028C000990B0E9474262B013C01B101032C000CD2
:1028D000880B990B0E9474269B01AC011AE0812E93
:1028E000912C0AE0A02EB12CC12CD12C18EBE12E9A
:1028F0001EE1F12E05E81FE3C301B2010E94B306F9
:102900008B819C8101969C838B838101069749F67C
:102910000E941A0318EBE12E1EE1F12E05E81FE3D9
:1029200020E030E849E854E4C301B2010E94B30654
:1029300028EE33E03C832B83312C212CA10162E073
:1029400070E080E090E00E9424036B817C816C59F0
:102950007F4F072E000C880B990B0E9474262B01C9
:102960003C012B813C81B901330F880B990B0E94EC
:102970007426EAE08E2E912CFAE0AF2EB12CC12CF9
:10298000D12C18EBE12E1EE1F12E05E81FE3A30187
:1029900092010E94B3068B819C81845691099C838D
:1029A0008B839FEF291A390A2B813C8120393140D2
:1029B00029F629813A81215031093A832983232B31
:1029C00009F06BCF9ACD82E090E09A83898384EFFF
:1029D00091E09C838B83312C212CA10163E070E07A
:1029E00080E090E00E9424036B817C816C597F4FD2
:1029F000072E000C880B990B0E9474262B013C01BA
:102A00002B813C81B901330F880B990B0E947426EE
:102A10003AE0832E912C4AE0A42EB12CC12CD12C6B
:102A20001CE5E12E1FE8F12E02E81FE3A30192014D
:102A30000E94B3068B819C818B599F4F9C838B8313
:102A40009FEF291A390A2AE02216310431F686EE60
:102A500095E09C838B83312C212CA10163E070E0F5
:102A600080E090E00E9424036B817C816C597F4F51
:102A7000072E000C880B990B0E9474262B013C0139
:102A80002B813C81B901330F880B990B0E9474266E
:102A9000AAE08A2E912CBAE0AB2EB12CC12CD12CFD
:102AA0001CE5E12E1FE8F12E02E81FE3A3019201CD
:102AB0000E94B3068B819C818B599F4F9C838B8393
:102AC0009FEF291A390A2AE02216310431F688EDDF
:102AD00099E09C838B83312C212CA10163E070E071
:102AE00080E090E00E9424036B817C816456710930
:102AF000072E000C880B990B0E9474262B013C01B9
:102B00002B813C81B901330F880B990B0E947426ED
:102B10005AE0852E912CEAE0AE2EB12CC12CD12C9E
:102B20001CE5E12E1FE8F12E02E81FE3A30192014C
:102B30000E94B3068B819C81855691099C838B836F
:102B40009FEF291A390A2B813C81263E354029F610
:102B5000312C212CA10163E070E080E090E00E9424
:102B600024036B817C8164567109072E000C880B4D
:102B7000990B0E9474262B013C012B813C81B901E9
:102B8000330F880B990B0E9474262AE0822E912C19
:102B90003AE0A32EB12CC12CD12C1CE5E12E1FE86C
:102BA000F12E02E81FE3A30192010E94B3068B817C
:102BB0009C81855691099C838B839FEF291A390A42
:102BC0002AE02216310431F689819A81019739F47D
:102BD0000E941A0364E670E080E090E079CD21E085
:102BE00030E03A832983F3CE6FE070E080E090E03C
:102BF0000E94E40220E436E03A83298329813A8165
:102C0000B901330F880B990B0E94742601E010E084
:102C10002FE030E040E050E00E94300489819A814A
:102C200044969A838983803F9A4041F76EE070E032
:102C300080E090E00E94E40229813A81B901330FDB
:102C4000880B990B0E94742601E010E02FE030E021
:102C500040E050E00E94300489819A8144969A8332
:102C60008983803A9F4041F76BE070E080E090E01C
:102C70000E94E4028CE090E00E94BB076CE070E0F0
:102C800080E090E00E94E4020E94AC0D0E941A03D2
:102C9000C1CB67E170E080E090E00E94E40201E0D7
:102CA00010E028EC30E040E050E060E070E081E6C9
:102CB00094E40E94300468E170E080E090E00E94BB
:102CC000E40228EC30E040E050E060E070E086E1B3
:102CD00094E40E94300464E170E080E090E00E949F
:102CE000E40228EC30E040E050E060E070E086E98B
:102CF00093E40E9430046AE170E080E090E00E947A
:102D0000E40289E793E00E94CB0A82EA93E00E9402
:102D1000CB0A28E938E040E050E060E070E086E16E
:102D200093E40E94300468E572E080E090E00E9445
:102D3000FD030E941A036BE070E080E090E00E94C7
:102D4000E4020E94AC0D11CB0E94CC0E0E94AC0D8F
:102D50000E94BC100097F1F00E943F24019783313C
:102D6000910530F5FC01E954F94E0C94A727DA16C9
:102D7000DF16E216E516E816EB16EE16F116F41657
:102D8000F716FA16FD1600170317061709170C1782
:102D90000F1712176AE170E080E090E00E94E402F1
:102DA00060ED77E080E090E00E94FD030E941A034E
:102DB0000C94B60E90E080E00E94BB07F9CF81E052
:102DC00090E0FACF86E090E0F7CF87E090E0F4CF94
:102DD00088E090E0F1CF89E090E0EECF8AE090E0EB
:102DE000EBCF8BE090E0E8CF8CE090E0E5CF8DE09A
:102DF00090E0E2CF8EE090E0DFCF8FE090E0DCCF9C
:102E000080E190E0D9CF81E190E0D6CF82E190E0FF
:102E1000D3CF83E090E0D0CF84E090E0CDCF85E0C9
:102E200090E0CACF82E090E0C7CFAF92BF92CF923E
:102E3000DF92EF92FF921F93CF93DF93CDB7DEB770
:102E400028970FB6F894DEBF0FBECDBF0E94CC0E00
:102E50008EE190E090935F0280935E020E94BC102E
:102E600011E0009721F00E943F245C0110E00E94D5
:102E7000BC10009791F10E943F246C010E94BC108D
:102E8000009769F10E943F247C010E94BC100097CA
:102E900021F00E943F24112321F16AE170E080E0DB
:102EA00090E00E94E40260ED77E080E090E00E9414
:102EB000FD030E941A030E94B60E28960FB6F894DE
:102EC000DEBF0FBECDBFDF91CF911F91FF90EF907E
:102ED000DF90CF90BF90AF90089511E0CFCF11E079
:102EE000D4CFBA82A982DC82CB82FE82ED8298871F
:102EF0008F83BE016F5F7F4F88EC90E00E94810C52
:102F0000DACFCF92DF92EF92FF920F931F93CF937E
:102F1000DF93CDB7DEB72B970FB6F894DEBF0FBEA9
:102F2000CDBF0E94AC0D1A821982FE01339689E052
:102F3000DF011D928A95E9F732977F0105E010E0E5
:102F40006F01C8010E949824D7018D937D010F5F06
:102F50001F4F00311105A9F78EE690E00E94200274
:102F60008BE690E00E942002C6010E949B0E88E63C
:102F700090E00E94A80E8FEA92E00E943B022B96FE
:102F80000FB6F894DEBF0FBECDBFDF91CF911F917A
:102F90000F91FF90EF90DF90CF900895FF920F93E5
:102FA0001F93CF93DF938C01EB01F8800E9498244C
:102FB000F81621F06F2DC8010E94A024CE01DF91E8
:102FC000CF911F910F91FF900895DF92EF92FF92A2
:102FD0000F931F93CF93DF93CDB7DEB72B970FB629
:102FE000F894DEBF0FBECDBF0E94CC0E0E94AC0D88
:102FF0001A821982FE01339689E0DF011D928A95BB
:10300000E9F70E94BC10009791F1FC01CE010196F6
:103010007C019F01245F3F4FDC018191882329F0CF
:10302000E217F30711F08D93F8CF05E010E0D70118
:10303000DD907D01C8010E949824D81621F06D2DE5
:10304000C8010E94A0240F5F1F4F0031110579F7BE
:103050002B960FB6F894DEBF0FBECDBFDF91CF9198
:103060001F910F91FF90EF90DF900C94B60E6AE1E4
:1030700070E080E090E00E94E40260ED77E080E0A4
:1030800090E00E94FD030E941A03E2CFFF920F938B
:103090001F93CF93DF930E94CC0E0E94AC0D0E9431
:1030A000BC10C1E0009729F00E943F24D82FF92ED0
:1030B000C0E00E94BC10009719F10E943F248C01CF
:1030C0000E94BC10892B09F4C1E00E94BC10892B1E
:1030D00011F0CC23B9F06AE170E080E090E00E944A
:1030E000E40260ED77E080E090E00E94FD030E9442
:1030F0001A03DF91CF911F910F91FF900C94B60EA0
:10310000C1E0DECFD0938803F09289031093B2031D
:103110000093B1036D2F90E080E00E94A0246091A5
:10312000B10381E090E00E94A0246091DA0382E084
:1031300090E00E94A0246091030483E090E00E944C
:10314000A024D7CFCF92DF92EF92FF920F931F93DD
:103150000E94AC0D60E080911D040E945B0283E040
:1031600090E00197F1F761E080911D040E945B02FD
:1031700083E290E00197F1F760E080911D040E94E6
:103180005B0280911F04909120049927FC01EF516C
:10319000FF4F6491FC01E150FF4FE491F0E0EE0F2E
:1031A000FF1FED53FF4F8591949100E41CE920E04F
:1031B00030E0462F0E947D1C611571058105910547
:1031C00029F06F5F7F4F8F4F9F4F9F702AE330E052
:1031D00040E050E00E94E02469017A01C114D1046A
:1031E000E104F10431F487EEC82E83E0D82EE12CFF
:1031F000F12C87E790E00E94200284E790E00E9493
:103200002002C701B6010E9474260E943C26CB0111
:103210000E94420F81E790E00E94A80E8FEA92E0A0
:103220001F910F91FF90EF90DF90CF900C943B0295
:103230001F920F920FB60F9211242F933F934F932B
:103240005F936F937F938F939F93AF93BF93EF930E
:10325000FF938091A3029091A402A091A502B09146
:10326000A602892B8A2B8B2BD1F190919E02E091A3
:103270009F02F091A0028081892780838091A30220
:103280009091A402A091A502B091A6021816190669
:103290001A061B069CF48091A3029091A402A091AF
:1032A000A502B091A6020197A109B1098093A302DA
:1032B0009093A402A093A502B093A602FF91EF9170
:1032C000BF91AF919F918F917F916F915F914F913E
:1032D0003F912F910F900FBE0F901F9018958091E6
:1032E0000401E3E1F1E0E4919FEF90930401E13008
:1032F00051F030F0E23069F060E00E945B02DECF16
:1033000010926E00F9CF90916F009D7F90936F00A7
:10331000F3CF909170009D7F9093700091E0909317
:10332000B0009091B100987F94609093B10010929A
:10333000B300E2CF1F920F920FB60F9211242F937A
:103340003F934F935F936F937F938F939F93AF932D
:10335000BF93EF93FF938FEA92E00E94B101FF9138
:10336000EF91BF91AF919F918F917F916F915F91FD
:103370004F913F912F910F900FBE0F901F90189576
:103380001F920F920FB60F9211242F938F939F933A
:10339000EF93FF93E091BF02F091C0028081E09132
:1033A000C502F091C60282FD1BC090818091C802C7
:1033B0008F5F8F732091C902821741F0E091C8029C
:1033C000F0E0E155FD4F958F8093C802FF91EF919A
:1033D0009F918F912F910F900FBE0F901F90189576
:1033E0008081F4CF1F920F920FB60F9211242F936A
:1033F0003F938F939F93AF93BF9380915602909189
:103400005702A0915802B09159023091550223E021
:10341000230F2D3758F50196A11DB11D209355029C
:103420008093560290935702A0935802B09359028A
:1034300080915A0290915B02A0915C02B0915D0272
:103440000196A11DB11D80935A0290935B02A09337
:103450005C02B0935D02BF91AF919F918F913F91BC
:103460002F910F900FBE0F901F90189526E8230FF5
:103470000296A11DB11DD2CF1F920F920FB60F92CF
:1034800011242F933F934F935F936F937F938F9369
:103490009F93AF93BF93CF93DF93EF93FF9380916D
:1034A0005402C0917003D0E087FF24C010928500C1
:1034B00010928400809154028F5F80935402809117
:1034C0005402082E000C990B8C179D0724F4809150
:1034D00054028C30C4F18091840090918500049650
:1034E00080349C4908F47AC08091840090918500D2
:1034F000049676C080915402082E000C990B8C170C
:103500009D07C4F6E09154028E2FEE0F990BFC013B
:10351000EE0FFF1FE80FF91FE45BFC4F808186FF71
:10352000C9CFE09154028E2FEE0F990BFC01EE0FE4
:10353000FF1FE80FF91FE45BFC4F808160E08F7391
:103540000E945B02B7CF2091840030918500E0910A
:1035500054028E2FEE0F990BFC01EE0FFF1FE80FA8
:10356000F91FE45BFC4F81819281820F931F90933E
:10357000890080938800E09154028E2FEE0F990B02
:10358000FC01EE0FFF1FE80FF91FE45BFC4F808189
:1035900086FF11C0E09154028E2FEE0F990BFC01B3
:1035A000EE0FFF1FE80FF91FE45BFC4F808161E025
:1035B0008F730E945B02FF91EF91DF91CF91BF91DA
:1035C000AF919F918F917F916F915F914F913F91BB
:1035D0002F910F900FBE0F901F90189580E49CE9DB
:1035E00090938900809388008FEF80935402E3CFFB
:1035F0001F920F920FB60F9211242F933F934F9368
:103600005F936F937F938F939F93AF93BF93CF936A
:10361000EF93FF9399B1C0916B0280919B0230911F
:103620009802292F209523238923822B20916D0036
:10363000C927C223C82390936B02CC23C1F1C0FFDA
:1036400005C0E0916C02F0916D020995C1FF05C0C3
:10365000E0916E02F0916F020995C2FF05C0E09102
:103660007002F09171020995C3FF05C0E0917202EA
:10367000F09173020995C4FF05C0E0917402F091C6
:1036800075020995C5FF05C0E0917602F0917702B9
:103690000995C6FF05C0E0917802F091790209957D
:1036A000C7FF05C0E0917A02F0917B020995FF9176
:1036B000EF91CF91BF91AF919F918F917F916F913A
:1036C0005F914F913F912F910F900FBE0F901F90E0
:1036D00018951F920F920FB60F9211242F933F93BC
:1036E0004F935F936F937F938F939F93AF93BF930A
:1036F000CF93EF93FF9396B1C0917C0280919C028F
:1037000030919902292F209523238923822B209100
:103710006C00C927C223C82390937C02CC2351F1AB
:10372000C0FF05C0E0917D02F0917E020995C1FFC6
:1037300005C0E0917F02F09180020995C2FF05C0AB
:10374000E0918102F09182020995C3FF05C0E091EA
:103750008302F09184020995C4FF05C0E0918502BF
:10376000F09186020995C5FF05C0E0918702F091AE
:1037700088020995FF91EF91CF91BF91AF919F91F1
:103780008F917F916F915F914F913F912F910F900A
:103790000FBE0F901F9018951F920F920FB60F92A9
:1037A00011242F933F934F935F936F937F938F9346
:1037B0009F93AF93BF93CF93EF93FF9393B1C09138
:1037C0008B0280919D0230919A02292F209523230C
:1037D0008923822B20916B00C927C223C823909391
:1037E0008B02CC2351F1C0FF05C0E0918C02F09117
:1037F0008D020995C1FF05C0E0918E02F0918F0204
:103800000995C2FF05C0E0919002F09191020995DF
:10381000C3FF05C0E0919202F09193020995C4FFA5
:1038200005C0E0919402F09195020995C5FF05C08D
:10383000E0919602F09197020995FF91EF91CF9157
:10384000BF91AF919F918F917F916F915F914F91B8
:103850003F912F910F900FBE0F901F9018951F92C0
:103860000F920FB60F9211242F933F934F935F93B4
:103870006F937F938F939F93AF93BF93EF93FF9338
:10388000E0916902F0916A020995FF91EF91BF9171
:10389000AF919F918F917F916F915F914F913F91E8
:1038A0002F910F900FBE0F901F9018951F920F929F
:1038B0000FB60F9211242F933F934F935F936F9303
:1038C0007F938F939F93AF93BF93EF93FF93E09179
:1038D0006702F09168020995FF91EF91BF91AF9156
:1038E0009F918F917F916F915F914F913F912F9118
:1038F0000F900FBE0F901F901895CF92DF92EF920E
:10390000FF920F931F93E82FF92F05C00150110963
:103910002109310961F1908196239417B9F305C00B
:10392000015011092109310911F190819623941355
:10393000F7CFC12CD12CE12CF12C0AC08FEFC81A83
:10394000D80AE80AF80A0C151D052E053F0579F07E
:1039500080818623841791F36C2D7D2D8E2D9F2DD4
:103960001F910F91FF90EF90DF90CF90089560E04E
:1039700070E080E090E01F910F91FF90EF90DF905A
:10398000CF9008951092B2021092B10288EE93E0A7
:10399000A0E0B0E08093B3029093B402A093B5028C
:1039A000B093B6028BE192E09093B0028093AF02A5
:1039B00085EC90E09093BC028093BB0284EC90E095
:1039C0009093BE028093BD0280EC90E09093C00281
:1039D0008093BF0281EC90E09093C2028093C10279
:1039E00082EC90E09093C4028093C30286EC90E056
:1039F0009093C6028093C5021092C8021092C90229
:103A00001092CA021092CB0280E290E090937D0463
:103A100080937C048DE080937E0410928404109245
:103A20008304E7E5F4E0119284E0EA37F807D9F778
:103A300010927B0410927A04109271031092720318
:103A400010927303109274038BE0809375038DE0E2
:103A5000809376038CE08093770361E08BE00E9493
:103A6000920361E0809176030E94920361E080916D
:103A700077030E94920360E0809175030E945B02CD
:103A800060E0809176030E945B0260E080917703A2
:103A90000E945B020E94A702E9E7F3E02FEF48EBE8
:103AA0005BE0809170038C30C8F491E0980F9093A4
:103AB0007003808390E0DC01AA0FBB1FA80FB91F21
:103AC000A45BBC4F12965C934E931197108A178695
:103AD000B99684E0ED31F80721F708952083F6CFF9
:103AE000CF93DF93CDB7DEB766970FB6F894DEBFFE
:103AF0000FBECDBF789484B5826084BD84B58160EB
:103B000084BD85B5826085BD85B5816085BD8091A8
:103B10006E00816080936E00109281008091810020
:103B20008260809381008091810081608093810018
:103B3000809180008160809380008091B1008460DA
:103B40008093B1008091B00081608093B00080913B
:103B50007A00846080937A0080917A0082608093FA
:103B60007A0080917A00816080937A0080917A0057
:103B7000806880937A001092C100E091BF02F091BA
:103B8000C00282E08083E091BB02F091BC0210820F
:103B9000E091BD02F091BE0280E180831092C702E5
:103BA000E091C302F091C40286E08083E091C102FB
:103BB000F091C202808180618083E091C102F09126
:103BC000C202808188608083E091C102F091C202CC
:103BD000808180688083E091C102F091C20280817F
:103BE0008F7D808360E086E00E94920360E087E042
:103BF0000E94920384E090E0909322048093210439
:103C000085E090E090932404809323040E94B40BF9
:103C1000109255048AE590E0909332048093310429
:103C2000909334048093330488E090E090931E04D2
:103C300080931D0489E090E09093200480931F04FA
:103C400061E088E00E94920360E080911F040E947E
:103C500092038AE090E090933A048093390484E1DF
:103C600090E090933C0480933B0461E08AE00E94E2
:103C7000920360E084E10E94920384E10E94C30306
:103C8000BC01990F880B990B611571058105910590
:103C900011F00E944B236EE770E186E00E94B500B0
:103CA0006EE670E187E00E94B50062EE7EE088E398
:103CB00092E00E948E1064EC70E18AE392E00E9430
:103CC0008E1068EF70E18CE392E00E948E106EE33C
:103CD00071E18EE392E00E948E1061E771E180E471
:103CE00092E00E948E1064EA76E182E492E00E9403
:103CF0008E1066E478E184E492E00E948E1065E123
:103D000077E186E492E00E948E1065EE77E188E428
:103D100092E00E948E1061E877E18AE492E00E94CE
:103D20008E1062EA78E18CE492E00E948E1062E7E5
:103D30007FE08EE492E00E948E106AEA7FE080E5E8
:103D400092E00E948E106CE27FE082E592E00E9499
:103D50008E1082EE9EE090938C0680938B0690E00E
:103D600080E00E94BB070E94AC0D85E090E00E94BD
:103D700098248432D9F466E172E085E090E00E94F4
:103D8000CE171982BE016F5F7F4F86E090E00E94E0
:103D9000CE176DE170E080E090E00E94E40268EEF2
:103DA00073E080E090E00E94FD03F9CF0E9481174C
:103DB00062E370E080E090E00E94FD030E942C0F1F
:103DC00062E370E080E090E00E94FD030E94AA0F91
:103DD0000E94430720E030E044E352E40E94C525FE
:103DE00087FF41C08091660281113DC06CE170E0A7
:103DF00080E090E00E94E40273E0872E912CE8E0DE
:103E0000AE2EB12CC12CD12C18EBE12E1EE1F12EDF
:103E100005E81FE320E030E04AEF54E460E070E0A2
:103E20008CE594E40E94B3066EE170E080E090E0DF
:103E30000E94FD031CE5E12E1FE8F12E02E81FE3BE
:103E400020E030E04CE554E460E070E08AEF94E478
:103E50000E94B3060E941A0364EF71E080E090E0D4
:103E60000E94FD03BFCF10E000E080916602811147
:103E700011C0A80160E070E0CB010E94240366E954
:103E800070E080E090E00E94FD030F5F1F4F08305C
:103E9000110559F710E000E080916602811111C010
:103EA000A80160E070E0CB010E94240366E970E0A5
:103EB00080E090E00E94FD030F5F1F4F0830110566
:103EC00059F780916602811110C06AE070E080E0CD
:103ED00090E00E94E4028BE090E00E94BB0768EC57
:103EE00070E080E090E00E94FD0385E090E00E9499
:103EF00098248332F1F48091660281110EC090E023
:103F000080E00E94F90D90E080E00E94DB0D68ECFB
:103F100070E080E090E00E94FD03809166028111D4
:103F200008C06FE070E080E090E00E94E4020E9430
:103F3000AC0D80916602811106C06BE070E080E0FC
:103F400090E00E94E4020E94BF0A609360027093B6
:103F5000610280936202909363022091010229879B
:103F6000809102028A87209003023090040290918F
:103F700005029B87E0910602EC87F0910702FD871E
:103F8000209108022E879F87E88BF98B2A8B8985E1
:103F90008B8B9A859C8B2D8A3E8A66246394712C28
:103FA0008FEA92E00E94910118161906C4F48091DC
:103FB000020190910301029791F0709203016092C7
:103FC00002016BE070E080E090E00E94E40286E095
:103FD0000E94370E87E00E94370E10926602809191
:103FE0006602882309F461C00E94AC0D64E670E0AB
:103FF00080E090E00E94FD0382E090E00E94BB0719
:1040000068EC70E080E090E00E94FD038091650222
:10401000882321F080916402882389F080916502D1
:10402000811115C080916402882389F082E090E0BC
:10403000909303018093020184E090E006C07092A7
:1040400003016092020183E090E00E94BB0760914F
:10405000020170910301072E000C880B990B0E943E
:10406000E40208EC10E06AE070E080E090E00E947A
:10407000FD0301501109B9F76BE070E080E090E0BA
:104080000E94E4021092660210926502109264028D
:1040900080E090E0892B09F483CF0E949D01882362
:1040A00009F47ECF0E9400007BCF809102019091A5
:1040B00003018130910509F4E7C08230910509F4CC
:1040C0006CC1892B09F047C20E94BF0A00916002AF
:1040D000109161022091620230916302601B710BAA
:1040E000820B930B603878438140910588F21D82E2
:1040F0001E821F8218868AE590E09A8389839C83BA
:104100008B8380916602811107C0BE016F5F7F4F74
:104110008CEB92E00E94810C54E0452E512C809152
:10412000660281118CC050E040E061E070E080E008
:1041300090E00E9424032AE0822E912C3AE0A32EE4
:10414000B12CC12CD12C18EBE12E1EE1F12E05E88B
:104150001FE320E030E048E453E460E070E088ECE6
:1041600092E40E94B30680916602811168C041E02A
:1041700050E061E070E080E090E00E94240320E0E5
:1041800030E046E953E460E070E088E493E40E94A4
:10419000B30680916602811152C042E050E061E0B6
:1041A00070E080E090E00E94240320E030E04AEFDD
:1041B00053E460E070E086E993E40E94B30664EFA4
:1041C00071E080E090E00E94FD0380916602811121
:1041D00036C041E050E061E070E080E090E00E9495
:1041E000240388248394912C20E030E04AE753E4B0
:1041F00060E070E088EC93E40E94B3068091660270
:1042000081111DC050E040E061E070E080E090E08E
:104210000E94240320E030E048EC52E460E070E0CB
:104220008AE793E40E94B30664EF71E080E090E0D7
:104230000E94FD0391E0491A510809F070CF809166
:10424000660281110AC063E170E080E090E00E94A4
:10425000E40289E090E00E94BB070E94AC0D8091CF
:104260006602811106C06BE070E080E090E00E9481
:10427000E4020E94BF0A609360027093610280931F
:1042800062029093630204CF62E370E080E090E00A
:104290000E94FD0380916602811174C06EE070E09F
:1042A00080E090E00E94E40287E090E00E94BB077B
:1042B000809166028111ECCE0E94FC222BE030E05E
:1042C00040E050E00E94E024665F7F4F8F4F9F4F99
:1042D0000E94E4020E94FC2288EB9BE00E94DB0D1E
:1042E00064E670E080E090E00E94FD030E94170EFB
:1042F00064E670E080E090E00E94FD0388EB9BE0C4
:104300000E94F90D64E670E080E090E00E94FD03F9
:104310000E94170E64E670E080E090E00E94FD03CA
:10432000E985E983FA85FA832B823C82BE016F5FBF
:104330007F4F88EE93E00E94810C64E670E080E09D
:1043400090E00E94FD030E94170E64E670E080E09A
:1043500090E00E94FD032B8529838C858A839D85AF
:104360009B83EE85EC83BE016F5F7F4F88EE93E009
:104370000E94810C0E94AC0D64EF71E080E090E03F
:104380000E94FD0380916602811182CE6BE070E095
:1043900080E090E00E94E4027BCE11E08FEA92E0A0
:1043A0000E949101181619060CF08CC0112309F413
:1043B00089C08FEA92E00E946F0180935604909129
:1043C0007E04891348C010927B0410927A0441E85D
:1043D00054E06CE774E087E594E00E9466247C0179
:1043E0009093800480937F04892B09F46BC0A09084
:1043F0008304B090840486E5C82E84E0D82E10E0B3
:1044000000E00A151B050CF050C0B601615D7F4F3E
:1044100043E250E0C7010E94B627F5E2CF0ED11C5F
:10442000892B09F03FC025E2209FF001219FF00D6C
:104430001124E855FB4F0190F081E02D0995E7E547
:10444000F4E0119284E0EA37F807D9F710927B0480
:1044500010927A0410E000915604802F002E000C78
:10446000990B0E94AF27892B09F498CF80917A0489
:1044700090917B049C012F5F3F4F30937B042093EE
:104480007A048A5A9B4FFC010183F901EA5AFB4FD7
:104490001182233231050CF481CF10927B041092EB
:1044A0007A047CCF0F5F1F4FACCFE0918B06F09169
:1044B0008C060995E7E5F4E0119294E0EA37F907F4
:1044C000D9F7C4CF809155048111E2CD80915E026D
:1044D00090915F028230910551F1BCF4009711F187
:1044E000019709F0D5CD8091000190910101FB89E0
:1044F000F9832C892A83ED89EB83FE89FC83BE0135
:104500006F5F7F4F0E94810C0FC083309105E1F0F7
:10451000049709F0BDCD80910001909101010E94A6
:10452000F90D02C00E94AC0D0E94B60EB1CD809173
:104530000001909101012F852983E889EA83F98997
:10454000FB832A892C83DBCF8091000190910101AC
:104550000E94DB0DE9CF709203016092020198CDB9
:104560008F929F92AF92BF92CF92DF92EF92FF9283
:10457000CF93DF93EC01688179818A819B816115FA
:1045800071058105910521F464E279ED8BE597E0F1
:104590002DE133EF41E050E00E94E02449015A014F
:1045A0009B01AC01A7EAB1E40E94FF246B017C01EE
:1045B000ACEEB4EFA50194010E940D25C60ED71EE6
:1045C000E81EF91EF7FE06C081E0C81AD108E1080E
:1045D00080E8F80AC882D982EA82FB82C701B60164
:1045E0009F77DF91CF91FF90EF90DF90CF90BF90BA
:1045F000AF909F908F9008958F929F92AF92BF92AD
:10460000CF92DF92EF92FF926091050170910601C7
:10461000809107019091080161157105810591054F
:1046200021F464E279ED8BE597E02DE133EF41E091
:1046300050E00E94E02449015A019B01AC01A7EA25
:10464000B1E40E94FF246B017C01ACEEB4EFA50144
:1046500094010E940D25C60ED71EE81EF91EF7FE16
:1046600006C081E0C81AD108E10880E8F80AC092C3
:104670000501D0920601E0920701F0920801C701FE
:10468000B6019F77FF90EF90DF90CF90BF90AF90F3
:104690009F908F9008956093050170930601809319
:1046A0000701909308010895B0E0A0E0EAE5F3E285
:1046B0000C9413255C016B017A016115710519F0E9
:1046C000FB0191838083E114F10449F0C701029753
:1046D000839728F060E070E0CB019CC05E01E501AB
:1046E0002196F5011081812F90E00E945D24892B95
:1046F000A9F71D3209F056C02196F501118101E09C
:10470000E114F10409F4AEC0F0E1EF16F10409F090
:104710008EC0103341F488818F7D883509F083C0C5
:10472000198122960260E0E1EE2EF12C88248A9411
:10473000982CA82CFFE0BF2E20E060E070E0CB01B9
:1047400027010F2C000C66087708FE0150ED352E6E
:10475000310E39E0331538F43FEB310F3A31A0F523
:1047600049EC342E310E3E141F04BCF52F3FB9F036
:1047700086169706A806B90670F1A30192010E9459
:10478000AE24232D30E050E040E0620F731F841F01
:10479000951F6217730784079507E8F021E02196BB
:1047A0001081D3CF1B3221F4E5012296F50111814E
:1047B00000E0A6CF78E0E72EF12C88248A94982C8C
:1047C000A82C6FE1B62EB8CF3FE9310F3A3128F46B
:1047D00039EA332EC7CF2FEFE2CFC114D10431F025
:1047E0002223E9F02197F601D183C08300FF07C09F
:1047F00090958095709561957F4F8F4F9F4F2F3F7C
:1048000049F482E290E09093900680938F066FEFD8
:104810007FEFCB01CDB7DEB7E1E10C942F2501FF8F
:10482000E5CF2297E0CF10E3E114F10419F23AE06A
:10483000E316F104E9F080E1E816F10409F473CF1E
:10484000E8E0EE16F10409F4B8CF6FEF7FEFCB018B
:1048500097010F2C000C440B550B0E94BE244901FC
:104860005A016ACF103309F456CF9AE0E92EF12CA1
:1048700089E9882E982CA82C89E1B82E5DCFFC01FF
:1048800088279927E89421912032E9F3293010F004
:104890002E30C8F32B3241F02D3239F4689404C025
:1048A0000E948D24820F911D219120532A30C0F344
:1048B0001EF4909581959F4F089591110C94952425
:1048C000803219F089508550C8F70895FA01A191F6
:1048D000B081009719F41097E1F0CD01DC01CD0112
:1048E0000D90002011F4C00113C0FB01219122237F
:1048F00019F02015D9F7F3CFFB012191201519F4F8
:104900001E92119606C02223C1F70D900020A1F738
:10491000D001FA01A193B08308957AE0979F902D7A
:10492000879F802D910D1124089599278827089538
:10493000F999FECF92BD81BDF89A992780B5089567
:10494000262FF999FECF1FBA92BD81BD20BD0FB6AB
:10495000F894FA9AF99A0FBE01960895DB018F93A5
:104960009F930E94FF24BF91AF91A29F800D911D44
:10497000A39F900DB29F900D11240895A1E21A2ECD
:10498000AA1BBB1BFD010DC0AA1FBB1FEE1FFF1FF3
:10499000A217B307E407F50720F0A21BB30BE40B43
:1049A000F50B661F771F881F991F1A9469F760958A
:1049B0007095809590959B01AC01BD01CF01089544
:1049C000052E97FB1EF400940E94F72457FD07D094
:1049D0000E94BE2407FC03D04EF40C94F72450959B
:1049E0004095309521953F4F4F4F5F4F08959095DB
:1049F0008095709561957F4F8F4F9F4F08950E94CE
:104A00004925A59F900DB49F900DA49F800D911DE9
:104A100011240895B7FF0C94FF240E94FF24821BE9
:104A2000930B08952F923F924F925F926F927F92D5
:104A30008F929F92AF92BF92CF92DF92EF92FF92AE
:104A40000F931F93CF93DF93CDB7DEB7CA1BDB0B5A
:104A50000FB6F894DEBF0FBECDBF09942A883988FF
:104A600048885F846E847D848C849B84AA84B98406
:104A7000C884DF80EE80FD800C811B81AA81B98112
:104A8000CE0FD11D0FB6F894DEBF0FBECDBFED0126
:104A90000895A29FB001B39FC001A39F700D811D17
:104AA0001124911DB29F700D811D1124911D089537
:104AB0005058BB27AA270E9470250C94EA260E9412
:104AC000DC2638F00E94E32620F039F49F3F19F4E9
:104AD00026F40C94D9260EF4E095E7FB0C94D3262B
:104AE000E92F0E94FB2658F3BA1762077307840761
:104AF000950720F079F4A6F50C941D270EF4E095A7
:104B00000B2EBA2FA02D0B01B90190010C01CA0187
:104B1000A0011124FF27591B99F0593F50F4503E32
:104B200068F11A16F040A22F232F342F4427585F24
:104B3000F3CF469537952795A795F0405395C9F73C
:104B40007EF41F16BA0B620B730B840BBAF09150F4
:104B5000A1F0FF0FBB1F661F771F881FC2F70EC093
:104B6000BA0F621F731F841F48F487957795679566
:104B7000B795F7959E3F08F0B0CF9395880F08F052
:104B80009927EE0F9795879508950E94AF2608F410
:104B900081E008950E94DE250C94EA260E94E32617
:104BA00058F00E94DC2640F029F45F3F29F00C9475
:104BB000D32651110C941E270C94D9260E94FB2653
:104BC00068F39923B1F3552391F3951B550BBB273C
:104BD000AA2762177307840738F09F5F5F4F220F81
:104BE000331F441FAA1FA9F335D00E2E3AF0E0E878
:104BF00032D091505040E695001CCAF72BD0FE2FC2
:104C000029D0660F771F881FBB1F26173707480755
:104C1000AB07B0E809F0BB0B802DBF01FF2793580D
:104C20005F4F3AF09E3F510578F00C94D3260C94D8
:104C30001E275F3FE4F3983ED4F3869577956795FA
:104C4000B795F7959F5FC9F7880F911D9695879542
:104C500097F90895E1E0660F771F881FBB1F621761
:104C600073078407BA0720F0621B730B840BBA0B1F
:104C7000EE1F88F7E09508950E9443266894B111CD
:104C80000C941E2708950E94032788F09F5798F0E0
:104C9000B92F9927B751B0F0E1F0660F771F881F41
:104CA000991F1AF0BA95C9F714C0B13091F00E945B
:104CB0001D27B1E008950C941D27672F782F8827B2
:104CC000B85F39F0B93FCCF3869577956795B39582
:104CD000D9F73EF490958095709561957F4F8F4FF1
:104CE0009F4F0895E89409C097FB3EF490958095F6
:104CF000709561957F4F8F4F9F4F9923A9F0F92FA2
:104D000096E9BB279395F695879577956795B7951F
:104D1000F111F8CFFAF4BB0F11F460FF1BC06F5F05
:104D20007F4F8F4F9F4F16C0882311F096E911C017
:104D3000772321F09EE8872F762F05C0662371F038
:104D400096E8862F70E060E02AF09A95660F771F4C
:104D5000881FDAF7880F9695879597F90895990F28
:104D60000008550FAA0BE0E8FEEF16161706E80735
:104D7000F907C0F012161306E407F50798F0621B56
:104D8000730B840B950B39F40A2661F0232B242B2B
:104D9000252B21F408950A2609F4A140A6958FEF4A
:104DA000811D811D089597F99F6780E870E060E09C
:104DB00008959FEF80EC089500240A9416161706B4
:104DC00018060906089500240A94121613061406FC
:104DD00005060895092E0394000C11F4882352F05F
:104DE000BB0F40F4BF2B11F460FF04C06F5F7F4F17
:104DF0008F4F9F4F089557FD9058440F551F59F0FE
:104E00005F3F71F04795880F97FB991F61F09F3FB7
:104E100079F087950895121613061406551FF2CFE0
:104E20004695F1DF08C0161617061806991FF1CF30
:104E300086957105610508940895E894BB27662757
:104E40007727CB0197F908950E94AF2608F48FEFDA
:104E500008950E943C270C94EA260E94DC2638F034
:104E60000E94E32620F0952311F00C94D3260C9495
:104E7000D92611240C941E270E94FB2670F3959FBF
:104E8000C1F3950F50E0551F629FF001729FBB2741
:104E9000F00DB11D639FAA27F00DB11DAA1F649FDD
:104EA0006627B00DA11D661F829F2227B00DA11D90
:104EB000621F739FB00DA11D621F839FA00D611D16
:104EC000221F749F3327A00D611D231F849F600D37
:104ED000211D822F762F6A2F11249F5750409AF060
:104EE000F1F088234AF0EE0FFF1FBB1F661F771FEC
:104EF000881F91505040A9F79E3F510580F00C94B7
:104F0000D3260C941E275F3FE4F3983ED4F3869596
:104F100077956795B795F795E7959F5FC1F7FE2B56
:104F2000880F911D9695879597F908950E94AF2651
:104F3000880B990B0895991B79E004C0991F961767
:104F400008F0961B881F7A95C9F780950895EE0F93
:104F5000FF1F0590F491E02D0994803209F0911122
:104F60000C94952480528F55D8F70895FB01DC01ED
:104F70004150504030F08D910190801919F400207B
:104F8000B9F7881B990B0895FB01DC014150504093
:104F900048F001900D920020C9F701C01D924150C8
:0A4FA0005040E0F70895F894FFCFA9
:104FAA00E8030100FF010000008C24490C0E413087
:104FBA00041E42480C8C44480C82E049129CC041B1
:104FCA001E8CC421041042081E8CC4480C8EE04872
:104FDA000C002385000023FD0000E0FD008C14B6C0
:104FEA00128C144A0C00C300008091243F80D4B66E
:104FFA003F0020B53F00F0030080582100028140A5
:10500A002040283100C02F3100C0EC310000420995
:10501A0001A1C448210441480C10C2210480D4864D
:10502A000040187A0000C3000080610000C0300010
:10503A00008061000000C3000000860100000C032C
:10504A000000860100300C0000100A0100184962B5
:10505A0000100A010021000021520884128C144A0F
:10506A000C0023310000C000000000000000104ABC
:10507A000C00082506208410033042080118290470
:10508A00008C1402004602810003814020814020E6
:10509A0030402090185A005A0064005500550064A8
:1050AA000055005500640064005A4F57495F424159
:1050BA0053455F7632002300000000D301330160BC
:1050CA00013B0291016F0183010D0A006E616E00BE
:1050DA00696E66006F76660053004C0054004D00FE
:1050EA0048004B00430047005200450044004E0070
:0450FA004200490027
:00000001FF
