:100000000C9481000C94F61A0C94CF1A0C94A9004D
:100010000C94A9000C94A9000C94A9000C94AB19A1
:100020000C94A9000C94A9000C94A9000C941D1B1D
:100030000C94A9000C94A9000C94A9000C94A9009C
:100040000C94851A0C94A9000C94531A0C942D1A34
:100050000C94A9000C94A9000C94A9000C94A9007C
:100060000C94A9000C94A900252500452000262603
:10007000002525004420002626002525004E2000CE
:100080002626002525004220002626002525004999
:1000900020002626002525004100262600252500D3
:1000A000460026260000000000230026002900004C
:1000B000000000240027002A0000000008000201C0
:1000C000000003040700000000000000000102041B
:1000D00008102040800102040810200102040810CA
:1000E0002000000000250028002B00040404040464
:1000F00004040402020202020203030303030302D4
:100100001E1C11241FBECFEFD8E0DEBFCDBF12E012
:10011000A0E0B1E0EAEBF6E502C005900D92A03E4A
:10012000B107D9F726E0A0EEB2E001C01D92A63DCE
:10013000B207E1F710E0C1E8D0E004C02197FE016A
:100140000E948E28C038D107C9F70E94E71C0C9482
:100150005B2B0C94000080912A0390912B03019655
:1001600090932B0380932A0308950895AF92BF9232
:10017000CF92DF92EF92FF920F931F93CF93DF9373
:100180006C017B018B01040F151FEB015E01AE18A2
:10019000BF08C017D10759F06991D601ED91FC91C4
:1001A0000190F081E02DC6010995892B79F7C501F1
:1001B000DF91CF911F910F91FF90EF90DF90CF9043
:1001C000BF90AF900895FC01538D448D252F30E0F2
:1001D000842F90E0821B930B541710F0CF96089554
:1001E00001970895FC01918D828D981761F0A28D81
:1001F000AE0FBF2FB11D5D968C91928D9F5F9F7347
:10020000928F90E008958FEF9FEF0895FC01918DFC
:10021000828D981731F0828DE80FF11D858D90E069
:1002200008958FEF9FEF0895FC01918D228D892F06
:1002300090E0805C9F4F821B91098F7399270895EE
:100240008DE393E00E94140121E0892B09F420E062
:10025000822F089580E090E0892B29F00E942001F0
:1002600081110C9400000895FC01A48DA80FB92FF2
:10027000B11DA35ABF4F2C91848D90E001968F73CE
:100280009927848FA689B7892C93A089B1898C91ED
:10029000837080648C93938D848D981306C002883C
:1002A000F389E02D80818F7D80830895EF92FF9206
:1002B0000F931F93CF93DF93EC0181E0888F9B8D89
:1002C0008C8D98131AC0E889F989808185FF15C043
:1002D0009FB7F894EE89FF896083E889F989808166
:1002E0008370806480839FBF81E090E0DF91CF9135
:1002F0001F910F91FF90EF900895F62E0B8D10E057
:100300000F5F1F4F0F731127E02E8C8D8E110CC0C5
:100310000FB607FCFACFE889F989808185FFF5CF10
:10032000CE010E943401F1CFEB8DEC0FFD2FF11DBA
:10033000E35AFF4FF0829FB7F8940B8FEA89FB894D
:1003400080818062CFCF0F931F93CF93DF938C0177
:10035000D0E0C0E0F801EC0FFD1F6491662341F08E
:100360008DE393E00E945601892B11F02196F2CF84
:10037000CE01DF91CF911F910F910895CF93DF931D
:10038000EC01888D8823B9F0AA89BB89E889F989AD
:100390008C9185FD03C0808186FD0DC00FB607FCE2
:1003A000F7CF8C9185FFF2CF808185FFEDCFCE0115
:1003B0000E943401E9CFDF91CF910895833081F01D
:1003C00028F4813099F08230A9F008958730A9F09F
:1003D0008830C9F08430B1F4809180008F7D03C0F3
:1003E000809180008F7780938000089584B58F7707
:1003F00084BD089584B58F7DFBCF8091B0008F7749
:100400008093B00008958091B0008F7DF9CF1F9345
:10041000CF93DF93282F30E0F901E754FF4F849109
:10042000F901E353FF4FD491F901E551FF4FC49116
:10043000CC23A9F0162F81110E94DE01EC2FF0E0F1
:10044000EE0FFF1FEF51FF4FA591B4918FB7F894B6
:10045000EC91111108C0D095DE23DC938FBFDF91A2
:10046000CF911F910895DE2BF8CFCF93DF93D0E08B
:10047000C0E08091FF0390910004A0910104B0912D
:1004800002040C2E04C0B695A795979587950A94FB
:10049000D2F7682F6170809103040E940702000068
:1004A0000000000061E0809104040E940702000047
:1004B0000000000060E0809104040E940702219681
:1004C000CE31D105B1F661E0809105040E940702AA
:1004D00000000000000060E080910504DF91CF91F2
:1004E0000C940702CF93DF93CDB7DEB7CC57D10979
:1004F0000FB6F894DEBF0FBECDBF2CE7E1E6F1E00A
:10050000DE01119601900D922A95E1F7660F771F93
:10051000660F771F81E090E08C0F9D1F680F791F99
:10052000FB0180819181A281B3818093FF0390932D
:100530000004A0930104B0930204C458DF4F0FB627
:10054000F894DEBF0FBECDBFDF91CF910C94350282
:100550001092FF0310920004109201041092020402
:100560000C943502CF93DF93CDB7DEB7C057D109D6
:100570000FB6F894DEBF0FBECDBF20E2EDEDF1E087
:10058000DE01999601900D922A95E1F720E1EDEFB9
:10059000F1E0DE01AF59BF4F01900D922A95E1F7CE
:1005A00028E1EDE0F2E0DE01A75BBF4F01900D9284
:1005B0002A95E1F728E2E5E2F2E0DE0111960190EA
:1005C0000D922A95E1F7440F551F440F551F6230D5
:1005D000710581F16330710581F161307105F1F0D0
:1005E00081E090E08C0F9D1F480F591FFA0180A5F4
:1005F00091A5A2A5B3A58093FF0390930004A093B7
:100600000104B0930204C059DF4F0FB6F894DEBF67
:100610000FBECDBFDF91CF910C94350281E690E003
:100620008C0F9D1F480F591FFA0180819181A28173
:10063000B381E1CF89E490E0F3CF81E090E0F0CFA7
:10064000CF93DF9390E0FC01E353FF4F249185515A
:100650009F4FFC0184918823D1F090E0880F991F6F
:10066000FC01E155FF4FA591B491FC01EF51FF4F03
:10067000C591D49161110EC09FB7F8948C91E22F6F
:10068000E0958E238C932881E223E8839FBFDF913E
:10069000CF9108958FB7F894EC91E22BEC938FBF34
:1006A000F6CF10922B0310922A0310922903109276
:1006B000280361E080E10E94200361E08FE00E9456
:1006C000200361E08EE00E94200360E082E00E944F
:1006D000200361E080E10C9407028E3008F08E5018
:1006E0008770806480937C0080917A00806480931E
:1006F0007A0080917A0086FDFCCF809178009091FD
:10070000790008953FB7F8948091E6029091E7024E
:10071000A091E802B091E90226B5A89B05C02F3F41
:1007200019F00196A11DB11D3FBFBA2FA92F982F17
:100730008827BC01CD01620F711D811D911D42E012
:10074000660F771F881F991F4A95D1F708958F92DA
:100750009F92AF92BF92CF92DF92EF92FF926B0186
:100760007C010E9482034B015C01C114D104E104AD
:10077000F104B9F00E948203681979098A099B097A
:10078000683E73408105910580F321E0C21AD108CB
:10079000E108F10888EE880E83E0981EA11CB11CC8
:1007A000E4CFFF90EF90DF90CF90BF90AF909F90FD
:1007B0008F9008954F925F926F927F928F929F9247
:1007C000AF92BF92CF92DF92EF92FF920F931F935F
:1007D000CF93DF93CDB7DEB729970FB6F894DEBF7E
:1007E0000FBECDBF29013A010115110511F401E039
:1007F00010E00E942A2769837A838B839C838091EF
:100800007E0490917F0420915C01281719F12F3FFD
:1008100009F49DC0C301B2010E94A703B801110FE2
:10082000880B990B29960FB6F894DEBF0FBECDBF8B
:10083000DF91CF911F910F91FF90EF90DF90CF90BC
:10084000BF90AF909F908F907F906F905F904F90F0
:100850000C94A703EFEFF0E02491298727FDDACF6E
:1008600061E00E9420038985882321F099859230D8
:1008700009F05FC189819A814C01B12CA12C60E003
:1008800072E18AE790E0A50194010E94C7252D83BB
:100890003E834F83588769017A0191E0C91AD108D4
:1008A000E108F1082FEFC216D104E104F10409F0C8
:1008B0000CF414C160E472E48FE090E0A5019401AF
:1008C0000E94C72569017A0181E0C81AD108E108B0
:1008D000F1089985923009F0B5C082E02FEFC21679
:1008E000D104E104F10409F00CF4E0C160E970ED19
:1008F00083E090E0A50194010E94C72569017A0177
:1009000081E0C81AD108E108F10883E09FEFC91619
:10091000D104E104F10409F00CF4C8C168E478EEF4
:1009200081E090E0A50194010E94C72569017A0148
:1009300091E0C91AD108E108F1082FEFC216D104DD
:10094000E104F10411F00CF0A1C084E0AFC1809388
:100950005C01EFEFF0E0249129872F3F09F45ACF93
:10096000213041F150F0223009F446C0298527FD9D
:1009700051CF61E00E94200379CF14BC15BC24B58F
:10098000226024BD25B5216025BD9C013327F901D6
:10099000E551FF4FE491F0E0EE0FFF1FEF51FF4FE5
:1009A00045915491F901E353FF4FE491E0933003F3
:1009B000198656CF109280001092810020918100FC
:1009C0002860209381002091810021602093810084
:1009D0009C013327F901E551FF4FE491F0E0EE0F60
:1009E000FF1FEF51FF4F45915491F901E353FF4F22
:1009F000E491E0932F0334CF1092B0001092B10035
:100A00002091B00022602093B0002091B1002160BD
:100A10002093B1009C013327F901E551FF4FE49188
:100A2000F0E0EE0FFF1FEF51FF4F459154915093AF
:100A30002E0340932D03F901E353FF4FE491E0931C
:100A40002C030ECF2FEFC216D104E104F10409F0FC
:100A50000CF46DC068E478EE81E090E0A5019401AB
:100A60000E94C72569017A0181E0C81AD108E1080E
:100A7000F1089985992309F4E5C02FEFC216D10436
:100A8000E104F10411F00CF0E6C05FCF64E274EF12
:100A900080E090E0A50194010E94C72569017A01D8
:100AA00081E0C81AD108E108F10885E09FEFC91676
:100AB000D104E104F10409F008F4F8C062E17AE736
:100AC00080E090E0A50194010E94C72569017A01A8
:100AD00081E0C81AD108E108F108CFC081E029857A
:100AE0002111E4C095B5987F892B85BD2FEF3FEF8D
:100AF000A901411451046104710409F057C08985AA
:100B0000813009F462C0823009F471C0811182CE53
:100B1000C7BC2093390330933A0340933B0350936F
:100B20003C0380916E00826080936E0073CE82E001
:100B3000D6CF89819A814C01B12CA12C60E072E161
:100B40008AE790E0A50194010E94C72569017A0116
:100B500091E0C91AD108E108F10891E0C114D1046B
:100B600021E0E206F10484F068E478EE81E090E0B0
:100B7000A50194010E94C72569017A0181E0C81A84
:100B8000D108E108F10893E02985213009F0AECFC2
:100B900080918100887F892B809381002FEF3FEF28
:100BA000A901411451046104710479F0A981BA8149
:100BB000AA0FBB1FA30192010E94E62528EE33E095
:100BC00040E050E00E94A5259ACFD0928900C092C3
:100BD00088002093350330933603409337035093B6
:100BE000380380916F00826080936F0013CEC092B3
:100BF000B300209331033093320340933303509377
:100C000034038091700082608093700003CECD80A9
:100C1000DE80EF80F8848AE0F594E794D794C79457
:100C20008A95D1F721E0C21AD108E108F10885E0E0
:100C300059CF8FEFC816D104E104F10409F038F759
:100C400084E050CF83E09FEFC916D104E104F104A2
:100C500009F00CF447CF62E17AE780E090E0A5016B
:100C600094010E94C72569017A0181E0C81AD10860
:100C7000E108F10899859923E1F286E09FEFC91612
:100C8000D104E104F10491F088F0CD80DE80EF80A2
:100C9000F8849AE0F594E794D794C7949A95D1F79D
:100CA00081E0C81AD108E108F10887E09091B1000D
:100CB000987F892B8093B10019CF4F925F926F92EA
:100CC0007F928F929F92AF92BF92CF92DF92EF92DC
:100CD000FF920F931F93CF93DF93CDB7DEB7289783
:100CE0000FB6F894DEBF0FBECDBF2B013C012983A8
:100CF0003A834B835C83ED82FE820F8318870E94C8
:100D000023278B0129813A814B815C81C301B20188
:100D10000E94AC2687FF25C0B801110F880B990BE4
:100D20000E945B272B013C01AC019B0169817A8108
:100D30008B819C810E940B281816C4F58401A601A2
:100D40009501C301B2010E94DA032D813E814F81DA
:100D50005885C301B2010E9410280E9423278B01ED
:100D6000DBCFB801110F880B990B0E945B272B0179
:100D70003C01AC019B0169817A818B819C810E943D
:100D8000AC2687FF13C08401A6019501C301B201FF
:100D90000E94DA032D813E814F815885C301B20143
:100DA0000E94B1260E9423278B01DBCF28960FB625
:100DB000F894DEBF0FBECDBFDF91CF911F910F9191
:100DC000FF90EF90DF90CF90BF90AF909F908F906B
:100DD0007F906F905F904F9008958F929F92AF9207
:100DE000BF92CF92DF92EF92FF921F93CF93DF9348
:100DF00085E10E946D03CAE0D0E0C12CD12C7601C0
:100E000015E085E10E946D03189FB001199F700DD8
:100E10001124072E000C880B990B0E945B2720E001
:100E200030E040E85AE30E9410284B015C0126E6BE
:100E300036E646E850E40E940B2818163CF486E695
:100E4000882E982C86E8A82E80E4B82E2FEB36E862
:100E500042ED52E4C501B4010E9410282CE73DE0A8
:100E60004BEA53E40E943F264B015C0120E030E056
:100E7000A9010E94AC2687FF03C0812C912C54014C
:100E8000A5019401C701B6010E9440266B017C01B7
:100E900061E070E080E090E00E94A703219709F0F4
:100EA000B0CF20E030E040E251E4C701B6010E943B
:100EB000B126DF91CF911F91FF90EF90DF90CF90FF
:100EC000BF90AF909F908F9008958F929F92AF9216
:100ED000BF92CF92DF92EF92FF920F931F93CF9327
:100EE000DF93019782319105B8F4FC01E658F84F81
:100EF0000C948E28BD07E007140827083E086108F7
:100F00008D08BC08EB081A09440969099709C20948
:100F1000D9091A0A310A480A0EE110E022E330E04A
:100F200040E050E064EA70ED84E294E40E94DA0369
:100F300009E110E027E330E040E050E062E570EDC9
:100F400084EA94E40E94DA030AE010E02CE330E043
:100F500040E050E060E070E08CED94E40E94DA0341
:100F6000DF91CF911F910F91FF90EF90DF90CF9085
:100F7000BF90AF909F908F9008950EE110E022E314
:100F800030E040E050E064EA70ED84E294E40E94D6
:100F9000DA0309E110E027E330E040E050E060E0F0
:100FA00070E08CED94E40E94DA030AE010E022E3A2
:100FB00030E040E050E062E570ED84EA94E4CECFAA
:100FC00092E0892E912C24E1A22EB12CC12CD12C9F
:100FD0001AE0E12E17EDF12E03E81FE32CE53FEFB9
:100FE00043EC54E462E570ED84EA94E40E945D060B
:100FF0006EE170E080E090E00E94A7034AE0A42E3A
:10100000B12CC12CD12C18EBE12E1EE1F12E05E8FC
:101010001FE32FE135ED42E155E462E570ED84EA2E
:1010200094E40E945D069CCFCAE08C2E912CDEE1F8
:10103000AD2EB12CC12CD12C1CE5E12E1FE8F12ED8
:1010400002E81FE320E030E04CED54E4E6CFFAE0A4
:101050008F2E912CAEE1AA2EB12CC12CD12C1AE0EE
:10106000E12E17EDF12E03E81FE32FE135ED42E10C
:1010700055E46CE57FEF83EC94E4D3CF04E610E015
:1010800022E330E040E050E062E570ED84EA94E471
:101090000E94DA0300E510E022E330E040E050E097
:1010A0006CE57FEF83EC94E40E94DA0310E000E04B
:1010B0002CE231E040E050E06FE175ED82E195E433
:1010C0004DCF88248394912C5AE0A52EB12CC12CAD
:1010D000D12C1CE5E12E1FE8F12E02E81FE320E0F1
:1010E00030E646E055E460E070E088E494E40E9475
:1010F0005D0677E0A72EB12CC12CD12C1AE0E12E91
:1011000017EDF12E03E81FE320E030E048E454E45B
:1011100060E070E586E095E484CF93E0892E912C21
:1011200028E0A22EB12CC12CD12C18EBE12E1EE10F
:10113000F12E05E81FE320E030E04AEF54E460E0E0
:1011400070E08CE594E40E945D0668EC70E080E05D
:1011500090E00E94A703C6E1D0E00AE010E025E09D
:1011600030E040E050E068E471EF86E794E40E94EC
:10117000DA03219791F7F4CEC3E08C2E912CD8E0BE
:10118000AD2EB12CC12CD12C1AE0E12E17EDF12E91
:1011900003E81FE320E030E84BE355E460E070E053
:1011A0008BEE94E40E945D0668EC70E080E090E0D5
:1011B0000E94A703C0E1D0E00AE010E02AE030E09E
:1011C00040E050E060E070ED82E894E40E94DA03D1
:1011D000219791F7C5CE64E0862E912C70E1A72E61
:1011E000B12CC12CD12C1AE0E12E17EDF12E03E821
:1011F0001FE320E030E041E654E460E070E08FE27D
:1012000094E40E945D06F7E08F2E912CA2E1AA2EB5
:10121000B12CC12CD12C1EEAE12E17E4F12E01E8ED
:101220001FE320E030E842E254E460E070EC80E646
:1012300094E4F7CE2AE0822E912C3AE0A32EB12C32
:10124000C12CD12C18EBE12E1EE1F12E05E81FE395
:1012500020E030E04AEF53E460E070E088EC92E494
:101260000E945D0664EF71E080E090E00E94A703B9
:1012700088248394912C20E030E048EC52E460E034
:1012800070E088EC93E4CDCED8E08D2E912C14E163
:10129000A12EB12CC12CD12C16E6E12EFE2C06E895
:1012A0001FE320E030E44CE155E460E070E88BEBB4
:1012B00094E40E945D0699E1A92EB12CC12CD12C99
:1012C00020E030E84BEB54E460E070E38CE195E41F
:1012D000A8CEE3E08E2E912CF8E0AF2EB12CC12CDD
:1012E000D12C16E6E12EFE2C06E81FE320E030E8C4
:1012F0004BEB55E460E070E08AEF94E40E945D06F9
:1013000062E370E080E090E00E94A703B2E08B2EE1
:10131000912CCDE0AC2EB12CC12CD12C20E030E0B2
:101320004AEF54E460E078E78BEB95E47ACE48E04E
:10133000842E912C5FE0A52EB12CC12CD12C16E669
:10134000E12EFE2C06E81FE320E030E04AEF54E4F3
:1013500060E070E88BEB94E40E945D0664E670E068
:1013600080E090E00E94A7037AE0A72EB12CC12C68
:10137000D12C20E030E44CE155E460E070E88DEEE3
:1013800094E44FCE98EC892E912C24E1A22EB12C1E
:10139000C12CD12C1CE5E12E1FE8F12E02E81FE341
:1013A00020E030E447E254E460E070E08CE594E44F
:1013B00038CEF2E08F2E912CA8E0AA2EB12CC12CB1
:1013C000D12C1AE0E12E17EDF12E03E81FE320E007
:1013D00030E844ED54E460E070E08AE794E40E9471
:1013E0005D06C3E08C2E912C18EBE12E1EE1F12E50
:1013F00005E81FE320E030E04AEF53E460E070E6E8
:1014000084ED94E40E945D061AE0812E912C09E09F
:10141000A02EB12CC12CD12C16E6E12EFE2C06E814
:101420001FE320E030E844ED54E460E070E08AE738
:1014300094E4F7CD6FE0862E912C72E0A72EB12CAC
:10144000C12CD12C1CE5E12E1FE8F12E02E81FE390
:1014500020E030E84BE355E460E070E088EC94E491
:10146000E0CD34E1832E912C42E0A42EB12CC12C8E
:10147000D12C1CE5E12E1FE8F12E02E81FE320E04D
:1014800030E84BEB55E460E070E08AEF94E4C9CDBE
:1014900084E1882E912C92E0A92EB12CC12CD12C64
:1014A0001CE5E12E1FE8F12E02E81FE320E030E00A
:1014B0004AE755E460E070E088EC94E40E945D0641
:1014C00020E030E84BE355E460E070E08AE795E423
:1014D000A8CDCF93DF93809180040E946D0380910B
:1014E00080040E946D03EC0164E070E080E090E015
:1014F0000E94A703809180040E946D03C80FD91F2A
:1015000064E070E080E090E00E94A703CE01D7FD88
:10151000019695958795DF91CF9108952FB7F8940F
:101520006091E2027091E3028091E4029091E50201
:101530002FBF0895CF93C62F10922B0310922A032A
:1015400020912003309121032F5F3F4F30932103DF
:10155000209320036111862F682F61708FE00E9415
:1015600007026C2F8EE00E9407020E948E0A609391
:101570001C0370931D0380931E0390931F03CF9150
:101580000895CF93DF93FC01208131813327F90146
:10159000E754FF4F8491F901E353FF4FD491F901D0
:1015A000E551FF4FC491CC2379F081110E94DE01F7
:1015B000EC2FF0E0EE0FFF1FEB55FF4FA591B4911C
:1015C000EC91ED2381E009F480E0DF91CF91089563
:1015D000DC01EC918E2F90E0FC01EE0FFF1FE80F75
:1015E000F91FE652FC4F808186FF02C08F7B80830B
:1015F0000895CF92DF92EF92FF92CF93DF93EC01A9
:10160000603282E07807CCF5653B710514F064EB3D
:1016100070E0898128E830E0281B310987FD339587
:10162000220F331F220F331F6901330FEE08FF080B
:101630008A8128E532E0281B310987FD3395220F86
:10164000331F220F331F032E000C440B550B2C1994
:101650003D094E095F09DB0177FF02C0B0E0A0E061
:101660000E94F12524EB30E040E050E00E94C725C5
:10167000C20ED31EE41EF51EB601E881EC3070F5F3
:10168000298188E890E0821B910927FD9395880FB6
:10169000991F880F991F681779077CF02A8188E5C0
:1016A00092E0821B910927FD9395880F991F880F5F
:1016B000991F681779070CF4CB010297880F991FBF
:1016C0004FB7F8942E2F30E0F901EE0FFF1FE20F15
:1016D000F31FE652FC4F928381834FBFDF91CF917E
:1016E000FF90EF90DF90CF9008951F93CF93DF93FB
:1016F000EC01162F88818C3008F04EC061E0812FFC
:101700000E9420038881282F30E0F901EE0FFF1F8F
:10171000E20FF31FE652FC4F1F736081607C612B68
:10172000608319821A822CE0622F0E948228829F95
:10173000B001112430E020E0AB01420F531FFA0149
:10174000EE0FFF1FE40FF51FE652FC4F908196FD50
:1017500016C02F5F3F4F2C30310571F781110FC03C
:101760001092800082E08093810010928500109298
:101770008400B19A80916F00826080936F00E8814D
:101780008E2F90E0FC01EE0FFF1FE80FF91FE652CD
:10179000FC4F8081806480838881DF91CF911F918D
:1017A0000895E09107048E2F90E0FC01EE0FFF1FDB
:1017B000E80FF91FE652FC4F808186FD58C060910A
:1017C00072047091730487E094E00E94750B6AE5DF
:1017D00070E087E094E00E94F90A8EE190E0909337
:1017E00025048093240480ED97E090930F04809368
:1017F0000E0480E090E0A4E8B2E48093200490938B
:101800002104A0932204B09323048AE198EFA2EC70
:10181000BDE380931C0490931D04A0931E04B09319
:101820001F0410922604109227041092280410928C
:1018300029048DE290E090930B0480930A041092A7
:1018400018041092190410921A0410921B0410929A
:1018500010041092110410921204109213041092AA
:101860000D0410920C0410922E0410922F04E0919B
:1018700030048E2F90E0FC01EE0FFF1FE80FF91FE0
:10188000E652FC4F808186FD58C0609174047091CF
:10189000750480E394E00E94750B6AE570E080E3D4
:1018A00094E00E94F90A8EE190E090934E048093B8
:1018B0004D0480ED97E0909338048093370480E0E6
:1018C00090E0A4E8B2E48093490490934A04A09382
:1018D0004B04B0934C048AE198EFA2ECBDE38093F3
:1018E000450490934604A0934704B0934804109293
:1018F0004F041092500410925104109252048DE241
:1019000090E0909334048093330410924104109239
:10191000420410924304109244041092390410922D
:101920003A0410923B0410923C0410923604109238
:10193000350410925704109258040895CF92DF9204
:10194000EF92FF92CF93DF936C01EB010E94D10BDA
:1019500080919A04811110929A048BE0C816D104E8
:101960005CF5688179818091160490911704680F65
:10197000791F87E094E00E94F90A6A817B81809157
:101980003F0490914004680F791F80E394E00E9427
:10199000F90A8881998190937B0480937A048A81E3
:1019A0009B8190937D0480937C04DF91CF91FF9085
:1019B000EF90DF90CF9008950E948E0A0D2C000CBE
:1019C000EE08FF086C0D7D1D8E1D9F1D6093820427
:1019D0007093830480938404909385046881798153
:1019E0008091160490911704680F791F87E094E0A6
:1019F0000E94F90A6A817B8180913F0490914004A2
:101A0000680F791F80E394E00E94F90A0E948E0A11
:101A1000C60ED71EE81EF91EC0928204D09283041F
:101A2000E0928404F09285040E948E0AC0908204A1
:101A3000D0908304E0908404F0908504C616D70605
:101A4000E806F90608F4A5CFEFCFCF93DF9300D0D7
:101A500000D0CDB7DEB740914D0250914E0260915B
:101A60004F027091500249835A836B837C83BE017D
:101A70006F5F7F4F0E949E0C0F900F900F900F9002
:101A8000DF91CF910895CF93DF9300D000D0CDB7F1
:101A9000DEB7409151025091520260915302709111
:101AA000540249835A836B837C83BE016F5F7F4FEF
:101AB0000E949E0C0F900F900F900F90DF91CF918E
:101AC0000895CF93DF9300D000D0CDB7DEB740911B
:101AD0005502509156026091570270915802498305
:101AE0005A836B837C83BE016F5F7F4F0E949E0C85
:101AF0000F900F900F900F90DF91CF910895CF939B
:101B0000DF9300D000D0CDB7DEB780919A04811169
:101B10001EC080914D0290914E02A0914F02B09153
:101B2000500289839A83AB83BC83BE016F5F7F4F72
:101B300084EF91E00E949E0C87E094E00E94E80A06
:101B400080E394E00E94E80A81E080939A040F9079
:101B50000F900F900F90DF91CF910895CF93DF9367
:101B600000D000D0CDB7DEB74091590250915A0253
:101B700060915B0270915C0249835A836B837C8322
:101B8000BE016F5F7F4F0E949E0C0F900F900F90D1
:101B90000F90DF91CF910895CF93DF9300D000D0C5
:101BA000CDB7DEB740915D0250915E0260915F0259
:101BB0007091600249835A836B837C83BE016F5F9F
:101BC0007F4F0E949E0C0F900F900F900F90DF910F
:101BD000CF910895FC0101900020E9F73197AF0102
:101BE000481B590BBC018DE393E00C94B600CF93D6
:101BF000DF930E94A301EC018FE992E00E94EA0DBD
:101C00008C0F9D1FDF91CF9108956EE170E080E011
:101C100090E00E94A70382EA90E00E94A30180EA7C
:101C200090E00E94A3018DE990E00E94F70D8DE302
:101C300093E00C94BE016EE170E080E090E00E94C1
:101C4000A7038AE990E00E94A30188E990E00E943E
:101C5000A30185E990E00E94F70D8DE393E00C94D9
:101C6000BE010E941B0E0E947F0D0C94050E8F92E8
:101C70009F92AF92BF920F931F93CF93DF93CDB7F5
:101C8000DEB7A1970FB6F894DEBF0FBECDBF19A285
:101C9000423008F44AE08E010F5D1F4F842E912CD4
:101CA000B12CA12CA50194010E94A525E62FB90114
:101CB000CA01EA30F4F4E05DD801EE938D01232BE4
:101CC000242B252B79F790E080E0109719F0CD01B7
:101CD0000E94EA0DA1960FB6F894DEBF0FBECDBFED
:101CE000DF91CF911F910F91BF90AF909F908F90F8
:101CF0000895E95CE1CFCF92DF92EF92FF92CF930C
:101D0000DF936B017C016DE28DE393E00E9456014D
:101D1000EC0166277727CB016C197D098E099F0995
:101D20004AE00E94370E8C0F9D1FDF91CF91FF90EC
:101D3000EF90DF90CF9008950E947F0D82E990E0B0
:101D40000E94A3018FE890E00E94A30189E692E03F
:101D50000E94EA0D8CE890E00E94F70D8DE393E07D
:101D60000C94BE01BC01990F880B990B97FD0C9444
:101D70007B0E4AE00C94370ECF93DF930E947F0DC9
:101D80000E94690AEC0180E890E00E94A3018DE7BF
:101D900090E00E94A301CE010E94B20E8AE790E07B
:101DA0000E94F70D8DE393E0DF91CF910C94BE017B
:101DB0006F927F928F929F92AF92BF92CF92DF925B
:101DC000EF92FF920F931F93CF93DF936C0180915B
:101DD000280390912903892BA1F560E080E10E94FE
:101DE0000702109229031092280310925C011092AE
:101DF0005D0110925E0110925F011092210310921A
:101E0000200310922B0310922A030E948E0A6093E3
:101E10001C0370931D0380931E0390931F038BEA92
:101E200090E090934D0180934C0180916900836014
:101E300080936900E89A81E090E090932903809371
:101E400028030E948E0A00911C0310911D0320910B
:101E50001E0330911F03601B710B820B930B6333C6
:101E600071058105910530F083E090E0909329039E
:101E7000809328038091280390912903039709F008
:101E80008BC080912003909121038130910519F13D
:101E90004CF460E0892B09F4E1C010922B031092FE
:101EA0002A0325C08230910509F4CFC00397A9F712
:101EB00080912A0390912B0390932703809326030C
:101EC00060E081E00E949A0A82E090E0909329030A
:101ED000809328030CC080912A0390912B03909348
:101EE00023038093220361E081E00E949A0A80919B
:101EF00020039091210304970CF4B2C020E030E05D
:101F000040E85FEB60915001709151018091520166
:101F1000909153010E94AC26882301F120E030E02B
:101F200040E85FEB6091540170915501809156013A
:101F3000909157010E94AC26882381F020E030E088
:101F400040E85FEB609158017091590180915A010E
:101F500090915B010E94AC2681111EC0C2E2D3E0C9
:101F600000E511E069917991072E000C880B990B1F
:101F70000E945B279B01AC0160E070E08FE793E477
:101F80000E94B126F80161937193819391938F011F
:101F9000F3E0C832DF0731F78091280390912903DD
:101FA000029709F067C082E2E82E83E0F82E00E590
:101FB00011E0E601360186E0680E711CCC24CA945B
:101FC000D12CF701619171917F01F801819091907D
:101FD000A190B1908F01072E000C880B990B0E94E5
:101FE0005B27A50194010E9410280E9423276F3FC0
:101FF000710509F0E4F5798368832296C615D70543
:1020000001F7E89885EB90E090934D0180934C01A7
:10201000109221031092200310922B0310922A0396
:10202000109229031092280381E090E0DF91CF9174
:102030001F910F91FF90EF90DF90CF90BF90AF90E6
:102040009F908F907F906F90089580912A03909138
:102050002B03909325038093240361E080E045CF18
:1020600084E090E0909329038093280395CFD98250
:10207000C882C3CF90E080E0D9CF8F929F92AF9279
:10208000BF92CF92DF92EF92FF920E947F0D0E944B
:10209000ED066B017C0189E890E00E94A30186E8CF
:1020A00090E00E94A301A7019601C701B6010E941A
:1020B0007D288823A1F082EA92E00E94EA0D83E85D
:1020C00090E00E94F70D8DE393E0FF90EF90DF909A
:1020D000CF90BF90AF909F908F900C94BE0146011F
:1020E0005701E894B7F82FEF3FEF4FE75FE7C501DF
:1020F000B4010E947D2881110DC02FEF3FEF4FE703
:102100005FE7C501B4010E94AC2618161CF486EAEC
:1021100092E0D3CF2FEF3FEF4FE75FE4C701B60167
:102120000E940B2818161CF48AEA92E0C6CF2FEF03
:102130003FEF4FE75FECC701B6010E94AC2687FD79
:10214000F3CF20E030E0A901C701B6010E94AC2620
:1021500087FF09C06DE28DE393E00E945601F7FA14
:10216000F094F7F8F0942AE037ED43EA5BE3C70117
:10217000B6010E9440264B015C010E942A276B0198
:102180007C010E9459279B01AC01C501B4010E944A
:102190003F264B015C014AE0C701B6010E94370EA1
:1021A0006EE28DE393E00E94560120E030E040E2D1
:1021B00051E4C501B4010E9410284B015C010E944A
:1021C0002A276B01F12CE12C4AE0C701B6010E94DD
:1021D000370EC701B6010E9459279B01AC01C5010A
:1021E000B4010E943F2620E030E040E251E40E942A
:1021F00010280E942A2790E080E04AE00E94370ED3
:102200005ECF81E08093190390911B03911108C068
:1022100080931B036FE070E080E090E00C9472020A
:10222000089581E080931A0390911B03911108C0D7
:1022300080931B036FE070E080E090E00C947202EA
:1022400008951F93CF93DF932091C8043091C90460
:102250002E30310504F5EB01BC0115E2129FC001DF
:10226000139F900D112443E250E086539B4F0E9430
:10227000AB288091C8049091C904189FF001199F60
:10228000F00D1124E351FB4FD183C083019690934D
:10229000C9048093C804DF91CF911F91089546EC43
:1022A00054E061EC74E090E080E00C944D25CF9315
:1022B000DF9300D0CDB7DEB70E941B0E0E947F0DCA
:1022C0000E944F110097C1F042E050E0BE016F5FE5
:1022D0007F4F0E943B246093FF0370930004809320
:1022E0000104909302040E9435020E94050E0F9093
:1022F0000F90DF91CF9108956AE170E080E090E067
:102300000E94720260ED77E080E090E00E94A703F7
:102310000E94A802EACFCF92DF92EF92FF920F9332
:102320001F93CF93DF930E941B0E0E947F0D0E948C
:102330004F1111E0009721F00E942625EC0110E0DA
:102340000E944F11009721F00E9426251123C1F011
:102350006AE170E080E090E00E94720260ED77E058
:1023600080E090E00E94A7030E94A802DF91CF9135
:102370001F910F91FF90EF90DF90CF900C94050E7E
:102380006C01990FEE08FF08BE01DD0F880B990B59
:102390000E945B2701E010E0A70196010E94DA038A
:1023A000E5CF0E941B0E80919A04811110929A042D
:1023B0000E944F11009791F00E9426259093EB0206
:1023C0008093EA020E944F110097D9F00E942625BF
:1023D00090934501809344010C944F116AE170E0A1
:1023E00080E090E00E94720260ED77E080E090E093
:1023F0000E94A7030E94A8021092EB021092EA0228
:10240000E1CF88EE93E0E4CF2F923F924F925F921C
:102410006F927F928F929F92AF92BF92CF92DF92F4
:10242000EF92FF920F931F93CF93DF9300D000D0D2
:10243000CDB7DEB70E941B0E0E947F0D0E944F1188
:102440000097C1F00E94262501978D30910500F577
:10245000FC01E35DFD4E0C948E2860127B12A412E9
:102460001513A113FE130F1420149914DC14761500
:102470008716DC166AE170E080E090E00E9472024C
:1024800060ED77E080E090E00E94A7030E94A80240
:102490000F900F900F900F90DF91CF911F910F91A0
:1024A000FF90EF90DF90CF90BF90AF909F908F9074
:1024B0007F906F905F904F903F902F900C94050EFF
:1024C0000EE110E022E330E040E050E064EA70ED1D
:1024D00084E294E40E94DA036AE070E080E090E035
:1024E0000E9472028DE090E00E9465078DE090E00E
:1024F0000E94650720C06BE070E080E090E00E94E1
:1025000072028BE090E00E9465076CE070E080E072
:1025100090E00E9472026BE070E080E090E00E9428
:1025200072028CE090E00E9465076CE070E080E051
:1025300090E00E9472020E947F0D6BE070E080E0EC
:1025400090E00E947202A4CF66E170E080E090E02B
:102550000E94720228EC822E912C34E1A32EB12C21
:10256000C12CD12C1CE5E12E1FE8F12E02E81FE35F
:1025700020E030E84FE454E460E070E08CE594E45F
:102580000E945D0668E170E080E090E00E947202C7
:1025900020E030E845E454E460E070E88FE494E43F
:1025A0000E945D0667E170E080E090E00E947202A8
:1025B00020E030E049E354E460E070E885E494E42E
:1025C0000E945D0668E170E080E090E00E94720287
:1025D00020E030E04FE254E460E070E089E394E40E
:1025E0000E945D0667E170E080E090E00E94720268
:1025F00020E030E447E254E460E070E08FE294E4ED
:102600000E945D0666E170E080E090E00E94720248
:1026100064EF71E080E090E00E94A7030E947F0DCC
:102620006CE271E080E090E0E6C024E030E03A83C4
:10263000298350E040E061E070E080E090E00E949B
:10264000B202BAE08B2E912C1AE0A12EB12CC12C33
:10265000D12C18EBE12E1EE1F12E05E81FE320E05E
:1026600030E048E453E460E070E088EC92E40E94DB
:102670005D0641E050E061E070E080E090E00E94A3
:10268000B20220E030E046E953E460E070E088E424
:1026900093E40E945D0642E050E061E070E080E07B
:1026A00090E00E94B20220E030E04AEF53E460E0A4
:1026B00070E086E993E40E945D0664EF71E080E0DB
:1026C00090E00E94A70341E050E061E070E080E00C
:1026D00090E00E94B20288248394912C20E030E0A4
:1026E0004AE753E460E070E088EC93E40E945D0602
:1026F00050E040E061E070E080E090E00E94B202D3
:1027000020E030E048EC52E460E070E08AE793E4D7
:102710000E945D0664EF71E080E090E00E94A703F4
:1027200089819A8101979A838983892B09F081CFC6
:1027300063E170E080E090E00E94720289E090E046
:10274000D7CE6CE271E080E090E00E94A70363E1E5
:1027500070E080E090E00E94720280E190E00E94D0
:10276000650760E170E080E090E00E9472026AEF2D
:1027700070E080E090E00E94A7036CE271E080E0EE
:1027800090E00E94A70363E170E080E090E00E9487
:10279000720281E190E00E94650760E170E080E0F4
:1027A00090E00E9472026AEF70E080E090E00E9488
:1027B000A7036CE271E080E090E00E94A70363E170
:1027C00070E080E090E00E94720282E190E00E945E
:1027D000650760E170E080E090E00E9472026CE2C8
:1027E00071E080E090E00E94A7030E947F0D64EFFB
:1027F00071E080E090E00E94A7039FCE64E170E06A
:1028000080E090E00E9472028FE090E00E946507F5
:1028100064EF71E080E090E00E94A7038CCE6DE051
:1028200070E080E090E00E94720289E090E00E94F7
:1028300065070E947F0D8DE090E00E9465077DCEC8
:102840006EE170E080E090E00E9472020EE110E024
:1028500024E630E040E050E060E070E08CE594E495
:102860000E94DA0344E0842E912C57E0A52EB12C6F
:10287000C12CD12C1CE5E12E1FE8F12E02E81FE34C
:102880002FE135ED42E954E460E070E08CE594E43A
:102890000E945D0688248394912CEAE0AE2EB12C30
:1028A000C12CD12C2CE53FEF43EC54E46FE175EDE6
:1028B00082E994E40E945D0620E030E04CE554E4B7
:1028C0006CE57FEF83EC94E40E945D066FE070E0BE
:1028D00080E090E00E94A703F4E08F2E912CA4E109
:1028E000AA2EB12CC12CD12C24EA30ED44E254E4C0
:1028F00060E070E08CE594E40E945D0660E971E0C0
:1029000080E090E00E94A7032FE135ED42E954E416
:1029100060E070E08CE594E40E945D0624EA30ED0E
:1029200044E254E460E070E08CE594E40E945D06CB
:1029300002CE6EE170E080E090E00E94720294E0CE
:10294000892E912C24E1A22EB12CC12CD12C1CE576
:10295000E12E1FE8F12E02E81FE32FE135ED42E9F9
:1029600054E460E070E08CE594E40E945D0624EAA3
:1029700030ED44E254E460E070E08CE594E40E94C1
:102980005D066CE271E080E090E00E94A70363E1E5
:1029900070E080E090E00E9472020E947F0D0E9431
:1029A0007F0D0E947F0D0E947F0D6EE170E080E040
:1029B00090E00E9472022CCF24E030E03A83298319
:1029C00000E911E01C821B824B815C8162E070E0B7
:1029D00080E090E00E94B202180134E6230E311C20
:1029E000B801110F880B990B0E945B272B013C014A
:1029F000B101032C000C880B990B0E945B279B01F3
:102A0000AC011AE0812E912C0AE0A02EB12CC12C31
:102A1000D12C18EBE12E1EE1F12E05E81FE3C301D6
:102A2000B2010E945D068B819C8101969C838B8301
:102A30008101069749F60E94A80218EBE12E1EE1DB
:102A4000F12E05E81FE320E030E849E854E4C30133
:102A5000B2010E945D0628EE33E03C832B83312CCB
:102A6000212CA10162E070E080E090E00E94B202BF
:102A70006B817C816C597F4F072E000C880B990B62
:102A80000E945B272B013C012B813C81B901330F54
:102A9000880B990B0E945B27EAE08E2E912CFAE0BE
:102AA000AF2EB12CC12CD12C18EBE12E1EE1F12E52
:102AB00005E81FE3A30192010E945D068B819C81C2
:102AC000845691099C838B839FEF291A390A2B81A5
:102AD0003C812039314029F629813A812150310940
:102AE0003A832983232B09F06BCF9ACD82E090E0C3
:102AF0009A83898384EF91E09C838B83312C212CF2
:102B0000A10163E070E080E090E00E94B2026B817E
:102B10007C816C597F4F072E000C880B990B0E940B
:102B20005B272B013C012B813C81B901330F880BC2
:102B3000990B0E945B273AE0832E912C4AE0A42E49
:102B4000B12CC12CD12C1CE5E12E1FE8F12E02E89E
:102B50001FE3A30192010E945D068B819C818B592A
:102B60009F4F9C838B839FEF291A390A2AE02216F4
:102B7000310431F686EE95E09C838B83312C212C39
:102B8000A10163E070E080E090E00E94B2026B81FE
:102B90007C816C597F4F072E000C880B990B0E948B
:102BA0005B272B013C012B813C81B901330F880B42
:102BB000990B0E945B27AAE08A2E912CBAE0AB2EDB
:102BC000B12CC12CD12C1CE5E12E1FE8F12E02E81E
:102BD0001FE3A30192010E945D068B819C818B59AA
:102BE0009F4F9C838B839FEF291A390A2AE0221674
:102BF000310431F688ED99E09C838B83312C212CB4
:102C0000A10163E070E080E090E00E94B2026B817D
:102C10007C8164567109072E000C880B990B0E9469
:102C20005B272B013C012B813C81B901330F880BC1
:102C3000990B0E945B275AE0852E912CEAE0AE2E7C
:102C4000B12CC12CD12C1CE5E12E1FE8F12E02E89D
:102C50001FE3A30192010E945D068B819C81855632
:102C600091099C838B839FEF291A390A2B813C8120
:102C7000263E354029F6312C212CA10163E070E07D
:102C800080E090E00E94B2026B817C816456710901
:102C9000072E000C880B990B0E945B272B013C012F
:102CA0002B813C81B901330F880B990B0E945B2764
:102CB0002AE0822E912C3AE0A32EB12CC12CD12CEB
:102CC0001CE5E12E1FE8F12E02E81FE3A3019201AB
:102CD0000E945D068B819C81855691099C838B8324
:102CE0009FEF291A390A2AE02216310431F6898128
:102CF0009A81019739F40E94A80264E670E080E0AE
:102D000090E079CD21E030E03A832983F3CE6FE083
:102D100070E080E090E00E94720220E436E03A83A6
:102D2000298329813A81B901330F880B990B0E94BD
:102D30005B2701E010E02FE030E040E050E00E942F
:102D4000DA0389819A8144969A838983803F9A40E5
:102D500041F76EE070E080E090E00E94720229810D
:102D60003A81B901330F880B990B0E945B2701E070
:102D700010E02FE030E040E050E00E94DA0389816B
:102D80009A8144969A838983803A9F4041F76BE009
:102D900070E080E090E00E9472028CE090E00E947F
:102DA00065076CE070E080E090E00E9472020E9493
:102DB0007F0D0E94A802C1CB67E170E080E090E047
:102DC0000E94720201E010E028EC30E040E050E0A8
:102DD00060E070E081E694E40E94DA0368E170E06C
:102DE00080E090E00E94720228EC30E040E050E089
:102DF00060E070E086E194E40E94DA0364E170E050
:102E000080E090E00E94720228EC30E040E050E068
:102E100060E070E086E993E40E94DA036AE170E022
:102E200080E090E00E94720287E094E00E94E80A4D
:102E300080E394E00E94E80A28E938E040E050E0AE
:102E400060E070E086E193E40E94DA0368E572E0F6
:102E500080E090E00E94A7030E94A8026BE070E06F
:102E600080E090E00E9472020E947F0D11CB0E94D0
:102E70001B0E0E947F0D0E944F110097F1F00E94DF
:102E8000262501978331910530F5FC01E65BF84E6C
:102E90000C948E286D177217751778177B177E178D
:102EA0008117841787178A178D179017931796170E
:102EB00099179C179F17A217A5176AE170E080E089
:102EC00090E00E94720260ED77E080E090E00E9466
:102ED000A7030E94A8020C94050E90E080E00E94D7
:102EE0006507F9CF81E090E0FACF86E090E0F7CF78
:102EF00087E090E0F4CF88E090E0F1CF89E090E0C7
:102F0000EECF8AE090E0EBCF8BE090E0E8CF8CE072
:102F100090E0E5CF8DE090E0E2CF8EE090E0DFCF73
:102F20008FE090E0DCCF80E190E0D9CF81E190E0CC
:102F3000D6CF82E190E0D3CF83E090E0D0CF84E0A1
:102F400090E0CDCF85E090E0CACF82E090E0C7CF9F
:102F5000AF92BF92CF92DF92EF92FF921F93CF93E7
:102F6000DF93CDB7DEB728970FB6F894DEBF0FBE5C
:102F7000CDBF0E941B0E8EE190E09093EB028093F8
:102F8000EA020E944F1111E0009721F00E942625CD
:102F90005C0110E00E944F11009791F10E942625DC
:102FA0006C010E944F11009769F10E9426257C0157
:102FB0000E944F11009721F00E942625112321F134
:102FC0006AE170E080E090E00E94720260ED77E0DC
:102FD00080E090E00E94A7030E94A8020E94050ED4
:102FE00028960FB6F894DEBF0FBECDBFDF91CF910C
:102FF0001F91FF90EF90DF90CF90BF90AF9008951A
:1030000011E0CFCF11E0D4CFBA82A982DC82CB828B
:10301000FE82ED8298878F83BE016F5F7F4F88ECC1
:1030200090E00E949E0CDACFCF92DF92EF92FF9257
:103030000F931F93CF93DF93CDB7DEB72B970FB6C8
:10304000F894DEBF0FBECDBF0E947F0D1A82198299
:10305000FE01339689E0DF011D928A95E9F73297E8
:103060007F0105E010E06F01C8010E947F25D701B4
:103070008D937D010F5F1F4F00311105A9F78EE67B
:1030800090E00E94A3018BE690E00E94A301C6019C
:103090000E94EA0D88E690E00E94F70D8DE393E030
:1030A0000E94BE012B960FB6F894DEBF0FBECDBFB7
:1030B000DF91CF911F910F91FF90EF90DF90CF9014
:1030C0000895FF920F931F93CF93DF938C01EB0131
:1030D000F8800E947F25F81621F06F2DC8010E940C
:1030E0008725CE01DF91CF911F910F91FF90089519
:1030F000DF92EF92FF920F931F93CF93DF93CDB7A1
:10310000DEB72B970FB6F894DEBF0FBECDBF0E947F
:103110001B0E0E947F0D1A821982FE01339689E0F0
:10312000DF011D928A95E9F70E944F11009791F1F6
:10313000FC01CE0101967C019F01245F3F4FDC0121
:103140008191882329F0E217F30711F08D93F8CFCE
:1031500005E010E0D701DD907D01C8010E947F25C8
:10316000D81621F06D2DC8010E9487250F5F1F4FD3
:103170000031110579F72B960FB6F894DEBF0FBE1C
:10318000CDBFDF91CF911F910F91FF90EF90DF9016
:103190000C94050E6AE170E080E090E00E947202FB
:1031A00060ED77E080E090E00E94A7030E94A80213
:1031B000E2CFFF920F931F93CF93DF930E941B0EDA
:1031C0000E947F0D0E944F11C1E0009729F00E94DC
:1031D0002625D82FF92EC0E00E944F11009719F133
:1031E0000E9426258C010E944F11892B09F4C1E011
:1031F0000E944F11892B11F0CC23B9F06AE170E0E5
:1032000080E090E00E94720260ED77E080E090E064
:103210000E94A7030E94A802DF91CF911F910F91F6
:10322000FF900C94050EC1E0DECFD0931604F0920F
:1032300017041093400400933F046D2F90E080E04A
:103240000E94872560913F0481E090E00E948725DD
:103250006091680482E090E00E948725609191046B
:1032600083E090E00E948725D7CFCF92DF92EF9244
:10327000FF920F931F930E947F0D60E0809159048D
:103280000E94070283E090E00197F1F761E08091EE
:1032900059040E94070283E290E00197F1F760E091
:1032A000809159040E94070280915B0490915C0414
:1032B0009927FC01E353FF4F6491FC01E551FF4F57
:1032C000E491F0E0EE0FFF1FEB55FF4F85919491D5
:1032D00000E41CE920E030E0462F0E94D91B611574
:1032E00071058105910529F06F5F7F4F8F4F9F4FCB
:1032F0009F702AE330E040E050E00E94C72569015A
:103300007A01C114D104E104F10431F487EEC82E2E
:1033100083E0D82EE12CF12C87E790E00E94A301F6
:1033200084E790E00E94A301C701B6010E945B27D9
:103330000E942327CB010E94B20E81E790E00E94F9
:10334000F70D8DE393E01F910F91FF90EF90DF90C9
:10335000CF900C94BE011F920F920FB60F921124C2
:103360002F933F934F935F936F937F938F939F938D
:10337000AF93BF93EF93FF9380913103909132030A
:10338000A0913303B0913403892B8A2B8B2BD1F17D
:1033900090912C03E0912D03F0912E0380818927D9
:1033A00080838091310390913203A0913303B091D7
:1033B0003403181619061A061B069CF48091310373
:1033C00090913203A0913303B09134030197A10986
:1033D000B1098093310390933203A0933303B093E8
:1033E0003403FF91EF91BF91AF919F918F917F91A6
:1033F0006F915F914F913F912F910F900FBE0F9062
:103400001F90189580915C01EFEFF0E0E4919FEF41
:1034100090935C01E13051F030F0E23069F060E00F
:103420000E940702DECF10926E00F9CF90916F00DC
:103430009D7F90936F00F3CF909170009D7F90934C
:10344000700091E09093B0009091B100987F9460EB
:103450009093B1001092B300E2CF1F920F920FB67B
:103460000F9211242F933F934F935F936F937F930A
:103470008F939F93AF93BF93EF93FF938DE393E06D
:103480000E943401FF91EF91BF91AF919F918F9175
:103490007F916F915F914F913F912F910F900FBE50
:1034A0000F901F9018951F920F920FB60F92112434
:1034B0002F938F939F93EF93FF93E0914D03F091A0
:1034C0004E038081E0915303F091540382FD1BC0B1
:1034D0009081809156038F5F8F73209157038217DD
:1034E00041F0E0915603F0E0E35CFC4F958F809350
:1034F0005603FF91EF919F918F912F910F900FBEE7
:103500000F901F9018958081F4CF1F920F920FB6E5
:103510000F9211242F933F938F939F93AF93BF9359
:103520008091E2029091E302A091E402B091E50261
:103530003091E10223E0230F2D3758F50196A11DAC
:10354000B11D2093E1028093E2029093E302A093E5
:10355000E402B093E5028091E6029091E702A09127
:10356000E802B091E9020196A11DB11D8093E60227
:103570009093E702A093E802B093E902BF91AF9164
:103580009F918F913F912F910F900FBE0F901F90A1
:10359000189526E8230F0296A11DB11DD2CF1F92C8
:1035A0000F920FB60F9211242F933F934F935F9377
:1035B0006F937F938F939F93AF93BF93EF93FF93FB
:1035C000E0914E01F0914F010995FF91EF91BF916C
:1035D000AF919F918F917F916F915F914F913F91AB
:1035E0002F910F900FBE0F901F9018951F920F9262
:1035F0000FB60F9211242F933F934F935F936F93C6
:103600007F938F939F93AF93BF93EF93FF93E0913B
:103610004C01F0914D010995FF91EF91BF91AF9150
:103620009F918F917F916F915F914F913F912F91DA
:103630000F900FBE0F901F9018951F920F920FB60C
:103640000F9211242F933F934F935F936F937F9328
:103650008F939F93AF93BF93CF93DF93EF93FF939A
:103660008091E002C091FE03D0E087FF24C0109259
:103670008500109284008091E0028F5F8093E002C9
:103680008091E002082E000C990B8C179D0724F402
:103690008091E0028C30C4F180918400909185008B
:1036A000049680349C4908F47AC0809184009091FB
:1036B0008500049676C08091E002082E000C990BDC
:1036C0008C179D07C4F6E091E0028E2FEE0F990B48
:1036D000FC01EE0FFF1FE80FF91FE652FC4F80813F
:1036E00086FFC9CFE091E0028E2FEE0F990BFC010F
:1036F000EE0FFF1FE80FF91FE652FC4F808160E0DC
:103700008F730E940702B7CF20918400309185000B
:10371000E091E0028E2FEE0F990BFC01EE0FFF1FE0
:10372000E80FF91FE652FC4F81819281820F931FAF
:103730009093890080938800E091E0028E2FEE0F35
:10374000990BFC01EE0FFF1FE80FF91FE652FC4F2B
:10375000808186FF11C0E091E0028E2FEE0F990B61
:10376000FC01EE0FFF1FE80FF91FE652FC4F8081AE
:1037700061E08F730E940702FF91EF91DF91CF917B
:10378000BF91AF919F918F917F916F915F914F9179
:103790003F912F910F900FBE0F901F90189580E4CE
:1037A0009CE990938900809388008FEF8093E002DA
:1037B000E3CFCF92DF92EF92FF920F931F93E82F08
:1037C000F92F05C0015011092109310961F19081DA
:1037D00096239417B9F305C0015011092109310945
:1037E00011F1908196239413F7CFC12CD12CE12CA9
:1037F000F12C0AC08FEFC81AD80AE80AF80A0C158B
:103800001D052E053F0579F080818623841791F3ED
:103810006C2D7D2D8E2D9F2D1F910F91FF90EF9080
:10382000DF90CF90089560E070E080E090E01F911D
:103830000F91FF90EF90DF90CF900895109240038A
:1038400010923F0388EE93E0A0E0B0E08093410344
:1038500090934203A0934303B093440381E992E021
:1038600090933E0380933D0385EC90E090934A0350
:103870008093490384EC90E090934C0380934B0336
:1038800080EC90E090934E0380934D0381EC90E0A8
:103890009093500380934F0382EC90E090935203F7
:1038A0008093510386EC90E09093540380935303EC
:1038B0001092560310925703109258031092590316
:1038C00080E290E09093C2048093C1048DE08093E5
:1038D000C3041092C9041092C804ECE9F4E08FEB21
:1038E00094E011928E179F07E1F71092C004109296
:1038F000BF041092FF031092000410920104109272
:1039000002048BE0809303048DE0809304048CE038
:103910008093050461E08BE00E94200361E08091C8
:1039200004040E94200361E0809105040E942003AA
:1039300060E0809103040E94070260E0809104042B
:103940000E94070260E0809105040E9407020E9425
:1039500035028091FE038C30A0F08FEF8093070436
:1039600010921704109216048091FE038C30E0F040
:103970008FEF809330041092400410923F040C9417
:10398000510391E0980F9093FE038093070490E019
:10399000FC01EE0FFF1FE80FF91FE652FC4F88EB0A
:1039A0009BE092838183DCCF91E0980F9093FE039C
:1039B0008093300490E0FC01EE0FFF1FE80FF91F29
:1039C000E652FC4F88EB9BE092838183D4CFCF9368
:1039D000DF93CDB7DEB7C65DD1090FB6F894DEBF71
:1039E0000FBECDBF789484B5826084BD84B58160FC
:1039F00084BD85B5826085BD85B5816085BD8091BA
:103A00006E00816080936E00109281008091810031
:103A10008260809381008091810081608093810029
:103A2000809180008160809380008091B1008460EB
:103A30008093B1008091B00081608093B00080914C
:103A40007A00846080937A0080917A00826080930B
:103A50007A0080917A00816080937A0080917A0068
:103A6000806880937A001092C100E0914D03F0913C
:103A70004E0382E08083E0914903F0914A03108273
:103A8000E0914B03F0914C0380E180831092550349
:103A9000E0915103F091520386E08083E0914F035F
:103AA000F0915003808180618083E0914F03F09119
:103AB0005003808188608083E0914F03F091500330
:103AC000808180688083E0914F03F0915003808172
:103AD0008F7D808360E086E00E94200360E087E0C5
:103AE0000E94200384E090E090937304809372041A
:103AF00085E090E090937504809374040E94D10B4C
:103B000010929A048AE590E090937B0480937A0463
:103B100090937D0480937C0483E090E090935E0416
:103B200080935D0460E00E94200381E190E0909327
:103B3000600480935F0460E00E9420030E945103B0
:103B400082E190E0909363048093620460E00E94BD
:103B5000200301E010E010936504009364041093C7
:103B6000670400936604109369040093680483E17A
:103B700090E090936B0480936A0460E00E942003BD
:103B800010936D0400936C0410936F0400936E0403
:103B90008FEF9FEF909371048093700488E090E022
:103BA00090935A048093590489E090E090935C04C8
:103BB00080935B0461E088E00E94200360E08091D4
:103BC0005B040E9420038AE090E090937F0480933E
:103BD0007E0484E190E0909381048093800461E00E
:103BE0008AE00E94200360E084E10E94200384E1D7
:103BF0000E946D03BC01990F880B990B611571052B
:103C00008105910511F00E94322461E37EE08EEA85
:103C100092E00E94211167E571E180EB92E00E9441
:103C200021116BE871E182EB92E00E94211161EDBC
:103C300071E184EB92E00E94211164E072E186EB75
:103C400092E00E94211167E377E188EB92E00E9405
:103C5000211169ED78E18AEB92E00E94211168EA76
:103C600077E18CEB92E00E94211168E778E18EEB1E
:103C700092E00E94211164E178E180EC92E00E94E0
:103C8000211165E379E182EC92E00E9421116CEB55
:103C90007EE084EC92E00E9421116DE370E186ECFD
:103CA00092E00E9421116CE97EE088EC92E00E9493
:103CB000211181E39EE09093D1068093D0060E946B
:103CC0007F0D85E090E00E947F258432D9F466E77D
:103CD00072E085E090E00E9461181982BE016F5F7A
:103CE0007F4F86E090E00E9461186DE170E080E017
:103CF00090E00E94720268EE73E080E090E00E9423
:103D0000A703F9CF0E94141862E370E080E090E00E
:103D10000E94A7030E949C0E62E370E080E090E0A6
:103D20000E94A7030E943D100E94ED0620E030E0B3
:103D300044E352E40E94AC2687FF41C080911B03FC
:103D400081113DC06CE170E080E090E00E94720261
:103D500003E0802E912C88E0A82EB12CC12CD12C10
:103D600018EBE12E1EE1F12E05E81FE320E030E024
:103D70004AEF54E460E070E08CE594E40E945D0654
:103D80006EE170E080E090E00E94A7031CE5E12E68
:103D90001FE8F12E02E81FE320E030E04CE554E498
:103DA00060E070E08AEF94E40E945D060E94A80241
:103DB00064EF71E080E090E00E94A703BFCF10E0C5
:103DC00000E080911B03811111C0A80160E070E048
:103DD000CB010E94B20266E970E080E090E00E94B0
:103DE000A7030F5F1F4F0830110559F710E000E0DF
:103DF00080911B03811111C0A80160E070E0CB012C
:103E00000E94B20266E970E080E090E00E94A703A1
:103E10000F5F1F4F0830110559F780911B03811167
:103E20000CC06AE070E080E090E00E94720268ECF2
:103E300070E080E090E00E94A70385E090E00E949F
:103E40007F258332F1F480911B0381110EC090E035
:103E500080E00E94430D90E080E00E94610D68ECDC
:103E600070E080E090E00E94A70380911B03811125
:103E700008C06FE070E080E090E00E9472020E9453
:103E80007F0D80911B03811106C06BE070E080E024
:103E900090E00E9472020E948E0A60931503709354
:103EA00016038093170390931803809161029091F9
:103EB0006202A0916302B0916402C153DF4F888314
:103EC0009983AA83BB83CF5CD040DE0111963D016C
:103ED0008091650290916602A0916702B09168029C
:103EE000CD52DF4F88839983AA83BB83C35DD040C3
:103EF0001E0199EC290E311C86E0D1011D928A9594
:103F0000E9F78DE393E00E9414011816190674F482
:103F100080914A0190914B01039741F081E090E03C
:103F200090934B0180934A0110921B0380911B03D5
:103F3000882309F44FC00E947F0D64E670E080E0A2
:103F400090E00E94A70368EC70E080E090E00E949F
:103F5000A70380911A03882321F0809119038823F5
:103F600059F080911A0381110DC0809119038823A3
:103F700049F082E090E002C081E090E090934B0134
:103F800080934A0160914A0170914B01072E000C09
:103F9000880B990B0E94720208EC10E06AE070E056
:103FA00080E090E00E94A70301501109B9F7109238
:103FB0001B0310921A031092190380E090E0892BE2
:103FC00009F49ACF0E942001882309F495CF0E941A
:103FD00000008ECF80914A0190914B018130910574
:103FE00009F477C154F4892B09F494C081E090E07E
:103FF00090934B0180934A01E0CF8230910509F400
:1040000019C3039799F711E095E2992E8DE393E098
:104010000E941401181619060CF04CC3112309F460
:1040200049C38DE393E00E94F20080939B0490913A
:10403000C304891347C01092C0041092BF0446EC19
:1040400054E061EC74E08CE994E00E944D256C0131
:104050009093C5048093C404892B09F42BC3A090CA
:10406000C804B090C9048BE9E82E84E0F82E10E073
:1040700000E00A151B050CF010C3B701615D7F4F0E
:1040800043E250E0C6010E949D28F5E2EF0EF11CCC
:10409000892B09F0FFC2909EF001919EF00D112432
:1040A000E351FB4F0190F081E02D0995ECE9F4E03C
:1040B000119224E0EF3BF207D9F71092C00410925E
:1040C000BF0410E000919B04802F002E000C990B80
:1040D0000E949628892B09F499CF8091BF04909172
:1040E000C0049C012F5F3F4F3093C0042093BF0456
:1040F00085569B4FDC0111960C93F901E556FB4F59
:104100001182233231050CF481CF1092C004109239
:10411000BF047CCF0E948E0A0091150310911603F4
:104120002091170330911803601B710B820B930BC6
:10413000603878438140910508F43FCF1D821E828C
:104140001F8218868AE590E09A8389839C838B83FB
:1041500080911B03811105C0B3018CEB92E00E949A
:104160009E0C14E0412E512C80911B0381118CC0B8
:1041700050E040E061E070E080E090E00E94B20238
:10418000FAE08F2E912CAAE0AA2EB12CC12CD12CB2
:1041900018EBE12E1EE1F12E05E81FE320E030E0F0
:1041A00048E453E460E070E088EC92E40E945D062D
:1041B00080911B03811168C041E050E061E070E034
:1041C00080E090E00E94B20220E030E046E953E453
:1041D00060E070E088E493E40E945D0680911B0338
:1041E000811152C042E050E061E070E080E090E078
:1041F0000E94B20220E030E04AEF53E460E070E059
:1042000086E993E40E945D0664EF71E080E090E04F
:104210000E94A70380911B03811136C041E050E04A
:1042200061E070E080E090E00E94B2028824839414
:10423000912C20E030E04AE753E460E070E088EC45
:1042400093E40E945D0680911B0381111DC050E024
:1042500040E061E070E080E090E00E94B20220E087
:1042600030E048EC52E460E070E08AE793E40E94BA
:104270005D0664EF71E080E090E00E94A703E1E05A
:104280004E1A510809F070CF80911B0381110AC0AA
:1042900063E170E080E090E00E94720289E090E0CB
:1042A0000E9465070E947F0D80911B03811106C04B
:1042B0006BE070E080E090E00E9472020E948E0A43
:1042C000609315037093160380931703909318035C
:1042D00074CE6091140370E090E080E04AE00E94A8
:1042E000370E8FE992E00E94EA0D8091140381114C
:1042F00030C00E94690A8A3892405CF18AEC92E0F0
:104300000E94EA0D8FE992E00E94EA0D0E948E0A57
:1043100000914601109147012091480130914901D7
:10432000601B710B820B930B693E734081059105F5
:1043300080F080911303882399F1109213030E9457
:104340008E0A6093460170934701809348019093D1
:10435000490180911303882309F467C10091110377
:10436000109112030115110509F494C0F801EE0F24
:10437000FF1FEF50FD4F80819181049709F08AC0A3
:104380008091F202811110C088EB9BE00E94610DC8
:1043900081E08093F20210921303109214030DCE69
:1043A00081E080931303CBCF81E08093140363EF0C
:1043B000A62E62E0B62EF12CE12CE016F1060CF0F0
:1043C00059C0D5018D909D905D0157E7C52E52E0F3
:1043D000D52ED601ED91FD916D01808191818816D8
:1043E000990651F48281938182309105D1F16CF468
:1043F0000097D9F10197F1F0A1E8B2E0AC15BD0545
:1044000041F7BFEFEB1AFB0AD8CF83309105B9F023
:10441000049791F7CD52DF4F88819981AA81BB81A2
:10442000C35DD04089839A83AB83BC83B30182E5AB
:1044300093E014C084EC99E00E94610DDDCFC1537C
:10444000DF4F88819981AA81BB81CF5CD04089836D
:104450009A83AB83BC83B30182EF93E00E949E0CEE
:10446000CBCF84EC99E00E94430D84E690E00E945B
:10447000250DC2CF1092120310921103E3EFF2E068
:104480008EE1DF011D928A95E9F7109213031092D5
:10449000F20283CF81E080931403C1010E94D80E01
:1044A000892B09F44BC0A1E8B2E04DE8A42E42E00C
:1044B000B42E8D909D9094012E5F3F4FA101640119
:1044C000E8E0CE0ED11CF901819191919F01FA0192
:1044D00061917191AF017C01FFE0EF1AF1086E1557
:1044E0007F050CF41FC10F96861797070CF41AC1AD
:1044F000C216D30641F7F4018081918197FD1EC059
:104500008330910521F41092F10283E090E0209134
:10451000F102211113C08330910581F021E0209335
:10452000F102F801EE0FFF1FED50FD4F91838083E4
:104530000F5F1F4F10931203009311038DE594E05A
:104540000E94C10A182F8093F0028FE594E00E9428
:10455000C10A111125C0811115C08AE090E00E94A6
:10456000610D1092EF021092EE0281E090E09093C4
:10457000ED028093EC026AE070E080E090E00E943F
:1045800072021BCD813009F018CD8AE090E00E94C4
:10459000CC0D1092EF021092EE0283E090E0E7CF94
:1045A000113009F00ACD81110BC08AE090E00E9421
:1045B000AE0D1092EF021092EE0284E090E0D7CFA1
:1045C000813009F0FACC0091EE021091EF02093E21
:1045D00023E01207CCF48091EC029091ED0284303C
:1045E000910559F48AE090E00E94AE0D0F5F1F4FD5
:1045F0001093EF020093EE02BECF039729F48AE0F6
:1046000090E00E94CC0DF2CF8AE090E00E94250D50
:104610001092EF021092EE021092ED021092EC0254
:1046200066E170E080E090E0AACF8AE090E00E942E
:10463000250DF6CFC1010E94D80E892B09F4BDCCFF
:10464000710110E000E023EDC22E22E0D22ED7014E
:104650008C9111969C91B2E0EB0EF11C9F938F937D
:104660001F930F93DF92CF927F926F920E94BA288E
:10467000C3010E94EA0D8FE992E00E94EA0D0F5FEC
:104680001F4F0FB6F894DEBF0FBECDBF033011052C
:10469000F1F693CC0F5F1F4FECCCE091D006F09178
:1046A000D1060995ECE9F4E0119284E0EF3BF807BC
:1046B000D9F703CD80919A0481117FCC8091EA02D1
:1046C0009091EB0282309105F9F064F40097B9F013
:1046D000019709F072CC80914401909145010E94AC
:1046E000CC0D0FC083309105B1F0049709F065CC73
:1046F00080914401909145010E94430D02C00E94A7
:104700007F0D0E94050E59CC809144019091450186
:104710000E94AE0DF6CF80914401909145010E9418
:10472000610DEFCFAA16BB0609F0C3CEECCE8F9277
:104730009F92AF92BF92CF92DF92EF92FF92CF9370
:10474000DF93EC01688179818A819B816115710514
:104750008105910521F464E279ED8BE597E02DE187
:1047600033EF41E050E00E94C72549015A019B0107
:10477000AC01A7EAB1E40E94E6256B017C01ACEE36
:10478000B4EFA50194010E94F425C60ED71EE81EC1
:10479000F91EF7FE06C081E0C81AD108E10880E8DA
:1047A000F80AC882D982EA82FB82C701B6019F77E4
:1047B000DF91CF91FF90EF90DF90CF90BF90AF90BF
:1047C0009F908F9008958F929F92AF92BF92CF92B9
:1047D000DF92EF92FF9260915D0170915E01809196
:1047E0005F0190916001611571058105910521F4CA
:1047F00064E279ED8BE597E02DE133EF41E050E0A5
:104800000E94C72549015A019B01AC01A7EAB1E406
:104810000E94E6256B017C01ACEEB4EFA50194018A
:104820000E94F425C60ED71EE81EF91EF7FE06C02C
:1048300081E0C81AD108E10880E8F80AC0925D0159
:10484000D0925E01E0925F01F0926001C701B60173
:104850009F77FF90EF90DF90CF90BF90AF909F90A9
:104860008F90089560935D0170935E0180935F0166
:10487000909360010895B0E0A0E0E1E4F4E20C94CC
:10488000FA255C016B017A016115710519F0FB01D4
:1048900091838083E114F10449F0C7010297839763
:1048A00028F060E070E0CB019CC05E01E50121963C
:1048B000F5011081812F90E00E944425892BA9F7F2
:1048C0001D3209F056C02196F501118101E0E11475
:1048D000F10409F4AEC0F0E1EF16F10409F08EC066
:1048E000103341F488818F7D883509F083C01981A8
:1048F00022960260E0E1EE2EF12C88248A94982C16
:10490000A82CFFE0BF2E20E060E070E0CB01270183
:104910000F2C000C66087708FE0150ED352E310E85
:1049200039E0331538F43FEB310F3A31A0F549EC5B
:10493000342E310E3E141F04BCF52F3FB9F08616FD
:104940009706A806B90670F1A30192010E94952569
:10495000232D30E050E040E0620F731F841F951F4D
:104960006217730784079507E8F021E0219610810C
:10497000D3CF1B3221F4E5012296F501118100E02D
:10498000A6CF78E0E72EF12C88248A94982CA82CC6
:104990006FE1B62EB8CF3FE9310F3A3128F439EA4A
:1049A000332EC7CF2FEFE2CFC114D10431F0222331
:1049B000E9F02197F601D183C08300FF07C09095ED
:1049C0008095709561957F4F8F4F9F4F2F3F49F492
:1049D00082E290E09093D5068093D4066FEF7FEF4C
:1049E000CB01CDB7DEB7E1E10C94162601FFE5CF90
:1049F0002297E0CF10E3E114F10419F23AE0E31654
:104A0000F104E9F080E1E816F10409F473CFE8E07D
:104A1000EE16F10409F4B8CF6FEF7FEFCB019701E9
:104A20000F2C000C440B550B0E94A52549015A017F
:104A30006ACF103309F456CF9AE0E92EF12C89E9B8
:104A4000882E982CA82C89E1B82E5DCFFC018827F0
:104A50009927E89421912032E9F3293010F02E3083
:104A6000C8F32B3241F02D3239F4689404C00E940F
:104A70007425820F911D219120532A30C0F31EF41A
:104A8000909581959F4F089591110C947C258032CB
:104A900019F089508550C8F70895FA01A191B081A5
:104AA000009719F41097E1F0CD01DC01CD010D90D4
:104AB000002011F4C00113C0FB012191222319F041
:104AC0002015D9F7F3CFFB012191201519F41E927F
:104AD000119606C02223C1F70D900020A1F7D00146
:104AE000FA01A193B08308957AE0979F902D879F54
:104AF000802D910D11240895992788270895F999FB
:104B0000FECF92BD81BDF89A992780B50895262FD2
:104B1000F999FECF1FBA92BD81BD20BD0FB6F894A2
:104B2000FA9AF99A0FBE01960895DB018F939F932D
:104B30000E94E625BF91AF91A29F800D911DA39F7A
:104B4000900DB29F900D11240895A1E21A2EAA1B78
:104B5000BB1BFD010DC0AA1FBB1FEE1FFF1FA2172D
:104B6000B307E407F50720F0A21BB30BE40BF50B2A
:104B7000661F771F881F991F1A9469F760957095B3
:104B8000809590959B01AC01BD01CF010895052E44
:104B900097FB1EF400940E94DE2557FD07D00E946B
:104BA000A52507FC03D04EF40C94DE2550954095C6
:104BB000309521953F4F4F4F5F4F089590958095C9
:104BC000709561957F4F8F4F9F4F08950E943026BB
:104BD000A59F900DB49F900DA49F800D911D112451
:104BE0000895B7FF0C94E6250E94E625821B930BDF
:104BF00008952F923F924F925F926F927F928F9281
:104C00009F92AF92BF92CF92DF92EF92FF920F935B
:104C10001F93CF93DF93CDB7DEB7CA1BDB0B0FB665
:104C2000F894DEBF0FBECDBF09942A883988488822
:104C30005F846E847D848C849B84AA84B984C884B8
:104C4000DF80EE80FD800C811B81AA81B981CE0FAF
:104C5000D11D0FB6F894DEBF0FBECDBFED01089594
:104C6000A29FB001B39FC001A39F700D811D1124AD
:104C7000911DB29F700D811D1124911D08955058F2
:104C8000BB27AA270E9457260C94D1270E94C3272E
:104C900038F00E94CA2720F039F49F3F19F426F417
:104CA0000C94C0270EF4E095E7FB0C94BA27E92F8B
:104CB0000E94E22758F3BA17620773078407950723
:104CC00020F079F4A6F50C9404280EF4E0950B2E50
:104CD000BA2FA02D0B01B90190010C01CA01A0014E
:104CE0001124FF27591B99F0593F50F4503E68F1A9
:104CF0001A16F040A22F232F342F4427585FF3CFEA
:104D0000469537952795A795F0405395C9F77EF4BA
:104D10001F16BA0B620B730B840BBAF09150A1F003
:104D2000FF0FBB1F661F771F881FC2F70EC0BA0F89
:104D3000621F731F841F48F4879577956795B79511
:104D4000F7959E3F08F0B0CF9395880F08F099270C
:104D5000EE0F9795879508950E94962708F481E0B5
:104D600008950E94C5260C94D1270E94CA2758F0A6
:104D70000E94C32740F029F45F3F29F00C94BA2722
:104D800051110C9405280C94C0270E94E22768F367
:104D90009923B1F3552391F3951B550BBB27AA27F4
:104DA00062177307840738F09F5F5F4F220F331F2E
:104DB000441FAA1FA9F335D00E2E3AF0E0E832D0F6
:104DC00091505040E695001CCAF72BD0FE2F29D0F9
:104DD000660F771F881FBB1F261737074807AB07CB
:104DE000B0E809F0BB0B802DBF01FF2793585F4F40
:104DF0003AF09E3F510578F00C94BA270C940528A0
:104E00005F3FE4F3983ED4F3869577956795B79521
:104E1000F7959F5FC9F7880F911D9695879597F92C
:104E20000895E1E0660F771F881FBB1F62177307A5
:104E30008407BA0720F0621B730B840BBA0BEE1FBA
:104E400088F7E09508950E942A276894B1110C9480
:104E5000052808950E94EA2788F09F5798F0B92FF7
:104E60009927B751B0F0E1F0660F771F881F991F9F
:104E70001AF0BA95C9F714C0B13091F00E94042815
:104E8000B1E008950C940428672F782F8827B85F25
:104E900039F0B93FCCF3869577956795B395D9F7F7
:104EA0003EF490958095709561957F4F8F4F9F4F01
:104EB0000895E89409C097FB3EF49095809570950D
:104EC00061957F4F8F4F9F4F9923A9F0F92F96E956
:104ED000BB279395F695879577956795B795F111CB
:104EE000F8CFFAF4BB0F11F460FF1BC06F5F7F4F68
:104EF0008F4F9F4F16C0882311F096E911C077237A
:104F000021F09EE8872F762F05C0662371F096E882
:104F1000862F70E060E02AF09A95660F771F881F51
:104F2000DAF7880F9695879597F90895990F0008F5
:104F3000550FAA0BE0E8FEEF16161706E807F9076B
:104F4000C0F012161306E407F50798F0621B730B06
:104F5000840B950B39F40A2661F0232B242B252B87
:104F600021F408950A2609F4A140A6958FEF811D2A
:104F7000811D089597F99F6780E870E060E00895CB
:104F80009FEF80EC089500240A9416161706180661
:104F90000906089500240A9412161306140605063D
:104FA0000895092E0394000C11F4882352F0BB0FCE
:104FB00040F4BF2B11F460FF04C06F5F7F4F8F4F31
:104FC0009F4F089557FD9058440F551F59F05F3F6C
:104FD00071F04795880F97FB991F61F09F3F79F01B
:104FE00087950895121613061406551FF2CF46959D
:104FF000F1DF08C0161617061806991FF1CF86951F
:105000007105610508940895E894BB276627772702
:10501000CB0197F908950E94962708F48FEF089521
:105020000E9423280C94D1270E94C32738F00E94A5
:10503000CA2720F0952311F00C94BA270C94C027AE
:1050400011240C9405280E94E22770F3959FC1F368
:10505000950F50E0551F629FF001729FBB27F00D26
:10506000B11D639FAA27F00DB11DAA1F649F66277B
:10507000B00DA11D661F829F2227B00DA11D621FCA
:10508000739FB00DA11D621F839FA00D611D221F84
:10509000749F3327A00D611D231F849F600D211D68
:1050A000822F762F6A2F11249F5750409AF0F1F0EB
:1050B00088234AF0EE0FFF1FBB1F661F771F881F54
:1050C00091505040A9F79E3F510580F00C94BA27AB
:1050D0000C9405285F3FE4F3983ED4F386957795CA
:1050E0006795B795F795E7959F5FC1F7FE2B880FFA
:1050F000911D9695879597F908950E949627880B9C
:10510000990B0895991B79E004C0991F961708F030
:10511000961B881F7A95C9F780950895EE0FFF1F9B
:105120000590F491E02D0994803209F091110C94CE
:105130007C2580528F55D8F70895FB01DC01415042
:10514000504030F08D910190801919F40020B9F78A
:10515000881B990B0895FB01DC014150504048F039
:1051600001900D920020C9F701C01D92415050409E
:10517000E0F70895AEE0B0E0E0ECF8E20C9407262A
:105180000D891E8986E08C831A8309838FEF9FE740
:105190009E838D83AE01475E5F4F6F89788DCE0110
:1051A00001960E94DD282F813885020F131FF80118
:1051B00010822E96E4E00C942326ABE0B0E0E3EE00
:1051C000F8E20C94F9257C013B018A01FC0117826D
:1051D0001682838181FFC8C1CE0101965C01F7016F
:1051E0009381F30193FD859193FF81913F01882382
:1051F00009F453C1853239F493FD859193FF819170
:105200003F01853229F4B70190E00E94CD2AE7CF13
:10521000912C212C312CFFE1F31538F08B3211F158
:1052200090F4803209F1833229F137FC3CC020ED43
:10523000280F2A3050F536FE20C08AE0989E200DB7
:105240001124922E06C08D3291F0803371F768944C
:1052500030F8F30193FD859193FF81913F01811116
:10526000DACF21C0689431F8689432F8F2CF6894AC
:1052700033F8EFCF689434F8ECCFEAE02E9E200D9F
:105280001124222E689435F8E4CF8E3229F436FCAE
:1052900004C1689436F8DDCF8C3619F4689437F879
:1052A000D8CF8836B1F2982F9F7D95549330E0F097
:1052B0008336A1F18337C1F1833509F063C028013A
:1052C000F2E04F0E511CF801C080D180692D70E0D2
:1052D00036FC02C06FEF7FEFC6010E94B72A4C0177
:1052E000689437F882010AC00C5F1F4FFFE3F9830F
:1052F00088248394912C6501E89437F833FE2DC0FF
:10530000522C8114910471F5552009F468CFB7012E
:1053100080E290E00E94CD2A5A94F6CFF801808175
:1053200089830E5F1F4FE4CF2801F2E04F0E511C1E
:10533000F801C080D180692D70E036FC02C06FEFAB
:105340007FEFC6010E94C22A4C018201D5CFB7016E
:1053500080E290E00E94CD2A2A942814190409F0D2
:10536000B0F7CECFF60137FC859137FE81916F0102
:10537000B70190E00E94CD2A51105A94F1E08F1AA3
:105380009108BFCF843619F0893609F077C0F8014B
:1053900037FE6BC060817181828193810C5F1F4FEA
:1053A000F32DFF763F2E97FF09C09095809570955D
:1053B00061957F4F8F4F9F4F689437F82AE030E018
:1053C000A5010E94FD2AC82ECA188C2C432C36FE3B
:1053D0000CC0E89440F8C91440F434FE05C032FC17
:1053E00003C0F32DFE7E4F2E892C44FE95C0FE0196
:1053F000EC0DF11D8081803309F087C0242D297EBA
:10540000422E842D8870582E43FC95C040FE8FC0DC
:105410009C2C821418F42C0C922C981844FE91C0E9
:10542000B70180E390E00E94CD2A42FE09C088E7E0
:1054300090E041FE02C088E590E0B7010E94CD2ACD
:10544000C91408F48AC0CA94D12C9FEFC91AD90A8A
:10545000CA0CDB1CF60182916F01B70190E00E943B
:10546000CD2AAC14BD04B1F74FCF60817181072EF6
:10547000000C880B990B0E5F1F4F92CFD32CE89432
:10548000D4F82AE030E0853739F1232D297FD22E58
:105490008F3601F148F48835A9F0F70186819781AC
:1054A0002B96E2E10C941526803749F08837A9F74E
:1054B000D4FE02C06894D2F820E130E00DC06894B8
:1054C000D4F8F6CF34FE03C0822F8660D82E20E1B8
:1054D00032E002C028E030E0F801D7FE0FC0608162
:1054E0007181828193810C5F1F4FA5010E94FD2A6B
:1054F000C82ECA183D2CE89437F867CF60817181B7
:1055000090E080E00E5F1F4FF0CF42FC02C083941A
:1055100078CF8394839475CF842D867809F471CFE6
:10552000F6CFB70180E290E00E94CD2A83948214E6
:10553000C0F3512C73CF522C5818821408F46ECF3C
:10554000F8CF842D867809F47BCF8BE241FE80E290
:1055500047FC8DE2B70190E071CFB70180E390E0A6
:105560000E94CD2A9A946CCF8FEF9FEF99CFFC01C8
:105570000590615070400110D8F7809590958E0F7E
:105580009F1F0895FC016150704001900110D8F7F1
:10559000809590958E0F9F1F08950F931F93CF9323
:1055A000DF93182F092FEB018B8181FD09C01FEFBD
:1055B0000FEF812F902FDF91CF911F910F910895C1
:1055C00082FF14C02E813F818C819D81281739076D
:1055D0003CF4E881F981CF01019699838883108397
:1055E0008E819F8101969F838E83E3CFE885F98525
:1055F000812F0995892BA1F3DACFFA01AA27283048
:1056000051F1203181F1E8946F936E7F6E5F7F4F8F
:105610008F4F9F4FAF4FB1E03ED0B4E03CD0670F0B
:10562000781F891F9A1FA11D680F791F8A1F911D5E
:10563000A11D6A0F711D811D911DA11D20D009F4AE
:1056400068943F912AE0269F11243019305D3193F0
:10565000DEF6CF010895462F4770405D4193B3E0D9
:105660000FD0C9F7F6CF462F4F70405D4A3318F080
:10567000495D31FD4052419302D0A9F7EACFB4E031
:10568000A6959795879577956795BA95C9F70097E9
:105690006105710508959B01AC010A2E069457958A
:1056A000479537952795BA95C9F7620F731F841FE1
:0A56B000951FA01D0895F894FFCF88
:1056BA0004000000050002000200040000000300CC
:1056CA00010001000500ED00B400B10004002B0048
:1056DA002200230004000F000F000F000100AD009C
:1056EA004900490002004E0070006E0000004900A7
:1056FA005F005E00E803FFFFFFFF0100B500B50091
:10570A00000080BF000080BF000080BFFF010000D2
:10571A00008C24490C0E4130041E42480C8C44482B
:10572A000C82E049129CC0411E8CC421041042081C
:10573A001E8CC4480C8EE0480C002385000023FD13
:10574A000000E0FD008C14B6128C144A0C00C30051
:10575A00008091243F80D4B63F0020B53F00F0037B
:10576A0000805821000281402040283100C02F319A
:10577A0000C0EC310000420901A1C448210441489B
:10578A000C10C2210480D4860040187A0000C3009D
:10579A000080610000C03000008061000000C3008A
:1057AA000000860100000C030000860100300C0096
:1057BA0000100A010018496200100A0100210000C5
:1057CA0021520884128C144A0C0023310000C000B4
:1057DA00000000000000104A0C0008250620841072
:1057EA000330420801182904008C14020046028181
:1057FA00000381402081402030402090185A005AEE
:10580A0000530064006400550066005500640053AC
:10581A000055005500640064005A4F57495F4241E1
:10582A0053455F7632002310010C01080104010080
:10583A00013C0134012C0124011C01140100000067
:10584A00005601B600E300BE011401F20006010D84
:10585A000A006E616E00696E66006F76660053001C
:10586A004C0054004D0048004B00430047005200D2
:10587A00450044004E0042004900656E7472616D35
:10588A006F73005247425B25645D203D202564000A
:00000001FF
