:100000000C9481000C94ED1A0C94C61A0C94A9005F
:100010000C94A9000C94A9000C94A9000C94A219AA
:100020000C94A9000C94A9000C94A9000C94141B26
:100030000C94A9000C94A9000C94A9000C94A9009C
:100040000C947C1A0C94A9000C944A1A0C94241A4F
:100050000C94A9000C94A9000C94A9000C94A9007C
:100060000C94A9000C94A900252500452000262603
:10007000002525004420002626002525004E2000CE
:100080002626002525004220002626002525004999
:1000900020002626002525004100262600252500D3
:1000A000460026260000000000230026002900004C
:1000B000000000240027002A0000000008000201C0
:1000C000000003040700000000000000000102041B
:1000D00008102040800102040810200102040810CA
:1000E0002000000000250028002B00040404040464
:1000F00004040402020202020203030303030302D4
:10010000151C11241FBECFEFD8E0DEBFCDBF12E01B
:10011000A0E0B1E0E2E1F6E502C005900D92A83C56
:10012000B107D9F726E0A8ECB2E001C01D92AB3BC5
:10013000B207E1F710E0C1E8D0E004C02197FE016A
:100140000E943A28C038D107C9F70E94DE1C0C94DF
:10015000072B0C94000080910F03909110030196DF
:100160009093100380930F0308950895AF92BF9268
:10017000CF92DF92EF92FF920F931F93CF93DF9373
:100180006C017B018B01040F151FEB015E01AE18A2
:10019000BF08C017D10759F06991D601ED91FC91C4
:1001A0000190F081E02DC6010995892B79F7C501F1
:1001B000DF91CF911F910F91FF90EF90DF90CF9043
:1001C000BF90AF900895FC01538D448D252F30E0F2
:1001D000842F90E0821B930B541710F0CF96089554
:1001E00001970895FC01918D828D981761F0A28D81
:1001F000AE0FBF2FB11D5D968C91928D9F5F9F7347
:10020000928F90E008958FEF9FEF0895FC01918DFC
:10021000828D981731F0828DE80FF11D858D90E069
:1002200008958FEF9FEF0895FC01918D228D892F06
:1002300090E0805C9F4F821B91098F7399270895EE
:1002400082E293E00E94140121E0892B09F420E06E
:10025000822F089580E090E0892B29F00E942001F0
:1002600081110C9400000895FC01A48DA80FB92FF2
:10027000B11DA35ABF4F2C91848D90E001968F73CE
:100280009927848FA689B7892C93A089B1898C91ED
:10029000837080648C93938D848D981306C002883C
:1002A000F389E02D80818F7D80830895EF92FF9206
:1002B0000F931F93CF93DF93EC0181E0888F9B8D89
:1002C0008C8D98131AC0E889F989808185FF15C043
:1002D0009FB7F894EE89FF896083E889F989808166
:1002E0008370806480839FBF81E090E0DF91CF9135
:1002F0001F910F91FF90EF900895F62E0B8D10E057
:100300000F5F1F4F0F731127E02E8C8D8E110CC0C5
:100310000FB607FCFACFE889F989808185FFF5CF10
:10032000CE010E943401F1CFEB8DEC0FFD2FF11DBA
:10033000E35AFF4FF0829FB7F8940B8FEA89FB894D
:1003400080818062CFCF0F931F93CF93DF938C0177
:10035000D0E0C0E0F801EC0FFD1F6491662341F08E
:1003600082E293E00E945601892B11F02196F2CF90
:10037000CE01DF91CF911F910F910895CF93DF931D
:10038000EC01888D8823B9F0AA89BB89E889F989AD
:100390008C9185FD03C0808186FD0DC00FB607FCE2
:1003A000F7CF8C9185FFF2CF808185FFEDCFCE0115
:1003B0000E943401E9CFDF91CF910895833081F01D
:1003C00028F4813099F08230A9F008958730A9F09F
:1003D0008830C9F08430B1F4809180008F7D03C0F3
:1003E000809180008F7780938000089584B58F7707
:1003F00084BD089584B58F7DFBCF8091B0008F7749
:100400008093B00008958091B0008F7DF9CF1F9345
:10041000CF93DF93282F30E0F901E754FF4F849109
:10042000F901E353FF4FD491F901E551FF4FC49116
:10043000CC23A9F0162F81110E94DE01EC2FF0E0F1
:10044000EE0FFF1FEF51FF4FA591B4918FB7F894B6
:10045000EC91111108C0D095DE23DC938FBFDF91A2
:10046000CF911F910895DE2BF8CFCF93DF93D0E08B
:10047000C0E08091E4039091E503A091E603B09180
:10048000E7030C2E04C0B695A795979587950A9417
:10049000D2F7682F61708091E8030E940702000084
:1004A0000000000061E08091E9030E940702000063
:1004B0000000000060E08091E9030E94070221969D
:1004C000CE31D105B1F661E08091EA030E940702C6
:1004D00000000000000060E08091EA03DF91CF910E
:1004E0000C940702CF93DF93CDB7DEB7CC57D10979
:1004F0000FB6F894DEBF0FBECDBF2CE7E1E5F1E00B
:10050000DE01119601900D922A95E1F7660F771F93
:10051000660F771F81E090E08C0F9D1F680F791F99
:10052000FB0180819181A281B3818093E403909348
:10053000E503A093E603B093E703C458DF4F0FB67B
:10054000F894DEBF0FBECDBFDF91CF910C94350282
:100550001092E4031092E5031092E6031092E70371
:100560000C943502CF93DF93CDB7DEB7C057D109D6
:100570000FB6F894DEBF0FBECDBF20E2EDECF1E088
:10058000DE01999601900D922A95E1F720E1EDEEBA
:10059000F1E0DE01AF59BF4F01900D922A95E1F7CE
:1005A00028E1EDEFF1E0DE01A75BBF4F01900D9276
:1005B0002A95E1F728E2E5E1F2E0DE0111960190EB
:1005C0000D922A95E1F7440F551F440F551F6230D5
:1005D000710581F16330710581F161307105F1F0D0
:1005E00081E090E08C0F9D1F480F591FFA0180A5F4
:1005F00091A5A2A5B3A58093E4039093E503A093EE
:10060000E603B093E703C059DF4F0FB6F894DEBF9F
:100610000FBECDBFDF91CF910C94350281E690E003
:100620008C0F9D1F480F591FFA0180819181A28173
:10063000B381E1CF89E490E0F3CF81E090E0F0CFA7
:10064000CF93DF9390E0FC01E353FF4F249185515A
:100650009F4FFC0184918823D1F090E0880F991F6F
:10066000FC01E155FF4FA591B491FC01EF51FF4F03
:10067000C591D49161110EC09FB7F8948C91E22F6F
:10068000E0958E238C932881E223E8839FBFDF913E
:10069000CF9108958FB7F894EC91E22BEC938FBF34
:1006A000F6CF1092100310920F0310920E031092C7
:1006B0000D0361E080E10E94200361E08FE00E9471
:1006C000200361E08EE00E94200360E082E00E944F
:1006D000200361E080E10C9407028E3008F08E5018
:1006E0008770806480937C0080917A00806480931E
:1006F0007A0080917A0086FDFCCF809178009091FD
:10070000790008953FB7F8948091CE029091CF027E
:10071000A091D002B091D10226B5A89B05C02F3F71
:1007200019F00196A11DB11D3FBFBA2FA92F982F17
:100730008827BC01CD01620F711D811D911D42E012
:10074000660F771F881F991F4A95D1F708958F92DA
:100750009F92AF92BF92CF92DF92EF92FF926B0186
:100760007C010E9482034B015C01C114D104E104AD
:10077000F104B9F00E948203681979098A099B097A
:10078000683E73408105910580F321E0C21AD108CB
:10079000E108F10888EE880E83E0981EA11CB11CC8
:1007A000E4CFFF90EF90DF90CF90BF90AF909F90FD
:1007B0008F9008954F925F926F927F928F929F9247
:1007C000AF92BF92CF92DF92EF92FF920F931F935F
:1007D000CF93DF93CDB7DEB729970FB6F894DEBF7E
:1007E0000FBECDBF29013A010115110511F401E039
:1007F00010E00E94D62669837A838B839C83809144
:1008000063049091640420914C01281719F12F3F43
:1008100009F49DC0C301B2010E94A703B801110FE2
:10082000880B990B29960FB6F894DEBF0FBECDBF8B
:10083000DF91CF911F910F91FF90EF90DF90CF90BC
:10084000BF90AF909F908F907F906F905F904F90F0
:100850000C94A703EFEFF0E02491298727FDDACF6E
:1008600061E00E9420038985882321F099859230D8
:1008700009F05FC189819A814C01B12CA12C60E003
:1008800072E18AE790E0A50194010E9473252D830F
:100890003E834F83588769017A0191E0C91AD108D4
:1008A000E108F1082FEFC216D104E104F10409F0C8
:1008B0000CF414C160E472E48FE090E0A5019401AF
:1008C0000E94732569017A0181E0C81AD108E10804
:1008D000F1089985923009F0B5C082E02FEFC21679
:1008E000D104E104F10409F00CF4E0C160E970ED19
:1008F00083E090E0A50194010E94732569017A01CB
:1009000081E0C81AD108E108F10883E09FEFC91619
:10091000D104E104F10409F00CF4C8C168E478EEF4
:1009200081E090E0A50194010E94732569017A019C
:1009300091E0C91AD108E108F1082FEFC216D104DD
:10094000E104F10411F00CF0A1C084E0AFC1809388
:100950004C01EFEFF0E0249129872F3F09F45ACFA3
:10096000213041F150F0223009F446C0298527FD9D
:1009700051CF61E00E94200379CF14BC15BC24B58F
:10098000226024BD25B5216025BD9C013327F901D6
:10099000E551FF4FE491F0E0EE0FFF1FEF51FF4FE5
:1009A00045915491F901E353FF4FE491E09315030E
:1009B000198656CF109280001092810020918100FC
:1009C0002860209381002091810021602093810084
:1009D0009C013327F901E551FF4FE491F0E0EE0F60
:1009E000FF1FEF51FF4F45915491F901E353FF4F22
:1009F000E491E093140334CF1092B0001092B10050
:100A00002091B00022602093B0002091B1002160BD
:100A10002093B1009C013327F901E551FF4FE49188
:100A2000F0E0EE0FFF1FEF51FF4F459154915093AF
:100A3000130340931203F901E353FF4FE491E09352
:100A400011030ECF2FEFC216D104E104F10409F017
:100A50000CF46DC068E478EE81E090E0A5019401AB
:100A60000E94732569017A0181E0C81AD108E10862
:100A7000F1089985992309F4E5C02FEFC216D10436
:100A8000E104F10411F00CF0E6C05FCF64E274EF12
:100A900080E090E0A50194010E94732569017A012C
:100AA00081E0C81AD108E108F10885E09FEFC91676
:100AB000D104E104F10409F008F4F8C062E17AE736
:100AC00080E090E0A50194010E94732569017A01FC
:100AD00081E0C81AD108E108F108CFC081E029857A
:100AE0002111E4C095B5987F892B85BD2FEF3FEF8D
:100AF000A901411451046104710409F057C08985AA
:100B0000813009F462C0823009F471C0811182CE53
:100B1000C7BC20931E0330931F03409320035093C0
:100B2000210380916E00826080936E0073CE82E01C
:100B3000D6CF89819A814C01B12CA12C60E072E161
:100B40008AE790E0A50194010E94732569017A016A
:100B500091E0C91AD108E108F10891E0C114D1046B
:100B600021E0E206F10484F068E478EE81E090E0B0
:100B7000A50194010E94732569017A0181E0C81AD8
:100B8000D108E108F10893E02985213009F0AECFC2
:100B900080918100887F892B809381002FEF3FEF28
:100BA000A901411451046104710479F0A981BA8149
:100BB000AA0FBB1FA30192010E94922528EE33E0E9
:100BC00040E050E00E9451259ACFD0928900C09217
:100BD000880020931A0330931B0340931C03509307
:100BE0001D0380916F00826080936F0013CEC092CE
:100BF000B3002093160330931703409318035093C8
:100C000019038091700082608093700003CECD80C4
:100C1000DE80EF80F8848AE0F594E794D794C79457
:100C20008A95D1F721E0C21AD108E108F10885E0E0
:100C300059CF8FEFC816D104E104F10409F038F759
:100C400084E050CF83E09FEFC916D104E104F104A2
:100C500009F00CF447CF62E17AE780E090E0A5016B
:100C600094010E94732569017A0181E0C81AD108B4
:100C7000E108F10899859923E1F286E09FEFC91612
:100C8000D104E104F10491F088F0CD80DE80EF80A2
:100C9000F8849AE0F594E794D794C7949A95D1F79D
:100CA00081E0C81AD108E108F10887E09091B1000D
:100CB000987F892B8093B10019CF4F925F926F92EA
:100CC0007F928F929F92AF92BF92CF92DF92EF92DC
:100CD000FF920F931F93CF93DF93CDB7DEB7289783
:100CE0000FB6F894DEBF0FBECDBF2B013C012983A8
:100CF0003A834B835C83ED82FE820F8318870E94C8
:100D0000CF268B0129813A814B815C81C301B201DD
:100D10000E94582687FF25C0B801110F880B990B38
:100D20000E9407272B013C01AC019B0169817A815C
:100D30008B819C810E94B7271816C4F58401A601F7
:100D40009501C301B2010E94DA032D813E814F81DA
:100D50005885C301B2010E94BC270E94CF268B0197
:100D6000DBCFB801110F880B990B0E9407272B01CD
:100D70003C01AC019B0169817A818B819C810E943D
:100D8000582687FF13C08401A6019501C301B20153
:100D90000E94DA032D813E814F815885C301B20143
:100DA0000E945D260E94CF268B01DBCF28960FB6CE
:100DB000F894DEBF0FBECDBFDF91CF911F910F9191
:100DC000FF90EF90DF90CF90BF90AF909F908F906B
:100DD0007F906F905F904F9008958F929F92AF9207
:100DE000BF92CF92DF92EF92FF921F93CF93DF9348
:100DF00085E10E946D03CAE0D0E0C12CD12C7601C0
:100E000015E085E10E946D03189FB001199F700DD8
:100E10001124072E000C880B990B0E94072720E055
:100E200030E040E85AE30E94BC274B015C0126E613
:100E300036E646E850E40E94B72718163CF486E6EA
:100E4000882E982C86E8A82E80E4B82E2FEB36E862
:100E500042ED52E4C501B4010E94BC272CE73DE0FD
:100E60004BEA53E40E94EB254B015C0120E030E0AB
:100E7000A9010E94582687FF03C0812C912C5401A0
:100E8000A5019401C701B6010E94EC256B017C010C
:100E900061E070E080E090E00E94A703219709F0F4
:100EA000B0CF20E030E040E251E4C701B6010E943B
:100EB0005D26DF91CF911F91FF90EF90DF90CF9053
:100EC000BF90AF909F908F9008958F929F92AF9216
:100ED000BF92CF92DF92EF92FF920F931F93CF9327
:100EE000DF93019782319105B8F4FC01E658F84F81
:100EF0000C943A28BD07E007140827083E0861084B
:100F00008D08BC08EB081A09440969099709C20948
:100F1000D9091A0A310A480A0EE110E022E330E04A
:100F200040E050E064EA70ED84E294E40E94DA0369
:100F300009E110E027E330E040E050E062E570EDC9
:100F400084EA94E40E94DA030AE010E02CE330E043
:100F500040E050E060E070E08CED94E40E94DA0341
:100F6000DF91CF911F910F91FF90EF90DF90CF9085
:100F7000BF90AF909F908F9008950EE110E022E314
:100F800030E040E050E064EA70ED84E294E40E94D6
:100F9000DA0309E110E027E330E040E050E060E0F0
:100FA00070E08CED94E40E94DA030AE010E022E3A2
:100FB00030E040E050E062E570ED84EA94E4CECFAA
:100FC00092E0892E912C24E1A22EB12CC12CD12C9F
:100FD0001AE0E12E17EDF12E03E81FE32CE53FEFB9
:100FE00043EC54E462E570ED84EA94E40E945D060B
:100FF0006EE170E080E090E00E94A7034AE0A42E3A
:10100000B12CC12CD12C18EBE12E1EE1F12E05E8FC
:101010001FE32FE135ED42E155E462E570ED84EA2E
:1010200094E40E945D069CCFCAE08C2E912CDEE1F8
:10103000AD2EB12CC12CD12C1CE5E12E1FE8F12ED8
:1010400002E81FE320E030E04CED54E4E6CFFAE0A4
:101050008F2E912CAEE1AA2EB12CC12CD12C1AE0EE
:10106000E12E17EDF12E03E81FE32FE135ED42E10C
:1010700055E46CE57FEF83EC94E4D3CF04E610E015
:1010800022E330E040E050E062E570ED84EA94E471
:101090000E94DA0300E510E022E330E040E050E097
:1010A0006CE57FEF83EC94E40E94DA0310E000E04B
:1010B0002CE231E040E050E06FE175ED82E195E433
:1010C0004DCF88248394912C5AE0A52EB12CC12CAD
:1010D000D12C1CE5E12E1FE8F12E02E81FE320E0F1
:1010E00030E646E055E460E070E088E494E40E9475
:1010F0005D0677E0A72EB12CC12CD12C1AE0E12E91
:1011000017EDF12E03E81FE320E030E048E454E45B
:1011100060E070E586E095E484CF93E0892E912C21
:1011200028E0A22EB12CC12CD12C18EBE12E1EE10F
:10113000F12E05E81FE320E030E04AEF54E460E0E0
:1011400070E08CE594E40E945D0668EC70E080E05D
:1011500090E00E94A703C6E1D0E00AE010E025E09D
:1011600030E040E050E068E471EF86E794E40E94EC
:10117000DA03219791F7F4CEC3E08C2E912CD8E0BE
:10118000AD2EB12CC12CD12C1AE0E12E17EDF12E91
:1011900003E81FE320E030E84BE355E460E070E053
:1011A0008BEE94E40E945D0668EC70E080E090E0D5
:1011B0000E94A703C0E1D0E00AE010E02AE030E09E
:1011C00040E050E060E070ED82E894E40E94DA03D1
:1011D000219791F7C5CE64E0862E912C70E1A72E61
:1011E000B12CC12CD12C1AE0E12E17EDF12E03E821
:1011F0001FE320E030E041E654E460E070E08FE27D
:1012000094E40E945D06F7E08F2E912CA2E1AA2EB5
:10121000B12CC12CD12C1EEAE12E17E4F12E01E8ED
:101220001FE320E030E842E254E460E070EC80E646
:1012300094E4F7CE2AE0822E912C3AE0A32EB12C32
:10124000C12CD12C18EBE12E1EE1F12E05E81FE395
:1012500020E030E04AEF53E460E070E088EC92E494
:101260000E945D0664EF71E080E090E00E94A703B9
:1012700088248394912C20E030E048EC52E460E034
:1012800070E088EC93E4CDCED8E08D2E912C14E163
:10129000A12EB12CC12CD12C16E6E12EFE2C06E895
:1012A0001FE320E030E44CE155E460E070E88BEBB4
:1012B00094E40E945D0699E1A92EB12CC12CD12C99
:1012C00020E030E84BEB54E460E070E38CE195E41F
:1012D000A8CEE3E08E2E912CF8E0AF2EB12CC12CDD
:1012E000D12C16E6E12EFE2C06E81FE320E030E8C4
:1012F0004BEB55E460E070E08AEF94E40E945D06F9
:1013000062E370E080E090E00E94A703B2E08B2EE1
:10131000912CCDE0AC2EB12CC12CD12C20E030E0B2
:101320004AEF54E460E078E78BEB95E47ACE48E04E
:10133000842E912C5FE0A52EB12CC12CD12C16E669
:10134000E12EFE2C06E81FE320E030E04AEF54E4F3
:1013500060E070E88BEB94E40E945D0664E670E068
:1013600080E090E00E94A7037AE0A72EB12CC12C68
:10137000D12C20E030E44CE155E460E070E88DEEE3
:1013800094E44FCE98EC892E912C24E1A22EB12C1E
:10139000C12CD12C1CE5E12E1FE8F12E02E81FE341
:1013A00020E030E447E254E460E070E08CE594E44F
:1013B00038CEF2E08F2E912CA8E0AA2EB12CC12CB1
:1013C000D12C1AE0E12E17EDF12E03E81FE320E007
:1013D00030E844ED54E460E070E08AE794E40E9471
:1013E0005D06C3E08C2E912C18EBE12E1EE1F12E50
:1013F00005E81FE320E030E04AEF53E460E070E6E8
:1014000084ED94E40E945D061AE0812E912C09E09F
:10141000A02EB12CC12CD12C16E6E12EFE2C06E814
:101420001FE320E030E844ED54E460E070E08AE738
:1014300094E4F7CD6FE0862E912C72E0A72EB12CAC
:10144000C12CD12C1CE5E12E1FE8F12E02E81FE390
:1014500020E030E84BE355E460E070E088EC94E491
:10146000E0CD34E1832E912C42E0A42EB12CC12C8E
:10147000D12C1CE5E12E1FE8F12E02E81FE320E04D
:1014800030E84BEB55E460E070E08AEF94E4C9CDBE
:1014900084E1882E912C92E0A92EB12CC12CD12C64
:1014A0001CE5E12E1FE8F12E02E81FE320E030E00A
:1014B0004AE755E460E070E088EC94E40E945D0641
:1014C00020E030E84BE355E460E070E08AE795E423
:1014D000A8CD2FB7F8946091CA027091CB02809189
:1014E000CC029091CD022FBF0895CF93C62F1092BA
:1014F000100310920F0320910503309106032F5F14
:101500003F4F30930603209305036111862F682F08
:1015100061708FE00E9407026C2F8EE00E9407022C
:101520000E94690A6093010370930203809303038E
:1015300090930403CF910895CF93DF93FC01208112
:1015400031813327F901E754FF4F8491F901E353C7
:10155000FF4FD491F901E551FF4FC491CC2379F0AD
:1015600081110E94DE01EC2FF0E0EE0FFF1FEB5522
:10157000FF4FA591B491EC91ED2381E009F480E057
:10158000DF91CF910895DC01EC918E2F90E0FC016A
:10159000EE0FFF1FE80FF91FE154FC4F808186FF1B
:1015A00002C08F7B80830895CF92DF92EF92FF92EB
:1015B000CF93DF93EC01603282E07807CCF5653B96
:1015C000710514F064EB70E0898128E830E0281B95
:1015D000310987FD3395220F331F220F331F690115
:1015E000330FEE08FF088A8128E532E0281B310915
:1015F00087FD3395220F331F220F331F032E000C5C
:10160000440B550B2C193D094E095F09DB0177FF8F
:1016100002C0B0E0A0E00E949D2524EB30E040E055
:1016200050E00E947325C20ED31EE41EF51EB601C3
:10163000E881EC3070F5298188E890E0821B9109FF
:1016400027FD9395880F991F880F991F68177907B1
:101650007CF02A8188E592E0821B910927FD939511
:10166000880F991F880F991F681779070CF4CB0111
:101670000297880F991F4FB7F8942E2F30E0F90189
:10168000EE0FFF1FE20FF31FE154FC4F92838183A3
:101690004FBFDF91CF91FF90EF90DF90CF900895F3
:1016A0001F93CF93DF93EC01162F88818C3008F0C5
:1016B0004EC061E0812F0E9420038881282F30E0F6
:1016C000F901EE0FFF1FE20FF31FE154FC4F1F73F0
:1016D0006081607C612B608319821A822CE0622F0A
:1016E0000E942E28829FB001112430E020E0AB013F
:1016F000420F531FFA01EE0FFF1FE40FF51FE154D5
:10170000FC4F908196FD16C02F5F3F4F2C30310566
:1017100071F781110FC01092800082E080938100E8
:101720001092850010928400B19A80916F008260BF
:1017300080936F00E8818E2F90E0FC01EE0FFF1F79
:10174000E80FF91FE154FC4F808180648083888119
:10175000DF91CF911F910895E091EC038E2F90E0DF
:10176000FC01EE0FFF1FE80FF91FE154FC4F8081D1
:1017700086FD58C060915704709158048CEE93E038
:101780000E94500B6AE570E08CEE93E00E94D40A50
:101790008EE190E090930A048093090480ED97E035
:1017A0009093F4038093F30380E090E0A4E8B2E424
:1017B0008093050490930604A0930704B093080453
:1017C0008AE198EFA2ECBDE38093010490930204B8
:1017D000A0930304B093040410920B0410920C0421
:1017E00010920D0410920E048DE290E09093F0039D
:1017F0008093EF031092FD031092FE031092FF03FB
:10180000109200041092F5031092F6031092F70361
:101810001092F8031092F2031092F1031092130445
:1018200010921404E09115048E2F90E0FC01EE0F4D
:10183000FF1FE80FF91FE154FC4F808186FD58C05F
:101840006091590470915A0485E194E00E94500B14
:101850006AE570E085E194E00E94D40A8EE190E0B0
:10186000909333048093320480ED97E090931D04AD
:1018700080931C0480E090E0A4E8B2E480932E04FE
:1018800090932F04A0933004B09331048AE198EF31
:10189000A2ECBDE380932A0490932B04A0932C0424
:1018A000B0932D0410923404109235041092360433
:1018B000109237048DE290E09093190480931804FD
:1018C00010922604109227041092280410922904E2
:1018D00010921E0410921F041092200410922104F2
:1018E00010921B0410921A0410923C0410923D04B2
:1018F0000895CF92DF92EF92FF92CF93DF936C0126
:10190000EB010E94AC0B80917F04811110927F0447
:101910008BE0C816D1045CF5688179818091FB0366
:101920009091FC03680F791F8CEE93E00E94D40A1B
:101930006A817B818091240490912504680F791F2E
:1019400085E194E00E94D40A888199819093600493
:1019500080935F048A819B819093620480936104E9
:10196000DF91CF91FF90EF90DF90CF9008950E948C
:10197000690A0D2C000CEE08FF086C0D7D1D8E1DF4
:101980009F1D60936704709368048093690490932B
:101990006A04688179818091FB039091FC03680F50
:1019A000791F8CEE93E00E94D40A6A817B8180913A
:1019B000240490912504680F791F85E194E00E942A
:1019C000D40A0E94690AC60ED71EE81EF91EC092EC
:1019D0006704D0926804E0926904F0926A040E945D
:1019E000690AC0906704D0906804E0906904F090A0
:1019F0006A04C616D706E806F90608F4A5CFEFCFA5
:101A0000CF93DF9300D000D0CDB7DEB740913D0239
:101A100050913E0260913F027091400249835A8387
:101A20006B837C83BE016F5F7F4F0E94790C0F90A8
:101A30000F900F900F90DF91CF910895CF93DF9388
:101A400000D000D0CDB7DEB74091410250914202A4
:101A5000609143027091440249835A836B837C8373
:101A6000BE016F5F7F4F0E94790C0F900F900F9017
:101A70000F90DF91CF910895CF93DF9300D000D0E6
:101A8000CDB7DEB7409145025091460260914702C2
:101A90007091480249835A836B837C83BE016F5FD8
:101AA0007F4F0E94790C0F900F900F900F90DF9155
:101AB000CF910895CF93DF9300D000D0CDB7DEB79C
:101AC00080917F0481111EC080913D0290913E0261
:101AD000A0913F02B091400289839A83AB83BC837B
:101AE000BE016F5F7F4F84EF91E00E94790C8CEE16
:101AF00093E00E94C30A85E194E00E94C30A81E05A
:101B000080937F040F900F900F900F90DF91CF91F3
:101B10000895CF93DF9300D000D0CDB7DEB74091CA
:101B2000490250914A0260914B0270914C024983E4
:101B30005A836B837C83BE016F5F7F4F0E94790C59
:101B40000F900F900F900F90DF91CF910895CF934A
:101B5000DF9300D000D0CDB7DEB740914D02509159
:101B60004E0260914F027091500249835A836B83F9
:101B70007C83BE016F5F7F4F0E94790C0F900F90A6
:101B80000F900F90DF91CF910895FC0101900020FC
:101B9000E9F73197AF01481B590BBC0182E293E092
:101BA0000C94B600CF93DF930E94A301EC018FE861
:101BB00092E00E94C50D8C0F9D1FDF91CF9108957B
:101BC0006EE170E080E090E00E94A70382EA90E07E
:101BD0000E94A30180EA90E00E94A3018DE990E0B9
:101BE0000E94D20D82E293E00C94BE016EE170E09F
:101BF00080E090E00E94A7038AE990E00E94A301A0
:101C000088E990E00E94A30185E990E00E94D20D4E
:101C100082E293E00C94BE010E94F60D0E945A0DE0
:101C20000C94E00D8F929F92AF92BF920F931F93EF
:101C3000CF93DF93CDB7DEB7A1970FB6F894DEBF91
:101C40000FBECDBF19A2423008F44AE08E010F5DED
:101C50001F4F842E912CB12CA12CA50194010E9420
:101C60005125E62FB901CA01EA30F4F4E05DD8014C
:101C7000EE938D01232B242B252B79F790E080E028
:101C8000109719F0CD010E94C50DA1960FB6F894DA
:101C9000DEBF0FBECDBFDF91CF911F910F91BF90DF
:101CA000AF909F908F900895E95CE1CFCF92DF9243
:101CB000EF92FF92CF93DF936B017C016DE282E2A2
:101CC00093E00E945601EC0166277727CB016C193F
:101CD0007D098E099F094AE00E94120E8C0F9D1FFC
:101CE000DF91CF91FF90EF90DF90CF9008950E9409
:101CF0005A0D82E990E00E94A3018FE890E00E94D3
:101D0000A30189E592E00E94C50D8CE890E00E9455
:101D1000D20D82E293E00C94BE01BC01990F880BB6
:101D2000990B97FD0C94560E4AE00C94120ECF932B
:101D3000DF930E945A0D809165040E946D0380918B
:101D400065040E946D03EC0164E070E080E090E0C7
:101D50000E94A703809165040E946D03C80FD91FDC
:101D600064E070E080E090E00E94A70380E890E0EB
:101D70000E94A3018DE790E00E94A301CE01D7FD50
:101D80000196959587950E948D0E8AE790E00E94B6
:101D9000D20D82E293E0DF91CF910C94BE016F925D
:101DA0007F928F929F92AF92BF92CF92DF92EF92EB
:101DB000FF920F931F93CF93DF936C0180910D03DC
:101DC00090910E03892BA1F560E080E10E9407024B
:101DD00010920E0310920D0310924C0110924D01BF
:101DE00010924E0110924F011092060310920503BB
:101DF0001092100310920F030E94690A609301036E
:101E00007093020380930303909304038BEA90E0A2
:101E100090933D0180933C018091690083608093A1
:101E20006900E89A81E090E090930E0380930D039F
:101E30000E94690A0091010310910203209103039B
:101E400030910403601B710B820B930B633371059C
:101E50008105910530F083E090E090930E0380932C
:101E60000D0380910D0390910E03039709F08BC031
:101E700080910503909106038130910519F14CF48E
:101E800060E0892B09F4E1C01092100310920F0357
:101E900025C08230910509F4CFC00397A9F780913E
:101EA0000F039091100390930C0380930B0360E059
:101EB00081E00E94750A82E090E090930E03809387
:101EC0000D030CC080910F039091100390930803B1
:101ED0008093070361E081E00E94750A8091050309
:101EE0009091060304970CF4B2C020E030E040E883
:101EF0005FEB6091400170914101809142019091AE
:101F000043010E945826882301F120E030E040E898
:101F10005FEB609144017091450180914601909181
:101F200047010E945826882381F020E030E040E8F5
:101F30005FEB609148017091490180914A01909155
:101F40004B010E94582681111EC0C7E0D3E000E477
:101F500011E069917991072E000C880B990B0E9472
:101F600007279B01AC0160E070E08FE793E40E94DB
:101F70005D26F80161937193819391938F01F3E052
:101F8000CD30DF0731F780910D0390910E0302975A
:101F900009F067C087E0E82E83E0F82E00E411E046
:101FA000E601360186E0680E711CCC24CA94D12C5F
:101FB000F701619171917F01F80181909190A19059
:101FC000B1908F01072E000C880B990B0E940727F8
:101FD000A50194010E94BC270E94CF266F3F710586
:101FE00009F0E4F5798368832296C615D70501F7D1
:101FF000E89885EB90E090933D0180933C0110922E
:102000000603109205031092100310920F03109212
:102010000E0310920D0381E090E0DF91CF911F91AC
:102020000F91FF90EF90DF90CF90BF90AF909F9077
:102030008F907F906F90089580910F03909110037F
:1020400090930A038093090361E080E045CF84E028
:1020500090E090930E0380930D0395CFD982C882B0
:10206000C3CF90E080E0D9CF8F929F92AF92BF9282
:10207000CF92DF92EF92FF920E945A0D0E94ED06DE
:102080006B017C0189E890E00E94A30186E890E062
:102090000E94A301A7019601C701B6010E94292849
:1020A0008823A1F082E992E00E94C50D83E890E0C8
:1020B0000E94D20D82E293E0FF90EF90DF90CF90EC
:1020C000BF90AF909F908F900C94BE014601570136
:1020D000E894B7F82FEF3FEF4FE75FE7C501B40192
:1020E0000E94292881110DC02FEF3FEF4FE75FE7D6
:1020F000C501B4010E94582618161CF486E992E026
:10210000D3CF2FEF3FEF4FE75FE4C701B6010E9447
:10211000B72718161CF48AE992E0C6CF2FEF3FEFDD
:102120004FE75FECC701B6010E94582687FDF3CF49
:1021300020E030E0A901C701B6010E94582687FFC0
:1021400009C06DE282E293E00E945601F7FAF09432
:10215000F7F8F0942AE037ED43EA5BE3C701B601F4
:102160000E94EC254B015C010E94D6266B017C018C
:102170000E9405279B01AC01C501B4010E94EB251B
:102180004B015C014AE0C701B6010E94120E6EE2EB
:1021900082E293E00E94560120E030E040E251E408
:1021A000C501B4010E94BC274B015C010E94D626E8
:1021B0006B01F12CE12C4AE0C701B6010E94120E1E
:1021C000C701B6010E9405279B01AC01C501B401FE
:1021D0000E94EB2520E030E040E251E40E94BC2761
:1021E0000E94D62690E080E04AE00E94120E5ECF68
:1021F00081E08093FE0290910003911108C08093CA
:1022000000036FE070E080E090E00C9472020895AB
:1022100081E08093FF0290910003911108C08093A8
:1022200000036FE070E080E090E00C94720208958B
:102230001F93CF93DF932091AD043091AE042E30E5
:10224000310504F5EB01BC0115E2129FC001139F9B
:10225000900D112443E250E081559B4F0E94572876
:102260008091AD049091AE04189FF001199FF00D7C
:102270001124EE52FB4FD183C08301969093AE049C
:102280008093AD04DF91CF911F9108954BEA54E004
:1022900066EA74E090E080E00C94F924CF93DF9339
:1022A00000D0CDB7DEB70E94F60D0E945A0D0E94F5
:1022B00046110097C1F042E050E0BE016F5F7F4FD2
:1022C0000E94E7236093E4037093E5038093E603A1
:1022D0009093E7030E9435020E94E00D0F900F904B
:1022E000DF91CF9108956AE170E080E090E00E9474
:1022F000720260ED77E080E090E00E94A7030E9408
:10230000A802EACFCF92DF92EF92FF920F931F9332
:10231000CF93DF930E94F60D0E945A0D0E94461142
:1023200011E0009721F00E94D224EC0110E00E94FD
:102330004611009721F00E94D2241123C1F06AE1D6
:1023400070E080E090E00E94720260ED77E080E053
:1023500090E00E94A7030E94A802DF91CF911F91F5
:102360000F91FF90EF90DF90CF900C94E00D6C01F7
:10237000990FEE08FF08BE01DD0F880B990B0E9434
:10238000072701E010E0A70196010E94DA03E5CFDC
:102390000E94F60D80917F04811110927F040E94AB
:1023A0004611009791F00E94D2249093D30280931B
:1023B000D2020E9446110097D9F00E94D224909335
:1023C0003901809338010C9446116AE170E080E095
:1023D00090E00E94720260ED77E080E090E00E9461
:1023E000A7030E94A8021092D3021092D202E1CF5A
:1023F00088EE93E0E4CF2F923F924F925F926F92DC
:102400007F928F929F92AF92BF92CF92DF92EF9284
:10241000FF920F931F93CF93DF9300D000D0CDB7DF
:10242000DEB70E94F60D0E945A0D0E9446110097D9
:10243000C1F00E94D22401978D30910500F5FC0176
:10244000EC5DFD4E0C943A28571272129B120C133D
:102450009813F513061417149014D3146D157E16E3
:10246000D3166AE170E080E090E00E94720260EDB5
:1024700077E080E090E00E94A7030E94A8020F90FE
:102480000F900F900F90DF91CF911F910F91FF90C0
:10249000EF90DF90CF90BF90AF909F908F907F9004
:1024A0006F905F904F903F902F900C94E00D0EE155
:1024B00010E022E330E040E050E064EA70ED84E2B6
:1024C00094E40E94DA036AE070E080E090E00E9409
:1024D00072028DE090E00E9465078DE090E00E941E
:1024E000650720C06BE070E080E090E00E9472021F
:1024F0008BE090E00E9465076CE070E080E090E087
:102500000E9472026BE070E080E090E00E94720234
:102510008CE090E00E9465076CE070E080E090E065
:102520000E9472020E945A0D6BE070E080E090E021
:102530000E947202A4CF66E170E080E090E00E9409
:10254000720228EC822E912C34E1A32EB12CC12CE6
:10255000D12C1CE5E12E1FE8F12E02E81FE320E05C
:1025600030E84FE454E460E070E08CE594E40E94CD
:102570005D0668E170E080E090E00E94720220E079
:1025800030E845E454E460E070E88FE494E40E94AD
:102590005D0667E170E080E090E00E94720220E05A
:1025A00030E049E354E460E070E885E494E40E949C
:1025B0005D0668E170E080E090E00E94720220E039
:1025C00030E04FE254E460E070E089E394E40E947C
:1025D0005D0667E170E080E090E00E94720220E01A
:1025E00030E447E254E460E070E08FE294E40E945B
:1025F0005D0666E170E080E090E00E94720264EFA8
:1026000071E080E090E00E94A7030E945A0D6CE206
:1026100071E080E090E0E6C024E030E03A83298376
:1026200050E040E061E070E080E090E00E94B202A3
:10263000BAE08B2E912C1AE0A12EB12CC12CD12CFA
:1026400018EBE12E1EE1F12E05E81FE320E030E05B
:1026500048E453E460E070E088EC92E40E945D0698
:1026600041E050E061E070E080E090E00E94B20262
:1026700020E030E046E953E460E070E088E493E471
:102680000E945D0642E050E061E070E080E090E092
:102690000E94B20220E030E04AEF53E460E070E0D4
:1026A00086E993E40E945D0664EF71E080E090E0CB
:1026B0000E94A70341E050E061E070E080E090E01C
:1026C0000E94B20288248394912C20E030E04AE7F3
:1026D00053E460E070E088EC93E40E945D0650E013
:1026E00040E061E070E080E090E00E94B20220E013
:1026F00030E048EC52E460E070E08AE793E40E9446
:102700005D0664EF71E080E090E00E94A70389819C
:102710009A8101979A838983892B09F081CF63E19C
:1027200070E080E090E00E94720289E090E0D7CEF5
:102730006CE271E080E090E00E94A70363E170E04A
:1027400080E090E00E94720280E190E00E946507C4
:1027500060E170E080E090E00E9472026AEF70E059
:1027600080E090E00E94A7036CE271E080E090E0DE
:102770000E94A70363E170E080E090E00E94720293
:1027800081E190E00E94650760E170E080E090E008
:102790000E9472026AEF70E080E090E00E94A7035E
:1027A0006CE271E080E090E00E94A70363E170E0DA
:1027B00080E090E00E94720282E190E00E94650752
:1027C00060E170E080E090E00E9472026CE271E0F3
:1027D00080E090E00E94A7030E945A0D64EF71E030
:1027E00080E090E00E94A7039FCE64E170E080E06B
:1027F00090E00E9472028FE090E00E94650764EF13
:1028000071E080E090E00E94A7038CCE6DE070E064
:1028100080E090E00E94720289E090E00E946507EB
:102820000E945A0D8DE090E00E9465077DCE6EE11A
:1028300070E080E090E00E9472020EE110E024E679
:1028400030E040E050E060E070E08CE594E40E940D
:10285000DA0344E0842E912C57E0A52EB12CC12C34
:10286000D12C1CE5E12E1FE8F12E02E81FE32FE139
:1028700035ED42E954E460E070E08CE594E40E94B8
:102880005D0688248394912CEAE0AE2EB12CC12CF5
:10289000D12C2CE53FEF43EC54E46FE175ED82E978
:1028A00094E40E945D0620E030E04CE554E46CE5E1
:1028B0007FEF83EC94E40E945D066FE070E080E0BF
:1028C00090E00E94A703F4E08F2E912CA4E1AA2EA1
:1028D000B12CC12CD12C24EA30ED44E254E460E068
:1028E00070E08CE594E40E945D0660E971E080E0B0
:1028F00090E00E94A7032FE135ED42E954E460E047
:1029000070E08CE594E40E945D0624EA30ED44E238
:1029100054E460E070E08CE594E40E945D0602CE31
:102920006EE170E080E090E00E94720294E0892EF7
:10293000912C24E1A22EB12CC12CD12C1CE5E12E2E
:102940001FE8F12E02E81FE32FE135ED42E954E4E0
:1029500060E070E08CE594E40E945D0624EA30EDCE
:1029600044E254E460E070E08CE594E40E945D068B
:102970006CE271E080E090E00E94A70363E170E008
:1029800080E090E00E9472020E945A0D0E945A0D4F
:102990000E945A0D0E945A0D6EE170E080E090E0B6
:1029A0000E9472022CCF24E030E03A83298300E9B0
:1029B00011E01C821B824B815C8162E070E080E050
:1029C00090E00E94B202180134E6230E311CB801D7
:1029D000110F880B990B0E9407272B013C01B101B5
:1029E000032C000C880B990B0E9407279B01AC015C
:1029F0001AE0812E912C0AE0A02EB12CC12CD12CF2
:102A000018EBE12E1EE1F12E05E81FE3C301B20130
:102A10000E945D068B819C8101969C838B83810142
:102A2000069749F60E94A80218EBE12E1EE1F12E4E
:102A300005E81FE320E030E849E854E4C301B201AF
:102A40000E945D0628EE33E03C832B83312C212C41
:102A5000A10162E070E080E090E00E94B2026B8130
:102A60007C816C597F4F072E000C880B990B0E94BC
:102A700007272B013C012B813C81B901330F880BC7
:102A8000990B0E940727EAE08E2E912CFAE0AF2ED8
:102A9000B12CC12CD12C18EBE12E1EE1F12E05E852
:102AA0001FE3A30192010E945D068B819C818456E5
:102AB00091099C838B839FEF291A390A2B813C81D2
:102AC0002039314029F629813A81215031093A8350
:102AD0002983232B09F06BCF9ACD82E090E09A8373
:102AE000898384EF91E09C838B83312C212CA1017D
:102AF00063E070E080E090E00E94B2026B817C8134
:102B00006C597F4F072E000C880B990B0E940727EA
:102B10002B013C012B813C81B901330F880B990BB0
:102B20000E9407273AE0832E912C4AE0A42EB12C74
:102B3000C12CD12C1CE5E12E1FE8F12E02E81FE389
:102B4000A30192010E945D068B819C818B599F4F4E
:102B50009C838B839FEF291A390A2AE022163104BD
:102B600031F686EE95E09C838B83312C212CA101DC
:102B700063E070E080E090E00E94B2026B817C81B3
:102B80006C597F4F072E000C880B990B0E9407276A
:102B90002B013C012B813C81B901330F880B990B30
:102BA0000E940727AAE08A2E912CBAE0AB2EB12C06
:102BB000C12CD12C1CE5E12E1FE8F12E02E81FE309
:102BC000A30192010E945D068B819C818B599F4FCE
:102BD0009C838B839FEF291A390A2AE0221631043D
:102BE00031F688ED99E09C838B83312C212CA10157
:102BF00063E070E080E090E00E94B2026B817C8133
:102C000064567109072E000C880B990B0E94072748
:102C10002B013C012B813C81B901330F880B990BAF
:102C20000E9407275AE0852E912CEAE0AE2EB12CA7
:102C3000C12CD12C1CE5E12E1FE8F12E02E81FE388
:102C4000A30192010E945D068B819C8185569109AA
:102C50009C838B839FEF291A390A2B813C81263E66
:102C6000354029F6312C212CA10163E070E080E091
:102C700090E00E94B2026B817C8164567109072E3C
:102C8000000C880B990B0E9407272B013C012B811C
:102C90003C81B901330F880B990B0E9407272AE06A
:102CA000822E912C3AE0A32EB12CC12CD12C1CE504
:102CB000E12E1FE8F12E02E81FE3A30192010E941A
:102CC0005D068B819C81855691099C838B839FEF48
:102CD000291A390A2AE02216310431F689819A81AB
:102CE000019739F40E94A80264E670E080E090E069
:102CF00079CD21E030E03A832983F3CE6FE070E0B4
:102D000080E090E00E94720220E436E03A8329835A
:102D100029813A81B901330F880B990B0E9407274B
:102D200001E010E02FE030E040E050E00E94DA03E4
:102D300089819A8144969A838983803F9A4041F79A
:102D40006EE070E080E090E00E94720229813A819A
:102D5000B901330F880B990B0E94072701E010E09F
:102D60002FE030E040E050E00E94DA0389819A8150
:102D700044969A838983803A9F4041F76BE070E0E4
:102D800080E090E00E9472028CE090E00E94650773
:102D90006CE070E080E090E00E9472020E945A0DA8
:102DA0000E94A802C1CB67E170E080E090E00E9441
:102DB000720201E010E028EC30E040E050E060E01A
:102DC00070E081E694E40E94DA0368E170E080E05C
:102DD00090E00E94720228EC30E040E050E060E0B9
:102DE00070E086E194E40E94DA0364E170E080E040
:102DF00090E00E94720228EC30E040E050E060E099
:102E000070E086E993E40E94DA036AE170E080E012
:102E100090E00E9472028CEE93E00E94C30A85E16A
:102E200094E00E94C30A28E938E040E050E060E006
:102E300070E086E193E40E94DA0368E572E080E0E6
:102E400090E00E94A7030E94A8026BE070E080E07F
:102E500090E00E9472020E945A0D11CB0E94F60D62
:102E60000E945A0D0E9446110097F1F00E94D22450
:102E700001978331910530F5FC01EF5BF84E0C941E
:102E80003A28641769176C176F1772177517781738
:102E90007B177E178117841787178A178D1790174E
:102EA0009317961799179C176AE170E080E090E0FD
:102EB0000E94720260ED77E080E090E00E94A7033C
:102EC0000E94A8020C94E00D90E080E00E9465074B
:102ED000F9CF81E090E0FACF86E090E0F7CF87E08D
:102EE00090E0F4CF88E090E0F1CF89E090E0EECF81
:102EF0008AE090E0EBCF8BE090E0E8CF8CE090E0D0
:102F0000E5CF8DE090E0E2CF8EE090E0DFCF8FE084
:102F100090E0DCCF80E190E0D9CF81E190E0D6CFA6
:102F200082E190E0D3CF83E090E0D0CF84E090E0E6
:102F3000CDCF85E090E0CACF82E090E0C7CFAF92DE
:102F4000BF92CF92DF92EF92FF921F93CF93DF93C6
:102F5000CDB7DEB728970FB6F894DEBF0FBECDBF52
:102F60000E94F60D8EE190E09093D3028093D202FE
:102F70000E94461111E0009721F00E94D2245C01CA
:102F800010E00E944611009791F10E94D2246C013A
:102F90000E944611009769F10E94D2247C010E9490
:102FA0004611009721F00E94D224112321F16AE1F9
:102FB00070E080E090E00E94720260ED77E080E0D7
:102FC00090E00E94A7030E94A8020E94E00D2896AC
:102FD0000FB6F894DEBF0FBECDBFDF91CF911F912A
:102FE000FF90EF90DF90CF90BF90AF90089511E0E9
:102FF000CFCF11E0D4CFBA82A982DC82CB82FE820D
:10300000ED8298878F83BE016F5F7F4F88EC90E0E1
:103010000E94790CDACFCF92DF92EF92FF920F935A
:103020001F93CF93DF93CDB7DEB72B970FB6F894EE
:10303000DEBF0FBECDBF0E945A0D1A821982FE015B
:10304000339689E0DF011D928A95E9F732977F0177
:1030500005E010E06F01C8010E942B25D7018D9378
:103060007D010F5F1F4F00311105A9F78EE690E03B
:103070000E94A3018BE690E00E94A301C6010E947A
:10308000C50D88E690E00E94D20D82E293E00E9496
:10309000BE012B960FB6F894DEBF0FBECDBFDF91F9
:1030A000CF911F910F91FF90EF90DF90CF900895F7
:1030B000FF920F931F93CF93DF938C01EB01F88066
:1030C0000E942B25F81621F06F2DC8010E94332590
:1030D000CE01DF91CF911F910F91FF900895DF9264
:1030E000EF92FF920F931F93CF93DF93CDB7DEB78D
:1030F0002B970FB6F894DEBF0FBECDBF0E94F60D22
:103100000E945A0D1A821982FE01339689E0DF016E
:103110001D928A95E9F70E944611009791F1FC01F2
:10312000CE0101967C019F01245F3F4FDC0181911C
:10313000882329F0E217F30711F08D93F8CF05E00B
:1031400010E0D701DD907D01C8010E942B25D81623
:1031500021F06D2DC8010E9433250F5F1F4F0031F4
:10316000110579F72B960FB6F894DEBF0FBECDBFD1
:10317000DF91CF911F910F91FF90EF90DF900C9412
:10318000E00D6AE170E080E090E00E94720260ED84
:1031900077E080E090E00E94A7030E94A802E2CFBF
:1031A000FF920F931F93CF93DF930E94F60D0E941F
:1031B0005A0D0E944611C1E0009729F00E94D224C6
:1031C000D82FF92EC0E00E944611009719F10E94F5
:1031D000D2248C010E944611892B09F4C1E00E947F
:1031E0004611892B11F0CC23B9F06AE170E080E040
:1031F00090E00E94720260ED77E080E090E00E9433
:10320000A7030E94A802DF91CF911F910F91FF9019
:103210000C94E00DC1E0DECFD093FB03F092FC03F1
:1032200010932504009324046D2F90E080E00E9409
:1032300033256091240481E090E00E943325609161
:103240004D0482E090E00E9433256091760483E093
:1032500090E00E943325D7CFCF92DF92EF92FF927A
:103260000F931F930E945A0D60E080913E040E94CC
:10327000070283E090E00197F1F761E080913E045E
:103280000E94070283E290E00197F1F760E08091ED
:103290003E040E94070280914004909141049927C6
:1032A000FC01E353FF4F6491FC01E551FF4FE491B2
:1032B000F0E0EE0FFF1FEB55FF4F8591949100E476
:1032C0001CE920E030E0462F0E94D01B61157105FB
:1032D0008105910529F06F5F7F4F8F4F9F4F9F7042
:1032E0002AE330E040E050E00E94732569017A0152
:1032F000C114D104E104F10431F487EEC82E83E057
:10330000D82EE12CF12C87E790E00E94A30184E7FE
:1033100090E00E94A301C701B6010E9407270E9406
:10332000CF26CB010E948D0E81E790E00E94D20D46
:1033300082E293E01F910F91FF90EF90DF90CF908A
:103340000C94BE011F920F920FB60F9211242F936F
:103350003F934F935F936F937F938F939F93AF931D
:10336000BF93EF93FF938091160390911703A09161
:103370001803B0911903892B8A2B8B2BD1F19091D3
:103380001103E0911203F091130380818927808358
:103390008091160390911703A0911803B09119031F
:1033A000181619061A061B069CF4809116039091B4
:1033B0001703A0911803B09119030197A109B1094E
:1033C0008093160390931703A0931803B0931903E7
:1033D000FF91EF91BF91AF919F918F917F916F91ED
:1033E0005F914F913F912F910F900FBE0F901F90C3
:1033F000189580914C01EFEFF0E0E4919FEF9093EE
:103400004C01E13051F030F0E23069F060E00E94B0
:103410000702DECF10926E00F9CF90916F009D7F72
:1034200090936F00F3CF909170009D7F9093700008
:1034300091E09093B0009091B100987F9460909348
:10344000B1001092B300E2CF1F920F920FB60F920D
:1034500011242F933F934F935F936F937F938F9399
:103460009F93AF93BF93EF93FF9382E293E00E9409
:103470003401FF91EF91BF91AF919F918F917F9117
:103480006F915F914F913F912F910F900FBE0F90D1
:103490001F9018951F920F920FB60F9211242F9321
:1034A0008F939F93EF93FF93E0913203F091330357
:1034B0008081E0913803F091390382FD1BC0908137
:1034C00080913B038F5F8F7320913C03821741F003
:1034D000E0913B03F0E0EE5DFC4F958F80933B0362
:1034E000FF91EF919F918F912F910F900FBE0F90B1
:1034F0001F9018958081F4CF1F920F920FB60F92F4
:1035000011242F933F938F939F93AF93BF938091F9
:10351000CA029091CB02A091CC02B091CD02309121
:10352000C90223E0230F2D3758F50196A11DB11DC7
:103530002093C9028093CA029093CB02A093CC023D
:10354000B093CD028091CE029091CF02A091D00293
:10355000B091D1020196A11DB11D8093CE0290932E
:10356000CF02A093D002B093D102BF91AF919F91AF
:103570008F913F912F910F900FBE0F901F90189534
:1035800026E8230F0296A11DB11DD2CF1F920F92E4
:103590000FB60F9211242F933F934F935F936F9326
:1035A0007F938F939F93AF93BF93EF93FF93E0919C
:1035B0003E01F0913F010995FF91EF91BF91AF91CD
:1035C0009F918F917F916F915F914F913F912F913B
:1035D0000F900FBE0F901F9018951F920F920FB66D
:1035E0000F9211242F933F934F935F936F937F9389
:1035F0008F939F93AF93BF93EF93FF93E0913C0121
:10360000F0913D010995FF91EF91BF91AF919F918D
:103610008F917F916F915F914F913F912F910F907B
:103620000FBE0F901F9018951F920F920FB60F921A
:1036300011242F933F934F935F936F937F938F93B7
:103640009F93AF93BF93CF93DF93EF93FF938091BB
:10365000C802C091E303D0E087FF24C01092850028
:10366000109284008091C8028F5F8093C80280917D
:10367000C802082E000C990B8C179D0724F480912A
:10368000C8028C30C4F1809184009091850004962A
:1036900080349C4908F47AC0809184009091850020
:1036A000049676C08091C802082E000C990B8C17E6
:1036B0009D07C4F6E091C8028E2FEE0F990BFC0116
:1036C000EE0FFF1FE80FF91FE154FC4F808186FFCA
:1036D000C9CFE091C8028E2FEE0F990BFC01EE0FBF
:1036E000FF1FE80FF91FE154FC4F808160E08F73EA
:1036F0000E940702B7CF2091840030918500E091AD
:10370000C8028E2FEE0F990BFC01EE0FFF1FE80F82
:10371000F91FE154FC4F81819281820F931F909396
:10372000890080938800E091C8028E2FEE0F990BDC
:10373000FC01EE0FFF1FE80FF91FE154FC4F8081E1
:1037400086FF11C0E091C8028E2FEE0F990BFC018D
:10375000EE0FFF1FE80FF91FE154FC4F808161E07D
:103760008F730E940702FF91EF91DF91CF91BF917C
:10377000AF919F918F917F916F915F914F913F9109
:103780002F910F900FBE0F901F90189580E49CE929
:1037900090938900809388008FEF8093C802E3CFD5
:1037A000CF92DF92EF92FF920F931F93E82FF92FA2
:1037B00005C0015011092109310961F19081962359
:1037C0009417B9F305C0015011092109310911F10C
:1037D000908196239413F7CFC12CD12CE12CF12C9E
:1037E0000AC08FEFC81AD80AE80AF80A0C151D0596
:1037F0002E053F0579F080818623841791F36C2D87
:103800007D2D8E2D9F2D1F910F91FF90EF90DF90BA
:10381000CF90089560E070E080E090E01F910F91FC
:10382000FF90EF90DF90CF900895109225031092B3
:10383000240388EE93E0A0E0B0E080932603909309
:103840002703A0932803B093290381E892E0909383
:1038500023038093220385EC90E090932F038093C1
:103860002E0384EC90E0909331038093300380EC3E
:1038700090E0909333038093320381EC90E0909337
:1038800035038093340382EC90E090933703809368
:10389000360386EC90E090933903809338031092BE
:1038A0003B0310923C0310923D0310923E0380E2D2
:1038B00090E09093A7048093A6048DE08093A804E1
:1038C0001092AE041092AD04E1E8F4E084EA94E0D2
:1038D00011928E179F07E1F71092A5041092A4048D
:1038E0001092E4031092E5031092E6031092E703AE
:1038F0008BE08093E8038DE08093E9038CE0809374
:10390000EA0361E08BE00E94200361E08091E9031B
:103910000E94200361E08091EA030E94200360E09E
:103920008091E8030E94070260E08091E9030E9411
:10393000070260E08091EA030E9407020E943502BC
:103940008091E3038C30A0F08FEF8093EC03109212
:10395000FC031092FB038091E3038C30E0F08FEFC7
:103960008093150410922504109224040C945103A2
:1039700091E0980F9093E3038093EC0390E0FC01B7
:10398000EE0FFF1FE80FF91FE154FC4F88EB9BE09F
:1039900092838183DCCF91E0980F9093E30380932F
:1039A000150490E0FC01EE0FFF1FE80FF91FE15432
:1039B000FC4F88EB9BE092838183D4CFCF93DF933E
:1039C000CDB7DEB7C65DD1090FB6F894DEBF0FBE26
:1039D000CDBF789484B5826084BD84B5816084BD98
:1039E00085B5826085BD85B5816085BD80916E009D
:1039F000816080936E0010928100809181008260CE
:103A0000809381008091810081608093810080910A
:103A100080008160809380008091B10084608093F9
:103A2000B1008091B00081608093B00080917A00F5
:103A3000846080937A0080917A00826080937A001B
:103A400080917A00816080937A0080917A0080680A
:103A500080937A001092C100E0913203F091330319
:103A600082E08083E0912E03F0912F031082E09199
:103A70003003F091310380E1808310923A03E091AA
:103A80003603F091370386E08083E0913403F091B0
:103A90003503808180618083E0913403F0913503A8
:103AA000808188608083E0913403F09135038081C8
:103AB00080688083E0913403F091350380818F7DAD
:103AC000808360E086E00E94200360E087E00E943F
:103AD000200384E090E0909358048093570485E09D
:103AE00090E090935A04809359040E94AC0B10927A
:103AF0007F048AE590E09093600480935F04909344
:103B000062048093610483E090E090934304809387
:103B1000420460E00E94200381E190E0909345041C
:103B20008093440460E00E9420030E94510382E1DC
:103B300090E0909348048093470460E00E94200343
:103B400001E010E010934A040093490410934C04E0
:103B500000934B0410934E0400934D0483E190E0D6
:103B60009093500480934F0460E00E9420031093D0
:103B700052040093510410935404009353048FEFA4
:103B80009FEF909356048093550488E090E09093C3
:103B90003F0480933E0489E090E090934104809339
:103BA000400461E088E00E94200360E080914004CE
:103BB0000E9420038AE090E0909364048093630461
:103BC00084E190E0909366048093650461E08AE06C
:103BD0000E94200360E084E10E94200384E10E94AF
:103BE0006D03BC01990F880B990B61157105810557
:103BF000910511F00E94DE236CE07EE08EE992E0F8
:103C00000E9418116EE471E180EA92E00E9418119E
:103C100062E871E182EA92E00E94181168EC71E1B9
:103C200084EA92E00E9418116BEF71E186EA92E05B
:103C30000E9418116EE277E188EA92E00E94181162
:103C400060ED78E18AEA92E00E9418116FE977E16D
:103C50008CEA92E00E9418116FE678E18EEA92E019
:103C60000E9418116BE078E180EB92E00E9418113D
:103C70006CE279E182EB92E00E94181167E97EE044
:103C800084EB92E00E94181164E370E186EB92E00D
:103C90000E94181167E77EE088EB92E00E941811FD
:103CA0008CE09EE09093B6068093B5060E945A0D74
:103CB00085E090E00E942B258432D9F466E672E01C
:103CC00085E090E00E9458181982BE016F5F7F4F17
:103CD00086E090E00E9458186DE170E080E090E08E
:103CE0000E94720268EE73E080E090E00E94A703F9
:103CF000F9CF0E940B1862E370E080E090E00E9430
:103D0000A7030E94770E62E370E080E090E00E94DB
:103D1000A7030E9434100E94ED0620E030E044E347
:103D200052E40E94582687FF41C080910003811110
:103D30003DC06CE170E080E090E00E94720203E020
:103D4000802E912C88E0A82EB12CC12CD12C18EB00
:103D5000E12E1EE1F12E05E81FE320E030E04AEFFE
:103D600054E460E070E08CE594E40E945D066EE14E
:103D700070E080E090E00E94A7031CE5E12E1FE8C0
:103D8000F12E02E81FE320E030E04CE554E460E06F
:103D900070E08AEF94E40E945D060E94A80264EF3E
:103DA00071E080E090E00E94A703BFCF10E000E048
:103DB00080910003811111C0A80160E070E0CB0187
:103DC0000E94B20266E970E080E090E00E94A703E2
:103DD0000F5F1F4F0830110559F710E000E0809188
:103DE0000003811111C0A80160E070E0CB010E94C6
:103DF000B20266E970E080E090E00E94A7030F5FE6
:103E00001F4F0830110559F78091000381110CC034
:103E10006AE070E080E090E00E94720268EC70E07E
:103E200080E090E00E94A70385E090E00E942B25AF
:103E30008332F1F48091000381110EC090E080E0A4
:103E40000E941E0D90E080E00E943C0D68EC70E046
:103E500080E090E00E94A70380910003811108C0D8
:103E60006FE070E080E090E00E9472020E945A0DC4
:103E700080910003811106C06BE070E080E090E06B
:103E80000E9472020E94690A6093FA027093FB0218
:103E90008093FC029093FD02809151029091520216
:103EA000A0915302B0915402C153DF4F888399838C
:103EB000AA83BB83CF5CD040DE0111963D01809187
:103EC000550290915602A0915702B0915802CD52DE
:103ED000DF4F88839983AA83BB83C35DD0402E01C3
:103EE00099EC490E511C86E0D2011D928A95E9F7A2
:103EF00082E293E00E9414011816190674F480916E
:103F00003A0190913B01039741F081E090E090935A
:103F10003B0180933A0110920003809100038823B3
:103F200009F44FC00E945A0D64E670E080E090E012
:103F30000E94A70368EC70E080E090E00E94A70375
:103F40008091FF02882321F08091FE02882359F09E
:103F50008091FF0281110DC08091FE02882349F0FB
:103F600082E090E002C081E090E090933B0180937A
:103F70003A0160913A0170913B01072E000C880BC9
:103F8000990B0E94720208EC10E06AE070E080E099
:103F900090E00E94A70301501109B9F710920003A5
:103FA0001092FF021092FE0280E090E0892B09F44B
:103FB0009ACF0E942001882309F495CF0E94000027
:103FC0008ECF80913A0190913B018130910509F4A7
:103FD00077C154F4892B09F494C081E090E0909368
:103FE0003B0180933A01E0CF8230910509F4C8C2C9
:103FF000039799F711E095E2392E82E293E00E944F
:104000001401181619060CF0FCC2112309F4F9C2A8
:1040100082E293E00E94F200809380049091A804D1
:10402000891347C01092A5041092A4044BEA54E0EF
:1040300066EA74E081E894E00E94F9246C019093B0
:10404000AA048093A904892B09F4DBC2A090AD04D3
:10405000B090AE0480E8E82E84E0F82E10E000E096
:104060000A151B050CF0BFC2B701615D7F4F43E22B
:1040700050E0C6010E944928F5E2EF0EF11C892BA1
:1040800009F0AEC2309EF001319EF00D1124EE52C7
:10409000FB4F0190F081E02D0995E1E8F4E01192E9
:1040A00024E0E43AF207D9F71092A5041092A40490
:1040B00010E000918004802F002E000C990B0E94CC
:1040C0004228892B09F499CF8091A4049091A504EA
:1040D0009C012F5F3F4F3093A5042093A404805888
:1040E0009B4FDC0111960C93F901E058FB4F1182B4
:1040F000233231050CF481CF1092A5041092A40450
:104100007CCF0E94690A0091FA021091FB02209173
:10411000FC023091FD02601B710B820B930B603827
:1041200078438140910508F43FCF1D821E821F8293
:1041300018868AE590E09A8389839C838B8380919B
:104140000003811105C0B3018CEB92E00E94790C51
:1041500014E0212E312C8091000381118CC050E09D
:1041600040E061E070E080E090E00E94B202FAE09E
:104170008F2E912CAAE0AA2EB12CC12CD12C18EB99
:10418000E12E1EE1F12E05E81FE320E030E048E4D7
:1041900053E460E070E088EC92E40E945D06809158
:1041A0000003811168C041E050E061E070E080E010
:1041B00090E00E94B20220E030E046E953E460E083
:1041C00070E088E493E40E945D0680910003811111
:1041D00052C042E050E061E070E080E090E00E9478
:1041E000B20220E030E04AEF53E460E070E086E99C
:1041F00093E40E945D0664EF71E080E090E00E942D
:10420000A70380910003811136C041E050E061E0D6
:1042100070E080E090E00E94B20288248394912CA8
:1042200020E030E04AE753E460E070E088EC93E49B
:104230000E945D068091000381111DC050E040E0A6
:1042400061E070E080E090E00E94B20220E030E0A7
:1042500048EC52E460E070E08AE793E40E945D0677
:1042600064EF71E080E090E00E94A703E1E02E1A85
:10427000310809F070CF8091000381110AC063E119
:1042800070E080E090E00E94720289E090E00E947D
:1042900065070E945A0D80910003811106C06BE0F2
:1042A00070E080E090E00E9472020E94690A6093D0
:1042B000FA027093FB028093FC029093FD0274CE8D
:1042C0000091F8021091F9020115110509F48FC04F
:1042D000F801EE0FFF1FE852FD4F80819181049796
:1042E00009F085C06AEDE62E62E0F62E10E000E0EF
:1042F0008091F8029091F902081719070CF06BC031
:10430000D7016D917C91072E000C880B990B97FFBC
:1043100029C00E94560E8FE892E00E94C50DF70159
:10432000A190B1907F0157E6C52E52E0D52ED6015F
:10433000ED91FD916D0180819181A816B90651F42E
:104340008281938182309105E9F184F40097F1F143
:10435000019709F191E7C91692E0D90641F70F5F7D
:104360001F4FC6CF4AE00E94120ED5CF8330910571
:10437000B9F0049779F7CD52DF4F88819981AA81EE
:10438000BB81C35DD04089839A83AB83BC83B30177
:1043900082E593E014C084EC99E00E943C0DDACFF2
:1043A000C153DF4F88819981AA81BB81CF5CD04006
:1043B00089839A83AB83BC83B30182EF93E00E942D
:1043C000790CC8CF84EC99E00E941E0D84E690E041
:1043D0000E94000DBFCF1092F9021092F802EAED90
:1043E000F2E08EE1DF011D928A95E9F7DDCDC20191
:1043F0000E94CF0E892B09F44DC041E7A42E42E064
:10440000B42E90E080E0D501ED91FD915D01A20117
:104410007F01B6E0EB0EF11C21913191DA016D9133
:104420007D91AD016901BFE0CB1AD1086C157D0506
:104430000CF41FC1215F3F4F261737070CF419C139
:10444000EE16FF0649F7009771F08130910549F0AB
:1044500082309105E9F18530910529F084E090E002
:1044600002C082E090E02091D902211113C0833074
:10447000910581F021E02093D902F801EE0FFF1F92
:10448000E652FD4F918380830F5F1F4F1093F90217
:104490000093F80282E494E00E949C0A182F809313
:1044A000D80284E494E00E949C0A111122C0811178
:1044B00012C08AE090E00E943C0D1092D702109248
:1044C000D60281E090E09093D5028093D4026CCD27
:1044D00081E090E0C8CF813009F066CD8AE090E0BD
:1044E0000E94A70D1092D7021092D60283E090E0AE
:1044F000EACF113009F058CD81110BC08AE090E06D
:104500000E94890D1092D7021092D60284E090E0AA
:10451000DACF813009F048CD0091D6021091D70250
:10452000093EE3E01E07CCF48091D4029091D502BD
:104530008430910559F48AE090E00E94890D0F5F64
:104540001F4F1093D7020093D6022ECD039729F464
:104550008AE090E00E94A70DF2CF8AE090E00E94EE
:10456000000D1092D7021092D6021092D50210922E
:10457000D40266E170E080E090E00E94720214CD07
:10458000C2010E94CF0E892B09F40ECD720110E0FA
:1045900000E02AEBC22E22E0D22ED7018C91119698
:1045A0009C91B2E0EB0EF11C9F938F931F930F939E
:1045B000DF92CF927F926F920E946628C3010E9481
:1045C000C50D8FE892E00E94C50D0F5F1F4F0FB61B
:1045D000F894DEBF0FBECDBF03301105F1F6E4CC79
:1045E0000F5F1F4F3DCDE091B506F091B6060995DE
:1045F000E1E8F4E0119284EA94E08E179F07D1F786
:1046000053CD80917F048111CFCC8091D2029091C3
:10461000D30282309105F9F064F40097B9F0019764
:1046200009F0C2CC80913801909139010E94A70D08
:104630000FC083309105B1F0049709F0B5CC80919B
:104640003801909139010E941E0D02C00E945A0D3E
:104650000E94E00DA9CC80913801909139010E940F
:10466000890DF6CF80913801909139010E943C0D5F
:10467000EFCF01968630910509F0C5CE1092D90290
:1046800083E090E0F0CE8F929F92AF92BF92CF9254
:10469000DF92EF92FF92CF93DF93EC0168817981F3
:1046A0008A819B81611571058105910521F464E280
:1046B00079ED8BE597E02DE133EF41E050E00E948A
:1046C000732549015A019B01AC01A7EAB1E40E949C
:1046D00092256B017C01ACEEB4EFA50194010E9420
:1046E000A025C60ED71EE81EF91EF7FE06C081E003
:1046F000C81AD108E10880E8F80AC882D982EA829B
:10470000FB82C701B6019F77DF91CF91FF90EF90B9
:10471000DF90CF90BF90AF909F908F9008958F9231
:104720009F92AF92BF92CF92DF92EF92FF926091F1
:104730004D0170914E0180914F0190915001611592
:1047400071058105910521F464E279ED8BE597E02F
:104750002DE133EF41E050E00E94732549015A01F9
:104760009B01AC01A7EAB1E40E9492256B017C0198
:10477000ACEEB4EFA50194010E94A025C60ED71E91
:10478000E81EF91EF7FE06C081E0C81AD108E1084C
:1047900080E8F80AC0924D01D0924E01E0924F019C
:1047A000F0925001C701B6019F77FF90EF90DF9024
:1047B000CF90BF90AF909F908F90089560934D01E0
:1047C00070934E0180934F01909350010895B0E093
:1047D000A0E0EDEEF3E20C94A6255C016B017A01FA
:1047E0006115710519F0FB0191838083E114F104D7
:1047F00049F0C7010297839728F060E070E0CB0191
:104800009CC05E01E5012196F5011081812F90E0A9
:104810000E94F024892BA9F71D3209F056C0219679
:10482000F501118101E0E114F10409F4AEC0F0E1F9
:10483000EF16F10409F08EC0103341F488818F7DAA
:10484000883509F083C0198122960260E0E1EE2EDE
:10485000F12C88248A94982CA82CFFE0BF2E20E00D
:1048600060E070E0CB0127010F2C000C6608770890
:10487000FE0150ED352E310E39E0331538F43FEBA3
:10488000310F3A31A0F549EC342E310E3E141F049D
:10489000BCF52F3FB9F086169706A806B90670F149
:1048A000A30192010E944125232D30E050E040E019
:1048B000620F731F841F951F621773078407950784
:1048C000E8F021E021961081D3CF1B3221F4E501DD
:1048D0002296F501118100E0A6CF78E0E72EF12CB9
:1048E00088248A94982CA82C6FE1B62EB8CF3FE983
:1048F000310F3A3128F439EA332EC7CF2FEFE2CF08
:10490000C114D10431F02223E9F02197F601D183BB
:10491000C08300FF07C090958095709561957F4F8B
:104920008F4F9F4F2F3F49F482E290E09093BA0659
:104930008093B9066FEF7FEFCB01CDB7DEB7E1E132
:104940000C94C22501FFE5CF2297E0CF10E3E114DC
:10495000F10419F23AE0E316F104E9F080E1E81617
:10496000F10409F473CFE8E0EE16F10409F4B8CFCE
:104970006FEF7FEFCB0197010F2C000C440B550B11
:104980000E94512549015A016ACF103309F456CFCC
:104990009AE0E92EF12C89E9882E982CA82C89E13F
:1049A000B82E5DCFFC0188279927E8942191203209
:1049B000E9F3293010F02E30C8F32B3241F02D32BC
:1049C00039F4689404C00E942025820F911D219122
:1049D00020532A30C0F31EF4909581959F4F08957F
:1049E00091110C942825803219F089508550C8F710
:1049F0000895FA01A191B081009719F41097E1F0A0
:104A0000CD01DC01CD010D90002011F4C00113C0D7
:104A1000FB012191222319F02015D9F7F3CFFB01D7
:104A20002191201519F41E92119606C02223C1F778
:104A30000D900020A1F7D001FA01A193B083089551
:104A40007AE0979F902D879F802D910D11240895D6
:104A5000992788270895F999FECF92BD81BDF89ACC
:104A6000992780B50895262FF999FECF1FBA92BDD8
:104A700081BD20BD0FB6F894FA9AF99A0FBE01963F
:104A80000895DB018F939F930E949225BF91AF9170
:104A9000A29F800D911DA39F900DB29F900D112498
:104AA0000895A1E21A2EAA1BBB1BFD010DC0AA1F6F
:104AB000BB1FEE1FFF1FA217B307E407F50720F087
:104AC000A21BB30BE40BF50B661F771F881F991F02
:104AD0001A9469F760957095809590959B01AC014B
:104AE000BD01CF010895052E97FB1EF400940E948E
:104AF0008A2557FD07D00E94512507FC03D04EF4AC
:104B00000C948A2550954095309521953F4F4F4FF5
:104B10005F4F089590958095709561957F4F8F4F69
:104B20009F4F08950E94DC25A59F900DB49F900D86
:104B3000A49F800D911D11240895B7FF0C94922518
:104B40000E949225821B930B08952F923F924F92C1
:104B50005F926F927F928F929F92AF92BF92CF920D
:104B6000DF92EF92FF920F931F93CF93DF93CDB716
:104B7000DEB7CA1BDB0B0FB6F894DEBF0FBECDBF8E
:104B800009942A88398848885F846E847D848C845F
:104B90009B84AA84B984C884DF80EE80FD800C8168
:104BA0001B81AA81B981CE0FD11D0FB6F894DEBF4B
:104BB0000FBECDBFED010895A29FB001B39FC0010C
:104BC000A39F700D811D1124911DB29F700D811D39
:104BD0001124911D08955058BB27AA270E9403262F
:104BE0000C947D270E946F2738F00E94762720F0D2
:104BF00039F49F3F19F426F40C946C270EF4E095D9
:104C0000E7FB0C946627E92F0E948E2758F3BA170A
:104C1000620773078407950720F079F4A6F50C94D2
:104C2000B0270EF4E0950B2EBA2FA02D0B01B90181
:104C300090010C01CA01A0011124FF27591B99F012
:104C4000593F50F4503E68F11A16F040A22F232F1E
:104C5000342F4427585FF3CF469537952795A7956E
:104C6000F0405395C9F77EF41F16BA0B620B730B15
:104C7000840BBAF09150A1F0FF0FBB1F661F771F86
:104C8000881FC2F70EC0BA0F621F731F841F48F43B
:104C9000879577956795B795F7959E3F08F0B0CFC4
:104CA0009395880F08F09927EE0F979587950895AB
:104CB0000E94422708F481E008950E9471260C9416
:104CC0007D270E94762758F00E946F2740F029F434
:104CD0005F3F29F00C94662751110C94B1270C9476
:104CE0006C270E948E2768F39923B1F3552391F323
:104CF000951B550BBB27AA2762177307840738F04B
:104D00009F5F5F4F220F331F441FAA1FA9F335D0A7
:104D10000E2E3AF0E0E832D091505040E695001C5B
:104D2000CAF72BD0FE2F29D0660F771F881FBB1F15
:104D3000261737074807AB07B0E809F0BB0B802DF3
:104D4000BF01FF2793585F4F3AF09E3F510578F01F
:104D50000C9466270C94B1275F3FE4F3983ED4F39C
:104D6000869577956795B795F7959F5FC9F7880FF3
:104D7000911D9695879597F90895E1E0660F771F45
:104D8000881FBB1F621773078407BA0720F0621BD6
:104D9000730B840BBA0BEE1F88F7E09508950E9401
:104DA000D6266894B1110C94B12708950E949627D5
:104DB00088F09F5798F0B92F9927B751B0F0E1F0DC
:104DC000660F771F881F991F1AF0BA95C9F714C08C
:104DD000B13091F00E94B027B1E008950C94B02753
:104DE000672F782F8827B85F39F0B93FCCF38695C5
:104DF00077956795B395D9F73EF490958095709522
:104E000061957F4F8F4F9F4F0895E89409C097FB9E
:104E10003EF490958095709561957F4F8F4F9F4F91
:104E20009923A9F0F92F96E9BB279395F6958795D5
:104E300077956795B795F111F8CFFAF4BB0F11F498
:104E400060FF1BC06F5F7F4F8F4F9F4F16C088233F
:104E500011F096E911C0772321F09EE8872F762F75
:104E600005C0662371F096E8862F70E060E02AF0B6
:104E70009A95660F771F881FDAF7880F96958795A2
:104E800097F90895990F0008550FAA0BE0E8FEEF77
:104E900016161706E807F907C0F012161306E407FE
:104EA000F50798F0621B730B840B950B39F40A26F7
:104EB00061F0232B242B252B21F408950A2609F4D5
:104EC000A140A6958FEF811D811D089597F99F67D9
:104ED00080E870E060E008959FEF80EC0895002482
:104EE0000A941616170618060906089500240A944F
:104EF00012161306140605060895092E0394000CD5
:104F000011F4882352F0BB0F40F4BF2B11F460FF63
:104F100004C06F5F7F4F8F4F9F4F089557FD90588C
:104F2000440F551F59F05F3F71F04795880F97FB6D
:104F3000991F61F09F3F79F0879508951216130627
:104F40001406551FF2CF4695F1DF08C01616170656
:104F50001806991FF1CF869571056105089408958B
:104F6000E894BB2766277727CB0197F908950E941D
:104F7000422708F48FEF08950E94CF270C947D27D5
:104F80000E946F2738F00E94762720F0952311F0B9
:104F90000C9466270C946C2711240C94B1270E9462
:104FA0008E2770F3959FC1F3950F50E0551F629FB8
:104FB000F001729FBB27F00DB11D639FAA27F00D72
:104FC000B11DAA1F649F6627B00DA11D661F829F99
:104FD0002227B00DA11D621F739FB00DA11D621F7E
:104FE000839FA00D611D221F749F3327A00D611D9B
:104FF000231F849F600D211D822F762F6A2F11247D
:105000009F5750409AF0F1F088234AF0EE0FFF1FAF
:10501000BB1F661F771F881F91505040A9F79E3F06
:10502000510580F00C9466270C94B1275F3FE4F3A0
:10503000983ED4F3869577956795B795F795E7955C
:105040009F5FC1F7FE2B880F911D9695879597F965
:1050500008950E944227880B990B0895991B79E0C7
:1050600004C0991F961708F0961B881F7A95C9F7F8
:1050700080950895EE0FFF1F0590F491E02D09949F
:10508000803209F091110C94282580528F55D8F761
:105090000895FB01DC014150504030F08D910190AA
:1050A000801919F40020B9F7881B990B0895FB01AA
:1050B000DC014150504048F001900D920020C9F7AA
:1050C00001C01D9241505040E0F70895AEE0B0E0BD
:1050D000ECE6F8E20C94B3250D891E8986E08C83FA
:1050E0001A8309838FEF9FE79E838D83AE01475E0E
:1050F0005F4F6F89788DCE0101960E9489282F819C
:105100003885020F131FF80110822E96E4E00C94EC
:10511000CF25ABE0B0E0EFE8F8E20C94A5257C01E8
:105120003B018A01FC0117821682838181FFC8C17D
:10513000CE0101965C01F7019381F30193FD859106
:1051400093FF81913F01882309F453C1853239F4DB
:1051500093FD859193FF81913F01853229F4B70139
:1051600090E00E94792AE7CF912C212C312CFFE18D
:10517000F31538F08B3211F190F4803209F183325B
:1051800029F137FC3CC020ED280F2A3050F536FEBF
:1051900020C08AE0989E200D1124922E06C08D32E8
:1051A00091F0803371F7689430F8F30193FD8591A5
:1051B00093FF81913F018111DACF21C0689431F8CA
:1051C000689432F8F2CF689433F8EFCF689434F8EB
:1051D000ECCFEAE02E9E200D1124222E689435F8A3
:1051E000E4CF8E3229F436FC04C1689436F8DDCF62
:1051F0008C3619F4689437F8D8CF8836B1F2982FE6
:105200009F7D95549330E0F08336A1F18337C1F14F
:10521000833509F063C02801F2E04F0E511CF801FC
:10522000C080D180692D70E036FC02C06FEF7FEF47
:10523000C6010E94632A4C01689437F882010AC0B3
:105240000C5F1F4FFFE3F98388248394912C650141
:10525000E89437F833FE2DC0522C8114910471F577
:10526000552009F468CFB70180E290E00E94792AC6
:105270005A94F6CFF801808189830E5F1F4FE4CFE7
:105280002801F2E04F0E511CF801C080D180692D39
:1052900070E036FC02C06FEF7FEFC6010E946E2AFD
:1052A0004C018201D5CFB70180E290E00E94792ABB
:1052B0002A942814190409F0B0F7CECFF60137FC70
:1052C000859137FE81916F01B70190E00E94792AA4
:1052D00051105A94F1E08F1A9108BFCF843619F01B
:1052E000893609F077C0F80137FE6BC060817181A3
:1052F000828193810C5F1F4FF32DFF763F2E97FF26
:1053000009C090958095709561957F4F8F4F9F4F05
:10531000689437F82AE030E0A5010E94A92AC82E37
:10532000CA188C2C432C36FE0CC0E89440F8C914E3
:1053300040F434FE05C032FC03C0F32DFE7E4F2E38
:10534000892C44FE95C0FE01EC0DF11D8081803357
:1053500009F087C0242D297E422E842D8870582E76
:1053600043FC95C040FE8FC09C2C821418F42C0C7A
:10537000922C981844FE91C0B70180E390E00E94FF
:10538000792A42FE09C088E790E041FE02C088E524
:1053900090E0B7010E94792AC91408F48AC0CA941F
:1053A000D12C9FEFC91AD90ACA0CDB1CF6018291D5
:1053B0006F01B70190E00E94792AAC14BD04B1F7E7
:1053C0004FCF60817181072E000C880B990B0E5F07
:1053D0001F4F92CFD32CE894D4F82AE030E08537E1
:1053E00039F1232D297FD22E8F3601F148F48835EB
:1053F000A9F0F701868197812B96E2E10C94C125F3
:10540000803749F08837A9F7D4FE02C06894D2F8F3
:1054100020E130E00DC06894D4F8F6CF34FE03C02C
:10542000822F8660D82E20E132E002C028E030E0F2
:10543000F801D7FE0FC060817181828193810C5F7A
:105440001F4FA5010E94A92AC82ECA183D2CE89416
:1054500037F867CF6081718190E080E00E5F1F4F69
:10546000F0CF42FC02C0839478CF8394839475CFAD
:10547000842D867809F471CFF6CFB70180E290E0F1
:105480000E94792A83948214C0F3512C73CF522C3A
:105490005818821408F46ECFF8CF842D867809F45A
:1054A0007BCF8BE241FE80E247FC8DE2B70190E0CA
:1054B00071CFB70180E390E00E94792A9A946CCF73
:1054C0008FEF9FEF99CFFC01059061507040011064
:1054D000D8F7809590958E0F9F1F0895FC0161501D
:1054E000704001900110D8F7809590958E0F9F1F06
:1054F00008950F931F93CF93DF93182F092FEB017C
:105500008B8181FD09C01FEF0FEF812F902FDF915D
:10551000CF911F910F91089582FF14C02E813F817A
:105520008C819D81281739073CF4E881F981CF01EE
:1055300001969983888310838E819F8101969F8332
:105540008E83E3CFE885F985812F0995892BA1F317
:10555000DACFFA01AA27283051F1203181F1E894FD
:105560006F936E7F6E5F7F4F8F4F9F4FAF4FB1E056
:105570003ED0B4E03CD0670F781F891F9A1FA11D51
:10558000680F791F8A1F911DA11D6A0F711D811D52
:10559000911DA11D20D009F468943F912AE0269F17
:1055A00011243019305D3193DEF6CF010895462F76
:1055B0004770405D4193B3E00FD0C9F7F6CF462F57
:1055C0004F70405D4A3318F0495D31FD40524193C0
:1055D00002D0A9F7EACFB4E0A6959795879577957D
:1055E0006795BA95C9F700976105710508959B0104
:1055F000AC010A2E06945795479537952795BA958D
:10560000C9F7620F731F841F951FA01D0895F8949A
:02561000FFCFCA
:105612000400000005000200020004000000030074
:1056220001000100ED00B400B1002B0022002300B4
:105632000F000F000F00AD00490049004E0070003E
:105642006E0049005F005E00E8030100B500B5008E
:10565200000080BF000080BF000080BFFF0100008B
:10566200008C24490C0E4130041E42480C8C4448E4
:105672000C82E049129CC0411E8CC42104104208D5
:105682001E8CC4480C8EE0480C002385000023FDCC
:105692000000E0FD008C14B6128C144A0C00C3000A
:1056A200008091243F80D4B63F0020B53F00F00334
:1056B20000805821000281402040283100C02F3153
:1056C20000C0EC310000420901A1C4482104414854
:1056D2000C10C2210480D4860040187A0000C30056
:1056E2000080610000C03000008061000000C30043
:1056F2000000860100000C030000860100300C004F
:1057020000100A010018496200100A01002100007D
:1057120021520884128C144A0C0023310000C0006C
:10572200000000000000104A0C000825062084102A
:105732000330420801182904008C14020046028139
:10574200000381402081402030402090185A005AA6
:105752000053006400640055006600550064005365
:105762000055005500640064005A4F57495F42419A
:1057720053455F7632002310010C01080104010039
:105782000132012C01260120011A0114010000003E
:10579200005601B600E300BE011401F20006010D3D
:1057A2000A006E616E00696E66006F7666005300D5
:1057B2004C0054004D0048004B004300470052008B
:1057C200450044004E00420049005247425B2564B6
:0857D2005D203D20256400006C
:00000001FF
