:100000000C9481000C94191B0C94F21A0C94A90006
:100010000C94A9000C94A9000C94A9000C94CE197E
:100020000C94A9000C94A9000C94A9000C94401BFA
:100030000C94A9000C94A9000C94A9000C94A9009C
:100040000C94A81A0C94A9000C94761A0C94501ACB
:100050000C94A9000C94A9000C94A9000C94A9007C
:100060000C94A9000C94A900252500452000262603
:10007000002525004420002626002525004E2000CE
:100080002626002525004220002626002525004999
:1000900020002626002525004100262600252500D3
:1000A000460026260000000000240027002A000049
:1000B00000000023002600290000000008000201C3
:1000C000000003040700000000000000000102041B
:1000D00008102040800102040810200102040810CA
:1000E0002000000000250028002B00040404040464
:1000F00004040402020202020203030303030302D4
:10010000411C11241FBECFEFD8E0DEBFCDBF12E0EF
:10011000A0E0B1E0E2EAF7E502C005900D92AC384C
:10012000B107D9F726E0ACE8B2E001C01D92A83CC7
:10013000B207E1F710E0C1E8D0E004C02197FE016A
:100140000E940229C038D107C9F70E940A1D0C94E9
:10015000CF2B0C94000080911C0390911D030196FD
:1001600090931D0380931C0308950895AF92BF924E
:10017000CF92DF92EF92FF920F931F93CF93DF9373
:100180006C017B018B01040F151FEB015E01AE18A2
:10019000BF08C017D10759F06991D601ED91FC91C4
:1001A0000190F081E02DC6010995892B79F7C501F1
:1001B000DF91CF911F910F91FF90EF90DF90CF9043
:1001C000BF90AF900895FC01538D448D252F30E0F2
:1001D000842F90E0821B930B541710F0CF96089554
:1001E00001970895FC01918D828D981761F0A28D81
:1001F000AE0FBF2FB11D5D968C91928D9F5F9F7347
:10020000928F90E008958FEF9FEF0895FC01918DFC
:10021000828D981731F0828DE80FF11D858D90E069
:1002200008958FEF9FEF0895FC01918D228D892F06
:1002300090E0805C9F4F821B91098F7399270895EE
:100240008FE293E00E94140121E0892B09F420E061
:10025000822F089580E090E0892B29F00E942001F0
:1002600081110C9400000895FC01A48DA80FB92FF2
:10027000B11DA35ABF4F2C91848D90E001968F73CE
:100280009927848FA689B7892C93A089B1898C91ED
:10029000837080648C93938D848D981306C002883C
:1002A000F389E02D80818F7D80830895EF92FF9206
:1002B0000F931F93CF93DF93EC0181E0888F9B8D89
:1002C0008C8D98131AC0E889F989808185FF15C043
:1002D0009FB7F894EE89FF896083E889F989808166
:1002E0008370806480839FBF81E090E0DF91CF9135
:1002F0001F910F91FF90EF900895F62E0B8D10E057
:100300000F5F1F4F0F731127E02E8C8D8E110CC0C5
:100310000FB607FCFACFE889F989808185FFF5CF10
:10032000CE010E943401F1CFEB8DEC0FFD2FF11DBA
:10033000E35AFF4FF0829FB7F8940B8FEA89FB894D
:1003400080818062CFCF0F931F93CF93DF938C0177
:10035000D0E0C0E0F801EC0FFD1F6491662341F08E
:100360008FE293E00E945601892B11F02196F2CF83
:10037000CE01DF91CF911F910F910895CF93DF931D
:10038000EC01888D8823B9F0AA89BB89E889F989AD
:100390008C9185FD03C0808186FD0DC00FB607FCE2
:1003A000F7CF8C9185FFF2CF808185FFEDCFCE0115
:1003B0000E943401E9CFDF91CF910895833081F01D
:1003C00028F4813099F08230A9F008958730A9F09F
:1003D0008830C9F08430B1F4809180008F7D03C0F3
:1003E000809180008F7780938000089584B58F7707
:1003F00084BD089584B58F7DFBCF8091B0008F7749
:100400008093B00008958091B0008F7DF9CFCF9395
:10041000DF93282F30E0F901E754FF4F8491F90171
:10042000E353FF4FD491F901E551FF4FC491CC2321
:10043000A1F081110E94DE01EC2FF0E0EE0FFF1F12
:10044000E155FF4FA591B491EC91ED2381E090E04F
:1004500009F480E0DF91CF91089580E090E0FACF39
:100460001F93CF93DF93282F30E0F901E754FF4F1C
:100470008491F901E353FF4FD491F901E551FF4F06
:10048000C491CC23A9F0162F81110E94DE01EC2F1C
:10049000F0E0EE0FFF1FEF51FF4FA591B4918FB722
:1004A000F894EC91111108C0D095DE23DC938FBF36
:1004B000DF91CF911F910895DE2BF8CFCF93DF937B
:1004C000D0E0C0E08091F1039091F203A091F3039A
:1004D000B091F4030C2E04C0B695A7959795879517
:1004E0000A94D2F7682F61708091F5030E94300260
:1004F00000000000000061E08091F6030E943002DD
:1005000000000000000060E08091F6030E943002CD
:100510002196CE31D105B1F661E08091F7030E94BA
:10052000300200000000000060E08091F703DF91DE
:10053000CF910C943002CF93DF93CDB7DEB7C05785
:10054000D1090FB6F894DEBF0FBECDBF20E2E1E2C5
:10055000F1E0DE01999601900D922A95E1F720E1F4
:10056000E1E4F1E0DE01AF59BF4F01900D922A9511
:10057000E1F728E1E1E5F1E0DE01A75BBF4F019083
:100580000D922A95E1F728E2E9E6F1E0DE01119605
:1005900001900D922A95E1F7440F551F440F551F06
:1005A0006230710581F16330710581F1613071054F
:1005B000F1F081E090E08C0F9D1F480F591FFA0168
:1005C00080A591A5A2A5B3A58093F1039093F20312
:1005D000A093F303B093F403C059DF4F0FB6F89420
:1005E000DEBF0FBECDBFDF91CF910C945E0281E6DE
:1005F00090E08C0F9D1F480F591FFA018081918157
:10060000A281B381E1CF89E490E0F3CF81E090E073
:10061000F0CFCF93DF93CDB7DEB7CC57D1090FB66C
:10062000F894DEBF0FBECDBF2CE7E1E9F1E0DE01BB
:10063000119601900D922A95E1F7660F771F660FCC
:10064000771F81E090E08C0F9D1F680F791FFB01E1
:1006500080819181A281B3818093F1039093F20311
:10066000A093F303B093F403C458DF4F0FB6F8948C
:10067000DEBF0FBECDBFDF91CF910C945E02109212
:10068000F1031092F2031092F3031092F4030C940E
:100690005E02CF93DF9390E0FC01E353FF4F249180
:1006A00085519F4FFC0184918823D1F090E0880F01
:1006B000991FFC01EB55FF4FA591B491FC01EF513F
:1006C000FF4FC591D49161110EC09FB7F8948C91E2
:1006D000E22FE0958E238C932881E223E8839FBF4D
:1006E000DF91CF9108958FB7F894EC91E22BEC93C2
:1006F0008FBFF6CF10921D0310921C0310921B03A4
:1007000010921A0361E080E10E94490361E08FE0EA
:100710000E94490361E08EE00E94490360E082E0AC
:100720000E94490361E080E10C9430028E3008F0B1
:100730008E508770806480937C0080917A00806402
:1007400080937A0080917A0086FDFCCF80917800BA
:100750009091790008953FB7F8948091920290911A
:100760009302A0919402B091950226B5A89B05C072
:100770002F3F19F00196A11DB11D3FBFBA2FA92F20
:10078000982F8827BC01CD01620F711D811D911D1D
:1007900042E0660F771F881F991F4A95D1F7089589
:1007A0008F929F92AF92BF92CF92DF92EF92FF9281
:1007B0006B017C010E94AB034B015C01C114D104AD
:1007C000E104F104B9F00E94AB03681979098A09C0
:1007D0009B09683E73408105910580F321E0C21AB0
:1007E000D108E108F10888EE880E83E0981EA11C6C
:1007F000B11CE4CFFF90EF90DF90CF90BF90AF900F
:100800009F908F9008954F925F926F927F928F92F8
:100810009F92AF92BF92CF92DF92EF92FF920F938F
:100820001F93CF93DF93CDB7DEB729970FB6F89418
:10083000DEBF0FBECDBF29013A010115110511F42C
:1008400001E010E00E949E2769837A838B839C835A
:10085000809170049091710420911C01281719F166
:100860002F3F09F49DC0C301B2010E94D003B8011B
:10087000110F880B990B29960FB6F894DEBF0FBEA7
:10088000CDBFDF91CF911F910F91FF90EF90DF903F
:10089000CF90BF90AF909F908F907F906F905F9020
:1008A0004F900C94D003EFEFF0E02491298727FDBF
:1008B000DACF61E00E9449038985882321F0998578
:1008C000923009F05FC189819A814C01B12CA12C31
:1008D00060E072E18AE790E0A50194010E943B2666
:1008E0002D833E834F83588769017A0191E0C91AAD
:1008F000D108E108F1082FEFC216D104E104F10498
:1009000009F00CF414C160E472E48FE090E0A501FA
:1009100094010E943B2669017A0181E0C81AD1083E
:10092000E108F1089985923009F0B5C082E02FEF17
:10093000C216D104E104F10409F00CF4E0C160E94D
:1009400070ED83E090E0A50194010E943B266901CF
:100950007A0181E0C81AD108E108F10883E09FEF2D
:10096000C916D104E104F10409F00CF4C8C168E42B
:1009700078EE81E090E0A50194010E943B26690198
:100980007A0191E0C91AD108E108F1082FEFC216E7
:10099000D104E104F10411F00CF0A1C084E0AFC176
:1009A00080931C01EFEFF0E0249129872F3F09F499
:1009B0005ACF213041F150F0223009F446C0298548
:1009C00027FD51CF61E00E94490379CF14BC15BCCB
:1009D00024B5226024BD25B5216025BD9C013327A7
:1009E000F901E551FF4FE491F0E0EE0FFF1FEF51E9
:1009F000FF4F45915491F901E353FF4FE491E09388
:100A00002203198656CF1092800010928100209107
:100A10008100286020938100209181002160209333
:100A200081009C013327F901E551FF4FE491F0E08B
:100A3000EE0FFF1FEF51FF4F45915491F901E35322
:100A4000FF4FE491E093210334CF1092B000109255
:100A5000B1002091B00022602093B0002091B1003D
:100A600021602093B1009C013327F901E551FF4F2C
:100A7000E491F0E0EE0FFF1FEF51FF4F45915491CD
:100A80005093200340931F03F901E353FF4FE49178
:100A9000E0931E030ECF2FEFC216D104E104F10440
:100AA00009F00CF46DC068E478EE81E090E0A501F7
:100AB00094010E943B2669017A0181E0C81AD1089D
:100AC000E108F1089985992309F4E5C02FEFC216D2
:100AD000D104E104F10411F00CF0E6C05FCF64E250
:100AE00074EF80E090E0A50194010E943B2669012B
:100AF0007A0181E0C81AD108E108F10885E09FEF8A
:100B0000C916D104E104F10409F008F4F8C062E167
:100B10007AE780E090E0A50194010E943B266901FC
:100B20007A0181E0C81AD108E108F108CFC081E05C
:100B300029852111E4C095B5987F892B85BD2FEFBC
:100B40003FEFA901411451046104710409F057C039
:100B50008985813009F462C0823009F471C0811145
:100B600082CEC7BC20932B0330932C0340932D03DC
:100B700050932E0380916E00826080936E0073CE3E
:100B800082E0D6CF89819A814C01B12CA12C60E002
:100B900072E18AE790E0A50194010E943B26690179
:100BA0007A0191E0C91AD108E108F10891E0C11475
:100BB000D10421E0E206F10484F068E478EE81E0FB
:100BC00090E0A50194010E943B2669017A0181E031
:100BD000C81AD108E108F10893E02985213009F00D
:100BE000AECF80918100887F892B809381002FEF89
:100BF0003FEFA901411451046104710479F0A98106
:100C0000BA81AA0FBB1FA30192010E945A2628EEA7
:100C100033E040E050E00E9419269ACFD09289003C
:100C2000C092880020932703309328034093290320
:100C300050932A0380916F00826080936F0013CEDF
:100C4000C092B300209323033093240340932503E1
:100C5000509326038091700082608093700003CED1
:100C6000CD80DE80EF80F8848AE0F594E794D79415
:100C7000C7948A95D1F721E0C21AD108E108F1089A
:100C800085E059CF8FEFC816D104E104F10409F0D3
:100C900038F784E050CF83E09FEFC916D104E10418
:100CA000F10409F00CF447CF62E17AE780E090E0CC
:100CB000A50194010E943B2669017A0181E0C81ACE
:100CC000D108E108F10899859923E1F286E09FEFC8
:100CD000C916D104E104F10491F088F0CD80DE80E2
:100CE000EF80F8849AE0F594E794D794C7949A95A6
:100CF000D1F781E0C81AD108E108F10887E09091A6
:100D0000B100987F892B8093B10019CF4F925F92E9
:100D10006F927F928F929F92AF92BF92CF92DF920B
:100D2000EF92FF920F931F93CF93DF93CDB7DEB770
:100D300028970FB6F894DEBF0FBECDBF2B013C0144
:100D400029833A834B835C83ED82FE820F8318876D
:100D50000E9497278B0129813A814B815C81C301D5
:100D6000B2010E94202787FF25C0B801110F880B10
:100D7000990B0E94CF272B013C01AC019B0169819B
:100D80007A818B819C810E947F281816C4F584018A
:100D9000A6019501C301B2010E9403042D813E8189
:100DA0004F815885C301B2010E9484280E94972771
:100DB0008B01DBCFB801110F880B990B0E94CF2755
:100DC0002B013C01AC019B0169817A818B819C8163
:100DD0000E94202787FF13C08401A6019501C3014B
:100DE000B2010E9403042D813E814F815885C301C9
:100DF000B2010E9425270E9497278B01DBCF2896FE
:100E00000FB6F894DEBF0FBECDBFDF91CF911F911B
:100E10000F91FF90EF90DF90CF90BF90AF909F9099
:100E20008F907F906F905F904F9008958F929F92D8
:100E3000AF92BF92CF92DF92EF92FF921F93CF9328
:100E4000DF9385E10E949603CAE0D0E0C12CD12C4B
:100E5000760115E085E10E949603189FB001199F65
:100E6000700D1124072E000C880B990B0E94CF27C0
:100E700020E030E040E85AE30E9484284B015C0106
:100E800026E636E646E850E40E947F2818163CF431
:100E900086E6882E982C86E8A82E80E4B82E2FEBC4
:100EA00036E842ED52E4C501B4010E9484282CE7E3
:100EB0003DE04BEA53E40E94B3264B015C0120E085
:100EC00030E0A9010E94202787FF03C0812C912CCC
:100ED0005401A5019401C701B6010E94B4266B011B
:100EE0007C0161E070E080E090E00E94D0032197F7
:100EF00009F0B0CF20E030E040E251E4C701B60194
:100F00000E942527DF91CF911F91FF90EF90DF90F6
:100F1000CF90BF90AF909F908F9008958F929F92A7
:100F2000AF92BF92CF92DF92EF92FF920F931F93F7
:100F3000CF93DF93019782319105B8F4FC01ED5511
:100F4000F84F0C940229E60709083D085008670885
:100F50008A08B608E508140943096D099209C00911
:100F6000EB09020A430A5A0A710A0EE110E022E371
:100F700030E040E050E064EA70ED84E294E40E94E6
:100F8000030409E110E027E330E040E050E062E5CF
:100F900070ED84EA94E40E9403040AE010E02CE37C
:100FA00030E040E050E060E070E08CED94E40E94BE
:100FB0000304DF91CF911F910F91FF90EF90DF908D
:100FC000CF90BF90AF909F908F9008950EE110E06A
:100FD00022E330E040E050E064EA70ED84E294E423
:100FE0000E94030409E110E027E330E040E050E014
:100FF00060E070E08CED94E40E9403040AE010E0ED
:1010000022E330E040E050E062E570ED84EA94E4F1
:10101000CECF92E0892E912C24E1A22EB12CC12CAE
:10102000D12C1AE0E12E17EDF12E03E81FE32CE599
:101030003FEF43EC54E462E570ED84EA94E40E94EF
:1010400086066EE170E080E090E00E94D0034AE006
:10105000A42EB12CC12CD12C18EBE12E1EE1F12EC7
:1010600005E81FE32FE135ED42E155E462E570ED5F
:1010700084EA94E40E9486069CCFCAE08C2E912CD0
:10108000DEE1AD2EB12CC12CD12C1CE5E12E1FE8E8
:10109000F12E02E81FE320E030E04CED54E4E6CF0F
:1010A000FAE08F2E912CAEE1AA2EB12CC12CD12CBE
:1010B0001AE0E12E17EDF12E03E81FE32FE135EDE5
:1010C00042E155E46CE57FEF83EC94E4D3CF04E692
:1010D00010E022E330E040E050E062E570ED84EAA9
:1010E00094E40E94030400E510E022E330E040E0D5
:1010F00050E06CE57FEF83EC94E40E94030410E081
:1011000000E02CE231E040E050E06FE175ED82E17B
:1011100095E44DCF88248394912C5AE0A52EB12CD0
:10112000C12CD12C1CE5E12E1FE8F12E02E81FE3B3
:1011300020E030E646E055E460E070E088E494E4C6
:101140000E94860677E0A72EB12CC12CD12C1AE084
:10115000E12E17EDF12E03E81FE320E030E048E434
:1011600054E460E070E586E095E484CF93E0892E56
:10117000912C28E0A22EB12CC12CD12C18EBE12E01
:101180001EE1F12E05E81FE320E030E04AEF54E4D1
:1011900060E070E08CE594E40E94860668EC70E004
:1011A00080E090E00E94D003C6E1D0E00AE010E0C9
:1011B00025E030E040E050E068E471EF86E794E439
:1011C0000E940304219791F7F4CEC3E08C2E912C5A
:1011D000D8E0AD2EB12CC12CD12C1AE0E12E17EDA8
:1011E000F12E03E81FE320E030E84BE355E460E034
:1011F00070E08BEE94E40E94860668EC70E080E07C
:1012000090E00E94D003C0E1D0E00AE010E02AE0C4
:1012100030E040E050E060E070ED82E894E40E944D
:101220000304219791F7C5CE64E0862E912C70E1DE
:10123000A72EB12CC12CD12C1AE0E12E17EDF12EE6
:1012400003E81FE320E030E041E654E460E070E0B2
:101250008FE294E40E948606F7E08F2E912CA2E1A3
:10126000AA2EB12CC12CD12C1EEAE12E17E4F12EAE
:1012700001E81FE320E030E842E254E460E070EC73
:1012800080E694E4F7CE2AE0822E912C3AE0A32E59
:10129000B12CC12CD12C18EBE12E1EE1F12E05E86A
:1012A0001FE320E030E04AEF53E460E070E088ECB8
:1012B00092E40E94860664EF71E080E090E00E9474
:1012C000D00388248394912C20E030E048EC52E451
:1012D00060E070E088EC93E4CDCED8E08D2E912CC8
:1012E00014E1A12EB12CC12CD12C16E6E12EFE2C3E
:1012F00006E81FE320E030E44CE155E460E070E8EC
:101300008BEB94E40E94860699E1A92EB12CC12CA6
:10131000D12C20E030E84BEB54E460E070E38CE14A
:1013200095E4A8CEE3E08E2E912CF8E0AF2EB12C00
:10133000C12CD12C16E6E12EFE2C06E81FE320E09E
:1013400030E84BEB55E460E070E08AEF94E40E94F3
:10135000860662E370E080E090E00E94D003B2E095
:101360008B2E912CCDE0AC2EB12CC12CD12C20E0B9
:1013700030E04AEF54E460E078E78BEB95E47ACE16
:1013800048E0842E912C5FE0A52EB12CC12CD12CED
:1013900016E6E12EFE2C06E81FE320E030E04AEFDF
:1013A00054E460E070E88BEB94E40E94860664E607
:1013B00070E080E090E00E94D0037AE0A72EB12C8C
:1013C000C12CD12C20E030E44CE155E460E070E821
:1013D0008DEE94E44FCE98EC892E912C24E1A22E30
:1013E000B12CC12CD12C1CE5E12E1FE8F12E02E816
:1013F0001FE320E030E447E254E460E070E08CE575
:1014000094E438CEF2E08F2E912CA8E0AA2EB12CD5
:10141000C12CD12C1AE0E12E17EDF12E03E81FE3C9
:1014200020E030E844ED54E460E070E08AE794E4C2
:101430000E948606C3E08C2E912C18EBE12E1EE153
:10144000F12E05E81FE320E030E04AEF53E460E0CE
:1014500070E684ED94E40E9486061AE0812E912CB9
:1014600009E0A02EB12CC12CD12C16E6E12EFE2CC9
:1014700006E81FE320E030E844ED54E460E070E06B
:101480008AE794E4F7CD6FE0862E912C72E0A72EC8
:10149000B12CC12CD12C1CE5E12E1FE8F12E02E865
:1014A0001FE320E030E84BE355E460E070E088ECB7
:1014B00094E4E0CD34E1832E912C42E0A42EB12CB3
:1014C000C12CD12C1CE5E12E1FE8F12E02E81FE310
:1014D00020E030E84BEB55E460E070E08AEF94E404
:1014E000C9CD84E1882E912C92E0A92EB12CC12C7B
:1014F000D12C1CE5E12E1FE8F12E02E81FE320E0CD
:1015000030E04AE755E460E070E088EC94E40E9443
:10151000860620E030E84BE355E460E070E08AE7BF
:1015200095E4A8CD2FB7F89460918E0270918F0248
:1015300080919002909191022FBF0895CF93C62F72
:1015400010921D0310921C0320911203309113037B
:101550002F5F3F4F3093130320931203682F8FE0C8
:101560000E9430026C2F8EE00E9430020E94920A8C
:1015700060930E0370930F038093100390931103F5
:10158000CF910895DC01EC918E2F90E0FC01EE0FDD
:10159000FF1FE80FF91FE453FC4F808186FF02C054
:1015A0008F7B80830895CF92DF92EF92FF92CF934B
:1015B000DF93EC01603282E07807CCF5653B710582
:1015C00014F064EB70E0898128E830E0281B3109D1
:1015D00087FD3395220F331F220F331F6901330F0D
:1015E000EE08FF088A8128E532E0281B310987FDD3
:1015F0003395220F331F220F331F032E000C440B91
:10160000550B2C193D094E095F09DB0177FF02C01C
:10161000B0E0A0E00E94652624EB30E040E050E01E
:101620000E943B26C20ED31EE41EF51EB601E881C1
:10163000EC3070F5298188E890E0821B910927FD44
:101640009395880F991F880F991F681779077CF069
:101650002A8188E592E0821B910927FD9395880FE6
:10166000991F880F991F681779070CF4CB0102970F
:10167000880F991F4FB7F8942E2F30E0F901EE0F25
:10168000FF1FE20FF31FE453FC4F928381834FBF90
:10169000DF91CF91FF90EF90DF90CF9008951F934F
:1016A000CF93DF93EC01162F88818C3008F04EC069
:1016B00061E0812F0E9449038881282F30E0F901E1
:1016C000EE0FFF1FE20FF31FE453FC4F1F73608107
:1016D000607C612B608319821A822CE0622F0E9449
:1016E000F628829FB001112430E020E0AB01420FC8
:1016F000531FFA01EE0FFF1FE40FF51FE453FC4FD9
:10170000908196FD16C02F5F3F4F2C30310571F749
:1017100081110FC01092800082E0809381001092AE
:10172000850010928400B19A80916F00826080934E
:101730006F00E8818E2F90E0FC01EE0FFF1FE80F95
:10174000F91FE453FC4F8081806480838881DF919E
:10175000CF911F910895E091F9038E2F90E0FC0145
:10176000EE0FFF1FE80FF91FE453FC4F808186FD49
:1017700058C0609164047091650489EF93E00E9401
:101780004F0B6AE570E089EF93E00E94D30A8EE187
:1017900090E0909317048093160480ED97E0909367
:1017A00001048093000480E090E0A4E8B2E4809318
:1017B000120490931304A0931404B09315048AE1C7
:1017C00098EFA2ECBDE380930E0490930F04A093D6
:1017D0001004B0931104109218041092190410927E
:1017E0001A0410921B048DE290E09093FD03809305
:1017F000FC0310920A0410920B0410920C04109235
:101800000D0410920204109203041092040410922A
:1018100005041092FF031092FE0310922004109210
:101820002104E09122048E2F90E0FC01EE0FFF1FB7
:10183000E80FF91FE453FC4F808186FD58C060918A
:1018400066047091670482E294E00E944F0B6AE59F
:1018500070E082E294E00E94D30A8EE190E09093DF
:10186000400480933F0480ED97E090932A04809396
:10187000290480E090E0A4E8B2E480933B049093D4
:101880003C04A0933D04B0933E048AE198EFA2EC9F
:10189000BDE38093370490933804A0933904B09348
:1018A0003A041092410410924204109243041092A0
:1018B00044048DE290E090932604809325041092D6
:1018C00033041092340410923504109236041092AE
:1018D0002B0410922C0410922D0410922E041092BE
:1018E0002804109227041092490410924A04089583
:1018F000CF92DF92EF92FF92CF93DF936C01EB01D7
:101900000E94AB0B80918C04811110928C048BE0AF
:10191000C816D1045CF568817981809108049091A2
:101920000904680F791F89EF93E00E94D30A6A8146
:101930007B818091310490913204680F791F82E29B
:1019400094E00E94D30A8881998190936D048093DA
:101950006C048A819B8190936F0480936E04DF9165
:10196000CF91FF90EF90DF90CF9008950E94920A60
:101970000D2C000CEE08FF086C0D7D1D8E1D9F1DAB
:101980006093740470937504809376049093770445
:10199000688179818091080490910904680F791F0A
:1019A00089EF93E00E94D30A6A817B8180913104A0
:1019B00090913204680F791F82E294E00E94D30A6A
:1019C0000E94920AC60ED71EE81EF91EC092740429
:1019D000D0927504E0927604F09277040E94920A05
:1019E000C0907404D0907504E0907604F090770471
:1019F000C616D706E806F90608F4A5CFEFCFCF93B1
:101A0000DF9300D000D0CDB7DEB780918C04811178
:101A10001EC080910D0290910E02A0910F02B09114
:101A2000100289839A83AB83BC83BE016F5F7F4FB3
:101A300084EF91E00E94780C89EF93E00E94C20A43
:101A400082E294E00E94C20A81E080938C040F90AD
:101A50000F900F900F90DF91CF910895CF93DF9368
:101A600000D000D0CDB7DEB74091110250911202E4
:101A7000609113027091140249835A836B837C83B3
:101A8000BE016F5F7F4F0E94780C0F900F900F90F8
:101A90000F90DF91CF910895CF93DF9300D000D0C6
:101AA000CDB7DEB740911502509116026091170232
:101AB0007091180249835A836B837C83BE016F5FE8
:101AC0007F4F0E94780C0F900F900F900F90DF9136
:101AD000CF910895CF93DF9300D000D0CDB7DEB77C
:101AE0004091190250911A0260911B0270911C02E0
:101AF00049835A836B837C83BE016F5F7F4F0E9453
:101B0000780C0F900F900F900F90DF91CF91089568
:101B1000CF93DF9300D000D0CDB7DEB740910D0258
:101B200050910E0260910F027091100249835A8306
:101B30006B837C83BE016F5F7F4F0E94780C0F9098
:101B40000F900F900F90DF91CF910895FC012081AD
:101B500031814281538184819581293C31054CF04A
:101B6000493C51057CF0893C910564F083E090E0AC
:101B700008952035310534F4403551051CF4803585
:101B80009105ACF16091020170910301FB017E9718
:101B90002E173F07ACF1625E7F4F6217730784F127
:101BA0006091040170910501FB017E974E175F075C
:101BB0003CF1625E7F4F6417750714F16091060176
:101BC00070910701FB017E978E179F07CCF0625E34
:101BD0007F4F68177907A4F080910001909101016F
:101BE000089582179307ACF481E090E0089584E0B3
:101BF00090E0089590E080E0089582E090E00895FC
:101C00004217530774F3241735071CF484179507FC
:101C10008CF3281739071CF44817590774F30895F3
:101C2000FC0101900020E9F73197AF01481B590BE7
:101C3000BC018FE293E00C94B600CF93DF930E9437
:101C4000A301EC0184E592E00E94100E8C0F9D1F11
:101C5000DF91CF9108956EE170E080E090E00E9406
:101C6000D00382EA90E00E94A30180EA90E00E9403
:101C7000A3018DE990E00E941D0E8FE293E00C9489
:101C8000BE016EE170E080E090E00E94D0038AE93E
:101C900090E00E94A30188E990E00E94A30185E9F9
:101CA00090E00E941D0E8FE293E00C94BE010E9412
:101CB000410E0E94FF0C0C942B0E8F929F92AF92BC
:101CC000BF920F931F93CF93DF93CDB7DEB7A1974A
:101CD0000FB6F894DEBF0FBECDBF19A2423008F494
:101CE0004AE08E010F5D1F4F842E912CB12CA12C48
:101CF000A50194010E941926E62FB901CA01EA3014
:101D0000F4F4E05DD801EE938D01232B242B252BD9
:101D100079F790E080E0109719F0CD010E94100E45
:101D2000A1960FB6F894DEBF0FBECDBFDF91CF9165
:101D30001F910F91BF90AF909F908F900895E95C95
:101D4000E1CF0E94FF0C82E990E00E94A3018FE89E
:101D500090E00E94A30181E292E00E94100E8CE8C4
:101D600090E00E941D0E8FE293E00C94BE01CF9292
:101D7000DF92EF92FF92CF93DF936C01990FEE0801
:101D8000FF08F7FE19C06DE28FE293E00E94560152
:101D9000EC0166277727CB016C197D098E099F0915
:101DA0004AE00E945D0E8C0F9D1FDF91CF91FF9046
:101DB000EF90DF90CF9008954AE0C701B601DF9120
:101DC000CF91FF90EF90DF90CF900C945D0ECF936A
:101DD000DF930E94FF0C809172040E949603809111
:101DE00072040E949603EC0164E070E080E090E0F1
:101DF0000E94D003809172040E949603C80FD91FDD
:101E000064E070E080E090E00E94D00380E890E021
:101E10000E94A3018DE790E00E94A301CE01D7FDAF
:101E20000196959587950E94B70E8AE790E00E94EB
:101E30001D0E8FE293E0DF91CF910C94BE016F9263
:101E40007F928F929F92AF92BF92CF92DF92EF924A
:101E5000FF920F931F93CF93DF936C0180911A032E
:101E600090911B03892BA1F560E080E10E94300274
:101E700010921B0310921A0310921C0110921D0164
:101E800010921E0110921F01109213031092120360
:101E900010921D0310921C030E94920A60930E037D
:101EA00070930F0380931003909311038BEA90E0DB
:101EB00090930D0180930C01809169008360809361
:101EC0006900E89A81E090E090931B0380931A03E5
:101ED0000E94920A00910E0310910F0320911003AB
:101EE00030911103601B710B820B930B63337105EF
:101EF0008105910530F083E090E090931B0380937F
:101F00001A0380911A0390911B03039709F089C06B
:101F100080911203909113038130910519F14CF4D3
:101F200060E0892B09F4DDC010921D0310921C03A0
:101F300025C08230910509F4CBC00397A9F78091A1
:101F40001C0390911D03909319038093180360E084
:101F500081E00E949E0A82E090E090931B038093B0
:101F60001A030CC080911C0390911D0390931503DC
:101F70008093140361E081E00E949E0A8091120325
:101F80009091130304970CF4AEC020E030E040E8D9
:101F90005FEB60911001709111018091120190919D
:101FA00013010E942027882301F120E030E040E85F
:101FB0005FEB609114017091150180911601909171
:101FC00017010E942027882381F020E030E040E8BC
:101FD0005FEB609118017091190180911A01909145
:101FE0001B010E94202781111CC0C4E1D3E000E145
:101FF00011E06991799190E080E00E94CD279B01EA
:10200000AC0160E070E08FE793E40E942527F801BF
:1020100061937193819391938F01F3E0CA31DF074C
:1020200041F780911A0390911B03029709F065C054
:1020300084E1E82E83E0F82E00E111E0E6013601AC
:1020400086E0680E711CCC24CA94D12CF7016191F2
:1020500071917F01F80181909190A190B1908F01D1
:1020600090E080E00E94CD27A50194010E94842881
:102070000E9497276F3F710509F0E4F57983688323
:102080002296C615D70511F7E89885EB90E0909356
:102090000D0180930C011092130310921203109201
:1020A0001D0310921C0310921B0310921A0381E06F
:1020B00090E0DF91CF911F910F91FF90EF90DF9013
:1020C000CF90BF90AF909F908F907F906F9008952A
:1020D00080911C0390911D03909317038093160326
:1020E00061E080E049CF84E090E090931B0380930F
:1020F0001A0397CFD982C882C3CF90E080E0D9CFAE
:102100008F929F92AF92BF92CF92DF92EF92FF9207
:102110000E94FF0C0E9416076B017C0189E890E089
:102120000E94A30186E890E00E94A301A701960106
:10213000C701B6010E94F1288823A1F087E592E04B
:102140000E94100E83E890E00E941D0E8FE293E043
:10215000FF90EF90DF90CF90BF90AF909F908F90C7
:102160000C94BE0146015701E894B7F82FEF3FEFFA
:102170004FE75FE7C501B4010E94F12881110DC04E
:102180002FEF3FEF4FE75FE7C501B4010E94202723
:1021900018161CF48BE592E0D3CF2FEF3FEF4FE7FB
:1021A0005FE4C701B6010E947F2818161CF48FE572
:1021B00092E0C6CF2FEF3FEF4FE75FECC701B601CC
:1021C0000E94202787FDF3CF20E030E0A901C7015E
:1021D000B6010E94202787FF09C06DE28FE293E0DD
:1021E0000E945601F7FAF094F7F8F0942AE037EDE0
:1021F00043EA5BE3C701B6010E94B4264B015C01D0
:102200000E949E276B017C010E94CD279B01AC019F
:10221000C501B4010E94B3264B015C014AE0C7012D
:10222000B6010E945D0E6EE28FE293E00E945601BD
:1022300020E030E040E251E4C501B4010E9484286E
:102240004B015C010E949E276B01F12CE12C4AE0BE
:10225000C701B6010E945D0EC701B6010E94CD27DD
:102260009B01AC01C501B4010E94B32620E030E01F
:1022700040E251E40E9484280E949E2790E080E082
:102280004AE00E945D0E5ECF1F93CF93DF932091B3
:10229000BA043091BB042E30310504F5EB01BC01CA
:1022A00015E2129FC001139F900D112443E250E0EC
:1022B00084549B4F0E941F298091BA049091BB04C3
:1022C000189FF001199FF00D1124E152FB4FD183AB
:1022D000C08301969093BB048093BA04DF91CF91A1
:1022E0001F91089548EB54E063EB74E090E080E0C8
:1022F0000C94C125CF93DF9300D0CDB7DEB70E94F9
:10230000410E0E94FF0C0E9472110097C1F042E042
:1023100050E0BE016F5F7F4F0E94AF246093F103D6
:102320007093F2038093F3039093F4030E945E0290
:102330000E942B0E0F900F90DF91CF9108956AE1CC
:1023400070E080E090E00E94090360ED77E080E0BB
:1023500090E00E94D0030E943F03EACFCF92DF9229
:10236000EF92FF920F931F93CF93DF930E94410E42
:102370000E94FF0C0E94721111E0009721F00E9450
:102380009A25EC0110E00E947211009721F00E9442
:102390009A251123C1F06AE170E080E090E00E948C
:1023A000090360ED77E080E090E00E94D0030E9496
:1023B0003F03DF91CF911F910F91FF90EF90DF903E
:1023C000CF900C942B0E6C01990FEE08FF08BE0104
:1023D000DD0F880B990B0E94CF2701E010E0A701C9
:1023E00096010E940304E5CF0E94410E80918C0467
:1023F000811110928C040E947211009791F00E943A
:102400009A2590939702809396020E9472110097EA
:10241000D9F00E949A2590930901809308010C94A9
:1024200072116AE170E080E090E00E94090360EDC3
:1024300077E080E090E00E94D0030E943F0310927A
:10244000970210929602E1CF88EE93E0E4CF2F92AC
:102450003F924F925F926F927F928F929F92AF9234
:10246000BF92CF92DF92EF92FF920F931F93CF9381
:10247000DF9300D000D0CDB7DEB70E94410E0E949E
:10248000FF0C0E9472110097C1F00E949A250197DB
:102490008D30910500F5FC01E05BFD4E0C940229A6
:1024A00083129E12C7123813C4132114321443141A
:1024B000BC14FF149915AA16FF166AE170E080E0BB
:1024C00090E00E94090360ED77E080E090E00E94D8
:1024D000D0030E943F030F900F900F900F90DF9159
:1024E000CF911F910F91FF90EF90DF90CF90BF9011
:1024F000AF909F908F907F906F905F904F903F90A4
:102500002F900C942B0E0EE110E022E330E040E01F
:1025100050E064EA70ED84E294E40E9403046AE00F
:1025200070E080E090E00E9409038DE090E00E945E
:102530008E078DE090E00E948E0720C06BE070E077
:1025400080E090E00E9409038BE090E00E948E07FB
:102550006CE070E080E090E00E9409036BE070E0C6
:1025600080E090E00E9409038CE090E00E948E07DA
:102570006CE070E080E090E00E9409030E94FF0C94
:102580006BE070E080E090E00E940903A4CF66E178
:1025900070E080E090E00E94090328EC822E912CEC
:1025A00034E1A32EB12CC12CD12C1CE5E12E1FE867
:1025B000F12E02E81FE320E030E84FE454E460E04D
:1025C00070E08CE594E40E94860668E170E080E0AB
:1025D00090E00E94090320E030E845E454E460E024
:1025E00070E88FE494E40E94860667E170E080E082
:1025F00090E00E94090320E030E049E354E460E009
:1026000070E885E494E40E94860668E170E080E06A
:1026100090E00E94090320E030E04FE254E460E0E3
:1026200070E089E394E40E94860667E170E080E050
:1026300090E00E94090320E030E447E254E460E0C7
:1026400070E08FE294E40E94860666E170E080E02C
:1026500090E00E94090364EF71E080E090E00E9446
:10266000D0030E94FF0C6CE271E080E090E0E6C0D5
:1026700024E030E03A83298350E040E061E070E0FC
:1026800080E090E00E949B02BAE08B2E912C1AE031
:10269000A12EB12CC12CD12C18EBE12E1EE1F12E74
:1026A00005E81FE320E030E048E453E460E070E038
:1026B00088EC92E40E94860641E050E061E070E020
:1026C00080E090E00E949B0220E030E046E953E485
:1026D00060E070E088E493E40E94860642E050E007
:1026E00061E070E080E090E00E949B0220E030E03A
:1026F0004AEF53E460E070E086E993E40E948606C6
:1027000064EF71E080E090E00E94D00341E050E08F
:1027100061E070E080E090E00E949B028824839456
:10272000912C20E030E04AE753E460E070E088EC70
:1027300093E40E94860650E040E061E070E080E0B3
:1027400090E00E949B0220E030E048EC52E460E020
:1027500070E08AE793E40E94860664EF71E080E00F
:1027600090E00E94D00389819A8101979A8389839E
:10277000892B09F081CF63E170E080E090E00E9456
:10278000090389E090E0D7CE6CE271E080E090E050
:102790000E94D00363E170E080E090E00E940903B2
:1027A00080E190E00E948E0760E170E080E090E0C0
:1027B0000E9409036AEF70E080E090E00E94D0037D
:1027C0006CE271E080E090E00E94D00363E170E091
:1027D00080E090E00E94090381E190E00E948E0772
:1027E00060E170E080E090E00E9409036AEF70E031
:1027F00080E090E00E94D0036CE271E080E090E025
:102800000E94D00363E170E080E090E00E94090341
:1028100082E190E00E948E0760E170E080E090E04D
:102820000E9409036CE271E080E090E00E94D00316
:102830000E94FF0C64EF71E080E090E00E94D00302
:102840009FCE64E170E080E090E00E9409038FE099
:1028500090E00E948E0764EF71E080E090E00E94BB
:10286000D0038CCE6DE070E080E090E00E94090320
:1028700089E090E00E948E070E94FF0C8DE090E0BE
:102880000E948E077DCE6EE170E080E090E00E94B5
:1028900009030EE110E024E630E040E050E060E0A3
:1028A00070E08CE594E40E94030444E0842E912CB3
:1028B00057E0A52EB12CC12CD12C1CE5E12E1FE830
:1028C000F12E02E81FE32FE135ED42E954E460E028
:1028D00070E08CE594E40E94860688248394912C11
:1028E000EAE0AE2EB12CC12CD12C2CE53FEF43EC0D
:1028F00054E46FE175ED82E994E40E94860620E0DD
:1029000030E04CE554E46CE57FEF83EC94E40E9406
:1029100086066FE070E080E090E00E94D003F4E073
:102920008F2E912CA4E1AA2EB12CC12CD12C24EAFB
:1029300030ED44E254E460E070E08CE594E40E9401
:10294000860660E971E080E090E00E94D0032FE10C
:1029500035ED42E954E460E070E08CE594E40E94D7
:10296000860624EA30ED44E254E460E070E08CE551
:1029700094E40E94860602CE6EE170E080E090E072
:102980000E94090394E0892E912C24E1A22EB12CFF
:10299000C12CD12C1CE5E12E1FE8F12E02E81FE32B
:1029A0002FE135ED42E954E460E070E08CE594E419
:1029B0000E94860624EA30ED44E254E460E070E0D0
:1029C0008CE594E40E9486066CE271E080E090E081
:1029D0000E94D00363E170E080E090E00E94090370
:1029E0000E94FF0C0E94FF0C0E94FF0C0E94FF0C33
:1029F0006EE170E080E090E00E9409032CCF24E0BB
:102A000030E03A83298300E911E01C821B824B816C
:102A10005C8162E070E080E090E00E949B0218011F
:102A200034E6230E311CB801110F880B990B0E945C
:102A3000CF272B013C01B101032C000C880B990B13
:102A40000E94CF279B01AC011AE0812E912C0AE055
:102A5000A02EB12CC12CD12C18EBE12E1EE1F12EB1
:102A600005E81FE3C301B2010E9486068B819C81A9
:102A700001969C838B838101069749F60E943F0350
:102A800018EBE12E1EE1F12E05E81FE320E030E80F
:102A900049E854E4C301B2010E94860628EE33E0FF
:102AA0003C832B83312C212CA10162E070E080E07B
:102AB00090E00E949B026B817C816C597F4F072EB6
:102AC000000C880B990B0E94CF272B013C012B8116
:102AD0003C81B901330F880B990B0E94CF27EAE0A4
:102AE0008E2E912CFAE0AF2EB12CC12CD12C18EBEC
:102AF000E12E1EE1F12E05E81FE3A30192010E94E1
:102B000086068B819C81845691099C838B839FEFE1
:102B1000291A390A2B813C812039314029F6298133
:102B20003A81215031093A832983232B09F06BCF55
:102B30009ACD82E090E09A83898384EF91E09C8330
:102B40008B83312C212CA10163E070E080E090E0C8
:102B50000E949B026B817C816C597F4F072E000C79
:102B6000880B990B0E94CF272B013C012B813C81C4
:102B7000B901330F880B990B0E94CF273AE0832EBF
:102B8000912C4AE0A42EB12CC12CD12C1CE5E12EB5
:102B90001FE8F12E02E81FE3A30192010E948606BE
:102BA0008B819C818B599F4F9C838B839FEF291A2C
:102BB000390A2AE02216310431F686EE95E09C832C
:102BC0008B83312C212CA10163E070E080E090E048
:102BD0000E949B026B817C816C597F4F072E000CF9
:102BE000880B990B0E94CF272B013C012B813C8144
:102BF000B901330F880B990B0E94CF27AAE08A2EC8
:102C0000912CBAE0AB2EB12CC12CD12C1CE5E12EBD
:102C10001FE8F12E02E81FE3A30192010E9486063D
:102C20008B819C818B599F4F9C838B839FEF291AAB
:102C3000390A2AE02216310431F688ED99E09C83A6
:102C40008B83312C212CA10163E070E080E090E0C7
:102C50000E949B026B817C8164567109072E000CD7
:102C6000880B990B0E94CF272B013C012B813C81C3
:102C7000B901330F880B990B0E94CF275AE0852E9C
:102C8000912CEAE0AE2EB12CC12CD12C1CE5E12E0A
:102C90001FE8F12E02E81FE3A30192010E948606BD
:102CA0008B819C81855691099C838B839FEF291A88
:102CB000390A2B813C81263E354029F6312C212CC6
:102CC000A10163E070E080E090E00E949B026B81D4
:102CD0007C8164567109072E000C880B990B0E94A9
:102CE000CF272B013C012B813C81B901330F880B8D
:102CF000990B0E94CF272AE0822E912C3AE0A32E36
:102D0000B12CC12CD12C1CE5E12E1FE8F12E02E8DC
:102D10001FE3A30192010E9486068B819C81855648
:102D200091099C838B839FEF291A390A2AE0221686
:102D3000310431F689819A81019739F40E943F0369
:102D400064E670E080E090E079CD21E030E03A8305
:102D50002983F3CE6FE070E080E090E00E940903E9
:102D600020E436E03A83298329813A81B901330F7F
:102D7000880B990B0E94CF2701E010E02FE030E094
:102D800040E050E00E94030489819A8144969A832E
:102D90008983803F9A4041F76EE070E080E090E0E8
:102DA0000E94090329813A81B901330F880B990BDD
:102DB0000E94CF2701E010E02FE030E040E050E03B
:102DC0000E94030489819A8144969A838983803A78
:102DD0009F4041F76BE070E080E090E00E940903C3
:102DE0008CE090E00E948E076CE070E080E090E064
:102DF0000E9409030E94FF0C0E943F03C1CB67E1C0
:102E000070E080E090E00E94090301E010E028EC0F
:102E100030E040E050E060E070E081E694E40E9441
:102E2000030468E170E080E090E00E94090328EC70
:102E300030E040E050E060E070E086E194E40E9421
:102E4000030464E170E080E090E00E94090328EC54
:102E500030E040E050E060E070E086E993E40E94FA
:102E600003046AE170E080E090E00E94090389EFCA
:102E700093E00E94C20A82E294E00E94C20A28E91A
:102E800038E040E050E060E070E086E193E40E94CA
:102E9000030468E572E080E090E00E94D0030E94A5
:102EA0003F036BE070E080E090E00E9409030E9425
:102EB000FF0C11CB0E94410E0E94FF0C0E94721168
:102EC0000097F1F00E949A2501978331910530F522
:102ED000FC01E359F84E0C940229901795179817A6
:102EE0009B179E17A117A417A717AA17AD17B017FE
:102EF000B317B617B917BC17BF17C217C517C8172E
:102F00006AE170E080E090E00E94090360ED77E004
:102F100080E090E00E94D0030E943F030C942B0EAF
:102F200090E080E00E948E07F9CF81E090E0FACF38
:102F300086E090E0F7CF87E090E0F4CF88E090E083
:102F4000F1CF89E090E0EECF8AE090E0EBCF8BE02C
:102F500090E0E8CF8CE090E0E5CF8DE090E0E2CF2C
:102F60008EE090E0DFCF8FE090E0DCCF80E190E07A
:102F7000D9CF81E190E0D6CF82E190E0D3CF83E05A
:102F800090E0D0CF84E090E0CDCF85E090E0CACF54
:102F900082E090E0C7CFAF92BF92CF92DF92EF92E4
:102FA000FF921F93CF93DF93CDB7DEB728970FB66D
:102FB000F894DEBF0FBECDBF0E94410E8EE190E0BF
:102FC00090939702809396020E94721111E00097ED
:102FD00021F00E949A255C0110E00E947211009776
:102FE00091F10E949A256C010E947211009769F17B
:102FF0000E949A257C010E947211009721F00E9484
:103000009A25112321F16AE170E080E090E00E94AE
:10301000090360ED77E080E090E00E94D0030E9419
:103020003F030E942B0E28960FB6F894DEBF0FBE0A
:10303000CDBFDF91CF911F91FF90EF90DF90CF90A8
:10304000BF90AF90089511E0CFCF11E0D4CFBA82F6
:10305000A982DC82CB82FE82ED8298878F83BE01BB
:103060006F5F7F4F88EC90E00E94780CDACFCF92B0
:10307000DF92EF92FF920F931F93CF93DF93CDB721
:10308000DEB72B970FB6F894DEBF0FBECDBF0E9400
:10309000FF0C1A821982FE01339689E0DF011D922E
:1030A0008A95E9F732977F0105E010E06F01C801CA
:1030B0000E94F325D7018D937D010F5F1F4F0031D3
:1030C0001105A9F78EE690E00E94A3018BE690E03F
:1030D0000E94A301C6010E94100E88E690E00E94A3
:1030E0001D0E8FE293E00E94BE012B960FB6F8945E
:1030F000DEBF0FBECDBFDF91CF911F910F91FF902B
:10310000EF90DF90CF900895FF920F931F93CF938E
:10311000DF938C01EB01F8800E94F325F81621F073
:103120006F2DC8010E94FB25CE01DF91CF911F9129
:103130000F91FF900895DF92EF92FF920F931F93EC
:10314000CF93DF93CDB7DEB72B970FB6F894DEBFE2
:103150000FBECDBF0E94410E0E94FF0C1A82198241
:10316000FE01339689E0DF011D928A95E9F70E94FE
:103170007211009791F1FC01CE0101967C019F0133
:10318000245F3F4FDC018191882329F0E217F30788
:1031900011F08D93F8CF05E010E0D701DD907D01AF
:1031A000C8010E94F325D81621F06D2DC8010E9498
:1031B000FB250F5F1F4F0031110579F72B960FB6D6
:1031C000F894DEBF0FBECDBFDF91CF911F910F915D
:1031D000FF90EF90DF900C942B0E6AE170E080E09E
:1031E00090E00E94090360ED77E080E090E00E94AB
:1031F000D0030E943F03E2CFFF920F931F93CF9320
:10320000DF930E94410E0E94FF0C0E947211C1E0E8
:10321000009729F00E949A25D82FF92EC0E00E942D
:103220007211009719F10E949A258C010E94721167
:10323000892B09F4C1E00E947211892B11F0CC2373
:10324000B9F06AE170E080E090E00E94090360ED6F
:1032500077E080E090E00E94D0030E943F03DF917E
:10326000CF911F910F91FF900C942B0EC1E0DECFF8
:10327000D0930804F09209041093320400933104AF
:103280006D2F90E080E00E94FB256091310481E089
:1032900090E00E94FB2560915A0482E090E00E9439
:1032A000FB256091830483E090E00E94FB25D7CF4B
:1032B000CF92DF92EF92FF920F931F930E94FF0C29
:1032C00060E080914B040E94300283E090E001971F
:1032D000F1F761E080914B040E94300283E290E0BC
:1032E0000197F1F760E080914B040E9430028091D9
:1032F0004D0490914E049927FC01E353FF4F6491D4
:10330000FC01E551FF4FE491F0E0EE0FFF1FE155A6
:10331000FF4F8591949100E41CE920E030E0462FB6
:103320000E94FC1B611571058105910529F06F5FF5
:103330007F4F8F4F9F4F9F702AE330E040E050E077
:103340000E943B2669017A01C114D104E104F10411
:1033500031F487EEC82E83E0D82EE12CF12C87E7DC
:1033600090E00E94A30184E790E00E94A301C701BE
:10337000B6010E94CF270E949727CB010E94B70E6B
:1033800081E790E00E941D0E8FE293E01F910F9164
:10339000FF90EF90DF90CF900C94BE011F920F92A0
:1033A0000FB60F9211242F933F934F935F936F9318
:1033B0007F938F939F93AF93BF93EF93FF938091EE
:1033C000230390912403A0912503B0912603892B18
:1033D0008A2B8B2BD1F190911E03E0911F03F0916A
:1033E0002003808189278083809123039091240387
:1033F000A0912503B0912603181619061A061B067C
:103400009CF48091230390912403A0912503B09113
:1034100026030197A109B109809323039093240304
:10342000A0932503B0932603FF91EF91BF91AF9135
:103430009F918F917F916F915F914F913F912F91CC
:103440000F900FBE0F901F90189580911C01EFEF09
:10345000F0E0E4919FEF90931C01E13051F030F0E7
:10346000E23069F060E00E943002DECF10926E0020
:10347000F9CF90916F009D7F90936F00F3CF909163
:1034800070009D7F9093700091E09093B0009091B8
:10349000B100987F94609093B1001092B300E2CF96
:1034A0001F920F920FB60F9211242F933F934F93B9
:1034B0005F936F937F938F939F93AF93BF93EF939C
:1034C000FF938FE293E00E943401FF91EF91BF914F
:1034D000AF919F918F917F916F915F914F913F91AC
:1034E0002F910F900FBE0F901F9018951F920F9263
:1034F0000FB60F9211242F938F939F93EF93FF9307
:10350000E0913F03F09140038081E0914503F09109
:10351000460382FD1BC09081809148038F5F8F73AB
:1035200020914903821741F0E0914803F0E0E15D0A
:10353000FC4F958F80934803FF91EF919F918F915E
:103540002F910F900FBE0F901F9018958081F4CF90
:103550001F920F920FB60F9211242F933F938F93C8
:103560009F93AF93BF9380918E0290918F02A09111
:103570009002B091910230918D0223E0230F2D37FC
:1035800058F50196A11DB11D20938D0280938E02E6
:1035900090938F02A0939002B09391028091920237
:1035A00090919302A0919402B09195020196A11D71
:1035B000B11D8093920290939302A0939402B093D2
:1035C0009502BF91AF919F918F913F912F910F9055
:1035D0000FBE0F901F90189526E8230F0296A11D8D
:1035E000B11DD2CF1F920F920FB60F9211242F93BD
:1035F0003F934F935F936F937F938F939F93AF937B
:10360000BF93EF93FF93E0910E01F0910F010995A5
:10361000FF91EF91BF91AF919F918F917F916F91AA
:103620005F914F913F912F910F900FBE0F901F9080
:1036300018951F920F920FB60F9211242F933F935C
:103640004F935F936F937F938F939F93AF93BF93AA
:10365000EF93FF93E0910C01F0910D010995FF911B
:10366000EF91BF91AF919F918F917F916F915F91FA
:103670004F913F912F910F900FBE0F901F90189573
:103680001F920F920FB60F9211242F933F934F93D7
:103690005F936F937F938F939F93AF93BF93CF93DA
:1036A000DF93EF93FF9380918C02C091F003D0E001
:1036B00087FF24C0109285001092840080918C02B4
:1036C0008F5F80938C0280918C02082E000C990BE6
:1036D0008C179D0724F480918C028C30C4F180916A
:1036E000840090918500049680349C4908F47AC047
:1036F0008091840090918500049676C080918C0220
:10370000082E000C990B8C179D07C4F6E0918C02D3
:103710008E2FEE0F990BFC01EE0FFF1FE80FF91F24
:10372000E453FC4F808186FFC9CFE0918C028E2F3D
:10373000EE0F990BFC01EE0FFF1FE80FF91FE4538A
:10374000FC4F808160E08F730E943002B7CF2091E0
:10375000840030918500E0918C028E2FEE0F990B42
:10376000FC01EE0FFF1FE80FF91FE453FC4F8181AE
:103770009281820F931F9093890080938800E0913B
:103780008C028E2FEE0F990BFC01EE0FFF1FE80F3E
:10379000F91FE453FC4F808186FF11C0E0918C0239
:1037A0008E2FEE0F990BFC01EE0FFF1FE80FF91F94
:1037B000E453FC4F808161E08F730E943002FF91DF
:1037C000EF91DF91CF91BF91AF919F918F917F91B9
:1037D0006F915F914F913F912F910F900FBE0F907E
:1037E0001F90189580E49CE990938900809388004D
:1037F0008FEF80938C02E3CFCF92DF92EF92FF9214
:103800000F931F93E82FF92F05C0015011092109CB
:10381000310961F1908196239417B9F305C00150E5
:1038200011092109310911F1908196239413F7CFE1
:10383000C12CD12CE12CF12C0AC08FEFC81AD80A68
:10384000E80AF80A0C151D052E053F0579F0808160
:103850008623841791F36C2D7D2D8E2D9F2D1F9126
:103860000F91FF90EF90DF90CF90089560E070E0AF
:1038700080E090E01F910F91FF90EF90DF90CF904C
:103880000895109232031092310388EE93E0A0E085
:10389000B0E08093330390933403A0933503B09347
:1038A000360386E492E09093300380932F0385ECF7
:1038B00090E090933C0380933B0384EC90E09093E2
:1038C0003E0380933D0380EC90E09093400380930F
:1038D0003F0381EC90E0909342038093410382EC9C
:1038E00090E0909344038093430386EC90E09093A0
:1038F00046038093450310924803109249031092A7
:103900004A0310924B0380E290E09093B4048093BA
:10391000B3048DE08093B5041092BB041092BA04F6
:10392000EEE8F4E081EB94E011928E179F07E1F747
:103930001092B2041092B1041092F1031092F203AB
:103940001092F3031092F4038BE08093F5038DE063
:103950008093F6038CE08093F70361E08BE00E9494
:10396000490361E08091F6030E94490361E0809180
:10397000F7030E94490360E08091F5030E94300242
:1039800060E08091F6030E94300260E08091F703CE
:103990000E9430020E945E028091F0038C30A0F001
:1039A0008FEF8093F903109209041092080480911C
:1039B000F0038C30E0F08FEF8093220410923204F9
:1039C000109231040C947A0391E0980F9093F003D5
:1039D0008093F90390E0FC01EE0FFF1FE80FF91F41
:1039E000E453FC4F88EB9BE092838183DCCF91E032
:1039F000980F9093F0038093220490E0FC01EE0F67
:103A0000FF1FE80FF91FE453FC4F88EB9BE0928304
:103A10008183D4CFCF93DF93CDB7DEB7C25DD10919
:103A20000FB6F894DEBF0FBECDBF789484B5826028
:103A300084BD84B5816084BD85B5826085BD85B552
:103A4000816085BD80916E00816080936E001092D0
:103A5000810080918100826080938100809181004B
:103A600081608093810080918000816080938000DC
:103A70008091B10084608093B1008091B00081603A
:103A80008093B00080917A00846080937A00809166
:103A90007A00826080937A0080917A0081608093BE
:103AA0007A0080917A00806880937A001092C10039
:103AB000E0913F03F091400382E08083E0913B037B
:103AC000F0913C031082E0913D03F0913E0380E1D0
:103AD000808310924703E0914303F091440386E012
:103AE0008083E0914103F091420380818061808373
:103AF000E0914103F0914203808188608083E091EE
:103B00004103F0914203808180688083E09141030A
:103B1000F091420380818F7D808360E086E00E9487
:103B2000490360E087E00E94490384E090E09093BD
:103B300065048093640485E090E09093670480932B
:103B400066040E94AB0B10928C048AE590E090937F
:103B50006D0480936C0490936F0480936E0483E0F3
:103B600090E09093500480934F0460E00E944903DA
:103B700081E190E0909352048093510460E00E94B0
:103B800049030E947A0382E190E090935504809368
:103B9000540460E00E94490301E010E010935704D0
:103BA00000935604109359040093580410935B0437
:103BB00000935A0483E190E090935D0480935C0449
:103BC00060E00E94490310935F0400935E04109329
:103BD0006104009360048FEF9FEF909363048093E0
:103BE000620488E090E090934C0480934B0489E059
:103BF00090E090934E0480934D0461E088E00E9431
:103C0000490360E080914D040E9449038AE090E0FE
:103C1000909371048093700484E190E09093730416
:103C20008093720461E08AE00E94490360E084E1CD
:103C30000E94490384E10E949603BC01990F880BFE
:103C4000990B611571058105910511F00E94A6245B
:103C500067E57EE083E692E00E9444116AE771E145
:103C600085E692E00E9444116EEA71E187E692E0F7
:103C70000E94441164EF71E189E692E00E944411D0
:103C800067E272E18BE692E00E9444116AE577E117
:103C90008DE692E00E9444116CEF78E18FE692E0AD
:103CA0000E9444116BEC77E181E792E00E9444119D
:103CB0006BE978E183E792E00E94441167E378E1E1
:103CC00085E792E00E94441168E579E187E792E098
:103CD0000E94441167EE7EE089E792E00E94441161
:103CE00060E870E18BE792E00E94441161EA7EE0B7
:103CF0008DE792E00E94441187E59EE09093C30611
:103D00008093C2060E94FF0C85E090E00E94F3259C
:103D10008432D9F46FE272E085E090E00E9484186A
:103D20001982BE016F5F7F4F86E090E00E94841889
:103D30006DE170E080E090E00E94090368EE73E0BE
:103D400080E090E00E94D003F9CF0E94371862E330
:103D500070E080E090E00E94D0030E94A10E62E338
:103D600070E080E090E00E94D0030E9480100E94EA
:103D7000160720E030E044E352E40E94202787FF4A
:103D800041C080910D0381113DC06CE170E080E085
:103D900090E00E94090363E0862E912C78E0A72E24
:103DA000B12CC12CD12C18EBE12E1EE1F12E05E82F
:103DB0001FE320E030E04AEF54E460E070E08CE57F
:103DC00094E40E9486066EE170E080E090E00E943C
:103DD000D0031CE5E12E1FE8F12E02E81FE320E0EE
:103DE00030E04CE554E460E070E08AEF94E40E9437
:103DF00086060E943F0364EF71E080E090E00E943D
:103E0000D003BFCF10E000E080910D03811111C0FD
:103E1000A80160E070E0CB010E949B0266E970E0BF
:103E200080E090E00E94D0030F5F1F4F0830110523
:103E300059F710E000E080910D03811111C0A80135
:103E400060E070E0CB010E949B0266E970E080E0D8
:103E500090E00E94D0030F5F1F4F0830110559F703
:103E600080910D0381110CC06AE070E080E090E069
:103E70000E94090368EC70E080E090E00E94D003AB
:103E800085E090E00E94F325833269F580910D036F
:103E900081111DC080911D0290911E02A0911F02F0
:103EA000B091200289839A83AB83BC83BE016F5F8C
:103EB0007F4F90E080E00E94780C90E080E00E94CC
:103EC0002E0D68EC70E080E090E00E94D0038091BD
:103ED0000D03811108C06FE070E080E090E00E9467
:103EE00009030E94FF0C80910D03811106C06BE055
:103EF00070E080E090E00E9409030E94920A6093C3
:103F0000090370930A0380930B0390930C033E0103
:103F100029EC620E711C80911D0290911E02A091ED
:103F20001F02B0912002C153DF4F88839983AA8377
:103F3000BB83CF5CD04022242394312C86E0D30174
:103F40001D928A95E9F78FE293E00E9414011816FA
:103F5000190664F480910A0190910B01039731F0E6
:103F600030920B0120920A0110920D0380910D03F3
:103F7000882391F10E94FF0C64E670E080E090E0FD
:103F80000E94D00368EC70E080E090E00E94D003D3
:103F900060910A0170910B01072E000C880B990BA0
:103FA0000E94090308EC10E06AE070E080E090E015
:103FB0000E94D00301501109B9F710920D0380E05F
:103FC00090E0892B09F4BACF0E942001882309F4DC
:103FD000B5CF0E940000B2CF80910A0190910B01F1
:103FE0008130910509F476C144F4892B09F491C01C
:103FF00030920B0120920A01E2CF8230910509F440
:1040000045C311E00397A1F78FE293E00E941401EA
:10401000181619060CF0B3C3112309F4B0C38FE2CC
:1040200093E00E94F20080938D049091B50489136F
:1040300048C01092B2041092B10448EB54E063EB14
:1040400074E08EE894E00E94C1257C019093B7044F
:104050008093B604892B09F492C34090BA0450901F
:10406000BB048DE8C82E84E0D82E10E000E00415D3
:1040700015050CF077C3B601615D7F4F43E250E058
:10408000C7010E941129A5E2CA0ED11C892B09F093
:1040900066C3B5E2B09FF001B19FF00D1124E1526B
:1040A000FB4F0190F081E02D0995EEE8F4E01192CC
:1040B00024E0E13BF207D9F71092B2041092B10468
:1040C00010E000918D04802F002E000C990B0E94AF
:1040D0000A29892B09F498CF8091B1049091B204F8
:1040E0009C012F5F3F4F3093B2042093B10483575C
:1040F0009B4FDC0111960C93F901E357FB4F1182A2
:10410000233231050CF480CF1092B2041092B10426
:104110007BCF0E94920A0091090310910A0320911B
:104120000B0330910C03601B710B820B930B6038F7
:1041300078438140910508F442CF1D821E821F8280
:1041400018868AE590E09A8389839C838B8380918B
:104150000D03811107C0BE016F5F7F4F8CEB92E0B2
:104160000E94780C44E0442E512C80910D03811163
:104170008CC050E040E061E070E080E090E00E94A0
:104180009B029AE0892E912C2AE0A22EB12CC12C00
:10419000D12C18EBE12E1EE1F12E05E81FE320E003
:1041A00030E048E453E460E070E088EC92E40E9480
:1041B000860680910D03811168C041E050E061E006
:1041C00070E080E090E00E949B0220E030E046E951
:1041D00053E460E070E088E493E40E9486068091F6
:1041E0000D03811152C042E050E061E070E080E0D8
:1041F00090E00E949B0220E030E04AEF53E460E050
:1042000070E086E993E40E94860664EF71E080E046
:1042100090E00E94D00380910D03811136C041E0EF
:1042200050E061E070E080E090E00E949B02882412
:104230008394912C20E030E04AE753E460E070E0A2
:1042400088EC93E40E94860680910D0381111DC0C5
:1042500050E040E061E070E080E090E00E949B026E
:1042600020E030E048EC52E460E070E08AE793E45C
:104270000E94860664EF71E080E090E00E94D00327
:10428000E1E04E1A510809F070CF80910D038111C1
:104290000AC063E170E080E090E00E94090389E0D9
:1042A00090E00E948E070E94FF0C80910D03811107
:1042B00006C06BE070E080E090E00E9409030E947D
:1042C000920A6093090370930A0380930B039093FF
:1042D0000C0375CE80910803811109C087E00E940C
:1042E000070221E0892B09F420E020930803809144
:1042F000070381111DC0009105031091060386E09C
:104300000E94070221E0892B09F420E02093070393
:1043100080910703882361F0012B51F0109206036E
:104320001092050384E6A1EAB2E01D928A95E9F7AE
:10433000809108030091050310910603882389F1F9
:104340000115110529F1000F111FF801E156FD4F6C
:10435000808191810497E1F481EA92E0E0E3F2E068
:10436000DC014D915D91219131914217530709F084
:104370004DC222E0E234F207A1F742964BEF52E041
:104380004817590759F76AE070E080E090E004C0F0
:104390006BE170E080E090E00E9409031092080356
:1043A0000ECE80910703882309F450C1C3010E94F7
:1043B0001F0F892B09F458C0C3010E94A60D97FD59
:1043C00053C08330910509F44FC040919F02509132
:1043D000A002101611060CF080C0F801EE0FFF1FAE
:1043E000E156FD4F2081318182179307F1F098014A
:1043F000220F331F4130510509F065C0F901EF5517
:10440000FD4F208131818217930709F07AC02091F6
:104410009D0230919E02121613060CF06BC042E012
:1044200050E05093A00240939F0220919F02309150
:10443000A00222303105C1F41092A00210929F0216
:104440000F5F1F4F109306030093050310929E0207
:1044500010929D028130910509F056C061E070E034
:1044600080E090E00E94090380914F040E940702BF
:10447000182F80939C02809151040E940702111111
:1044800074C0811160C085E090E00E942E0D1092F2
:104490009B0210929A023092990220929802809187
:1044A000050390910603009709F489CD880F991FA1
:1044B000FC01E156FD4F80819181049709F07FCD89
:1044C000109207037CCD2F553D4FD9018D939C93BE
:1044D0003092A00220929F02A8CF9801220F331F92
:1044E0004130510509F48ACF2F553D4FF901918391
:1044F0008083EECF2F5F3F4F30939E0220939D022B
:1045000094CF9183808391CF009729F462E070E08B
:1045100080E090E0A7CF8530910529F463E070E05A
:1045200080E090E09FCF8230910529F464E070E054
:1045300080E090E097CF049709F096CF65E070E0B7
:1045400080E090E08FCF813009F0A9CF85E090E046
:104550000E946A0D10929B0210929A0223E030E0B2
:1045600030939902209398029ACF113009F097CF97
:1045700081110FC085E090E00E944C0D10929B02CB
:1045800010929A0244E050E05093990240939802AE
:1045900086CF813009F083CF00919A0210919B025F
:1045A000093B5BE0150764F58091980290919902B0
:1045B0008430910559F485E090E00E944C0D0F5F26
:1045C0001F4F10939B0200939A0269CF039729F41F
:1045D00085E090E00E946A0DF2CF85E090E00E94B5
:1045E000880D10929B0210929A02109299021092DA
:1045F000980266E170E080E090E00E9409034FCFEE
:10460000009105031091060385E090E00E94880D5B
:1046100010929B0210929A021092990210929802A4
:1046200066E170E080E090E00E940903F801EE0F7F
:10463000FF1FEF55FD4F84E090E0918380830F5F73
:104640001F4F109306030093050329CF0115110591
:10465000A1F0000F111FF801E156FD4F80819181FB
:10466000049759F48AE090E00E94880D6AE070E0B7
:1046700080E090E00E940903A2CC8AE090E00E94D2
:10468000880D66E170E080E090E0F4CFC3010E9405
:104690001F0F892B09F493CCC3010E94A60D8C0136
:1046A0006301F12CE12CD6018C9111969C91B2E022
:1046B000CB0ED11C9F938F93FF92EF92EFE7F2E026
:1046C000FF93EF9341E050E04C0F5D1F5F934F93DA
:1046D0000E942E29CE0101960E94100E84E592E0E0
:1046E0000E94100E5FEFE51AF50A0FB6F894DEBFD0
:1046F0000FBECDBF93E0E916F104A9F661E070E0CA
:1047000080E090E00130110509F4B4CF62E070E080
:1047100080E090E00115110509F4ACCF63E070E092
:1047200080E090E00530110509F4A4CF64E070E06A
:1047300080E090E00230110509F49CCF65E070E064
:1047400080E090E00430110509F494CF66E070E059
:1047500080E090E00330110509F031CC8BCF0F5F82
:104760001F4F85CCE091C206F091C3060995EEE893
:10477000F4E0119234E0E13BF307D9F79DCC80914E
:104780008C0481111CCC809196029091970282300A
:10479000910571F164F4009731F1019709F00FCCA4
:1047A00080910801909109010E946A0D1EC083301A
:1047B000910529F1049709F002CC809108019091AC
:1047C0000901C153DF4F288139814A815B81CF5C68
:1047D000D04029833A834B835C83BE016F5F7F4F58
:1047E0000E94780C02C00E94FF0C0E942B0EE7CBA7
:1047F00080910801909109010E944C0DF6CF8091A3
:104800000801909109010E942E0DEFCF66E170E042
:1048100080E090E0C1CD8F929F92AF92BF92CF92F5
:10482000DF92EF92FF92CF93DF93EC016881798161
:104830008A819B81611571058105910521F464E2EE
:1048400079ED8BE597E02DE133EF41E050E00E94F8
:104850003B2649015A019B01AC01A7EAB1E40E9441
:104860005A266B017C01ACEEB4EFA50194010E94C5
:104870006826C60ED71EE81EF91EF7FE06C081E0A8
:10488000C81AD108E10880E8F80AC882D982EA8209
:10489000FB82C701B6019F77DF91CF91FF90EF9028
:1048A000DF90CF90BF90AF909F908F9008958F92A0
:1048B0009F92AF92BF92CF92DF92EF92FF92609160
:1048C0001D0170911E0180911F01909120016115C1
:1048D00071058105910521F464E279ED8BE597E09E
:1048E0002DE133EF41E050E00E943B2649015A019F
:1048F0009B01AC01A7EAB1E40E945A266B017C013E
:10490000ACEEB4EFA50194010E946826C60ED71E36
:10491000E81EF91EF7FE06C081E0C81AD108E108BA
:1049200080E8F80AC0921D01D0921E01E0921F019A
:10493000F0922001C701B6019F77FF90EF90DF90C2
:10494000CF90BF90AF909F908F90089560931D017E
:1049500070931E0180931F01909320010895B0E091
:10496000A0E0E5EBF4E20C946E265C016B017A01A9
:104970006115710519F0FB0191838083E114F10445
:1049800049F0C7010297839728F060E070E0CB01FF
:104990009CC05E01E5012196F5011081812F90E018
:1049A0000E94B825892BA9F71D3209F056C021961F
:1049B000F501118101E0E114F10409F4AEC0F0E168
:1049C000EF16F10409F08EC0103341F488818F7D19
:1049D000883509F083C0198122960260E0E1EE2E4D
:1049E000F12C88248A94982CA82CFFE0BF2E20E07C
:1049F00060E070E0CB0127010F2C000C66087708FF
:104A0000FE0150ED352E310E39E0331538F43FEB11
:104A1000310F3A31A0F549EC342E310E3E141F040B
:104A2000BCF52F3FB9F086169706A806B90670F1B7
:104A3000A30192010E940926232D30E050E040E0BE
:104A4000620F731F841F951F6217730784079507F2
:104A5000E8F021E021961081D3CF1B3221F4E5014B
:104A60002296F501118100E0A6CF78E0E72EF12C27
:104A700088248A94982CA82C6FE1B62EB8CF3FE9F1
:104A8000310F3A3128F439EA332EC7CF2FEFE2CF76
:104A9000C114D10431F02223E9F02197F601D1832A
:104AA000C08300FF07C090958095709561957F4FFA
:104AB0008F4F9F4F2F3F49F482E290E09093C706BB
:104AC0008093C6066FEF7FEFCB01CDB7DEB7E1E194
:104AD0000C948A2601FFE5CF2297E0CF10E3E11482
:104AE000F10419F23AE0E316F104E9F080E1E81686
:104AF000F10409F473CFE8E0EE16F10409F4B8CF3D
:104B00006FEF7FEFCB0197010F2C000C440B550B7F
:104B10000E94192649015A016ACF103309F456CF71
:104B20009AE0E92EF12C89E9882E982CA82C89E1AD
:104B3000B82E5DCFFC0188279927E8942191203277
:104B4000E9F3293010F02E30C8F32B3241F02D322A
:104B500039F4689404C00E94E825820F911D2191C8
:104B600020532A30C0F31EF4909581959F4F0895ED
:104B700091110C94F025803219F089508550C8F7B6
:104B80000895FA01A191B081009719F41097E1F00E
:104B9000CD01DC01CD010D90002011F4C00113C046
:104BA000FB012191222319F02015D9F7F3CFFB0146
:104BB0002191201519F41E92119606C02223C1F7E7
:104BC0000D900020A1F7D001FA01A193B0830895C0
:104BD0007AE0979F902D879F802D910D1124089545
:104BE000992788270895F999FECF92BD81BDF89A3B
:104BF000992780B50895262FF999FECF1FBA92BD47
:104C000081BD20BD0FB6F894FA9AF99A0FBE0196AD
:104C10000895DB018F939F930E945A26BF91AF9115
:104C2000A29F800D911DA39F900DB29F900D112406
:104C30000895A1E21A2EAA1BBB1BFD010DC0AA1FDD
:104C4000BB1FEE1FFF1FA217B307E407F50720F0F5
:104C5000A21BB30BE40BF50B661F771F881F991F70
:104C60001A9469F760957095809590959B01AC01B9
:104C7000BD01CF010895052E97FB1EF400940E94FC
:104C8000522657FD07D00E94192607FC03D04EF488
:104C90000C94522650954095309521953F4F4F4F9B
:104CA0005F4F089590958095709561957F4F8F4FD8
:104CB0009F4F08950E94A426A59F900DB49F900D2C
:104CC000A49F800D911D11240895B7FF0C945A26BE
:104CD0000E945A26821B930B08952F923F924F9267
:104CE0005F926F927F928F929F92AF92BF92CF927C
:104CF000DF92EF92FF920F931F93CF93DF93CDB785
:104D0000DEB7CA1BDB0B0FB6F894DEBF0FBECDBFFC
:104D100009942A88398848885F846E847D848C84CD
:104D20009B84AA84B984C884DF80EE80FD800C81D6
:104D30001B81AA81B981CE0FD11D0FB6F894DEBFB9
:104D40000FBECDBFED010895A29FB001B39FC0017A
:104D5000A39F700D811D1124911DB29F700D811DA7
:104D60001124911D08955058BB27AA270E94CB26D5
:104D70000C9445280E94372838F00E943E2820F0E5
:104D800039F49F3F19F426F40C9434280EF4E0957E
:104D9000E7FB0C942E28E92F0E94562858F3BA17E7
:104DA000620773078407950720F079F4A6F50C9441
:104DB00078280EF4E0950B2EBA2FA02D0B01B90127
:104DC00090010C01CA01A0011124FF27591B99F081
:104DD000593F50F4503E68F11A16F040A22F232F8D
:104DE000342F4427585FF3CF469537952795A795DD
:104DF000F0405395C9F77EF41F16BA0B620B730B84
:104E0000840BBAF09150A1F0FF0FBB1F661F771FF4
:104E1000881FC2F70EC0BA0F621F731F841F48F4A9
:104E2000879577956795B795F7959E3F08F0B0CF32
:104E30009395880F08F09927EE0F97958795089519
:104E40000E940A2808F481E008950E9439270C94F2
:104E500045280E943E2858F00E94372840F029F447
:104E60005F3F29F00C942E2851110C9479280C9452
:104E700034280E94562868F39923B1F3552391F3FF
:104E8000951B550BBB27AA2762177307840738F0B9
:104E90009F5F5F4F220F331F441FAA1FA9F335D016
:104EA0000E2E3AF0E0E832D091505040E695001CCA
:104EB000CAF72BD0FE2F29D0660F771F881FBB1F84
:104EC000261737074807AB07B0E809F0BB0B802D62
:104ED000BF01FF2793585F4F3AF09E3F510578F08E
:104EE0000C942E280C9479285F3FE4F3983ED4F379
:104EF000869577956795B795F7959F5FC9F7880F62
:104F0000911D9695879597F90895E1E0660F771FB3
:104F1000881FBB1F621773078407BA0720F0621B44
:104F2000730B840BBA0BEE1F88F7E09508950E946F
:104F30009E276894B1110C94792808950E945E28E8
:104F400088F09F5798F0B92F9927B751B0F0E1F04A
:104F5000660F771F881F991F1AF0BA95C9F714C0FA
:104F6000B13091F00E947828B1E008950C9478282F
:104F7000672F782F8827B85F39F0B93FCCF3869533
:104F800077956795B395D9F73EF490958095709590
:104F900061957F4F8F4F9F4F0895E89409C097FB0D
:104FA0003EF490958095709561957F4F8F4F9F4F00
:104FB0009923A9F0F92F96E9BB279395F695879544
:104FC00077956795B795F111F8CFFAF4BB0F11F407
:104FD00060FF1BC06F5F7F4F8F4F9F4F16C08823AE
:104FE00011F096E911C0772321F09EE8872F762FE4
:104FF00005C0662371F096E8862F70E060E02AF025
:105000009A95660F771F881FDAF7880F9695879510
:1050100097F90895990F0008550FAA0BE0E8FEEFE5
:1050200016161706E807F907C0F012161306E4076C
:10503000F50798F0621B730B840B950B39F40A2665
:1050400061F0232B242B252B21F408950A2609F443
:10505000A140A6958FEF811D811D089597F99F6747
:1050600080E870E060E008959FEF80EC08950024F0
:105070000A941616170618060906089500240A94BD
:1050800012161306140605060895092E0394000C43
:1050900011F4882352F0BB0F40F4BF2B11F460FFD2
:1050A00004C06F5F7F4F8F4F9F4F089557FD9058FB
:1050B000440F551F59F05F3F71F04795880F97FBDC
:1050C000991F61F09F3F79F0879508951216130696
:1050D0001406551FF2CF4695F1DF08C016161706C5
:1050E0001806991FF1CF86957105610508940895FA
:1050F000E894BB2766277727CB0197F908950E948C
:105100000A2808F48FEF08950E9497280C944528E8
:105110000E94372838F00E943E2820F0952311F095
:105120000C942E280C94342811240C9479280E9475
:10513000562870F3959FC1F3950F50E0551F629F5D
:10514000F001729FBB27F00DB11D639FAA27F00DE0
:10515000B11DAA1F649F6627B00DA11D661F829F07
:105160002227B00DA11D621F739FB00DA11D621FEC
:10517000839FA00D611D221F749F3327A00D611D09
:10518000231F849F600D211D822F762F6A2F1124EB
:105190009F5750409AF0F1F088234AF0EE0FFF1F1E
:1051A000BB1F661F771F881F91505040A9F79E3F75
:1051B000510580F00C942E280C9479285F3FE4F37D
:1051C000983ED4F3869577956795B795F795E795CB
:1051D0009F5FC1F7FE2B880F911D9695879597F9D4
:1051E00008950E940A28880B990B0895991B79E06D
:1051F00004C0991F961708F0961B881F7A95C9F767
:1052000080950895EE0FFF1F0590F491E02D09940D
:10521000803209F091110C94F02580528F55D8F707
:105220000895FB01DC014150504030F08D91019018
:10523000801919F40020B9F7881B990B0895FB0118
:10524000DC014150504048F001900D920020C9F718
:1052500001C01D9241505040E0F70895AEE0B0E02B
:10526000E4E3F9E20C947B260D891E8986E08C83A9
:105270001A8309838FEF9FE79E838D83AE01475E7C
:105280005F4F6F89788DCE0101960E9451292F8141
:105290003885020F131FF80110822E96E4E00C945B
:1052A0009726ABE0B0E0E7E5F9E20C946D267C01CF
:1052B0003B018A01FC0117821682838181FFC8C1EC
:1052C000CE0101965C01F7019381F30193FD859175
:1052D00093FF81913F01882309F453C1853239F44A
:1052E00093FD859193FF81913F01853229F4B701A8
:1052F00090E00E94412BE7CF912C212C312CFFE133
:10530000F31538F08B3211F190F4803209F18332C9
:1053100029F137FC3CC020ED280F2A3050F536FE2D
:1053200020C08AE0989E200D1124922E06C08D3256
:1053300091F0803371F7689430F8F30193FD859113
:1053400093FF81913F018111DACF21C0689431F838
:10535000689432F8F2CF689433F8EFCF689434F859
:10536000ECCFEAE02E9E200D1124222E689435F811
:10537000E4CF8E3229F436FC04C1689436F8DDCFD0
:105380008C3619F4689437F8D8CF8836B1F2982F54
:105390009F7D95549330E0F08336A1F18337C1F1BE
:1053A000833509F063C02801F2E04F0E511CF8016B
:1053B000C080D180692D70E036FC02C06FEF7FEFB6
:1053C000C6010E942B2B4C01689437F882010AC059
:1053D0000C5F1F4FFFE3F98388248394912C6501B0
:1053E000E89437F833FE2DC0522C8114910471F5E6
:1053F000552009F468CFB70180E290E00E94412B6C
:105400005A94F6CFF801808189830E5F1F4FE4CF55
:105410002801F2E04F0E511CF801C080D180692DA7
:1054200070E036FC02C06FEF7FEFC6010E94362BA2
:105430004C018201D5CFB70180E290E00E94412B60
:105440002A942814190409F0B0F7CECFF60137FCDE
:10545000859137FE81916F01B70190E00E94412B49
:1054600051105A94F1E08F1A9108BFCF843619F089
:10547000893609F077C0F80137FE6BC06081718111
:10548000828193810C5F1F4FF32DFF763F2E97FF94
:1054900009C090958095709561957F4F8F4F9F4F74
:1054A000689437F82AE030E0A5010E94712BC82EDD
:1054B000CA188C2C432C36FE0CC0E89440F8C91452
:1054C00040F434FE05C032FC03C0F32DFE7E4F2EA7
:1054D000892C44FE95C0FE01EC0DF11D80818033C6
:1054E00009F087C0242D297E422E842D8870582EE5
:1054F00043FC95C040FE8FC09C2C821418F42C0CE9
:10550000922C981844FE91C0B70180E390E00E946D
:10551000412B42FE09C088E790E041FE02C088E5C9
:1055200090E0B7010E94412BC91408F48AC0CA94C4
:10553000D12C9FEFC91AD90ACA0CDB1CF601829143
:105540006F01B70190E00E94412BAC14BD04B1F78C
:105550004FCF60817181072E000C880B990B0E5F75
:105560001F4F92CFD32CE894D4F82AE030E085374F
:1055700039F1232D297FD22E8F3601F148F4883559
:10558000A9F0F701868197812B96E2E10C94892698
:10559000803749F08837A9F7D4FE02C06894D2F862
:1055A00020E130E00DC06894D4F8F6CF34FE03C09B
:1055B000822F8660D82E20E132E002C028E030E061
:1055C000F801D7FE0FC060817181828193810C5FE9
:1055D0001F4FA5010E94712BC82ECA183D2CE894BC
:1055E00037F867CF6081718190E080E00E5F1F4FD8
:1055F000F0CF42FC02C0839478CF8394839475CF1C
:10560000842D867809F471CFF6CFB70180E290E05F
:105610000E94412B83948214C0F3512C73CF522CDF
:105620005818821408F46ECFF8CF842D867809F4C8
:105630007BCF8BE241FE80E247FC8DE2B70190E038
:1056400071CFB70180E390E00E94412B9A946CCF18
:105650008FEF9FEF99CFFC010590615070400110D2
:10566000D8F7809590958E0F9F1F0895FC0161508B
:10567000704001900110D8F7809590958E0F9F1F74
:1056800008950F931F93CF93DF93182F092FEB01EA
:105690008B8181FD09C01FEF0FEF812F902FDF91CC
:1056A000CF911F910F91089582FF14C02E813F81E9
:1056B0008C819D81281739073CF4E881F981CF015D
:1056C00001969983888310838E819F8101969F83A1
:1056D0008E83E3CFE885F985812F0995892BA1F386
:1056E000DACFFA01AA27283051F1203181F1E8946C
:1056F0006F936E7F6E5F7F4F8F4F9F4FAF4FB1E0C5
:105700003ED0B4E03CD0670F781F891F9A1FA11DBF
:10571000680F791F8A1F911DA11D6A0F711D811DC0
:10572000911DA11D20D009F468943F912AE0269F85
:1057300011243019305D3193DEF6CF010895462FE4
:105740004770405D4193B3E00FD0C9F7F6CF462FC5
:105750004F70405D4A3318F0495D31FD405241932E
:1057600002D0A9F7EACFB4E0A695979587957795EB
:105770006795BA95C9F700976105710508959B0172
:10578000AC010A2E06945795479537952795BA95FB
:10579000C9F7620F731F841F951FA01D0895F89409
:0257A000FFCF39
:1057A2000500E600C8007300E8030100B500B5007B
:1057B200000080BF000080BF000080BFFF0100002A
:1057C2000000C3000080610000C030000080610062
:1057D2000000C3000000860100000C0300008601E7
:1057E20000300C0000100A010018496200100A0182
:1057F2000021000021520884128C144A0C0023312B
:105802000000C000000000000000104A0C00082543
:10581200062084100330420801182904008C140267
:1058220000460281000381402081402030402090C8
:10583200188C24490C0E4130041E42480C8C4448FA
:105842000C82E049129CC0411E8CC4210410420803
:105852001E8CC4480C8EE0480C002385000023FDFA
:105862000000E0FD008C14B6128C144A0C00C30038
:10587200008091243F80D4B63F0020B53F00F00362
:1058820000805821000281402040283100C02F3181
:1058920000C0EC310000420901A1C4482104414882
:1058A2000C10C2210480D4860040187A005A005A93
:1058B2000061005800630058006100560053006404
:1058C20000524F4D42495F424153455F76320023B9
:1058D20005000100000002000100000005000200B6
:1058E2000000000000005601B600E300BE011401F2
:1058F200F20006010D0A006E616E00696E66006FAD
:1059020076660053004C0054004D0048004B0043A3
:105912000047005200450044004E00420049005238
:0C59220047425B25645D203D20256400A9
:00000001FF
